{
	"contracts/polygon/microcebus_main.sol": {
		"microcebus_main": {
			"abi": [
				{
					"inputs": [],
					"stateMutability": "nonpayable",
					"type": "constructor"
				},
				{
					"anonymous": false,
					"inputs": [
						{
							"indexed": false,
							"internalType": "bool",
							"name": "success",
							"type": "bool"
						},
						{
							"indexed": false,
							"internalType": "bytes",
							"name": "data",
							"type": "bytes"
						}
					],
					"name": "Response",
					"type": "event"
				},
				{
					"inputs": [
						{
							"internalType": "string",
							"name": "_tokenA_in_identifier",
							"type": "string"
						},
						{
							"internalType": "string",
							"name": "_tokenB_in_identifier",
							"type": "string"
						},
						{
							"internalType": "uint256",
							"name": "_amountA_desired",
							"type": "uint256"
						},
						{
							"internalType": "uint256",
							"name": "_amountB_desired",
							"type": "uint256"
						},
						{
							"internalType": "uint256",
							"name": "_amountA_Min",
							"type": "uint256"
						},
						{
							"internalType": "uint256",
							"name": "_amountB_Min",
							"type": "uint256"
						},
						{
							"internalType": "uint256",
							"name": "deadline",
							"type": "uint256"
						}
					],
					"name": "add_liquidity",
					"outputs": [],
					"stateMutability": "nonpayable",
					"type": "function"
				},
				{
					"inputs": [
						{
							"internalType": "uint256",
							"name": "_amount_in",
							"type": "uint256"
						},
						{
							"internalType": "string",
							"name": "_token_in_identifier",
							"type": "string"
						},
						{
							"internalType": "string",
							"name": "_token_out_identifier",
							"type": "string"
						}
					],
					"name": "get_amounts_out",
					"outputs": [
						{
							"internalType": "uint256",
							"name": "",
							"type": "uint256"
						}
					],
					"stateMutability": "view",
					"type": "function"
				},
				{
					"inputs": [
						{
							"internalType": "string",
							"name": "_tokenA_in_identifier",
							"type": "string"
						},
						{
							"internalType": "string",
							"name": "_tokenB_in_identifier",
							"type": "string"
						},
						{
							"internalType": "address",
							"name": "_token_owner",
							"type": "address"
						}
					],
					"name": "get_lp_token_balance",
					"outputs": [
						{
							"internalType": "uint256",
							"name": "",
							"type": "uint256"
						}
					],
					"stateMutability": "view",
					"type": "function"
				},
				{
					"inputs": [
						{
							"internalType": "string",
							"name": "_tokenA_in_identifier",
							"type": "string"
						},
						{
							"internalType": "string",
							"name": "_tokenB_in_identifier",
							"type": "string"
						}
					],
					"name": "get_lp_token_balance_contract",
					"outputs": [
						{
							"internalType": "uint256",
							"name": "",
							"type": "uint256"
						}
					],
					"stateMutability": "view",
					"type": "function"
				},
				{
					"inputs": [
						{
							"internalType": "string",
							"name": "_tokenA_in_identifier",
							"type": "string"
						},
						{
							"internalType": "string",
							"name": "_tokenB_in_identifier",
							"type": "string"
						}
					],
					"name": "get_lp_token_balance_sender",
					"outputs": [
						{
							"internalType": "uint256",
							"name": "",
							"type": "uint256"
						}
					],
					"stateMutability": "view",
					"type": "function"
				},
				{
					"inputs": [
						{
							"internalType": "string",
							"name": "_token_identifier",
							"type": "string"
						},
						{
							"internalType": "address",
							"name": "_token_owner",
							"type": "address"
						}
					],
					"name": "get_token_balance",
					"outputs": [
						{
							"internalType": "uint256",
							"name": "",
							"type": "uint256"
						}
					],
					"stateMutability": "view",
					"type": "function"
				},
				{
					"inputs": [
						{
							"internalType": "string",
							"name": "_token_identifier",
							"type": "string"
						}
					],
					"name": "get_token_balance_contract",
					"outputs": [
						{
							"internalType": "uint256",
							"name": "",
							"type": "uint256"
						}
					],
					"stateMutability": "view",
					"type": "function"
				},
				{
					"inputs": [
						{
							"internalType": "string",
							"name": "_token_identifier",
							"type": "string"
						}
					],
					"name": "get_token_balance_sender",
					"outputs": [
						{
							"internalType": "uint256",
							"name": "",
							"type": "uint256"
						}
					],
					"stateMutability": "view",
					"type": "function"
				},
				{
					"inputs": [
						{
							"internalType": "address",
							"name": "_user",
							"type": "address"
						},
						{
							"internalType": "string",
							"name": "_tokenA_in_identifier",
							"type": "string"
						},
						{
							"internalType": "string",
							"name": "_tokenB_in_identifier",
							"type": "string"
						}
					],
					"name": "get_user_deposit",
					"outputs": [
						{
							"internalType": "uint256",
							"name": "",
							"type": "uint256"
						}
					],
					"stateMutability": "view",
					"type": "function"
				},
				{
					"inputs": [],
					"name": "receive_wmatic",
					"outputs": [],
					"stateMutability": "payable",
					"type": "function"
				},
				{
					"inputs": [
						{
							"internalType": "uint256",
							"name": "_amount_in",
							"type": "uint256"
						},
						{
							"internalType": "uint256",
							"name": "_amount_out_min",
							"type": "uint256"
						},
						{
							"internalType": "string",
							"name": "_token_in_identifier",
							"type": "string"
						},
						{
							"internalType": "string",
							"name": "_token_out_identifier",
							"type": "string"
						},
						{
							"internalType": "uint256",
							"name": "deadline",
							"type": "uint256"
						}
					],
					"name": "swap_exact_tokens_for_tokens",
					"outputs": [],
					"stateMutability": "nonpayable",
					"type": "function"
				},
				{
					"inputs": [
						{
							"internalType": "string",
							"name": "_token_in_identifier",
							"type": "string"
						},
						{
							"internalType": "address",
							"name": "_token_receiver",
							"type": "address"
						},
						{
							"internalType": "uint256",
							"name": "_amount",
							"type": "uint256"
						}
					],
					"name": "transfer_token",
					"outputs": [],
					"stateMutability": "nonpayable",
					"type": "function"
				},
				{
					"inputs": [
						{
							"internalType": "string",
							"name": "_token_in_identifier",
							"type": "string"
						},
						{
							"internalType": "uint256",
							"name": "_amount",
							"type": "uint256"
						}
					],
					"name": "transfer_token_to_contract",
					"outputs": [],
					"stateMutability": "nonpayable",
					"type": "function"
				},
				{
					"inputs": [
						{
							"internalType": "string",
							"name": "_tokenA_in_identifier",
							"type": "string"
						},
						{
							"internalType": "string",
							"name": "_tokenB_in_identifier",
							"type": "string"
						},
						{
							"internalType": "uint256",
							"name": "_liquidity",
							"type": "uint256"
						},
						{
							"internalType": "uint256",
							"name": "_amountA_Min",
							"type": "uint256"
						},
						{
							"internalType": "uint256",
							"name": "_amountB_Min",
							"type": "uint256"
						},
						{
							"internalType": "uint256",
							"name": "deadline",
							"type": "uint256"
						}
					],
					"name": "withdraw_liquidity",
					"outputs": [],
					"stateMutability": "nonpayable",
					"type": "function"
				},
				{
					"stateMutability": "payable",
					"type": "receive"
				}
			],
			"devdoc": {
				"kind": "dev",
				"methods": {},
				"version": 1
			},
			"evm": {
				"assembly": "    /* \"contracts/polygon/microcebus_main.sol\":94:10657  contract microcebus_main {... */\n  mstore(0x40, 0x80)\n    /* \"contracts/polygon/microcebus_main.sol\":1368:2242  constructor() {... */\n  callvalue\n  dup1\n  iszero\n  tag_1\n  jumpi\n  0x00\n  dup1\n  revert\ntag_1:\n  pop\n    /* \"contracts/polygon/microcebus_main.sol\":1400:1410  msg.sender */\n  caller\n    /* \"contracts/polygon/microcebus_main.sol\":1392:1397  admin */\n  0x02\n  0x00\n    /* \"contracts/polygon/microcebus_main.sol\":1392:1410  admin = msg.sender */\n  0x0100\n  exp\n  dup2\n  sload\n  dup2\n  0xffffffffffffffffffffffffffffffffffffffff\n  mul\n  not\n  and\n  swap1\n  dup4\n  0xffffffffffffffffffffffffffffffffffffffff\n  and\n  mul\n  or\n  swap1\n  sstore\n  pop\n    /* \"contracts/polygon/microcebus_main.sol\":1445:1476  Token({adr: DAI, decimals: 18}) */\n  mload(0x40)\n  dup1\n  0x40\n  add\n  0x40\n  mstore\n  dup1\n    /* \"contracts/polygon/microcebus_main.sol\":893:935  0x8f3Cf7ad23Cd3CaDbD9735AFf958023239c6A063 */\n  0x8f3cf7ad23cd3cadbd9735aff958023239c6a063\n    /* \"contracts/polygon/microcebus_main.sol\":1445:1476  Token({adr: DAI, decimals: 18}) */\n  0xffffffffffffffffffffffffffffffffffffffff\n  and\n  dup2\n  mstore\n  0x20\n  add\n    /* \"contracts/polygon/microcebus_main.sol\":1472:1474  18 */\n  0x12\n    /* \"contracts/polygon/microcebus_main.sol\":1445:1476  Token({adr: DAI, decimals: 18}) */\n  dup2\n  mstore\n  pop\n    /* \"contracts/polygon/microcebus_main.sol\":1420:1435  token_contracts */\n  0x00\n    /* \"contracts/polygon/microcebus_main.sol\":1420:1442  token_contracts[\"DAI\"] */\n  mload(0x40)\n  tag_4\n  swap1\n  tag_5\n  jump\t// in\ntag_4:\n  swap1\n  dup2\n  mstore\n  0x20\n  add\n  mload(0x40)\n  dup1\n  swap2\n  sub\n  swap1\n  keccak256\n    /* \"contracts/polygon/microcebus_main.sol\":1420:1476  token_contracts[\"DAI\"] = Token({adr: DAI, decimals: 18}) */\n  0x00\n  dup3\n  add\n  mload\n  dup2\n  0x00\n  add\n  exp(0x0100, 0x00)\n  dup2\n  sload\n  dup2\n  0xffffffffffffffffffffffffffffffffffffffff\n  mul\n  not\n  and\n  swap1\n  dup4\n  0xffffffffffffffffffffffffffffffffffffffff\n  and\n  mul\n  or\n  swap1\n  sstore\n  pop\n  0x20\n  dup3\n  add\n  mload\n  dup2\n  0x01\n  add\n  sstore\n  swap1\n  pop\n  pop\n    /* \"contracts/polygon/microcebus_main.sol\":1512:1544  Token({adr: WETH, decimals: 18}) */\n  mload(0x40)\n  dup1\n  0x40\n  add\n  0x40\n  mstore\n  dup1\n    /* \"contracts/polygon/microcebus_main.sol\":1175:1217  0x7ceB23fD6bC0adD59E62ac25578270cFf1b9f619 */\n  0x7ceb23fd6bc0add59e62ac25578270cff1b9f619\n    /* \"contracts/polygon/microcebus_main.sol\":1512:1544  Token({adr: WETH, decimals: 18}) */\n  0xffffffffffffffffffffffffffffffffffffffff\n  and\n  dup2\n  mstore\n  0x20\n  add\n    /* \"contracts/polygon/microcebus_main.sol\":1540:1542  18 */\n  0x12\n    /* \"contracts/polygon/microcebus_main.sol\":1512:1544  Token({adr: WETH, decimals: 18}) */\n  dup2\n  mstore\n  pop\n    /* \"contracts/polygon/microcebus_main.sol\":1486:1501  token_contracts */\n  0x00\n    /* \"contracts/polygon/microcebus_main.sol\":1486:1509  token_contracts[\"WETH\"] */\n  mload(0x40)\n  tag_6\n  swap1\n  tag_7\n  jump\t// in\ntag_6:\n  swap1\n  dup2\n  mstore\n  0x20\n  add\n  mload(0x40)\n  dup1\n  swap2\n  sub\n  swap1\n  keccak256\n    /* \"contracts/polygon/microcebus_main.sol\":1486:1544  token_contracts[\"WETH\"] = Token({adr: WETH, decimals: 18}) */\n  0x00\n  dup3\n  add\n  mload\n  dup2\n  0x00\n  add\n  exp(0x0100, 0x00)\n  dup2\n  sload\n  dup2\n  0xffffffffffffffffffffffffffffffffffffffff\n  mul\n  not\n  and\n  swap1\n  dup4\n  0xffffffffffffffffffffffffffffffffffffffff\n  and\n  mul\n  or\n  swap1\n  sstore\n  pop\n  0x20\n  dup3\n  add\n  mload\n  dup2\n  0x01\n  add\n  sstore\n  swap1\n  pop\n  pop\n    /* \"contracts/polygon/microcebus_main.sol\":1582:1616  Token({adr: WMATIC, decimals: 18}) */\n  mload(0x40)\n  dup1\n  0x40\n  add\n  0x40\n  mstore\n  dup1\n    /* \"contracts/polygon/microcebus_main.sol\":754:796  0x0d500B1d8E8eF31E21C99d1Db9A6444d3ADf1270 */\n  0x0d500b1d8e8ef31e21c99d1db9a6444d3adf1270\n    /* \"contracts/polygon/microcebus_main.sol\":1582:1616  Token({adr: WMATIC, decimals: 18}) */\n  0xffffffffffffffffffffffffffffffffffffffff\n  and\n  dup2\n  mstore\n  0x20\n  add\n    /* \"contracts/polygon/microcebus_main.sol\":1612:1614  18 */\n  0x12\n    /* \"contracts/polygon/microcebus_main.sol\":1582:1616  Token({adr: WMATIC, decimals: 18}) */\n  dup2\n  mstore\n  pop\n    /* \"contracts/polygon/microcebus_main.sol\":1554:1569  token_contracts */\n  0x00\n    /* \"contracts/polygon/microcebus_main.sol\":1554:1579  token_contracts[\"WMATIC\"] */\n  mload(0x40)\n  tag_8\n  swap1\n  tag_9\n  jump\t// in\ntag_8:\n  swap1\n  dup2\n  mstore\n  0x20\n  add\n  mload(0x40)\n  dup1\n  swap2\n  sub\n  swap1\n  keccak256\n    /* \"contracts/polygon/microcebus_main.sol\":1554:1616  token_contracts[\"WMATIC\"] = Token({adr: WMATIC, decimals: 18}) */\n  0x00\n  dup3\n  add\n  mload\n  dup2\n  0x00\n  add\n  exp(0x0100, 0x00)\n  dup2\n  sload\n  dup2\n  0xffffffffffffffffffffffffffffffffffffffff\n  mul\n  not\n  and\n  swap1\n  dup4\n  0xffffffffffffffffffffffffffffffffffffffff\n  and\n  mul\n  or\n  swap1\n  sstore\n  pop\n  0x20\n  dup3\n  add\n  mload\n  dup2\n  0x01\n  add\n  sstore\n  swap1\n  pop\n  pop\n    /* \"contracts/polygon/microcebus_main.sol\":1652:1683  Token({adr: USDC, decimals: 6}) */\n  mload(0x40)\n  dup1\n  0x40\n  add\n  0x40\n  mstore\n  dup1\n    /* \"contracts/polygon/microcebus_main.sol\":824:866  0x2791Bca1f2de4661ED88A30C99A7a9449Aa84174 */\n  0x2791bca1f2de4661ed88a30c99a7a9449aa84174\n    /* \"contracts/polygon/microcebus_main.sol\":1652:1683  Token({adr: USDC, decimals: 6}) */\n  0xffffffffffffffffffffffffffffffffffffffff\n  and\n  dup2\n  mstore\n  0x20\n  add\n    /* \"contracts/polygon/microcebus_main.sol\":1680:1681  6 */\n  0x06\n    /* \"contracts/polygon/microcebus_main.sol\":1652:1683  Token({adr: USDC, decimals: 6}) */\n  dup2\n  mstore\n  pop\n    /* \"contracts/polygon/microcebus_main.sol\":1626:1641  token_contracts */\n  0x00\n    /* \"contracts/polygon/microcebus_main.sol\":1626:1649  token_contracts[\"USDC\"] */\n  mload(0x40)\n  tag_10\n  swap1\n  tag_11\n  jump\t// in\ntag_10:\n  swap1\n  dup2\n  mstore\n  0x20\n  add\n  mload(0x40)\n  dup1\n  swap2\n  sub\n  swap1\n  keccak256\n    /* \"contracts/polygon/microcebus_main.sol\":1626:1683  token_contracts[\"USDC\"] = Token({adr: USDC, decimals: 6}) */\n  0x00\n  dup3\n  add\n  mload\n  dup2\n  0x00\n  add\n  exp(0x0100, 0x00)\n  dup2\n  sload\n  dup2\n  0xffffffffffffffffffffffffffffffffffffffff\n  mul\n  not\n  and\n  swap1\n  dup4\n  0xffffffffffffffffffffffffffffffffffffffff\n  and\n  mul\n  or\n  swap1\n  sstore\n  pop\n  0x20\n  dup3\n  add\n  mload\n  dup2\n  0x01\n  add\n  sstore\n  swap1\n  pop\n  pop\n    /* \"contracts/polygon/microcebus_main.sol\":1719:1750  Token({adr: USDT, decimals: 6}) */\n  mload(0x40)\n  dup1\n  0x40\n  add\n  0x40\n  mstore\n  dup1\n    /* \"contracts/polygon/microcebus_main.sol\":963:1005  0xc2132D05D31c914a87C6611C10748AEb04B58e8F */\n  0xc2132d05d31c914a87c6611c10748aeb04b58e8f\n    /* \"contracts/polygon/microcebus_main.sol\":1719:1750  Token({adr: USDT, decimals: 6}) */\n  0xffffffffffffffffffffffffffffffffffffffff\n  and\n  dup2\n  mstore\n  0x20\n  add\n    /* \"contracts/polygon/microcebus_main.sol\":1747:1748  6 */\n  0x06\n    /* \"contracts/polygon/microcebus_main.sol\":1719:1750  Token({adr: USDT, decimals: 6}) */\n  dup2\n  mstore\n  pop\n    /* \"contracts/polygon/microcebus_main.sol\":1693:1708  token_contracts */\n  0x00\n    /* \"contracts/polygon/microcebus_main.sol\":1693:1716  token_contracts[\"USDT\"] */\n  mload(0x40)\n  tag_12\n  swap1\n  tag_13\n  jump\t// in\ntag_12:\n  swap1\n  dup2\n  mstore\n  0x20\n  add\n  mload(0x40)\n  dup1\n  swap2\n  sub\n  swap1\n  keccak256\n    /* \"contracts/polygon/microcebus_main.sol\":1693:1750  token_contracts[\"USDT\"] = Token({adr: USDT, decimals: 6}) */\n  0x00\n  dup3\n  add\n  mload\n  dup2\n  0x00\n  add\n  exp(0x0100, 0x00)\n  dup2\n  sload\n  dup2\n  0xffffffffffffffffffffffffffffffffffffffff\n  mul\n  not\n  and\n  swap1\n  dup4\n  0xffffffffffffffffffffffffffffffffffffffff\n  and\n  mul\n  or\n  swap1\n  sstore\n  pop\n  0x20\n  dup3\n  add\n  mload\n  dup2\n  0x01\n  add\n  sstore\n  swap1\n  pop\n  pop\n    /* \"contracts/polygon/microcebus_main.sol\":1786:1817  Token({adr: WBTC, decimals: 8}) */\n  mload(0x40)\n  dup1\n  0x40\n  add\n  0x40\n  mstore\n  dup1\n    /* \"contracts/polygon/microcebus_main.sol\":1033:1075  0x1BFD67037B42Cf73acF2047067bd4F2C47D9BfD6 */\n  0x1bfd67037b42cf73acf2047067bd4f2c47d9bfd6\n    /* \"contracts/polygon/microcebus_main.sol\":1786:1817  Token({adr: WBTC, decimals: 8}) */\n  0xffffffffffffffffffffffffffffffffffffffff\n  and\n  dup2\n  mstore\n  0x20\n  add\n    /* \"contracts/polygon/microcebus_main.sol\":1814:1815  8 */\n  0x08\n    /* \"contracts/polygon/microcebus_main.sol\":1786:1817  Token({adr: WBTC, decimals: 8}) */\n  dup2\n  mstore\n  pop\n    /* \"contracts/polygon/microcebus_main.sol\":1760:1775  token_contracts */\n  0x00\n    /* \"contracts/polygon/microcebus_main.sol\":1760:1783  token_contracts[\"WBTC\"] */\n  mload(0x40)\n  tag_14\n  swap1\n  tag_15\n  jump\t// in\ntag_14:\n  swap1\n  dup2\n  mstore\n  0x20\n  add\n  mload(0x40)\n  dup1\n  swap2\n  sub\n  swap1\n  keccak256\n    /* \"contracts/polygon/microcebus_main.sol\":1760:1817  token_contracts[\"WBTC\"] = Token({adr: WBTC, decimals: 8}) */\n  0x00\n  dup3\n  add\n  mload\n  dup2\n  0x00\n  add\n  exp(0x0100, 0x00)\n  dup2\n  sload\n  dup2\n  0xffffffffffffffffffffffffffffffffffffffff\n  mul\n  not\n  and\n  swap1\n  dup4\n  0xffffffffffffffffffffffffffffffffffffffff\n  and\n  mul\n  or\n  swap1\n  sstore\n  pop\n  0x20\n  dup3\n  add\n  mload\n  dup2\n  0x01\n  add\n  sstore\n  swap1\n  pop\n  pop\n    /* \"contracts/polygon/microcebus_main.sol\":1855:1889  Token({adr: DQUICK, decimals: 18}) */\n  mload(0x40)\n  dup1\n  0x40\n  add\n  0x40\n  mstore\n  dup1\n    /* \"contracts/polygon/microcebus_main.sol\":1105:1147  0xf28164A485B0B2C90639E47b0f377b4a438a16B1 */\n  0xf28164a485b0b2c90639e47b0f377b4a438a16b1\n    /* \"contracts/polygon/microcebus_main.sol\":1855:1889  Token({adr: DQUICK, decimals: 18}) */\n  0xffffffffffffffffffffffffffffffffffffffff\n  and\n  dup2\n  mstore\n  0x20\n  add\n    /* \"contracts/polygon/microcebus_main.sol\":1885:1887  18 */\n  0x12\n    /* \"contracts/polygon/microcebus_main.sol\":1855:1889  Token({adr: DQUICK, decimals: 18}) */\n  dup2\n  mstore\n  pop\n    /* \"contracts/polygon/microcebus_main.sol\":1827:1842  token_contracts */\n  0x00\n    /* \"contracts/polygon/microcebus_main.sol\":1827:1852  token_contracts[\"DQUICK\"] */\n  mload(0x40)\n  tag_16\n  swap1\n  tag_17\n  jump\t// in\ntag_16:\n  swap1\n  dup2\n  mstore\n  0x20\n  add\n  mload(0x40)\n  dup1\n  swap2\n  sub\n  swap1\n  keccak256\n    /* \"contracts/polygon/microcebus_main.sol\":1827:1889  token_contracts[\"DQUICK\"] = Token({adr: DQUICK, decimals: 18}) */\n  0x00\n  dup3\n  add\n  mload\n  dup2\n  0x00\n  add\n  exp(0x0100, 0x00)\n  dup2\n  sload\n  dup2\n  0xffffffffffffffffffffffffffffffffffffffff\n  mul\n  not\n  and\n  swap1\n  dup4\n  0xffffffffffffffffffffffffffffffffffffffff\n  and\n  mul\n  or\n  swap1\n  sstore\n  pop\n  0x20\n  dup3\n  add\n  mload\n  dup2\n  0x01\n  add\n  sstore\n  swap1\n  pop\n  pop\n    /* \"contracts/polygon/microcebus_main.sol\":1252:1294  0xEEf611894CeaE652979C9D0DaE1dEb597790C6eE */\n  0xeef611894ceae652979c9d0dae1deb597790c6ee\n    /* \"contracts/polygon/microcebus_main.sol\":1900:1918  lp_token_contracts */\n  0x01\n    /* \"contracts/polygon/microcebus_main.sol\":1900:1928  lp_token_contracts[\"WMATIC\"] */\n  mload(0x40)\n  tag_18\n  swap1\n  tag_9\n  jump\t// in\ntag_18:\n  swap1\n  dup2\n  mstore\n  0x20\n  add\n  mload(0x40)\n  dup1\n  swap2\n  sub\n  swap1\n  keccak256\n    /* \"contracts/polygon/microcebus_main.sol\":1900:1935  lp_token_contracts[\"WMATIC\"][\"DAI\"] */\n  mload(0x40)\n  tag_19\n  swap1\n  tag_5\n  jump\t// in\ntag_19:\n  swap1\n  dup2\n  mstore\n  0x20\n  add\n  mload(0x40)\n  dup1\n  swap2\n  sub\n  swap1\n  keccak256\n    /* \"contracts/polygon/microcebus_main.sol\":1900:1939  lp_token_contracts[\"WMATIC\"][\"DAI\"].adr */\n  0x04\n  add\n  0x00\n    /* \"contracts/polygon/microcebus_main.sol\":1900:1952  lp_token_contracts[\"WMATIC\"][\"DAI\"].adr = WMATIC_DAI */\n  0x0100\n  exp\n  dup2\n  sload\n  dup2\n  0xffffffffffffffffffffffffffffffffffffffff\n  mul\n  not\n  and\n  swap1\n  dup4\n  0xffffffffffffffffffffffffffffffffffffffff\n  and\n  mul\n  or\n  swap1\n  sstore\n  pop\n    /* \"contracts/polygon/microcebus_main.sol\":2009:2011  18 */\n  0x12\n    /* \"contracts/polygon/microcebus_main.sol\":1962:1980  lp_token_contracts */\n  0x01\n    /* \"contracts/polygon/microcebus_main.sol\":1962:1990  lp_token_contracts[\"WMATIC\"] */\n  mload(0x40)\n  tag_20\n  swap1\n  tag_9\n  jump\t// in\ntag_20:\n  swap1\n  dup2\n  mstore\n  0x20\n  add\n  mload(0x40)\n  dup1\n  swap2\n  sub\n  swap1\n  keccak256\n    /* \"contracts/polygon/microcebus_main.sol\":1962:1997  lp_token_contracts[\"WMATIC\"][\"DAI\"] */\n  mload(0x40)\n  tag_21\n  swap1\n  tag_5\n  jump\t// in\ntag_21:\n  swap1\n  dup2\n  mstore\n  0x20\n  add\n  mload(0x40)\n  dup1\n  swap2\n  sub\n  swap1\n  keccak256\n    /* \"contracts/polygon/microcebus_main.sol\":1962:2006  lp_token_contracts[\"WMATIC\"][\"DAI\"].decimals */\n  0x05\n  add\n    /* \"contracts/polygon/microcebus_main.sol\":1962:2011  lp_token_contracts[\"WMATIC\"][\"DAI\"].decimals = 18 */\n  dup2\n  swap1\n  sstore\n  pop\n    /* \"contracts/polygon/microcebus_main.sol\":2076:2077  0 */\n  0x00\n    /* \"contracts/polygon/microcebus_main.sol\":2021:2039  lp_token_contracts */\n  0x01\n    /* \"contracts/polygon/microcebus_main.sol\":2021:2049  lp_token_contracts[\"WMATIC\"] */\n  mload(0x40)\n  tag_22\n  swap1\n  tag_9\n  jump\t// in\ntag_22:\n  swap1\n  dup2\n  mstore\n  0x20\n  add\n  mload(0x40)\n  dup1\n  swap2\n  sub\n  swap1\n  keccak256\n    /* \"contracts/polygon/microcebus_main.sol\":2021:2056  lp_token_contracts[\"WMATIC\"][\"DAI\"] */\n  mload(0x40)\n  tag_23\n  swap1\n  tag_5\n  jump\t// in\ntag_23:\n  swap1\n  dup2\n  mstore\n  0x20\n  add\n  mload(0x40)\n  dup1\n  swap2\n  sub\n  swap1\n  keccak256\n    /* \"contracts/polygon/microcebus_main.sol\":2021:2073  lp_token_contracts[\"WMATIC\"][\"DAI\"].contract_deposit */\n  0x07\n  add\n    /* \"contracts/polygon/microcebus_main.sol\":2021:2077  lp_token_contracts[\"WMATIC\"][\"DAI\"].contract_deposit = 0 */\n  dup2\n  swap1\n  sstore\n  pop\n    /* \"contracts/polygon/microcebus_main.sol\":2132:2147  token_contracts */\n  0x00\n    /* \"contracts/polygon/microcebus_main.sol\":2132:2157  token_contracts[\"WMATIC\"] */\n  mload(0x40)\n  tag_24\n  swap1\n  tag_9\n  jump\t// in\ntag_24:\n  swap1\n  dup2\n  mstore\n  0x20\n  add\n  mload(0x40)\n  dup1\n  swap2\n  sub\n  swap1\n  keccak256\n    /* \"contracts/polygon/microcebus_main.sol\":2087:2105  lp_token_contracts */\n  0x01\n    /* \"contracts/polygon/microcebus_main.sol\":2087:2115  lp_token_contracts[\"WMATIC\"] */\n  mload(0x40)\n  tag_25\n  swap1\n  tag_9\n  jump\t// in\ntag_25:\n  swap1\n  dup2\n  mstore\n  0x20\n  add\n  mload(0x40)\n  dup1\n  swap2\n  sub\n  swap1\n  keccak256\n    /* \"contracts/polygon/microcebus_main.sol\":2087:2122  lp_token_contracts[\"WMATIC\"][\"DAI\"] */\n  mload(0x40)\n  tag_26\n  swap1\n  tag_5\n  jump\t// in\ntag_26:\n  swap1\n  dup2\n  mstore\n  0x20\n  add\n  mload(0x40)\n  dup1\n  swap2\n  sub\n  swap1\n  keccak256\n    /* \"contracts/polygon/microcebus_main.sol\":2087:2129  lp_token_contracts[\"WMATIC\"][\"DAI\"].token0 */\n  0x00\n  add\n    /* \"contracts/polygon/microcebus_main.sol\":2087:2157  lp_token_contracts[\"WMATIC\"][\"DAI\"].token0 = token_contracts[\"WMATIC\"] */\n  0x00\n  dup3\n  add\n  0x00\n  swap1\n  sload\n  swap1\n  0x0100\n  exp\n  swap1\n  div\n  0xffffffffffffffffffffffffffffffffffffffff\n  and\n  dup2\n  0x00\n  add\n  exp(0x0100, 0x00)\n  dup2\n  sload\n  dup2\n  0xffffffffffffffffffffffffffffffffffffffff\n  mul\n  not\n  and\n  swap1\n  dup4\n  0xffffffffffffffffffffffffffffffffffffffff\n  and\n  mul\n  or\n  swap1\n  sstore\n  pop\n  0x01\n  dup3\n  add\n  sload\n  dup2\n  0x01\n  add\n  sstore\n  swap1\n  pop\n  pop\n    /* \"contracts/polygon/microcebus_main.sol\":2212:2227  token_contracts */\n  0x00\n    /* \"contracts/polygon/microcebus_main.sol\":2212:2234  token_contracts[\"DAI\"] */\n  mload(0x40)\n  tag_27\n  swap1\n  tag_5\n  jump\t// in\ntag_27:\n  swap1\n  dup2\n  mstore\n  0x20\n  add\n  mload(0x40)\n  dup1\n  swap2\n  sub\n  swap1\n  keccak256\n    /* \"contracts/polygon/microcebus_main.sol\":2167:2185  lp_token_contracts */\n  0x01\n    /* \"contracts/polygon/microcebus_main.sol\":2167:2195  lp_token_contracts[\"WMATIC\"] */\n  mload(0x40)\n  tag_28\n  swap1\n  tag_9\n  jump\t// in\ntag_28:\n  swap1\n  dup2\n  mstore\n  0x20\n  add\n  mload(0x40)\n  dup1\n  swap2\n  sub\n  swap1\n  keccak256\n    /* \"contracts/polygon/microcebus_main.sol\":2167:2202  lp_token_contracts[\"WMATIC\"][\"DAI\"] */\n  mload(0x40)\n  tag_29\n  swap1\n  tag_5\n  jump\t// in\ntag_29:\n  swap1\n  dup2\n  mstore\n  0x20\n  add\n  mload(0x40)\n  dup1\n  swap2\n  sub\n  swap1\n  keccak256\n    /* \"contracts/polygon/microcebus_main.sol\":2167:2209  lp_token_contracts[\"WMATIC\"][\"DAI\"].token1 */\n  0x02\n  add\n    /* \"contracts/polygon/microcebus_main.sol\":2167:2234  lp_token_contracts[\"WMATIC\"][\"DAI\"].token1 = token_contracts[\"DAI\"] */\n  0x00\n  dup3\n  add\n  0x00\n  swap1\n  sload\n  swap1\n  0x0100\n  exp\n  swap1\n  div\n  0xffffffffffffffffffffffffffffffffffffffff\n  and\n  dup2\n  0x00\n  add\n  exp(0x0100, 0x00)\n  dup2\n  sload\n  dup2\n  0xffffffffffffffffffffffffffffffffffffffff\n  mul\n  not\n  and\n  swap1\n  dup4\n  0xffffffffffffffffffffffffffffffffffffffff\n  and\n  mul\n  or\n  swap1\n  sstore\n  pop\n  0x01\n  dup3\n  add\n  sload\n  dup2\n  0x01\n  add\n  sstore\n  swap1\n  pop\n  pop\n    /* \"contracts/polygon/microcebus_main.sol\":94:10657  contract microcebus_main {... */\n  jump(tag_30)\n    /* \"#utility.yul\":7:407   */\ntag_32:\n    /* \"#utility.yul\":167:170   */\n  0x00\n    /* \"#utility.yul\":188:272   */\n  tag_34\n    /* \"#utility.yul\":270:271   */\n  0x04\n    /* \"#utility.yul\":265:268   */\n  dup4\n    /* \"#utility.yul\":188:272   */\n  tag_35\n  jump\t// in\ntag_34:\n    /* \"#utility.yul\":181:272   */\n  swap2\n  pop\n    /* \"#utility.yul\":281:374   */\n  tag_36\n    /* \"#utility.yul\":370:373   */\n  dup3\n    /* \"#utility.yul\":281:374   */\n  tag_37\n  jump\t// in\ntag_36:\n    /* \"#utility.yul\":399:400   */\n  0x04\n    /* \"#utility.yul\":394:397   */\n  dup3\n    /* \"#utility.yul\":390:401   */\n  add\n    /* \"#utility.yul\":383:401   */\n  swap1\n  pop\n    /* \"#utility.yul\":7:407   */\n  swap2\n  swap1\n  pop\n  jump\t// out\n    /* \"#utility.yul\":413:813   */\ntag_38:\n    /* \"#utility.yul\":573:576   */\n  0x00\n    /* \"#utility.yul\":594:678   */\n  tag_40\n    /* \"#utility.yul\":676:677   */\n  0x06\n    /* \"#utility.yul\":671:674   */\n  dup4\n    /* \"#utility.yul\":594:678   */\n  tag_35\n  jump\t// in\ntag_40:\n    /* \"#utility.yul\":587:678   */\n  swap2\n  pop\n    /* \"#utility.yul\":687:780   */\n  tag_41\n    /* \"#utility.yul\":776:779   */\n  dup3\n    /* \"#utility.yul\":687:780   */\n  tag_42\n  jump\t// in\ntag_41:\n    /* \"#utility.yul\":805:806   */\n  0x06\n    /* \"#utility.yul\":800:803   */\n  dup3\n    /* \"#utility.yul\":796:807   */\n  add\n    /* \"#utility.yul\":789:807   */\n  swap1\n  pop\n    /* \"#utility.yul\":413:813   */\n  swap2\n  swap1\n  pop\n  jump\t// out\n    /* \"#utility.yul\":819:1219   */\ntag_43:\n    /* \"#utility.yul\":979:982   */\n  0x00\n    /* \"#utility.yul\":1000:1084   */\n  tag_45\n    /* \"#utility.yul\":1082:1083   */\n  0x04\n    /* \"#utility.yul\":1077:1080   */\n  dup4\n    /* \"#utility.yul\":1000:1084   */\n  tag_35\n  jump\t// in\ntag_45:\n    /* \"#utility.yul\":993:1084   */\n  swap2\n  pop\n    /* \"#utility.yul\":1093:1186   */\n  tag_46\n    /* \"#utility.yul\":1182:1185   */\n  dup3\n    /* \"#utility.yul\":1093:1186   */\n  tag_47\n  jump\t// in\ntag_46:\n    /* \"#utility.yul\":1211:1212   */\n  0x04\n    /* \"#utility.yul\":1206:1209   */\n  dup3\n    /* \"#utility.yul\":1202:1213   */\n  add\n    /* \"#utility.yul\":1195:1213   */\n  swap1\n  pop\n    /* \"#utility.yul\":819:1219   */\n  swap2\n  swap1\n  pop\n  jump\t// out\n    /* \"#utility.yul\":1225:1625   */\ntag_48:\n    /* \"#utility.yul\":1385:1388   */\n  0x00\n    /* \"#utility.yul\":1406:1490   */\n  tag_50\n    /* \"#utility.yul\":1488:1489   */\n  0x04\n    /* \"#utility.yul\":1483:1486   */\n  dup4\n    /* \"#utility.yul\":1406:1490   */\n  tag_35\n  jump\t// in\ntag_50:\n    /* \"#utility.yul\":1399:1490   */\n  swap2\n  pop\n    /* \"#utility.yul\":1499:1592   */\n  tag_51\n    /* \"#utility.yul\":1588:1591   */\n  dup3\n    /* \"#utility.yul\":1499:1592   */\n  tag_52\n  jump\t// in\ntag_51:\n    /* \"#utility.yul\":1617:1618   */\n  0x04\n    /* \"#utility.yul\":1612:1615   */\n  dup3\n    /* \"#utility.yul\":1608:1619   */\n  add\n    /* \"#utility.yul\":1601:1619   */\n  swap1\n  pop\n    /* \"#utility.yul\":1225:1625   */\n  swap2\n  swap1\n  pop\n  jump\t// out\n    /* \"#utility.yul\":1631:2031   */\ntag_53:\n    /* \"#utility.yul\":1791:1794   */\n  0x00\n    /* \"#utility.yul\":1812:1896   */\n  tag_55\n    /* \"#utility.yul\":1894:1895   */\n  0x03\n    /* \"#utility.yul\":1889:1892   */\n  dup4\n    /* \"#utility.yul\":1812:1896   */\n  tag_35\n  jump\t// in\ntag_55:\n    /* \"#utility.yul\":1805:1896   */\n  swap2\n  pop\n    /* \"#utility.yul\":1905:1998   */\n  tag_56\n    /* \"#utility.yul\":1994:1997   */\n  dup3\n    /* \"#utility.yul\":1905:1998   */\n  tag_57\n  jump\t// in\ntag_56:\n    /* \"#utility.yul\":2023:2024   */\n  0x03\n    /* \"#utility.yul\":2018:2021   */\n  dup3\n    /* \"#utility.yul\":2014:2025   */\n  add\n    /* \"#utility.yul\":2007:2025   */\n  swap1\n  pop\n    /* \"#utility.yul\":1631:2031   */\n  swap2\n  swap1\n  pop\n  jump\t// out\n    /* \"#utility.yul\":2037:2437   */\ntag_58:\n    /* \"#utility.yul\":2197:2200   */\n  0x00\n    /* \"#utility.yul\":2218:2302   */\n  tag_60\n    /* \"#utility.yul\":2300:2301   */\n  0x04\n    /* \"#utility.yul\":2295:2298   */\n  dup4\n    /* \"#utility.yul\":2218:2302   */\n  tag_35\n  jump\t// in\ntag_60:\n    /* \"#utility.yul\":2211:2302   */\n  swap2\n  pop\n    /* \"#utility.yul\":2311:2404   */\n  tag_61\n    /* \"#utility.yul\":2400:2403   */\n  dup3\n    /* \"#utility.yul\":2311:2404   */\n  tag_62\n  jump\t// in\ntag_61:\n    /* \"#utility.yul\":2429:2430   */\n  0x04\n    /* \"#utility.yul\":2424:2427   */\n  dup3\n    /* \"#utility.yul\":2420:2431   */\n  add\n    /* \"#utility.yul\":2413:2431   */\n  swap1\n  pop\n    /* \"#utility.yul\":2037:2437   */\n  swap2\n  swap1\n  pop\n  jump\t// out\n    /* \"#utility.yul\":2443:2843   */\ntag_63:\n    /* \"#utility.yul\":2603:2606   */\n  0x00\n    /* \"#utility.yul\":2624:2708   */\n  tag_65\n    /* \"#utility.yul\":2706:2707   */\n  0x06\n    /* \"#utility.yul\":2701:2704   */\n  dup4\n    /* \"#utility.yul\":2624:2708   */\n  tag_35\n  jump\t// in\ntag_65:\n    /* \"#utility.yul\":2617:2708   */\n  swap2\n  pop\n    /* \"#utility.yul\":2717:2810   */\n  tag_66\n    /* \"#utility.yul\":2806:2809   */\n  dup3\n    /* \"#utility.yul\":2717:2810   */\n  tag_67\n  jump\t// in\ntag_66:\n    /* \"#utility.yul\":2835:2836   */\n  0x06\n    /* \"#utility.yul\":2830:2833   */\n  dup3\n    /* \"#utility.yul\":2826:2837   */\n  add\n    /* \"#utility.yul\":2819:2837   */\n  swap1\n  pop\n    /* \"#utility.yul\":2443:2843   */\n  swap2\n  swap1\n  pop\n  jump\t// out\n    /* \"#utility.yul\":2849:3230   */\ntag_7:\n    /* \"#utility.yul\":3034:3037   */\n  0x00\n    /* \"#utility.yul\":3056:3204   */\n  tag_69\n    /* \"#utility.yul\":3200:3203   */\n  dup3\n    /* \"#utility.yul\":3056:3204   */\n  tag_32\n  jump\t// in\ntag_69:\n    /* \"#utility.yul\":3049:3204   */\n  swap2\n  pop\n    /* \"#utility.yul\":3221:3224   */\n  dup2\n    /* \"#utility.yul\":3214:3224   */\n  swap1\n  pop\n    /* \"#utility.yul\":2849:3230   */\n  swap2\n  swap1\n  pop\n  jump\t// out\n    /* \"#utility.yul\":3236:3617   */\ntag_17:\n    /* \"#utility.yul\":3421:3424   */\n  0x00\n    /* \"#utility.yul\":3443:3591   */\n  tag_71\n    /* \"#utility.yul\":3587:3590   */\n  dup3\n    /* \"#utility.yul\":3443:3591   */\n  tag_38\n  jump\t// in\ntag_71:\n    /* \"#utility.yul\":3436:3591   */\n  swap2\n  pop\n    /* \"#utility.yul\":3608:3611   */\n  dup2\n    /* \"#utility.yul\":3601:3611   */\n  swap1\n  pop\n    /* \"#utility.yul\":3236:3617   */\n  swap2\n  swap1\n  pop\n  jump\t// out\n    /* \"#utility.yul\":3623:4004   */\ntag_13:\n    /* \"#utility.yul\":3808:3811   */\n  0x00\n    /* \"#utility.yul\":3830:3978   */\n  tag_73\n    /* \"#utility.yul\":3974:3977   */\n  dup3\n    /* \"#utility.yul\":3830:3978   */\n  tag_43\n  jump\t// in\ntag_73:\n    /* \"#utility.yul\":3823:3978   */\n  swap2\n  pop\n    /* \"#utility.yul\":3995:3998   */\n  dup2\n    /* \"#utility.yul\":3988:3998   */\n  swap1\n  pop\n    /* \"#utility.yul\":3623:4004   */\n  swap2\n  swap1\n  pop\n  jump\t// out\n    /* \"#utility.yul\":4010:4391   */\ntag_15:\n    /* \"#utility.yul\":4195:4198   */\n  0x00\n    /* \"#utility.yul\":4217:4365   */\n  tag_75\n    /* \"#utility.yul\":4361:4364   */\n  dup3\n    /* \"#utility.yul\":4217:4365   */\n  tag_48\n  jump\t// in\ntag_75:\n    /* \"#utility.yul\":4210:4365   */\n  swap2\n  pop\n    /* \"#utility.yul\":4382:4385   */\n  dup2\n    /* \"#utility.yul\":4375:4385   */\n  swap1\n  pop\n    /* \"#utility.yul\":4010:4391   */\n  swap2\n  swap1\n  pop\n  jump\t// out\n    /* \"#utility.yul\":4397:4778   */\ntag_5:\n    /* \"#utility.yul\":4582:4585   */\n  0x00\n    /* \"#utility.yul\":4604:4752   */\n  tag_77\n    /* \"#utility.yul\":4748:4751   */\n  dup3\n    /* \"#utility.yul\":4604:4752   */\n  tag_53\n  jump\t// in\ntag_77:\n    /* \"#utility.yul\":4597:4752   */\n  swap2\n  pop\n    /* \"#utility.yul\":4769:4772   */\n  dup2\n    /* \"#utility.yul\":4762:4772   */\n  swap1\n  pop\n    /* \"#utility.yul\":4397:4778   */\n  swap2\n  swap1\n  pop\n  jump\t// out\n    /* \"#utility.yul\":4784:5165   */\ntag_11:\n    /* \"#utility.yul\":4969:4972   */\n  0x00\n    /* \"#utility.yul\":4991:5139   */\n  tag_79\n    /* \"#utility.yul\":5135:5138   */\n  dup3\n    /* \"#utility.yul\":4991:5139   */\n  tag_58\n  jump\t// in\ntag_79:\n    /* \"#utility.yul\":4984:5139   */\n  swap2\n  pop\n    /* \"#utility.yul\":5156:5159   */\n  dup2\n    /* \"#utility.yul\":5149:5159   */\n  swap1\n  pop\n    /* \"#utility.yul\":4784:5165   */\n  swap2\n  swap1\n  pop\n  jump\t// out\n    /* \"#utility.yul\":5171:5552   */\ntag_9:\n    /* \"#utility.yul\":5356:5359   */\n  0x00\n    /* \"#utility.yul\":5378:5526   */\n  tag_81\n    /* \"#utility.yul\":5522:5525   */\n  dup3\n    /* \"#utility.yul\":5378:5526   */\n  tag_63\n  jump\t// in\ntag_81:\n    /* \"#utility.yul\":5371:5526   */\n  swap2\n  pop\n    /* \"#utility.yul\":5543:5546   */\n  dup2\n    /* \"#utility.yul\":5536:5546   */\n  swap1\n  pop\n    /* \"#utility.yul\":5171:5552   */\n  swap2\n  swap1\n  pop\n  jump\t// out\n    /* \"#utility.yul\":5558:5706   */\ntag_35:\n    /* \"#utility.yul\":5660:5671   */\n  0x00\n    /* \"#utility.yul\":5697:5700   */\n  dup2\n    /* \"#utility.yul\":5682:5700   */\n  swap1\n  pop\n    /* \"#utility.yul\":5558:5706   */\n  swap3\n  swap2\n  pop\n  pop\n  jump\t// out\n    /* \"#utility.yul\":5712:5866   */\ntag_37:\n    /* \"#utility.yul\":5852:5858   */\n  0x5745544800000000000000000000000000000000000000000000000000000000\n    /* \"#utility.yul\":5848:5849   */\n  0x00\n    /* \"#utility.yul\":5840:5846   */\n  dup3\n    /* \"#utility.yul\":5836:5850   */\n  add\n    /* \"#utility.yul\":5829:5859   */\n  mstore\n    /* \"#utility.yul\":5712:5866   */\n  pop\n  jump\t// out\n    /* \"#utility.yul\":5872:6028   */\ntag_42:\n    /* \"#utility.yul\":6012:6020   */\n  0x44515549434b0000000000000000000000000000000000000000000000000000\n    /* \"#utility.yul\":6008:6009   */\n  0x00\n    /* \"#utility.yul\":6000:6006   */\n  dup3\n    /* \"#utility.yul\":5996:6010   */\n  add\n    /* \"#utility.yul\":5989:6021   */\n  mstore\n    /* \"#utility.yul\":5872:6028   */\n  pop\n  jump\t// out\n    /* \"#utility.yul\":6034:6188   */\ntag_47:\n    /* \"#utility.yul\":6174:6180   */\n  0x5553445400000000000000000000000000000000000000000000000000000000\n    /* \"#utility.yul\":6170:6171   */\n  0x00\n    /* \"#utility.yul\":6162:6168   */\n  dup3\n    /* \"#utility.yul\":6158:6172   */\n  add\n    /* \"#utility.yul\":6151:6181   */\n  mstore\n    /* \"#utility.yul\":6034:6188   */\n  pop\n  jump\t// out\n    /* \"#utility.yul\":6194:6348   */\ntag_52:\n    /* \"#utility.yul\":6334:6340   */\n  0x5742544300000000000000000000000000000000000000000000000000000000\n    /* \"#utility.yul\":6330:6331   */\n  0x00\n    /* \"#utility.yul\":6322:6328   */\n  dup3\n    /* \"#utility.yul\":6318:6332   */\n  add\n    /* \"#utility.yul\":6311:6341   */\n  mstore\n    /* \"#utility.yul\":6194:6348   */\n  pop\n  jump\t// out\n    /* \"#utility.yul\":6354:6507   */\ntag_57:\n    /* \"#utility.yul\":6494:6499   */\n  0x4441490000000000000000000000000000000000000000000000000000000000\n    /* \"#utility.yul\":6490:6491   */\n  0x00\n    /* \"#utility.yul\":6482:6488   */\n  dup3\n    /* \"#utility.yul\":6478:6492   */\n  add\n    /* \"#utility.yul\":6471:6500   */\n  mstore\n    /* \"#utility.yul\":6354:6507   */\n  pop\n  jump\t// out\n    /* \"#utility.yul\":6513:6667   */\ntag_62:\n    /* \"#utility.yul\":6653:6659   */\n  0x5553444300000000000000000000000000000000000000000000000000000000\n    /* \"#utility.yul\":6649:6650   */\n  0x00\n    /* \"#utility.yul\":6641:6647   */\n  dup3\n    /* \"#utility.yul\":6637:6651   */\n  add\n    /* \"#utility.yul\":6630:6660   */\n  mstore\n    /* \"#utility.yul\":6513:6667   */\n  pop\n  jump\t// out\n    /* \"#utility.yul\":6673:6829   */\ntag_67:\n    /* \"#utility.yul\":6813:6821   */\n  0x574d415449430000000000000000000000000000000000000000000000000000\n    /* \"#utility.yul\":6809:6810   */\n  0x00\n    /* \"#utility.yul\":6801:6807   */\n  dup3\n    /* \"#utility.yul\":6797:6811   */\n  add\n    /* \"#utility.yul\":6790:6822   */\n  mstore\n    /* \"#utility.yul\":6673:6829   */\n  pop\n  jump\t// out\n    /* \"contracts/polygon/microcebus_main.sol\":94:10657  contract microcebus_main {... */\ntag_30:\n  dataSize(sub_0)\n  dup1\n  dataOffset(sub_0)\n  0x00\n  codecopy\n  0x00\n  return\nstop\n\nsub_0: assembly {\n        /* \"contracts/polygon/microcebus_main.sol\":94:10657  contract microcebus_main {... */\n      mstore(0x40, 0x80)\n      jumpi(tag_1, lt(calldatasize, 0x04))\n      shr(0xe0, calldataload(0x00))\n      dup1\n      0x9bc97dee\n      gt\n      tag_17\n      jumpi\n      dup1\n      0xe4386ba3\n      gt\n      tag_18\n      jumpi\n      dup1\n      0xe4386ba3\n      eq\n      tag_13\n      jumpi\n      dup1\n      0xf6884735\n      eq\n      tag_14\n      jumpi\n      dup1\n      0xf809a2e6\n      eq\n      tag_15\n      jumpi\n      dup1\n      0xff091567\n      eq\n      tag_16\n      jumpi\n      jump(tag_2)\n    tag_18:\n      dup1\n      0x9bc97dee\n      eq\n      tag_10\n      jumpi\n      dup1\n      0x9d4d69c5\n      eq\n      tag_11\n      jumpi\n      dup1\n      0xc3a48401\n      eq\n      tag_12\n      jumpi\n      jump(tag_2)\n    tag_17:\n      dup1\n      0x7b60eb23\n      gt\n      tag_19\n      jumpi\n      dup1\n      0x7b60eb23\n      eq\n      tag_6\n      jumpi\n      dup1\n      0x7d3683ba\n      eq\n      tag_7\n      jumpi\n      dup1\n      0x884ef7bd\n      eq\n      tag_8\n      jumpi\n      dup1\n      0x99269cae\n      eq\n      tag_9\n      jumpi\n      jump(tag_2)\n    tag_19:\n      dup1\n      0x4ea44896\n      eq\n      tag_3\n      jumpi\n      dup1\n      0x6d336d6a\n      eq\n      tag_4\n      jumpi\n      dup1\n      0x7552acd6\n      eq\n      tag_5\n      jumpi\n      jump(tag_2)\n    tag_1:\n      jumpi(tag_2, calldatasize)\n      stop\n    tag_2:\n      0x00\n      dup1\n      revert\n        /* \"contracts/polygon/microcebus_main.sol\":9698:9971  function get_lp_token_balance_sender(string memory _tokenA_in_identifier, string memory _tokenB_in_identifier) external view returns(uint256) {... */\n    tag_3:\n      callvalue\n      dup1\n      iszero\n      tag_22\n      jumpi\n      0x00\n      dup1\n      revert\n    tag_22:\n      pop\n      tag_23\n      0x04\n      dup1\n      calldatasize\n      sub\n      dup2\n      add\n      swap1\n      tag_24\n      swap2\n      swap1\n      tag_25\n      jump\t// in\n    tag_24:\n      tag_26\n      jump\t// in\n    tag_23:\n      mload(0x40)\n      tag_27\n      swap2\n      swap1\n      tag_28\n      jump\t// in\n    tag_27:\n      mload(0x40)\n      dup1\n      swap2\n      sub\n      swap1\n      return\n        /* \"contracts/polygon/microcebus_main.sol\":8119:8563  function get_amounts_out(... */\n    tag_4:\n      callvalue\n      dup1\n      iszero\n      tag_29\n      jumpi\n      0x00\n      dup1\n      revert\n    tag_29:\n      pop\n      tag_30\n      0x04\n      dup1\n      calldatasize\n      sub\n      dup2\n      add\n      swap1\n      tag_31\n      swap2\n      swap1\n      tag_32\n      jump\t// in\n    tag_31:\n      tag_33\n      jump\t// in\n    tag_30:\n      mload(0x40)\n      tag_34\n      swap2\n      swap1\n      tag_28\n      jump\t// in\n    tag_34:\n      mload(0x40)\n      dup1\n      swap2\n      sub\n      swap1\n      return\n        /* \"contracts/polygon/microcebus_main.sol\":3956:4298  function transfer_token(string memory _token_in_identifier, address _token_receiver, uint256 _amount)... */\n    tag_5:\n      callvalue\n      dup1\n      iszero\n      tag_35\n      jumpi\n      0x00\n      dup1\n      revert\n    tag_35:\n      pop\n      tag_36\n      0x04\n      dup1\n      calldatasize\n      sub\n      dup2\n      add\n      swap1\n      tag_37\n      swap2\n      swap1\n      tag_38\n      jump\t// in\n    tag_37:\n      tag_39\n      jump\t// in\n    tag_36:\n      stop\n        /* \"contracts/polygon/microcebus_main.sol\":3573:3902  function receive_wmatic() external payable {... */\n    tag_6:\n      tag_40\n      tag_41\n      jump\t// in\n    tag_40:\n      stop\n        /* \"contracts/polygon/microcebus_main.sol\":8866:9065  function get_token_balance_sender(string memory _token_identifier) external view returns(uint256) {... */\n    tag_7:\n      callvalue\n      dup1\n      iszero\n      tag_42\n      jumpi\n      0x00\n      dup1\n      revert\n    tag_42:\n      pop\n      tag_43\n      0x04\n      dup1\n      calldatasize\n      sub\n      dup2\n      add\n      swap1\n      tag_44\n      swap2\n      swap1\n      tag_45\n      jump\t// in\n    tag_44:\n      tag_46\n      jump\t// in\n    tag_43:\n      mload(0x40)\n      tag_47\n      swap2\n      swap1\n      tag_28\n      jump\t// in\n    tag_47:\n      mload(0x40)\n      dup1\n      swap2\n      sub\n      swap1\n      return\n        /* \"contracts/polygon/microcebus_main.sol\":10325:10589  function get_user_deposit(address _user, string memory _tokenA_in_identifier, string memory _tokenB_in_identifier) external view returns(uint256) {... */\n    tag_8:\n      callvalue\n      dup1\n      iszero\n      tag_48\n      jumpi\n      0x00\n      dup1\n      revert\n    tag_48:\n      pop\n      tag_49\n      0x04\n      dup1\n      calldatasize\n      sub\n      dup2\n      add\n      swap1\n      tag_50\n      swap2\n      swap1\n      tag_51\n      jump\t// in\n    tag_50:\n      tag_52\n      jump\t// in\n    tag_49:\n      mload(0x40)\n      tag_53\n      swap2\n      swap1\n      tag_28\n      jump\t// in\n    tag_53:\n      mload(0x40)\n      dup1\n      swap2\n      sub\n      swap1\n      return\n        /* \"contracts/polygon/microcebus_main.sol\":6711:7462  function withdraw_liquidity(string memory _tokenA_in_identifier, string memory _tokenB_in_identifier,... */\n    tag_9:\n      callvalue\n      dup1\n      iszero\n      tag_54\n      jumpi\n      0x00\n      dup1\n      revert\n    tag_54:\n      pop\n      tag_55\n      0x04\n      dup1\n      calldatasize\n      sub\n      dup2\n      add\n      swap1\n      tag_56\n      swap2\n      swap1\n      tag_57\n      jump\t// in\n    tag_56:\n      tag_58\n      jump\t// in\n    tag_55:\n      stop\n        /* \"contracts/polygon/microcebus_main.sol\":4344:4669  function transfer_token_to_contract(string memory _token_in_identifier, uint256 _amount)... */\n    tag_10:\n      callvalue\n      dup1\n      iszero\n      tag_59\n      jumpi\n      0x00\n      dup1\n      revert\n    tag_59:\n      pop\n      tag_60\n      0x04\n      dup1\n      calldatasize\n      sub\n      dup2\n      add\n      swap1\n      tag_61\n      swap2\n      swap1\n      tag_62\n      jump\t// in\n    tag_61:\n      tag_63\n      jump\t// in\n    tag_60:\n      stop\n        /* \"contracts/polygon/microcebus_main.sol\":10018:10296  function get_lp_token_balance_contract(string memory _tokenA_in_identifier, string memory _tokenB_in_identifier) external view returns(uint256) {... */\n    tag_11:\n      callvalue\n      dup1\n      iszero\n      tag_64\n      jumpi\n      0x00\n      dup1\n      revert\n    tag_64:\n      pop\n      tag_65\n      0x04\n      dup1\n      calldatasize\n      sub\n      dup2\n      add\n      swap1\n      tag_66\n      swap2\n      swap1\n      tag_25\n      jump\t// in\n    tag_66:\n      tag_67\n      jump\t// in\n    tag_65:\n      mload(0x40)\n      tag_68\n      swap2\n      swap1\n      tag_28\n      jump\t// in\n    tag_68:\n      mload(0x40)\n      dup1\n      swap2\n      sub\n      swap1\n      return\n        /* \"contracts/polygon/microcebus_main.sol\":8602:8818  function get_token_balance(string memory _token_identifier, address _token_owner) external view returns(uint256) {... */\n    tag_12:\n      callvalue\n      dup1\n      iszero\n      tag_69\n      jumpi\n      0x00\n      dup1\n      revert\n    tag_69:\n      pop\n      tag_70\n      0x04\n      dup1\n      calldatasize\n      sub\n      dup2\n      add\n      swap1\n      tag_71\n      swap2\n      swap1\n      tag_72\n      jump\t// in\n    tag_71:\n      tag_73\n      jump\t// in\n    tag_70:\n      mload(0x40)\n      tag_74\n      swap2\n      swap1\n      tag_28\n      jump\t// in\n    tag_74:\n      mload(0x40)\n      dup1\n      swap2\n      sub\n      swap1\n      return\n        /* \"contracts/polygon/microcebus_main.sol\":9115:9319  function get_token_balance_contract(string memory _token_identifier) external view returns(uint256) {... */\n    tag_13:\n      callvalue\n      dup1\n      iszero\n      tag_75\n      jumpi\n      0x00\n      dup1\n      revert\n    tag_75:\n      pop\n      tag_76\n      0x04\n      dup1\n      calldatasize\n      sub\n      dup2\n      add\n      swap1\n      tag_77\n      swap2\n      swap1\n      tag_45\n      jump\t// in\n    tag_77:\n      tag_78\n      jump\t// in\n    tag_76:\n      mload(0x40)\n      tag_79\n      swap2\n      swap1\n      tag_28\n      jump\t// in\n    tag_79:\n      mload(0x40)\n      dup1\n      swap2\n      sub\n      swap1\n      return\n        /* \"contracts/polygon/microcebus_main.sol\":9355:9653  function get_lp_token_balance(string memory _tokenA_in_identifier, string memory _tokenB_in_identifier,... */\n    tag_14:\n      callvalue\n      dup1\n      iszero\n      tag_80\n      jumpi\n      0x00\n      dup1\n      revert\n    tag_80:\n      pop\n      tag_81\n      0x04\n      dup1\n      calldatasize\n      sub\n      dup2\n      add\n      swap1\n      tag_82\n      swap2\n      swap1\n      tag_83\n      jump\t// in\n    tag_82:\n      tag_84\n      jump\t// in\n    tag_81:\n      mload(0x40)\n      tag_85\n      swap2\n      swap1\n      tag_28\n      jump\t// in\n    tag_85:\n      mload(0x40)\n      dup1\n      swap2\n      sub\n      swap1\n      return\n        /* \"contracts/polygon/microcebus_main.sol\":4712:5430  function swap_exact_tokens_for_tokens(uint256 _amount_in, uint _amount_out_min, string memory _token_in_identifier,... */\n    tag_15:\n      callvalue\n      dup1\n      iszero\n      tag_86\n      jumpi\n      0x00\n      dup1\n      revert\n    tag_86:\n      pop\n      tag_87\n      0x04\n      dup1\n      calldatasize\n      sub\n      dup2\n      add\n      swap1\n      tag_88\n      swap2\n      swap1\n      tag_89\n      jump\t// in\n    tag_88:\n      tag_90\n      jump\t// in\n    tag_87:\n      stop\n        /* \"contracts/polygon/microcebus_main.sol\":5456:6684  function add_liquidity(string memory _tokenA_in_identifier, string memory _tokenB_in_identifier,... */\n    tag_16:\n      callvalue\n      dup1\n      iszero\n      tag_91\n      jumpi\n      0x00\n      dup1\n      revert\n    tag_91:\n      pop\n      tag_92\n      0x04\n      dup1\n      calldatasize\n      sub\n      dup2\n      add\n      swap1\n      tag_93\n      swap2\n      swap1\n      tag_94\n      jump\t// in\n    tag_93:\n      tag_95\n      jump\t// in\n    tag_92:\n      stop\n        /* \"contracts/polygon/microcebus_main.sol\":9698:9971  function get_lp_token_balance_sender(string memory _tokenA_in_identifier, string memory _tokenB_in_identifier) external view returns(uint256) {... */\n    tag_26:\n        /* \"contracts/polygon/microcebus_main.sol\":9831:9838  uint256 */\n      0x00\n        /* \"contracts/polygon/microcebus_main.sol\":9868:9886  lp_token_contracts */\n      0x01\n        /* \"contracts/polygon/microcebus_main.sol\":9887:9908  _tokenA_in_identifier */\n      dup4\n        /* \"contracts/polygon/microcebus_main.sol\":9868:9909  lp_token_contracts[_tokenA_in_identifier] */\n      mload(0x40)\n      tag_97\n      swap2\n      swap1\n      tag_98\n      jump\t// in\n    tag_97:\n      swap1\n      dup2\n      mstore\n      0x20\n      add\n      mload(0x40)\n      dup1\n      swap2\n      sub\n      swap1\n      keccak256\n        /* \"contracts/polygon/microcebus_main.sol\":9910:9931  _tokenB_in_identifier */\n      dup3\n        /* \"contracts/polygon/microcebus_main.sol\":9868:9932  lp_token_contracts[_tokenA_in_identifier][_tokenB_in_identifier] */\n      mload(0x40)\n      tag_99\n      swap2\n      swap1\n      tag_98\n      jump\t// in\n    tag_99:\n      swap1\n      dup2\n      mstore\n      0x20\n      add\n      mload(0x40)\n      dup1\n      swap2\n      sub\n      swap1\n      keccak256\n        /* \"contracts/polygon/microcebus_main.sol\":9868:9936  lp_token_contracts[_tokenA_in_identifier][_tokenB_in_identifier].adr */\n      0x04\n      add\n      0x00\n      swap1\n      sload\n      swap1\n      0x0100\n      exp\n      swap1\n      div\n      0xffffffffffffffffffffffffffffffffffffffff\n      and\n        /* \"contracts/polygon/microcebus_main.sol\":9861:9947  iERC20(lp_token_contracts[_tokenA_in_identifier][_tokenB_in_identifier].adr).balanceOf */\n      0xffffffffffffffffffffffffffffffffffffffff\n      and\n      0x70a08231\n        /* \"contracts/polygon/microcebus_main.sol\":9948:9958  msg.sender */\n      caller\n        /* \"contracts/polygon/microcebus_main.sol\":9861:9959  iERC20(lp_token_contracts[_tokenA_in_identifier][_tokenB_in_identifier].adr).balanceOf(msg.sender) */\n      mload(0x40)\n      dup3\n      0xffffffff\n      and\n      0xe0\n      shl\n      dup2\n      mstore\n      0x04\n      add\n      tag_100\n      swap2\n      swap1\n      tag_101\n      jump\t// in\n    tag_100:\n      0x20\n      mload(0x40)\n      dup1\n      dup4\n      sub\n      dup2\n      dup7\n      dup1\n      extcodesize\n      iszero\n      dup1\n      iszero\n      tag_102\n      jumpi\n      0x00\n      dup1\n      revert\n    tag_102:\n      pop\n      gas\n      staticcall\n      iszero\n      dup1\n      iszero\n      tag_104\n      jumpi\n      returndatasize\n      0x00\n      dup1\n      returndatacopy\n      revert(0x00, returndatasize)\n    tag_104:\n      pop\n      pop\n      pop\n      pop\n      mload(0x40)\n      returndatasize\n      not(0x1f)\n      0x1f\n      dup3\n      add\n      and\n      dup3\n      add\n      dup1\n      0x40\n      mstore\n      pop\n      dup2\n      add\n      swap1\n      tag_105\n      swap2\n      swap1\n      tag_106\n      jump\t// in\n    tag_105:\n        /* \"contracts/polygon/microcebus_main.sol\":9854:9960  return(iERC20(lp_token_contracts[_tokenA_in_identifier][_tokenB_in_identifier].adr).balanceOf(msg.sender)) */\n      swap1\n      pop\n        /* \"contracts/polygon/microcebus_main.sol\":9698:9971  function get_lp_token_balance_sender(string memory _tokenA_in_identifier, string memory _tokenB_in_identifier) external view returns(uint256) {... */\n      swap3\n      swap2\n      pop\n      pop\n      jump\t// out\n        /* \"contracts/polygon/microcebus_main.sol\":8119:8563  function get_amounts_out(... */\n    tag_33:\n        /* \"contracts/polygon/microcebus_main.sol\":8270:8277  uint256 */\n      0x00\n        /* \"contracts/polygon/microcebus_main.sol\":8289:8310  address[] memory path */\n      0x60\n        /* \"contracts/polygon/microcebus_main.sol\":8341:8342  2 */\n      0x02\n        /* \"contracts/polygon/microcebus_main.sol\":8327:8343  new address[](2) */\n      0xffffffffffffffff\n      dup2\n      gt\n      iszero\n      tag_108\n      jumpi\n      tag_109\n      tag_110\n      jump\t// in\n    tag_109:\n    tag_108:\n      mload(0x40)\n      swap1\n      dup1\n      dup3\n      mstore\n      dup1\n      0x20\n      mul\n      0x20\n      add\n      dup3\n      add\n      0x40\n      mstore\n      dup1\n      iszero\n      tag_111\n      jumpi\n      dup2\n      0x20\n      add\n      0x20\n      dup3\n      mul\n      dup1\n      calldatasize\n      dup4\n      calldatacopy\n      dup1\n      dup3\n      add\n      swap2\n      pop\n      pop\n      swap1\n      pop\n    tag_111:\n      pop\n        /* \"contracts/polygon/microcebus_main.sol\":8320:8343  path = new address[](2) */\n      swap1\n      pop\n        /* \"contracts/polygon/microcebus_main.sol\":8363:8378  token_contracts */\n      0x00\n        /* \"contracts/polygon/microcebus_main.sol\":8379:8399  _token_in_identifier */\n      dup5\n        /* \"contracts/polygon/microcebus_main.sol\":8363:8400  token_contracts[_token_in_identifier] */\n      mload(0x40)\n      tag_112\n      swap2\n      swap1\n      tag_98\n      jump\t// in\n    tag_112:\n      swap1\n      dup2\n      mstore\n      0x20\n      add\n      mload(0x40)\n      dup1\n      swap2\n      sub\n      swap1\n      keccak256\n        /* \"contracts/polygon/microcebus_main.sol\":8363:8404  token_contracts[_token_in_identifier].adr */\n      0x00\n      add\n      0x00\n      swap1\n      sload\n      swap1\n      0x0100\n      exp\n      swap1\n      div\n      0xffffffffffffffffffffffffffffffffffffffff\n      and\n        /* \"contracts/polygon/microcebus_main.sol\":8353:8357  path */\n      dup2\n        /* \"contracts/polygon/microcebus_main.sol\":8358:8359  0 */\n      0x00\n        /* \"contracts/polygon/microcebus_main.sol\":8353:8360  path[0] */\n      dup2\n      mload\n      dup2\n      lt\n      tag_113\n      jumpi\n      tag_114\n      tag_115\n      jump\t// in\n    tag_114:\n    tag_113:\n      0x20\n      mul\n      0x20\n      add\n      add\n        /* \"contracts/polygon/microcebus_main.sol\":8353:8404  path[0] = token_contracts[_token_in_identifier].adr */\n      swap1\n      0xffffffffffffffffffffffffffffffffffffffff\n      and\n      swap1\n      dup2\n      0xffffffffffffffffffffffffffffffffffffffff\n      and\n      dup2\n      mstore\n      pop\n      pop\n        /* \"contracts/polygon/microcebus_main.sol\":8424:8439  token_contracts */\n      0x00\n        /* \"contracts/polygon/microcebus_main.sol\":8440:8461  _token_out_identifier */\n      dup4\n        /* \"contracts/polygon/microcebus_main.sol\":8424:8462  token_contracts[_token_out_identifier] */\n      mload(0x40)\n      tag_116\n      swap2\n      swap1\n      tag_98\n      jump\t// in\n    tag_116:\n      swap1\n      dup2\n      mstore\n      0x20\n      add\n      mload(0x40)\n      dup1\n      swap2\n      sub\n      swap1\n      keccak256\n        /* \"contracts/polygon/microcebus_main.sol\":8424:8466  token_contracts[_token_out_identifier].adr */\n      0x00\n      add\n      0x00\n      swap1\n      sload\n      swap1\n      0x0100\n      exp\n      swap1\n      div\n      0xffffffffffffffffffffffffffffffffffffffff\n      and\n        /* \"contracts/polygon/microcebus_main.sol\":8414:8418  path */\n      dup2\n        /* \"contracts/polygon/microcebus_main.sol\":8419:8420  1 */\n      0x01\n        /* \"contracts/polygon/microcebus_main.sol\":8414:8421  path[1] */\n      dup2\n      mload\n      dup2\n      lt\n      tag_117\n      jumpi\n      tag_118\n      tag_115\n      jump\t// in\n    tag_118:\n    tag_117:\n      0x20\n      mul\n      0x20\n      add\n      add\n        /* \"contracts/polygon/microcebus_main.sol\":8414:8466  path[1] = token_contracts[_token_out_identifier].adr */\n      swap1\n      0xffffffffffffffffffffffffffffffffffffffff\n      and\n      swap1\n      dup2\n      0xffffffffffffffffffffffffffffffffffffffff\n      and\n      dup2\n      mstore\n      pop\n      pop\n        /* \"contracts/polygon/microcebus_main.sol\":682:724  0xa5E0829CaCEd8fFDD4De3c43696c57F7D7A678ff */\n      0xa5e0829caced8ffdd4de3c43696c57f7d7a678ff\n        /* \"contracts/polygon/microcebus_main.sol\":8483:8534  IUniswapV2Router02(UniswapV2Router02).getAmountsOut */\n      0xffffffffffffffffffffffffffffffffffffffff\n      and\n      0xd06ca61f\n        /* \"contracts/polygon/microcebus_main.sol\":8535:8545  _amount_in */\n      dup7\n        /* \"contracts/polygon/microcebus_main.sol\":8547:8551  path */\n      dup4\n        /* \"contracts/polygon/microcebus_main.sol\":8483:8552  IUniswapV2Router02(UniswapV2Router02).getAmountsOut(_amount_in, path) */\n      mload(0x40)\n      dup4\n      0xffffffff\n      and\n      0xe0\n      shl\n      dup2\n      mstore\n      0x04\n      add\n      tag_119\n      swap3\n      swap2\n      swap1\n      tag_120\n      jump\t// in\n    tag_119:\n      0x00\n      mload(0x40)\n      dup1\n      dup4\n      sub\n      dup2\n      dup7\n      dup1\n      extcodesize\n      iszero\n      dup1\n      iszero\n      tag_121\n      jumpi\n      0x00\n      dup1\n      revert\n    tag_121:\n      pop\n      gas\n      staticcall\n      iszero\n      dup1\n      iszero\n      tag_123\n      jumpi\n      returndatasize\n      0x00\n      dup1\n      returndatacopy\n      revert(0x00, returndatasize)\n    tag_123:\n      pop\n      pop\n      pop\n      pop\n      mload(0x40)\n      returndatasize\n      0x00\n      dup3\n      returndatacopy\n      returndatasize\n      not(0x1f)\n      0x1f\n      dup3\n      add\n      and\n      dup3\n      add\n      dup1\n      0x40\n      mstore\n      pop\n      dup2\n      add\n      swap1\n      tag_124\n      swap2\n      swap1\n      tag_125\n      jump\t// in\n    tag_124:\n        /* \"contracts/polygon/microcebus_main.sol\":8553:8554  1 */\n      0x01\n        /* \"contracts/polygon/microcebus_main.sol\":8483:8555  IUniswapV2Router02(UniswapV2Router02).getAmountsOut(_amount_in, path)[1] */\n      dup2\n      mload\n      dup2\n      lt\n      tag_126\n      jumpi\n      tag_127\n      tag_115\n      jump\t// in\n    tag_127:\n    tag_126:\n      0x20\n      mul\n      0x20\n      add\n      add\n      mload\n        /* \"contracts/polygon/microcebus_main.sol\":8476:8556  return(IUniswapV2Router02(UniswapV2Router02).getAmountsOut(_amount_in, path)[1]) */\n      swap2\n      pop\n      pop\n        /* \"contracts/polygon/microcebus_main.sol\":8119:8563  function get_amounts_out(... */\n      swap4\n      swap3\n      pop\n      pop\n      pop\n      jump\t// out\n        /* \"contracts/polygon/microcebus_main.sol\":3956:4298  function transfer_token(string memory _token_in_identifier, address _token_receiver, uint256 _amount)... */\n    tag_39:\n        /* \"contracts/polygon/microcebus_main.sol\":4085:4100  token_contracts */\n      0x00\n        /* \"contracts/polygon/microcebus_main.sol\":4101:4121  _token_in_identifier */\n      dup4\n        /* \"contracts/polygon/microcebus_main.sol\":4085:4122  token_contracts[_token_in_identifier] */\n      mload(0x40)\n      tag_128\n      swap2\n      swap1\n      tag_98\n      jump\t// in\n    tag_128:\n      swap1\n      dup2\n      mstore\n      0x20\n      add\n      mload(0x40)\n      dup1\n      swap2\n      sub\n      swap1\n      keccak256\n        /* \"contracts/polygon/microcebus_main.sol\":4085:4126  token_contracts[_token_in_identifier].adr */\n      0x00\n      add\n      0x00\n      swap1\n      sload\n      swap1\n      0x0100\n      exp\n      swap1\n      div\n      0xffffffffffffffffffffffffffffffffffffffff\n      and\n        /* \"contracts/polygon/microcebus_main.sol\":4128:4138  msg.sender */\n      caller\n        /* \"contracts/polygon/microcebus_main.sol\":4140:4155  _token_receiver */\n      dup4\n        /* \"contracts/polygon/microcebus_main.sol\":4157:4164  _amount */\n      dup4\n        /* \"contracts/polygon/microcebus_main.sol\":2540:2547  _amount */\n      dup1\n        /* \"contracts/polygon/microcebus_main.sol\":2479:2493  _token_address */\n      dup5\n        /* \"contracts/polygon/microcebus_main.sol\":2472:2504  iERC20(_token_address).allowance */\n      0xffffffffffffffffffffffffffffffffffffffff\n      and\n      0xdd62ed3e\n        /* \"contracts/polygon/microcebus_main.sol\":2505:2518  _token_sender */\n      dup6\n        /* \"contracts/polygon/microcebus_main.sol\":2520:2535  _token_receiver */\n      dup6\n        /* \"contracts/polygon/microcebus_main.sol\":2472:2536  iERC20(_token_address).allowance(_token_sender, _token_receiver) */\n      mload(0x40)\n      dup4\n      0xffffffff\n      and\n      0xe0\n      shl\n      dup2\n      mstore\n      0x04\n      add\n      tag_130\n      swap3\n      swap2\n      swap1\n      tag_131\n      jump\t// in\n    tag_130:\n      0x20\n      mload(0x40)\n      dup1\n      dup4\n      sub\n      dup2\n      dup7\n      dup1\n      extcodesize\n      iszero\n      dup1\n      iszero\n      tag_132\n      jumpi\n      0x00\n      dup1\n      revert\n    tag_132:\n      pop\n      gas\n      staticcall\n      iszero\n      dup1\n      iszero\n      tag_134\n      jumpi\n      returndatasize\n      0x00\n      dup1\n      returndatacopy\n      revert(0x00, returndatasize)\n    tag_134:\n      pop\n      pop\n      pop\n      pop\n      mload(0x40)\n      returndatasize\n      not(0x1f)\n      0x1f\n      dup3\n      add\n      and\n      dup3\n      add\n      dup1\n      0x40\n      mstore\n      pop\n      dup2\n      add\n      swap1\n      tag_135\n      swap2\n      swap1\n      tag_106\n      jump\t// in\n    tag_135:\n        /* \"contracts/polygon/microcebus_main.sol\":2472:2547  iERC20(_token_address).allowance(_token_sender, _token_receiver) >= _amount */\n      lt\n      iszero\n        /* \"contracts/polygon/microcebus_main.sol\":2464:2616  require(iERC20(_token_address).allowance(_token_sender, _token_receiver) >= _amount,... */\n      tag_136\n      jumpi\n      mload(0x40)\n      0x08c379a000000000000000000000000000000000000000000000000000000000\n      dup2\n      mstore\n      0x04\n      add\n      tag_137\n      swap1\n      tag_138\n      jump\t// in\n    tag_137:\n      mload(0x40)\n      dup1\n      swap2\n      sub\n      swap1\n      revert\n    tag_136:\n        /* \"contracts/polygon/microcebus_main.sol\":4194:4209  token_contracts */\n      0x00\n        /* \"contracts/polygon/microcebus_main.sol\":4210:4230  _token_in_identifier */\n      dup8\n        /* \"contracts/polygon/microcebus_main.sol\":4194:4231  token_contracts[_token_in_identifier] */\n      mload(0x40)\n      tag_140\n      swap2\n      swap1\n      tag_98\n      jump\t// in\n    tag_140:\n      swap1\n      dup2\n      mstore\n      0x20\n      add\n      mload(0x40)\n      dup1\n      swap2\n      sub\n      swap1\n      keccak256\n        /* \"contracts/polygon/microcebus_main.sol\":4194:4235  token_contracts[_token_in_identifier].adr */\n      0x00\n      add\n      0x00\n      swap1\n      sload\n      swap1\n      0x0100\n      exp\n      swap1\n      div\n      0xffffffffffffffffffffffffffffffffffffffff\n      and\n        /* \"contracts/polygon/microcebus_main.sol\":4187:4249  iERC20(token_contracts[_token_in_identifier].adr).transferFrom */\n      0xffffffffffffffffffffffffffffffffffffffff\n      and\n      0x23b872dd\n        /* \"contracts/polygon/microcebus_main.sol\":4250:4260  msg.sender */\n      caller\n        /* \"contracts/polygon/microcebus_main.sol\":4262:4277  _token_receiver */\n      dup9\n        /* \"contracts/polygon/microcebus_main.sol\":4279:4286  _amount */\n      dup9\n        /* \"contracts/polygon/microcebus_main.sol\":4187:4287  iERC20(token_contracts[_token_in_identifier].adr).transferFrom(msg.sender, _token_receiver, _amount) */\n      mload(0x40)\n      dup5\n      0xffffffff\n      and\n      0xe0\n      shl\n      dup2\n      mstore\n      0x04\n      add\n      tag_141\n      swap4\n      swap3\n      swap2\n      swap1\n      tag_142\n      jump\t// in\n    tag_141:\n      0x20\n      mload(0x40)\n      dup1\n      dup4\n      sub\n      dup2\n      0x00\n      dup8\n      dup1\n      extcodesize\n      iszero\n      dup1\n      iszero\n      tag_143\n      jumpi\n      0x00\n      dup1\n      revert\n    tag_143:\n      pop\n      gas\n      call\n      iszero\n      dup1\n      iszero\n      tag_145\n      jumpi\n      returndatasize\n      0x00\n      dup1\n      returndatacopy\n      revert(0x00, returndatasize)\n    tag_145:\n      pop\n      pop\n      pop\n      pop\n      mload(0x40)\n      returndatasize\n      not(0x1f)\n      0x1f\n      dup3\n      add\n      and\n      dup3\n      add\n      dup1\n      0x40\n      mstore\n      pop\n      dup2\n      add\n      swap1\n      tag_146\n      swap2\n      swap1\n      tag_147\n      jump\t// in\n    tag_146:\n      pop\n        /* \"contracts/polygon/microcebus_main.sol\":3956:4298  function transfer_token(string memory _token_in_identifier, address _token_receiver, uint256 _amount)... */\n      pop\n      pop\n      pop\n      pop\n      pop\n      pop\n      pop\n      jump\t// out\n        /* \"contracts/polygon/microcebus_main.sol\":3573:3902  function receive_wmatic() external payable {... */\n    tag_41:\n        /* \"contracts/polygon/microcebus_main.sol\":3631:3643  bool success */\n      0x00\n        /* \"contracts/polygon/microcebus_main.sol\":3645:3662  bytes memory data */\n      dup1\n        /* \"contracts/polygon/microcebus_main.sol\":3666:3681  token_contracts */\n      0x00\n        /* \"contracts/polygon/microcebus_main.sol\":3666:3691  token_contracts[\"WMATIC\"] */\n      mload(0x40)\n      tag_149\n      swap1\n      tag_150\n      jump\t// in\n    tag_149:\n      swap1\n      dup2\n      mstore\n      0x20\n      add\n      mload(0x40)\n      dup1\n      swap2\n      sub\n      swap1\n      keccak256\n        /* \"contracts/polygon/microcebus_main.sol\":3666:3695  token_contracts[\"WMATIC\"].adr */\n      0x00\n      add\n      0x00\n      swap1\n      sload\n      swap1\n      0x0100\n      exp\n      swap1\n      div\n      0xffffffffffffffffffffffffffffffffffffffff\n      and\n        /* \"contracts/polygon/microcebus_main.sol\":3666:3700  token_contracts[\"WMATIC\"].adr.call */\n      0xffffffffffffffffffffffffffffffffffffffff\n      and\n        /* \"contracts/polygon/microcebus_main.sol\":3708:3717  msg.value */\n      callvalue\n        /* \"contracts/polygon/microcebus_main.sol\":3719:3746  abi.encodeWithSignature(\"\") */\n      add(0x24, mload(0x40))\n      mload(0x40)\n      0x20\n      dup2\n      dup4\n      sub\n      sub\n      dup2\n      mstore\n      swap1\n      0x40\n      mstore\n      and(not(0xffffffffffffffffffffffffffffffffffffffffffffffffffffffff), 0xc5d2460100000000000000000000000000000000000000000000000000000000)\n      0x20\n      dup3\n      add\n      dup1\n      mload\n      0xffffffffffffffffffffffffffffffffffffffffffffffffffffffff\n      dup4\n      dup2\n      dup4\n      and\n      or\n      dup4\n      mstore\n      pop\n      pop\n      pop\n      pop\n        /* \"contracts/polygon/microcebus_main.sol\":3666:3747  token_contracts[\"WMATIC\"].adr.call{value: msg.value}(abi.encodeWithSignature(\"\")) */\n      mload(0x40)\n      tag_151\n      swap2\n      swap1\n      tag_152\n      jump\t// in\n    tag_151:\n      0x00\n      mload(0x40)\n      dup1\n      dup4\n      sub\n      dup2\n      dup6\n      dup8\n      gas\n      call\n      swap3\n      pop\n      pop\n      pop\n      returndatasize\n      dup1\n      0x00\n      dup2\n      eq\n      tag_155\n      jumpi\n      mload(0x40)\n      swap2\n      pop\n      and(add(returndatasize, 0x3f), not(0x1f))\n      dup3\n      add\n      0x40\n      mstore\n      returndatasize\n      dup3\n      mstore\n      returndatasize\n      0x00\n      0x20\n      dup5\n      add\n      returndatacopy\n      jump(tag_154)\n    tag_155:\n      0x60\n      swap2\n      pop\n    tag_154:\n      pop\n        /* \"contracts/polygon/microcebus_main.sol\":3630:3747  (bool success, bytes memory data) = token_contracts[\"WMATIC\"].adr.call{value: msg.value}(abi.encodeWithSignature(\"\")) */\n      swap2\n      pop\n      swap2\n      pop\n        /* \"contracts/polygon/microcebus_main.sol\":3768:3783  token_contracts */\n      0x00\n        /* \"contracts/polygon/microcebus_main.sol\":3768:3793  token_contracts[\"WMATIC\"] */\n      mload(0x40)\n      tag_156\n      swap1\n      tag_150\n      jump\t// in\n    tag_156:\n      swap1\n      dup2\n      mstore\n      0x20\n      add\n      mload(0x40)\n      dup1\n      swap2\n      sub\n      swap1\n      keccak256\n        /* \"contracts/polygon/microcebus_main.sol\":3768:3797  token_contracts[\"WMATIC\"].adr */\n      0x00\n      add\n      0x00\n      swap1\n      sload\n      swap1\n      0x0100\n      exp\n      swap1\n      div\n      0xffffffffffffffffffffffffffffffffffffffff\n      and\n        /* \"contracts/polygon/microcebus_main.sol\":3761:3811  iERC20(token_contracts[\"WMATIC\"].adr).transferFrom */\n      0xffffffffffffffffffffffffffffffffffffffff\n      and\n      0x23b872dd\n        /* \"contracts/polygon/microcebus_main.sol\":3820:3824  this */\n      address\n        /* \"contracts/polygon/microcebus_main.sol\":3827:3837  msg.sender */\n      caller\n        /* \"contracts/polygon/microcebus_main.sol\":3839:3848  msg.value */\n      callvalue\n        /* \"contracts/polygon/microcebus_main.sol\":3761:3849  iERC20(token_contracts[\"WMATIC\"].adr).transferFrom(address(this), msg.sender, msg.value) */\n      mload(0x40)\n      dup5\n      0xffffffff\n      and\n      0xe0\n      shl\n      dup2\n      mstore\n      0x04\n      add\n      tag_157\n      swap4\n      swap3\n      swap2\n      swap1\n      tag_142\n      jump\t// in\n    tag_157:\n      0x20\n      mload(0x40)\n      dup1\n      dup4\n      sub\n      dup2\n      0x00\n      dup8\n      dup1\n      extcodesize\n      iszero\n      dup1\n      iszero\n      tag_158\n      jumpi\n      0x00\n      dup1\n      revert\n    tag_158:\n      pop\n      gas\n      call\n      iszero\n      dup1\n      iszero\n      tag_160\n      jumpi\n      returndatasize\n      0x00\n      dup1\n      returndatacopy\n      revert(0x00, returndatasize)\n    tag_160:\n      pop\n      pop\n      pop\n      pop\n      mload(0x40)\n      returndatasize\n      not(0x1f)\n      0x1f\n      dup3\n      add\n      and\n      dup3\n      add\n      dup1\n      0x40\n      mstore\n      pop\n      dup2\n      add\n      swap1\n      tag_161\n      swap2\n      swap1\n      tag_147\n      jump\t// in\n    tag_161:\n      pop\n        /* \"contracts/polygon/microcebus_main.sol\":3868:3891  Response(success, data) */\n      0x13848c3e38f8886f3f5d2ad9dff80d8092c2bbb8efd5b887a99c2c6cfc09ac2a\n        /* \"contracts/polygon/microcebus_main.sol\":3877:3884  success */\n      dup3\n        /* \"contracts/polygon/microcebus_main.sol\":3886:3890  data */\n      dup3\n        /* \"contracts/polygon/microcebus_main.sol\":3868:3891  Response(success, data) */\n      mload(0x40)\n      tag_162\n      swap3\n      swap2\n      swap1\n      tag_163\n      jump\t// in\n    tag_162:\n      mload(0x40)\n      dup1\n      swap2\n      sub\n      swap1\n      log1\n        /* \"contracts/polygon/microcebus_main.sol\":3616:3902  {... */\n      pop\n      pop\n        /* \"contracts/polygon/microcebus_main.sol\":3573:3902  function receive_wmatic() external payable {... */\n      jump\t// out\n        /* \"contracts/polygon/microcebus_main.sol\":8866:9065  function get_token_balance_sender(string memory _token_identifier) external view returns(uint256) {... */\n    tag_46:\n        /* \"contracts/polygon/microcebus_main.sol\":8955:8962  uint256 */\n      0x00\n        /* \"contracts/polygon/microcebus_main.sol\":8992:9007  token_contracts */\n      dup1\n        /* \"contracts/polygon/microcebus_main.sol\":9008:9025  _token_identifier */\n      dup3\n        /* \"contracts/polygon/microcebus_main.sol\":8992:9026  token_contracts[_token_identifier] */\n      mload(0x40)\n      tag_165\n      swap2\n      swap1\n      tag_98\n      jump\t// in\n    tag_165:\n      swap1\n      dup2\n      mstore\n      0x20\n      add\n      mload(0x40)\n      dup1\n      swap2\n      sub\n      swap1\n      keccak256\n        /* \"contracts/polygon/microcebus_main.sol\":8992:9030  token_contracts[_token_identifier].adr */\n      0x00\n      add\n      0x00\n      swap1\n      sload\n      swap1\n      0x0100\n      exp\n      swap1\n      div\n      0xffffffffffffffffffffffffffffffffffffffff\n      and\n        /* \"contracts/polygon/microcebus_main.sol\":8985:9041  iERC20(token_contracts[_token_identifier].adr).balanceOf */\n      0xffffffffffffffffffffffffffffffffffffffff\n      and\n      0x70a08231\n        /* \"contracts/polygon/microcebus_main.sol\":9042:9052  msg.sender */\n      caller\n        /* \"contracts/polygon/microcebus_main.sol\":8985:9053  iERC20(token_contracts[_token_identifier].adr).balanceOf(msg.sender) */\n      mload(0x40)\n      dup3\n      0xffffffff\n      and\n      0xe0\n      shl\n      dup2\n      mstore\n      0x04\n      add\n      tag_166\n      swap2\n      swap1\n      tag_101\n      jump\t// in\n    tag_166:\n      0x20\n      mload(0x40)\n      dup1\n      dup4\n      sub\n      dup2\n      dup7\n      dup1\n      extcodesize\n      iszero\n      dup1\n      iszero\n      tag_167\n      jumpi\n      0x00\n      dup1\n      revert\n    tag_167:\n      pop\n      gas\n      staticcall\n      iszero\n      dup1\n      iszero\n      tag_169\n      jumpi\n      returndatasize\n      0x00\n      dup1\n      returndatacopy\n      revert(0x00, returndatasize)\n    tag_169:\n      pop\n      pop\n      pop\n      pop\n      mload(0x40)\n      returndatasize\n      not(0x1f)\n      0x1f\n      dup3\n      add\n      and\n      dup3\n      add\n      dup1\n      0x40\n      mstore\n      pop\n      dup2\n      add\n      swap1\n      tag_170\n      swap2\n      swap1\n      tag_106\n      jump\t// in\n    tag_170:\n        /* \"contracts/polygon/microcebus_main.sol\":8978:9054  return(iERC20(token_contracts[_token_identifier].adr).balanceOf(msg.sender)) */\n      swap1\n      pop\n        /* \"contracts/polygon/microcebus_main.sol\":8866:9065  function get_token_balance_sender(string memory _token_identifier) external view returns(uint256) {... */\n      swap2\n      swap1\n      pop\n      jump\t// out\n        /* \"contracts/polygon/microcebus_main.sol\":10325:10589  function get_user_deposit(address _user, string memory _tokenA_in_identifier, string memory _tokenB_in_identifier) external view returns(uint256) {... */\n    tag_52:\n        /* \"contracts/polygon/microcebus_main.sol\":10462:10469  uint256 */\n      0x00\n        /* \"contracts/polygon/microcebus_main.sol\":10492:10510  lp_token_contracts */\n      0x01\n        /* \"contracts/polygon/microcebus_main.sol\":10511:10532  _tokenA_in_identifier */\n      dup4\n        /* \"contracts/polygon/microcebus_main.sol\":10492:10533  lp_token_contracts[_tokenA_in_identifier] */\n      mload(0x40)\n      tag_172\n      swap2\n      swap1\n      tag_98\n      jump\t// in\n    tag_172:\n      swap1\n      dup2\n      mstore\n      0x20\n      add\n      mload(0x40)\n      dup1\n      swap2\n      sub\n      swap1\n      keccak256\n        /* \"contracts/polygon/microcebus_main.sol\":10534:10555  _tokenB_in_identifier */\n      dup3\n        /* \"contracts/polygon/microcebus_main.sol\":10492:10556  lp_token_contracts[_tokenA_in_identifier][_tokenB_in_identifier] */\n      mload(0x40)\n      tag_173\n      swap2\n      swap1\n      tag_98\n      jump\t// in\n    tag_173:\n      swap1\n      dup2\n      mstore\n      0x20\n      add\n      mload(0x40)\n      dup1\n      swap2\n      sub\n      swap1\n      keccak256\n        /* \"contracts/polygon/microcebus_main.sol\":10492:10570  lp_token_contracts[_tokenA_in_identifier][_tokenB_in_identifier].user_deposits */\n      0x06\n      add\n        /* \"contracts/polygon/microcebus_main.sol\":10492:10577  lp_token_contracts[_tokenA_in_identifier][_tokenB_in_identifier].user_deposits[_user] */\n      0x00\n        /* \"contracts/polygon/microcebus_main.sol\":10571:10576  _user */\n      dup6\n        /* \"contracts/polygon/microcebus_main.sol\":10492:10577  lp_token_contracts[_tokenA_in_identifier][_tokenB_in_identifier].user_deposits[_user] */\n      0xffffffffffffffffffffffffffffffffffffffff\n      and\n      0xffffffffffffffffffffffffffffffffffffffff\n      and\n      dup2\n      mstore\n      0x20\n      add\n      swap1\n      dup2\n      mstore\n      0x20\n      add\n      0x00\n      keccak256\n      sload\n        /* \"contracts/polygon/microcebus_main.sol\":10485:10578  return(lp_token_contracts[_tokenA_in_identifier][_tokenB_in_identifier].user_deposits[_user]) */\n      swap1\n      pop\n        /* \"contracts/polygon/microcebus_main.sol\":10325:10589  function get_user_deposit(address _user, string memory _tokenA_in_identifier, string memory _tokenB_in_identifier) external view returns(uint256) {... */\n      swap4\n      swap3\n      pop\n      pop\n      pop\n      jump\t// out\n        /* \"contracts/polygon/microcebus_main.sol\":6711:7462  function withdraw_liquidity(string memory _tokenA_in_identifier, string memory _tokenB_in_identifier,... */\n    tag_58:\n        /* \"contracts/polygon/microcebus_main.sol\":6942:6963  _tokenA_in_identifier */\n      dup6\n        /* \"contracts/polygon/microcebus_main.sol\":6965:6986  _tokenA_in_identifier */\n      dup7\n        /* \"contracts/polygon/microcebus_main.sol\":6988:6998  _liquidity */\n      dup6\n        /* \"contracts/polygon/microcebus_main.sol\":7000:7010  msg.sender */\n      caller\n        /* \"contracts/polygon/microcebus_main.sol\":2892:2899  _amount */\n      dup2\n        /* \"contracts/polygon/microcebus_main.sol\":2803:2821  lp_token_contracts */\n      0x01\n        /* \"contracts/polygon/microcebus_main.sol\":2822:2843  _tokenA_in_identifier */\n      dup6\n        /* \"contracts/polygon/microcebus_main.sol\":2803:2844  lp_token_contracts[_tokenA_in_identifier] */\n      mload(0x40)\n      tag_175\n      swap2\n      swap1\n      tag_98\n      jump\t// in\n    tag_175:\n      swap1\n      dup2\n      mstore\n      0x20\n      add\n      mload(0x40)\n      dup1\n      swap2\n      sub\n      swap1\n      keccak256\n        /* \"contracts/polygon/microcebus_main.sol\":2845:2866  _tokenB_in_identifier */\n      dup5\n        /* \"contracts/polygon/microcebus_main.sol\":2803:2867  lp_token_contracts[_tokenA_in_identifier][_tokenB_in_identifier] */\n      mload(0x40)\n      tag_176\n      swap2\n      swap1\n      tag_98\n      jump\t// in\n    tag_176:\n      swap1\n      dup2\n      mstore\n      0x20\n      add\n      mload(0x40)\n      dup1\n      swap2\n      sub\n      swap1\n      keccak256\n        /* \"contracts/polygon/microcebus_main.sol\":2803:2881  lp_token_contracts[_tokenA_in_identifier][_tokenB_in_identifier].user_deposits */\n      0x06\n      add\n        /* \"contracts/polygon/microcebus_main.sol\":2803:2888  lp_token_contracts[_tokenA_in_identifier][_tokenB_in_identifier].user_deposits[_user] */\n      0x00\n        /* \"contracts/polygon/microcebus_main.sol\":2882:2887  _user */\n      dup4\n        /* \"contracts/polygon/microcebus_main.sol\":2803:2888  lp_token_contracts[_tokenA_in_identifier][_tokenB_in_identifier].user_deposits[_user] */\n      0xffffffffffffffffffffffffffffffffffffffff\n      and\n      0xffffffffffffffffffffffffffffffffffffffff\n      and\n      dup2\n      mstore\n      0x20\n      add\n      swap1\n      dup2\n      mstore\n      0x20\n      add\n      0x00\n      keccak256\n      sload\n        /* \"contracts/polygon/microcebus_main.sol\":2803:2899  lp_token_contracts[_tokenA_in_identifier][_tokenB_in_identifier].user_deposits[_user] >= _amount */\n      lt\n      iszero\n        /* \"contracts/polygon/microcebus_main.sol\":2795:2970  require(lp_token_contracts[_tokenA_in_identifier][_tokenB_in_identifier].user_deposits[_user] >= _amount,... */\n      tag_177\n      jumpi\n      mload(0x40)\n      0x08c379a000000000000000000000000000000000000000000000000000000000\n      dup2\n      mstore\n      0x04\n      add\n      tag_178\n      swap1\n      tag_179\n      jump\t// in\n    tag_178:\n      mload(0x40)\n      dup1\n      swap2\n      sub\n      swap1\n      revert\n    tag_177:\n        /* \"contracts/polygon/microcebus_main.sol\":682:724  0xa5E0829CaCEd8fFDD4De3c43696c57F7D7A678ff */\n      0xa5e0829caced8ffdd4de3c43696c57f7d7a678ff\n        /* \"contracts/polygon/microcebus_main.sol\":7036:7089  IUniswapV2Router02(UniswapV2Router02).removeLiquidity */\n      0xffffffffffffffffffffffffffffffffffffffff\n      and\n      0xbaa2abde\n        /* \"contracts/polygon/microcebus_main.sol\":7107:7122  token_contracts */\n      0x00\n        /* \"contracts/polygon/microcebus_main.sol\":7123:7144  _tokenA_in_identifier */\n      dup13\n        /* \"contracts/polygon/microcebus_main.sol\":7107:7145  token_contracts[_tokenA_in_identifier] */\n      mload(0x40)\n      tag_181\n      swap2\n      swap1\n      tag_98\n      jump\t// in\n    tag_181:\n      swap1\n      dup2\n      mstore\n      0x20\n      add\n      mload(0x40)\n      dup1\n      swap2\n      sub\n      swap1\n      keccak256\n        /* \"contracts/polygon/microcebus_main.sol\":7107:7149  token_contracts[_tokenA_in_identifier].adr */\n      0x00\n      add\n      0x00\n      swap1\n      sload\n      swap1\n      0x0100\n      exp\n      swap1\n      div\n      0xffffffffffffffffffffffffffffffffffffffff\n      and\n        /* \"contracts/polygon/microcebus_main.sol\":7167:7182  token_contracts */\n      0x00\n        /* \"contracts/polygon/microcebus_main.sol\":7183:7204  _tokenB_in_identifier */\n      dup13\n        /* \"contracts/polygon/microcebus_main.sol\":7167:7205  token_contracts[_tokenB_in_identifier] */\n      mload(0x40)\n      tag_182\n      swap2\n      swap1\n      tag_98\n      jump\t// in\n    tag_182:\n      swap1\n      dup2\n      mstore\n      0x20\n      add\n      mload(0x40)\n      dup1\n      swap2\n      sub\n      swap1\n      keccak256\n        /* \"contracts/polygon/microcebus_main.sol\":7167:7209  token_contracts[_tokenB_in_identifier].adr */\n      0x00\n      add\n      0x00\n      swap1\n      sload\n      swap1\n      0x0100\n      exp\n      swap1\n      div\n      0xffffffffffffffffffffffffffffffffffffffff\n      and\n        /* \"contracts/polygon/microcebus_main.sol\":7227:7237  _liquidity */\n      dup12\n        /* \"contracts/polygon/microcebus_main.sol\":7255:7267  _amountA_Min */\n      dup12\n        /* \"contracts/polygon/microcebus_main.sol\":7285:7297  _amountB_Min */\n      dup12\n        /* \"contracts/polygon/microcebus_main.sol\":7315:7325  msg.sender */\n      caller\n        /* \"contracts/polygon/microcebus_main.sol\":7343:7351  deadline */\n      dup13\n        /* \"contracts/polygon/microcebus_main.sol\":7036:7365  IUniswapV2Router02(UniswapV2Router02).removeLiquidity(... */\n      mload(0x40)\n      dup9\n      0xffffffff\n      and\n      0xe0\n      shl\n      dup2\n      mstore\n      0x04\n      add\n      tag_183\n      swap8\n      swap7\n      swap6\n      swap5\n      swap4\n      swap3\n      swap2\n      swap1\n      tag_184\n      jump\t// in\n    tag_183:\n      0x40\n      dup1\n      mload\n      dup1\n      dup4\n      sub\n      dup2\n      0x00\n      dup8\n      dup1\n      extcodesize\n      iszero\n      dup1\n      iszero\n      tag_185\n      jumpi\n      0x00\n      dup1\n      revert\n    tag_185:\n      pop\n      gas\n      call\n      iszero\n      dup1\n      iszero\n      tag_187\n      jumpi\n      returndatasize\n      0x00\n      dup1\n      returndatacopy\n      revert(0x00, returndatasize)\n    tag_187:\n      pop\n      pop\n      pop\n      pop\n      mload(0x40)\n      returndatasize\n      not(0x1f)\n      0x1f\n      dup3\n      add\n      and\n      dup3\n      add\n      dup1\n      0x40\n      mstore\n      pop\n      dup2\n      add\n      swap1\n      tag_188\n      swap2\n      swap1\n      tag_189\n      jump\t// in\n    tag_188:\n      pop\n      pop\n        /* \"contracts/polygon/microcebus_main.sol\":7379:7451  update_deposit(_tokenA_in_identifier, _tokenB_in_identifier, msg.sender) */\n      tag_190\n        /* \"contracts/polygon/microcebus_main.sol\":7394:7415  _tokenA_in_identifier */\n      dup11\n        /* \"contracts/polygon/microcebus_main.sol\":7417:7438  _tokenB_in_identifier */\n      dup11\n        /* \"contracts/polygon/microcebus_main.sol\":7440:7450  msg.sender */\n      caller\n        /* \"contracts/polygon/microcebus_main.sol\":7379:7393  update_deposit */\n      tag_191\n        /* \"contracts/polygon/microcebus_main.sol\":7379:7451  update_deposit(_tokenA_in_identifier, _tokenB_in_identifier, msg.sender) */\n      jump\t// in\n    tag_190:\n        /* \"contracts/polygon/microcebus_main.sol\":6711:7462  function withdraw_liquidity(string memory _tokenA_in_identifier, string memory _tokenB_in_identifier,... */\n      pop\n      pop\n      pop\n      pop\n      pop\n      pop\n      pop\n      pop\n      pop\n      pop\n      jump\t// out\n        /* \"contracts/polygon/microcebus_main.sol\":4344:4669  function transfer_token_to_contract(string memory _token_in_identifier, uint256 _amount)... */\n    tag_63:\n        /* \"contracts/polygon/microcebus_main.sol\":4460:4475  token_contracts */\n      0x00\n        /* \"contracts/polygon/microcebus_main.sol\":4476:4496  _token_in_identifier */\n      dup3\n        /* \"contracts/polygon/microcebus_main.sol\":4460:4497  token_contracts[_token_in_identifier] */\n      mload(0x40)\n      tag_192\n      swap2\n      swap1\n      tag_98\n      jump\t// in\n    tag_192:\n      swap1\n      dup2\n      mstore\n      0x20\n      add\n      mload(0x40)\n      dup1\n      swap2\n      sub\n      swap1\n      keccak256\n        /* \"contracts/polygon/microcebus_main.sol\":4460:4501  token_contracts[_token_in_identifier].adr */\n      0x00\n      add\n      0x00\n      swap1\n      sload\n      swap1\n      0x0100\n      exp\n      swap1\n      div\n      0xffffffffffffffffffffffffffffffffffffffff\n      and\n        /* \"contracts/polygon/microcebus_main.sol\":4503:4513  msg.sender */\n      caller\n        /* \"contracts/polygon/microcebus_main.sol\":4523:4527  this */\n      address\n        /* \"contracts/polygon/microcebus_main.sol\":4530:4537  _amount */\n      dup4\n        /* \"contracts/polygon/microcebus_main.sol\":2540:2547  _amount */\n      dup1\n        /* \"contracts/polygon/microcebus_main.sol\":2479:2493  _token_address */\n      dup5\n        /* \"contracts/polygon/microcebus_main.sol\":2472:2504  iERC20(_token_address).allowance */\n      0xffffffffffffffffffffffffffffffffffffffff\n      and\n      0xdd62ed3e\n        /* \"contracts/polygon/microcebus_main.sol\":2505:2518  _token_sender */\n      dup6\n        /* \"contracts/polygon/microcebus_main.sol\":2520:2535  _token_receiver */\n      dup6\n        /* \"contracts/polygon/microcebus_main.sol\":2472:2536  iERC20(_token_address).allowance(_token_sender, _token_receiver) */\n      mload(0x40)\n      dup4\n      0xffffffff\n      and\n      0xe0\n      shl\n      dup2\n      mstore\n      0x04\n      add\n      tag_194\n      swap3\n      swap2\n      swap1\n      tag_131\n      jump\t// in\n    tag_194:\n      0x20\n      mload(0x40)\n      dup1\n      dup4\n      sub\n      dup2\n      dup7\n      dup1\n      extcodesize\n      iszero\n      dup1\n      iszero\n      tag_195\n      jumpi\n      0x00\n      dup1\n      revert\n    tag_195:\n      pop\n      gas\n      staticcall\n      iszero\n      dup1\n      iszero\n      tag_197\n      jumpi\n      returndatasize\n      0x00\n      dup1\n      returndatacopy\n      revert(0x00, returndatasize)\n    tag_197:\n      pop\n      pop\n      pop\n      pop\n      mload(0x40)\n      returndatasize\n      not(0x1f)\n      0x1f\n      dup3\n      add\n      and\n      dup3\n      add\n      dup1\n      0x40\n      mstore\n      pop\n      dup2\n      add\n      swap1\n      tag_198\n      swap2\n      swap1\n      tag_106\n      jump\t// in\n    tag_198:\n        /* \"contracts/polygon/microcebus_main.sol\":2472:2547  iERC20(_token_address).allowance(_token_sender, _token_receiver) >= _amount */\n      lt\n      iszero\n        /* \"contracts/polygon/microcebus_main.sol\":2464:2616  require(iERC20(_token_address).allowance(_token_sender, _token_receiver) >= _amount,... */\n      tag_199\n      jumpi\n      mload(0x40)\n      0x08c379a000000000000000000000000000000000000000000000000000000000\n      dup2\n      mstore\n      0x04\n      add\n      tag_200\n      swap1\n      tag_138\n      jump\t// in\n    tag_200:\n      mload(0x40)\n      dup1\n      swap2\n      sub\n      swap1\n      revert\n    tag_199:\n        /* \"contracts/polygon/microcebus_main.sol\":4567:4582  token_contracts */\n      0x00\n        /* \"contracts/polygon/microcebus_main.sol\":4583:4603  _token_in_identifier */\n      dup7\n        /* \"contracts/polygon/microcebus_main.sol\":4567:4604  token_contracts[_token_in_identifier] */\n      mload(0x40)\n      tag_202\n      swap2\n      swap1\n      tag_98\n      jump\t// in\n    tag_202:\n      swap1\n      dup2\n      mstore\n      0x20\n      add\n      mload(0x40)\n      dup1\n      swap2\n      sub\n      swap1\n      keccak256\n        /* \"contracts/polygon/microcebus_main.sol\":4567:4608  token_contracts[_token_in_identifier].adr */\n      0x00\n      add\n      0x00\n      swap1\n      sload\n      swap1\n      0x0100\n      exp\n      swap1\n      div\n      0xffffffffffffffffffffffffffffffffffffffff\n      and\n        /* \"contracts/polygon/microcebus_main.sol\":4560:4622  iERC20(token_contracts[_token_in_identifier].adr).transferFrom */\n      0xffffffffffffffffffffffffffffffffffffffff\n      and\n      0x23b872dd\n        /* \"contracts/polygon/microcebus_main.sol\":4623:4633  msg.sender */\n      caller\n        /* \"contracts/polygon/microcebus_main.sol\":4643:4647  this */\n      address\n        /* \"contracts/polygon/microcebus_main.sol\":4650:4657  _amount */\n      dup9\n        /* \"contracts/polygon/microcebus_main.sol\":4560:4658  iERC20(token_contracts[_token_in_identifier].adr).transferFrom(msg.sender, address(this), _amount) */\n      mload(0x40)\n      dup5\n      0xffffffff\n      and\n      0xe0\n      shl\n      dup2\n      mstore\n      0x04\n      add\n      tag_203\n      swap4\n      swap3\n      swap2\n      swap1\n      tag_142\n      jump\t// in\n    tag_203:\n      0x20\n      mload(0x40)\n      dup1\n      dup4\n      sub\n      dup2\n      0x00\n      dup8\n      dup1\n      extcodesize\n      iszero\n      dup1\n      iszero\n      tag_204\n      jumpi\n      0x00\n      dup1\n      revert\n    tag_204:\n      pop\n      gas\n      call\n      iszero\n      dup1\n      iszero\n      tag_206\n      jumpi\n      returndatasize\n      0x00\n      dup1\n      returndatacopy\n      revert(0x00, returndatasize)\n    tag_206:\n      pop\n      pop\n      pop\n      pop\n      mload(0x40)\n      returndatasize\n      not(0x1f)\n      0x1f\n      dup3\n      add\n      and\n      dup3\n      add\n      dup1\n      0x40\n      mstore\n      pop\n      dup2\n      add\n      swap1\n      tag_207\n      swap2\n      swap1\n      tag_147\n      jump\t// in\n    tag_207:\n      pop\n        /* \"contracts/polygon/microcebus_main.sol\":4344:4669  function transfer_token_to_contract(string memory _token_in_identifier, uint256 _amount)... */\n      pop\n      pop\n      pop\n      pop\n      pop\n      pop\n      jump\t// out\n        /* \"contracts/polygon/microcebus_main.sol\":10018:10296  function get_lp_token_balance_contract(string memory _tokenA_in_identifier, string memory _tokenB_in_identifier) external view returns(uint256) {... */\n    tag_67:\n        /* \"contracts/polygon/microcebus_main.sol\":10153:10160  uint256 */\n      0x00\n        /* \"contracts/polygon/microcebus_main.sol\":10190:10208  lp_token_contracts */\n      0x01\n        /* \"contracts/polygon/microcebus_main.sol\":10209:10230  _tokenA_in_identifier */\n      dup4\n        /* \"contracts/polygon/microcebus_main.sol\":10190:10231  lp_token_contracts[_tokenA_in_identifier] */\n      mload(0x40)\n      tag_209\n      swap2\n      swap1\n      tag_98\n      jump\t// in\n    tag_209:\n      swap1\n      dup2\n      mstore\n      0x20\n      add\n      mload(0x40)\n      dup1\n      swap2\n      sub\n      swap1\n      keccak256\n        /* \"contracts/polygon/microcebus_main.sol\":10232:10253  _tokenB_in_identifier */\n      dup3\n        /* \"contracts/polygon/microcebus_main.sol\":10190:10254  lp_token_contracts[_tokenA_in_identifier][_tokenB_in_identifier] */\n      mload(0x40)\n      tag_210\n      swap2\n      swap1\n      tag_98\n      jump\t// in\n    tag_210:\n      swap1\n      dup2\n      mstore\n      0x20\n      add\n      mload(0x40)\n      dup1\n      swap2\n      sub\n      swap1\n      keccak256\n        /* \"contracts/polygon/microcebus_main.sol\":10190:10258  lp_token_contracts[_tokenA_in_identifier][_tokenB_in_identifier].adr */\n      0x04\n      add\n      0x00\n      swap1\n      sload\n      swap1\n      0x0100\n      exp\n      swap1\n      div\n      0xffffffffffffffffffffffffffffffffffffffff\n      and\n        /* \"contracts/polygon/microcebus_main.sol\":10183:10269  iERC20(lp_token_contracts[_tokenA_in_identifier][_tokenB_in_identifier].adr).balanceOf */\n      0xffffffffffffffffffffffffffffffffffffffff\n      and\n      0x70a08231\n        /* \"contracts/polygon/microcebus_main.sol\":10278:10282  this */\n      address\n        /* \"contracts/polygon/microcebus_main.sol\":10183:10284  iERC20(lp_token_contracts[_tokenA_in_identifier][_tokenB_in_identifier].adr).balanceOf(address(this)) */\n      mload(0x40)\n      dup3\n      0xffffffff\n      and\n      0xe0\n      shl\n      dup2\n      mstore\n      0x04\n      add\n      tag_211\n      swap2\n      swap1\n      tag_101\n      jump\t// in\n    tag_211:\n      0x20\n      mload(0x40)\n      dup1\n      dup4\n      sub\n      dup2\n      dup7\n      dup1\n      extcodesize\n      iszero\n      dup1\n      iszero\n      tag_212\n      jumpi\n      0x00\n      dup1\n      revert\n    tag_212:\n      pop\n      gas\n      staticcall\n      iszero\n      dup1\n      iszero\n      tag_214\n      jumpi\n      returndatasize\n      0x00\n      dup1\n      returndatacopy\n      revert(0x00, returndatasize)\n    tag_214:\n      pop\n      pop\n      pop\n      pop\n      mload(0x40)\n      returndatasize\n      not(0x1f)\n      0x1f\n      dup3\n      add\n      and\n      dup3\n      add\n      dup1\n      0x40\n      mstore\n      pop\n      dup2\n      add\n      swap1\n      tag_215\n      swap2\n      swap1\n      tag_106\n      jump\t// in\n    tag_215:\n        /* \"contracts/polygon/microcebus_main.sol\":10176:10285  return(iERC20(lp_token_contracts[_tokenA_in_identifier][_tokenB_in_identifier].adr).balanceOf(address(this))) */\n      swap1\n      pop\n        /* \"contracts/polygon/microcebus_main.sol\":10018:10296  function get_lp_token_balance_contract(string memory _tokenA_in_identifier, string memory _tokenB_in_identifier) external view returns(uint256) {... */\n      swap3\n      swap2\n      pop\n      pop\n      jump\t// out\n        /* \"contracts/polygon/microcebus_main.sol\":8602:8818  function get_token_balance(string memory _token_identifier, address _token_owner) external view returns(uint256) {... */\n    tag_73:\n        /* \"contracts/polygon/microcebus_main.sol\":8706:8713  uint256 */\n      0x00\n        /* \"contracts/polygon/microcebus_main.sol\":8743:8758  token_contracts */\n      dup1\n        /* \"contracts/polygon/microcebus_main.sol\":8759:8776  _token_identifier */\n      dup4\n        /* \"contracts/polygon/microcebus_main.sol\":8743:8777  token_contracts[_token_identifier] */\n      mload(0x40)\n      tag_217\n      swap2\n      swap1\n      tag_98\n      jump\t// in\n    tag_217:\n      swap1\n      dup2\n      mstore\n      0x20\n      add\n      mload(0x40)\n      dup1\n      swap2\n      sub\n      swap1\n      keccak256\n        /* \"contracts/polygon/microcebus_main.sol\":8743:8781  token_contracts[_token_identifier].adr */\n      0x00\n      add\n      0x00\n      swap1\n      sload\n      swap1\n      0x0100\n      exp\n      swap1\n      div\n      0xffffffffffffffffffffffffffffffffffffffff\n      and\n        /* \"contracts/polygon/microcebus_main.sol\":8736:8792  iERC20(token_contracts[_token_identifier].adr).balanceOf */\n      0xffffffffffffffffffffffffffffffffffffffff\n      and\n      0x70a08231\n        /* \"contracts/polygon/microcebus_main.sol\":8793:8805  _token_owner */\n      dup4\n        /* \"contracts/polygon/microcebus_main.sol\":8736:8806  iERC20(token_contracts[_token_identifier].adr).balanceOf(_token_owner) */\n      mload(0x40)\n      dup3\n      0xffffffff\n      and\n      0xe0\n      shl\n      dup2\n      mstore\n      0x04\n      add\n      tag_218\n      swap2\n      swap1\n      tag_101\n      jump\t// in\n    tag_218:\n      0x20\n      mload(0x40)\n      dup1\n      dup4\n      sub\n      dup2\n      dup7\n      dup1\n      extcodesize\n      iszero\n      dup1\n      iszero\n      tag_219\n      jumpi\n      0x00\n      dup1\n      revert\n    tag_219:\n      pop\n      gas\n      staticcall\n      iszero\n      dup1\n      iszero\n      tag_221\n      jumpi\n      returndatasize\n      0x00\n      dup1\n      returndatacopy\n      revert(0x00, returndatasize)\n    tag_221:\n      pop\n      pop\n      pop\n      pop\n      mload(0x40)\n      returndatasize\n      not(0x1f)\n      0x1f\n      dup3\n      add\n      and\n      dup3\n      add\n      dup1\n      0x40\n      mstore\n      pop\n      dup2\n      add\n      swap1\n      tag_222\n      swap2\n      swap1\n      tag_106\n      jump\t// in\n    tag_222:\n        /* \"contracts/polygon/microcebus_main.sol\":8729:8807  return(iERC20(token_contracts[_token_identifier].adr).balanceOf(_token_owner)) */\n      swap1\n      pop\n        /* \"contracts/polygon/microcebus_main.sol\":8602:8818  function get_token_balance(string memory _token_identifier, address _token_owner) external view returns(uint256) {... */\n      swap3\n      swap2\n      pop\n      pop\n      jump\t// out\n        /* \"contracts/polygon/microcebus_main.sol\":9115:9319  function get_token_balance_contract(string memory _token_identifier) external view returns(uint256) {... */\n    tag_78:\n        /* \"contracts/polygon/microcebus_main.sol\":9206:9213  uint256 */\n      0x00\n        /* \"contracts/polygon/microcebus_main.sol\":9243:9258  token_contracts */\n      dup1\n        /* \"contracts/polygon/microcebus_main.sol\":9259:9276  _token_identifier */\n      dup3\n        /* \"contracts/polygon/microcebus_main.sol\":9243:9277  token_contracts[_token_identifier] */\n      mload(0x40)\n      tag_224\n      swap2\n      swap1\n      tag_98\n      jump\t// in\n    tag_224:\n      swap1\n      dup2\n      mstore\n      0x20\n      add\n      mload(0x40)\n      dup1\n      swap2\n      sub\n      swap1\n      keccak256\n        /* \"contracts/polygon/microcebus_main.sol\":9243:9281  token_contracts[_token_identifier].adr */\n      0x00\n      add\n      0x00\n      swap1\n      sload\n      swap1\n      0x0100\n      exp\n      swap1\n      div\n      0xffffffffffffffffffffffffffffffffffffffff\n      and\n        /* \"contracts/polygon/microcebus_main.sol\":9236:9292  iERC20(token_contracts[_token_identifier].adr).balanceOf */\n      0xffffffffffffffffffffffffffffffffffffffff\n      and\n      0x70a08231\n        /* \"contracts/polygon/microcebus_main.sol\":9301:9305  this */\n      address\n        /* \"contracts/polygon/microcebus_main.sol\":9236:9307  iERC20(token_contracts[_token_identifier].adr).balanceOf(address(this)) */\n      mload(0x40)\n      dup3\n      0xffffffff\n      and\n      0xe0\n      shl\n      dup2\n      mstore\n      0x04\n      add\n      tag_225\n      swap2\n      swap1\n      tag_101\n      jump\t// in\n    tag_225:\n      0x20\n      mload(0x40)\n      dup1\n      dup4\n      sub\n      dup2\n      dup7\n      dup1\n      extcodesize\n      iszero\n      dup1\n      iszero\n      tag_226\n      jumpi\n      0x00\n      dup1\n      revert\n    tag_226:\n      pop\n      gas\n      staticcall\n      iszero\n      dup1\n      iszero\n      tag_228\n      jumpi\n      returndatasize\n      0x00\n      dup1\n      returndatacopy\n      revert(0x00, returndatasize)\n    tag_228:\n      pop\n      pop\n      pop\n      pop\n      mload(0x40)\n      returndatasize\n      not(0x1f)\n      0x1f\n      dup3\n      add\n      and\n      dup3\n      add\n      dup1\n      0x40\n      mstore\n      pop\n      dup2\n      add\n      swap1\n      tag_229\n      swap2\n      swap1\n      tag_106\n      jump\t// in\n    tag_229:\n        /* \"contracts/polygon/microcebus_main.sol\":9229:9308  return(iERC20(token_contracts[_token_identifier].adr).balanceOf(address(this))) */\n      swap1\n      pop\n        /* \"contracts/polygon/microcebus_main.sol\":9115:9319  function get_token_balance_contract(string memory _token_identifier) external view returns(uint256) {... */\n      swap2\n      swap1\n      pop\n      jump\t// out\n        /* \"contracts/polygon/microcebus_main.sol\":9355:9653  function get_lp_token_balance(string memory _tokenA_in_identifier, string memory _tokenB_in_identifier,... */\n    tag_84:\n        /* \"contracts/polygon/microcebus_main.sol\":9511:9518  uint256 */\n      0x00\n        /* \"contracts/polygon/microcebus_main.sol\":9548:9566  lp_token_contracts */\n      0x01\n        /* \"contracts/polygon/microcebus_main.sol\":9567:9588  _tokenA_in_identifier */\n      dup5\n        /* \"contracts/polygon/microcebus_main.sol\":9548:9589  lp_token_contracts[_tokenA_in_identifier] */\n      mload(0x40)\n      tag_231\n      swap2\n      swap1\n      tag_98\n      jump\t// in\n    tag_231:\n      swap1\n      dup2\n      mstore\n      0x20\n      add\n      mload(0x40)\n      dup1\n      swap2\n      sub\n      swap1\n      keccak256\n        /* \"contracts/polygon/microcebus_main.sol\":9590:9611  _tokenB_in_identifier */\n      dup4\n        /* \"contracts/polygon/microcebus_main.sol\":9548:9612  lp_token_contracts[_tokenA_in_identifier][_tokenB_in_identifier] */\n      mload(0x40)\n      tag_232\n      swap2\n      swap1\n      tag_98\n      jump\t// in\n    tag_232:\n      swap1\n      dup2\n      mstore\n      0x20\n      add\n      mload(0x40)\n      dup1\n      swap2\n      sub\n      swap1\n      keccak256\n        /* \"contracts/polygon/microcebus_main.sol\":9548:9616  lp_token_contracts[_tokenA_in_identifier][_tokenB_in_identifier].adr */\n      0x04\n      add\n      0x00\n      swap1\n      sload\n      swap1\n      0x0100\n      exp\n      swap1\n      div\n      0xffffffffffffffffffffffffffffffffffffffff\n      and\n        /* \"contracts/polygon/microcebus_main.sol\":9541:9627  iERC20(lp_token_contracts[_tokenA_in_identifier][_tokenB_in_identifier].adr).balanceOf */\n      0xffffffffffffffffffffffffffffffffffffffff\n      and\n      0x70a08231\n        /* \"contracts/polygon/microcebus_main.sol\":9628:9640  _token_owner */\n      dup4\n        /* \"contracts/polygon/microcebus_main.sol\":9541:9641  iERC20(lp_token_contracts[_tokenA_in_identifier][_tokenB_in_identifier].adr).balanceOf(_token_owner) */\n      mload(0x40)\n      dup3\n      0xffffffff\n      and\n      0xe0\n      shl\n      dup2\n      mstore\n      0x04\n      add\n      tag_233\n      swap2\n      swap1\n      tag_101\n      jump\t// in\n    tag_233:\n      0x20\n      mload(0x40)\n      dup1\n      dup4\n      sub\n      dup2\n      dup7\n      dup1\n      extcodesize\n      iszero\n      dup1\n      iszero\n      tag_234\n      jumpi\n      0x00\n      dup1\n      revert\n    tag_234:\n      pop\n      gas\n      staticcall\n      iszero\n      dup1\n      iszero\n      tag_236\n      jumpi\n      returndatasize\n      0x00\n      dup1\n      returndatacopy\n      revert(0x00, returndatasize)\n    tag_236:\n      pop\n      pop\n      pop\n      pop\n      mload(0x40)\n      returndatasize\n      not(0x1f)\n      0x1f\n      dup3\n      add\n      and\n      dup3\n      add\n      dup1\n      0x40\n      mstore\n      pop\n      dup2\n      add\n      swap1\n      tag_237\n      swap2\n      swap1\n      tag_106\n      jump\t// in\n    tag_237:\n        /* \"contracts/polygon/microcebus_main.sol\":9534:9642  return(iERC20(lp_token_contracts[_tokenA_in_identifier][_tokenB_in_identifier].adr).balanceOf(_token_owner)) */\n      swap1\n      pop\n        /* \"contracts/polygon/microcebus_main.sol\":9355:9653  function get_lp_token_balance(string memory _tokenA_in_identifier, string memory _tokenB_in_identifier,... */\n      swap4\n      swap3\n      pop\n      pop\n      pop\n      jump\t// out\n        /* \"contracts/polygon/microcebus_main.sol\":4712:5430  function swap_exact_tokens_for_tokens(uint256 _amount_in, uint _amount_out_min, string memory _token_in_identifier,... */\n    tag_90:\n        /* \"contracts/polygon/microcebus_main.sol\":4907:4967  transfer_token_to_contract(_token_in_identifier, _amount_in) */\n      tag_239\n        /* \"contracts/polygon/microcebus_main.sol\":4934:4954  _token_in_identifier */\n      dup4\n        /* \"contracts/polygon/microcebus_main.sol\":4956:4966  _amount_in */\n      dup7\n        /* \"contracts/polygon/microcebus_main.sol\":4907:4933  transfer_token_to_contract */\n      tag_63\n        /* \"contracts/polygon/microcebus_main.sol\":4907:4967  transfer_token_to_contract(_token_in_identifier, _amount_in) */\n      jump\t// in\n    tag_239:\n        /* \"contracts/polygon/microcebus_main.sol\":4977:4998  address[] memory path */\n      0x00\n        /* \"contracts/polygon/microcebus_main.sol\":5015:5016  2 */\n      0x02\n        /* \"contracts/polygon/microcebus_main.sol\":5001:5017  new address[](2) */\n      0xffffffffffffffff\n      dup2\n      gt\n      iszero\n      tag_240\n      jumpi\n      tag_241\n      tag_110\n      jump\t// in\n    tag_241:\n    tag_240:\n      mload(0x40)\n      swap1\n      dup1\n      dup3\n      mstore\n      dup1\n      0x20\n      mul\n      0x20\n      add\n      dup3\n      add\n      0x40\n      mstore\n      dup1\n      iszero\n      tag_242\n      jumpi\n      dup2\n      0x20\n      add\n      0x20\n      dup3\n      mul\n      dup1\n      calldatasize\n      dup4\n      calldatacopy\n      dup1\n      dup3\n      add\n      swap2\n      pop\n      pop\n      swap1\n      pop\n    tag_242:\n      pop\n        /* \"contracts/polygon/microcebus_main.sol\":4977:5017  address[] memory path = new address[](2) */\n      swap1\n      pop\n        /* \"contracts/polygon/microcebus_main.sol\":5037:5052  token_contracts */\n      0x00\n        /* \"contracts/polygon/microcebus_main.sol\":5053:5073  _token_in_identifier */\n      dup5\n        /* \"contracts/polygon/microcebus_main.sol\":5037:5074  token_contracts[_token_in_identifier] */\n      mload(0x40)\n      tag_243\n      swap2\n      swap1\n      tag_98\n      jump\t// in\n    tag_243:\n      swap1\n      dup2\n      mstore\n      0x20\n      add\n      mload(0x40)\n      dup1\n      swap2\n      sub\n      swap1\n      keccak256\n        /* \"contracts/polygon/microcebus_main.sol\":5037:5078  token_contracts[_token_in_identifier].adr */\n      0x00\n      add\n      0x00\n      swap1\n      sload\n      swap1\n      0x0100\n      exp\n      swap1\n      div\n      0xffffffffffffffffffffffffffffffffffffffff\n      and\n        /* \"contracts/polygon/microcebus_main.sol\":5027:5031  path */\n      dup2\n        /* \"contracts/polygon/microcebus_main.sol\":5032:5033  0 */\n      0x00\n        /* \"contracts/polygon/microcebus_main.sol\":5027:5034  path[0] */\n      dup2\n      mload\n      dup2\n      lt\n      tag_244\n      jumpi\n      tag_245\n      tag_115\n      jump\t// in\n    tag_245:\n    tag_244:\n      0x20\n      mul\n      0x20\n      add\n      add\n        /* \"contracts/polygon/microcebus_main.sol\":5027:5078  path[0] = token_contracts[_token_in_identifier].adr */\n      swap1\n      0xffffffffffffffffffffffffffffffffffffffff\n      and\n      swap1\n      dup2\n      0xffffffffffffffffffffffffffffffffffffffff\n      and\n      dup2\n      mstore\n      pop\n      pop\n        /* \"contracts/polygon/microcebus_main.sol\":5098:5113  token_contracts */\n      0x00\n        /* \"contracts/polygon/microcebus_main.sol\":5114:5135  _token_out_identifier */\n      dup4\n        /* \"contracts/polygon/microcebus_main.sol\":5098:5136  token_contracts[_token_out_identifier] */\n      mload(0x40)\n      tag_246\n      swap2\n      swap1\n      tag_98\n      jump\t// in\n    tag_246:\n      swap1\n      dup2\n      mstore\n      0x20\n      add\n      mload(0x40)\n      dup1\n      swap2\n      sub\n      swap1\n      keccak256\n        /* \"contracts/polygon/microcebus_main.sol\":5098:5140  token_contracts[_token_out_identifier].adr */\n      0x00\n      add\n      0x00\n      swap1\n      sload\n      swap1\n      0x0100\n      exp\n      swap1\n      div\n      0xffffffffffffffffffffffffffffffffffffffff\n      and\n        /* \"contracts/polygon/microcebus_main.sol\":5088:5092  path */\n      dup2\n        /* \"contracts/polygon/microcebus_main.sol\":5093:5094  1 */\n      0x01\n        /* \"contracts/polygon/microcebus_main.sol\":5088:5095  path[1] */\n      dup2\n      mload\n      dup2\n      lt\n      tag_247\n      jumpi\n      tag_248\n      tag_115\n      jump\t// in\n    tag_248:\n    tag_247:\n      0x20\n      mul\n      0x20\n      add\n      add\n        /* \"contracts/polygon/microcebus_main.sol\":5088:5140  path[1] = token_contracts[_token_out_identifier].adr */\n      swap1\n      0xffffffffffffffffffffffffffffffffffffffff\n      and\n      swap1\n      dup2\n      0xffffffffffffffffffffffffffffffffffffffff\n      and\n      dup2\n      mstore\n      pop\n      pop\n        /* \"contracts/polygon/microcebus_main.sol\":5157:5172  token_contracts */\n      0x00\n        /* \"contracts/polygon/microcebus_main.sol\":5173:5193  _token_in_identifier */\n      dup5\n        /* \"contracts/polygon/microcebus_main.sol\":5157:5194  token_contracts[_token_in_identifier] */\n      mload(0x40)\n      tag_249\n      swap2\n      swap1\n      tag_98\n      jump\t// in\n    tag_249:\n      swap1\n      dup2\n      mstore\n      0x20\n      add\n      mload(0x40)\n      dup1\n      swap2\n      sub\n      swap1\n      keccak256\n        /* \"contracts/polygon/microcebus_main.sol\":5157:5198  token_contracts[_token_in_identifier].adr */\n      0x00\n      add\n      0x00\n      swap1\n      sload\n      swap1\n      0x0100\n      exp\n      swap1\n      div\n      0xffffffffffffffffffffffffffffffffffffffff\n      and\n        /* \"contracts/polygon/microcebus_main.sol\":5150:5207  iERC20(token_contracts[_token_in_identifier].adr).approve */\n      0xffffffffffffffffffffffffffffffffffffffff\n      and\n      0x095ea7b3\n        /* \"contracts/polygon/microcebus_main.sol\":682:724  0xa5E0829CaCEd8fFDD4De3c43696c57F7D7A678ff */\n      0xa5e0829caced8ffdd4de3c43696c57f7d7a678ff\n        /* \"contracts/polygon/microcebus_main.sol\":5227:5237  _amount_in */\n      dup9\n        /* \"contracts/polygon/microcebus_main.sol\":5150:5238  iERC20(token_contracts[_token_in_identifier].adr).approve(UniswapV2Router02, _amount_in) */\n      mload(0x40)\n      dup4\n      0xffffffff\n      and\n      0xe0\n      shl\n      dup2\n      mstore\n      0x04\n      add\n      tag_250\n      swap3\n      swap2\n      swap1\n      tag_251\n      jump\t// in\n    tag_250:\n      0x20\n      mload(0x40)\n      dup1\n      dup4\n      sub\n      dup2\n      0x00\n      dup8\n      dup1\n      extcodesize\n      iszero\n      dup1\n      iszero\n      tag_252\n      jumpi\n      0x00\n      dup1\n      revert\n    tag_252:\n      pop\n      gas\n      call\n      iszero\n      dup1\n      iszero\n      tag_254\n      jumpi\n      returndatasize\n      0x00\n      dup1\n      returndatacopy\n      revert(0x00, returndatasize)\n    tag_254:\n      pop\n      pop\n      pop\n      pop\n      mload(0x40)\n      returndatasize\n      not(0x1f)\n      0x1f\n      dup3\n      add\n      and\n      dup3\n      add\n      dup1\n      0x40\n      mstore\n      pop\n      dup2\n      add\n      swap1\n      tag_255\n      swap2\n      swap1\n      tag_147\n      jump\t// in\n    tag_255:\n      pop\n        /* \"contracts/polygon/microcebus_main.sol\":682:724  0xa5E0829CaCEd8fFDD4De3c43696c57F7D7A678ff */\n      0xa5e0829caced8ffdd4de3c43696c57f7d7a678ff\n        /* \"contracts/polygon/microcebus_main.sol\":5253:5315  IUniswapV2Router02(UniswapV2Router02).swapExactTokensForTokens */\n      0xffffffffffffffffffffffffffffffffffffffff\n      and\n      0x38ed1739\n        /* \"contracts/polygon/microcebus_main.sol\":5327:5337  _amount_in */\n      dup8\n        /* \"contracts/polygon/microcebus_main.sol\":5349:5364  _amount_out_min */\n      dup8\n        /* \"contracts/polygon/microcebus_main.sol\":5376:5380  path */\n      dup5\n        /* \"contracts/polygon/microcebus_main.sol\":5392:5402  msg.sender */\n      caller\n        /* \"contracts/polygon/microcebus_main.sol\":5414:5422  deadline */\n      dup8\n        /* \"contracts/polygon/microcebus_main.sol\":5253:5423  IUniswapV2Router02(UniswapV2Router02).swapExactTokensForTokens(... */\n      mload(0x40)\n      dup7\n      0xffffffff\n      and\n      0xe0\n      shl\n      dup2\n      mstore\n      0x04\n      add\n      tag_256\n      swap6\n      swap5\n      swap4\n      swap3\n      swap2\n      swap1\n      tag_257\n      jump\t// in\n    tag_256:\n      0x00\n      mload(0x40)\n      dup1\n      dup4\n      sub\n      dup2\n      0x00\n      dup8\n      dup1\n      extcodesize\n      iszero\n      dup1\n      iszero\n      tag_258\n      jumpi\n      0x00\n      dup1\n      revert\n    tag_258:\n      pop\n      gas\n      call\n      iszero\n      dup1\n      iszero\n      tag_260\n      jumpi\n      returndatasize\n      0x00\n      dup1\n      returndatacopy\n      revert(0x00, returndatasize)\n    tag_260:\n      pop\n      pop\n      pop\n      pop\n      mload(0x40)\n      returndatasize\n      0x00\n      dup3\n      returndatacopy\n      returndatasize\n      not(0x1f)\n      0x1f\n      dup3\n      add\n      and\n      dup3\n      add\n      dup1\n      0x40\n      mstore\n      pop\n      dup2\n      add\n      swap1\n      tag_261\n      swap2\n      swap1\n      tag_125\n      jump\t// in\n    tag_261:\n      pop\n        /* \"contracts/polygon/microcebus_main.sol\":4897:5430  {... */\n      pop\n        /* \"contracts/polygon/microcebus_main.sol\":4712:5430  function swap_exact_tokens_for_tokens(uint256 _amount_in, uint _amount_out_min, string memory _token_in_identifier,... */\n      pop\n      pop\n      pop\n      pop\n      pop\n      jump\t// out\n        /* \"contracts/polygon/microcebus_main.sol\":5456:6684  function add_liquidity(string memory _tokenA_in_identifier, string memory _tokenB_in_identifier,... */\n    tag_95:\n        /* \"contracts/polygon/microcebus_main.sol\":5706:5727  _tokenA_in_identifier */\n      dup7\n        /* \"contracts/polygon/microcebus_main.sol\":5729:5750  _tokenB_in_identifier */\n      dup7\n        /* \"contracts/polygon/microcebus_main.sol\":5752:5768  _amountA_desired */\n      dup7\n        /* \"contracts/polygon/microcebus_main.sol\":5770:5786  _amountB_desired */\n      dup7\n        /* \"contracts/polygon/microcebus_main.sol\":5788:5798  msg.sender */\n      caller\n        /* \"contracts/polygon/microcebus_main.sol\":3242:3250  _amount0 */\n      dup3\n        /* \"contracts/polygon/microcebus_main.sol\":3178:3193  token_contracts */\n      0x00\n        /* \"contracts/polygon/microcebus_main.sol\":3194:3215  _tokenA_in_identifier */\n      dup7\n        /* \"contracts/polygon/microcebus_main.sol\":3178:3216  token_contracts[_tokenA_in_identifier] */\n      mload(0x40)\n      tag_263\n      swap2\n      swap1\n      tag_98\n      jump\t// in\n    tag_263:\n      swap1\n      dup2\n      mstore\n      0x20\n      add\n      mload(0x40)\n      dup1\n      swap2\n      sub\n      swap1\n      keccak256\n        /* \"contracts/polygon/microcebus_main.sol\":3178:3220  token_contracts[_tokenA_in_identifier].adr */\n      0x00\n      add\n      0x00\n      swap1\n      sload\n      swap1\n      0x0100\n      exp\n      swap1\n      div\n      0xffffffffffffffffffffffffffffffffffffffff\n      and\n        /* \"contracts/polygon/microcebus_main.sol\":3171:3231  iERC20(token_contracts[_tokenA_in_identifier].adr).balanceOf */\n      0xffffffffffffffffffffffffffffffffffffffff\n      and\n      0x70a08231\n        /* \"contracts/polygon/microcebus_main.sol\":3232:3237  _user */\n      dup4\n        /* \"contracts/polygon/microcebus_main.sol\":3171:3238  iERC20(token_contracts[_tokenA_in_identifier].adr).balanceOf(_user) */\n      mload(0x40)\n      dup3\n      0xffffffff\n      and\n      0xe0\n      shl\n      dup2\n      mstore\n      0x04\n      add\n      tag_264\n      swap2\n      swap1\n      tag_101\n      jump\t// in\n    tag_264:\n      0x20\n      mload(0x40)\n      dup1\n      dup4\n      sub\n      dup2\n      dup7\n      dup1\n      extcodesize\n      iszero\n      dup1\n      iszero\n      tag_265\n      jumpi\n      0x00\n      dup1\n      revert\n    tag_265:\n      pop\n      gas\n      staticcall\n      iszero\n      dup1\n      iszero\n      tag_267\n      jumpi\n      returndatasize\n      0x00\n      dup1\n      returndatacopy\n      revert(0x00, returndatasize)\n    tag_267:\n      pop\n      pop\n      pop\n      pop\n      mload(0x40)\n      returndatasize\n      not(0x1f)\n      0x1f\n      dup3\n      add\n      and\n      dup3\n      add\n      dup1\n      0x40\n      mstore\n      pop\n      dup2\n      add\n      swap1\n      tag_268\n      swap2\n      swap1\n      tag_106\n      jump\t// in\n    tag_268:\n        /* \"contracts/polygon/microcebus_main.sol\":3171:3250  iERC20(token_contracts[_tokenA_in_identifier].adr).balanceOf(_user) >= _amount0 */\n      lt\n      iszero\n        /* \"contracts/polygon/microcebus_main.sol\":3163:3314  require(iERC20(token_contracts[_tokenA_in_identifier].adr).balanceOf(_user) >= _amount0,... */\n      tag_269\n      jumpi\n      mload(0x40)\n      0x08c379a000000000000000000000000000000000000000000000000000000000\n      dup2\n      mstore\n      0x04\n      add\n      tag_270\n      swap1\n      tag_271\n      jump\t// in\n    tag_270:\n      mload(0x40)\n      dup1\n      swap2\n      sub\n      swap1\n      revert\n    tag_269:\n        /* \"contracts/polygon/microcebus_main.sol\":3403:3411  _amount1 */\n      dup2\n        /* \"contracts/polygon/microcebus_main.sol\":3339:3354  token_contracts */\n      0x00\n        /* \"contracts/polygon/microcebus_main.sol\":3355:3376  _tokenB_in_identifier */\n      dup6\n        /* \"contracts/polygon/microcebus_main.sol\":3339:3377  token_contracts[_tokenB_in_identifier] */\n      mload(0x40)\n      tag_272\n      swap2\n      swap1\n      tag_98\n      jump\t// in\n    tag_272:\n      swap1\n      dup2\n      mstore\n      0x20\n      add\n      mload(0x40)\n      dup1\n      swap2\n      sub\n      swap1\n      keccak256\n        /* \"contracts/polygon/microcebus_main.sol\":3339:3381  token_contracts[_tokenB_in_identifier].adr */\n      0x00\n      add\n      0x00\n      swap1\n      sload\n      swap1\n      0x0100\n      exp\n      swap1\n      div\n      0xffffffffffffffffffffffffffffffffffffffff\n      and\n        /* \"contracts/polygon/microcebus_main.sol\":3332:3392  iERC20(token_contracts[_tokenB_in_identifier].adr).balanceOf */\n      0xffffffffffffffffffffffffffffffffffffffff\n      and\n      0x70a08231\n        /* \"contracts/polygon/microcebus_main.sol\":3393:3398  _user */\n      dup4\n        /* \"contracts/polygon/microcebus_main.sol\":3332:3399  iERC20(token_contracts[_tokenB_in_identifier].adr).balanceOf(_user) */\n      mload(0x40)\n      dup3\n      0xffffffff\n      and\n      0xe0\n      shl\n      dup2\n      mstore\n      0x04\n      add\n      tag_273\n      swap2\n      swap1\n      tag_101\n      jump\t// in\n    tag_273:\n      0x20\n      mload(0x40)\n      dup1\n      dup4\n      sub\n      dup2\n      dup7\n      dup1\n      extcodesize\n      iszero\n      dup1\n      iszero\n      tag_274\n      jumpi\n      0x00\n      dup1\n      revert\n    tag_274:\n      pop\n      gas\n      staticcall\n      iszero\n      dup1\n      iszero\n      tag_276\n      jumpi\n      returndatasize\n      0x00\n      dup1\n      returndatacopy\n      revert(0x00, returndatasize)\n    tag_276:\n      pop\n      pop\n      pop\n      pop\n      mload(0x40)\n      returndatasize\n      not(0x1f)\n      0x1f\n      dup3\n      add\n      and\n      dup3\n      add\n      dup1\n      0x40\n      mstore\n      pop\n      dup2\n      add\n      swap1\n      tag_277\n      swap2\n      swap1\n      tag_106\n      jump\t// in\n    tag_277:\n        /* \"contracts/polygon/microcebus_main.sol\":3332:3411  iERC20(token_contracts[_tokenB_in_identifier].adr).balanceOf(_user) >= _amount1 */\n      lt\n      iszero\n        /* \"contracts/polygon/microcebus_main.sol\":3324:3475  require(iERC20(token_contracts[_tokenB_in_identifier].adr).balanceOf(_user) >= _amount1,... */\n      tag_278\n      jumpi\n      mload(0x40)\n      0x08c379a000000000000000000000000000000000000000000000000000000000\n      dup2\n      mstore\n      0x04\n      add\n      tag_279\n      swap1\n      tag_271\n      jump\t// in\n    tag_279:\n      mload(0x40)\n      dup1\n      swap2\n      sub\n      swap1\n      revert\n    tag_278:\n        /* \"contracts/polygon/microcebus_main.sol\":5837:5904  transfer_token_to_contract(_tokenA_in_identifier, _amountA_desired) */\n      tag_281\n        /* \"contracts/polygon/microcebus_main.sol\":5864:5885  _tokenA_in_identifier */\n      dup13\n        /* \"contracts/polygon/microcebus_main.sol\":5887:5903  _amountA_desired */\n      dup12\n        /* \"contracts/polygon/microcebus_main.sol\":5837:5863  transfer_token_to_contract */\n      tag_63\n        /* \"contracts/polygon/microcebus_main.sol\":5837:5904  transfer_token_to_contract(_tokenA_in_identifier, _amountA_desired) */\n      jump\t// in\n    tag_281:\n        /* \"contracts/polygon/microcebus_main.sol\":5918:5985  transfer_token_to_contract(_tokenB_in_identifier, _amountB_desired) */\n      tag_282\n        /* \"contracts/polygon/microcebus_main.sol\":5945:5966  _tokenB_in_identifier */\n      dup12\n        /* \"contracts/polygon/microcebus_main.sol\":5968:5984  _amountB_desired */\n      dup11\n        /* \"contracts/polygon/microcebus_main.sol\":5918:5944  transfer_token_to_contract */\n      tag_63\n        /* \"contracts/polygon/microcebus_main.sol\":5918:5985  transfer_token_to_contract(_tokenB_in_identifier, _amountB_desired) */\n      jump\t// in\n    tag_282:\n        /* \"contracts/polygon/microcebus_main.sol\":6007:6022  token_contracts */\n      0x00\n        /* \"contracts/polygon/microcebus_main.sol\":6023:6044  _tokenA_in_identifier */\n      dup13\n        /* \"contracts/polygon/microcebus_main.sol\":6007:6045  token_contracts[_tokenA_in_identifier] */\n      mload(0x40)\n      tag_283\n      swap2\n      swap1\n      tag_98\n      jump\t// in\n    tag_283:\n      swap1\n      dup2\n      mstore\n      0x20\n      add\n      mload(0x40)\n      dup1\n      swap2\n      sub\n      swap1\n      keccak256\n        /* \"contracts/polygon/microcebus_main.sol\":6007:6049  token_contracts[_tokenA_in_identifier].adr */\n      0x00\n      add\n      0x00\n      swap1\n      sload\n      swap1\n      0x0100\n      exp\n      swap1\n      div\n      0xffffffffffffffffffffffffffffffffffffffff\n      and\n        /* \"contracts/polygon/microcebus_main.sol\":6000:6058  iERC20(token_contracts[_tokenA_in_identifier].adr).approve */\n      0xffffffffffffffffffffffffffffffffffffffff\n      and\n      0x095ea7b3\n        /* \"contracts/polygon/microcebus_main.sol\":682:724  0xa5E0829CaCEd8fFDD4De3c43696c57F7D7A678ff */\n      0xa5e0829caced8ffdd4de3c43696c57f7d7a678ff\n        /* \"contracts/polygon/microcebus_main.sol\":6078:6094  _amountA_desired */\n      dup13\n        /* \"contracts/polygon/microcebus_main.sol\":6000:6095  iERC20(token_contracts[_tokenA_in_identifier].adr).approve(UniswapV2Router02, _amountA_desired) */\n      mload(0x40)\n      dup4\n      0xffffffff\n      and\n      0xe0\n      shl\n      dup2\n      mstore\n      0x04\n      add\n      tag_284\n      swap3\n      swap2\n      swap1\n      tag_251\n      jump\t// in\n    tag_284:\n      0x20\n      mload(0x40)\n      dup1\n      dup4\n      sub\n      dup2\n      0x00\n      dup8\n      dup1\n      extcodesize\n      iszero\n      dup1\n      iszero\n      tag_285\n      jumpi\n      0x00\n      dup1\n      revert\n    tag_285:\n      pop\n      gas\n      call\n      iszero\n      dup1\n      iszero\n      tag_287\n      jumpi\n      returndatasize\n      0x00\n      dup1\n      returndatacopy\n      revert(0x00, returndatasize)\n    tag_287:\n      pop\n      pop\n      pop\n      pop\n      mload(0x40)\n      returndatasize\n      not(0x1f)\n      0x1f\n      dup3\n      add\n      and\n      dup3\n      add\n      dup1\n      0x40\n      mstore\n      pop\n      dup2\n      add\n      swap1\n      tag_288\n      swap2\n      swap1\n      tag_147\n      jump\t// in\n    tag_288:\n      pop\n        /* \"contracts/polygon/microcebus_main.sol\":6116:6131  token_contracts */\n      0x00\n        /* \"contracts/polygon/microcebus_main.sol\":6132:6153  _tokenB_in_identifier */\n      dup12\n        /* \"contracts/polygon/microcebus_main.sol\":6116:6154  token_contracts[_tokenB_in_identifier] */\n      mload(0x40)\n      tag_289\n      swap2\n      swap1\n      tag_98\n      jump\t// in\n    tag_289:\n      swap1\n      dup2\n      mstore\n      0x20\n      add\n      mload(0x40)\n      dup1\n      swap2\n      sub\n      swap1\n      keccak256\n        /* \"contracts/polygon/microcebus_main.sol\":6116:6158  token_contracts[_tokenB_in_identifier].adr */\n      0x00\n      add\n      0x00\n      swap1\n      sload\n      swap1\n      0x0100\n      exp\n      swap1\n      div\n      0xffffffffffffffffffffffffffffffffffffffff\n      and\n        /* \"contracts/polygon/microcebus_main.sol\":6109:6167  iERC20(token_contracts[_tokenB_in_identifier].adr).approve */\n      0xffffffffffffffffffffffffffffffffffffffff\n      and\n      0x095ea7b3\n        /* \"contracts/polygon/microcebus_main.sol\":682:724  0xa5E0829CaCEd8fFDD4De3c43696c57F7D7A678ff */\n      0xa5e0829caced8ffdd4de3c43696c57f7d7a678ff\n        /* \"contracts/polygon/microcebus_main.sol\":6186:6202  _amountB_desired */\n      dup12\n        /* \"contracts/polygon/microcebus_main.sol\":6109:6203  iERC20(token_contracts[_tokenB_in_identifier].adr).approve(UniswapV2Router02,_amountB_desired) */\n      mload(0x40)\n      dup4\n      0xffffffff\n      and\n      0xe0\n      shl\n      dup2\n      mstore\n      0x04\n      add\n      tag_290\n      swap3\n      swap2\n      swap1\n      tag_251\n      jump\t// in\n    tag_290:\n      0x20\n      mload(0x40)\n      dup1\n      dup4\n      sub\n      dup2\n      0x00\n      dup8\n      dup1\n      extcodesize\n      iszero\n      dup1\n      iszero\n      tag_291\n      jumpi\n      0x00\n      dup1\n      revert\n    tag_291:\n      pop\n      gas\n      call\n      iszero\n      dup1\n      iszero\n      tag_293\n      jumpi\n      returndatasize\n      0x00\n      dup1\n      returndatacopy\n      revert(0x00, returndatasize)\n    tag_293:\n      pop\n      pop\n      pop\n      pop\n      mload(0x40)\n      returndatasize\n      not(0x1f)\n      0x1f\n      dup3\n      add\n      and\n      dup3\n      add\n      dup1\n      0x40\n      mstore\n      pop\n      dup2\n      add\n      swap1\n      tag_294\n      swap2\n      swap1\n      tag_147\n      jump\t// in\n    tag_294:\n      pop\n        /* \"contracts/polygon/microcebus_main.sol\":682:724  0xa5E0829CaCEd8fFDD4De3c43696c57F7D7A678ff */\n      0xa5e0829caced8ffdd4de3c43696c57f7d7a678ff\n        /* \"contracts/polygon/microcebus_main.sol\":6218:6268  IUniswapV2Router02(UniswapV2Router02).addLiquidity */\n      0xffffffffffffffffffffffffffffffffffffffff\n      and\n      0xe8e33700\n        /* \"contracts/polygon/microcebus_main.sol\":6286:6301  token_contracts */\n      0x00\n        /* \"contracts/polygon/microcebus_main.sol\":6302:6323  _tokenA_in_identifier */\n      dup15\n        /* \"contracts/polygon/microcebus_main.sol\":6286:6324  token_contracts[_tokenA_in_identifier] */\n      mload(0x40)\n      tag_295\n      swap2\n      swap1\n      tag_98\n      jump\t// in\n    tag_295:\n      swap1\n      dup2\n      mstore\n      0x20\n      add\n      mload(0x40)\n      dup1\n      swap2\n      sub\n      swap1\n      keccak256\n        /* \"contracts/polygon/microcebus_main.sol\":6286:6328  token_contracts[_tokenA_in_identifier].adr */\n      0x00\n      add\n      0x00\n      swap1\n      sload\n      swap1\n      0x0100\n      exp\n      swap1\n      div\n      0xffffffffffffffffffffffffffffffffffffffff\n      and\n        /* \"contracts/polygon/microcebus_main.sol\":6346:6361  token_contracts */\n      0x00\n        /* \"contracts/polygon/microcebus_main.sol\":6362:6383  _tokenB_in_identifier */\n      dup15\n        /* \"contracts/polygon/microcebus_main.sol\":6346:6384  token_contracts[_tokenB_in_identifier] */\n      mload(0x40)\n      tag_296\n      swap2\n      swap1\n      tag_98\n      jump\t// in\n    tag_296:\n      swap1\n      dup2\n      mstore\n      0x20\n      add\n      mload(0x40)\n      dup1\n      swap2\n      sub\n      swap1\n      keccak256\n        /* \"contracts/polygon/microcebus_main.sol\":6346:6388  token_contracts[_tokenB_in_identifier].adr */\n      0x00\n      add\n      0x00\n      swap1\n      sload\n      swap1\n      0x0100\n      exp\n      swap1\n      div\n      0xffffffffffffffffffffffffffffffffffffffff\n      and\n        /* \"contracts/polygon/microcebus_main.sol\":6406:6422  _amountA_desired */\n      dup14\n        /* \"contracts/polygon/microcebus_main.sol\":6440:6456  _amountB_desired */\n      dup14\n        /* \"contracts/polygon/microcebus_main.sol\":6474:6486  _amountA_Min */\n      dup14\n        /* \"contracts/polygon/microcebus_main.sol\":6504:6516  _amountB_Min */\n      dup14\n        /* \"contracts/polygon/microcebus_main.sol\":6542:6546  this */\n      address\n        /* \"contracts/polygon/microcebus_main.sol\":6565:6573  deadline */\n      dup15\n        /* \"contracts/polygon/microcebus_main.sol\":6218:6587  IUniswapV2Router02(UniswapV2Router02).addLiquidity(... */\n      mload(0x40)\n      dup10\n      0xffffffff\n      and\n      0xe0\n      shl\n      dup2\n      mstore\n      0x04\n      add\n      tag_297\n      swap9\n      swap8\n      swap7\n      swap6\n      swap5\n      swap4\n      swap3\n      swap2\n      swap1\n      tag_298\n      jump\t// in\n    tag_297:\n      0x60\n      mload(0x40)\n      dup1\n      dup4\n      sub\n      dup2\n      0x00\n      dup8\n      dup1\n      extcodesize\n      iszero\n      dup1\n      iszero\n      tag_299\n      jumpi\n      0x00\n      dup1\n      revert\n    tag_299:\n      pop\n      gas\n      call\n      iszero\n      dup1\n      iszero\n      tag_301\n      jumpi\n      returndatasize\n      0x00\n      dup1\n      returndatacopy\n      revert(0x00, returndatasize)\n    tag_301:\n      pop\n      pop\n      pop\n      pop\n      mload(0x40)\n      returndatasize\n      not(0x1f)\n      0x1f\n      dup3\n      add\n      and\n      dup3\n      add\n      dup1\n      0x40\n      mstore\n      pop\n      dup2\n      add\n      swap1\n      tag_302\n      swap2\n      swap1\n      tag_303\n      jump\t// in\n    tag_302:\n      pop\n      pop\n      pop\n        /* \"contracts/polygon/microcebus_main.sol\":6601:6673  update_deposit(_tokenA_in_identifier, _tokenB_in_identifier, msg.sender) */\n      tag_304\n        /* \"contracts/polygon/microcebus_main.sol\":6616:6637  _tokenA_in_identifier */\n      dup13\n        /* \"contracts/polygon/microcebus_main.sol\":6639:6660  _tokenB_in_identifier */\n      dup13\n        /* \"contracts/polygon/microcebus_main.sol\":6662:6672  msg.sender */\n      caller\n        /* \"contracts/polygon/microcebus_main.sol\":6601:6615  update_deposit */\n      tag_191\n        /* \"contracts/polygon/microcebus_main.sol\":6601:6673  update_deposit(_tokenA_in_identifier, _tokenB_in_identifier, msg.sender) */\n      jump\t// in\n    tag_304:\n        /* \"contracts/polygon/microcebus_main.sol\":5456:6684  function add_liquidity(string memory _tokenA_in_identifier, string memory _tokenB_in_identifier,... */\n      pop\n      pop\n      pop\n      pop\n      pop\n      pop\n      pop\n      pop\n      pop\n      pop\n      pop\n      pop\n      jump\t// out\n        /* \"contracts/polygon/microcebus_main.sol\":7500:8090  function update_deposit(string memory _tokenA_in_identifier, string memory _tokenB_in_identifier, address _user) private {... */\n    tag_191:\n        /* \"contracts/polygon/microcebus_main.sol\":7631:7645  uint256 amount */\n      0x00\n        /* \"contracts/polygon/microcebus_main.sol\":7655:7673  lp_token_contracts */\n      0x01\n        /* \"contracts/polygon/microcebus_main.sol\":7674:7695  _tokenA_in_identifier */\n      dup5\n        /* \"contracts/polygon/microcebus_main.sol\":7655:7696  lp_token_contracts[_tokenA_in_identifier] */\n      mload(0x40)\n      tag_306\n      swap2\n      swap1\n      tag_98\n      jump\t// in\n    tag_306:\n      swap1\n      dup2\n      mstore\n      0x20\n      add\n      mload(0x40)\n      dup1\n      swap2\n      sub\n      swap1\n      keccak256\n        /* \"contracts/polygon/microcebus_main.sol\":7697:7718  _tokenB_in_identifier */\n      dup4\n        /* \"contracts/polygon/microcebus_main.sol\":7655:7719  lp_token_contracts[_tokenA_in_identifier][_tokenB_in_identifier] */\n      mload(0x40)\n      tag_307\n      swap2\n      swap1\n      tag_98\n      jump\t// in\n    tag_307:\n      swap1\n      dup2\n      mstore\n      0x20\n      add\n      mload(0x40)\n      dup1\n      swap2\n      sub\n      swap1\n      keccak256\n        /* \"contracts/polygon/microcebus_main.sol\":7655:7723  lp_token_contracts[_tokenA_in_identifier][_tokenB_in_identifier].adr */\n      0x04\n      add\n      0x00\n      swap1\n      sload\n      swap1\n      0x0100\n      exp\n      swap1\n      div\n      0xffffffffffffffffffffffffffffffffffffffff\n      and\n        /* \"contracts/polygon/microcebus_main.sol\":7648:7734  iERC20(lp_token_contracts[_tokenA_in_identifier][_tokenB_in_identifier].adr).balanceOf */\n      0xffffffffffffffffffffffffffffffffffffffff\n      and\n      0x70a08231\n        /* \"contracts/polygon/microcebus_main.sol\":7743:7747  this */\n      address\n        /* \"contracts/polygon/microcebus_main.sol\":7648:7749  iERC20(lp_token_contracts[_tokenA_in_identifier][_tokenB_in_identifier].adr).balanceOf(address(this)) */\n      mload(0x40)\n      dup3\n      0xffffffff\n      and\n      0xe0\n      shl\n      dup2\n      mstore\n      0x04\n      add\n      tag_308\n      swap2\n      swap1\n      tag_101\n      jump\t// in\n    tag_308:\n      0x20\n      mload(0x40)\n      dup1\n      dup4\n      sub\n      dup2\n      dup7\n      dup1\n      extcodesize\n      iszero\n      dup1\n      iszero\n      tag_309\n      jumpi\n      0x00\n      dup1\n      revert\n    tag_309:\n      pop\n      gas\n      staticcall\n      iszero\n      dup1\n      iszero\n      tag_311\n      jumpi\n      returndatasize\n      0x00\n      dup1\n      returndatacopy\n      revert(0x00, returndatasize)\n    tag_311:\n      pop\n      pop\n      pop\n      pop\n      mload(0x40)\n      returndatasize\n      not(0x1f)\n      0x1f\n      dup3\n      add\n      and\n      dup3\n      add\n      dup1\n      0x40\n      mstore\n      pop\n      dup2\n      add\n      swap1\n      tag_312\n      swap2\n      swap1\n      tag_106\n      jump\t// in\n    tag_312:\n        /* \"contracts/polygon/microcebus_main.sol\":7631:7749  uint256 amount = iERC20(lp_token_contracts[_tokenA_in_identifier][_tokenB_in_identifier].adr).balanceOf(address(this)) */\n      swap1\n      pop\n        /* \"contracts/polygon/microcebus_main.sol\":7759:7779  uint256 user_deposit */\n      0x00\n        /* \"contracts/polygon/microcebus_main.sol\":7791:7809  lp_token_contracts */\n      0x01\n        /* \"contracts/polygon/microcebus_main.sol\":7810:7831  _tokenA_in_identifier */\n      dup6\n        /* \"contracts/polygon/microcebus_main.sol\":7791:7832  lp_token_contracts[_tokenA_in_identifier] */\n      mload(0x40)\n      tag_313\n      swap2\n      swap1\n      tag_98\n      jump\t// in\n    tag_313:\n      swap1\n      dup2\n      mstore\n      0x20\n      add\n      mload(0x40)\n      dup1\n      swap2\n      sub\n      swap1\n      keccak256\n        /* \"contracts/polygon/microcebus_main.sol\":7833:7854  _tokenB_in_identifier */\n      dup5\n        /* \"contracts/polygon/microcebus_main.sol\":7791:7855  lp_token_contracts[_tokenA_in_identifier][_tokenB_in_identifier] */\n      mload(0x40)\n      tag_314\n      swap2\n      swap1\n      tag_98\n      jump\t// in\n    tag_314:\n      swap1\n      dup2\n      mstore\n      0x20\n      add\n      mload(0x40)\n      dup1\n      swap2\n      sub\n      swap1\n      keccak256\n        /* \"contracts/polygon/microcebus_main.sol\":7791:7872  lp_token_contracts[_tokenA_in_identifier][_tokenB_in_identifier].contract_deposit */\n      0x07\n      add\n      sload\n        /* \"contracts/polygon/microcebus_main.sol\":7782:7788  amount */\n      dup3\n        /* \"contracts/polygon/microcebus_main.sol\":7782:7872  amount - lp_token_contracts[_tokenA_in_identifier][_tokenB_in_identifier].contract_deposit */\n      tag_315\n      swap2\n      swap1\n      tag_316\n      jump\t// in\n    tag_315:\n        /* \"contracts/polygon/microcebus_main.sol\":7759:7872  uint256 user_deposit = amount - lp_token_contracts[_tokenA_in_identifier][_tokenB_in_identifier].contract_deposit */\n      swap1\n      pop\n        /* \"contracts/polygon/microcebus_main.sol\":7971:7983  user_deposit */\n      dup1\n        /* \"contracts/polygon/microcebus_main.sol\":7882:7900  lp_token_contracts */\n      0x01\n        /* \"contracts/polygon/microcebus_main.sol\":7901:7922  _tokenA_in_identifier */\n      dup7\n        /* \"contracts/polygon/microcebus_main.sol\":7882:7923  lp_token_contracts[_tokenA_in_identifier] */\n      mload(0x40)\n      tag_317\n      swap2\n      swap1\n      tag_98\n      jump\t// in\n    tag_317:\n      swap1\n      dup2\n      mstore\n      0x20\n      add\n      mload(0x40)\n      dup1\n      swap2\n      sub\n      swap1\n      keccak256\n        /* \"contracts/polygon/microcebus_main.sol\":7924:7945  _tokenB_in_identifier */\n      dup6\n        /* \"contracts/polygon/microcebus_main.sol\":7882:7946  lp_token_contracts[_tokenA_in_identifier][_tokenB_in_identifier] */\n      mload(0x40)\n      tag_318\n      swap2\n      swap1\n      tag_98\n      jump\t// in\n    tag_318:\n      swap1\n      dup2\n      mstore\n      0x20\n      add\n      mload(0x40)\n      dup1\n      swap2\n      sub\n      swap1\n      keccak256\n        /* \"contracts/polygon/microcebus_main.sol\":7882:7960  lp_token_contracts[_tokenA_in_identifier][_tokenB_in_identifier].user_deposits */\n      0x06\n      add\n        /* \"contracts/polygon/microcebus_main.sol\":7882:7967  lp_token_contracts[_tokenA_in_identifier][_tokenB_in_identifier].user_deposits[_user] */\n      0x00\n        /* \"contracts/polygon/microcebus_main.sol\":7961:7966  _user */\n      dup6\n        /* \"contracts/polygon/microcebus_main.sol\":7882:7967  lp_token_contracts[_tokenA_in_identifier][_tokenB_in_identifier].user_deposits[_user] */\n      0xffffffffffffffffffffffffffffffffffffffff\n      and\n      0xffffffffffffffffffffffffffffffffffffffff\n      and\n      dup2\n      mstore\n      0x20\n      add\n      swap1\n      dup2\n      mstore\n      0x20\n      add\n      0x00\n      keccak256\n      0x00\n        /* \"contracts/polygon/microcebus_main.sol\":7882:7983  lp_token_contracts[_tokenA_in_identifier][_tokenB_in_identifier].user_deposits[_user] += user_deposit */\n      dup3\n      dup3\n      sload\n      tag_319\n      swap2\n      swap1\n      tag_320\n      jump\t// in\n    tag_319:\n      swap3\n      pop\n      pop\n      dup2\n      swap1\n      sstore\n      pop\n        /* \"contracts/polygon/microcebus_main.sol\":8077:8083  amount */\n      dup2\n        /* \"contracts/polygon/microcebus_main.sol\":7993:8011  lp_token_contracts */\n      0x01\n        /* \"contracts/polygon/microcebus_main.sol\":8012:8033  _tokenA_in_identifier */\n      dup7\n        /* \"contracts/polygon/microcebus_main.sol\":7993:8034  lp_token_contracts[_tokenA_in_identifier] */\n      mload(0x40)\n      tag_321\n      swap2\n      swap1\n      tag_98\n      jump\t// in\n    tag_321:\n      swap1\n      dup2\n      mstore\n      0x20\n      add\n      mload(0x40)\n      dup1\n      swap2\n      sub\n      swap1\n      keccak256\n        /* \"contracts/polygon/microcebus_main.sol\":8035:8056  _tokenB_in_identifier */\n      dup6\n        /* \"contracts/polygon/microcebus_main.sol\":7993:8057  lp_token_contracts[_tokenA_in_identifier][_tokenB_in_identifier] */\n      mload(0x40)\n      tag_322\n      swap2\n      swap1\n      tag_98\n      jump\t// in\n    tag_322:\n      swap1\n      dup2\n      mstore\n      0x20\n      add\n      mload(0x40)\n      dup1\n      swap2\n      sub\n      swap1\n      keccak256\n        /* \"contracts/polygon/microcebus_main.sol\":7993:8074  lp_token_contracts[_tokenA_in_identifier][_tokenB_in_identifier].contract_deposit */\n      0x07\n      add\n        /* \"contracts/polygon/microcebus_main.sol\":7993:8083  lp_token_contracts[_tokenA_in_identifier][_tokenB_in_identifier].contract_deposit = amount */\n      dup2\n      swap1\n      sstore\n      pop\n        /* \"contracts/polygon/microcebus_main.sol\":7621:8090  {... */\n      pop\n      pop\n        /* \"contracts/polygon/microcebus_main.sol\":7500:8090  function update_deposit(string memory _tokenA_in_identifier, string memory _tokenB_in_identifier, address _user) private {... */\n      pop\n      pop\n      pop\n      jump\t// out\n        /* \"#utility.yul\":24:768   */\n    tag_324:\n        /* \"#utility.yul\":131:136   */\n      0x00\n        /* \"#utility.yul\":156:237   */\n      tag_326\n        /* \"#utility.yul\":172:236   */\n      tag_327\n        /* \"#utility.yul\":229:235   */\n      dup5\n        /* \"#utility.yul\":172:236   */\n      tag_328\n      jump\t// in\n    tag_327:\n        /* \"#utility.yul\":156:237   */\n      tag_329\n      jump\t// in\n    tag_326:\n        /* \"#utility.yul\":147:237   */\n      swap1\n      pop\n        /* \"#utility.yul\":257:262   */\n      dup1\n        /* \"#utility.yul\":286:292   */\n      dup4\n        /* \"#utility.yul\":279:284   */\n      dup3\n        /* \"#utility.yul\":272:293   */\n      mstore\n        /* \"#utility.yul\":320:324   */\n      0x20\n        /* \"#utility.yul\":313:318   */\n      dup3\n        /* \"#utility.yul\":309:325   */\n      add\n        /* \"#utility.yul\":302:325   */\n      swap1\n      pop\n        /* \"#utility.yul\":346:352   */\n      dup3\n        /* \"#utility.yul\":396:399   */\n      dup6\n        /* \"#utility.yul\":388:392   */\n      0x20\n        /* \"#utility.yul\":380:386   */\n      dup7\n        /* \"#utility.yul\":376:393   */\n      mul\n        /* \"#utility.yul\":371:374   */\n      dup3\n        /* \"#utility.yul\":367:394   */\n      add\n        /* \"#utility.yul\":364:400   */\n      gt\n        /* \"#utility.yul\":361:504   */\n      iszero\n      tag_330\n      jumpi\n        /* \"#utility.yul\":415:494   */\n      tag_331\n      tag_332\n      jump\t// in\n    tag_331:\n        /* \"#utility.yul\":361:504   */\n    tag_330:\n        /* \"#utility.yul\":528:529   */\n      0x00\n        /* \"#utility.yul\":513:762   */\n    tag_333:\n        /* \"#utility.yul\":538:544   */\n      dup6\n        /* \"#utility.yul\":535:536   */\n      dup2\n        /* \"#utility.yul\":532:545   */\n      lt\n        /* \"#utility.yul\":513:762   */\n      iszero\n      tag_335\n      jumpi\n        /* \"#utility.yul\":606:609   */\n      dup2\n        /* \"#utility.yul\":635:683   */\n      tag_336\n        /* \"#utility.yul\":679:682   */\n      dup9\n        /* \"#utility.yul\":667:677   */\n      dup3\n        /* \"#utility.yul\":635:683   */\n      tag_337\n      jump\t// in\n    tag_336:\n        /* \"#utility.yul\":630:633   */\n      dup5\n        /* \"#utility.yul\":623:684   */\n      mstore\n        /* \"#utility.yul\":713:717   */\n      0x20\n        /* \"#utility.yul\":708:711   */\n      dup5\n        /* \"#utility.yul\":704:718   */\n      add\n        /* \"#utility.yul\":697:718   */\n      swap4\n      pop\n        /* \"#utility.yul\":747:751   */\n      0x20\n        /* \"#utility.yul\":742:745   */\n      dup4\n        /* \"#utility.yul\":738:752   */\n      add\n        /* \"#utility.yul\":731:752   */\n      swap3\n      pop\n        /* \"#utility.yul\":573:762   */\n      pop\n        /* \"#utility.yul\":560:561   */\n      0x01\n        /* \"#utility.yul\":557:558   */\n      dup2\n        /* \"#utility.yul\":553:562   */\n      add\n        /* \"#utility.yul\":548:562   */\n      swap1\n      pop\n        /* \"#utility.yul\":513:762   */\n      jump(tag_333)\n    tag_335:\n        /* \"#utility.yul\":517:531   */\n      pop\n        /* \"#utility.yul\":137:768   */\n      pop\n      pop\n        /* \"#utility.yul\":24:768   */\n      swap4\n      swap3\n      pop\n      pop\n      pop\n      jump\t// out\n        /* \"#utility.yul\":774:1186   */\n    tag_338:\n        /* \"#utility.yul\":852:857   */\n      0x00\n        /* \"#utility.yul\":877:943   */\n      tag_340\n        /* \"#utility.yul\":893:942   */\n      tag_341\n        /* \"#utility.yul\":935:941   */\n      dup5\n        /* \"#utility.yul\":893:942   */\n      tag_342\n      jump\t// in\n    tag_341:\n        /* \"#utility.yul\":877:943   */\n      tag_329\n      jump\t// in\n    tag_340:\n        /* \"#utility.yul\":868:943   */\n      swap1\n      pop\n        /* \"#utility.yul\":966:972   */\n      dup3\n        /* \"#utility.yul\":959:964   */\n      dup2\n        /* \"#utility.yul\":952:973   */\n      mstore\n        /* \"#utility.yul\":1004:1008   */\n      0x20\n        /* \"#utility.yul\":997:1002   */\n      dup2\n        /* \"#utility.yul\":993:1009   */\n      add\n        /* \"#utility.yul\":1042:1045   */\n      dup5\n        /* \"#utility.yul\":1033:1039   */\n      dup5\n        /* \"#utility.yul\":1028:1031   */\n      dup5\n        /* \"#utility.yul\":1024:1040   */\n      add\n        /* \"#utility.yul\":1021:1046   */\n      gt\n        /* \"#utility.yul\":1018:1130   */\n      iszero\n      tag_343\n      jumpi\n        /* \"#utility.yul\":1049:1128   */\n      tag_344\n      tag_345\n      jump\t// in\n    tag_344:\n        /* \"#utility.yul\":1018:1130   */\n    tag_343:\n        /* \"#utility.yul\":1139:1180   */\n      tag_346\n        /* \"#utility.yul\":1173:1179   */\n      dup5\n        /* \"#utility.yul\":1168:1171   */\n      dup3\n        /* \"#utility.yul\":1163:1166   */\n      dup6\n        /* \"#utility.yul\":1139:1180   */\n      tag_347\n      jump\t// in\n    tag_346:\n        /* \"#utility.yul\":858:1186   */\n      pop\n        /* \"#utility.yul\":774:1186   */\n      swap4\n      swap3\n      pop\n      pop\n      pop\n      jump\t// out\n        /* \"#utility.yul\":1192:1331   */\n    tag_348:\n        /* \"#utility.yul\":1238:1243   */\n      0x00\n        /* \"#utility.yul\":1276:1282   */\n      dup2\n        /* \"#utility.yul\":1263:1283   */\n      calldataload\n        /* \"#utility.yul\":1254:1283   */\n      swap1\n      pop\n        /* \"#utility.yul\":1292:1325   */\n      tag_350\n        /* \"#utility.yul\":1319:1324   */\n      dup2\n        /* \"#utility.yul\":1292:1325   */\n      tag_351\n      jump\t// in\n    tag_350:\n        /* \"#utility.yul\":1192:1331   */\n      swap3\n      swap2\n      pop\n      pop\n      jump\t// out\n        /* \"#utility.yul\":1354:1739   */\n    tag_352:\n        /* \"#utility.yul\":1436:1441   */\n      0x00\n        /* \"#utility.yul\":1485:1488   */\n      dup3\n        /* \"#utility.yul\":1478:1482   */\n      0x1f\n        /* \"#utility.yul\":1470:1476   */\n      dup4\n        /* \"#utility.yul\":1466:1483   */\n      add\n        /* \"#utility.yul\":1462:1489   */\n      slt\n        /* \"#utility.yul\":1452:1574   */\n      tag_354\n      jumpi\n        /* \"#utility.yul\":1493:1572   */\n      tag_355\n      tag_356\n      jump\t// in\n    tag_355:\n        /* \"#utility.yul\":1452:1574   */\n    tag_354:\n        /* \"#utility.yul\":1603:1609   */\n      dup2\n        /* \"#utility.yul\":1597:1610   */\n      mload\n        /* \"#utility.yul\":1628:1733   */\n      tag_357\n        /* \"#utility.yul\":1729:1732   */\n      dup5\n        /* \"#utility.yul\":1721:1727   */\n      dup3\n        /* \"#utility.yul\":1714:1718   */\n      0x20\n        /* \"#utility.yul\":1706:1712   */\n      dup7\n        /* \"#utility.yul\":1702:1719   */\n      add\n        /* \"#utility.yul\":1628:1733   */\n      tag_324\n      jump\t// in\n    tag_357:\n        /* \"#utility.yul\":1619:1733   */\n      swap2\n      pop\n        /* \"#utility.yul\":1442:1739   */\n      pop\n        /* \"#utility.yul\":1354:1739   */\n      swap3\n      swap2\n      pop\n      pop\n      jump\t// out\n        /* \"#utility.yul\":1745:1882   */\n    tag_358:\n        /* \"#utility.yul\":1799:1804   */\n      0x00\n        /* \"#utility.yul\":1830:1836   */\n      dup2\n        /* \"#utility.yul\":1824:1837   */\n      mload\n        /* \"#utility.yul\":1815:1837   */\n      swap1\n      pop\n        /* \"#utility.yul\":1846:1876   */\n      tag_360\n        /* \"#utility.yul\":1870:1875   */\n      dup2\n        /* \"#utility.yul\":1846:1876   */\n      tag_361\n      jump\t// in\n    tag_360:\n        /* \"#utility.yul\":1745:1882   */\n      swap3\n      swap2\n      pop\n      pop\n      jump\t// out\n        /* \"#utility.yul\":1902:2242   */\n    tag_362:\n        /* \"#utility.yul\":1958:1963   */\n      0x00\n        /* \"#utility.yul\":2007:2010   */\n      dup3\n        /* \"#utility.yul\":2000:2004   */\n      0x1f\n        /* \"#utility.yul\":1992:1998   */\n      dup4\n        /* \"#utility.yul\":1988:2005   */\n      add\n        /* \"#utility.yul\":1984:2011   */\n      slt\n        /* \"#utility.yul\":1974:2096   */\n      tag_364\n      jumpi\n        /* \"#utility.yul\":2015:2094   */\n      tag_365\n      tag_356\n      jump\t// in\n    tag_365:\n        /* \"#utility.yul\":1974:2096   */\n    tag_364:\n        /* \"#utility.yul\":2132:2138   */\n      dup2\n        /* \"#utility.yul\":2119:2139   */\n      calldataload\n        /* \"#utility.yul\":2157:2236   */\n      tag_366\n        /* \"#utility.yul\":2232:2235   */\n      dup5\n        /* \"#utility.yul\":2224:2230   */\n      dup3\n        /* \"#utility.yul\":2217:2221   */\n      0x20\n        /* \"#utility.yul\":2209:2215   */\n      dup7\n        /* \"#utility.yul\":2205:2222   */\n      add\n        /* \"#utility.yul\":2157:2236   */\n      tag_338\n      jump\t// in\n    tag_366:\n        /* \"#utility.yul\":2148:2236   */\n      swap2\n      pop\n        /* \"#utility.yul\":1964:2242   */\n      pop\n        /* \"#utility.yul\":1902:2242   */\n      swap3\n      swap2\n      pop\n      pop\n      jump\t// out\n        /* \"#utility.yul\":2248:2387   */\n    tag_367:\n        /* \"#utility.yul\":2294:2299   */\n      0x00\n        /* \"#utility.yul\":2332:2338   */\n      dup2\n        /* \"#utility.yul\":2319:2339   */\n      calldataload\n        /* \"#utility.yul\":2310:2339   */\n      swap1\n      pop\n        /* \"#utility.yul\":2348:2381   */\n      tag_369\n        /* \"#utility.yul\":2375:2380   */\n      dup2\n        /* \"#utility.yul\":2348:2381   */\n      tag_370\n      jump\t// in\n    tag_369:\n        /* \"#utility.yul\":2248:2387   */\n      swap3\n      swap2\n      pop\n      pop\n      jump\t// out\n        /* \"#utility.yul\":2393:2536   */\n    tag_337:\n        /* \"#utility.yul\":2450:2455   */\n      0x00\n        /* \"#utility.yul\":2481:2487   */\n      dup2\n        /* \"#utility.yul\":2475:2488   */\n      mload\n        /* \"#utility.yul\":2466:2488   */\n      swap1\n      pop\n        /* \"#utility.yul\":2497:2530   */\n      tag_372\n        /* \"#utility.yul\":2524:2529   */\n      dup2\n        /* \"#utility.yul\":2497:2530   */\n      tag_370\n      jump\t// in\n    tag_372:\n        /* \"#utility.yul\":2393:2536   */\n      swap3\n      swap2\n      pop\n      pop\n      jump\t// out\n        /* \"#utility.yul\":2542:3521   */\n    tag_51:\n        /* \"#utility.yul\":2639:2645   */\n      0x00\n        /* \"#utility.yul\":2647:2653   */\n      dup1\n        /* \"#utility.yul\":2655:2661   */\n      0x00\n        /* \"#utility.yul\":2704:2706   */\n      0x60\n        /* \"#utility.yul\":2692:2701   */\n      dup5\n        /* \"#utility.yul\":2683:2690   */\n      dup7\n        /* \"#utility.yul\":2679:2702   */\n      sub\n        /* \"#utility.yul\":2675:2707   */\n      slt\n        /* \"#utility.yul\":2672:2791   */\n      iszero\n      tag_374\n      jumpi\n        /* \"#utility.yul\":2710:2789   */\n      tag_375\n      tag_376\n      jump\t// in\n    tag_375:\n        /* \"#utility.yul\":2672:2791   */\n    tag_374:\n        /* \"#utility.yul\":2830:2831   */\n      0x00\n        /* \"#utility.yul\":2855:2908   */\n      tag_377\n        /* \"#utility.yul\":2900:2907   */\n      dup7\n        /* \"#utility.yul\":2891:2897   */\n      dup3\n        /* \"#utility.yul\":2880:2889   */\n      dup8\n        /* \"#utility.yul\":2876:2898   */\n      add\n        /* \"#utility.yul\":2855:2908   */\n      tag_348\n      jump\t// in\n    tag_377:\n        /* \"#utility.yul\":2845:2908   */\n      swap4\n      pop\n        /* \"#utility.yul\":2801:2918   */\n      pop\n        /* \"#utility.yul\":2985:2987   */\n      0x20\n        /* \"#utility.yul\":2974:2983   */\n      dup5\n        /* \"#utility.yul\":2970:2988   */\n      add\n        /* \"#utility.yul\":2957:2989   */\n      calldataload\n        /* \"#utility.yul\":3016:3034   */\n      0xffffffffffffffff\n        /* \"#utility.yul\":3008:3014   */\n      dup2\n        /* \"#utility.yul\":3005:3035   */\n      gt\n        /* \"#utility.yul\":3002:3119   */\n      iszero\n      tag_378\n      jumpi\n        /* \"#utility.yul\":3038:3117   */\n      tag_379\n      tag_380\n      jump\t// in\n    tag_379:\n        /* \"#utility.yul\":3002:3119   */\n    tag_378:\n        /* \"#utility.yul\":3143:3206   */\n      tag_381\n        /* \"#utility.yul\":3198:3205   */\n      dup7\n        /* \"#utility.yul\":3189:3195   */\n      dup3\n        /* \"#utility.yul\":3178:3187   */\n      dup8\n        /* \"#utility.yul\":3174:3196   */\n      add\n        /* \"#utility.yul\":3143:3206   */\n      tag_362\n      jump\t// in\n    tag_381:\n        /* \"#utility.yul\":3133:3206   */\n      swap3\n      pop\n        /* \"#utility.yul\":2928:3216   */\n      pop\n        /* \"#utility.yul\":3283:3285   */\n      0x40\n        /* \"#utility.yul\":3272:3281   */\n      dup5\n        /* \"#utility.yul\":3268:3286   */\n      add\n        /* \"#utility.yul\":3255:3287   */\n      calldataload\n        /* \"#utility.yul\":3314:3332   */\n      0xffffffffffffffff\n        /* \"#utility.yul\":3306:3312   */\n      dup2\n        /* \"#utility.yul\":3303:3333   */\n      gt\n        /* \"#utility.yul\":3300:3417   */\n      iszero\n      tag_382\n      jumpi\n        /* \"#utility.yul\":3336:3415   */\n      tag_383\n      tag_380\n      jump\t// in\n    tag_383:\n        /* \"#utility.yul\":3300:3417   */\n    tag_382:\n        /* \"#utility.yul\":3441:3504   */\n      tag_384\n        /* \"#utility.yul\":3496:3503   */\n      dup7\n        /* \"#utility.yul\":3487:3493   */\n      dup3\n        /* \"#utility.yul\":3476:3485   */\n      dup8\n        /* \"#utility.yul\":3472:3494   */\n      add\n        /* \"#utility.yul\":3441:3504   */\n      tag_362\n      jump\t// in\n    tag_384:\n        /* \"#utility.yul\":3431:3504   */\n      swap2\n      pop\n        /* \"#utility.yul\":3226:3514   */\n      pop\n        /* \"#utility.yul\":2542:3521   */\n      swap3\n      pop\n      swap3\n      pop\n      swap3\n      jump\t// out\n        /* \"#utility.yul\":3527:4081   */\n    tag_125:\n        /* \"#utility.yul\":3622:3628   */\n      0x00\n        /* \"#utility.yul\":3671:3673   */\n      0x20\n        /* \"#utility.yul\":3659:3668   */\n      dup3\n        /* \"#utility.yul\":3650:3657   */\n      dup5\n        /* \"#utility.yul\":3646:3669   */\n      sub\n        /* \"#utility.yul\":3642:3674   */\n      slt\n        /* \"#utility.yul\":3639:3758   */\n      iszero\n      tag_386\n      jumpi\n        /* \"#utility.yul\":3677:3756   */\n      tag_387\n      tag_376\n      jump\t// in\n    tag_387:\n        /* \"#utility.yul\":3639:3758   */\n    tag_386:\n        /* \"#utility.yul\":3818:3819   */\n      0x00\n        /* \"#utility.yul\":3807:3816   */\n      dup3\n        /* \"#utility.yul\":3803:3820   */\n      add\n        /* \"#utility.yul\":3797:3821   */\n      mload\n        /* \"#utility.yul\":3848:3866   */\n      0xffffffffffffffff\n        /* \"#utility.yul\":3840:3846   */\n      dup2\n        /* \"#utility.yul\":3837:3867   */\n      gt\n        /* \"#utility.yul\":3834:3951   */\n      iszero\n      tag_388\n      jumpi\n        /* \"#utility.yul\":3870:3949   */\n      tag_389\n      tag_380\n      jump\t// in\n    tag_389:\n        /* \"#utility.yul\":3834:3951   */\n    tag_388:\n        /* \"#utility.yul\":3975:4064   */\n      tag_390\n        /* \"#utility.yul\":4056:4063   */\n      dup5\n        /* \"#utility.yul\":4047:4053   */\n      dup3\n        /* \"#utility.yul\":4036:4045   */\n      dup6\n        /* \"#utility.yul\":4032:4054   */\n      add\n        /* \"#utility.yul\":3975:4064   */\n      tag_352\n      jump\t// in\n    tag_390:\n        /* \"#utility.yul\":3965:4064   */\n      swap2\n      pop\n        /* \"#utility.yul\":3768:4074   */\n      pop\n        /* \"#utility.yul\":3527:4081   */\n      swap3\n      swap2\n      pop\n      pop\n      jump\t// out\n        /* \"#utility.yul\":4087:4432   */\n    tag_147:\n        /* \"#utility.yul\":4154:4160   */\n      0x00\n        /* \"#utility.yul\":4203:4205   */\n      0x20\n        /* \"#utility.yul\":4191:4200   */\n      dup3\n        /* \"#utility.yul\":4182:4189   */\n      dup5\n        /* \"#utility.yul\":4178:4201   */\n      sub\n        /* \"#utility.yul\":4174:4206   */\n      slt\n        /* \"#utility.yul\":4171:4290   */\n      iszero\n      tag_392\n      jumpi\n        /* \"#utility.yul\":4209:4288   */\n      tag_393\n      tag_376\n      jump\t// in\n    tag_393:\n        /* \"#utility.yul\":4171:4290   */\n    tag_392:\n        /* \"#utility.yul\":4329:4330   */\n      0x00\n        /* \"#utility.yul\":4354:4415   */\n      tag_394\n        /* \"#utility.yul\":4407:4414   */\n      dup5\n        /* \"#utility.yul\":4398:4404   */\n      dup3\n        /* \"#utility.yul\":4387:4396   */\n      dup6\n        /* \"#utility.yul\":4383:4405   */\n      add\n        /* \"#utility.yul\":4354:4415   */\n      tag_358\n      jump\t// in\n    tag_394:\n        /* \"#utility.yul\":4344:4415   */\n      swap2\n      pop\n        /* \"#utility.yul\":4300:4425   */\n      pop\n        /* \"#utility.yul\":4087:4432   */\n      swap3\n      swap2\n      pop\n      pop\n      jump\t// out\n        /* \"#utility.yul\":4438:4947   */\n    tag_45:\n        /* \"#utility.yul\":4507:4513   */\n      0x00\n        /* \"#utility.yul\":4556:4558   */\n      0x20\n        /* \"#utility.yul\":4544:4553   */\n      dup3\n        /* \"#utility.yul\":4535:4542   */\n      dup5\n        /* \"#utility.yul\":4531:4554   */\n      sub\n        /* \"#utility.yul\":4527:4559   */\n      slt\n        /* \"#utility.yul\":4524:4643   */\n      iszero\n      tag_396\n      jumpi\n        /* \"#utility.yul\":4562:4641   */\n      tag_397\n      tag_376\n      jump\t// in\n    tag_397:\n        /* \"#utility.yul\":4524:4643   */\n    tag_396:\n        /* \"#utility.yul\":4710:4711   */\n      0x00\n        /* \"#utility.yul\":4699:4708   */\n      dup3\n        /* \"#utility.yul\":4695:4712   */\n      add\n        /* \"#utility.yul\":4682:4713   */\n      calldataload\n        /* \"#utility.yul\":4740:4758   */\n      0xffffffffffffffff\n        /* \"#utility.yul\":4732:4738   */\n      dup2\n        /* \"#utility.yul\":4729:4759   */\n      gt\n        /* \"#utility.yul\":4726:4843   */\n      iszero\n      tag_398\n      jumpi\n        /* \"#utility.yul\":4762:4841   */\n      tag_399\n      tag_380\n      jump\t// in\n    tag_399:\n        /* \"#utility.yul\":4726:4843   */\n    tag_398:\n        /* \"#utility.yul\":4867:4930   */\n      tag_400\n        /* \"#utility.yul\":4922:4929   */\n      dup5\n        /* \"#utility.yul\":4913:4919   */\n      dup3\n        /* \"#utility.yul\":4902:4911   */\n      dup6\n        /* \"#utility.yul\":4898:4920   */\n      add\n        /* \"#utility.yul\":4867:4930   */\n      tag_362\n      jump\t// in\n    tag_400:\n        /* \"#utility.yul\":4857:4930   */\n      swap2\n      pop\n        /* \"#utility.yul\":4653:4940   */\n      pop\n        /* \"#utility.yul\":4438:4947   */\n      swap3\n      swap2\n      pop\n      pop\n      jump\t// out\n        /* \"#utility.yul\":4953:5607   */\n    tag_72:\n        /* \"#utility.yul\":5031:5037   */\n      0x00\n        /* \"#utility.yul\":5039:5045   */\n      dup1\n        /* \"#utility.yul\":5088:5090   */\n      0x40\n        /* \"#utility.yul\":5076:5085   */\n      dup4\n        /* \"#utility.yul\":5067:5074   */\n      dup6\n        /* \"#utility.yul\":5063:5086   */\n      sub\n        /* \"#utility.yul\":5059:5091   */\n      slt\n        /* \"#utility.yul\":5056:5175   */\n      iszero\n      tag_402\n      jumpi\n        /* \"#utility.yul\":5094:5173   */\n      tag_403\n      tag_376\n      jump\t// in\n    tag_403:\n        /* \"#utility.yul\":5056:5175   */\n    tag_402:\n        /* \"#utility.yul\":5242:5243   */\n      0x00\n        /* \"#utility.yul\":5231:5240   */\n      dup4\n        /* \"#utility.yul\":5227:5244   */\n      add\n        /* \"#utility.yul\":5214:5245   */\n      calldataload\n        /* \"#utility.yul\":5272:5290   */\n      0xffffffffffffffff\n        /* \"#utility.yul\":5264:5270   */\n      dup2\n        /* \"#utility.yul\":5261:5291   */\n      gt\n        /* \"#utility.yul\":5258:5375   */\n      iszero\n      tag_404\n      jumpi\n        /* \"#utility.yul\":5294:5373   */\n      tag_405\n      tag_380\n      jump\t// in\n    tag_405:\n        /* \"#utility.yul\":5258:5375   */\n    tag_404:\n        /* \"#utility.yul\":5399:5462   */\n      tag_406\n        /* \"#utility.yul\":5454:5461   */\n      dup6\n        /* \"#utility.yul\":5445:5451   */\n      dup3\n        /* \"#utility.yul\":5434:5443   */\n      dup7\n        /* \"#utility.yul\":5430:5452   */\n      add\n        /* \"#utility.yul\":5399:5462   */\n      tag_362\n      jump\t// in\n    tag_406:\n        /* \"#utility.yul\":5389:5462   */\n      swap3\n      pop\n        /* \"#utility.yul\":5185:5472   */\n      pop\n        /* \"#utility.yul\":5511:5513   */\n      0x20\n        /* \"#utility.yul\":5537:5590   */\n      tag_407\n        /* \"#utility.yul\":5582:5589   */\n      dup6\n        /* \"#utility.yul\":5573:5579   */\n      dup3\n        /* \"#utility.yul\":5562:5571   */\n      dup7\n        /* \"#utility.yul\":5558:5580   */\n      add\n        /* \"#utility.yul\":5537:5590   */\n      tag_348\n      jump\t// in\n    tag_407:\n        /* \"#utility.yul\":5527:5590   */\n      swap2\n      pop\n        /* \"#utility.yul\":5482:5600   */\n      pop\n        /* \"#utility.yul\":4953:5607   */\n      swap3\n      pop\n      swap3\n      swap1\n      pop\n      jump\t// out\n        /* \"#utility.yul\":5613:6412   */\n    tag_38:\n        /* \"#utility.yul\":5700:5706   */\n      0x00\n        /* \"#utility.yul\":5708:5714   */\n      dup1\n        /* \"#utility.yul\":5716:5722   */\n      0x00\n        /* \"#utility.yul\":5765:5767   */\n      0x60\n        /* \"#utility.yul\":5753:5762   */\n      dup5\n        /* \"#utility.yul\":5744:5751   */\n      dup7\n        /* \"#utility.yul\":5740:5763   */\n      sub\n        /* \"#utility.yul\":5736:5768   */\n      slt\n        /* \"#utility.yul\":5733:5852   */\n      iszero\n      tag_409\n      jumpi\n        /* \"#utility.yul\":5771:5850   */\n      tag_410\n      tag_376\n      jump\t// in\n    tag_410:\n        /* \"#utility.yul\":5733:5852   */\n    tag_409:\n        /* \"#utility.yul\":5919:5920   */\n      0x00\n        /* \"#utility.yul\":5908:5917   */\n      dup5\n        /* \"#utility.yul\":5904:5921   */\n      add\n        /* \"#utility.yul\":5891:5922   */\n      calldataload\n        /* \"#utility.yul\":5949:5967   */\n      0xffffffffffffffff\n        /* \"#utility.yul\":5941:5947   */\n      dup2\n        /* \"#utility.yul\":5938:5968   */\n      gt\n        /* \"#utility.yul\":5935:6052   */\n      iszero\n      tag_411\n      jumpi\n        /* \"#utility.yul\":5971:6050   */\n      tag_412\n      tag_380\n      jump\t// in\n    tag_412:\n        /* \"#utility.yul\":5935:6052   */\n    tag_411:\n        /* \"#utility.yul\":6076:6139   */\n      tag_413\n        /* \"#utility.yul\":6131:6138   */\n      dup7\n        /* \"#utility.yul\":6122:6128   */\n      dup3\n        /* \"#utility.yul\":6111:6120   */\n      dup8\n        /* \"#utility.yul\":6107:6129   */\n      add\n        /* \"#utility.yul\":6076:6139   */\n      tag_362\n      jump\t// in\n    tag_413:\n        /* \"#utility.yul\":6066:6139   */\n      swap4\n      pop\n        /* \"#utility.yul\":5862:6149   */\n      pop\n        /* \"#utility.yul\":6188:6190   */\n      0x20\n        /* \"#utility.yul\":6214:6267   */\n      tag_414\n        /* \"#utility.yul\":6259:6266   */\n      dup7\n        /* \"#utility.yul\":6250:6256   */\n      dup3\n        /* \"#utility.yul\":6239:6248   */\n      dup8\n        /* \"#utility.yul\":6235:6257   */\n      add\n        /* \"#utility.yul\":6214:6267   */\n      tag_348\n      jump\t// in\n    tag_414:\n        /* \"#utility.yul\":6204:6267   */\n      swap3\n      pop\n        /* \"#utility.yul\":6159:6277   */\n      pop\n        /* \"#utility.yul\":6316:6318   */\n      0x40\n        /* \"#utility.yul\":6342:6395   */\n      tag_415\n        /* \"#utility.yul\":6387:6394   */\n      dup7\n        /* \"#utility.yul\":6378:6384   */\n      dup3\n        /* \"#utility.yul\":6367:6376   */\n      dup8\n        /* \"#utility.yul\":6363:6385   */\n      add\n        /* \"#utility.yul\":6342:6395   */\n      tag_367\n      jump\t// in\n    tag_415:\n        /* \"#utility.yul\":6332:6395   */\n      swap2\n      pop\n        /* \"#utility.yul\":6287:6405   */\n      pop\n        /* \"#utility.yul\":5613:6412   */\n      swap3\n      pop\n      swap3\n      pop\n      swap3\n      jump\t// out\n        /* \"#utility.yul\":6418:7252   */\n    tag_25:\n        /* \"#utility.yul\":6506:6512   */\n      0x00\n        /* \"#utility.yul\":6514:6520   */\n      dup1\n        /* \"#utility.yul\":6563:6565   */\n      0x40\n        /* \"#utility.yul\":6551:6560   */\n      dup4\n        /* \"#utility.yul\":6542:6549   */\n      dup6\n        /* \"#utility.yul\":6538:6561   */\n      sub\n        /* \"#utility.yul\":6534:6566   */\n      slt\n        /* \"#utility.yul\":6531:6650   */\n      iszero\n      tag_417\n      jumpi\n        /* \"#utility.yul\":6569:6648   */\n      tag_418\n      tag_376\n      jump\t// in\n    tag_418:\n        /* \"#utility.yul\":6531:6650   */\n    tag_417:\n        /* \"#utility.yul\":6717:6718   */\n      0x00\n        /* \"#utility.yul\":6706:6715   */\n      dup4\n        /* \"#utility.yul\":6702:6719   */\n      add\n        /* \"#utility.yul\":6689:6720   */\n      calldataload\n        /* \"#utility.yul\":6747:6765   */\n      0xffffffffffffffff\n        /* \"#utility.yul\":6739:6745   */\n      dup2\n        /* \"#utility.yul\":6736:6766   */\n      gt\n        /* \"#utility.yul\":6733:6850   */\n      iszero\n      tag_419\n      jumpi\n        /* \"#utility.yul\":6769:6848   */\n      tag_420\n      tag_380\n      jump\t// in\n    tag_420:\n        /* \"#utility.yul\":6733:6850   */\n    tag_419:\n        /* \"#utility.yul\":6874:6937   */\n      tag_421\n        /* \"#utility.yul\":6929:6936   */\n      dup6\n        /* \"#utility.yul\":6920:6926   */\n      dup3\n        /* \"#utility.yul\":6909:6918   */\n      dup7\n        /* \"#utility.yul\":6905:6927   */\n      add\n        /* \"#utility.yul\":6874:6937   */\n      tag_362\n      jump\t// in\n    tag_421:\n        /* \"#utility.yul\":6864:6937   */\n      swap3\n      pop\n        /* \"#utility.yul\":6660:6947   */\n      pop\n        /* \"#utility.yul\":7014:7016   */\n      0x20\n        /* \"#utility.yul\":7003:7012   */\n      dup4\n        /* \"#utility.yul\":6999:7017   */\n      add\n        /* \"#utility.yul\":6986:7018   */\n      calldataload\n        /* \"#utility.yul\":7045:7063   */\n      0xffffffffffffffff\n        /* \"#utility.yul\":7037:7043   */\n      dup2\n        /* \"#utility.yul\":7034:7064   */\n      gt\n        /* \"#utility.yul\":7031:7148   */\n      iszero\n      tag_422\n      jumpi\n        /* \"#utility.yul\":7067:7146   */\n      tag_423\n      tag_380\n      jump\t// in\n    tag_423:\n        /* \"#utility.yul\":7031:7148   */\n    tag_422:\n        /* \"#utility.yul\":7172:7235   */\n      tag_424\n        /* \"#utility.yul\":7227:7234   */\n      dup6\n        /* \"#utility.yul\":7218:7224   */\n      dup3\n        /* \"#utility.yul\":7207:7216   */\n      dup7\n        /* \"#utility.yul\":7203:7225   */\n      add\n        /* \"#utility.yul\":7172:7235   */\n      tag_362\n      jump\t// in\n    tag_424:\n        /* \"#utility.yul\":7162:7235   */\n      swap2\n      pop\n        /* \"#utility.yul\":6957:7245   */\n      pop\n        /* \"#utility.yul\":6418:7252   */\n      swap3\n      pop\n      swap3\n      swap1\n      pop\n      jump\t// out\n        /* \"#utility.yul\":7258:8237   */\n    tag_83:\n        /* \"#utility.yul\":7355:7361   */\n      0x00\n        /* \"#utility.yul\":7363:7369   */\n      dup1\n        /* \"#utility.yul\":7371:7377   */\n      0x00\n        /* \"#utility.yul\":7420:7422   */\n      0x60\n        /* \"#utility.yul\":7408:7417   */\n      dup5\n        /* \"#utility.yul\":7399:7406   */\n      dup7\n        /* \"#utility.yul\":7395:7418   */\n      sub\n        /* \"#utility.yul\":7391:7423   */\n      slt\n        /* \"#utility.yul\":7388:7507   */\n      iszero\n      tag_426\n      jumpi\n        /* \"#utility.yul\":7426:7505   */\n      tag_427\n      tag_376\n      jump\t// in\n    tag_427:\n        /* \"#utility.yul\":7388:7507   */\n    tag_426:\n        /* \"#utility.yul\":7574:7575   */\n      0x00\n        /* \"#utility.yul\":7563:7572   */\n      dup5\n        /* \"#utility.yul\":7559:7576   */\n      add\n        /* \"#utility.yul\":7546:7577   */\n      calldataload\n        /* \"#utility.yul\":7604:7622   */\n      0xffffffffffffffff\n        /* \"#utility.yul\":7596:7602   */\n      dup2\n        /* \"#utility.yul\":7593:7623   */\n      gt\n        /* \"#utility.yul\":7590:7707   */\n      iszero\n      tag_428\n      jumpi\n        /* \"#utility.yul\":7626:7705   */\n      tag_429\n      tag_380\n      jump\t// in\n    tag_429:\n        /* \"#utility.yul\":7590:7707   */\n    tag_428:\n        /* \"#utility.yul\":7731:7794   */\n      tag_430\n        /* \"#utility.yul\":7786:7793   */\n      dup7\n        /* \"#utility.yul\":7777:7783   */\n      dup3\n        /* \"#utility.yul\":7766:7775   */\n      dup8\n        /* \"#utility.yul\":7762:7784   */\n      add\n        /* \"#utility.yul\":7731:7794   */\n      tag_362\n      jump\t// in\n    tag_430:\n        /* \"#utility.yul\":7721:7794   */\n      swap4\n      pop\n        /* \"#utility.yul\":7517:7804   */\n      pop\n        /* \"#utility.yul\":7871:7873   */\n      0x20\n        /* \"#utility.yul\":7860:7869   */\n      dup5\n        /* \"#utility.yul\":7856:7874   */\n      add\n        /* \"#utility.yul\":7843:7875   */\n      calldataload\n        /* \"#utility.yul\":7902:7920   */\n      0xffffffffffffffff\n        /* \"#utility.yul\":7894:7900   */\n      dup2\n        /* \"#utility.yul\":7891:7921   */\n      gt\n        /* \"#utility.yul\":7888:8005   */\n      iszero\n      tag_431\n      jumpi\n        /* \"#utility.yul\":7924:8003   */\n      tag_432\n      tag_380\n      jump\t// in\n    tag_432:\n        /* \"#utility.yul\":7888:8005   */\n    tag_431:\n        /* \"#utility.yul\":8029:8092   */\n      tag_433\n        /* \"#utility.yul\":8084:8091   */\n      dup7\n        /* \"#utility.yul\":8075:8081   */\n      dup3\n        /* \"#utility.yul\":8064:8073   */\n      dup8\n        /* \"#utility.yul\":8060:8082   */\n      add\n        /* \"#utility.yul\":8029:8092   */\n      tag_362\n      jump\t// in\n    tag_433:\n        /* \"#utility.yul\":8019:8092   */\n      swap3\n      pop\n        /* \"#utility.yul\":7814:8102   */\n      pop\n        /* \"#utility.yul\":8141:8143   */\n      0x40\n        /* \"#utility.yul\":8167:8220   */\n      tag_434\n        /* \"#utility.yul\":8212:8219   */\n      dup7\n        /* \"#utility.yul\":8203:8209   */\n      dup3\n        /* \"#utility.yul\":8192:8201   */\n      dup8\n        /* \"#utility.yul\":8188:8210   */\n      add\n        /* \"#utility.yul\":8167:8220   */\n      tag_348\n      jump\t// in\n    tag_434:\n        /* \"#utility.yul\":8157:8220   */\n      swap2\n      pop\n        /* \"#utility.yul\":8112:8230   */\n      pop\n        /* \"#utility.yul\":7258:8237   */\n      swap3\n      pop\n      swap3\n      pop\n      swap3\n      jump\t// out\n        /* \"#utility.yul\":8243:9660   */\n    tag_57:\n        /* \"#utility.yul\":8367:8373   */\n      0x00\n        /* \"#utility.yul\":8375:8381   */\n      dup1\n        /* \"#utility.yul\":8383:8389   */\n      0x00\n        /* \"#utility.yul\":8391:8397   */\n      dup1\n        /* \"#utility.yul\":8399:8405   */\n      0x00\n        /* \"#utility.yul\":8407:8413   */\n      dup1\n        /* \"#utility.yul\":8456:8459   */\n      0xc0\n        /* \"#utility.yul\":8444:8453   */\n      dup8\n        /* \"#utility.yul\":8435:8442   */\n      dup10\n        /* \"#utility.yul\":8431:8454   */\n      sub\n        /* \"#utility.yul\":8427:8460   */\n      slt\n        /* \"#utility.yul\":8424:8544   */\n      iszero\n      tag_436\n      jumpi\n        /* \"#utility.yul\":8463:8542   */\n      tag_437\n      tag_376\n      jump\t// in\n    tag_437:\n        /* \"#utility.yul\":8424:8544   */\n    tag_436:\n        /* \"#utility.yul\":8611:8612   */\n      0x00\n        /* \"#utility.yul\":8600:8609   */\n      dup8\n        /* \"#utility.yul\":8596:8613   */\n      add\n        /* \"#utility.yul\":8583:8614   */\n      calldataload\n        /* \"#utility.yul\":8641:8659   */\n      0xffffffffffffffff\n        /* \"#utility.yul\":8633:8639   */\n      dup2\n        /* \"#utility.yul\":8630:8660   */\n      gt\n        /* \"#utility.yul\":8627:8744   */\n      iszero\n      tag_438\n      jumpi\n        /* \"#utility.yul\":8663:8742   */\n      tag_439\n      tag_380\n      jump\t// in\n    tag_439:\n        /* \"#utility.yul\":8627:8744   */\n    tag_438:\n        /* \"#utility.yul\":8768:8831   */\n      tag_440\n        /* \"#utility.yul\":8823:8830   */\n      dup10\n        /* \"#utility.yul\":8814:8820   */\n      dup3\n        /* \"#utility.yul\":8803:8812   */\n      dup11\n        /* \"#utility.yul\":8799:8821   */\n      add\n        /* \"#utility.yul\":8768:8831   */\n      tag_362\n      jump\t// in\n    tag_440:\n        /* \"#utility.yul\":8758:8831   */\n      swap7\n      pop\n        /* \"#utility.yul\":8554:8841   */\n      pop\n        /* \"#utility.yul\":8908:8910   */\n      0x20\n        /* \"#utility.yul\":8897:8906   */\n      dup8\n        /* \"#utility.yul\":8893:8911   */\n      add\n        /* \"#utility.yul\":8880:8912   */\n      calldataload\n        /* \"#utility.yul\":8939:8957   */\n      0xffffffffffffffff\n        /* \"#utility.yul\":8931:8937   */\n      dup2\n        /* \"#utility.yul\":8928:8958   */\n      gt\n        /* \"#utility.yul\":8925:9042   */\n      iszero\n      tag_441\n      jumpi\n        /* \"#utility.yul\":8961:9040   */\n      tag_442\n      tag_380\n      jump\t// in\n    tag_442:\n        /* \"#utility.yul\":8925:9042   */\n    tag_441:\n        /* \"#utility.yul\":9066:9129   */\n      tag_443\n        /* \"#utility.yul\":9121:9128   */\n      dup10\n        /* \"#utility.yul\":9112:9118   */\n      dup3\n        /* \"#utility.yul\":9101:9110   */\n      dup11\n        /* \"#utility.yul\":9097:9119   */\n      add\n        /* \"#utility.yul\":9066:9129   */\n      tag_362\n      jump\t// in\n    tag_443:\n        /* \"#utility.yul\":9056:9129   */\n      swap6\n      pop\n        /* \"#utility.yul\":8851:9139   */\n      pop\n        /* \"#utility.yul\":9178:9180   */\n      0x40\n        /* \"#utility.yul\":9204:9257   */\n      tag_444\n        /* \"#utility.yul\":9249:9256   */\n      dup10\n        /* \"#utility.yul\":9240:9246   */\n      dup3\n        /* \"#utility.yul\":9229:9238   */\n      dup11\n        /* \"#utility.yul\":9225:9247   */\n      add\n        /* \"#utility.yul\":9204:9257   */\n      tag_367\n      jump\t// in\n    tag_444:\n        /* \"#utility.yul\":9194:9257   */\n      swap5\n      pop\n        /* \"#utility.yul\":9149:9267   */\n      pop\n        /* \"#utility.yul\":9306:9308   */\n      0x60\n        /* \"#utility.yul\":9332:9385   */\n      tag_445\n        /* \"#utility.yul\":9377:9384   */\n      dup10\n        /* \"#utility.yul\":9368:9374   */\n      dup3\n        /* \"#utility.yul\":9357:9366   */\n      dup11\n        /* \"#utility.yul\":9353:9375   */\n      add\n        /* \"#utility.yul\":9332:9385   */\n      tag_367\n      jump\t// in\n    tag_445:\n        /* \"#utility.yul\":9322:9385   */\n      swap4\n      pop\n        /* \"#utility.yul\":9277:9395   */\n      pop\n        /* \"#utility.yul\":9434:9437   */\n      0x80\n        /* \"#utility.yul\":9461:9514   */\n      tag_446\n        /* \"#utility.yul\":9506:9513   */\n      dup10\n        /* \"#utility.yul\":9497:9503   */\n      dup3\n        /* \"#utility.yul\":9486:9495   */\n      dup11\n        /* \"#utility.yul\":9482:9504   */\n      add\n        /* \"#utility.yul\":9461:9514   */\n      tag_367\n      jump\t// in\n    tag_446:\n        /* \"#utility.yul\":9451:9514   */\n      swap3\n      pop\n        /* \"#utility.yul\":9405:9524   */\n      pop\n        /* \"#utility.yul\":9563:9566   */\n      0xa0\n        /* \"#utility.yul\":9590:9643   */\n      tag_447\n        /* \"#utility.yul\":9635:9642   */\n      dup10\n        /* \"#utility.yul\":9626:9632   */\n      dup3\n        /* \"#utility.yul\":9615:9624   */\n      dup11\n        /* \"#utility.yul\":9611:9633   */\n      add\n        /* \"#utility.yul\":9590:9643   */\n      tag_367\n      jump\t// in\n    tag_447:\n        /* \"#utility.yul\":9580:9643   */\n      swap2\n      pop\n        /* \"#utility.yul\":9534:9653   */\n      pop\n        /* \"#utility.yul\":8243:9660   */\n      swap3\n      swap6\n      pop\n      swap3\n      swap6\n      pop\n      swap3\n      swap6\n      jump\t// out\n        /* \"#utility.yul\":9666:11229   */\n    tag_94:\n        /* \"#utility.yul\":9799:9805   */\n      0x00\n        /* \"#utility.yul\":9807:9813   */\n      dup1\n        /* \"#utility.yul\":9815:9821   */\n      0x00\n        /* \"#utility.yul\":9823:9829   */\n      dup1\n        /* \"#utility.yul\":9831:9837   */\n      0x00\n        /* \"#utility.yul\":9839:9845   */\n      dup1\n        /* \"#utility.yul\":9847:9853   */\n      0x00\n        /* \"#utility.yul\":9896:9899   */\n      0xe0\n        /* \"#utility.yul\":9884:9893   */\n      dup9\n        /* \"#utility.yul\":9875:9882   */\n      dup11\n        /* \"#utility.yul\":9871:9894   */\n      sub\n        /* \"#utility.yul\":9867:9900   */\n      slt\n        /* \"#utility.yul\":9864:9984   */\n      iszero\n      tag_449\n      jumpi\n        /* \"#utility.yul\":9903:9982   */\n      tag_450\n      tag_376\n      jump\t// in\n    tag_450:\n        /* \"#utility.yul\":9864:9984   */\n    tag_449:\n        /* \"#utility.yul\":10051:10052   */\n      0x00\n        /* \"#utility.yul\":10040:10049   */\n      dup9\n        /* \"#utility.yul\":10036:10053   */\n      add\n        /* \"#utility.yul\":10023:10054   */\n      calldataload\n        /* \"#utility.yul\":10081:10099   */\n      0xffffffffffffffff\n        /* \"#utility.yul\":10073:10079   */\n      dup2\n        /* \"#utility.yul\":10070:10100   */\n      gt\n        /* \"#utility.yul\":10067:10184   */\n      iszero\n      tag_451\n      jumpi\n        /* \"#utility.yul\":10103:10182   */\n      tag_452\n      tag_380\n      jump\t// in\n    tag_452:\n        /* \"#utility.yul\":10067:10184   */\n    tag_451:\n        /* \"#utility.yul\":10208:10271   */\n      tag_453\n        /* \"#utility.yul\":10263:10270   */\n      dup11\n        /* \"#utility.yul\":10254:10260   */\n      dup3\n        /* \"#utility.yul\":10243:10252   */\n      dup12\n        /* \"#utility.yul\":10239:10261   */\n      add\n        /* \"#utility.yul\":10208:10271   */\n      tag_362\n      jump\t// in\n    tag_453:\n        /* \"#utility.yul\":10198:10271   */\n      swap8\n      pop\n        /* \"#utility.yul\":9994:10281   */\n      pop\n        /* \"#utility.yul\":10348:10350   */\n      0x20\n        /* \"#utility.yul\":10337:10346   */\n      dup9\n        /* \"#utility.yul\":10333:10351   */\n      add\n        /* \"#utility.yul\":10320:10352   */\n      calldataload\n        /* \"#utility.yul\":10379:10397   */\n      0xffffffffffffffff\n        /* \"#utility.yul\":10371:10377   */\n      dup2\n        /* \"#utility.yul\":10368:10398   */\n      gt\n        /* \"#utility.yul\":10365:10482   */\n      iszero\n      tag_454\n      jumpi\n        /* \"#utility.yul\":10401:10480   */\n      tag_455\n      tag_380\n      jump\t// in\n    tag_455:\n        /* \"#utility.yul\":10365:10482   */\n    tag_454:\n        /* \"#utility.yul\":10506:10569   */\n      tag_456\n        /* \"#utility.yul\":10561:10568   */\n      dup11\n        /* \"#utility.yul\":10552:10558   */\n      dup3\n        /* \"#utility.yul\":10541:10550   */\n      dup12\n        /* \"#utility.yul\":10537:10559   */\n      add\n        /* \"#utility.yul\":10506:10569   */\n      tag_362\n      jump\t// in\n    tag_456:\n        /* \"#utility.yul\":10496:10569   */\n      swap7\n      pop\n        /* \"#utility.yul\":10291:10579   */\n      pop\n        /* \"#utility.yul\":10618:10620   */\n      0x40\n        /* \"#utility.yul\":10644:10697   */\n      tag_457\n        /* \"#utility.yul\":10689:10696   */\n      dup11\n        /* \"#utility.yul\":10680:10686   */\n      dup3\n        /* \"#utility.yul\":10669:10678   */\n      dup12\n        /* \"#utility.yul\":10665:10687   */\n      add\n        /* \"#utility.yul\":10644:10697   */\n      tag_367\n      jump\t// in\n    tag_457:\n        /* \"#utility.yul\":10634:10697   */\n      swap6\n      pop\n        /* \"#utility.yul\":10589:10707   */\n      pop\n        /* \"#utility.yul\":10746:10748   */\n      0x60\n        /* \"#utility.yul\":10772:10825   */\n      tag_458\n        /* \"#utility.yul\":10817:10824   */\n      dup11\n        /* \"#utility.yul\":10808:10814   */\n      dup3\n        /* \"#utility.yul\":10797:10806   */\n      dup12\n        /* \"#utility.yul\":10793:10815   */\n      add\n        /* \"#utility.yul\":10772:10825   */\n      tag_367\n      jump\t// in\n    tag_458:\n        /* \"#utility.yul\":10762:10825   */\n      swap5\n      pop\n        /* \"#utility.yul\":10717:10835   */\n      pop\n        /* \"#utility.yul\":10874:10877   */\n      0x80\n        /* \"#utility.yul\":10901:10954   */\n      tag_459\n        /* \"#utility.yul\":10946:10953   */\n      dup11\n        /* \"#utility.yul\":10937:10943   */\n      dup3\n        /* \"#utility.yul\":10926:10935   */\n      dup12\n        /* \"#utility.yul\":10922:10944   */\n      add\n        /* \"#utility.yul\":10901:10954   */\n      tag_367\n      jump\t// in\n    tag_459:\n        /* \"#utility.yul\":10891:10954   */\n      swap4\n      pop\n        /* \"#utility.yul\":10845:10964   */\n      pop\n        /* \"#utility.yul\":11003:11006   */\n      0xa0\n        /* \"#utility.yul\":11030:11083   */\n      tag_460\n        /* \"#utility.yul\":11075:11082   */\n      dup11\n        /* \"#utility.yul\":11066:11072   */\n      dup3\n        /* \"#utility.yul\":11055:11064   */\n      dup12\n        /* \"#utility.yul\":11051:11073   */\n      add\n        /* \"#utility.yul\":11030:11083   */\n      tag_367\n      jump\t// in\n    tag_460:\n        /* \"#utility.yul\":11020:11083   */\n      swap3\n      pop\n        /* \"#utility.yul\":10974:11093   */\n      pop\n        /* \"#utility.yul\":11132:11135   */\n      0xc0\n        /* \"#utility.yul\":11159:11212   */\n      tag_461\n        /* \"#utility.yul\":11204:11211   */\n      dup11\n        /* \"#utility.yul\":11195:11201   */\n      dup3\n        /* \"#utility.yul\":11184:11193   */\n      dup12\n        /* \"#utility.yul\":11180:11202   */\n      add\n        /* \"#utility.yul\":11159:11212   */\n      tag_367\n      jump\t// in\n    tag_461:\n        /* \"#utility.yul\":11149:11212   */\n      swap2\n      pop\n        /* \"#utility.yul\":11103:11222   */\n      pop\n        /* \"#utility.yul\":9666:11229   */\n      swap3\n      swap6\n      swap9\n      swap2\n      swap5\n      swap8\n      pop\n      swap3\n      swap6\n      pop\n      jump\t// out\n        /* \"#utility.yul\":11235:11889   */\n    tag_62:\n        /* \"#utility.yul\":11313:11319   */\n      0x00\n        /* \"#utility.yul\":11321:11327   */\n      dup1\n        /* \"#utility.yul\":11370:11372   */\n      0x40\n        /* \"#utility.yul\":11358:11367   */\n      dup4\n        /* \"#utility.yul\":11349:11356   */\n      dup6\n        /* \"#utility.yul\":11345:11368   */\n      sub\n        /* \"#utility.yul\":11341:11373   */\n      slt\n        /* \"#utility.yul\":11338:11457   */\n      iszero\n      tag_463\n      jumpi\n        /* \"#utility.yul\":11376:11455   */\n      tag_464\n      tag_376\n      jump\t// in\n    tag_464:\n        /* \"#utility.yul\":11338:11457   */\n    tag_463:\n        /* \"#utility.yul\":11524:11525   */\n      0x00\n        /* \"#utility.yul\":11513:11522   */\n      dup4\n        /* \"#utility.yul\":11509:11526   */\n      add\n        /* \"#utility.yul\":11496:11527   */\n      calldataload\n        /* \"#utility.yul\":11554:11572   */\n      0xffffffffffffffff\n        /* \"#utility.yul\":11546:11552   */\n      dup2\n        /* \"#utility.yul\":11543:11573   */\n      gt\n        /* \"#utility.yul\":11540:11657   */\n      iszero\n      tag_465\n      jumpi\n        /* \"#utility.yul\":11576:11655   */\n      tag_466\n      tag_380\n      jump\t// in\n    tag_466:\n        /* \"#utility.yul\":11540:11657   */\n    tag_465:\n        /* \"#utility.yul\":11681:11744   */\n      tag_467\n        /* \"#utility.yul\":11736:11743   */\n      dup6\n        /* \"#utility.yul\":11727:11733   */\n      dup3\n        /* \"#utility.yul\":11716:11725   */\n      dup7\n        /* \"#utility.yul\":11712:11734   */\n      add\n        /* \"#utility.yul\":11681:11744   */\n      tag_362\n      jump\t// in\n    tag_467:\n        /* \"#utility.yul\":11671:11744   */\n      swap3\n      pop\n        /* \"#utility.yul\":11467:11754   */\n      pop\n        /* \"#utility.yul\":11793:11795   */\n      0x20\n        /* \"#utility.yul\":11819:11872   */\n      tag_468\n        /* \"#utility.yul\":11864:11871   */\n      dup6\n        /* \"#utility.yul\":11855:11861   */\n      dup3\n        /* \"#utility.yul\":11844:11853   */\n      dup7\n        /* \"#utility.yul\":11840:11862   */\n      add\n        /* \"#utility.yul\":11819:11872   */\n      tag_367\n      jump\t// in\n    tag_468:\n        /* \"#utility.yul\":11809:11872   */\n      swap2\n      pop\n        /* \"#utility.yul\":11764:11882   */\n      pop\n        /* \"#utility.yul\":11235:11889   */\n      swap3\n      pop\n      swap3\n      swap1\n      pop\n      jump\t// out\n        /* \"#utility.yul\":11895:12246   */\n    tag_106:\n        /* \"#utility.yul\":11965:11971   */\n      0x00\n        /* \"#utility.yul\":12014:12016   */\n      0x20\n        /* \"#utility.yul\":12002:12011   */\n      dup3\n        /* \"#utility.yul\":11993:12000   */\n      dup5\n        /* \"#utility.yul\":11989:12012   */\n      sub\n        /* \"#utility.yul\":11985:12017   */\n      slt\n        /* \"#utility.yul\":11982:12101   */\n      iszero\n      tag_470\n      jumpi\n        /* \"#utility.yul\":12020:12099   */\n      tag_471\n      tag_376\n      jump\t// in\n    tag_471:\n        /* \"#utility.yul\":11982:12101   */\n    tag_470:\n        /* \"#utility.yul\":12140:12141   */\n      0x00\n        /* \"#utility.yul\":12165:12229   */\n      tag_472\n        /* \"#utility.yul\":12221:12228   */\n      dup5\n        /* \"#utility.yul\":12212:12218   */\n      dup3\n        /* \"#utility.yul\":12201:12210   */\n      dup6\n        /* \"#utility.yul\":12197:12219   */\n      add\n        /* \"#utility.yul\":12165:12229   */\n      tag_337\n      jump\t// in\n    tag_472:\n        /* \"#utility.yul\":12155:12229   */\n      swap2\n      pop\n        /* \"#utility.yul\":12111:12239   */\n      pop\n        /* \"#utility.yul\":11895:12246   */\n      swap3\n      swap2\n      pop\n      pop\n      jump\t// out\n        /* \"#utility.yul\":12252:13231   */\n    tag_32:\n        /* \"#utility.yul\":12349:12355   */\n      0x00\n        /* \"#utility.yul\":12357:12363   */\n      dup1\n        /* \"#utility.yul\":12365:12371   */\n      0x00\n        /* \"#utility.yul\":12414:12416   */\n      0x60\n        /* \"#utility.yul\":12402:12411   */\n      dup5\n        /* \"#utility.yul\":12393:12400   */\n      dup7\n        /* \"#utility.yul\":12389:12412   */\n      sub\n        /* \"#utility.yul\":12385:12417   */\n      slt\n        /* \"#utility.yul\":12382:12501   */\n      iszero\n      tag_474\n      jumpi\n        /* \"#utility.yul\":12420:12499   */\n      tag_475\n      tag_376\n      jump\t// in\n    tag_475:\n        /* \"#utility.yul\":12382:12501   */\n    tag_474:\n        /* \"#utility.yul\":12540:12541   */\n      0x00\n        /* \"#utility.yul\":12565:12618   */\n      tag_476\n        /* \"#utility.yul\":12610:12617   */\n      dup7\n        /* \"#utility.yul\":12601:12607   */\n      dup3\n        /* \"#utility.yul\":12590:12599   */\n      dup8\n        /* \"#utility.yul\":12586:12608   */\n      add\n        /* \"#utility.yul\":12565:12618   */\n      tag_367\n      jump\t// in\n    tag_476:\n        /* \"#utility.yul\":12555:12618   */\n      swap4\n      pop\n        /* \"#utility.yul\":12511:12628   */\n      pop\n        /* \"#utility.yul\":12695:12697   */\n      0x20\n        /* \"#utility.yul\":12684:12693   */\n      dup5\n        /* \"#utility.yul\":12680:12698   */\n      add\n        /* \"#utility.yul\":12667:12699   */\n      calldataload\n        /* \"#utility.yul\":12726:12744   */\n      0xffffffffffffffff\n        /* \"#utility.yul\":12718:12724   */\n      dup2\n        /* \"#utility.yul\":12715:12745   */\n      gt\n        /* \"#utility.yul\":12712:12829   */\n      iszero\n      tag_477\n      jumpi\n        /* \"#utility.yul\":12748:12827   */\n      tag_478\n      tag_380\n      jump\t// in\n    tag_478:\n        /* \"#utility.yul\":12712:12829   */\n    tag_477:\n        /* \"#utility.yul\":12853:12916   */\n      tag_479\n        /* \"#utility.yul\":12908:12915   */\n      dup7\n        /* \"#utility.yul\":12899:12905   */\n      dup3\n        /* \"#utility.yul\":12888:12897   */\n      dup8\n        /* \"#utility.yul\":12884:12906   */\n      add\n        /* \"#utility.yul\":12853:12916   */\n      tag_362\n      jump\t// in\n    tag_479:\n        /* \"#utility.yul\":12843:12916   */\n      swap3\n      pop\n        /* \"#utility.yul\":12638:12926   */\n      pop\n        /* \"#utility.yul\":12993:12995   */\n      0x40\n        /* \"#utility.yul\":12982:12991   */\n      dup5\n        /* \"#utility.yul\":12978:12996   */\n      add\n        /* \"#utility.yul\":12965:12997   */\n      calldataload\n        /* \"#utility.yul\":13024:13042   */\n      0xffffffffffffffff\n        /* \"#utility.yul\":13016:13022   */\n      dup2\n        /* \"#utility.yul\":13013:13043   */\n      gt\n        /* \"#utility.yul\":13010:13127   */\n      iszero\n      tag_480\n      jumpi\n        /* \"#utility.yul\":13046:13125   */\n      tag_481\n      tag_380\n      jump\t// in\n    tag_481:\n        /* \"#utility.yul\":13010:13127   */\n    tag_480:\n        /* \"#utility.yul\":13151:13214   */\n      tag_482\n        /* \"#utility.yul\":13206:13213   */\n      dup7\n        /* \"#utility.yul\":13197:13203   */\n      dup3\n        /* \"#utility.yul\":13186:13195   */\n      dup8\n        /* \"#utility.yul\":13182:13204   */\n      add\n        /* \"#utility.yul\":13151:13214   */\n      tag_362\n      jump\t// in\n    tag_482:\n        /* \"#utility.yul\":13141:13214   */\n      swap2\n      pop\n        /* \"#utility.yul\":12936:13224   */\n      pop\n        /* \"#utility.yul\":12252:13231   */\n      swap3\n      pop\n      swap3\n      pop\n      swap3\n      jump\t// out\n        /* \"#utility.yul\":13237:13744   */\n    tag_189:\n        /* \"#utility.yul\":13316:13322   */\n      0x00\n        /* \"#utility.yul\":13324:13330   */\n      dup1\n        /* \"#utility.yul\":13373:13375   */\n      0x40\n        /* \"#utility.yul\":13361:13370   */\n      dup4\n        /* \"#utility.yul\":13352:13359   */\n      dup6\n        /* \"#utility.yul\":13348:13371   */\n      sub\n        /* \"#utility.yul\":13344:13376   */\n      slt\n        /* \"#utility.yul\":13341:13460   */\n      iszero\n      tag_484\n      jumpi\n        /* \"#utility.yul\":13379:13458   */\n      tag_485\n      tag_376\n      jump\t// in\n    tag_485:\n        /* \"#utility.yul\":13341:13460   */\n    tag_484:\n        /* \"#utility.yul\":13499:13500   */\n      0x00\n        /* \"#utility.yul\":13524:13588   */\n      tag_486\n        /* \"#utility.yul\":13580:13587   */\n      dup6\n        /* \"#utility.yul\":13571:13577   */\n      dup3\n        /* \"#utility.yul\":13560:13569   */\n      dup7\n        /* \"#utility.yul\":13556:13578   */\n      add\n        /* \"#utility.yul\":13524:13588   */\n      tag_337\n      jump\t// in\n    tag_486:\n        /* \"#utility.yul\":13514:13588   */\n      swap3\n      pop\n        /* \"#utility.yul\":13470:13598   */\n      pop\n        /* \"#utility.yul\":13637:13639   */\n      0x20\n        /* \"#utility.yul\":13663:13727   */\n      tag_487\n        /* \"#utility.yul\":13719:13726   */\n      dup6\n        /* \"#utility.yul\":13710:13716   */\n      dup3\n        /* \"#utility.yul\":13699:13708   */\n      dup7\n        /* \"#utility.yul\":13695:13717   */\n      add\n        /* \"#utility.yul\":13663:13727   */\n      tag_337\n      jump\t// in\n    tag_487:\n        /* \"#utility.yul\":13653:13727   */\n      swap2\n      pop\n        /* \"#utility.yul\":13608:13737   */\n      pop\n        /* \"#utility.yul\":13237:13744   */\n      swap3\n      pop\n      swap3\n      swap1\n      pop\n      jump\t// out\n        /* \"#utility.yul\":13750:15021   */\n    tag_89:\n        /* \"#utility.yul\":13865:13871   */\n      0x00\n        /* \"#utility.yul\":13873:13879   */\n      dup1\n        /* \"#utility.yul\":13881:13887   */\n      0x00\n        /* \"#utility.yul\":13889:13895   */\n      dup1\n        /* \"#utility.yul\":13897:13903   */\n      0x00\n        /* \"#utility.yul\":13946:13949   */\n      0xa0\n        /* \"#utility.yul\":13934:13943   */\n      dup7\n        /* \"#utility.yul\":13925:13932   */\n      dup9\n        /* \"#utility.yul\":13921:13944   */\n      sub\n        /* \"#utility.yul\":13917:13950   */\n      slt\n        /* \"#utility.yul\":13914:14034   */\n      iszero\n      tag_489\n      jumpi\n        /* \"#utility.yul\":13953:14032   */\n      tag_490\n      tag_376\n      jump\t// in\n    tag_490:\n        /* \"#utility.yul\":13914:14034   */\n    tag_489:\n        /* \"#utility.yul\":14073:14074   */\n      0x00\n        /* \"#utility.yul\":14098:14151   */\n      tag_491\n        /* \"#utility.yul\":14143:14150   */\n      dup9\n        /* \"#utility.yul\":14134:14140   */\n      dup3\n        /* \"#utility.yul\":14123:14132   */\n      dup10\n        /* \"#utility.yul\":14119:14141   */\n      add\n        /* \"#utility.yul\":14098:14151   */\n      tag_367\n      jump\t// in\n    tag_491:\n        /* \"#utility.yul\":14088:14151   */\n      swap6\n      pop\n        /* \"#utility.yul\":14044:14161   */\n      pop\n        /* \"#utility.yul\":14200:14202   */\n      0x20\n        /* \"#utility.yul\":14226:14279   */\n      tag_492\n        /* \"#utility.yul\":14271:14278   */\n      dup9\n        /* \"#utility.yul\":14262:14268   */\n      dup3\n        /* \"#utility.yul\":14251:14260   */\n      dup10\n        /* \"#utility.yul\":14247:14269   */\n      add\n        /* \"#utility.yul\":14226:14279   */\n      tag_367\n      jump\t// in\n    tag_492:\n        /* \"#utility.yul\":14216:14279   */\n      swap5\n      pop\n        /* \"#utility.yul\":14171:14289   */\n      pop\n        /* \"#utility.yul\":14356:14358   */\n      0x40\n        /* \"#utility.yul\":14345:14354   */\n      dup7\n        /* \"#utility.yul\":14341:14359   */\n      add\n        /* \"#utility.yul\":14328:14360   */\n      calldataload\n        /* \"#utility.yul\":14387:14405   */\n      0xffffffffffffffff\n        /* \"#utility.yul\":14379:14385   */\n      dup2\n        /* \"#utility.yul\":14376:14406   */\n      gt\n        /* \"#utility.yul\":14373:14490   */\n      iszero\n      tag_493\n      jumpi\n        /* \"#utility.yul\":14409:14488   */\n      tag_494\n      tag_380\n      jump\t// in\n    tag_494:\n        /* \"#utility.yul\":14373:14490   */\n    tag_493:\n        /* \"#utility.yul\":14514:14577   */\n      tag_495\n        /* \"#utility.yul\":14569:14576   */\n      dup9\n        /* \"#utility.yul\":14560:14566   */\n      dup3\n        /* \"#utility.yul\":14549:14558   */\n      dup10\n        /* \"#utility.yul\":14545:14567   */\n      add\n        /* \"#utility.yul\":14514:14577   */\n      tag_362\n      jump\t// in\n    tag_495:\n        /* \"#utility.yul\":14504:14577   */\n      swap4\n      pop\n        /* \"#utility.yul\":14299:14587   */\n      pop\n        /* \"#utility.yul\":14654:14656   */\n      0x60\n        /* \"#utility.yul\":14643:14652   */\n      dup7\n        /* \"#utility.yul\":14639:14657   */\n      add\n        /* \"#utility.yul\":14626:14658   */\n      calldataload\n        /* \"#utility.yul\":14685:14703   */\n      0xffffffffffffffff\n        /* \"#utility.yul\":14677:14683   */\n      dup2\n        /* \"#utility.yul\":14674:14704   */\n      gt\n        /* \"#utility.yul\":14671:14788   */\n      iszero\n      tag_496\n      jumpi\n        /* \"#utility.yul\":14707:14786   */\n      tag_497\n      tag_380\n      jump\t// in\n    tag_497:\n        /* \"#utility.yul\":14671:14788   */\n    tag_496:\n        /* \"#utility.yul\":14812:14875   */\n      tag_498\n        /* \"#utility.yul\":14867:14874   */\n      dup9\n        /* \"#utility.yul\":14858:14864   */\n      dup3\n        /* \"#utility.yul\":14847:14856   */\n      dup10\n        /* \"#utility.yul\":14843:14865   */\n      add\n        /* \"#utility.yul\":14812:14875   */\n      tag_362\n      jump\t// in\n    tag_498:\n        /* \"#utility.yul\":14802:14875   */\n      swap3\n      pop\n        /* \"#utility.yul\":14597:14885   */\n      pop\n        /* \"#utility.yul\":14924:14927   */\n      0x80\n        /* \"#utility.yul\":14951:15004   */\n      tag_499\n        /* \"#utility.yul\":14996:15003   */\n      dup9\n        /* \"#utility.yul\":14987:14993   */\n      dup3\n        /* \"#utility.yul\":14976:14985   */\n      dup10\n        /* \"#utility.yul\":14972:14994   */\n      add\n        /* \"#utility.yul\":14951:15004   */\n      tag_367\n      jump\t// in\n    tag_499:\n        /* \"#utility.yul\":14941:15004   */\n      swap2\n      pop\n        /* \"#utility.yul\":14895:15014   */\n      pop\n        /* \"#utility.yul\":13750:15021   */\n      swap3\n      swap6\n      pop\n      swap3\n      swap6\n      swap1\n      swap4\n      pop\n      jump\t// out\n        /* \"#utility.yul\":15027:15690   */\n    tag_303:\n        /* \"#utility.yul\":15115:15121   */\n      0x00\n        /* \"#utility.yul\":15123:15129   */\n      dup1\n        /* \"#utility.yul\":15131:15137   */\n      0x00\n        /* \"#utility.yul\":15180:15182   */\n      0x60\n        /* \"#utility.yul\":15168:15177   */\n      dup5\n        /* \"#utility.yul\":15159:15166   */\n      dup7\n        /* \"#utility.yul\":15155:15178   */\n      sub\n        /* \"#utility.yul\":15151:15183   */\n      slt\n        /* \"#utility.yul\":15148:15267   */\n      iszero\n      tag_501\n      jumpi\n        /* \"#utility.yul\":15186:15265   */\n      tag_502\n      tag_376\n      jump\t// in\n    tag_502:\n        /* \"#utility.yul\":15148:15267   */\n    tag_501:\n        /* \"#utility.yul\":15306:15307   */\n      0x00\n        /* \"#utility.yul\":15331:15395   */\n      tag_503\n        /* \"#utility.yul\":15387:15394   */\n      dup7\n        /* \"#utility.yul\":15378:15384   */\n      dup3\n        /* \"#utility.yul\":15367:15376   */\n      dup8\n        /* \"#utility.yul\":15363:15385   */\n      add\n        /* \"#utility.yul\":15331:15395   */\n      tag_337\n      jump\t// in\n    tag_503:\n        /* \"#utility.yul\":15321:15395   */\n      swap4\n      pop\n        /* \"#utility.yul\":15277:15405   */\n      pop\n        /* \"#utility.yul\":15444:15446   */\n      0x20\n        /* \"#utility.yul\":15470:15534   */\n      tag_504\n        /* \"#utility.yul\":15526:15533   */\n      dup7\n        /* \"#utility.yul\":15517:15523   */\n      dup3\n        /* \"#utility.yul\":15506:15515   */\n      dup8\n        /* \"#utility.yul\":15502:15524   */\n      add\n        /* \"#utility.yul\":15470:15534   */\n      tag_337\n      jump\t// in\n    tag_504:\n        /* \"#utility.yul\":15460:15534   */\n      swap3\n      pop\n        /* \"#utility.yul\":15415:15544   */\n      pop\n        /* \"#utility.yul\":15583:15585   */\n      0x40\n        /* \"#utility.yul\":15609:15673   */\n      tag_505\n        /* \"#utility.yul\":15665:15672   */\n      dup7\n        /* \"#utility.yul\":15656:15662   */\n      dup3\n        /* \"#utility.yul\":15645:15654   */\n      dup8\n        /* \"#utility.yul\":15641:15663   */\n      add\n        /* \"#utility.yul\":15609:15673   */\n      tag_337\n      jump\t// in\n    tag_505:\n        /* \"#utility.yul\":15599:15673   */\n      swap2\n      pop\n        /* \"#utility.yul\":15554:15683   */\n      pop\n        /* \"#utility.yul\":15027:15690   */\n      swap3\n      pop\n      swap3\n      pop\n      swap3\n      jump\t// out\n        /* \"#utility.yul\":15696:15875   */\n    tag_506:\n        /* \"#utility.yul\":15765:15775   */\n      0x00\n        /* \"#utility.yul\":15786:15832   */\n      tag_508\n        /* \"#utility.yul\":15828:15831   */\n      dup4\n        /* \"#utility.yul\":15820:15826   */\n      dup4\n        /* \"#utility.yul\":15786:15832   */\n      tag_509\n      jump\t// in\n    tag_508:\n        /* \"#utility.yul\":15864:15868   */\n      0x20\n        /* \"#utility.yul\":15859:15862   */\n      dup4\n        /* \"#utility.yul\":15855:15869   */\n      add\n        /* \"#utility.yul\":15841:15869   */\n      swap1\n      pop\n        /* \"#utility.yul\":15696:15875   */\n      swap3\n      swap2\n      pop\n      pop\n      jump\t// out\n        /* \"#utility.yul\":15881:15989   */\n    tag_509:\n        /* \"#utility.yul\":15958:15982   */\n      tag_511\n        /* \"#utility.yul\":15976:15981   */\n      dup2\n        /* \"#utility.yul\":15958:15982   */\n      tag_512\n      jump\t// in\n    tag_511:\n        /* \"#utility.yul\":15953:15956   */\n      dup3\n        /* \"#utility.yul\":15946:15983   */\n      mstore\n        /* \"#utility.yul\":15881:15989   */\n      pop\n      pop\n      jump\t// out\n        /* \"#utility.yul\":15995:16113   */\n    tag_513:\n        /* \"#utility.yul\":16082:16106   */\n      tag_515\n        /* \"#utility.yul\":16100:16105   */\n      dup2\n        /* \"#utility.yul\":16082:16106   */\n      tag_512\n      jump\t// in\n    tag_515:\n        /* \"#utility.yul\":16077:16080   */\n      dup3\n        /* \"#utility.yul\":16070:16107   */\n      mstore\n        /* \"#utility.yul\":15995:16113   */\n      pop\n      pop\n      jump\t// out\n        /* \"#utility.yul\":16149:16881   */\n    tag_516:\n        /* \"#utility.yul\":16268:16271   */\n      0x00\n        /* \"#utility.yul\":16297:16351   */\n      tag_518\n        /* \"#utility.yul\":16345:16350   */\n      dup3\n        /* \"#utility.yul\":16297:16351   */\n      tag_519\n      jump\t// in\n    tag_518:\n        /* \"#utility.yul\":16367:16453   */\n      tag_520\n        /* \"#utility.yul\":16446:16452   */\n      dup2\n        /* \"#utility.yul\":16441:16444   */\n      dup6\n        /* \"#utility.yul\":16367:16453   */\n      tag_521\n      jump\t// in\n    tag_520:\n        /* \"#utility.yul\":16360:16453   */\n      swap4\n      pop\n        /* \"#utility.yul\":16477:16533   */\n      tag_522\n        /* \"#utility.yul\":16527:16532   */\n      dup4\n        /* \"#utility.yul\":16477:16533   */\n      tag_523\n      jump\t// in\n    tag_522:\n        /* \"#utility.yul\":16556:16563   */\n      dup1\n        /* \"#utility.yul\":16587:16588   */\n      0x00\n        /* \"#utility.yul\":16572:16856   */\n    tag_524:\n        /* \"#utility.yul\":16597:16603   */\n      dup4\n        /* \"#utility.yul\":16594:16595   */\n      dup2\n        /* \"#utility.yul\":16591:16604   */\n      lt\n        /* \"#utility.yul\":16572:16856   */\n      iszero\n      tag_526\n      jumpi\n        /* \"#utility.yul\":16673:16679   */\n      dup2\n        /* \"#utility.yul\":16667:16680   */\n      mload\n        /* \"#utility.yul\":16700:16763   */\n      tag_527\n        /* \"#utility.yul\":16759:16762   */\n      dup9\n        /* \"#utility.yul\":16744:16757   */\n      dup3\n        /* \"#utility.yul\":16700:16763   */\n      tag_506\n      jump\t// in\n    tag_527:\n        /* \"#utility.yul\":16693:16763   */\n      swap8\n      pop\n        /* \"#utility.yul\":16786:16846   */\n      tag_528\n        /* \"#utility.yul\":16839:16845   */\n      dup4\n        /* \"#utility.yul\":16786:16846   */\n      tag_529\n      jump\t// in\n    tag_528:\n        /* \"#utility.yul\":16776:16846   */\n      swap3\n      pop\n        /* \"#utility.yul\":16632:16856   */\n      pop\n        /* \"#utility.yul\":16619:16620   */\n      0x01\n        /* \"#utility.yul\":16616:16617   */\n      dup2\n        /* \"#utility.yul\":16612:16621   */\n      add\n        /* \"#utility.yul\":16607:16621   */\n      swap1\n      pop\n        /* \"#utility.yul\":16572:16856   */\n      jump(tag_524)\n    tag_526:\n        /* \"#utility.yul\":16576:16590   */\n      pop\n        /* \"#utility.yul\":16872:16875   */\n      dup6\n        /* \"#utility.yul\":16865:16875   */\n      swap4\n      pop\n        /* \"#utility.yul\":16273:16881   */\n      pop\n      pop\n      pop\n        /* \"#utility.yul\":16149:16881   */\n      swap3\n      swap2\n      pop\n      pop\n      jump\t// out\n        /* \"#utility.yul\":16887:16996   */\n    tag_530:\n        /* \"#utility.yul\":16968:16989   */\n      tag_532\n        /* \"#utility.yul\":16983:16988   */\n      dup2\n        /* \"#utility.yul\":16968:16989   */\n      tag_533\n      jump\t// in\n    tag_532:\n        /* \"#utility.yul\":16963:16966   */\n      dup3\n        /* \"#utility.yul\":16956:16990   */\n      mstore\n        /* \"#utility.yul\":16887:16996   */\n      pop\n      pop\n      jump\t// out\n        /* \"#utility.yul\":17002:17362   */\n    tag_534:\n        /* \"#utility.yul\":17088:17091   */\n      0x00\n        /* \"#utility.yul\":17116:17154   */\n      tag_536\n        /* \"#utility.yul\":17148:17153   */\n      dup3\n        /* \"#utility.yul\":17116:17154   */\n      tag_537\n      jump\t// in\n    tag_536:\n        /* \"#utility.yul\":17170:17240   */\n      tag_538\n        /* \"#utility.yul\":17233:17239   */\n      dup2\n        /* \"#utility.yul\":17228:17231   */\n      dup6\n        /* \"#utility.yul\":17170:17240   */\n      tag_539\n      jump\t// in\n    tag_538:\n        /* \"#utility.yul\":17163:17240   */\n      swap4\n      pop\n        /* \"#utility.yul\":17249:17301   */\n      tag_540\n        /* \"#utility.yul\":17294:17300   */\n      dup2\n        /* \"#utility.yul\":17289:17292   */\n      dup6\n        /* \"#utility.yul\":17282:17286   */\n      0x20\n        /* \"#utility.yul\":17275:17280   */\n      dup7\n        /* \"#utility.yul\":17271:17287   */\n      add\n        /* \"#utility.yul\":17249:17301   */\n      tag_541\n      jump\t// in\n    tag_540:\n        /* \"#utility.yul\":17326:17355   */\n      tag_542\n        /* \"#utility.yul\":17348:17354   */\n      dup2\n        /* \"#utility.yul\":17326:17355   */\n      tag_543\n      jump\t// in\n    tag_542:\n        /* \"#utility.yul\":17321:17324   */\n      dup5\n        /* \"#utility.yul\":17317:17356   */\n      add\n        /* \"#utility.yul\":17310:17356   */\n      swap2\n      pop\n        /* \"#utility.yul\":17092:17362   */\n      pop\n        /* \"#utility.yul\":17002:17362   */\n      swap3\n      swap2\n      pop\n      pop\n      jump\t// out\n        /* \"#utility.yul\":17368:17741   */\n    tag_544:\n        /* \"#utility.yul\":17472:17475   */\n      0x00\n        /* \"#utility.yul\":17500:17538   */\n      tag_546\n        /* \"#utility.yul\":17532:17537   */\n      dup3\n        /* \"#utility.yul\":17500:17538   */\n      tag_537\n      jump\t// in\n    tag_546:\n        /* \"#utility.yul\":17554:17642   */\n      tag_547\n        /* \"#utility.yul\":17635:17641   */\n      dup2\n        /* \"#utility.yul\":17630:17633   */\n      dup6\n        /* \"#utility.yul\":17554:17642   */\n      tag_548\n      jump\t// in\n    tag_547:\n        /* \"#utility.yul\":17547:17642   */\n      swap4\n      pop\n        /* \"#utility.yul\":17651:17703   */\n      tag_549\n        /* \"#utility.yul\":17696:17702   */\n      dup2\n        /* \"#utility.yul\":17691:17694   */\n      dup6\n        /* \"#utility.yul\":17684:17688   */\n      0x20\n        /* \"#utility.yul\":17677:17682   */\n      dup7\n        /* \"#utility.yul\":17673:17689   */\n      add\n        /* \"#utility.yul\":17651:17703   */\n      tag_541\n      jump\t// in\n    tag_549:\n        /* \"#utility.yul\":17728:17734   */\n      dup1\n        /* \"#utility.yul\":17723:17726   */\n      dup5\n        /* \"#utility.yul\":17719:17735   */\n      add\n        /* \"#utility.yul\":17712:17735   */\n      swap2\n      pop\n        /* \"#utility.yul\":17476:17741   */\n      pop\n        /* \"#utility.yul\":17368:17741   */\n      swap3\n      swap2\n      pop\n      pop\n      jump\t// out\n        /* \"#utility.yul\":17747:18124   */\n    tag_550:\n        /* \"#utility.yul\":17853:17856   */\n      0x00\n        /* \"#utility.yul\":17881:17920   */\n      tag_552\n        /* \"#utility.yul\":17914:17919   */\n      dup3\n        /* \"#utility.yul\":17881:17920   */\n      tag_553\n      jump\t// in\n    tag_552:\n        /* \"#utility.yul\":17936:18025   */\n      tag_554\n        /* \"#utility.yul\":18018:18024   */\n      dup2\n        /* \"#utility.yul\":18013:18016   */\n      dup6\n        /* \"#utility.yul\":17936:18025   */\n      tag_555\n      jump\t// in\n    tag_554:\n        /* \"#utility.yul\":17929:18025   */\n      swap4\n      pop\n        /* \"#utility.yul\":18034:18086   */\n      tag_556\n        /* \"#utility.yul\":18079:18085   */\n      dup2\n        /* \"#utility.yul\":18074:18077   */\n      dup6\n        /* \"#utility.yul\":18067:18071   */\n      0x20\n        /* \"#utility.yul\":18060:18065   */\n      dup7\n        /* \"#utility.yul\":18056:18072   */\n      add\n        /* \"#utility.yul\":18034:18086   */\n      tag_541\n      jump\t// in\n    tag_556:\n        /* \"#utility.yul\":18111:18117   */\n      dup1\n        /* \"#utility.yul\":18106:18109   */\n      dup5\n        /* \"#utility.yul\":18102:18118   */\n      add\n        /* \"#utility.yul\":18095:18118   */\n      swap2\n      pop\n        /* \"#utility.yul\":17857:18124   */\n      pop\n        /* \"#utility.yul\":17747:18124   */\n      swap3\n      swap2\n      pop\n      pop\n      jump\t// out\n        /* \"#utility.yul\":18130:18496   */\n    tag_557:\n        /* \"#utility.yul\":18272:18275   */\n      0x00\n        /* \"#utility.yul\":18293:18360   */\n      tag_559\n        /* \"#utility.yul\":18357:18359   */\n      0x33\n        /* \"#utility.yul\":18352:18355   */\n      dup4\n        /* \"#utility.yul\":18293:18360   */\n      tag_560\n      jump\t// in\n    tag_559:\n        /* \"#utility.yul\":18286:18360   */\n      swap2\n      pop\n        /* \"#utility.yul\":18369:18462   */\n      tag_561\n        /* \"#utility.yul\":18458:18461   */\n      dup3\n        /* \"#utility.yul\":18369:18462   */\n      tag_562\n      jump\t// in\n    tag_561:\n        /* \"#utility.yul\":18487:18489   */\n      0x40\n        /* \"#utility.yul\":18482:18485   */\n      dup3\n        /* \"#utility.yul\":18478:18490   */\n      add\n        /* \"#utility.yul\":18471:18490   */\n      swap1\n      pop\n        /* \"#utility.yul\":18130:18496   */\n      swap2\n      swap1\n      pop\n      jump\t// out\n        /* \"#utility.yul\":18502:18868   */\n    tag_563:\n        /* \"#utility.yul\":18644:18647   */\n      0x00\n        /* \"#utility.yul\":18665:18732   */\n      tag_565\n        /* \"#utility.yul\":18729:18731   */\n      0x3a\n        /* \"#utility.yul\":18724:18727   */\n      dup4\n        /* \"#utility.yul\":18665:18732   */\n      tag_560\n      jump\t// in\n    tag_565:\n        /* \"#utility.yul\":18658:18732   */\n      swap2\n      pop\n        /* \"#utility.yul\":18741:18834   */\n      tag_566\n        /* \"#utility.yul\":18830:18833   */\n      dup3\n        /* \"#utility.yul\":18741:18834   */\n      tag_567\n      jump\t// in\n    tag_566:\n        /* \"#utility.yul\":18859:18861   */\n      0x40\n        /* \"#utility.yul\":18854:18857   */\n      dup3\n        /* \"#utility.yul\":18850:18862   */\n      add\n        /* \"#utility.yul\":18843:18862   */\n      swap1\n      pop\n        /* \"#utility.yul\":18502:18868   */\n      swap2\n      swap1\n      pop\n      jump\t// out\n        /* \"#utility.yul\":18874:19240   */\n    tag_568:\n        /* \"#utility.yul\":19016:19019   */\n      0x00\n        /* \"#utility.yul\":19037:19104   */\n      tag_570\n        /* \"#utility.yul\":19101:19103   */\n      0x38\n        /* \"#utility.yul\":19096:19099   */\n      dup4\n        /* \"#utility.yul\":19037:19104   */\n      tag_560\n      jump\t// in\n    tag_570:\n        /* \"#utility.yul\":19030:19104   */\n      swap2\n      pop\n        /* \"#utility.yul\":19113:19206   */\n      tag_571\n        /* \"#utility.yul\":19202:19205   */\n      dup3\n        /* \"#utility.yul\":19113:19206   */\n      tag_572\n      jump\t// in\n    tag_571:\n        /* \"#utility.yul\":19231:19233   */\n      0x40\n        /* \"#utility.yul\":19226:19229   */\n      dup3\n        /* \"#utility.yul\":19222:19234   */\n      add\n        /* \"#utility.yul\":19215:19234   */\n      swap1\n      pop\n        /* \"#utility.yul\":18874:19240   */\n      swap2\n      swap1\n      pop\n      jump\t// out\n        /* \"#utility.yul\":19246:19646   */\n    tag_573:\n        /* \"#utility.yul\":19406:19409   */\n      0x00\n        /* \"#utility.yul\":19427:19511   */\n      tag_575\n        /* \"#utility.yul\":19509:19510   */\n      0x06\n        /* \"#utility.yul\":19504:19507   */\n      dup4\n        /* \"#utility.yul\":19427:19511   */\n      tag_555\n      jump\t// in\n    tag_575:\n        /* \"#utility.yul\":19420:19511   */\n      swap2\n      pop\n        /* \"#utility.yul\":19520:19613   */\n      tag_576\n        /* \"#utility.yul\":19609:19612   */\n      dup3\n        /* \"#utility.yul\":19520:19613   */\n      tag_577\n      jump\t// in\n    tag_576:\n        /* \"#utility.yul\":19638:19639   */\n      0x06\n        /* \"#utility.yul\":19633:19636   */\n      dup3\n        /* \"#utility.yul\":19629:19640   */\n      add\n        /* \"#utility.yul\":19622:19640   */\n      swap1\n      pop\n        /* \"#utility.yul\":19246:19646   */\n      swap2\n      swap1\n      pop\n      jump\t// out\n        /* \"#utility.yul\":19652:19770   */\n    tag_578:\n        /* \"#utility.yul\":19739:19763   */\n      tag_580\n        /* \"#utility.yul\":19757:19762   */\n      dup2\n        /* \"#utility.yul\":19739:19763   */\n      tag_581\n      jump\t// in\n    tag_580:\n        /* \"#utility.yul\":19734:19737   */\n      dup3\n        /* \"#utility.yul\":19727:19764   */\n      mstore\n        /* \"#utility.yul\":19652:19770   */\n      pop\n      pop\n      jump\t// out\n        /* \"#utility.yul\":19776:20047   */\n    tag_152:\n        /* \"#utility.yul\":19906:19909   */\n      0x00\n        /* \"#utility.yul\":19928:20021   */\n      tag_583\n        /* \"#utility.yul\":20017:20020   */\n      dup3\n        /* \"#utility.yul\":20008:20014   */\n      dup5\n        /* \"#utility.yul\":19928:20021   */\n      tag_544\n      jump\t// in\n    tag_583:\n        /* \"#utility.yul\":19921:20021   */\n      swap2\n      pop\n        /* \"#utility.yul\":20038:20041   */\n      dup2\n        /* \"#utility.yul\":20031:20041   */\n      swap1\n      pop\n        /* \"#utility.yul\":19776:20047   */\n      swap3\n      swap2\n      pop\n      pop\n      jump\t// out\n        /* \"#utility.yul\":20053:20328   */\n    tag_98:\n        /* \"#utility.yul\":20185:20188   */\n      0x00\n        /* \"#utility.yul\":20207:20302   */\n      tag_585\n        /* \"#utility.yul\":20298:20301   */\n      dup3\n        /* \"#utility.yul\":20289:20295   */\n      dup5\n        /* \"#utility.yul\":20207:20302   */\n      tag_550\n      jump\t// in\n    tag_585:\n        /* \"#utility.yul\":20200:20302   */\n      swap2\n      pop\n        /* \"#utility.yul\":20319:20322   */\n      dup2\n        /* \"#utility.yul\":20312:20322   */\n      swap1\n      pop\n        /* \"#utility.yul\":20053:20328   */\n      swap3\n      swap2\n      pop\n      pop\n      jump\t// out\n        /* \"#utility.yul\":20334:20715   */\n    tag_150:\n        /* \"#utility.yul\":20519:20522   */\n      0x00\n        /* \"#utility.yul\":20541:20689   */\n      tag_587\n        /* \"#utility.yul\":20685:20688   */\n      dup3\n        /* \"#utility.yul\":20541:20689   */\n      tag_573\n      jump\t// in\n    tag_587:\n        /* \"#utility.yul\":20534:20689   */\n      swap2\n      pop\n        /* \"#utility.yul\":20706:20709   */\n      dup2\n        /* \"#utility.yul\":20699:20709   */\n      swap1\n      pop\n        /* \"#utility.yul\":20334:20715   */\n      swap2\n      swap1\n      pop\n      jump\t// out\n        /* \"#utility.yul\":20721:20943   */\n    tag_101:\n        /* \"#utility.yul\":20814:20818   */\n      0x00\n        /* \"#utility.yul\":20852:20854   */\n      0x20\n        /* \"#utility.yul\":20841:20850   */\n      dup3\n        /* \"#utility.yul\":20837:20855   */\n      add\n        /* \"#utility.yul\":20829:20855   */\n      swap1\n      pop\n        /* \"#utility.yul\":20865:20936   */\n      tag_589\n        /* \"#utility.yul\":20933:20934   */\n      0x00\n        /* \"#utility.yul\":20922:20931   */\n      dup4\n        /* \"#utility.yul\":20918:20935   */\n      add\n        /* \"#utility.yul\":20909:20915   */\n      dup5\n        /* \"#utility.yul\":20865:20936   */\n      tag_513\n      jump\t// in\n    tag_589:\n        /* \"#utility.yul\":20721:20943   */\n      swap3\n      swap2\n      pop\n      pop\n      jump\t// out\n        /* \"#utility.yul\":20949:21281   */\n    tag_131:\n        /* \"#utility.yul\":21070:21074   */\n      0x00\n        /* \"#utility.yul\":21108:21110   */\n      0x40\n        /* \"#utility.yul\":21097:21106   */\n      dup3\n        /* \"#utility.yul\":21093:21111   */\n      add\n        /* \"#utility.yul\":21085:21111   */\n      swap1\n      pop\n        /* \"#utility.yul\":21121:21192   */\n      tag_591\n        /* \"#utility.yul\":21189:21190   */\n      0x00\n        /* \"#utility.yul\":21178:21187   */\n      dup4\n        /* \"#utility.yul\":21174:21191   */\n      add\n        /* \"#utility.yul\":21165:21171   */\n      dup6\n        /* \"#utility.yul\":21121:21192   */\n      tag_513\n      jump\t// in\n    tag_591:\n        /* \"#utility.yul\":21202:21274   */\n      tag_592\n        /* \"#utility.yul\":21270:21272   */\n      0x20\n        /* \"#utility.yul\":21259:21268   */\n      dup4\n        /* \"#utility.yul\":21255:21273   */\n      add\n        /* \"#utility.yul\":21246:21252   */\n      dup5\n        /* \"#utility.yul\":21202:21274   */\n      tag_513\n      jump\t// in\n    tag_592:\n        /* \"#utility.yul\":20949:21281   */\n      swap4\n      swap3\n      pop\n      pop\n      pop\n      jump\t// out\n        /* \"#utility.yul\":21287:21729   */\n    tag_142:\n        /* \"#utility.yul\":21436:21440   */\n      0x00\n        /* \"#utility.yul\":21474:21476   */\n      0x60\n        /* \"#utility.yul\":21463:21472   */\n      dup3\n        /* \"#utility.yul\":21459:21477   */\n      add\n        /* \"#utility.yul\":21451:21477   */\n      swap1\n      pop\n        /* \"#utility.yul\":21487:21558   */\n      tag_594\n        /* \"#utility.yul\":21555:21556   */\n      0x00\n        /* \"#utility.yul\":21544:21553   */\n      dup4\n        /* \"#utility.yul\":21540:21557   */\n      add\n        /* \"#utility.yul\":21531:21537   */\n      dup7\n        /* \"#utility.yul\":21487:21558   */\n      tag_513\n      jump\t// in\n    tag_594:\n        /* \"#utility.yul\":21568:21640   */\n      tag_595\n        /* \"#utility.yul\":21636:21638   */\n      0x20\n        /* \"#utility.yul\":21625:21634   */\n      dup4\n        /* \"#utility.yul\":21621:21639   */\n      add\n        /* \"#utility.yul\":21612:21618   */\n      dup6\n        /* \"#utility.yul\":21568:21640   */\n      tag_513\n      jump\t// in\n    tag_595:\n        /* \"#utility.yul\":21650:21722   */\n      tag_596\n        /* \"#utility.yul\":21718:21720   */\n      0x40\n        /* \"#utility.yul\":21707:21716   */\n      dup4\n        /* \"#utility.yul\":21703:21721   */\n      add\n        /* \"#utility.yul\":21694:21700   */\n      dup5\n        /* \"#utility.yul\":21650:21722   */\n      tag_578\n      jump\t// in\n    tag_596:\n        /* \"#utility.yul\":21287:21729   */\n      swap5\n      swap4\n      pop\n      pop\n      pop\n      pop\n      jump\t// out\n        /* \"#utility.yul\":21735:22621   */\n    tag_184:\n        /* \"#utility.yul\":21996:22000   */\n      0x00\n        /* \"#utility.yul\":22034:22037   */\n      0xe0\n        /* \"#utility.yul\":22023:22032   */\n      dup3\n        /* \"#utility.yul\":22019:22038   */\n      add\n        /* \"#utility.yul\":22011:22038   */\n      swap1\n      pop\n        /* \"#utility.yul\":22048:22119   */\n      tag_598\n        /* \"#utility.yul\":22116:22117   */\n      0x00\n        /* \"#utility.yul\":22105:22114   */\n      dup4\n        /* \"#utility.yul\":22101:22118   */\n      add\n        /* \"#utility.yul\":22092:22098   */\n      dup11\n        /* \"#utility.yul\":22048:22119   */\n      tag_513\n      jump\t// in\n    tag_598:\n        /* \"#utility.yul\":22129:22201   */\n      tag_599\n        /* \"#utility.yul\":22197:22199   */\n      0x20\n        /* \"#utility.yul\":22186:22195   */\n      dup4\n        /* \"#utility.yul\":22182:22200   */\n      add\n        /* \"#utility.yul\":22173:22179   */\n      dup10\n        /* \"#utility.yul\":22129:22201   */\n      tag_513\n      jump\t// in\n    tag_599:\n        /* \"#utility.yul\":22211:22283   */\n      tag_600\n        /* \"#utility.yul\":22279:22281   */\n      0x40\n        /* \"#utility.yul\":22268:22277   */\n      dup4\n        /* \"#utility.yul\":22264:22282   */\n      add\n        /* \"#utility.yul\":22255:22261   */\n      dup9\n        /* \"#utility.yul\":22211:22283   */\n      tag_578\n      jump\t// in\n    tag_600:\n        /* \"#utility.yul\":22293:22365   */\n      tag_601\n        /* \"#utility.yul\":22361:22363   */\n      0x60\n        /* \"#utility.yul\":22350:22359   */\n      dup4\n        /* \"#utility.yul\":22346:22364   */\n      add\n        /* \"#utility.yul\":22337:22343   */\n      dup8\n        /* \"#utility.yul\":22293:22365   */\n      tag_578\n      jump\t// in\n    tag_601:\n        /* \"#utility.yul\":22375:22448   */\n      tag_602\n        /* \"#utility.yul\":22443:22446   */\n      0x80\n        /* \"#utility.yul\":22432:22441   */\n      dup4\n        /* \"#utility.yul\":22428:22447   */\n      add\n        /* \"#utility.yul\":22419:22425   */\n      dup7\n        /* \"#utility.yul\":22375:22448   */\n      tag_578\n      jump\t// in\n    tag_602:\n        /* \"#utility.yul\":22458:22531   */\n      tag_603\n        /* \"#utility.yul\":22526:22529   */\n      0xa0\n        /* \"#utility.yul\":22515:22524   */\n      dup4\n        /* \"#utility.yul\":22511:22530   */\n      add\n        /* \"#utility.yul\":22502:22508   */\n      dup6\n        /* \"#utility.yul\":22458:22531   */\n      tag_513\n      jump\t// in\n    tag_603:\n        /* \"#utility.yul\":22541:22614   */\n      tag_604\n        /* \"#utility.yul\":22609:22612   */\n      0xc0\n        /* \"#utility.yul\":22598:22607   */\n      dup4\n        /* \"#utility.yul\":22594:22613   */\n      add\n        /* \"#utility.yul\":22585:22591   */\n      dup5\n        /* \"#utility.yul\":22541:22614   */\n      tag_578\n      jump\t// in\n    tag_604:\n        /* \"#utility.yul\":21735:22621   */\n      swap9\n      swap8\n      pop\n      pop\n      pop\n      pop\n      pop\n      pop\n      pop\n      pop\n      jump\t// out\n        /* \"#utility.yul\":22627:23624   */\n    tag_298:\n        /* \"#utility.yul\":22916:22920   */\n      0x00\n        /* \"#utility.yul\":22954:22957   */\n      0x0100\n        /* \"#utility.yul\":22943:22952   */\n      dup3\n        /* \"#utility.yul\":22939:22958   */\n      add\n        /* \"#utility.yul\":22931:22958   */\n      swap1\n      pop\n        /* \"#utility.yul\":22968:23039   */\n      tag_606\n        /* \"#utility.yul\":23036:23037   */\n      0x00\n        /* \"#utility.yul\":23025:23034   */\n      dup4\n        /* \"#utility.yul\":23021:23038   */\n      add\n        /* \"#utility.yul\":23012:23018   */\n      dup12\n        /* \"#utility.yul\":22968:23039   */\n      tag_513\n      jump\t// in\n    tag_606:\n        /* \"#utility.yul\":23049:23121   */\n      tag_607\n        /* \"#utility.yul\":23117:23119   */\n      0x20\n        /* \"#utility.yul\":23106:23115   */\n      dup4\n        /* \"#utility.yul\":23102:23120   */\n      add\n        /* \"#utility.yul\":23093:23099   */\n      dup11\n        /* \"#utility.yul\":23049:23121   */\n      tag_513\n      jump\t// in\n    tag_607:\n        /* \"#utility.yul\":23131:23203   */\n      tag_608\n        /* \"#utility.yul\":23199:23201   */\n      0x40\n        /* \"#utility.yul\":23188:23197   */\n      dup4\n        /* \"#utility.yul\":23184:23202   */\n      add\n        /* \"#utility.yul\":23175:23181   */\n      dup10\n        /* \"#utility.yul\":23131:23203   */\n      tag_578\n      jump\t// in\n    tag_608:\n        /* \"#utility.yul\":23213:23285   */\n      tag_609\n        /* \"#utility.yul\":23281:23283   */\n      0x60\n        /* \"#utility.yul\":23270:23279   */\n      dup4\n        /* \"#utility.yul\":23266:23284   */\n      add\n        /* \"#utility.yul\":23257:23263   */\n      dup9\n        /* \"#utility.yul\":23213:23285   */\n      tag_578\n      jump\t// in\n    tag_609:\n        /* \"#utility.yul\":23295:23368   */\n      tag_610\n        /* \"#utility.yul\":23363:23366   */\n      0x80\n        /* \"#utility.yul\":23352:23361   */\n      dup4\n        /* \"#utility.yul\":23348:23367   */\n      add\n        /* \"#utility.yul\":23339:23345   */\n      dup8\n        /* \"#utility.yul\":23295:23368   */\n      tag_578\n      jump\t// in\n    tag_610:\n        /* \"#utility.yul\":23378:23451   */\n      tag_611\n        /* \"#utility.yul\":23446:23449   */\n      0xa0\n        /* \"#utility.yul\":23435:23444   */\n      dup4\n        /* \"#utility.yul\":23431:23450   */\n      add\n        /* \"#utility.yul\":23422:23428   */\n      dup7\n        /* \"#utility.yul\":23378:23451   */\n      tag_578\n      jump\t// in\n    tag_611:\n        /* \"#utility.yul\":23461:23534   */\n      tag_612\n        /* \"#utility.yul\":23529:23532   */\n      0xc0\n        /* \"#utility.yul\":23518:23527   */\n      dup4\n        /* \"#utility.yul\":23514:23533   */\n      add\n        /* \"#utility.yul\":23505:23511   */\n      dup6\n        /* \"#utility.yul\":23461:23534   */\n      tag_513\n      jump\t// in\n    tag_612:\n        /* \"#utility.yul\":23544:23617   */\n      tag_613\n        /* \"#utility.yul\":23612:23615   */\n      0xe0\n        /* \"#utility.yul\":23601:23610   */\n      dup4\n        /* \"#utility.yul\":23597:23616   */\n      add\n        /* \"#utility.yul\":23588:23594   */\n      dup5\n        /* \"#utility.yul\":23544:23617   */\n      tag_578\n      jump\t// in\n    tag_613:\n        /* \"#utility.yul\":22627:23624   */\n      swap10\n      swap9\n      pop\n      pop\n      pop\n      pop\n      pop\n      pop\n      pop\n      pop\n      pop\n      jump\t// out\n        /* \"#utility.yul\":23630:23962   */\n    tag_251:\n        /* \"#utility.yul\":23751:23755   */\n      0x00\n        /* \"#utility.yul\":23789:23791   */\n      0x40\n        /* \"#utility.yul\":23778:23787   */\n      dup3\n        /* \"#utility.yul\":23774:23792   */\n      add\n        /* \"#utility.yul\":23766:23792   */\n      swap1\n      pop\n        /* \"#utility.yul\":23802:23873   */\n      tag_615\n        /* \"#utility.yul\":23870:23871   */\n      0x00\n        /* \"#utility.yul\":23859:23868   */\n      dup4\n        /* \"#utility.yul\":23855:23872   */\n      add\n        /* \"#utility.yul\":23846:23852   */\n      dup6\n        /* \"#utility.yul\":23802:23873   */\n      tag_513\n      jump\t// in\n    tag_615:\n        /* \"#utility.yul\":23883:23955   */\n      tag_616\n        /* \"#utility.yul\":23951:23953   */\n      0x20\n        /* \"#utility.yul\":23940:23949   */\n      dup4\n        /* \"#utility.yul\":23936:23954   */\n      add\n        /* \"#utility.yul\":23927:23933   */\n      dup5\n        /* \"#utility.yul\":23883:23955   */\n      tag_578\n      jump\t// in\n    tag_616:\n        /* \"#utility.yul\":23630:23962   */\n      swap4\n      swap3\n      pop\n      pop\n      pop\n      jump\t// out\n        /* \"#utility.yul\":23968:24375   */\n    tag_163:\n        /* \"#utility.yul\":24101:24105   */\n      0x00\n        /* \"#utility.yul\":24139:24141   */\n      0x40\n        /* \"#utility.yul\":24128:24137   */\n      dup3\n        /* \"#utility.yul\":24124:24142   */\n      add\n        /* \"#utility.yul\":24116:24142   */\n      swap1\n      pop\n        /* \"#utility.yul\":24152:24217   */\n      tag_618\n        /* \"#utility.yul\":24214:24215   */\n      0x00\n        /* \"#utility.yul\":24203:24212   */\n      dup4\n        /* \"#utility.yul\":24199:24216   */\n      add\n        /* \"#utility.yul\":24190:24196   */\n      dup6\n        /* \"#utility.yul\":24152:24217   */\n      tag_530\n      jump\t// in\n    tag_618:\n        /* \"#utility.yul\":24264:24273   */\n      dup2\n        /* \"#utility.yul\":24258:24262   */\n      dup2\n        /* \"#utility.yul\":24254:24274   */\n      sub\n        /* \"#utility.yul\":24249:24251   */\n      0x20\n        /* \"#utility.yul\":24238:24247   */\n      dup4\n        /* \"#utility.yul\":24234:24252   */\n      add\n        /* \"#utility.yul\":24227:24275   */\n      mstore\n        /* \"#utility.yul\":24292:24368   */\n      tag_619\n        /* \"#utility.yul\":24363:24367   */\n      dup2\n        /* \"#utility.yul\":24354:24360   */\n      dup5\n        /* \"#utility.yul\":24292:24368   */\n      tag_534\n      jump\t// in\n    tag_619:\n        /* \"#utility.yul\":24284:24368   */\n      swap1\n      pop\n        /* \"#utility.yul\":23968:24375   */\n      swap4\n      swap3\n      pop\n      pop\n      pop\n      jump\t// out\n        /* \"#utility.yul\":24381:24800   */\n    tag_271:\n        /* \"#utility.yul\":24547:24551   */\n      0x00\n        /* \"#utility.yul\":24585:24587   */\n      0x20\n        /* \"#utility.yul\":24574:24583   */\n      dup3\n        /* \"#utility.yul\":24570:24588   */\n      add\n        /* \"#utility.yul\":24562:24588   */\n      swap1\n      pop\n        /* \"#utility.yul\":24634:24643   */\n      dup2\n        /* \"#utility.yul\":24628:24632   */\n      dup2\n        /* \"#utility.yul\":24624:24644   */\n      sub\n        /* \"#utility.yul\":24620:24621   */\n      0x00\n        /* \"#utility.yul\":24609:24618   */\n      dup4\n        /* \"#utility.yul\":24605:24622   */\n      add\n        /* \"#utility.yul\":24598:24645   */\n      mstore\n        /* \"#utility.yul\":24662:24793   */\n      tag_621\n        /* \"#utility.yul\":24788:24792   */\n      dup2\n        /* \"#utility.yul\":24662:24793   */\n      tag_557\n      jump\t// in\n    tag_621:\n        /* \"#utility.yul\":24654:24793   */\n      swap1\n      pop\n        /* \"#utility.yul\":24381:24800   */\n      swap2\n      swap1\n      pop\n      jump\t// out\n        /* \"#utility.yul\":24806:25225   */\n    tag_179:\n        /* \"#utility.yul\":24972:24976   */\n      0x00\n        /* \"#utility.yul\":25010:25012   */\n      0x20\n        /* \"#utility.yul\":24999:25008   */\n      dup3\n        /* \"#utility.yul\":24995:25013   */\n      add\n        /* \"#utility.yul\":24987:25013   */\n      swap1\n      pop\n        /* \"#utility.yul\":25059:25068   */\n      dup2\n        /* \"#utility.yul\":25053:25057   */\n      dup2\n        /* \"#utility.yul\":25049:25069   */\n      sub\n        /* \"#utility.yul\":25045:25046   */\n      0x00\n        /* \"#utility.yul\":25034:25043   */\n      dup4\n        /* \"#utility.yul\":25030:25047   */\n      add\n        /* \"#utility.yul\":25023:25070   */\n      mstore\n        /* \"#utility.yul\":25087:25218   */\n      tag_623\n        /* \"#utility.yul\":25213:25217   */\n      dup2\n        /* \"#utility.yul\":25087:25218   */\n      tag_563\n      jump\t// in\n    tag_623:\n        /* \"#utility.yul\":25079:25218   */\n      swap1\n      pop\n        /* \"#utility.yul\":24806:25225   */\n      swap2\n      swap1\n      pop\n      jump\t// out\n        /* \"#utility.yul\":25231:25650   */\n    tag_138:\n        /* \"#utility.yul\":25397:25401   */\n      0x00\n        /* \"#utility.yul\":25435:25437   */\n      0x20\n        /* \"#utility.yul\":25424:25433   */\n      dup3\n        /* \"#utility.yul\":25420:25438   */\n      add\n        /* \"#utility.yul\":25412:25438   */\n      swap1\n      pop\n        /* \"#utility.yul\":25484:25493   */\n      dup2\n        /* \"#utility.yul\":25478:25482   */\n      dup2\n        /* \"#utility.yul\":25474:25494   */\n      sub\n        /* \"#utility.yul\":25470:25471   */\n      0x00\n        /* \"#utility.yul\":25459:25468   */\n      dup4\n        /* \"#utility.yul\":25455:25472   */\n      add\n        /* \"#utility.yul\":25448:25495   */\n      mstore\n        /* \"#utility.yul\":25512:25643   */\n      tag_625\n        /* \"#utility.yul\":25638:25642   */\n      dup2\n        /* \"#utility.yul\":25512:25643   */\n      tag_568\n      jump\t// in\n    tag_625:\n        /* \"#utility.yul\":25504:25643   */\n      swap1\n      pop\n        /* \"#utility.yul\":25231:25650   */\n      swap2\n      swap1\n      pop\n      jump\t// out\n        /* \"#utility.yul\":25656:25878   */\n    tag_28:\n        /* \"#utility.yul\":25749:25753   */\n      0x00\n        /* \"#utility.yul\":25787:25789   */\n      0x20\n        /* \"#utility.yul\":25776:25785   */\n      dup3\n        /* \"#utility.yul\":25772:25790   */\n      add\n        /* \"#utility.yul\":25764:25790   */\n      swap1\n      pop\n        /* \"#utility.yul\":25800:25871   */\n      tag_627\n        /* \"#utility.yul\":25868:25869   */\n      0x00\n        /* \"#utility.yul\":25857:25866   */\n      dup4\n        /* \"#utility.yul\":25853:25870   */\n      add\n        /* \"#utility.yul\":25844:25850   */\n      dup5\n        /* \"#utility.yul\":25800:25871   */\n      tag_578\n      jump\t// in\n    tag_627:\n        /* \"#utility.yul\":25656:25878   */\n      swap3\n      swap2\n      pop\n      pop\n      jump\t// out\n        /* \"#utility.yul\":25884:26367   */\n    tag_120:\n        /* \"#utility.yul\":26055:26059   */\n      0x00\n        /* \"#utility.yul\":26093:26095   */\n      0x40\n        /* \"#utility.yul\":26082:26091   */\n      dup3\n        /* \"#utility.yul\":26078:26096   */\n      add\n        /* \"#utility.yul\":26070:26096   */\n      swap1\n      pop\n        /* \"#utility.yul\":26106:26177   */\n      tag_629\n        /* \"#utility.yul\":26174:26175   */\n      0x00\n        /* \"#utility.yul\":26163:26172   */\n      dup4\n        /* \"#utility.yul\":26159:26176   */\n      add\n        /* \"#utility.yul\":26150:26156   */\n      dup6\n        /* \"#utility.yul\":26106:26177   */\n      tag_578\n      jump\t// in\n    tag_629:\n        /* \"#utility.yul\":26224:26233   */\n      dup2\n        /* \"#utility.yul\":26218:26222   */\n      dup2\n        /* \"#utility.yul\":26214:26234   */\n      sub\n        /* \"#utility.yul\":26209:26211   */\n      0x20\n        /* \"#utility.yul\":26198:26207   */\n      dup4\n        /* \"#utility.yul\":26194:26212   */\n      add\n        /* \"#utility.yul\":26187:26235   */\n      mstore\n        /* \"#utility.yul\":26252:26360   */\n      tag_630\n        /* \"#utility.yul\":26355:26359   */\n      dup2\n        /* \"#utility.yul\":26346:26352   */\n      dup5\n        /* \"#utility.yul\":26252:26360   */\n      tag_516\n      jump\t// in\n    tag_630:\n        /* \"#utility.yul\":26244:26360   */\n      swap1\n      pop\n        /* \"#utility.yul\":25884:26367   */\n      swap4\n      swap3\n      pop\n      pop\n      pop\n      jump\t// out\n        /* \"#utility.yul\":26373:27188   */\n    tag_257:\n        /* \"#utility.yul\":26628:26632   */\n      0x00\n        /* \"#utility.yul\":26666:26669   */\n      0xa0\n        /* \"#utility.yul\":26655:26664   */\n      dup3\n        /* \"#utility.yul\":26651:26670   */\n      add\n        /* \"#utility.yul\":26643:26670   */\n      swap1\n      pop\n        /* \"#utility.yul\":26680:26751   */\n      tag_632\n        /* \"#utility.yul\":26748:26749   */\n      0x00\n        /* \"#utility.yul\":26737:26746   */\n      dup4\n        /* \"#utility.yul\":26733:26750   */\n      add\n        /* \"#utility.yul\":26724:26730   */\n      dup9\n        /* \"#utility.yul\":26680:26751   */\n      tag_578\n      jump\t// in\n    tag_632:\n        /* \"#utility.yul\":26761:26833   */\n      tag_633\n        /* \"#utility.yul\":26829:26831   */\n      0x20\n        /* \"#utility.yul\":26818:26827   */\n      dup4\n        /* \"#utility.yul\":26814:26832   */\n      add\n        /* \"#utility.yul\":26805:26811   */\n      dup8\n        /* \"#utility.yul\":26761:26833   */\n      tag_578\n      jump\t// in\n    tag_633:\n        /* \"#utility.yul\":26880:26889   */\n      dup2\n        /* \"#utility.yul\":26874:26878   */\n      dup2\n        /* \"#utility.yul\":26870:26890   */\n      sub\n        /* \"#utility.yul\":26865:26867   */\n      0x40\n        /* \"#utility.yul\":26854:26863   */\n      dup4\n        /* \"#utility.yul\":26850:26868   */\n      add\n        /* \"#utility.yul\":26843:26891   */\n      mstore\n        /* \"#utility.yul\":26908:27016   */\n      tag_634\n        /* \"#utility.yul\":27011:27015   */\n      dup2\n        /* \"#utility.yul\":27002:27008   */\n      dup7\n        /* \"#utility.yul\":26908:27016   */\n      tag_516\n      jump\t// in\n    tag_634:\n        /* \"#utility.yul\":26900:27016   */\n      swap1\n      pop\n        /* \"#utility.yul\":27026:27098   */\n      tag_635\n        /* \"#utility.yul\":27094:27096   */\n      0x60\n        /* \"#utility.yul\":27083:27092   */\n      dup4\n        /* \"#utility.yul\":27079:27097   */\n      add\n        /* \"#utility.yul\":27070:27076   */\n      dup6\n        /* \"#utility.yul\":27026:27098   */\n      tag_513\n      jump\t// in\n    tag_635:\n        /* \"#utility.yul\":27108:27181   */\n      tag_636\n        /* \"#utility.yul\":27176:27179   */\n      0x80\n        /* \"#utility.yul\":27165:27174   */\n      dup4\n        /* \"#utility.yul\":27161:27180   */\n      add\n        /* \"#utility.yul\":27152:27158   */\n      dup5\n        /* \"#utility.yul\":27108:27181   */\n      tag_578\n      jump\t// in\n    tag_636:\n        /* \"#utility.yul\":26373:27188   */\n      swap7\n      swap6\n      pop\n      pop\n      pop\n      pop\n      pop\n      pop\n      jump\t// out\n        /* \"#utility.yul\":27194:27323   */\n    tag_329:\n        /* \"#utility.yul\":27228:27234   */\n      0x00\n        /* \"#utility.yul\":27255:27275   */\n      tag_638\n      tag_639\n      jump\t// in\n    tag_638:\n        /* \"#utility.yul\":27245:27275   */\n      swap1\n      pop\n        /* \"#utility.yul\":27284:27317   */\n      tag_640\n        /* \"#utility.yul\":27312:27316   */\n      dup3\n        /* \"#utility.yul\":27304:27310   */\n      dup3\n        /* \"#utility.yul\":27284:27317   */\n      tag_641\n      jump\t// in\n    tag_640:\n        /* \"#utility.yul\":27194:27323   */\n      swap2\n      swap1\n      pop\n      jump\t// out\n        /* \"#utility.yul\":27329:27404   */\n    tag_639:\n        /* \"#utility.yul\":27362:27368   */\n      0x00\n        /* \"#utility.yul\":27395:27397   */\n      0x40\n        /* \"#utility.yul\":27389:27398   */\n      mload\n        /* \"#utility.yul\":27379:27398   */\n      swap1\n      pop\n        /* \"#utility.yul\":27329:27404   */\n      swap1\n      jump\t// out\n        /* \"#utility.yul\":27410:27721   */\n    tag_328:\n        /* \"#utility.yul\":27487:27491   */\n      0x00\n        /* \"#utility.yul\":27577:27595   */\n      0xffffffffffffffff\n        /* \"#utility.yul\":27569:27575   */\n      dup3\n        /* \"#utility.yul\":27566:27596   */\n      gt\n        /* \"#utility.yul\":27563:27619   */\n      iszero\n      tag_644\n      jumpi\n        /* \"#utility.yul\":27599:27617   */\n      tag_645\n      tag_110\n      jump\t// in\n    tag_645:\n        /* \"#utility.yul\":27563:27619   */\n    tag_644:\n        /* \"#utility.yul\":27649:27653   */\n      0x20\n        /* \"#utility.yul\":27641:27647   */\n      dup3\n        /* \"#utility.yul\":27637:27654   */\n      mul\n        /* \"#utility.yul\":27629:27654   */\n      swap1\n      pop\n        /* \"#utility.yul\":27709:27713   */\n      0x20\n        /* \"#utility.yul\":27703:27707   */\n      dup2\n        /* \"#utility.yul\":27699:27714   */\n      add\n        /* \"#utility.yul\":27691:27714   */\n      swap1\n      pop\n        /* \"#utility.yul\":27410:27721   */\n      swap2\n      swap1\n      pop\n      jump\t// out\n        /* \"#utility.yul\":27727:28035   */\n    tag_342:\n        /* \"#utility.yul\":27789:27793   */\n      0x00\n        /* \"#utility.yul\":27879:27897   */\n      0xffffffffffffffff\n        /* \"#utility.yul\":27871:27877   */\n      dup3\n        /* \"#utility.yul\":27868:27898   */\n      gt\n        /* \"#utility.yul\":27865:27921   */\n      iszero\n      tag_647\n      jumpi\n        /* \"#utility.yul\":27901:27919   */\n      tag_648\n      tag_110\n      jump\t// in\n    tag_648:\n        /* \"#utility.yul\":27865:27921   */\n    tag_647:\n        /* \"#utility.yul\":27939:27968   */\n      tag_649\n        /* \"#utility.yul\":27961:27967   */\n      dup3\n        /* \"#utility.yul\":27939:27968   */\n      tag_543\n      jump\t// in\n    tag_649:\n        /* \"#utility.yul\":27931:27968   */\n      swap1\n      pop\n        /* \"#utility.yul\":28023:28027   */\n      0x20\n        /* \"#utility.yul\":28017:28021   */\n      dup2\n        /* \"#utility.yul\":28013:28028   */\n      add\n        /* \"#utility.yul\":28005:28028   */\n      swap1\n      pop\n        /* \"#utility.yul\":27727:28035   */\n      swap2\n      swap1\n      pop\n      jump\t// out\n        /* \"#utility.yul\":28041:28173   */\n    tag_523:\n        /* \"#utility.yul\":28108:28112   */\n      0x00\n        /* \"#utility.yul\":28131:28134   */\n      dup2\n        /* \"#utility.yul\":28123:28134   */\n      swap1\n      pop\n        /* \"#utility.yul\":28161:28165   */\n      0x20\n        /* \"#utility.yul\":28156:28159   */\n      dup3\n        /* \"#utility.yul\":28152:28166   */\n      add\n        /* \"#utility.yul\":28144:28166   */\n      swap1\n      pop\n        /* \"#utility.yul\":28041:28173   */\n      swap2\n      swap1\n      pop\n      jump\t// out\n        /* \"#utility.yul\":28179:28293   */\n    tag_519:\n        /* \"#utility.yul\":28246:28252   */\n      0x00\n        /* \"#utility.yul\":28280:28285   */\n      dup2\n        /* \"#utility.yul\":28274:28286   */\n      mload\n        /* \"#utility.yul\":28264:28286   */\n      swap1\n      pop\n        /* \"#utility.yul\":28179:28293   */\n      swap2\n      swap1\n      pop\n      jump\t// out\n        /* \"#utility.yul\":28299:28397   */\n    tag_537:\n        /* \"#utility.yul\":28350:28356   */\n      0x00\n        /* \"#utility.yul\":28384:28389   */\n      dup2\n        /* \"#utility.yul\":28378:28390   */\n      mload\n        /* \"#utility.yul\":28368:28390   */\n      swap1\n      pop\n        /* \"#utility.yul\":28299:28397   */\n      swap2\n      swap1\n      pop\n      jump\t// out\n        /* \"#utility.yul\":28403:28502   */\n    tag_553:\n        /* \"#utility.yul\":28455:28461   */\n      0x00\n        /* \"#utility.yul\":28489:28494   */\n      dup2\n        /* \"#utility.yul\":28483:28495   */\n      mload\n        /* \"#utility.yul\":28473:28495   */\n      swap1\n      pop\n        /* \"#utility.yul\":28403:28502   */\n      swap2\n      swap1\n      pop\n      jump\t// out\n        /* \"#utility.yul\":28508:28621   */\n    tag_529:\n        /* \"#utility.yul\":28578:28582   */\n      0x00\n        /* \"#utility.yul\":28610:28614   */\n      0x20\n        /* \"#utility.yul\":28605:28608   */\n      dup3\n        /* \"#utility.yul\":28601:28615   */\n      add\n        /* \"#utility.yul\":28593:28615   */\n      swap1\n      pop\n        /* \"#utility.yul\":28508:28621   */\n      swap2\n      swap1\n      pop\n      jump\t// out\n        /* \"#utility.yul\":28627:28811   */\n    tag_521:\n        /* \"#utility.yul\":28726:28737   */\n      0x00\n        /* \"#utility.yul\":28760:28766   */\n      dup3\n        /* \"#utility.yul\":28755:28758   */\n      dup3\n        /* \"#utility.yul\":28748:28767   */\n      mstore\n        /* \"#utility.yul\":28800:28804   */\n      0x20\n        /* \"#utility.yul\":28795:28798   */\n      dup3\n        /* \"#utility.yul\":28791:28805   */\n      add\n        /* \"#utility.yul\":28776:28805   */\n      swap1\n      pop\n        /* \"#utility.yul\":28627:28811   */\n      swap3\n      swap2\n      pop\n      pop\n      jump\t// out\n        /* \"#utility.yul\":28817:28985   */\n    tag_539:\n        /* \"#utility.yul\":28900:28911   */\n      0x00\n        /* \"#utility.yul\":28934:28940   */\n      dup3\n        /* \"#utility.yul\":28929:28932   */\n      dup3\n        /* \"#utility.yul\":28922:28941   */\n      mstore\n        /* \"#utility.yul\":28974:28978   */\n      0x20\n        /* \"#utility.yul\":28969:28972   */\n      dup3\n        /* \"#utility.yul\":28965:28979   */\n      add\n        /* \"#utility.yul\":28950:28979   */\n      swap1\n      pop\n        /* \"#utility.yul\":28817:28985   */\n      swap3\n      swap2\n      pop\n      pop\n      jump\t// out\n        /* \"#utility.yul\":28991:29138   */\n    tag_548:\n        /* \"#utility.yul\":29092:29103   */\n      0x00\n        /* \"#utility.yul\":29129:29132   */\n      dup2\n        /* \"#utility.yul\":29114:29132   */\n      swap1\n      pop\n        /* \"#utility.yul\":28991:29138   */\n      swap3\n      swap2\n      pop\n      pop\n      jump\t// out\n        /* \"#utility.yul\":29144:29313   */\n    tag_560:\n        /* \"#utility.yul\":29228:29239   */\n      0x00\n        /* \"#utility.yul\":29262:29268   */\n      dup3\n        /* \"#utility.yul\":29257:29260   */\n      dup3\n        /* \"#utility.yul\":29250:29269   */\n      mstore\n        /* \"#utility.yul\":29302:29306   */\n      0x20\n        /* \"#utility.yul\":29297:29300   */\n      dup3\n        /* \"#utility.yul\":29293:29307   */\n      add\n        /* \"#utility.yul\":29278:29307   */\n      swap1\n      pop\n        /* \"#utility.yul\":29144:29313   */\n      swap3\n      swap2\n      pop\n      pop\n      jump\t// out\n        /* \"#utility.yul\":29319:29467   */\n    tag_555:\n        /* \"#utility.yul\":29421:29432   */\n      0x00\n        /* \"#utility.yul\":29458:29461   */\n      dup2\n        /* \"#utility.yul\":29443:29461   */\n      swap1\n      pop\n        /* \"#utility.yul\":29319:29467   */\n      swap3\n      swap2\n      pop\n      pop\n      jump\t// out\n        /* \"#utility.yul\":29473:29778   */\n    tag_320:\n        /* \"#utility.yul\":29513:29516   */\n      0x00\n        /* \"#utility.yul\":29532:29552   */\n      tag_661\n        /* \"#utility.yul\":29550:29551   */\n      dup3\n        /* \"#utility.yul\":29532:29552   */\n      tag_581\n      jump\t// in\n    tag_661:\n        /* \"#utility.yul\":29527:29552   */\n      swap2\n      pop\n        /* \"#utility.yul\":29566:29586   */\n      tag_662\n        /* \"#utility.yul\":29584:29585   */\n      dup4\n        /* \"#utility.yul\":29566:29586   */\n      tag_581\n      jump\t// in\n    tag_662:\n        /* \"#utility.yul\":29561:29586   */\n      swap3\n      pop\n        /* \"#utility.yul\":29720:29721   */\n      dup3\n        /* \"#utility.yul\":29652:29718   */\n      0xffffffffffffffffffffffffffffffffffffffffffffffffffffffffffffffff\n        /* \"#utility.yul\":29648:29722   */\n      sub\n        /* \"#utility.yul\":29645:29646   */\n      dup3\n        /* \"#utility.yul\":29642:29723   */\n      gt\n        /* \"#utility.yul\":29639:29746   */\n      iszero\n      tag_663\n      jumpi\n        /* \"#utility.yul\":29726:29744   */\n      tag_664\n      tag_665\n      jump\t// in\n    tag_664:\n        /* \"#utility.yul\":29639:29746   */\n    tag_663:\n        /* \"#utility.yul\":29770:29771   */\n      dup3\n        /* \"#utility.yul\":29767:29768   */\n      dup3\n        /* \"#utility.yul\":29763:29772   */\n      add\n        /* \"#utility.yul\":29756:29772   */\n      swap1\n      pop\n        /* \"#utility.yul\":29473:29778   */\n      swap3\n      swap2\n      pop\n      pop\n      jump\t// out\n        /* \"#utility.yul\":29784:29975   */\n    tag_316:\n        /* \"#utility.yul\":29824:29828   */\n      0x00\n        /* \"#utility.yul\":29844:29864   */\n      tag_667\n        /* \"#utility.yul\":29862:29863   */\n      dup3\n        /* \"#utility.yul\":29844:29864   */\n      tag_581\n      jump\t// in\n    tag_667:\n        /* \"#utility.yul\":29839:29864   */\n      swap2\n      pop\n        /* \"#utility.yul\":29878:29898   */\n      tag_668\n        /* \"#utility.yul\":29896:29897   */\n      dup4\n        /* \"#utility.yul\":29878:29898   */\n      tag_581\n      jump\t// in\n    tag_668:\n        /* \"#utility.yul\":29873:29898   */\n      swap3\n      pop\n        /* \"#utility.yul\":29917:29918   */\n      dup3\n        /* \"#utility.yul\":29914:29915   */\n      dup3\n        /* \"#utility.yul\":29911:29919   */\n      lt\n        /* \"#utility.yul\":29908:29942   */\n      iszero\n      tag_669\n      jumpi\n        /* \"#utility.yul\":29922:29940   */\n      tag_670\n      tag_665\n      jump\t// in\n    tag_670:\n        /* \"#utility.yul\":29908:29942   */\n    tag_669:\n        /* \"#utility.yul\":29967:29968   */\n      dup3\n        /* \"#utility.yul\":29964:29965   */\n      dup3\n        /* \"#utility.yul\":29960:29969   */\n      sub\n        /* \"#utility.yul\":29952:29969   */\n      swap1\n      pop\n        /* \"#utility.yul\":29784:29975   */\n      swap3\n      swap2\n      pop\n      pop\n      jump\t// out\n        /* \"#utility.yul\":29981:30077   */\n    tag_512:\n        /* \"#utility.yul\":30018:30025   */\n      0x00\n        /* \"#utility.yul\":30047:30071   */\n      tag_672\n        /* \"#utility.yul\":30065:30070   */\n      dup3\n        /* \"#utility.yul\":30047:30071   */\n      tag_673\n      jump\t// in\n    tag_672:\n        /* \"#utility.yul\":30036:30071   */\n      swap1\n      pop\n        /* \"#utility.yul\":29981:30077   */\n      swap2\n      swap1\n      pop\n      jump\t// out\n        /* \"#utility.yul\":30083:30173   */\n    tag_533:\n        /* \"#utility.yul\":30117:30124   */\n      0x00\n        /* \"#utility.yul\":30160:30165   */\n      dup2\n        /* \"#utility.yul\":30153:30166   */\n      iszero\n        /* \"#utility.yul\":30146:30167   */\n      iszero\n        /* \"#utility.yul\":30135:30167   */\n      swap1\n      pop\n        /* \"#utility.yul\":30083:30173   */\n      swap2\n      swap1\n      pop\n      jump\t// out\n        /* \"#utility.yul\":30179:30305   */\n    tag_673:\n        /* \"#utility.yul\":30216:30223   */\n      0x00\n        /* \"#utility.yul\":30256:30298   */\n      0xffffffffffffffffffffffffffffffffffffffff\n        /* \"#utility.yul\":30249:30254   */\n      dup3\n        /* \"#utility.yul\":30245:30299   */\n      and\n        /* \"#utility.yul\":30234:30299   */\n      swap1\n      pop\n        /* \"#utility.yul\":30179:30305   */\n      swap2\n      swap1\n      pop\n      jump\t// out\n        /* \"#utility.yul\":30311:30388   */\n    tag_581:\n        /* \"#utility.yul\":30348:30355   */\n      0x00\n        /* \"#utility.yul\":30377:30382   */\n      dup2\n        /* \"#utility.yul\":30366:30382   */\n      swap1\n      pop\n        /* \"#utility.yul\":30311:30388   */\n      swap2\n      swap1\n      pop\n      jump\t// out\n        /* \"#utility.yul\":30394:30548   */\n    tag_347:\n        /* \"#utility.yul\":30478:30484   */\n      dup3\n        /* \"#utility.yul\":30473:30476   */\n      dup2\n        /* \"#utility.yul\":30468:30471   */\n      dup4\n        /* \"#utility.yul\":30455:30485   */\n      calldatacopy\n        /* \"#utility.yul\":30540:30541   */\n      0x00\n        /* \"#utility.yul\":30531:30537   */\n      dup4\n        /* \"#utility.yul\":30526:30529   */\n      dup4\n        /* \"#utility.yul\":30522:30538   */\n      add\n        /* \"#utility.yul\":30515:30542   */\n      mstore\n        /* \"#utility.yul\":30394:30548   */\n      pop\n      pop\n      pop\n      jump\t// out\n        /* \"#utility.yul\":30554:30861   */\n    tag_541:\n        /* \"#utility.yul\":30622:30623   */\n      0x00\n        /* \"#utility.yul\":30632:30745   */\n    tag_679:\n        /* \"#utility.yul\":30646:30652   */\n      dup4\n        /* \"#utility.yul\":30643:30644   */\n      dup2\n        /* \"#utility.yul\":30640:30653   */\n      lt\n        /* \"#utility.yul\":30632:30745   */\n      iszero\n      tag_681\n      jumpi\n        /* \"#utility.yul\":30731:30732   */\n      dup1\n        /* \"#utility.yul\":30726:30729   */\n      dup3\n        /* \"#utility.yul\":30722:30733   */\n      add\n        /* \"#utility.yul\":30716:30734   */\n      mload\n        /* \"#utility.yul\":30712:30713   */\n      dup2\n        /* \"#utility.yul\":30707:30710   */\n      dup5\n        /* \"#utility.yul\":30703:30714   */\n      add\n        /* \"#utility.yul\":30696:30735   */\n      mstore\n        /* \"#utility.yul\":30668:30670   */\n      0x20\n        /* \"#utility.yul\":30665:30666   */\n      dup2\n        /* \"#utility.yul\":30661:30671   */\n      add\n        /* \"#utility.yul\":30656:30671   */\n      swap1\n      pop\n        /* \"#utility.yul\":30632:30745   */\n      jump(tag_679)\n    tag_681:\n        /* \"#utility.yul\":30763:30769   */\n      dup4\n        /* \"#utility.yul\":30760:30761   */\n      dup2\n        /* \"#utility.yul\":30757:30770   */\n      gt\n        /* \"#utility.yul\":30754:30855   */\n      iszero\n      tag_682\n      jumpi\n        /* \"#utility.yul\":30843:30844   */\n      0x00\n        /* \"#utility.yul\":30834:30840   */\n      dup5\n        /* \"#utility.yul\":30829:30832   */\n      dup5\n        /* \"#utility.yul\":30825:30841   */\n      add\n        /* \"#utility.yul\":30818:30845   */\n      mstore\n        /* \"#utility.yul\":30754:30855   */\n    tag_682:\n        /* \"#utility.yul\":30603:30861   */\n      pop\n        /* \"#utility.yul\":30554:30861   */\n      pop\n      pop\n      pop\n      jump\t// out\n        /* \"#utility.yul\":30867:31148   */\n    tag_641:\n        /* \"#utility.yul\":30950:30977   */\n      tag_684\n        /* \"#utility.yul\":30972:30976   */\n      dup3\n        /* \"#utility.yul\":30950:30977   */\n      tag_543\n      jump\t// in\n    tag_684:\n        /* \"#utility.yul\":30942:30948   */\n      dup2\n        /* \"#utility.yul\":30938:30978   */\n      add\n        /* \"#utility.yul\":31080:31086   */\n      dup2\n        /* \"#utility.yul\":31068:31078   */\n      dup2\n        /* \"#utility.yul\":31065:31087   */\n      lt\n        /* \"#utility.yul\":31044:31062   */\n      0xffffffffffffffff\n        /* \"#utility.yul\":31032:31042   */\n      dup3\n        /* \"#utility.yul\":31029:31063   */\n      gt\n        /* \"#utility.yul\":31026:31088   */\n      or\n        /* \"#utility.yul\":31023:31111   */\n      iszero\n      tag_685\n      jumpi\n        /* \"#utility.yul\":31091:31109   */\n      tag_686\n      tag_110\n      jump\t// in\n    tag_686:\n        /* \"#utility.yul\":31023:31111   */\n    tag_685:\n        /* \"#utility.yul\":31131:31141   */\n      dup1\n        /* \"#utility.yul\":31127:31129   */\n      0x40\n        /* \"#utility.yul\":31120:31142   */\n      mstore\n        /* \"#utility.yul\":30910:31148   */\n      pop\n        /* \"#utility.yul\":30867:31148   */\n      pop\n      pop\n      jump\t// out\n        /* \"#utility.yul\":31154:31334   */\n    tag_665:\n        /* \"#utility.yul\":31202:31279   */\n      0x4e487b7100000000000000000000000000000000000000000000000000000000\n        /* \"#utility.yul\":31199:31200   */\n      0x00\n        /* \"#utility.yul\":31192:31280   */\n      mstore\n        /* \"#utility.yul\":31299:31303   */\n      0x11\n        /* \"#utility.yul\":31296:31297   */\n      0x04\n        /* \"#utility.yul\":31289:31304   */\n      mstore\n        /* \"#utility.yul\":31323:31327   */\n      0x24\n        /* \"#utility.yul\":31320:31321   */\n      0x00\n        /* \"#utility.yul\":31313:31328   */\n      revert\n        /* \"#utility.yul\":31340:31520   */\n    tag_115:\n        /* \"#utility.yul\":31388:31465   */\n      0x4e487b7100000000000000000000000000000000000000000000000000000000\n        /* \"#utility.yul\":31385:31386   */\n      0x00\n        /* \"#utility.yul\":31378:31466   */\n      mstore\n        /* \"#utility.yul\":31485:31489   */\n      0x32\n        /* \"#utility.yul\":31482:31483   */\n      0x04\n        /* \"#utility.yul\":31475:31490   */\n      mstore\n        /* \"#utility.yul\":31509:31513   */\n      0x24\n        /* \"#utility.yul\":31506:31507   */\n      0x00\n        /* \"#utility.yul\":31499:31514   */\n      revert\n        /* \"#utility.yul\":31526:31706   */\n    tag_110:\n        /* \"#utility.yul\":31574:31651   */\n      0x4e487b7100000000000000000000000000000000000000000000000000000000\n        /* \"#utility.yul\":31571:31572   */\n      0x00\n        /* \"#utility.yul\":31564:31652   */\n      mstore\n        /* \"#utility.yul\":31671:31675   */\n      0x41\n        /* \"#utility.yul\":31668:31669   */\n      0x04\n        /* \"#utility.yul\":31661:31676   */\n      mstore\n        /* \"#utility.yul\":31695:31699   */\n      0x24\n        /* \"#utility.yul\":31692:31693   */\n      0x00\n        /* \"#utility.yul\":31685:31700   */\n      revert\n        /* \"#utility.yul\":31712:31829   */\n    tag_356:\n        /* \"#utility.yul\":31821:31822   */\n      0x00\n        /* \"#utility.yul\":31818:31819   */\n      dup1\n        /* \"#utility.yul\":31811:31823   */\n      revert\n        /* \"#utility.yul\":31835:31952   */\n    tag_332:\n        /* \"#utility.yul\":31944:31945   */\n      0x00\n        /* \"#utility.yul\":31941:31942   */\n      dup1\n        /* \"#utility.yul\":31934:31946   */\n      revert\n        /* \"#utility.yul\":31958:32075   */\n    tag_345:\n        /* \"#utility.yul\":32067:32068   */\n      0x00\n        /* \"#utility.yul\":32064:32065   */\n      dup1\n        /* \"#utility.yul\":32057:32069   */\n      revert\n        /* \"#utility.yul\":32081:32198   */\n    tag_380:\n        /* \"#utility.yul\":32190:32191   */\n      0x00\n        /* \"#utility.yul\":32187:32188   */\n      dup1\n        /* \"#utility.yul\":32180:32192   */\n      revert\n        /* \"#utility.yul\":32204:32321   */\n    tag_376:\n        /* \"#utility.yul\":32313:32314   */\n      0x00\n        /* \"#utility.yul\":32310:32311   */\n      dup1\n        /* \"#utility.yul\":32303:32315   */\n      revert\n        /* \"#utility.yul\":32327:32429   */\n    tag_543:\n        /* \"#utility.yul\":32368:32374   */\n      0x00\n        /* \"#utility.yul\":32419:32421   */\n      0x1f\n        /* \"#utility.yul\":32415:32422   */\n      not\n        /* \"#utility.yul\":32410:32412   */\n      0x1f\n        /* \"#utility.yul\":32403:32408   */\n      dup4\n        /* \"#utility.yul\":32399:32413   */\n      add\n        /* \"#utility.yul\":32395:32423   */\n      and\n        /* \"#utility.yul\":32385:32423   */\n      swap1\n      pop\n        /* \"#utility.yul\":32327:32429   */\n      swap2\n      swap1\n      pop\n      jump\t// out\n        /* \"#utility.yul\":32435:32673   */\n    tag_562:\n        /* \"#utility.yul\":32575:32609   */\n      0x5573657220646f6573206e6f74206861766520656e6f7567682062616c616e63\n        /* \"#utility.yul\":32571:32572   */\n      0x00\n        /* \"#utility.yul\":32563:32569   */\n      dup3\n        /* \"#utility.yul\":32559:32573   */\n      add\n        /* \"#utility.yul\":32552:32610   */\n      mstore\n        /* \"#utility.yul\":32644:32665   */\n      0x6520746f20616464206c69717569646974792e00000000000000000000000000\n        /* \"#utility.yul\":32639:32641   */\n      0x20\n        /* \"#utility.yul\":32631:32637   */\n      dup3\n        /* \"#utility.yul\":32627:32642   */\n      add\n        /* \"#utility.yul\":32620:32666   */\n      mstore\n        /* \"#utility.yul\":32435:32673   */\n      pop\n      jump\t// out\n        /* \"#utility.yul\":32679:32924   */\n    tag_567:\n        /* \"#utility.yul\":32819:32853   */\n      0x5573657220646f6573206e6f74206861766520656e6f7567682062616c616e63\n        /* \"#utility.yul\":32815:32816   */\n      0x00\n        /* \"#utility.yul\":32807:32813   */\n      dup3\n        /* \"#utility.yul\":32803:32817   */\n      add\n        /* \"#utility.yul\":32796:32854   */\n      mstore\n        /* \"#utility.yul\":32888:32916   */\n      0x6520746f207769746864726177207468697320616d6f756e742e000000000000\n        /* \"#utility.yul\":32883:32885   */\n      0x20\n        /* \"#utility.yul\":32875:32881   */\n      dup3\n        /* \"#utility.yul\":32871:32886   */\n      add\n        /* \"#utility.yul\":32864:32917   */\n      mstore\n        /* \"#utility.yul\":32679:32924   */\n      pop\n      jump\t// out\n        /* \"#utility.yul\":32930:33173   */\n    tag_572:\n        /* \"#utility.yul\":33070:33104   */\n      0x455243323020636f6e747261637420686173206e6f7420676976656e20706572\n        /* \"#utility.yul\":33066:33067   */\n      0x00\n        /* \"#utility.yul\":33058:33064   */\n      dup3\n        /* \"#utility.yul\":33054:33068   */\n      add\n        /* \"#utility.yul\":33047:33105   */\n      mstore\n        /* \"#utility.yul\":33139:33165   */\n      0x6d697373696f6e20746f207468697320616464726573732e0000000000000000\n        /* \"#utility.yul\":33134:33136   */\n      0x20\n        /* \"#utility.yul\":33126:33132   */\n      dup3\n        /* \"#utility.yul\":33122:33137   */\n      add\n        /* \"#utility.yul\":33115:33166   */\n      mstore\n        /* \"#utility.yul\":32930:33173   */\n      pop\n      jump\t// out\n        /* \"#utility.yul\":33179:33335   */\n    tag_577:\n        /* \"#utility.yul\":33319:33327   */\n      0x574d415449430000000000000000000000000000000000000000000000000000\n        /* \"#utility.yul\":33315:33316   */\n      0x00\n        /* \"#utility.yul\":33307:33313   */\n      dup3\n        /* \"#utility.yul\":33303:33317   */\n      add\n        /* \"#utility.yul\":33296:33328   */\n      mstore\n        /* \"#utility.yul\":33179:33335   */\n      pop\n      jump\t// out\n        /* \"#utility.yul\":33341:33463   */\n    tag_351:\n        /* \"#utility.yul\":33414:33438   */\n      tag_701\n        /* \"#utility.yul\":33432:33437   */\n      dup2\n        /* \"#utility.yul\":33414:33438   */\n      tag_512\n      jump\t// in\n    tag_701:\n        /* \"#utility.yul\":33407:33412   */\n      dup2\n        /* \"#utility.yul\":33404:33439   */\n      eq\n        /* \"#utility.yul\":33394:33457   */\n      tag_702\n      jumpi\n        /* \"#utility.yul\":33453:33454   */\n      0x00\n        /* \"#utility.yul\":33450:33451   */\n      dup1\n        /* \"#utility.yul\":33443:33455   */\n      revert\n        /* \"#utility.yul\":33394:33457   */\n    tag_702:\n        /* \"#utility.yul\":33341:33463   */\n      pop\n      jump\t// out\n        /* \"#utility.yul\":33469:33585   */\n    tag_361:\n        /* \"#utility.yul\":33539:33560   */\n      tag_704\n        /* \"#utility.yul\":33554:33559   */\n      dup2\n        /* \"#utility.yul\":33539:33560   */\n      tag_533\n      jump\t// in\n    tag_704:\n        /* \"#utility.yul\":33532:33537   */\n      dup2\n        /* \"#utility.yul\":33529:33561   */\n      eq\n        /* \"#utility.yul\":33519:33579   */\n      tag_705\n      jumpi\n        /* \"#utility.yul\":33575:33576   */\n      0x00\n        /* \"#utility.yul\":33572:33573   */\n      dup1\n        /* \"#utility.yul\":33565:33577   */\n      revert\n        /* \"#utility.yul\":33519:33579   */\n    tag_705:\n        /* \"#utility.yul\":33469:33585   */\n      pop\n      jump\t// out\n        /* \"#utility.yul\":33591:33713   */\n    tag_370:\n        /* \"#utility.yul\":33664:33688   */\n      tag_707\n        /* \"#utility.yul\":33682:33687   */\n      dup2\n        /* \"#utility.yul\":33664:33688   */\n      tag_581\n      jump\t// in\n    tag_707:\n        /* \"#utility.yul\":33657:33662   */\n      dup2\n        /* \"#utility.yul\":33654:33689   */\n      eq\n        /* \"#utility.yul\":33644:33707   */\n      tag_708\n      jumpi\n        /* \"#utility.yul\":33703:33704   */\n      0x00\n        /* \"#utility.yul\":33700:33701   */\n      dup1\n        /* \"#utility.yul\":33693:33705   */\n      revert\n        /* \"#utility.yul\":33644:33707   */\n    tag_708:\n        /* \"#utility.yul\":33591:33713   */\n      pop\n      jump\t// out\n\n    auxdata: 0xa26469706673582212207bb4da80f591f50ee5f93d2b5dbbe6f7a42e9ed1a9d15e4532a11a6795a375e564736f6c63430008070033\n}\n",
				"bytecode": {
					"linkReferences": {},
					"object": "60806040523480156200001157600080fd5b5033600260006101000a81548173ffffffffffffffffffffffffffffffffffffffff021916908373ffffffffffffffffffffffffffffffffffffffff1602179055506040518060400160405280738f3cf7ad23cd3cadbd9735aff958023239c6a06373ffffffffffffffffffffffffffffffffffffffff16815260200160128152506000604051620000a39062000958565b908152602001604051809103902060008201518160000160006101000a81548173ffffffffffffffffffffffffffffffffffffffff021916908373ffffffffffffffffffffffffffffffffffffffff160217905550602082015181600101559050506040518060400160405280737ceb23fd6bc0add59e62ac25578270cff1b9f61973ffffffffffffffffffffffffffffffffffffffff168152602001601281525060006040516200015590620008fc565b908152602001604051809103902060008201518160000160006101000a81548173ffffffffffffffffffffffffffffffffffffffff021916908373ffffffffffffffffffffffffffffffffffffffff160217905550602082015181600101559050506040518060400160405280730d500b1d8e8ef31e21c99d1db9a6444d3adf127073ffffffffffffffffffffffffffffffffffffffff16815260200160128152506000604051620002079062000986565b908152602001604051809103902060008201518160000160006101000a81548173ffffffffffffffffffffffffffffffffffffffff021916908373ffffffffffffffffffffffffffffffffffffffff160217905550602082015181600101559050506040518060400160405280732791bca1f2de4661ed88a30c99a7a9449aa8417473ffffffffffffffffffffffffffffffffffffffff16815260200160068152506000604051620002b9906200096f565b908152602001604051809103902060008201518160000160006101000a81548173ffffffffffffffffffffffffffffffffffffffff021916908373ffffffffffffffffffffffffffffffffffffffff16021790555060208201518160010155905050604051806040016040528073c2132d05d31c914a87c6611c10748aeb04b58e8f73ffffffffffffffffffffffffffffffffffffffff168152602001600681525060006040516200036b906200092a565b908152602001604051809103902060008201518160000160006101000a81548173ffffffffffffffffffffffffffffffffffffffff021916908373ffffffffffffffffffffffffffffffffffffffff160217905550602082015181600101559050506040518060400160405280731bfd67037b42cf73acf2047067bd4f2c47d9bfd673ffffffffffffffffffffffffffffffffffffffff168152602001600881525060006040516200041d9062000941565b908152602001604051809103902060008201518160000160006101000a81548173ffffffffffffffffffffffffffffffffffffffff021916908373ffffffffffffffffffffffffffffffffffffffff16021790555060208201518160010155905050604051806040016040528073f28164a485b0b2c90639e47b0f377b4a438a16b173ffffffffffffffffffffffffffffffffffffffff16815260200160128152506000604051620004cf9062000913565b908152602001604051809103902060008201518160000160006101000a81548173ffffffffffffffffffffffffffffffffffffffff021916908373ffffffffffffffffffffffffffffffffffffffff1602179055506020820151816001015590505073eef611894ceae652979c9d0dae1deb597790c6ee6001604051620005569062000986565b9081526020016040518091039020604051620005729062000958565b908152602001604051809103902060040160006101000a81548173ffffffffffffffffffffffffffffffffffffffff021916908373ffffffffffffffffffffffffffffffffffffffff16021790555060126001604051620005d39062000986565b9081526020016040518091039020604051620005ef9062000958565b90815260200160405180910390206005018190555060006001604051620006169062000986565b9081526020016040518091039020604051620006329062000958565b9081526020016040518091039020600701819055506000604051620006579062000986565b90815260200160405180910390206001604051620006759062000986565b9081526020016040518091039020604051620006919062000958565b90815260200160405180910390206000016000820160009054906101000a900473ffffffffffffffffffffffffffffffffffffffff168160000160006101000a81548173ffffffffffffffffffffffffffffffffffffffff021916908373ffffffffffffffffffffffffffffffffffffffff160217905550600182015481600101559050506000604051620007269062000958565b90815260200160405180910390206001604051620007449062000986565b9081526020016040518091039020604051620007609062000958565b90815260200160405180910390206002016000820160009054906101000a900473ffffffffffffffffffffffffffffffffffffffff168160000160006101000a81548173ffffffffffffffffffffffffffffffffffffffff021916908373ffffffffffffffffffffffffffffffffffffffff1602179055506001820154816001015590505062000ac7565b6000620007fa6004836200099d565b91506200080782620009a8565b600482019050919050565b6000620008216006836200099d565b91506200082e82620009d1565b600682019050919050565b6000620008486004836200099d565b91506200085582620009fa565b600482019050919050565b60006200086f6004836200099d565b91506200087c8262000a23565b600482019050919050565b6000620008966003836200099d565b9150620008a38262000a4c565b600382019050919050565b6000620008bd6004836200099d565b9150620008ca8262000a75565b600482019050919050565b6000620008e46006836200099d565b9150620008f18262000a9e565b600682019050919050565b60006200090982620007eb565b9150819050919050565b6000620009208262000812565b9150819050919050565b6000620009378262000839565b9150819050919050565b60006200094e8262000860565b9150819050919050565b6000620009658262000887565b9150819050919050565b60006200097c82620008ae565b9150819050919050565b60006200099382620008d5565b9150819050919050565b600081905092915050565b7f5745544800000000000000000000000000000000000000000000000000000000600082015250565b7f44515549434b0000000000000000000000000000000000000000000000000000600082015250565b7f5553445400000000000000000000000000000000000000000000000000000000600082015250565b7f5742544300000000000000000000000000000000000000000000000000000000600082015250565b7f4441490000000000000000000000000000000000000000000000000000000000600082015250565b7f5553444300000000000000000000000000000000000000000000000000000000600082015250565b7f574d415449430000000000000000000000000000000000000000000000000000600082015250565b61301b8062000ad76000396000f3fe6080604052600436106100e15760003560e01c80639bc97dee1161007f578063e4386ba311610059578063e4386ba3146102e0578063f68847351461031d578063f809a2e61461035a578063ff09156714610383576100e8565b80639bc97dee1461023d5780639d4d69c514610266578063c3a48401146102a3576100e8565b80637b60eb23116100bb5780637b60eb23146101905780637d3683ba1461019a578063884ef7bd146101d757806399269cae14610214576100e8565b80634ea44896146100ed5780636d336d6a1461012a5780637552acd614610167576100e8565b366100e857005b600080fd5b3480156100f957600080fd5b50610114600480360381019061010f91906121a7565b6103ac565b6040516101219190612ae0565b60405180910390f35b34801561013657600080fd5b50610151600480360381019061014c91906124d2565b61049c565b60405161015e9190612ae0565b60405180910390f35b34801561017357600080fd5b5061018e60048036038101906101899190612138565b6106d5565b005b6101986108c1565b005b3480156101a657600080fd5b506101c160048036038101906101bc9190612093565b610afe565b6040516101ce9190612ae0565b60405180910390f35b3480156101e357600080fd5b506101fe60048036038101906101f99190611f92565b610bd0565b60405161020b9190612ae0565b60405180910390f35b34801561022057600080fd5b5061023b600480360381019061023691906122aa565b610c56565b005b34801561024957600080fd5b50610264600480360381019061025f9190612449565b610e5c565b005b34801561027257600080fd5b5061028d600480360381019061028891906121a7565b611047565b60405161029a9190612ae0565b60405180910390f35b3480156102af57600080fd5b506102ca60048036038101906102c591906120dc565b611137565b6040516102d79190612ae0565b60405180910390f35b3480156102ec57600080fd5b5061030760048036038101906103029190612093565b61120a565b6040516103149190612ae0565b60405180910390f35b34801561032957600080fd5b50610344600480360381019061033f919061221f565b6112dc565b6040516103519190612ae0565b60405180910390f35b34801561036657600080fd5b50610381600480360381019061037c919061259d565b6113cd565b005b34801561038f57600080fd5b506103aa60048036038101906103a5919061236f565b6116dd565b005b60006001836040516103be9190612893565b9081526020016040518091039020826040516103da9190612893565b908152602001604051809103902060040160009054906101000a900473ffffffffffffffffffffffffffffffffffffffff1673ffffffffffffffffffffffffffffffffffffffff166370a08231336040518263ffffffff1660e01b815260040161044491906128bf565b60206040518083038186803b15801561045c57600080fd5b505afa158015610470573d6000803e3d6000fd5b505050506040513d601f19601f8201168201806040525081019061049491906124a5565b905092915050565b60006060600267ffffffffffffffff8111156104bb576104ba612e31565b5b6040519080825280602002602001820160405280156104e95781602001602082028036833780820191505090505b5090506000846040516104fc9190612893565b908152602001604051809103902060000160009054906101000a900473ffffffffffffffffffffffffffffffffffffffff168160008151811061054257610541612e02565b5b602002602001019073ffffffffffffffffffffffffffffffffffffffff16908173ffffffffffffffffffffffffffffffffffffffff168152505060008360405161058c9190612893565b908152602001604051809103902060000160009054906101000a900473ffffffffffffffffffffffffffffffffffffffff16816001815181106105d2576105d1612e02565b5b602002602001019073ffffffffffffffffffffffffffffffffffffffff16908173ffffffffffffffffffffffffffffffffffffffff168152505073a5e0829caced8ffdd4de3c43696c57f7d7a678ff73ffffffffffffffffffffffffffffffffffffffff1663d06ca61f86836040518363ffffffff1660e01b815260040161065b929190612afb565b60006040518083038186803b15801561067357600080fd5b505afa158015610687573d6000803e3d6000fd5b505050506040513d6000823e3d601f19601f820116820180604052508101906106b0919061201d565b6001815181106106c3576106c2612e02565b5b60200260200101519150509392505050565b6000836040516106e59190612893565b908152602001604051809103902060000160009054906101000a900473ffffffffffffffffffffffffffffffffffffffff16338383808473ffffffffffffffffffffffffffffffffffffffff1663dd62ed3e85856040518363ffffffff1660e01b81526004016107569291906128da565b60206040518083038186803b15801561076e57600080fd5b505afa158015610782573d6000803e3d6000fd5b505050506040513d601f19601f820116820180604052508101906107a691906124a5565b10156107e7576040517f08c379a00000000000000000000000000000000000000000000000000000000081526004016107de90612ac0565b60405180910390fd5b6000876040516107f79190612893565b908152602001604051809103902060000160009054906101000a900473ffffffffffffffffffffffffffffffffffffffff1673ffffffffffffffffffffffffffffffffffffffff166323b872dd3388886040518463ffffffff1660e01b815260040161086593929190612903565b602060405180830381600087803b15801561087f57600080fd5b505af1158015610893573d6000803e3d6000fd5b505050506040513d601f19601f820116820180604052508101906108b79190612066565b5050505050505050565b60008060006040516108d2906128aa565b908152602001604051809103902060000160009054906101000a900473ffffffffffffffffffffffffffffffffffffffff1673ffffffffffffffffffffffffffffffffffffffff16346040516024016040516020818303038152906040527fc5d24601000000000000000000000000000000000000000000000000000000007bffffffffffffffffffffffffffffffffffffffffffffffffffffffff19166020820180517bffffffffffffffffffffffffffffffffffffffffffffffffffffffff83818316178352505050506040516109ab919061287c565b60006040518083038185875af1925050503d80600081146109e8576040519150601f19603f3d011682016040523d82523d6000602084013e6109ed565b606091505b50915091506000604051610a00906128aa565b908152602001604051809103902060000160009054906101000a900473ffffffffffffffffffffffffffffffffffffffff1673ffffffffffffffffffffffffffffffffffffffff166323b872dd3033346040518463ffffffff1660e01b8152600401610a6e93929190612903565b602060405180830381600087803b158015610a8857600080fd5b505af1158015610a9c573d6000803e3d6000fd5b505050506040513d601f19601f82011682018060405250810190610ac09190612066565b507f13848c3e38f8886f3f5d2ad9dff80d8092c2bbb8efd5b887a99c2c6cfc09ac2a8282604051610af2929190612a50565b60405180910390a15050565b60008082604051610b0f9190612893565b908152602001604051809103902060000160009054906101000a900473ffffffffffffffffffffffffffffffffffffffff1673ffffffffffffffffffffffffffffffffffffffff166370a08231336040518263ffffffff1660e01b8152600401610b7991906128bf565b60206040518083038186803b158015610b9157600080fd5b505afa158015610ba5573d6000803e3d6000fd5b505050506040513d601f19601f82011682018060405250810190610bc991906124a5565b9050919050565b6000600183604051610be29190612893565b908152602001604051809103902082604051610bfe9190612893565b908152602001604051809103902060060160008573ffffffffffffffffffffffffffffffffffffffff1673ffffffffffffffffffffffffffffffffffffffff1681526020019081526020016000205490509392505050565b8586853381600185604051610c6b9190612893565b908152602001604051809103902084604051610c879190612893565b908152602001604051809103902060060160008373ffffffffffffffffffffffffffffffffffffffff1673ffffffffffffffffffffffffffffffffffffffff168152602001908152602001600020541015610d17576040517f08c379a0000000000000000000000000000000000000000000000000000000008152600401610d0e90612aa0565b60405180910390fd5b73a5e0829caced8ffdd4de3c43696c57f7d7a678ff73ffffffffffffffffffffffffffffffffffffffff1663baa2abde60008c604051610d579190612893565b908152602001604051809103902060000160009054906101000a900473ffffffffffffffffffffffffffffffffffffffff1660008c604051610d999190612893565b908152602001604051809103902060000160009054906101000a900473ffffffffffffffffffffffffffffffffffffffff168b8b8b338c6040518863ffffffff1660e01b8152600401610df2979695949392919061293a565b6040805180830381600087803b158015610e0b57600080fd5b505af1158015610e1f573d6000803e3d6000fd5b505050506040513d601f19601f82011682018060405250810190610e43919061255d565b5050610e508a8a33611c1f565b50505050505050505050565b600082604051610e6c9190612893565b908152602001604051809103902060000160009054906101000a900473ffffffffffffffffffffffffffffffffffffffff16333083808473ffffffffffffffffffffffffffffffffffffffff1663dd62ed3e85856040518363ffffffff1660e01b8152600401610edd9291906128da565b60206040518083038186803b158015610ef557600080fd5b505afa158015610f09573d6000803e3d6000fd5b505050506040513d601f19601f82011682018060405250810190610f2d91906124a5565b1015610f6e576040517f08c379a0000000000000000000000000000000000000000000000000000000008152600401610f6590612ac0565b60405180910390fd5b600086604051610f7e9190612893565b908152602001604051809103902060000160009054906101000a900473ffffffffffffffffffffffffffffffffffffffff1673ffffffffffffffffffffffffffffffffffffffff166323b872dd3330886040518463ffffffff1660e01b8152600401610fec93929190612903565b602060405180830381600087803b15801561100657600080fd5b505af115801561101a573d6000803e3d6000fd5b505050506040513d601f19601f8201168201806040525081019061103e9190612066565b50505050505050565b60006001836040516110599190612893565b9081526020016040518091039020826040516110759190612893565b908152602001604051809103902060040160009054906101000a900473ffffffffffffffffffffffffffffffffffffffff1673ffffffffffffffffffffffffffffffffffffffff166370a08231306040518263ffffffff1660e01b81526004016110df91906128bf565b60206040518083038186803b1580156110f757600080fd5b505afa15801561110b573d6000803e3d6000fd5b505050506040513d601f19601f8201168201806040525081019061112f91906124a5565b905092915050565b600080836040516111489190612893565b908152602001604051809103902060000160009054906101000a900473ffffffffffffffffffffffffffffffffffffffff1673ffffffffffffffffffffffffffffffffffffffff166370a08231836040518263ffffffff1660e01b81526004016111b291906128bf565b60206040518083038186803b1580156111ca57600080fd5b505afa1580156111de573d6000803e3d6000fd5b505050506040513d601f19601f8201168201806040525081019061120291906124a5565b905092915050565b6000808260405161121b9190612893565b908152602001604051809103902060000160009054906101000a900473ffffffffffffffffffffffffffffffffffffffff1673ffffffffffffffffffffffffffffffffffffffff166370a08231306040518263ffffffff1660e01b815260040161128591906128bf565b60206040518083038186803b15801561129d57600080fd5b505afa1580156112b1573d6000803e3d6000fd5b505050506040513d601f19601f820116820180604052508101906112d591906124a5565b9050919050565b60006001846040516112ee9190612893565b90815260200160405180910390208360405161130a9190612893565b908152602001604051809103902060040160009054906101000a900473ffffffffffffffffffffffffffffffffffffffff1673ffffffffffffffffffffffffffffffffffffffff166370a08231836040518263ffffffff1660e01b815260040161137491906128bf565b60206040518083038186803b15801561138c57600080fd5b505afa1580156113a0573d6000803e3d6000fd5b505050506040513d601f19601f820116820180604052508101906113c491906124a5565b90509392505050565b6113d78386610e5c565b6000600267ffffffffffffffff8111156113f4576113f3612e31565b5b6040519080825280602002602001820160405280156114225781602001602082028036833780820191505090505b5090506000846040516114359190612893565b908152602001604051809103902060000160009054906101000a900473ffffffffffffffffffffffffffffffffffffffff168160008151811061147b5761147a612e02565b5b602002602001019073ffffffffffffffffffffffffffffffffffffffff16908173ffffffffffffffffffffffffffffffffffffffff16815250506000836040516114c59190612893565b908152602001604051809103902060000160009054906101000a900473ffffffffffffffffffffffffffffffffffffffff168160018151811061150b5761150a612e02565b5b602002602001019073ffffffffffffffffffffffffffffffffffffffff16908173ffffffffffffffffffffffffffffffffffffffff16815250506000846040516115559190612893565b908152602001604051809103902060000160009054906101000a900473ffffffffffffffffffffffffffffffffffffffff1673ffffffffffffffffffffffffffffffffffffffff1663095ea7b373a5e0829caced8ffdd4de3c43696c57f7d7a678ff886040518363ffffffff1660e01b81526004016115d5929190612a27565b602060405180830381600087803b1580156115ef57600080fd5b505af1158015611603573d6000803e3d6000fd5b505050506040513d601f19601f820116820180604052508101906116279190612066565b5073a5e0829caced8ffdd4de3c43696c57f7d7a678ff73ffffffffffffffffffffffffffffffffffffffff166338ed173987878433876040518663ffffffff1660e01b815260040161167d959493929190612b2b565b600060405180830381600087803b15801561169757600080fd5b505af11580156116ab573d6000803e3d6000fd5b505050506040513d6000823e3d601f19601f820116820180604052508101906116d4919061201d565b50505050505050565b8686868633826000866040516116f39190612893565b908152602001604051809103902060000160009054906101000a900473ffffffffffffffffffffffffffffffffffffffff1673ffffffffffffffffffffffffffffffffffffffff166370a08231836040518263ffffffff1660e01b815260040161175d91906128bf565b60206040518083038186803b15801561177557600080fd5b505afa158015611789573d6000803e3d6000fd5b505050506040513d601f19601f820116820180604052508101906117ad91906124a5565b10156117ee576040517f08c379a00000000000000000000000000000000000000000000000000000000081526004016117e590612a80565b60405180910390fd5b816000856040516117ff9190612893565b908152602001604051809103902060000160009054906101000a900473ffffffffffffffffffffffffffffffffffffffff1673ffffffffffffffffffffffffffffffffffffffff166370a08231836040518263ffffffff1660e01b815260040161186991906128bf565b60206040518083038186803b15801561188157600080fd5b505afa158015611895573d6000803e3d6000fd5b505050506040513d601f19601f820116820180604052508101906118b991906124a5565b10156118fa576040517f08c379a00000000000000000000000000000000000000000000000000000000081526004016118f190612a80565b60405180910390fd5b6119048c8b610e5c565b61190e8b8a610e5c565b60008c60405161191e9190612893565b908152602001604051809103902060000160009054906101000a900473ffffffffffffffffffffffffffffffffffffffff1673ffffffffffffffffffffffffffffffffffffffff1663095ea7b373a5e0829caced8ffdd4de3c43696c57f7d7a678ff8c6040518363ffffffff1660e01b815260040161199e929190612a27565b602060405180830381600087803b1580156119b857600080fd5b505af11580156119cc573d6000803e3d6000fd5b505050506040513d601f19601f820116820180604052508101906119f09190612066565b5060008b604051611a019190612893565b908152602001604051809103902060000160009054906101000a900473ffffffffffffffffffffffffffffffffffffffff1673ffffffffffffffffffffffffffffffffffffffff1663095ea7b373a5e0829caced8ffdd4de3c43696c57f7d7a678ff8b6040518363ffffffff1660e01b8152600401611a81929190612a27565b602060405180830381600087803b158015611a9b57600080fd5b505af1158015611aaf573d6000803e3d6000fd5b505050506040513d601f19601f82011682018060405250810190611ad39190612066565b5073a5e0829caced8ffdd4de3c43696c57f7d7a678ff73ffffffffffffffffffffffffffffffffffffffff1663e8e3370060008e604051611b149190612893565b908152602001604051809103902060000160009054906101000a900473ffffffffffffffffffffffffffffffffffffffff1660008e604051611b569190612893565b908152602001604051809103902060000160009054906101000a900473ffffffffffffffffffffffffffffffffffffffff168d8d8d8d308e6040518963ffffffff1660e01b8152600401611bb19897969594939291906129a9565b606060405180830381600087803b158015611bcb57600080fd5b505af1158015611bdf573d6000803e3d6000fd5b505050506040513d601f19601f82011682018060405250810190611c039190612650565b505050611c118c8c33611c1f565b505050505050505050505050565b6000600184604051611c319190612893565b908152602001604051809103902083604051611c4d9190612893565b908152602001604051809103902060040160009054906101000a900473ffffffffffffffffffffffffffffffffffffffff1673ffffffffffffffffffffffffffffffffffffffff166370a08231306040518263ffffffff1660e01b8152600401611cb791906128bf565b60206040518083038186803b158015611ccf57600080fd5b505afa158015611ce3573d6000803e3d6000fd5b505050506040513d601f19601f82011682018060405250810190611d0791906124a5565b90506000600185604051611d1b9190612893565b908152602001604051809103902084604051611d379190612893565b90815260200160405180910390206007015482611d549190612ce4565b905080600186604051611d679190612893565b908152602001604051809103902085604051611d839190612893565b908152602001604051809103902060060160008573ffffffffffffffffffffffffffffffffffffffff1673ffffffffffffffffffffffffffffffffffffffff1681526020019081526020016000206000828254611de09190612c8e565b9250508190555081600186604051611df89190612893565b908152602001604051809103902085604051611e149190612893565b9081526020016040518091039020600701819055505050505050565b6000611e43611e3e84612baa565b612b85565b90508083825260208201905082856020860282011115611e6657611e65612e65565b5b60005b85811015611e965781611e7c8882611f7d565b845260208401935060208301925050600181019050611e69565b5050509392505050565b6000611eb3611eae84612bd6565b612b85565b905082815260208101848484011115611ecf57611ece612e6a565b5b611eda848285612d60565b509392505050565b600081359050611ef181612fa0565b92915050565b600082601f830112611f0c57611f0b612e60565b5b8151611f1c848260208601611e30565b91505092915050565b600081519050611f3481612fb7565b92915050565b600082601f830112611f4f57611f4e612e60565b5b8135611f5f848260208601611ea0565b91505092915050565b600081359050611f7781612fce565b92915050565b600081519050611f8c81612fce565b92915050565b600080600060608486031215611fab57611faa612e74565b5b6000611fb986828701611ee2565b935050602084013567ffffffffffffffff811115611fda57611fd9612e6f565b5b611fe686828701611f3a565b925050604084013567ffffffffffffffff81111561200757612006612e6f565b5b61201386828701611f3a565b9150509250925092565b60006020828403121561203357612032612e74565b5b600082015167ffffffffffffffff81111561205157612050612e6f565b5b61205d84828501611ef7565b91505092915050565b60006020828403121561207c5761207b612e74565b5b600061208a84828501611f25565b91505092915050565b6000602082840312156120a9576120a8612e74565b5b600082013567ffffffffffffffff8111156120c7576120c6612e6f565b5b6120d384828501611f3a565b91505092915050565b600080604083850312156120f3576120f2612e74565b5b600083013567ffffffffffffffff81111561211157612110612e6f565b5b61211d85828601611f3a565b925050602061212e85828601611ee2565b9150509250929050565b60008060006060848603121561215157612150612e74565b5b600084013567ffffffffffffffff81111561216f5761216e612e6f565b5b61217b86828701611f3a565b935050602061218c86828701611ee2565b925050604061219d86828701611f68565b9150509250925092565b600080604083850312156121be576121bd612e74565b5b600083013567ffffffffffffffff8111156121dc576121db612e6f565b5b6121e885828601611f3a565b925050602083013567ffffffffffffffff81111561220957612208612e6f565b5b61221585828601611f3a565b9150509250929050565b60008060006060848603121561223857612237612e74565b5b600084013567ffffffffffffffff81111561225657612255612e6f565b5b61226286828701611f3a565b935050602084013567ffffffffffffffff81111561228357612282612e6f565b5b61228f86828701611f3a565b92505060406122a086828701611ee2565b9150509250925092565b60008060008060008060c087890312156122c7576122c6612e74565b5b600087013567ffffffffffffffff8111156122e5576122e4612e6f565b5b6122f189828a01611f3a565b965050602087013567ffffffffffffffff81111561231257612311612e6f565b5b61231e89828a01611f3a565b955050604061232f89828a01611f68565b945050606061234089828a01611f68565b935050608061235189828a01611f68565b92505060a061236289828a01611f68565b9150509295509295509295565b600080600080600080600060e0888a03121561238e5761238d612e74565b5b600088013567ffffffffffffffff8111156123ac576123ab612e6f565b5b6123b88a828b01611f3a565b975050602088013567ffffffffffffffff8111156123d9576123d8612e6f565b5b6123e58a828b01611f3a565b96505060406123f68a828b01611f68565b95505060606124078a828b01611f68565b94505060806124188a828b01611f68565b93505060a06124298a828b01611f68565b92505060c061243a8a828b01611f68565b91505092959891949750929550565b600080604083850312156124605761245f612e74565b5b600083013567ffffffffffffffff81111561247e5761247d612e6f565b5b61248a85828601611f3a565b925050602061249b85828601611f68565b9150509250929050565b6000602082840312156124bb576124ba612e74565b5b60006124c984828501611f7d565b91505092915050565b6000806000606084860312156124eb576124ea612e74565b5b60006124f986828701611f68565b935050602084013567ffffffffffffffff81111561251a57612519612e6f565b5b61252686828701611f3a565b925050604084013567ffffffffffffffff81111561254757612546612e6f565b5b61255386828701611f3a565b9150509250925092565b6000806040838503121561257457612573612e74565b5b600061258285828601611f7d565b925050602061259385828601611f7d565b9150509250929050565b600080600080600060a086880312156125b9576125b8612e74565b5b60006125c788828901611f68565b95505060206125d888828901611f68565b945050604086013567ffffffffffffffff8111156125f9576125f8612e6f565b5b61260588828901611f3a565b935050606086013567ffffffffffffffff81111561262657612625612e6f565b5b61263288828901611f3a565b925050608061264388828901611f68565b9150509295509295909350565b60008060006060848603121561266957612668612e74565b5b600061267786828701611f7d565b935050602061268886828701611f7d565b925050604061269986828701611f7d565b9150509250925092565b60006126af83836126bb565b60208301905092915050565b6126c481612d18565b82525050565b6126d381612d18565b82525050565b60006126e482612c17565b6126ee8185612c45565b93506126f983612c07565b8060005b8381101561272a57815161271188826126a3565b975061271c83612c38565b9250506001810190506126fd565b5085935050505092915050565b61274081612d2a565b82525050565b600061275182612c22565b61275b8185612c56565b935061276b818560208601612d6f565b61277481612e79565b840191505092915050565b600061278a82612c22565b6127948185612c67565b93506127a4818560208601612d6f565b80840191505092915050565b60006127bb82612c2d565b6127c58185612c83565b93506127d5818560208601612d6f565b80840191505092915050565b60006127ee603383612c72565b91506127f982612e8a565b604082019050919050565b6000612811603a83612c72565b915061281c82612ed9565b604082019050919050565b6000612834603883612c72565b915061283f82612f28565b604082019050919050565b6000612857600683612c83565b915061286282612f77565b600682019050919050565b61287681612d56565b82525050565b6000612888828461277f565b915081905092915050565b600061289f82846127b0565b915081905092915050565b60006128b58261284a565b9150819050919050565b60006020820190506128d460008301846126ca565b92915050565b60006040820190506128ef60008301856126ca565b6128fc60208301846126ca565b9392505050565b600060608201905061291860008301866126ca565b61292560208301856126ca565b612932604083018461286d565b949350505050565b600060e08201905061294f600083018a6126ca565b61295c60208301896126ca565b612969604083018861286d565b612976606083018761286d565b612983608083018661286d565b61299060a08301856126ca565b61299d60c083018461286d565b98975050505050505050565b6000610100820190506129bf600083018b6126ca565b6129cc602083018a6126ca565b6129d9604083018961286d565b6129e6606083018861286d565b6129f3608083018761286d565b612a0060a083018661286d565b612a0d60c08301856126ca565b612a1a60e083018461286d565b9998505050505050505050565b6000604082019050612a3c60008301856126ca565b612a49602083018461286d565b9392505050565b6000604082019050612a656000830185612737565b8181036020830152612a778184612746565b90509392505050565b60006020820190508181036000830152612a99816127e1565b9050919050565b60006020820190508181036000830152612ab981612804565b9050919050565b60006020820190508181036000830152612ad981612827565b9050919050565b6000602082019050612af5600083018461286d565b92915050565b6000604082019050612b10600083018561286d565b8181036020830152612b2281846126d9565b90509392505050565b600060a082019050612b40600083018861286d565b612b4d602083018761286d565b8181036040830152612b5f81866126d9565b9050612b6e60608301856126ca565b612b7b608083018461286d565b9695505050505050565b6000612b8f612ba0565b9050612b9b8282612da2565b919050565b6000604051905090565b600067ffffffffffffffff821115612bc557612bc4612e31565b5b602082029050602081019050919050565b600067ffffffffffffffff821115612bf157612bf0612e31565b5b612bfa82612e79565b9050602081019050919050565b6000819050602082019050919050565b600081519050919050565b600081519050919050565b600081519050919050565b6000602082019050919050565b600082825260208201905092915050565b600082825260208201905092915050565b600081905092915050565b600082825260208201905092915050565b600081905092915050565b6000612c9982612d56565b9150612ca483612d56565b9250827fffffffffffffffffffffffffffffffffffffffffffffffffffffffffffffffff03821115612cd957612cd8612dd3565b5b828201905092915050565b6000612cef82612d56565b9150612cfa83612d56565b925082821015612d0d57612d0c612dd3565b5b828203905092915050565b6000612d2382612d36565b9050919050565b60008115159050919050565b600073ffffffffffffffffffffffffffffffffffffffff82169050919050565b6000819050919050565b82818337600083830152505050565b60005b83811015612d8d578082015181840152602081019050612d72565b83811115612d9c576000848401525b50505050565b612dab82612e79565b810181811067ffffffffffffffff82111715612dca57612dc9612e31565b5b80604052505050565b7f4e487b7100000000000000000000000000000000000000000000000000000000600052601160045260246000fd5b7f4e487b7100000000000000000000000000000000000000000000000000000000600052603260045260246000fd5b7f4e487b7100000000000000000000000000000000000000000000000000000000600052604160045260246000fd5b600080fd5b600080fd5b600080fd5b600080fd5b600080fd5b6000601f19601f8301169050919050565b7f5573657220646f6573206e6f74206861766520656e6f7567682062616c616e6360008201527f6520746f20616464206c69717569646974792e00000000000000000000000000602082015250565b7f5573657220646f6573206e6f74206861766520656e6f7567682062616c616e6360008201527f6520746f207769746864726177207468697320616d6f756e742e000000000000602082015250565b7f455243323020636f6e747261637420686173206e6f7420676976656e2070657260008201527f6d697373696f6e20746f207468697320616464726573732e0000000000000000602082015250565b7f574d415449430000000000000000000000000000000000000000000000000000600082015250565b612fa981612d18565b8114612fb457600080fd5b50565b612fc081612d2a565b8114612fcb57600080fd5b50565b612fd781612d56565b8114612fe257600080fd5b5056fea26469706673582212207bb4da80f591f50ee5f93d2b5dbbe6f7a42e9ed1a9d15e4532a11a6795a375e564736f6c63430008070033",
					"opcodes": "PUSH1 0x80 PUSH1 0x40 MSTORE CALLVALUE DUP1 ISZERO PUSH3 0x11 JUMPI PUSH1 0x0 DUP1 REVERT JUMPDEST POP CALLER PUSH1 0x2 PUSH1 0x0 PUSH2 0x100 EXP DUP2 SLOAD DUP2 PUSH20 0xFFFFFFFFFFFFFFFFFFFFFFFFFFFFFFFFFFFFFFFF MUL NOT AND SWAP1 DUP4 PUSH20 0xFFFFFFFFFFFFFFFFFFFFFFFFFFFFFFFFFFFFFFFF AND MUL OR SWAP1 SSTORE POP PUSH1 0x40 MLOAD DUP1 PUSH1 0x40 ADD PUSH1 0x40 MSTORE DUP1 PUSH20 0x8F3CF7AD23CD3CADBD9735AFF958023239C6A063 PUSH20 0xFFFFFFFFFFFFFFFFFFFFFFFFFFFFFFFFFFFFFFFF AND DUP2 MSTORE PUSH1 0x20 ADD PUSH1 0x12 DUP2 MSTORE POP PUSH1 0x0 PUSH1 0x40 MLOAD PUSH3 0xA3 SWAP1 PUSH3 0x958 JUMP JUMPDEST SWAP1 DUP2 MSTORE PUSH1 0x20 ADD PUSH1 0x40 MLOAD DUP1 SWAP2 SUB SWAP1 KECCAK256 PUSH1 0x0 DUP3 ADD MLOAD DUP2 PUSH1 0x0 ADD PUSH1 0x0 PUSH2 0x100 EXP DUP2 SLOAD DUP2 PUSH20 0xFFFFFFFFFFFFFFFFFFFFFFFFFFFFFFFFFFFFFFFF MUL NOT AND SWAP1 DUP4 PUSH20 0xFFFFFFFFFFFFFFFFFFFFFFFFFFFFFFFFFFFFFFFF AND MUL OR SWAP1 SSTORE POP PUSH1 0x20 DUP3 ADD MLOAD DUP2 PUSH1 0x1 ADD SSTORE SWAP1 POP POP PUSH1 0x40 MLOAD DUP1 PUSH1 0x40 ADD PUSH1 0x40 MSTORE DUP1 PUSH20 0x7CEB23FD6BC0ADD59E62AC25578270CFF1B9F619 PUSH20 0xFFFFFFFFFFFFFFFFFFFFFFFFFFFFFFFFFFFFFFFF AND DUP2 MSTORE PUSH1 0x20 ADD PUSH1 0x12 DUP2 MSTORE POP PUSH1 0x0 PUSH1 0x40 MLOAD PUSH3 0x155 SWAP1 PUSH3 0x8FC JUMP JUMPDEST SWAP1 DUP2 MSTORE PUSH1 0x20 ADD PUSH1 0x40 MLOAD DUP1 SWAP2 SUB SWAP1 KECCAK256 PUSH1 0x0 DUP3 ADD MLOAD DUP2 PUSH1 0x0 ADD PUSH1 0x0 PUSH2 0x100 EXP DUP2 SLOAD DUP2 PUSH20 0xFFFFFFFFFFFFFFFFFFFFFFFFFFFFFFFFFFFFFFFF MUL NOT AND SWAP1 DUP4 PUSH20 0xFFFFFFFFFFFFFFFFFFFFFFFFFFFFFFFFFFFFFFFF AND MUL OR SWAP1 SSTORE POP PUSH1 0x20 DUP3 ADD MLOAD DUP2 PUSH1 0x1 ADD SSTORE SWAP1 POP POP PUSH1 0x40 MLOAD DUP1 PUSH1 0x40 ADD PUSH1 0x40 MSTORE DUP1 PUSH20 0xD500B1D8E8EF31E21C99D1DB9A6444D3ADF1270 PUSH20 0xFFFFFFFFFFFFFFFFFFFFFFFFFFFFFFFFFFFFFFFF AND DUP2 MSTORE PUSH1 0x20 ADD PUSH1 0x12 DUP2 MSTORE POP PUSH1 0x0 PUSH1 0x40 MLOAD PUSH3 0x207 SWAP1 PUSH3 0x986 JUMP JUMPDEST SWAP1 DUP2 MSTORE PUSH1 0x20 ADD PUSH1 0x40 MLOAD DUP1 SWAP2 SUB SWAP1 KECCAK256 PUSH1 0x0 DUP3 ADD MLOAD DUP2 PUSH1 0x0 ADD PUSH1 0x0 PUSH2 0x100 EXP DUP2 SLOAD DUP2 PUSH20 0xFFFFFFFFFFFFFFFFFFFFFFFFFFFFFFFFFFFFFFFF MUL NOT AND SWAP1 DUP4 PUSH20 0xFFFFFFFFFFFFFFFFFFFFFFFFFFFFFFFFFFFFFFFF AND MUL OR SWAP1 SSTORE POP PUSH1 0x20 DUP3 ADD MLOAD DUP2 PUSH1 0x1 ADD SSTORE SWAP1 POP POP PUSH1 0x40 MLOAD DUP1 PUSH1 0x40 ADD PUSH1 0x40 MSTORE DUP1 PUSH20 0x2791BCA1F2DE4661ED88A30C99A7A9449AA84174 PUSH20 0xFFFFFFFFFFFFFFFFFFFFFFFFFFFFFFFFFFFFFFFF AND DUP2 MSTORE PUSH1 0x20 ADD PUSH1 0x6 DUP2 MSTORE POP PUSH1 0x0 PUSH1 0x40 MLOAD PUSH3 0x2B9 SWAP1 PUSH3 0x96F JUMP JUMPDEST SWAP1 DUP2 MSTORE PUSH1 0x20 ADD PUSH1 0x40 MLOAD DUP1 SWAP2 SUB SWAP1 KECCAK256 PUSH1 0x0 DUP3 ADD MLOAD DUP2 PUSH1 0x0 ADD PUSH1 0x0 PUSH2 0x100 EXP DUP2 SLOAD DUP2 PUSH20 0xFFFFFFFFFFFFFFFFFFFFFFFFFFFFFFFFFFFFFFFF MUL NOT AND SWAP1 DUP4 PUSH20 0xFFFFFFFFFFFFFFFFFFFFFFFFFFFFFFFFFFFFFFFF AND MUL OR SWAP1 SSTORE POP PUSH1 0x20 DUP3 ADD MLOAD DUP2 PUSH1 0x1 ADD SSTORE SWAP1 POP POP PUSH1 0x40 MLOAD DUP1 PUSH1 0x40 ADD PUSH1 0x40 MSTORE DUP1 PUSH20 0xC2132D05D31C914A87C6611C10748AEB04B58E8F PUSH20 0xFFFFFFFFFFFFFFFFFFFFFFFFFFFFFFFFFFFFFFFF AND DUP2 MSTORE PUSH1 0x20 ADD PUSH1 0x6 DUP2 MSTORE POP PUSH1 0x0 PUSH1 0x40 MLOAD PUSH3 0x36B SWAP1 PUSH3 0x92A JUMP JUMPDEST SWAP1 DUP2 MSTORE PUSH1 0x20 ADD PUSH1 0x40 MLOAD DUP1 SWAP2 SUB SWAP1 KECCAK256 PUSH1 0x0 DUP3 ADD MLOAD DUP2 PUSH1 0x0 ADD PUSH1 0x0 PUSH2 0x100 EXP DUP2 SLOAD DUP2 PUSH20 0xFFFFFFFFFFFFFFFFFFFFFFFFFFFFFFFFFFFFFFFF MUL NOT AND SWAP1 DUP4 PUSH20 0xFFFFFFFFFFFFFFFFFFFFFFFFFFFFFFFFFFFFFFFF AND MUL OR SWAP1 SSTORE POP PUSH1 0x20 DUP3 ADD MLOAD DUP2 PUSH1 0x1 ADD SSTORE SWAP1 POP POP PUSH1 0x40 MLOAD DUP1 PUSH1 0x40 ADD PUSH1 0x40 MSTORE DUP1 PUSH20 0x1BFD67037B42CF73ACF2047067BD4F2C47D9BFD6 PUSH20 0xFFFFFFFFFFFFFFFFFFFFFFFFFFFFFFFFFFFFFFFF AND DUP2 MSTORE PUSH1 0x20 ADD PUSH1 0x8 DUP2 MSTORE POP PUSH1 0x0 PUSH1 0x40 MLOAD PUSH3 0x41D SWAP1 PUSH3 0x941 JUMP JUMPDEST SWAP1 DUP2 MSTORE PUSH1 0x20 ADD PUSH1 0x40 MLOAD DUP1 SWAP2 SUB SWAP1 KECCAK256 PUSH1 0x0 DUP3 ADD MLOAD DUP2 PUSH1 0x0 ADD PUSH1 0x0 PUSH2 0x100 EXP DUP2 SLOAD DUP2 PUSH20 0xFFFFFFFFFFFFFFFFFFFFFFFFFFFFFFFFFFFFFFFF MUL NOT AND SWAP1 DUP4 PUSH20 0xFFFFFFFFFFFFFFFFFFFFFFFFFFFFFFFFFFFFFFFF AND MUL OR SWAP1 SSTORE POP PUSH1 0x20 DUP3 ADD MLOAD DUP2 PUSH1 0x1 ADD SSTORE SWAP1 POP POP PUSH1 0x40 MLOAD DUP1 PUSH1 0x40 ADD PUSH1 0x40 MSTORE DUP1 PUSH20 0xF28164A485B0B2C90639E47B0F377B4A438A16B1 PUSH20 0xFFFFFFFFFFFFFFFFFFFFFFFFFFFFFFFFFFFFFFFF AND DUP2 MSTORE PUSH1 0x20 ADD PUSH1 0x12 DUP2 MSTORE POP PUSH1 0x0 PUSH1 0x40 MLOAD PUSH3 0x4CF SWAP1 PUSH3 0x913 JUMP JUMPDEST SWAP1 DUP2 MSTORE PUSH1 0x20 ADD PUSH1 0x40 MLOAD DUP1 SWAP2 SUB SWAP1 KECCAK256 PUSH1 0x0 DUP3 ADD MLOAD DUP2 PUSH1 0x0 ADD PUSH1 0x0 PUSH2 0x100 EXP DUP2 SLOAD DUP2 PUSH20 0xFFFFFFFFFFFFFFFFFFFFFFFFFFFFFFFFFFFFFFFF MUL NOT AND SWAP1 DUP4 PUSH20 0xFFFFFFFFFFFFFFFFFFFFFFFFFFFFFFFFFFFFFFFF AND MUL OR SWAP1 SSTORE POP PUSH1 0x20 DUP3 ADD MLOAD DUP2 PUSH1 0x1 ADD SSTORE SWAP1 POP POP PUSH20 0xEEF611894CEAE652979C9D0DAE1DEB597790C6EE PUSH1 0x1 PUSH1 0x40 MLOAD PUSH3 0x556 SWAP1 PUSH3 0x986 JUMP JUMPDEST SWAP1 DUP2 MSTORE PUSH1 0x20 ADD PUSH1 0x40 MLOAD DUP1 SWAP2 SUB SWAP1 KECCAK256 PUSH1 0x40 MLOAD PUSH3 0x572 SWAP1 PUSH3 0x958 JUMP JUMPDEST SWAP1 DUP2 MSTORE PUSH1 0x20 ADD PUSH1 0x40 MLOAD DUP1 SWAP2 SUB SWAP1 KECCAK256 PUSH1 0x4 ADD PUSH1 0x0 PUSH2 0x100 EXP DUP2 SLOAD DUP2 PUSH20 0xFFFFFFFFFFFFFFFFFFFFFFFFFFFFFFFFFFFFFFFF MUL NOT AND SWAP1 DUP4 PUSH20 0xFFFFFFFFFFFFFFFFFFFFFFFFFFFFFFFFFFFFFFFF AND MUL OR SWAP1 SSTORE POP PUSH1 0x12 PUSH1 0x1 PUSH1 0x40 MLOAD PUSH3 0x5D3 SWAP1 PUSH3 0x986 JUMP JUMPDEST SWAP1 DUP2 MSTORE PUSH1 0x20 ADD PUSH1 0x40 MLOAD DUP1 SWAP2 SUB SWAP1 KECCAK256 PUSH1 0x40 MLOAD PUSH3 0x5EF SWAP1 PUSH3 0x958 JUMP JUMPDEST SWAP1 DUP2 MSTORE PUSH1 0x20 ADD PUSH1 0x40 MLOAD DUP1 SWAP2 SUB SWAP1 KECCAK256 PUSH1 0x5 ADD DUP2 SWAP1 SSTORE POP PUSH1 0x0 PUSH1 0x1 PUSH1 0x40 MLOAD PUSH3 0x616 SWAP1 PUSH3 0x986 JUMP JUMPDEST SWAP1 DUP2 MSTORE PUSH1 0x20 ADD PUSH1 0x40 MLOAD DUP1 SWAP2 SUB SWAP1 KECCAK256 PUSH1 0x40 MLOAD PUSH3 0x632 SWAP1 PUSH3 0x958 JUMP JUMPDEST SWAP1 DUP2 MSTORE PUSH1 0x20 ADD PUSH1 0x40 MLOAD DUP1 SWAP2 SUB SWAP1 KECCAK256 PUSH1 0x7 ADD DUP2 SWAP1 SSTORE POP PUSH1 0x0 PUSH1 0x40 MLOAD PUSH3 0x657 SWAP1 PUSH3 0x986 JUMP JUMPDEST SWAP1 DUP2 MSTORE PUSH1 0x20 ADD PUSH1 0x40 MLOAD DUP1 SWAP2 SUB SWAP1 KECCAK256 PUSH1 0x1 PUSH1 0x40 MLOAD PUSH3 0x675 SWAP1 PUSH3 0x986 JUMP JUMPDEST SWAP1 DUP2 MSTORE PUSH1 0x20 ADD PUSH1 0x40 MLOAD DUP1 SWAP2 SUB SWAP1 KECCAK256 PUSH1 0x40 MLOAD PUSH3 0x691 SWAP1 PUSH3 0x958 JUMP JUMPDEST SWAP1 DUP2 MSTORE PUSH1 0x20 ADD PUSH1 0x40 MLOAD DUP1 SWAP2 SUB SWAP1 KECCAK256 PUSH1 0x0 ADD PUSH1 0x0 DUP3 ADD PUSH1 0x0 SWAP1 SLOAD SWAP1 PUSH2 0x100 EXP SWAP1 DIV PUSH20 0xFFFFFFFFFFFFFFFFFFFFFFFFFFFFFFFFFFFFFFFF AND DUP2 PUSH1 0x0 ADD PUSH1 0x0 PUSH2 0x100 EXP DUP2 SLOAD DUP2 PUSH20 0xFFFFFFFFFFFFFFFFFFFFFFFFFFFFFFFFFFFFFFFF MUL NOT AND SWAP1 DUP4 PUSH20 0xFFFFFFFFFFFFFFFFFFFFFFFFFFFFFFFFFFFFFFFF AND MUL OR SWAP1 SSTORE POP PUSH1 0x1 DUP3 ADD SLOAD DUP2 PUSH1 0x1 ADD SSTORE SWAP1 POP POP PUSH1 0x0 PUSH1 0x40 MLOAD PUSH3 0x726 SWAP1 PUSH3 0x958 JUMP JUMPDEST SWAP1 DUP2 MSTORE PUSH1 0x20 ADD PUSH1 0x40 MLOAD DUP1 SWAP2 SUB SWAP1 KECCAK256 PUSH1 0x1 PUSH1 0x40 MLOAD PUSH3 0x744 SWAP1 PUSH3 0x986 JUMP JUMPDEST SWAP1 DUP2 MSTORE PUSH1 0x20 ADD PUSH1 0x40 MLOAD DUP1 SWAP2 SUB SWAP1 KECCAK256 PUSH1 0x40 MLOAD PUSH3 0x760 SWAP1 PUSH3 0x958 JUMP JUMPDEST SWAP1 DUP2 MSTORE PUSH1 0x20 ADD PUSH1 0x40 MLOAD DUP1 SWAP2 SUB SWAP1 KECCAK256 PUSH1 0x2 ADD PUSH1 0x0 DUP3 ADD PUSH1 0x0 SWAP1 SLOAD SWAP1 PUSH2 0x100 EXP SWAP1 DIV PUSH20 0xFFFFFFFFFFFFFFFFFFFFFFFFFFFFFFFFFFFFFFFF AND DUP2 PUSH1 0x0 ADD PUSH1 0x0 PUSH2 0x100 EXP DUP2 SLOAD DUP2 PUSH20 0xFFFFFFFFFFFFFFFFFFFFFFFFFFFFFFFFFFFFFFFF MUL NOT AND SWAP1 DUP4 PUSH20 0xFFFFFFFFFFFFFFFFFFFFFFFFFFFFFFFFFFFFFFFF AND MUL OR SWAP1 SSTORE POP PUSH1 0x1 DUP3 ADD SLOAD DUP2 PUSH1 0x1 ADD SSTORE SWAP1 POP POP PUSH3 0xAC7 JUMP JUMPDEST PUSH1 0x0 PUSH3 0x7FA PUSH1 0x4 DUP4 PUSH3 0x99D JUMP JUMPDEST SWAP2 POP PUSH3 0x807 DUP3 PUSH3 0x9A8 JUMP JUMPDEST PUSH1 0x4 DUP3 ADD SWAP1 POP SWAP2 SWAP1 POP JUMP JUMPDEST PUSH1 0x0 PUSH3 0x821 PUSH1 0x6 DUP4 PUSH3 0x99D JUMP JUMPDEST SWAP2 POP PUSH3 0x82E DUP3 PUSH3 0x9D1 JUMP JUMPDEST PUSH1 0x6 DUP3 ADD SWAP1 POP SWAP2 SWAP1 POP JUMP JUMPDEST PUSH1 0x0 PUSH3 0x848 PUSH1 0x4 DUP4 PUSH3 0x99D JUMP JUMPDEST SWAP2 POP PUSH3 0x855 DUP3 PUSH3 0x9FA JUMP JUMPDEST PUSH1 0x4 DUP3 ADD SWAP1 POP SWAP2 SWAP1 POP JUMP JUMPDEST PUSH1 0x0 PUSH3 0x86F PUSH1 0x4 DUP4 PUSH3 0x99D JUMP JUMPDEST SWAP2 POP PUSH3 0x87C DUP3 PUSH3 0xA23 JUMP JUMPDEST PUSH1 0x4 DUP3 ADD SWAP1 POP SWAP2 SWAP1 POP JUMP JUMPDEST PUSH1 0x0 PUSH3 0x896 PUSH1 0x3 DUP4 PUSH3 0x99D JUMP JUMPDEST SWAP2 POP PUSH3 0x8A3 DUP3 PUSH3 0xA4C JUMP JUMPDEST PUSH1 0x3 DUP3 ADD SWAP1 POP SWAP2 SWAP1 POP JUMP JUMPDEST PUSH1 0x0 PUSH3 0x8BD PUSH1 0x4 DUP4 PUSH3 0x99D JUMP JUMPDEST SWAP2 POP PUSH3 0x8CA DUP3 PUSH3 0xA75 JUMP JUMPDEST PUSH1 0x4 DUP3 ADD SWAP1 POP SWAP2 SWAP1 POP JUMP JUMPDEST PUSH1 0x0 PUSH3 0x8E4 PUSH1 0x6 DUP4 PUSH3 0x99D JUMP JUMPDEST SWAP2 POP PUSH3 0x8F1 DUP3 PUSH3 0xA9E JUMP JUMPDEST PUSH1 0x6 DUP3 ADD SWAP1 POP SWAP2 SWAP1 POP JUMP JUMPDEST PUSH1 0x0 PUSH3 0x909 DUP3 PUSH3 0x7EB JUMP JUMPDEST SWAP2 POP DUP2 SWAP1 POP SWAP2 SWAP1 POP JUMP JUMPDEST PUSH1 0x0 PUSH3 0x920 DUP3 PUSH3 0x812 JUMP JUMPDEST SWAP2 POP DUP2 SWAP1 POP SWAP2 SWAP1 POP JUMP JUMPDEST PUSH1 0x0 PUSH3 0x937 DUP3 PUSH3 0x839 JUMP JUMPDEST SWAP2 POP DUP2 SWAP1 POP SWAP2 SWAP1 POP JUMP JUMPDEST PUSH1 0x0 PUSH3 0x94E DUP3 PUSH3 0x860 JUMP JUMPDEST SWAP2 POP DUP2 SWAP1 POP SWAP2 SWAP1 POP JUMP JUMPDEST PUSH1 0x0 PUSH3 0x965 DUP3 PUSH3 0x887 JUMP JUMPDEST SWAP2 POP DUP2 SWAP1 POP SWAP2 SWAP1 POP JUMP JUMPDEST PUSH1 0x0 PUSH3 0x97C DUP3 PUSH3 0x8AE JUMP JUMPDEST SWAP2 POP DUP2 SWAP1 POP SWAP2 SWAP1 POP JUMP JUMPDEST PUSH1 0x0 PUSH3 0x993 DUP3 PUSH3 0x8D5 JUMP JUMPDEST SWAP2 POP DUP2 SWAP1 POP SWAP2 SWAP1 POP JUMP JUMPDEST PUSH1 0x0 DUP2 SWAP1 POP SWAP3 SWAP2 POP POP JUMP JUMPDEST PUSH32 0x5745544800000000000000000000000000000000000000000000000000000000 PUSH1 0x0 DUP3 ADD MSTORE POP JUMP JUMPDEST PUSH32 0x44515549434B0000000000000000000000000000000000000000000000000000 PUSH1 0x0 DUP3 ADD MSTORE POP JUMP JUMPDEST PUSH32 0x5553445400000000000000000000000000000000000000000000000000000000 PUSH1 0x0 DUP3 ADD MSTORE POP JUMP JUMPDEST PUSH32 0x5742544300000000000000000000000000000000000000000000000000000000 PUSH1 0x0 DUP3 ADD MSTORE POP JUMP JUMPDEST PUSH32 0x4441490000000000000000000000000000000000000000000000000000000000 PUSH1 0x0 DUP3 ADD MSTORE POP JUMP JUMPDEST PUSH32 0x5553444300000000000000000000000000000000000000000000000000000000 PUSH1 0x0 DUP3 ADD MSTORE POP JUMP JUMPDEST PUSH32 0x574D415449430000000000000000000000000000000000000000000000000000 PUSH1 0x0 DUP3 ADD MSTORE POP JUMP JUMPDEST PUSH2 0x301B DUP1 PUSH3 0xAD7 PUSH1 0x0 CODECOPY PUSH1 0x0 RETURN INVALID PUSH1 0x80 PUSH1 0x40 MSTORE PUSH1 0x4 CALLDATASIZE LT PUSH2 0xE1 JUMPI PUSH1 0x0 CALLDATALOAD PUSH1 0xE0 SHR DUP1 PUSH4 0x9BC97DEE GT PUSH2 0x7F JUMPI DUP1 PUSH4 0xE4386BA3 GT PUSH2 0x59 JUMPI DUP1 PUSH4 0xE4386BA3 EQ PUSH2 0x2E0 JUMPI DUP1 PUSH4 0xF6884735 EQ PUSH2 0x31D JUMPI DUP1 PUSH4 0xF809A2E6 EQ PUSH2 0x35A JUMPI DUP1 PUSH4 0xFF091567 EQ PUSH2 0x383 JUMPI PUSH2 0xE8 JUMP JUMPDEST DUP1 PUSH4 0x9BC97DEE EQ PUSH2 0x23D JUMPI DUP1 PUSH4 0x9D4D69C5 EQ PUSH2 0x266 JUMPI DUP1 PUSH4 0xC3A48401 EQ PUSH2 0x2A3 JUMPI PUSH2 0xE8 JUMP JUMPDEST DUP1 PUSH4 0x7B60EB23 GT PUSH2 0xBB JUMPI DUP1 PUSH4 0x7B60EB23 EQ PUSH2 0x190 JUMPI DUP1 PUSH4 0x7D3683BA EQ PUSH2 0x19A JUMPI DUP1 PUSH4 0x884EF7BD EQ PUSH2 0x1D7 JUMPI DUP1 PUSH4 0x99269CAE EQ PUSH2 0x214 JUMPI PUSH2 0xE8 JUMP JUMPDEST DUP1 PUSH4 0x4EA44896 EQ PUSH2 0xED JUMPI DUP1 PUSH4 0x6D336D6A EQ PUSH2 0x12A JUMPI DUP1 PUSH4 0x7552ACD6 EQ PUSH2 0x167 JUMPI PUSH2 0xE8 JUMP JUMPDEST CALLDATASIZE PUSH2 0xE8 JUMPI STOP JUMPDEST PUSH1 0x0 DUP1 REVERT JUMPDEST CALLVALUE DUP1 ISZERO PUSH2 0xF9 JUMPI PUSH1 0x0 DUP1 REVERT JUMPDEST POP PUSH2 0x114 PUSH1 0x4 DUP1 CALLDATASIZE SUB DUP2 ADD SWAP1 PUSH2 0x10F SWAP2 SWAP1 PUSH2 0x21A7 JUMP JUMPDEST PUSH2 0x3AC JUMP JUMPDEST PUSH1 0x40 MLOAD PUSH2 0x121 SWAP2 SWAP1 PUSH2 0x2AE0 JUMP JUMPDEST PUSH1 0x40 MLOAD DUP1 SWAP2 SUB SWAP1 RETURN JUMPDEST CALLVALUE DUP1 ISZERO PUSH2 0x136 JUMPI PUSH1 0x0 DUP1 REVERT JUMPDEST POP PUSH2 0x151 PUSH1 0x4 DUP1 CALLDATASIZE SUB DUP2 ADD SWAP1 PUSH2 0x14C SWAP2 SWAP1 PUSH2 0x24D2 JUMP JUMPDEST PUSH2 0x49C JUMP JUMPDEST PUSH1 0x40 MLOAD PUSH2 0x15E SWAP2 SWAP1 PUSH2 0x2AE0 JUMP JUMPDEST PUSH1 0x40 MLOAD DUP1 SWAP2 SUB SWAP1 RETURN JUMPDEST CALLVALUE DUP1 ISZERO PUSH2 0x173 JUMPI PUSH1 0x0 DUP1 REVERT JUMPDEST POP PUSH2 0x18E PUSH1 0x4 DUP1 CALLDATASIZE SUB DUP2 ADD SWAP1 PUSH2 0x189 SWAP2 SWAP1 PUSH2 0x2138 JUMP JUMPDEST PUSH2 0x6D5 JUMP JUMPDEST STOP JUMPDEST PUSH2 0x198 PUSH2 0x8C1 JUMP JUMPDEST STOP JUMPDEST CALLVALUE DUP1 ISZERO PUSH2 0x1A6 JUMPI PUSH1 0x0 DUP1 REVERT JUMPDEST POP PUSH2 0x1C1 PUSH1 0x4 DUP1 CALLDATASIZE SUB DUP2 ADD SWAP1 PUSH2 0x1BC SWAP2 SWAP1 PUSH2 0x2093 JUMP JUMPDEST PUSH2 0xAFE JUMP JUMPDEST PUSH1 0x40 MLOAD PUSH2 0x1CE SWAP2 SWAP1 PUSH2 0x2AE0 JUMP JUMPDEST PUSH1 0x40 MLOAD DUP1 SWAP2 SUB SWAP1 RETURN JUMPDEST CALLVALUE DUP1 ISZERO PUSH2 0x1E3 JUMPI PUSH1 0x0 DUP1 REVERT JUMPDEST POP PUSH2 0x1FE PUSH1 0x4 DUP1 CALLDATASIZE SUB DUP2 ADD SWAP1 PUSH2 0x1F9 SWAP2 SWAP1 PUSH2 0x1F92 JUMP JUMPDEST PUSH2 0xBD0 JUMP JUMPDEST PUSH1 0x40 MLOAD PUSH2 0x20B SWAP2 SWAP1 PUSH2 0x2AE0 JUMP JUMPDEST PUSH1 0x40 MLOAD DUP1 SWAP2 SUB SWAP1 RETURN JUMPDEST CALLVALUE DUP1 ISZERO PUSH2 0x220 JUMPI PUSH1 0x0 DUP1 REVERT JUMPDEST POP PUSH2 0x23B PUSH1 0x4 DUP1 CALLDATASIZE SUB DUP2 ADD SWAP1 PUSH2 0x236 SWAP2 SWAP1 PUSH2 0x22AA JUMP JUMPDEST PUSH2 0xC56 JUMP JUMPDEST STOP JUMPDEST CALLVALUE DUP1 ISZERO PUSH2 0x249 JUMPI PUSH1 0x0 DUP1 REVERT JUMPDEST POP PUSH2 0x264 PUSH1 0x4 DUP1 CALLDATASIZE SUB DUP2 ADD SWAP1 PUSH2 0x25F SWAP2 SWAP1 PUSH2 0x2449 JUMP JUMPDEST PUSH2 0xE5C JUMP JUMPDEST STOP JUMPDEST CALLVALUE DUP1 ISZERO PUSH2 0x272 JUMPI PUSH1 0x0 DUP1 REVERT JUMPDEST POP PUSH2 0x28D PUSH1 0x4 DUP1 CALLDATASIZE SUB DUP2 ADD SWAP1 PUSH2 0x288 SWAP2 SWAP1 PUSH2 0x21A7 JUMP JUMPDEST PUSH2 0x1047 JUMP JUMPDEST PUSH1 0x40 MLOAD PUSH2 0x29A SWAP2 SWAP1 PUSH2 0x2AE0 JUMP JUMPDEST PUSH1 0x40 MLOAD DUP1 SWAP2 SUB SWAP1 RETURN JUMPDEST CALLVALUE DUP1 ISZERO PUSH2 0x2AF JUMPI PUSH1 0x0 DUP1 REVERT JUMPDEST POP PUSH2 0x2CA PUSH1 0x4 DUP1 CALLDATASIZE SUB DUP2 ADD SWAP1 PUSH2 0x2C5 SWAP2 SWAP1 PUSH2 0x20DC JUMP JUMPDEST PUSH2 0x1137 JUMP JUMPDEST PUSH1 0x40 MLOAD PUSH2 0x2D7 SWAP2 SWAP1 PUSH2 0x2AE0 JUMP JUMPDEST PUSH1 0x40 MLOAD DUP1 SWAP2 SUB SWAP1 RETURN JUMPDEST CALLVALUE DUP1 ISZERO PUSH2 0x2EC JUMPI PUSH1 0x0 DUP1 REVERT JUMPDEST POP PUSH2 0x307 PUSH1 0x4 DUP1 CALLDATASIZE SUB DUP2 ADD SWAP1 PUSH2 0x302 SWAP2 SWAP1 PUSH2 0x2093 JUMP JUMPDEST PUSH2 0x120A JUMP JUMPDEST PUSH1 0x40 MLOAD PUSH2 0x314 SWAP2 SWAP1 PUSH2 0x2AE0 JUMP JUMPDEST PUSH1 0x40 MLOAD DUP1 SWAP2 SUB SWAP1 RETURN JUMPDEST CALLVALUE DUP1 ISZERO PUSH2 0x329 JUMPI PUSH1 0x0 DUP1 REVERT JUMPDEST POP PUSH2 0x344 PUSH1 0x4 DUP1 CALLDATASIZE SUB DUP2 ADD SWAP1 PUSH2 0x33F SWAP2 SWAP1 PUSH2 0x221F JUMP JUMPDEST PUSH2 0x12DC JUMP JUMPDEST PUSH1 0x40 MLOAD PUSH2 0x351 SWAP2 SWAP1 PUSH2 0x2AE0 JUMP JUMPDEST PUSH1 0x40 MLOAD DUP1 SWAP2 SUB SWAP1 RETURN JUMPDEST CALLVALUE DUP1 ISZERO PUSH2 0x366 JUMPI PUSH1 0x0 DUP1 REVERT JUMPDEST POP PUSH2 0x381 PUSH1 0x4 DUP1 CALLDATASIZE SUB DUP2 ADD SWAP1 PUSH2 0x37C SWAP2 SWAP1 PUSH2 0x259D JUMP JUMPDEST PUSH2 0x13CD JUMP JUMPDEST STOP JUMPDEST CALLVALUE DUP1 ISZERO PUSH2 0x38F JUMPI PUSH1 0x0 DUP1 REVERT JUMPDEST POP PUSH2 0x3AA PUSH1 0x4 DUP1 CALLDATASIZE SUB DUP2 ADD SWAP1 PUSH2 0x3A5 SWAP2 SWAP1 PUSH2 0x236F JUMP JUMPDEST PUSH2 0x16DD JUMP JUMPDEST STOP JUMPDEST PUSH1 0x0 PUSH1 0x1 DUP4 PUSH1 0x40 MLOAD PUSH2 0x3BE SWAP2 SWAP1 PUSH2 0x2893 JUMP JUMPDEST SWAP1 DUP2 MSTORE PUSH1 0x20 ADD PUSH1 0x40 MLOAD DUP1 SWAP2 SUB SWAP1 KECCAK256 DUP3 PUSH1 0x40 MLOAD PUSH2 0x3DA SWAP2 SWAP1 PUSH2 0x2893 JUMP JUMPDEST SWAP1 DUP2 MSTORE PUSH1 0x20 ADD PUSH1 0x40 MLOAD DUP1 SWAP2 SUB SWAP1 KECCAK256 PUSH1 0x4 ADD PUSH1 0x0 SWAP1 SLOAD SWAP1 PUSH2 0x100 EXP SWAP1 DIV PUSH20 0xFFFFFFFFFFFFFFFFFFFFFFFFFFFFFFFFFFFFFFFF AND PUSH20 0xFFFFFFFFFFFFFFFFFFFFFFFFFFFFFFFFFFFFFFFF AND PUSH4 0x70A08231 CALLER PUSH1 0x40 MLOAD DUP3 PUSH4 0xFFFFFFFF AND PUSH1 0xE0 SHL DUP2 MSTORE PUSH1 0x4 ADD PUSH2 0x444 SWAP2 SWAP1 PUSH2 0x28BF JUMP JUMPDEST PUSH1 0x20 PUSH1 0x40 MLOAD DUP1 DUP4 SUB DUP2 DUP7 DUP1 EXTCODESIZE ISZERO DUP1 ISZERO PUSH2 0x45C JUMPI PUSH1 0x0 DUP1 REVERT JUMPDEST POP GAS STATICCALL ISZERO DUP1 ISZERO PUSH2 0x470 JUMPI RETURNDATASIZE PUSH1 0x0 DUP1 RETURNDATACOPY RETURNDATASIZE PUSH1 0x0 REVERT JUMPDEST POP POP POP POP PUSH1 0x40 MLOAD RETURNDATASIZE PUSH1 0x1F NOT PUSH1 0x1F DUP3 ADD AND DUP3 ADD DUP1 PUSH1 0x40 MSTORE POP DUP2 ADD SWAP1 PUSH2 0x494 SWAP2 SWAP1 PUSH2 0x24A5 JUMP JUMPDEST SWAP1 POP SWAP3 SWAP2 POP POP JUMP JUMPDEST PUSH1 0x0 PUSH1 0x60 PUSH1 0x2 PUSH8 0xFFFFFFFFFFFFFFFF DUP2 GT ISZERO PUSH2 0x4BB JUMPI PUSH2 0x4BA PUSH2 0x2E31 JUMP JUMPDEST JUMPDEST PUSH1 0x40 MLOAD SWAP1 DUP1 DUP3 MSTORE DUP1 PUSH1 0x20 MUL PUSH1 0x20 ADD DUP3 ADD PUSH1 0x40 MSTORE DUP1 ISZERO PUSH2 0x4E9 JUMPI DUP2 PUSH1 0x20 ADD PUSH1 0x20 DUP3 MUL DUP1 CALLDATASIZE DUP4 CALLDATACOPY DUP1 DUP3 ADD SWAP2 POP POP SWAP1 POP JUMPDEST POP SWAP1 POP PUSH1 0x0 DUP5 PUSH1 0x40 MLOAD PUSH2 0x4FC SWAP2 SWAP1 PUSH2 0x2893 JUMP JUMPDEST SWAP1 DUP2 MSTORE PUSH1 0x20 ADD PUSH1 0x40 MLOAD DUP1 SWAP2 SUB SWAP1 KECCAK256 PUSH1 0x0 ADD PUSH1 0x0 SWAP1 SLOAD SWAP1 PUSH2 0x100 EXP SWAP1 DIV PUSH20 0xFFFFFFFFFFFFFFFFFFFFFFFFFFFFFFFFFFFFFFFF AND DUP2 PUSH1 0x0 DUP2 MLOAD DUP2 LT PUSH2 0x542 JUMPI PUSH2 0x541 PUSH2 0x2E02 JUMP JUMPDEST JUMPDEST PUSH1 0x20 MUL PUSH1 0x20 ADD ADD SWAP1 PUSH20 0xFFFFFFFFFFFFFFFFFFFFFFFFFFFFFFFFFFFFFFFF AND SWAP1 DUP2 PUSH20 0xFFFFFFFFFFFFFFFFFFFFFFFFFFFFFFFFFFFFFFFF AND DUP2 MSTORE POP POP PUSH1 0x0 DUP4 PUSH1 0x40 MLOAD PUSH2 0x58C SWAP2 SWAP1 PUSH2 0x2893 JUMP JUMPDEST SWAP1 DUP2 MSTORE PUSH1 0x20 ADD PUSH1 0x40 MLOAD DUP1 SWAP2 SUB SWAP1 KECCAK256 PUSH1 0x0 ADD PUSH1 0x0 SWAP1 SLOAD SWAP1 PUSH2 0x100 EXP SWAP1 DIV PUSH20 0xFFFFFFFFFFFFFFFFFFFFFFFFFFFFFFFFFFFFFFFF AND DUP2 PUSH1 0x1 DUP2 MLOAD DUP2 LT PUSH2 0x5D2 JUMPI PUSH2 0x5D1 PUSH2 0x2E02 JUMP JUMPDEST JUMPDEST PUSH1 0x20 MUL PUSH1 0x20 ADD ADD SWAP1 PUSH20 0xFFFFFFFFFFFFFFFFFFFFFFFFFFFFFFFFFFFFFFFF AND SWAP1 DUP2 PUSH20 0xFFFFFFFFFFFFFFFFFFFFFFFFFFFFFFFFFFFFFFFF AND DUP2 MSTORE POP POP PUSH20 0xA5E0829CACED8FFDD4DE3C43696C57F7D7A678FF PUSH20 0xFFFFFFFFFFFFFFFFFFFFFFFFFFFFFFFFFFFFFFFF AND PUSH4 0xD06CA61F DUP7 DUP4 PUSH1 0x40 MLOAD DUP4 PUSH4 0xFFFFFFFF AND PUSH1 0xE0 SHL DUP2 MSTORE PUSH1 0x4 ADD PUSH2 0x65B SWAP3 SWAP2 SWAP1 PUSH2 0x2AFB JUMP JUMPDEST PUSH1 0x0 PUSH1 0x40 MLOAD DUP1 DUP4 SUB DUP2 DUP7 DUP1 EXTCODESIZE ISZERO DUP1 ISZERO PUSH2 0x673 JUMPI PUSH1 0x0 DUP1 REVERT JUMPDEST POP GAS STATICCALL ISZERO DUP1 ISZERO PUSH2 0x687 JUMPI RETURNDATASIZE PUSH1 0x0 DUP1 RETURNDATACOPY RETURNDATASIZE PUSH1 0x0 REVERT JUMPDEST POP POP POP POP PUSH1 0x40 MLOAD RETURNDATASIZE PUSH1 0x0 DUP3 RETURNDATACOPY RETURNDATASIZE PUSH1 0x1F NOT PUSH1 0x1F DUP3 ADD AND DUP3 ADD DUP1 PUSH1 0x40 MSTORE POP DUP2 ADD SWAP1 PUSH2 0x6B0 SWAP2 SWAP1 PUSH2 0x201D JUMP JUMPDEST PUSH1 0x1 DUP2 MLOAD DUP2 LT PUSH2 0x6C3 JUMPI PUSH2 0x6C2 PUSH2 0x2E02 JUMP JUMPDEST JUMPDEST PUSH1 0x20 MUL PUSH1 0x20 ADD ADD MLOAD SWAP2 POP POP SWAP4 SWAP3 POP POP POP JUMP JUMPDEST PUSH1 0x0 DUP4 PUSH1 0x40 MLOAD PUSH2 0x6E5 SWAP2 SWAP1 PUSH2 0x2893 JUMP JUMPDEST SWAP1 DUP2 MSTORE PUSH1 0x20 ADD PUSH1 0x40 MLOAD DUP1 SWAP2 SUB SWAP1 KECCAK256 PUSH1 0x0 ADD PUSH1 0x0 SWAP1 SLOAD SWAP1 PUSH2 0x100 EXP SWAP1 DIV PUSH20 0xFFFFFFFFFFFFFFFFFFFFFFFFFFFFFFFFFFFFFFFF AND CALLER DUP4 DUP4 DUP1 DUP5 PUSH20 0xFFFFFFFFFFFFFFFFFFFFFFFFFFFFFFFFFFFFFFFF AND PUSH4 0xDD62ED3E DUP6 DUP6 PUSH1 0x40 MLOAD DUP4 PUSH4 0xFFFFFFFF AND PUSH1 0xE0 SHL DUP2 MSTORE PUSH1 0x4 ADD PUSH2 0x756 SWAP3 SWAP2 SWAP1 PUSH2 0x28DA JUMP JUMPDEST PUSH1 0x20 PUSH1 0x40 MLOAD DUP1 DUP4 SUB DUP2 DUP7 DUP1 EXTCODESIZE ISZERO DUP1 ISZERO PUSH2 0x76E JUMPI PUSH1 0x0 DUP1 REVERT JUMPDEST POP GAS STATICCALL ISZERO DUP1 ISZERO PUSH2 0x782 JUMPI RETURNDATASIZE PUSH1 0x0 DUP1 RETURNDATACOPY RETURNDATASIZE PUSH1 0x0 REVERT JUMPDEST POP POP POP POP PUSH1 0x40 MLOAD RETURNDATASIZE PUSH1 0x1F NOT PUSH1 0x1F DUP3 ADD AND DUP3 ADD DUP1 PUSH1 0x40 MSTORE POP DUP2 ADD SWAP1 PUSH2 0x7A6 SWAP2 SWAP1 PUSH2 0x24A5 JUMP JUMPDEST LT ISZERO PUSH2 0x7E7 JUMPI PUSH1 0x40 MLOAD PUSH32 0x8C379A000000000000000000000000000000000000000000000000000000000 DUP2 MSTORE PUSH1 0x4 ADD PUSH2 0x7DE SWAP1 PUSH2 0x2AC0 JUMP JUMPDEST PUSH1 0x40 MLOAD DUP1 SWAP2 SUB SWAP1 REVERT JUMPDEST PUSH1 0x0 DUP8 PUSH1 0x40 MLOAD PUSH2 0x7F7 SWAP2 SWAP1 PUSH2 0x2893 JUMP JUMPDEST SWAP1 DUP2 MSTORE PUSH1 0x20 ADD PUSH1 0x40 MLOAD DUP1 SWAP2 SUB SWAP1 KECCAK256 PUSH1 0x0 ADD PUSH1 0x0 SWAP1 SLOAD SWAP1 PUSH2 0x100 EXP SWAP1 DIV PUSH20 0xFFFFFFFFFFFFFFFFFFFFFFFFFFFFFFFFFFFFFFFF AND PUSH20 0xFFFFFFFFFFFFFFFFFFFFFFFFFFFFFFFFFFFFFFFF AND PUSH4 0x23B872DD CALLER DUP9 DUP9 PUSH1 0x40 MLOAD DUP5 PUSH4 0xFFFFFFFF AND PUSH1 0xE0 SHL DUP2 MSTORE PUSH1 0x4 ADD PUSH2 0x865 SWAP4 SWAP3 SWAP2 SWAP1 PUSH2 0x2903 JUMP JUMPDEST PUSH1 0x20 PUSH1 0x40 MLOAD DUP1 DUP4 SUB DUP2 PUSH1 0x0 DUP8 DUP1 EXTCODESIZE ISZERO DUP1 ISZERO PUSH2 0x87F JUMPI PUSH1 0x0 DUP1 REVERT JUMPDEST POP GAS CALL ISZERO DUP1 ISZERO PUSH2 0x893 JUMPI RETURNDATASIZE PUSH1 0x0 DUP1 RETURNDATACOPY RETURNDATASIZE PUSH1 0x0 REVERT JUMPDEST POP POP POP POP PUSH1 0x40 MLOAD RETURNDATASIZE PUSH1 0x1F NOT PUSH1 0x1F DUP3 ADD AND DUP3 ADD DUP1 PUSH1 0x40 MSTORE POP DUP2 ADD SWAP1 PUSH2 0x8B7 SWAP2 SWAP1 PUSH2 0x2066 JUMP JUMPDEST POP POP POP POP POP POP POP POP JUMP JUMPDEST PUSH1 0x0 DUP1 PUSH1 0x0 PUSH1 0x40 MLOAD PUSH2 0x8D2 SWAP1 PUSH2 0x28AA JUMP JUMPDEST SWAP1 DUP2 MSTORE PUSH1 0x20 ADD PUSH1 0x40 MLOAD DUP1 SWAP2 SUB SWAP1 KECCAK256 PUSH1 0x0 ADD PUSH1 0x0 SWAP1 SLOAD SWAP1 PUSH2 0x100 EXP SWAP1 DIV PUSH20 0xFFFFFFFFFFFFFFFFFFFFFFFFFFFFFFFFFFFFFFFF AND PUSH20 0xFFFFFFFFFFFFFFFFFFFFFFFFFFFFFFFFFFFFFFFF AND CALLVALUE PUSH1 0x40 MLOAD PUSH1 0x24 ADD PUSH1 0x40 MLOAD PUSH1 0x20 DUP2 DUP4 SUB SUB DUP2 MSTORE SWAP1 PUSH1 0x40 MSTORE PUSH32 0xC5D2460100000000000000000000000000000000000000000000000000000000 PUSH28 0xFFFFFFFFFFFFFFFFFFFFFFFFFFFFFFFFFFFFFFFFFFFFFFFFFFFFFFFF NOT AND PUSH1 0x20 DUP3 ADD DUP1 MLOAD PUSH28 0xFFFFFFFFFFFFFFFFFFFFFFFFFFFFFFFFFFFFFFFFFFFFFFFFFFFFFFFF DUP4 DUP2 DUP4 AND OR DUP4 MSTORE POP POP POP POP PUSH1 0x40 MLOAD PUSH2 0x9AB SWAP2 SWAP1 PUSH2 0x287C JUMP JUMPDEST PUSH1 0x0 PUSH1 0x40 MLOAD DUP1 DUP4 SUB DUP2 DUP6 DUP8 GAS CALL SWAP3 POP POP POP RETURNDATASIZE DUP1 PUSH1 0x0 DUP2 EQ PUSH2 0x9E8 JUMPI PUSH1 0x40 MLOAD SWAP2 POP PUSH1 0x1F NOT PUSH1 0x3F RETURNDATASIZE ADD AND DUP3 ADD PUSH1 0x40 MSTORE RETURNDATASIZE DUP3 MSTORE RETURNDATASIZE PUSH1 0x0 PUSH1 0x20 DUP5 ADD RETURNDATACOPY PUSH2 0x9ED JUMP JUMPDEST PUSH1 0x60 SWAP2 POP JUMPDEST POP SWAP2 POP SWAP2 POP PUSH1 0x0 PUSH1 0x40 MLOAD PUSH2 0xA00 SWAP1 PUSH2 0x28AA JUMP JUMPDEST SWAP1 DUP2 MSTORE PUSH1 0x20 ADD PUSH1 0x40 MLOAD DUP1 SWAP2 SUB SWAP1 KECCAK256 PUSH1 0x0 ADD PUSH1 0x0 SWAP1 SLOAD SWAP1 PUSH2 0x100 EXP SWAP1 DIV PUSH20 0xFFFFFFFFFFFFFFFFFFFFFFFFFFFFFFFFFFFFFFFF AND PUSH20 0xFFFFFFFFFFFFFFFFFFFFFFFFFFFFFFFFFFFFFFFF AND PUSH4 0x23B872DD ADDRESS CALLER CALLVALUE PUSH1 0x40 MLOAD DUP5 PUSH4 0xFFFFFFFF AND PUSH1 0xE0 SHL DUP2 MSTORE PUSH1 0x4 ADD PUSH2 0xA6E SWAP4 SWAP3 SWAP2 SWAP1 PUSH2 0x2903 JUMP JUMPDEST PUSH1 0x20 PUSH1 0x40 MLOAD DUP1 DUP4 SUB DUP2 PUSH1 0x0 DUP8 DUP1 EXTCODESIZE ISZERO DUP1 ISZERO PUSH2 0xA88 JUMPI PUSH1 0x0 DUP1 REVERT JUMPDEST POP GAS CALL ISZERO DUP1 ISZERO PUSH2 0xA9C JUMPI RETURNDATASIZE PUSH1 0x0 DUP1 RETURNDATACOPY RETURNDATASIZE PUSH1 0x0 REVERT JUMPDEST POP POP POP POP PUSH1 0x40 MLOAD RETURNDATASIZE PUSH1 0x1F NOT PUSH1 0x1F DUP3 ADD AND DUP3 ADD DUP1 PUSH1 0x40 MSTORE POP DUP2 ADD SWAP1 PUSH2 0xAC0 SWAP2 SWAP1 PUSH2 0x2066 JUMP JUMPDEST POP PUSH32 0x13848C3E38F8886F3F5D2AD9DFF80D8092C2BBB8EFD5B887A99C2C6CFC09AC2A DUP3 DUP3 PUSH1 0x40 MLOAD PUSH2 0xAF2 SWAP3 SWAP2 SWAP1 PUSH2 0x2A50 JUMP JUMPDEST PUSH1 0x40 MLOAD DUP1 SWAP2 SUB SWAP1 LOG1 POP POP JUMP JUMPDEST PUSH1 0x0 DUP1 DUP3 PUSH1 0x40 MLOAD PUSH2 0xB0F SWAP2 SWAP1 PUSH2 0x2893 JUMP JUMPDEST SWAP1 DUP2 MSTORE PUSH1 0x20 ADD PUSH1 0x40 MLOAD DUP1 SWAP2 SUB SWAP1 KECCAK256 PUSH1 0x0 ADD PUSH1 0x0 SWAP1 SLOAD SWAP1 PUSH2 0x100 EXP SWAP1 DIV PUSH20 0xFFFFFFFFFFFFFFFFFFFFFFFFFFFFFFFFFFFFFFFF AND PUSH20 0xFFFFFFFFFFFFFFFFFFFFFFFFFFFFFFFFFFFFFFFF AND PUSH4 0x70A08231 CALLER PUSH1 0x40 MLOAD DUP3 PUSH4 0xFFFFFFFF AND PUSH1 0xE0 SHL DUP2 MSTORE PUSH1 0x4 ADD PUSH2 0xB79 SWAP2 SWAP1 PUSH2 0x28BF JUMP JUMPDEST PUSH1 0x20 PUSH1 0x40 MLOAD DUP1 DUP4 SUB DUP2 DUP7 DUP1 EXTCODESIZE ISZERO DUP1 ISZERO PUSH2 0xB91 JUMPI PUSH1 0x0 DUP1 REVERT JUMPDEST POP GAS STATICCALL ISZERO DUP1 ISZERO PUSH2 0xBA5 JUMPI RETURNDATASIZE PUSH1 0x0 DUP1 RETURNDATACOPY RETURNDATASIZE PUSH1 0x0 REVERT JUMPDEST POP POP POP POP PUSH1 0x40 MLOAD RETURNDATASIZE PUSH1 0x1F NOT PUSH1 0x1F DUP3 ADD AND DUP3 ADD DUP1 PUSH1 0x40 MSTORE POP DUP2 ADD SWAP1 PUSH2 0xBC9 SWAP2 SWAP1 PUSH2 0x24A5 JUMP JUMPDEST SWAP1 POP SWAP2 SWAP1 POP JUMP JUMPDEST PUSH1 0x0 PUSH1 0x1 DUP4 PUSH1 0x40 MLOAD PUSH2 0xBE2 SWAP2 SWAP1 PUSH2 0x2893 JUMP JUMPDEST SWAP1 DUP2 MSTORE PUSH1 0x20 ADD PUSH1 0x40 MLOAD DUP1 SWAP2 SUB SWAP1 KECCAK256 DUP3 PUSH1 0x40 MLOAD PUSH2 0xBFE SWAP2 SWAP1 PUSH2 0x2893 JUMP JUMPDEST SWAP1 DUP2 MSTORE PUSH1 0x20 ADD PUSH1 0x40 MLOAD DUP1 SWAP2 SUB SWAP1 KECCAK256 PUSH1 0x6 ADD PUSH1 0x0 DUP6 PUSH20 0xFFFFFFFFFFFFFFFFFFFFFFFFFFFFFFFFFFFFFFFF AND PUSH20 0xFFFFFFFFFFFFFFFFFFFFFFFFFFFFFFFFFFFFFFFF AND DUP2 MSTORE PUSH1 0x20 ADD SWAP1 DUP2 MSTORE PUSH1 0x20 ADD PUSH1 0x0 KECCAK256 SLOAD SWAP1 POP SWAP4 SWAP3 POP POP POP JUMP JUMPDEST DUP6 DUP7 DUP6 CALLER DUP2 PUSH1 0x1 DUP6 PUSH1 0x40 MLOAD PUSH2 0xC6B SWAP2 SWAP1 PUSH2 0x2893 JUMP JUMPDEST SWAP1 DUP2 MSTORE PUSH1 0x20 ADD PUSH1 0x40 MLOAD DUP1 SWAP2 SUB SWAP1 KECCAK256 DUP5 PUSH1 0x40 MLOAD PUSH2 0xC87 SWAP2 SWAP1 PUSH2 0x2893 JUMP JUMPDEST SWAP1 DUP2 MSTORE PUSH1 0x20 ADD PUSH1 0x40 MLOAD DUP1 SWAP2 SUB SWAP1 KECCAK256 PUSH1 0x6 ADD PUSH1 0x0 DUP4 PUSH20 0xFFFFFFFFFFFFFFFFFFFFFFFFFFFFFFFFFFFFFFFF AND PUSH20 0xFFFFFFFFFFFFFFFFFFFFFFFFFFFFFFFFFFFFFFFF AND DUP2 MSTORE PUSH1 0x20 ADD SWAP1 DUP2 MSTORE PUSH1 0x20 ADD PUSH1 0x0 KECCAK256 SLOAD LT ISZERO PUSH2 0xD17 JUMPI PUSH1 0x40 MLOAD PUSH32 0x8C379A000000000000000000000000000000000000000000000000000000000 DUP2 MSTORE PUSH1 0x4 ADD PUSH2 0xD0E SWAP1 PUSH2 0x2AA0 JUMP JUMPDEST PUSH1 0x40 MLOAD DUP1 SWAP2 SUB SWAP1 REVERT JUMPDEST PUSH20 0xA5E0829CACED8FFDD4DE3C43696C57F7D7A678FF PUSH20 0xFFFFFFFFFFFFFFFFFFFFFFFFFFFFFFFFFFFFFFFF AND PUSH4 0xBAA2ABDE PUSH1 0x0 DUP13 PUSH1 0x40 MLOAD PUSH2 0xD57 SWAP2 SWAP1 PUSH2 0x2893 JUMP JUMPDEST SWAP1 DUP2 MSTORE PUSH1 0x20 ADD PUSH1 0x40 MLOAD DUP1 SWAP2 SUB SWAP1 KECCAK256 PUSH1 0x0 ADD PUSH1 0x0 SWAP1 SLOAD SWAP1 PUSH2 0x100 EXP SWAP1 DIV PUSH20 0xFFFFFFFFFFFFFFFFFFFFFFFFFFFFFFFFFFFFFFFF AND PUSH1 0x0 DUP13 PUSH1 0x40 MLOAD PUSH2 0xD99 SWAP2 SWAP1 PUSH2 0x2893 JUMP JUMPDEST SWAP1 DUP2 MSTORE PUSH1 0x20 ADD PUSH1 0x40 MLOAD DUP1 SWAP2 SUB SWAP1 KECCAK256 PUSH1 0x0 ADD PUSH1 0x0 SWAP1 SLOAD SWAP1 PUSH2 0x100 EXP SWAP1 DIV PUSH20 0xFFFFFFFFFFFFFFFFFFFFFFFFFFFFFFFFFFFFFFFF AND DUP12 DUP12 DUP12 CALLER DUP13 PUSH1 0x40 MLOAD DUP9 PUSH4 0xFFFFFFFF AND PUSH1 0xE0 SHL DUP2 MSTORE PUSH1 0x4 ADD PUSH2 0xDF2 SWAP8 SWAP7 SWAP6 SWAP5 SWAP4 SWAP3 SWAP2 SWAP1 PUSH2 0x293A JUMP JUMPDEST PUSH1 0x40 DUP1 MLOAD DUP1 DUP4 SUB DUP2 PUSH1 0x0 DUP8 DUP1 EXTCODESIZE ISZERO DUP1 ISZERO PUSH2 0xE0B JUMPI PUSH1 0x0 DUP1 REVERT JUMPDEST POP GAS CALL ISZERO DUP1 ISZERO PUSH2 0xE1F JUMPI RETURNDATASIZE PUSH1 0x0 DUP1 RETURNDATACOPY RETURNDATASIZE PUSH1 0x0 REVERT JUMPDEST POP POP POP POP PUSH1 0x40 MLOAD RETURNDATASIZE PUSH1 0x1F NOT PUSH1 0x1F DUP3 ADD AND DUP3 ADD DUP1 PUSH1 0x40 MSTORE POP DUP2 ADD SWAP1 PUSH2 0xE43 SWAP2 SWAP1 PUSH2 0x255D JUMP JUMPDEST POP POP PUSH2 0xE50 DUP11 DUP11 CALLER PUSH2 0x1C1F JUMP JUMPDEST POP POP POP POP POP POP POP POP POP POP JUMP JUMPDEST PUSH1 0x0 DUP3 PUSH1 0x40 MLOAD PUSH2 0xE6C SWAP2 SWAP1 PUSH2 0x2893 JUMP JUMPDEST SWAP1 DUP2 MSTORE PUSH1 0x20 ADD PUSH1 0x40 MLOAD DUP1 SWAP2 SUB SWAP1 KECCAK256 PUSH1 0x0 ADD PUSH1 0x0 SWAP1 SLOAD SWAP1 PUSH2 0x100 EXP SWAP1 DIV PUSH20 0xFFFFFFFFFFFFFFFFFFFFFFFFFFFFFFFFFFFFFFFF AND CALLER ADDRESS DUP4 DUP1 DUP5 PUSH20 0xFFFFFFFFFFFFFFFFFFFFFFFFFFFFFFFFFFFFFFFF AND PUSH4 0xDD62ED3E DUP6 DUP6 PUSH1 0x40 MLOAD DUP4 PUSH4 0xFFFFFFFF AND PUSH1 0xE0 SHL DUP2 MSTORE PUSH1 0x4 ADD PUSH2 0xEDD SWAP3 SWAP2 SWAP1 PUSH2 0x28DA JUMP JUMPDEST PUSH1 0x20 PUSH1 0x40 MLOAD DUP1 DUP4 SUB DUP2 DUP7 DUP1 EXTCODESIZE ISZERO DUP1 ISZERO PUSH2 0xEF5 JUMPI PUSH1 0x0 DUP1 REVERT JUMPDEST POP GAS STATICCALL ISZERO DUP1 ISZERO PUSH2 0xF09 JUMPI RETURNDATASIZE PUSH1 0x0 DUP1 RETURNDATACOPY RETURNDATASIZE PUSH1 0x0 REVERT JUMPDEST POP POP POP POP PUSH1 0x40 MLOAD RETURNDATASIZE PUSH1 0x1F NOT PUSH1 0x1F DUP3 ADD AND DUP3 ADD DUP1 PUSH1 0x40 MSTORE POP DUP2 ADD SWAP1 PUSH2 0xF2D SWAP2 SWAP1 PUSH2 0x24A5 JUMP JUMPDEST LT ISZERO PUSH2 0xF6E JUMPI PUSH1 0x40 MLOAD PUSH32 0x8C379A000000000000000000000000000000000000000000000000000000000 DUP2 MSTORE PUSH1 0x4 ADD PUSH2 0xF65 SWAP1 PUSH2 0x2AC0 JUMP JUMPDEST PUSH1 0x40 MLOAD DUP1 SWAP2 SUB SWAP1 REVERT JUMPDEST PUSH1 0x0 DUP7 PUSH1 0x40 MLOAD PUSH2 0xF7E SWAP2 SWAP1 PUSH2 0x2893 JUMP JUMPDEST SWAP1 DUP2 MSTORE PUSH1 0x20 ADD PUSH1 0x40 MLOAD DUP1 SWAP2 SUB SWAP1 KECCAK256 PUSH1 0x0 ADD PUSH1 0x0 SWAP1 SLOAD SWAP1 PUSH2 0x100 EXP SWAP1 DIV PUSH20 0xFFFFFFFFFFFFFFFFFFFFFFFFFFFFFFFFFFFFFFFF AND PUSH20 0xFFFFFFFFFFFFFFFFFFFFFFFFFFFFFFFFFFFFFFFF AND PUSH4 0x23B872DD CALLER ADDRESS DUP9 PUSH1 0x40 MLOAD DUP5 PUSH4 0xFFFFFFFF AND PUSH1 0xE0 SHL DUP2 MSTORE PUSH1 0x4 ADD PUSH2 0xFEC SWAP4 SWAP3 SWAP2 SWAP1 PUSH2 0x2903 JUMP JUMPDEST PUSH1 0x20 PUSH1 0x40 MLOAD DUP1 DUP4 SUB DUP2 PUSH1 0x0 DUP8 DUP1 EXTCODESIZE ISZERO DUP1 ISZERO PUSH2 0x1006 JUMPI PUSH1 0x0 DUP1 REVERT JUMPDEST POP GAS CALL ISZERO DUP1 ISZERO PUSH2 0x101A JUMPI RETURNDATASIZE PUSH1 0x0 DUP1 RETURNDATACOPY RETURNDATASIZE PUSH1 0x0 REVERT JUMPDEST POP POP POP POP PUSH1 0x40 MLOAD RETURNDATASIZE PUSH1 0x1F NOT PUSH1 0x1F DUP3 ADD AND DUP3 ADD DUP1 PUSH1 0x40 MSTORE POP DUP2 ADD SWAP1 PUSH2 0x103E SWAP2 SWAP1 PUSH2 0x2066 JUMP JUMPDEST POP POP POP POP POP POP POP JUMP JUMPDEST PUSH1 0x0 PUSH1 0x1 DUP4 PUSH1 0x40 MLOAD PUSH2 0x1059 SWAP2 SWAP1 PUSH2 0x2893 JUMP JUMPDEST SWAP1 DUP2 MSTORE PUSH1 0x20 ADD PUSH1 0x40 MLOAD DUP1 SWAP2 SUB SWAP1 KECCAK256 DUP3 PUSH1 0x40 MLOAD PUSH2 0x1075 SWAP2 SWAP1 PUSH2 0x2893 JUMP JUMPDEST SWAP1 DUP2 MSTORE PUSH1 0x20 ADD PUSH1 0x40 MLOAD DUP1 SWAP2 SUB SWAP1 KECCAK256 PUSH1 0x4 ADD PUSH1 0x0 SWAP1 SLOAD SWAP1 PUSH2 0x100 EXP SWAP1 DIV PUSH20 0xFFFFFFFFFFFFFFFFFFFFFFFFFFFFFFFFFFFFFFFF AND PUSH20 0xFFFFFFFFFFFFFFFFFFFFFFFFFFFFFFFFFFFFFFFF AND PUSH4 0x70A08231 ADDRESS PUSH1 0x40 MLOAD DUP3 PUSH4 0xFFFFFFFF AND PUSH1 0xE0 SHL DUP2 MSTORE PUSH1 0x4 ADD PUSH2 0x10DF SWAP2 SWAP1 PUSH2 0x28BF JUMP JUMPDEST PUSH1 0x20 PUSH1 0x40 MLOAD DUP1 DUP4 SUB DUP2 DUP7 DUP1 EXTCODESIZE ISZERO DUP1 ISZERO PUSH2 0x10F7 JUMPI PUSH1 0x0 DUP1 REVERT JUMPDEST POP GAS STATICCALL ISZERO DUP1 ISZERO PUSH2 0x110B JUMPI RETURNDATASIZE PUSH1 0x0 DUP1 RETURNDATACOPY RETURNDATASIZE PUSH1 0x0 REVERT JUMPDEST POP POP POP POP PUSH1 0x40 MLOAD RETURNDATASIZE PUSH1 0x1F NOT PUSH1 0x1F DUP3 ADD AND DUP3 ADD DUP1 PUSH1 0x40 MSTORE POP DUP2 ADD SWAP1 PUSH2 0x112F SWAP2 SWAP1 PUSH2 0x24A5 JUMP JUMPDEST SWAP1 POP SWAP3 SWAP2 POP POP JUMP JUMPDEST PUSH1 0x0 DUP1 DUP4 PUSH1 0x40 MLOAD PUSH2 0x1148 SWAP2 SWAP1 PUSH2 0x2893 JUMP JUMPDEST SWAP1 DUP2 MSTORE PUSH1 0x20 ADD PUSH1 0x40 MLOAD DUP1 SWAP2 SUB SWAP1 KECCAK256 PUSH1 0x0 ADD PUSH1 0x0 SWAP1 SLOAD SWAP1 PUSH2 0x100 EXP SWAP1 DIV PUSH20 0xFFFFFFFFFFFFFFFFFFFFFFFFFFFFFFFFFFFFFFFF AND PUSH20 0xFFFFFFFFFFFFFFFFFFFFFFFFFFFFFFFFFFFFFFFF AND PUSH4 0x70A08231 DUP4 PUSH1 0x40 MLOAD DUP3 PUSH4 0xFFFFFFFF AND PUSH1 0xE0 SHL DUP2 MSTORE PUSH1 0x4 ADD PUSH2 0x11B2 SWAP2 SWAP1 PUSH2 0x28BF JUMP JUMPDEST PUSH1 0x20 PUSH1 0x40 MLOAD DUP1 DUP4 SUB DUP2 DUP7 DUP1 EXTCODESIZE ISZERO DUP1 ISZERO PUSH2 0x11CA JUMPI PUSH1 0x0 DUP1 REVERT JUMPDEST POP GAS STATICCALL ISZERO DUP1 ISZERO PUSH2 0x11DE JUMPI RETURNDATASIZE PUSH1 0x0 DUP1 RETURNDATACOPY RETURNDATASIZE PUSH1 0x0 REVERT JUMPDEST POP POP POP POP PUSH1 0x40 MLOAD RETURNDATASIZE PUSH1 0x1F NOT PUSH1 0x1F DUP3 ADD AND DUP3 ADD DUP1 PUSH1 0x40 MSTORE POP DUP2 ADD SWAP1 PUSH2 0x1202 SWAP2 SWAP1 PUSH2 0x24A5 JUMP JUMPDEST SWAP1 POP SWAP3 SWAP2 POP POP JUMP JUMPDEST PUSH1 0x0 DUP1 DUP3 PUSH1 0x40 MLOAD PUSH2 0x121B SWAP2 SWAP1 PUSH2 0x2893 JUMP JUMPDEST SWAP1 DUP2 MSTORE PUSH1 0x20 ADD PUSH1 0x40 MLOAD DUP1 SWAP2 SUB SWAP1 KECCAK256 PUSH1 0x0 ADD PUSH1 0x0 SWAP1 SLOAD SWAP1 PUSH2 0x100 EXP SWAP1 DIV PUSH20 0xFFFFFFFFFFFFFFFFFFFFFFFFFFFFFFFFFFFFFFFF AND PUSH20 0xFFFFFFFFFFFFFFFFFFFFFFFFFFFFFFFFFFFFFFFF AND PUSH4 0x70A08231 ADDRESS PUSH1 0x40 MLOAD DUP3 PUSH4 0xFFFFFFFF AND PUSH1 0xE0 SHL DUP2 MSTORE PUSH1 0x4 ADD PUSH2 0x1285 SWAP2 SWAP1 PUSH2 0x28BF JUMP JUMPDEST PUSH1 0x20 PUSH1 0x40 MLOAD DUP1 DUP4 SUB DUP2 DUP7 DUP1 EXTCODESIZE ISZERO DUP1 ISZERO PUSH2 0x129D JUMPI PUSH1 0x0 DUP1 REVERT JUMPDEST POP GAS STATICCALL ISZERO DUP1 ISZERO PUSH2 0x12B1 JUMPI RETURNDATASIZE PUSH1 0x0 DUP1 RETURNDATACOPY RETURNDATASIZE PUSH1 0x0 REVERT JUMPDEST POP POP POP POP PUSH1 0x40 MLOAD RETURNDATASIZE PUSH1 0x1F NOT PUSH1 0x1F DUP3 ADD AND DUP3 ADD DUP1 PUSH1 0x40 MSTORE POP DUP2 ADD SWAP1 PUSH2 0x12D5 SWAP2 SWAP1 PUSH2 0x24A5 JUMP JUMPDEST SWAP1 POP SWAP2 SWAP1 POP JUMP JUMPDEST PUSH1 0x0 PUSH1 0x1 DUP5 PUSH1 0x40 MLOAD PUSH2 0x12EE SWAP2 SWAP1 PUSH2 0x2893 JUMP JUMPDEST SWAP1 DUP2 MSTORE PUSH1 0x20 ADD PUSH1 0x40 MLOAD DUP1 SWAP2 SUB SWAP1 KECCAK256 DUP4 PUSH1 0x40 MLOAD PUSH2 0x130A SWAP2 SWAP1 PUSH2 0x2893 JUMP JUMPDEST SWAP1 DUP2 MSTORE PUSH1 0x20 ADD PUSH1 0x40 MLOAD DUP1 SWAP2 SUB SWAP1 KECCAK256 PUSH1 0x4 ADD PUSH1 0x0 SWAP1 SLOAD SWAP1 PUSH2 0x100 EXP SWAP1 DIV PUSH20 0xFFFFFFFFFFFFFFFFFFFFFFFFFFFFFFFFFFFFFFFF AND PUSH20 0xFFFFFFFFFFFFFFFFFFFFFFFFFFFFFFFFFFFFFFFF AND PUSH4 0x70A08231 DUP4 PUSH1 0x40 MLOAD DUP3 PUSH4 0xFFFFFFFF AND PUSH1 0xE0 SHL DUP2 MSTORE PUSH1 0x4 ADD PUSH2 0x1374 SWAP2 SWAP1 PUSH2 0x28BF JUMP JUMPDEST PUSH1 0x20 PUSH1 0x40 MLOAD DUP1 DUP4 SUB DUP2 DUP7 DUP1 EXTCODESIZE ISZERO DUP1 ISZERO PUSH2 0x138C JUMPI PUSH1 0x0 DUP1 REVERT JUMPDEST POP GAS STATICCALL ISZERO DUP1 ISZERO PUSH2 0x13A0 JUMPI RETURNDATASIZE PUSH1 0x0 DUP1 RETURNDATACOPY RETURNDATASIZE PUSH1 0x0 REVERT JUMPDEST POP POP POP POP PUSH1 0x40 MLOAD RETURNDATASIZE PUSH1 0x1F NOT PUSH1 0x1F DUP3 ADD AND DUP3 ADD DUP1 PUSH1 0x40 MSTORE POP DUP2 ADD SWAP1 PUSH2 0x13C4 SWAP2 SWAP1 PUSH2 0x24A5 JUMP JUMPDEST SWAP1 POP SWAP4 SWAP3 POP POP POP JUMP JUMPDEST PUSH2 0x13D7 DUP4 DUP7 PUSH2 0xE5C JUMP JUMPDEST PUSH1 0x0 PUSH1 0x2 PUSH8 0xFFFFFFFFFFFFFFFF DUP2 GT ISZERO PUSH2 0x13F4 JUMPI PUSH2 0x13F3 PUSH2 0x2E31 JUMP JUMPDEST JUMPDEST PUSH1 0x40 MLOAD SWAP1 DUP1 DUP3 MSTORE DUP1 PUSH1 0x20 MUL PUSH1 0x20 ADD DUP3 ADD PUSH1 0x40 MSTORE DUP1 ISZERO PUSH2 0x1422 JUMPI DUP2 PUSH1 0x20 ADD PUSH1 0x20 DUP3 MUL DUP1 CALLDATASIZE DUP4 CALLDATACOPY DUP1 DUP3 ADD SWAP2 POP POP SWAP1 POP JUMPDEST POP SWAP1 POP PUSH1 0x0 DUP5 PUSH1 0x40 MLOAD PUSH2 0x1435 SWAP2 SWAP1 PUSH2 0x2893 JUMP JUMPDEST SWAP1 DUP2 MSTORE PUSH1 0x20 ADD PUSH1 0x40 MLOAD DUP1 SWAP2 SUB SWAP1 KECCAK256 PUSH1 0x0 ADD PUSH1 0x0 SWAP1 SLOAD SWAP1 PUSH2 0x100 EXP SWAP1 DIV PUSH20 0xFFFFFFFFFFFFFFFFFFFFFFFFFFFFFFFFFFFFFFFF AND DUP2 PUSH1 0x0 DUP2 MLOAD DUP2 LT PUSH2 0x147B JUMPI PUSH2 0x147A PUSH2 0x2E02 JUMP JUMPDEST JUMPDEST PUSH1 0x20 MUL PUSH1 0x20 ADD ADD SWAP1 PUSH20 0xFFFFFFFFFFFFFFFFFFFFFFFFFFFFFFFFFFFFFFFF AND SWAP1 DUP2 PUSH20 0xFFFFFFFFFFFFFFFFFFFFFFFFFFFFFFFFFFFFFFFF AND DUP2 MSTORE POP POP PUSH1 0x0 DUP4 PUSH1 0x40 MLOAD PUSH2 0x14C5 SWAP2 SWAP1 PUSH2 0x2893 JUMP JUMPDEST SWAP1 DUP2 MSTORE PUSH1 0x20 ADD PUSH1 0x40 MLOAD DUP1 SWAP2 SUB SWAP1 KECCAK256 PUSH1 0x0 ADD PUSH1 0x0 SWAP1 SLOAD SWAP1 PUSH2 0x100 EXP SWAP1 DIV PUSH20 0xFFFFFFFFFFFFFFFFFFFFFFFFFFFFFFFFFFFFFFFF AND DUP2 PUSH1 0x1 DUP2 MLOAD DUP2 LT PUSH2 0x150B JUMPI PUSH2 0x150A PUSH2 0x2E02 JUMP JUMPDEST JUMPDEST PUSH1 0x20 MUL PUSH1 0x20 ADD ADD SWAP1 PUSH20 0xFFFFFFFFFFFFFFFFFFFFFFFFFFFFFFFFFFFFFFFF AND SWAP1 DUP2 PUSH20 0xFFFFFFFFFFFFFFFFFFFFFFFFFFFFFFFFFFFFFFFF AND DUP2 MSTORE POP POP PUSH1 0x0 DUP5 PUSH1 0x40 MLOAD PUSH2 0x1555 SWAP2 SWAP1 PUSH2 0x2893 JUMP JUMPDEST SWAP1 DUP2 MSTORE PUSH1 0x20 ADD PUSH1 0x40 MLOAD DUP1 SWAP2 SUB SWAP1 KECCAK256 PUSH1 0x0 ADD PUSH1 0x0 SWAP1 SLOAD SWAP1 PUSH2 0x100 EXP SWAP1 DIV PUSH20 0xFFFFFFFFFFFFFFFFFFFFFFFFFFFFFFFFFFFFFFFF AND PUSH20 0xFFFFFFFFFFFFFFFFFFFFFFFFFFFFFFFFFFFFFFFF AND PUSH4 0x95EA7B3 PUSH20 0xA5E0829CACED8FFDD4DE3C43696C57F7D7A678FF DUP9 PUSH1 0x40 MLOAD DUP4 PUSH4 0xFFFFFFFF AND PUSH1 0xE0 SHL DUP2 MSTORE PUSH1 0x4 ADD PUSH2 0x15D5 SWAP3 SWAP2 SWAP1 PUSH2 0x2A27 JUMP JUMPDEST PUSH1 0x20 PUSH1 0x40 MLOAD DUP1 DUP4 SUB DUP2 PUSH1 0x0 DUP8 DUP1 EXTCODESIZE ISZERO DUP1 ISZERO PUSH2 0x15EF JUMPI PUSH1 0x0 DUP1 REVERT JUMPDEST POP GAS CALL ISZERO DUP1 ISZERO PUSH2 0x1603 JUMPI RETURNDATASIZE PUSH1 0x0 DUP1 RETURNDATACOPY RETURNDATASIZE PUSH1 0x0 REVERT JUMPDEST POP POP POP POP PUSH1 0x40 MLOAD RETURNDATASIZE PUSH1 0x1F NOT PUSH1 0x1F DUP3 ADD AND DUP3 ADD DUP1 PUSH1 0x40 MSTORE POP DUP2 ADD SWAP1 PUSH2 0x1627 SWAP2 SWAP1 PUSH2 0x2066 JUMP JUMPDEST POP PUSH20 0xA5E0829CACED8FFDD4DE3C43696C57F7D7A678FF PUSH20 0xFFFFFFFFFFFFFFFFFFFFFFFFFFFFFFFFFFFFFFFF AND PUSH4 0x38ED1739 DUP8 DUP8 DUP5 CALLER DUP8 PUSH1 0x40 MLOAD DUP7 PUSH4 0xFFFFFFFF AND PUSH1 0xE0 SHL DUP2 MSTORE PUSH1 0x4 ADD PUSH2 0x167D SWAP6 SWAP5 SWAP4 SWAP3 SWAP2 SWAP1 PUSH2 0x2B2B JUMP JUMPDEST PUSH1 0x0 PUSH1 0x40 MLOAD DUP1 DUP4 SUB DUP2 PUSH1 0x0 DUP8 DUP1 EXTCODESIZE ISZERO DUP1 ISZERO PUSH2 0x1697 JUMPI PUSH1 0x0 DUP1 REVERT JUMPDEST POP GAS CALL ISZERO DUP1 ISZERO PUSH2 0x16AB JUMPI RETURNDATASIZE PUSH1 0x0 DUP1 RETURNDATACOPY RETURNDATASIZE PUSH1 0x0 REVERT JUMPDEST POP POP POP POP PUSH1 0x40 MLOAD RETURNDATASIZE PUSH1 0x0 DUP3 RETURNDATACOPY RETURNDATASIZE PUSH1 0x1F NOT PUSH1 0x1F DUP3 ADD AND DUP3 ADD DUP1 PUSH1 0x40 MSTORE POP DUP2 ADD SWAP1 PUSH2 0x16D4 SWAP2 SWAP1 PUSH2 0x201D JUMP JUMPDEST POP POP POP POP POP POP POP JUMP JUMPDEST DUP7 DUP7 DUP7 DUP7 CALLER DUP3 PUSH1 0x0 DUP7 PUSH1 0x40 MLOAD PUSH2 0x16F3 SWAP2 SWAP1 PUSH2 0x2893 JUMP JUMPDEST SWAP1 DUP2 MSTORE PUSH1 0x20 ADD PUSH1 0x40 MLOAD DUP1 SWAP2 SUB SWAP1 KECCAK256 PUSH1 0x0 ADD PUSH1 0x0 SWAP1 SLOAD SWAP1 PUSH2 0x100 EXP SWAP1 DIV PUSH20 0xFFFFFFFFFFFFFFFFFFFFFFFFFFFFFFFFFFFFFFFF AND PUSH20 0xFFFFFFFFFFFFFFFFFFFFFFFFFFFFFFFFFFFFFFFF AND PUSH4 0x70A08231 DUP4 PUSH1 0x40 MLOAD DUP3 PUSH4 0xFFFFFFFF AND PUSH1 0xE0 SHL DUP2 MSTORE PUSH1 0x4 ADD PUSH2 0x175D SWAP2 SWAP1 PUSH2 0x28BF JUMP JUMPDEST PUSH1 0x20 PUSH1 0x40 MLOAD DUP1 DUP4 SUB DUP2 DUP7 DUP1 EXTCODESIZE ISZERO DUP1 ISZERO PUSH2 0x1775 JUMPI PUSH1 0x0 DUP1 REVERT JUMPDEST POP GAS STATICCALL ISZERO DUP1 ISZERO PUSH2 0x1789 JUMPI RETURNDATASIZE PUSH1 0x0 DUP1 RETURNDATACOPY RETURNDATASIZE PUSH1 0x0 REVERT JUMPDEST POP POP POP POP PUSH1 0x40 MLOAD RETURNDATASIZE PUSH1 0x1F NOT PUSH1 0x1F DUP3 ADD AND DUP3 ADD DUP1 PUSH1 0x40 MSTORE POP DUP2 ADD SWAP1 PUSH2 0x17AD SWAP2 SWAP1 PUSH2 0x24A5 JUMP JUMPDEST LT ISZERO PUSH2 0x17EE JUMPI PUSH1 0x40 MLOAD PUSH32 0x8C379A000000000000000000000000000000000000000000000000000000000 DUP2 MSTORE PUSH1 0x4 ADD PUSH2 0x17E5 SWAP1 PUSH2 0x2A80 JUMP JUMPDEST PUSH1 0x40 MLOAD DUP1 SWAP2 SUB SWAP1 REVERT JUMPDEST DUP2 PUSH1 0x0 DUP6 PUSH1 0x40 MLOAD PUSH2 0x17FF SWAP2 SWAP1 PUSH2 0x2893 JUMP JUMPDEST SWAP1 DUP2 MSTORE PUSH1 0x20 ADD PUSH1 0x40 MLOAD DUP1 SWAP2 SUB SWAP1 KECCAK256 PUSH1 0x0 ADD PUSH1 0x0 SWAP1 SLOAD SWAP1 PUSH2 0x100 EXP SWAP1 DIV PUSH20 0xFFFFFFFFFFFFFFFFFFFFFFFFFFFFFFFFFFFFFFFF AND PUSH20 0xFFFFFFFFFFFFFFFFFFFFFFFFFFFFFFFFFFFFFFFF AND PUSH4 0x70A08231 DUP4 PUSH1 0x40 MLOAD DUP3 PUSH4 0xFFFFFFFF AND PUSH1 0xE0 SHL DUP2 MSTORE PUSH1 0x4 ADD PUSH2 0x1869 SWAP2 SWAP1 PUSH2 0x28BF JUMP JUMPDEST PUSH1 0x20 PUSH1 0x40 MLOAD DUP1 DUP4 SUB DUP2 DUP7 DUP1 EXTCODESIZE ISZERO DUP1 ISZERO PUSH2 0x1881 JUMPI PUSH1 0x0 DUP1 REVERT JUMPDEST POP GAS STATICCALL ISZERO DUP1 ISZERO PUSH2 0x1895 JUMPI RETURNDATASIZE PUSH1 0x0 DUP1 RETURNDATACOPY RETURNDATASIZE PUSH1 0x0 REVERT JUMPDEST POP POP POP POP PUSH1 0x40 MLOAD RETURNDATASIZE PUSH1 0x1F NOT PUSH1 0x1F DUP3 ADD AND DUP3 ADD DUP1 PUSH1 0x40 MSTORE POP DUP2 ADD SWAP1 PUSH2 0x18B9 SWAP2 SWAP1 PUSH2 0x24A5 JUMP JUMPDEST LT ISZERO PUSH2 0x18FA JUMPI PUSH1 0x40 MLOAD PUSH32 0x8C379A000000000000000000000000000000000000000000000000000000000 DUP2 MSTORE PUSH1 0x4 ADD PUSH2 0x18F1 SWAP1 PUSH2 0x2A80 JUMP JUMPDEST PUSH1 0x40 MLOAD DUP1 SWAP2 SUB SWAP1 REVERT JUMPDEST PUSH2 0x1904 DUP13 DUP12 PUSH2 0xE5C JUMP JUMPDEST PUSH2 0x190E DUP12 DUP11 PUSH2 0xE5C JUMP JUMPDEST PUSH1 0x0 DUP13 PUSH1 0x40 MLOAD PUSH2 0x191E SWAP2 SWAP1 PUSH2 0x2893 JUMP JUMPDEST SWAP1 DUP2 MSTORE PUSH1 0x20 ADD PUSH1 0x40 MLOAD DUP1 SWAP2 SUB SWAP1 KECCAK256 PUSH1 0x0 ADD PUSH1 0x0 SWAP1 SLOAD SWAP1 PUSH2 0x100 EXP SWAP1 DIV PUSH20 0xFFFFFFFFFFFFFFFFFFFFFFFFFFFFFFFFFFFFFFFF AND PUSH20 0xFFFFFFFFFFFFFFFFFFFFFFFFFFFFFFFFFFFFFFFF AND PUSH4 0x95EA7B3 PUSH20 0xA5E0829CACED8FFDD4DE3C43696C57F7D7A678FF DUP13 PUSH1 0x40 MLOAD DUP4 PUSH4 0xFFFFFFFF AND PUSH1 0xE0 SHL DUP2 MSTORE PUSH1 0x4 ADD PUSH2 0x199E SWAP3 SWAP2 SWAP1 PUSH2 0x2A27 JUMP JUMPDEST PUSH1 0x20 PUSH1 0x40 MLOAD DUP1 DUP4 SUB DUP2 PUSH1 0x0 DUP8 DUP1 EXTCODESIZE ISZERO DUP1 ISZERO PUSH2 0x19B8 JUMPI PUSH1 0x0 DUP1 REVERT JUMPDEST POP GAS CALL ISZERO DUP1 ISZERO PUSH2 0x19CC JUMPI RETURNDATASIZE PUSH1 0x0 DUP1 RETURNDATACOPY RETURNDATASIZE PUSH1 0x0 REVERT JUMPDEST POP POP POP POP PUSH1 0x40 MLOAD RETURNDATASIZE PUSH1 0x1F NOT PUSH1 0x1F DUP3 ADD AND DUP3 ADD DUP1 PUSH1 0x40 MSTORE POP DUP2 ADD SWAP1 PUSH2 0x19F0 SWAP2 SWAP1 PUSH2 0x2066 JUMP JUMPDEST POP PUSH1 0x0 DUP12 PUSH1 0x40 MLOAD PUSH2 0x1A01 SWAP2 SWAP1 PUSH2 0x2893 JUMP JUMPDEST SWAP1 DUP2 MSTORE PUSH1 0x20 ADD PUSH1 0x40 MLOAD DUP1 SWAP2 SUB SWAP1 KECCAK256 PUSH1 0x0 ADD PUSH1 0x0 SWAP1 SLOAD SWAP1 PUSH2 0x100 EXP SWAP1 DIV PUSH20 0xFFFFFFFFFFFFFFFFFFFFFFFFFFFFFFFFFFFFFFFF AND PUSH20 0xFFFFFFFFFFFFFFFFFFFFFFFFFFFFFFFFFFFFFFFF AND PUSH4 0x95EA7B3 PUSH20 0xA5E0829CACED8FFDD4DE3C43696C57F7D7A678FF DUP12 PUSH1 0x40 MLOAD DUP4 PUSH4 0xFFFFFFFF AND PUSH1 0xE0 SHL DUP2 MSTORE PUSH1 0x4 ADD PUSH2 0x1A81 SWAP3 SWAP2 SWAP1 PUSH2 0x2A27 JUMP JUMPDEST PUSH1 0x20 PUSH1 0x40 MLOAD DUP1 DUP4 SUB DUP2 PUSH1 0x0 DUP8 DUP1 EXTCODESIZE ISZERO DUP1 ISZERO PUSH2 0x1A9B JUMPI PUSH1 0x0 DUP1 REVERT JUMPDEST POP GAS CALL ISZERO DUP1 ISZERO PUSH2 0x1AAF JUMPI RETURNDATASIZE PUSH1 0x0 DUP1 RETURNDATACOPY RETURNDATASIZE PUSH1 0x0 REVERT JUMPDEST POP POP POP POP PUSH1 0x40 MLOAD RETURNDATASIZE PUSH1 0x1F NOT PUSH1 0x1F DUP3 ADD AND DUP3 ADD DUP1 PUSH1 0x40 MSTORE POP DUP2 ADD SWAP1 PUSH2 0x1AD3 SWAP2 SWAP1 PUSH2 0x2066 JUMP JUMPDEST POP PUSH20 0xA5E0829CACED8FFDD4DE3C43696C57F7D7A678FF PUSH20 0xFFFFFFFFFFFFFFFFFFFFFFFFFFFFFFFFFFFFFFFF AND PUSH4 0xE8E33700 PUSH1 0x0 DUP15 PUSH1 0x40 MLOAD PUSH2 0x1B14 SWAP2 SWAP1 PUSH2 0x2893 JUMP JUMPDEST SWAP1 DUP2 MSTORE PUSH1 0x20 ADD PUSH1 0x40 MLOAD DUP1 SWAP2 SUB SWAP1 KECCAK256 PUSH1 0x0 ADD PUSH1 0x0 SWAP1 SLOAD SWAP1 PUSH2 0x100 EXP SWAP1 DIV PUSH20 0xFFFFFFFFFFFFFFFFFFFFFFFFFFFFFFFFFFFFFFFF AND PUSH1 0x0 DUP15 PUSH1 0x40 MLOAD PUSH2 0x1B56 SWAP2 SWAP1 PUSH2 0x2893 JUMP JUMPDEST SWAP1 DUP2 MSTORE PUSH1 0x20 ADD PUSH1 0x40 MLOAD DUP1 SWAP2 SUB SWAP1 KECCAK256 PUSH1 0x0 ADD PUSH1 0x0 SWAP1 SLOAD SWAP1 PUSH2 0x100 EXP SWAP1 DIV PUSH20 0xFFFFFFFFFFFFFFFFFFFFFFFFFFFFFFFFFFFFFFFF AND DUP14 DUP14 DUP14 DUP14 ADDRESS DUP15 PUSH1 0x40 MLOAD DUP10 PUSH4 0xFFFFFFFF AND PUSH1 0xE0 SHL DUP2 MSTORE PUSH1 0x4 ADD PUSH2 0x1BB1 SWAP9 SWAP8 SWAP7 SWAP6 SWAP5 SWAP4 SWAP3 SWAP2 SWAP1 PUSH2 0x29A9 JUMP JUMPDEST PUSH1 0x60 PUSH1 0x40 MLOAD DUP1 DUP4 SUB DUP2 PUSH1 0x0 DUP8 DUP1 EXTCODESIZE ISZERO DUP1 ISZERO PUSH2 0x1BCB JUMPI PUSH1 0x0 DUP1 REVERT JUMPDEST POP GAS CALL ISZERO DUP1 ISZERO PUSH2 0x1BDF JUMPI RETURNDATASIZE PUSH1 0x0 DUP1 RETURNDATACOPY RETURNDATASIZE PUSH1 0x0 REVERT JUMPDEST POP POP POP POP PUSH1 0x40 MLOAD RETURNDATASIZE PUSH1 0x1F NOT PUSH1 0x1F DUP3 ADD AND DUP3 ADD DUP1 PUSH1 0x40 MSTORE POP DUP2 ADD SWAP1 PUSH2 0x1C03 SWAP2 SWAP1 PUSH2 0x2650 JUMP JUMPDEST POP POP POP PUSH2 0x1C11 DUP13 DUP13 CALLER PUSH2 0x1C1F JUMP JUMPDEST POP POP POP POP POP POP POP POP POP POP POP POP JUMP JUMPDEST PUSH1 0x0 PUSH1 0x1 DUP5 PUSH1 0x40 MLOAD PUSH2 0x1C31 SWAP2 SWAP1 PUSH2 0x2893 JUMP JUMPDEST SWAP1 DUP2 MSTORE PUSH1 0x20 ADD PUSH1 0x40 MLOAD DUP1 SWAP2 SUB SWAP1 KECCAK256 DUP4 PUSH1 0x40 MLOAD PUSH2 0x1C4D SWAP2 SWAP1 PUSH2 0x2893 JUMP JUMPDEST SWAP1 DUP2 MSTORE PUSH1 0x20 ADD PUSH1 0x40 MLOAD DUP1 SWAP2 SUB SWAP1 KECCAK256 PUSH1 0x4 ADD PUSH1 0x0 SWAP1 SLOAD SWAP1 PUSH2 0x100 EXP SWAP1 DIV PUSH20 0xFFFFFFFFFFFFFFFFFFFFFFFFFFFFFFFFFFFFFFFF AND PUSH20 0xFFFFFFFFFFFFFFFFFFFFFFFFFFFFFFFFFFFFFFFF AND PUSH4 0x70A08231 ADDRESS PUSH1 0x40 MLOAD DUP3 PUSH4 0xFFFFFFFF AND PUSH1 0xE0 SHL DUP2 MSTORE PUSH1 0x4 ADD PUSH2 0x1CB7 SWAP2 SWAP1 PUSH2 0x28BF JUMP JUMPDEST PUSH1 0x20 PUSH1 0x40 MLOAD DUP1 DUP4 SUB DUP2 DUP7 DUP1 EXTCODESIZE ISZERO DUP1 ISZERO PUSH2 0x1CCF JUMPI PUSH1 0x0 DUP1 REVERT JUMPDEST POP GAS STATICCALL ISZERO DUP1 ISZERO PUSH2 0x1CE3 JUMPI RETURNDATASIZE PUSH1 0x0 DUP1 RETURNDATACOPY RETURNDATASIZE PUSH1 0x0 REVERT JUMPDEST POP POP POP POP PUSH1 0x40 MLOAD RETURNDATASIZE PUSH1 0x1F NOT PUSH1 0x1F DUP3 ADD AND DUP3 ADD DUP1 PUSH1 0x40 MSTORE POP DUP2 ADD SWAP1 PUSH2 0x1D07 SWAP2 SWAP1 PUSH2 0x24A5 JUMP JUMPDEST SWAP1 POP PUSH1 0x0 PUSH1 0x1 DUP6 PUSH1 0x40 MLOAD PUSH2 0x1D1B SWAP2 SWAP1 PUSH2 0x2893 JUMP JUMPDEST SWAP1 DUP2 MSTORE PUSH1 0x20 ADD PUSH1 0x40 MLOAD DUP1 SWAP2 SUB SWAP1 KECCAK256 DUP5 PUSH1 0x40 MLOAD PUSH2 0x1D37 SWAP2 SWAP1 PUSH2 0x2893 JUMP JUMPDEST SWAP1 DUP2 MSTORE PUSH1 0x20 ADD PUSH1 0x40 MLOAD DUP1 SWAP2 SUB SWAP1 KECCAK256 PUSH1 0x7 ADD SLOAD DUP3 PUSH2 0x1D54 SWAP2 SWAP1 PUSH2 0x2CE4 JUMP JUMPDEST SWAP1 POP DUP1 PUSH1 0x1 DUP7 PUSH1 0x40 MLOAD PUSH2 0x1D67 SWAP2 SWAP1 PUSH2 0x2893 JUMP JUMPDEST SWAP1 DUP2 MSTORE PUSH1 0x20 ADD PUSH1 0x40 MLOAD DUP1 SWAP2 SUB SWAP1 KECCAK256 DUP6 PUSH1 0x40 MLOAD PUSH2 0x1D83 SWAP2 SWAP1 PUSH2 0x2893 JUMP JUMPDEST SWAP1 DUP2 MSTORE PUSH1 0x20 ADD PUSH1 0x40 MLOAD DUP1 SWAP2 SUB SWAP1 KECCAK256 PUSH1 0x6 ADD PUSH1 0x0 DUP6 PUSH20 0xFFFFFFFFFFFFFFFFFFFFFFFFFFFFFFFFFFFFFFFF AND PUSH20 0xFFFFFFFFFFFFFFFFFFFFFFFFFFFFFFFFFFFFFFFF AND DUP2 MSTORE PUSH1 0x20 ADD SWAP1 DUP2 MSTORE PUSH1 0x20 ADD PUSH1 0x0 KECCAK256 PUSH1 0x0 DUP3 DUP3 SLOAD PUSH2 0x1DE0 SWAP2 SWAP1 PUSH2 0x2C8E JUMP JUMPDEST SWAP3 POP POP DUP2 SWAP1 SSTORE POP DUP2 PUSH1 0x1 DUP7 PUSH1 0x40 MLOAD PUSH2 0x1DF8 SWAP2 SWAP1 PUSH2 0x2893 JUMP JUMPDEST SWAP1 DUP2 MSTORE PUSH1 0x20 ADD PUSH1 0x40 MLOAD DUP1 SWAP2 SUB SWAP1 KECCAK256 DUP6 PUSH1 0x40 MLOAD PUSH2 0x1E14 SWAP2 SWAP1 PUSH2 0x2893 JUMP JUMPDEST SWAP1 DUP2 MSTORE PUSH1 0x20 ADD PUSH1 0x40 MLOAD DUP1 SWAP2 SUB SWAP1 KECCAK256 PUSH1 0x7 ADD DUP2 SWAP1 SSTORE POP POP POP POP POP POP JUMP JUMPDEST PUSH1 0x0 PUSH2 0x1E43 PUSH2 0x1E3E DUP5 PUSH2 0x2BAA JUMP JUMPDEST PUSH2 0x2B85 JUMP JUMPDEST SWAP1 POP DUP1 DUP4 DUP3 MSTORE PUSH1 0x20 DUP3 ADD SWAP1 POP DUP3 DUP6 PUSH1 0x20 DUP7 MUL DUP3 ADD GT ISZERO PUSH2 0x1E66 JUMPI PUSH2 0x1E65 PUSH2 0x2E65 JUMP JUMPDEST JUMPDEST PUSH1 0x0 JUMPDEST DUP6 DUP2 LT ISZERO PUSH2 0x1E96 JUMPI DUP2 PUSH2 0x1E7C DUP9 DUP3 PUSH2 0x1F7D JUMP JUMPDEST DUP5 MSTORE PUSH1 0x20 DUP5 ADD SWAP4 POP PUSH1 0x20 DUP4 ADD SWAP3 POP POP PUSH1 0x1 DUP2 ADD SWAP1 POP PUSH2 0x1E69 JUMP JUMPDEST POP POP POP SWAP4 SWAP3 POP POP POP JUMP JUMPDEST PUSH1 0x0 PUSH2 0x1EB3 PUSH2 0x1EAE DUP5 PUSH2 0x2BD6 JUMP JUMPDEST PUSH2 0x2B85 JUMP JUMPDEST SWAP1 POP DUP3 DUP2 MSTORE PUSH1 0x20 DUP2 ADD DUP5 DUP5 DUP5 ADD GT ISZERO PUSH2 0x1ECF JUMPI PUSH2 0x1ECE PUSH2 0x2E6A JUMP JUMPDEST JUMPDEST PUSH2 0x1EDA DUP5 DUP3 DUP6 PUSH2 0x2D60 JUMP JUMPDEST POP SWAP4 SWAP3 POP POP POP JUMP JUMPDEST PUSH1 0x0 DUP2 CALLDATALOAD SWAP1 POP PUSH2 0x1EF1 DUP2 PUSH2 0x2FA0 JUMP JUMPDEST SWAP3 SWAP2 POP POP JUMP JUMPDEST PUSH1 0x0 DUP3 PUSH1 0x1F DUP4 ADD SLT PUSH2 0x1F0C JUMPI PUSH2 0x1F0B PUSH2 0x2E60 JUMP JUMPDEST JUMPDEST DUP2 MLOAD PUSH2 0x1F1C DUP5 DUP3 PUSH1 0x20 DUP7 ADD PUSH2 0x1E30 JUMP JUMPDEST SWAP2 POP POP SWAP3 SWAP2 POP POP JUMP JUMPDEST PUSH1 0x0 DUP2 MLOAD SWAP1 POP PUSH2 0x1F34 DUP2 PUSH2 0x2FB7 JUMP JUMPDEST SWAP3 SWAP2 POP POP JUMP JUMPDEST PUSH1 0x0 DUP3 PUSH1 0x1F DUP4 ADD SLT PUSH2 0x1F4F JUMPI PUSH2 0x1F4E PUSH2 0x2E60 JUMP JUMPDEST JUMPDEST DUP2 CALLDATALOAD PUSH2 0x1F5F DUP5 DUP3 PUSH1 0x20 DUP7 ADD PUSH2 0x1EA0 JUMP JUMPDEST SWAP2 POP POP SWAP3 SWAP2 POP POP JUMP JUMPDEST PUSH1 0x0 DUP2 CALLDATALOAD SWAP1 POP PUSH2 0x1F77 DUP2 PUSH2 0x2FCE JUMP JUMPDEST SWAP3 SWAP2 POP POP JUMP JUMPDEST PUSH1 0x0 DUP2 MLOAD SWAP1 POP PUSH2 0x1F8C DUP2 PUSH2 0x2FCE JUMP JUMPDEST SWAP3 SWAP2 POP POP JUMP JUMPDEST PUSH1 0x0 DUP1 PUSH1 0x0 PUSH1 0x60 DUP5 DUP7 SUB SLT ISZERO PUSH2 0x1FAB JUMPI PUSH2 0x1FAA PUSH2 0x2E74 JUMP JUMPDEST JUMPDEST PUSH1 0x0 PUSH2 0x1FB9 DUP7 DUP3 DUP8 ADD PUSH2 0x1EE2 JUMP JUMPDEST SWAP4 POP POP PUSH1 0x20 DUP5 ADD CALLDATALOAD PUSH8 0xFFFFFFFFFFFFFFFF DUP2 GT ISZERO PUSH2 0x1FDA JUMPI PUSH2 0x1FD9 PUSH2 0x2E6F JUMP JUMPDEST JUMPDEST PUSH2 0x1FE6 DUP7 DUP3 DUP8 ADD PUSH2 0x1F3A JUMP JUMPDEST SWAP3 POP POP PUSH1 0x40 DUP5 ADD CALLDATALOAD PUSH8 0xFFFFFFFFFFFFFFFF DUP2 GT ISZERO PUSH2 0x2007 JUMPI PUSH2 0x2006 PUSH2 0x2E6F JUMP JUMPDEST JUMPDEST PUSH2 0x2013 DUP7 DUP3 DUP8 ADD PUSH2 0x1F3A JUMP JUMPDEST SWAP2 POP POP SWAP3 POP SWAP3 POP SWAP3 JUMP JUMPDEST PUSH1 0x0 PUSH1 0x20 DUP3 DUP5 SUB SLT ISZERO PUSH2 0x2033 JUMPI PUSH2 0x2032 PUSH2 0x2E74 JUMP JUMPDEST JUMPDEST PUSH1 0x0 DUP3 ADD MLOAD PUSH8 0xFFFFFFFFFFFFFFFF DUP2 GT ISZERO PUSH2 0x2051 JUMPI PUSH2 0x2050 PUSH2 0x2E6F JUMP JUMPDEST JUMPDEST PUSH2 0x205D DUP5 DUP3 DUP6 ADD PUSH2 0x1EF7 JUMP JUMPDEST SWAP2 POP POP SWAP3 SWAP2 POP POP JUMP JUMPDEST PUSH1 0x0 PUSH1 0x20 DUP3 DUP5 SUB SLT ISZERO PUSH2 0x207C JUMPI PUSH2 0x207B PUSH2 0x2E74 JUMP JUMPDEST JUMPDEST PUSH1 0x0 PUSH2 0x208A DUP5 DUP3 DUP6 ADD PUSH2 0x1F25 JUMP JUMPDEST SWAP2 POP POP SWAP3 SWAP2 POP POP JUMP JUMPDEST PUSH1 0x0 PUSH1 0x20 DUP3 DUP5 SUB SLT ISZERO PUSH2 0x20A9 JUMPI PUSH2 0x20A8 PUSH2 0x2E74 JUMP JUMPDEST JUMPDEST PUSH1 0x0 DUP3 ADD CALLDATALOAD PUSH8 0xFFFFFFFFFFFFFFFF DUP2 GT ISZERO PUSH2 0x20C7 JUMPI PUSH2 0x20C6 PUSH2 0x2E6F JUMP JUMPDEST JUMPDEST PUSH2 0x20D3 DUP5 DUP3 DUP6 ADD PUSH2 0x1F3A JUMP JUMPDEST SWAP2 POP POP SWAP3 SWAP2 POP POP JUMP JUMPDEST PUSH1 0x0 DUP1 PUSH1 0x40 DUP4 DUP6 SUB SLT ISZERO PUSH2 0x20F3 JUMPI PUSH2 0x20F2 PUSH2 0x2E74 JUMP JUMPDEST JUMPDEST PUSH1 0x0 DUP4 ADD CALLDATALOAD PUSH8 0xFFFFFFFFFFFFFFFF DUP2 GT ISZERO PUSH2 0x2111 JUMPI PUSH2 0x2110 PUSH2 0x2E6F JUMP JUMPDEST JUMPDEST PUSH2 0x211D DUP6 DUP3 DUP7 ADD PUSH2 0x1F3A JUMP JUMPDEST SWAP3 POP POP PUSH1 0x20 PUSH2 0x212E DUP6 DUP3 DUP7 ADD PUSH2 0x1EE2 JUMP JUMPDEST SWAP2 POP POP SWAP3 POP SWAP3 SWAP1 POP JUMP JUMPDEST PUSH1 0x0 DUP1 PUSH1 0x0 PUSH1 0x60 DUP5 DUP7 SUB SLT ISZERO PUSH2 0x2151 JUMPI PUSH2 0x2150 PUSH2 0x2E74 JUMP JUMPDEST JUMPDEST PUSH1 0x0 DUP5 ADD CALLDATALOAD PUSH8 0xFFFFFFFFFFFFFFFF DUP2 GT ISZERO PUSH2 0x216F JUMPI PUSH2 0x216E PUSH2 0x2E6F JUMP JUMPDEST JUMPDEST PUSH2 0x217B DUP7 DUP3 DUP8 ADD PUSH2 0x1F3A JUMP JUMPDEST SWAP4 POP POP PUSH1 0x20 PUSH2 0x218C DUP7 DUP3 DUP8 ADD PUSH2 0x1EE2 JUMP JUMPDEST SWAP3 POP POP PUSH1 0x40 PUSH2 0x219D DUP7 DUP3 DUP8 ADD PUSH2 0x1F68 JUMP JUMPDEST SWAP2 POP POP SWAP3 POP SWAP3 POP SWAP3 JUMP JUMPDEST PUSH1 0x0 DUP1 PUSH1 0x40 DUP4 DUP6 SUB SLT ISZERO PUSH2 0x21BE JUMPI PUSH2 0x21BD PUSH2 0x2E74 JUMP JUMPDEST JUMPDEST PUSH1 0x0 DUP4 ADD CALLDATALOAD PUSH8 0xFFFFFFFFFFFFFFFF DUP2 GT ISZERO PUSH2 0x21DC JUMPI PUSH2 0x21DB PUSH2 0x2E6F JUMP JUMPDEST JUMPDEST PUSH2 0x21E8 DUP6 DUP3 DUP7 ADD PUSH2 0x1F3A JUMP JUMPDEST SWAP3 POP POP PUSH1 0x20 DUP4 ADD CALLDATALOAD PUSH8 0xFFFFFFFFFFFFFFFF DUP2 GT ISZERO PUSH2 0x2209 JUMPI PUSH2 0x2208 PUSH2 0x2E6F JUMP JUMPDEST JUMPDEST PUSH2 0x2215 DUP6 DUP3 DUP7 ADD PUSH2 0x1F3A JUMP JUMPDEST SWAP2 POP POP SWAP3 POP SWAP3 SWAP1 POP JUMP JUMPDEST PUSH1 0x0 DUP1 PUSH1 0x0 PUSH1 0x60 DUP5 DUP7 SUB SLT ISZERO PUSH2 0x2238 JUMPI PUSH2 0x2237 PUSH2 0x2E74 JUMP JUMPDEST JUMPDEST PUSH1 0x0 DUP5 ADD CALLDATALOAD PUSH8 0xFFFFFFFFFFFFFFFF DUP2 GT ISZERO PUSH2 0x2256 JUMPI PUSH2 0x2255 PUSH2 0x2E6F JUMP JUMPDEST JUMPDEST PUSH2 0x2262 DUP7 DUP3 DUP8 ADD PUSH2 0x1F3A JUMP JUMPDEST SWAP4 POP POP PUSH1 0x20 DUP5 ADD CALLDATALOAD PUSH8 0xFFFFFFFFFFFFFFFF DUP2 GT ISZERO PUSH2 0x2283 JUMPI PUSH2 0x2282 PUSH2 0x2E6F JUMP JUMPDEST JUMPDEST PUSH2 0x228F DUP7 DUP3 DUP8 ADD PUSH2 0x1F3A JUMP JUMPDEST SWAP3 POP POP PUSH1 0x40 PUSH2 0x22A0 DUP7 DUP3 DUP8 ADD PUSH2 0x1EE2 JUMP JUMPDEST SWAP2 POP POP SWAP3 POP SWAP3 POP SWAP3 JUMP JUMPDEST PUSH1 0x0 DUP1 PUSH1 0x0 DUP1 PUSH1 0x0 DUP1 PUSH1 0xC0 DUP8 DUP10 SUB SLT ISZERO PUSH2 0x22C7 JUMPI PUSH2 0x22C6 PUSH2 0x2E74 JUMP JUMPDEST JUMPDEST PUSH1 0x0 DUP8 ADD CALLDATALOAD PUSH8 0xFFFFFFFFFFFFFFFF DUP2 GT ISZERO PUSH2 0x22E5 JUMPI PUSH2 0x22E4 PUSH2 0x2E6F JUMP JUMPDEST JUMPDEST PUSH2 0x22F1 DUP10 DUP3 DUP11 ADD PUSH2 0x1F3A JUMP JUMPDEST SWAP7 POP POP PUSH1 0x20 DUP8 ADD CALLDATALOAD PUSH8 0xFFFFFFFFFFFFFFFF DUP2 GT ISZERO PUSH2 0x2312 JUMPI PUSH2 0x2311 PUSH2 0x2E6F JUMP JUMPDEST JUMPDEST PUSH2 0x231E DUP10 DUP3 DUP11 ADD PUSH2 0x1F3A JUMP JUMPDEST SWAP6 POP POP PUSH1 0x40 PUSH2 0x232F DUP10 DUP3 DUP11 ADD PUSH2 0x1F68 JUMP JUMPDEST SWAP5 POP POP PUSH1 0x60 PUSH2 0x2340 DUP10 DUP3 DUP11 ADD PUSH2 0x1F68 JUMP JUMPDEST SWAP4 POP POP PUSH1 0x80 PUSH2 0x2351 DUP10 DUP3 DUP11 ADD PUSH2 0x1F68 JUMP JUMPDEST SWAP3 POP POP PUSH1 0xA0 PUSH2 0x2362 DUP10 DUP3 DUP11 ADD PUSH2 0x1F68 JUMP JUMPDEST SWAP2 POP POP SWAP3 SWAP6 POP SWAP3 SWAP6 POP SWAP3 SWAP6 JUMP JUMPDEST PUSH1 0x0 DUP1 PUSH1 0x0 DUP1 PUSH1 0x0 DUP1 PUSH1 0x0 PUSH1 0xE0 DUP9 DUP11 SUB SLT ISZERO PUSH2 0x238E JUMPI PUSH2 0x238D PUSH2 0x2E74 JUMP JUMPDEST JUMPDEST PUSH1 0x0 DUP9 ADD CALLDATALOAD PUSH8 0xFFFFFFFFFFFFFFFF DUP2 GT ISZERO PUSH2 0x23AC JUMPI PUSH2 0x23AB PUSH2 0x2E6F JUMP JUMPDEST JUMPDEST PUSH2 0x23B8 DUP11 DUP3 DUP12 ADD PUSH2 0x1F3A JUMP JUMPDEST SWAP8 POP POP PUSH1 0x20 DUP9 ADD CALLDATALOAD PUSH8 0xFFFFFFFFFFFFFFFF DUP2 GT ISZERO PUSH2 0x23D9 JUMPI PUSH2 0x23D8 PUSH2 0x2E6F JUMP JUMPDEST JUMPDEST PUSH2 0x23E5 DUP11 DUP3 DUP12 ADD PUSH2 0x1F3A JUMP JUMPDEST SWAP7 POP POP PUSH1 0x40 PUSH2 0x23F6 DUP11 DUP3 DUP12 ADD PUSH2 0x1F68 JUMP JUMPDEST SWAP6 POP POP PUSH1 0x60 PUSH2 0x2407 DUP11 DUP3 DUP12 ADD PUSH2 0x1F68 JUMP JUMPDEST SWAP5 POP POP PUSH1 0x80 PUSH2 0x2418 DUP11 DUP3 DUP12 ADD PUSH2 0x1F68 JUMP JUMPDEST SWAP4 POP POP PUSH1 0xA0 PUSH2 0x2429 DUP11 DUP3 DUP12 ADD PUSH2 0x1F68 JUMP JUMPDEST SWAP3 POP POP PUSH1 0xC0 PUSH2 0x243A DUP11 DUP3 DUP12 ADD PUSH2 0x1F68 JUMP JUMPDEST SWAP2 POP POP SWAP3 SWAP6 SWAP9 SWAP2 SWAP5 SWAP8 POP SWAP3 SWAP6 POP JUMP JUMPDEST PUSH1 0x0 DUP1 PUSH1 0x40 DUP4 DUP6 SUB SLT ISZERO PUSH2 0x2460 JUMPI PUSH2 0x245F PUSH2 0x2E74 JUMP JUMPDEST JUMPDEST PUSH1 0x0 DUP4 ADD CALLDATALOAD PUSH8 0xFFFFFFFFFFFFFFFF DUP2 GT ISZERO PUSH2 0x247E JUMPI PUSH2 0x247D PUSH2 0x2E6F JUMP JUMPDEST JUMPDEST PUSH2 0x248A DUP6 DUP3 DUP7 ADD PUSH2 0x1F3A JUMP JUMPDEST SWAP3 POP POP PUSH1 0x20 PUSH2 0x249B DUP6 DUP3 DUP7 ADD PUSH2 0x1F68 JUMP JUMPDEST SWAP2 POP POP SWAP3 POP SWAP3 SWAP1 POP JUMP JUMPDEST PUSH1 0x0 PUSH1 0x20 DUP3 DUP5 SUB SLT ISZERO PUSH2 0x24BB JUMPI PUSH2 0x24BA PUSH2 0x2E74 JUMP JUMPDEST JUMPDEST PUSH1 0x0 PUSH2 0x24C9 DUP5 DUP3 DUP6 ADD PUSH2 0x1F7D JUMP JUMPDEST SWAP2 POP POP SWAP3 SWAP2 POP POP JUMP JUMPDEST PUSH1 0x0 DUP1 PUSH1 0x0 PUSH1 0x60 DUP5 DUP7 SUB SLT ISZERO PUSH2 0x24EB JUMPI PUSH2 0x24EA PUSH2 0x2E74 JUMP JUMPDEST JUMPDEST PUSH1 0x0 PUSH2 0x24F9 DUP7 DUP3 DUP8 ADD PUSH2 0x1F68 JUMP JUMPDEST SWAP4 POP POP PUSH1 0x20 DUP5 ADD CALLDATALOAD PUSH8 0xFFFFFFFFFFFFFFFF DUP2 GT ISZERO PUSH2 0x251A JUMPI PUSH2 0x2519 PUSH2 0x2E6F JUMP JUMPDEST JUMPDEST PUSH2 0x2526 DUP7 DUP3 DUP8 ADD PUSH2 0x1F3A JUMP JUMPDEST SWAP3 POP POP PUSH1 0x40 DUP5 ADD CALLDATALOAD PUSH8 0xFFFFFFFFFFFFFFFF DUP2 GT ISZERO PUSH2 0x2547 JUMPI PUSH2 0x2546 PUSH2 0x2E6F JUMP JUMPDEST JUMPDEST PUSH2 0x2553 DUP7 DUP3 DUP8 ADD PUSH2 0x1F3A JUMP JUMPDEST SWAP2 POP POP SWAP3 POP SWAP3 POP SWAP3 JUMP JUMPDEST PUSH1 0x0 DUP1 PUSH1 0x40 DUP4 DUP6 SUB SLT ISZERO PUSH2 0x2574 JUMPI PUSH2 0x2573 PUSH2 0x2E74 JUMP JUMPDEST JUMPDEST PUSH1 0x0 PUSH2 0x2582 DUP6 DUP3 DUP7 ADD PUSH2 0x1F7D JUMP JUMPDEST SWAP3 POP POP PUSH1 0x20 PUSH2 0x2593 DUP6 DUP3 DUP7 ADD PUSH2 0x1F7D JUMP JUMPDEST SWAP2 POP POP SWAP3 POP SWAP3 SWAP1 POP JUMP JUMPDEST PUSH1 0x0 DUP1 PUSH1 0x0 DUP1 PUSH1 0x0 PUSH1 0xA0 DUP7 DUP9 SUB SLT ISZERO PUSH2 0x25B9 JUMPI PUSH2 0x25B8 PUSH2 0x2E74 JUMP JUMPDEST JUMPDEST PUSH1 0x0 PUSH2 0x25C7 DUP9 DUP3 DUP10 ADD PUSH2 0x1F68 JUMP JUMPDEST SWAP6 POP POP PUSH1 0x20 PUSH2 0x25D8 DUP9 DUP3 DUP10 ADD PUSH2 0x1F68 JUMP JUMPDEST SWAP5 POP POP PUSH1 0x40 DUP7 ADD CALLDATALOAD PUSH8 0xFFFFFFFFFFFFFFFF DUP2 GT ISZERO PUSH2 0x25F9 JUMPI PUSH2 0x25F8 PUSH2 0x2E6F JUMP JUMPDEST JUMPDEST PUSH2 0x2605 DUP9 DUP3 DUP10 ADD PUSH2 0x1F3A JUMP JUMPDEST SWAP4 POP POP PUSH1 0x60 DUP7 ADD CALLDATALOAD PUSH8 0xFFFFFFFFFFFFFFFF DUP2 GT ISZERO PUSH2 0x2626 JUMPI PUSH2 0x2625 PUSH2 0x2E6F JUMP JUMPDEST JUMPDEST PUSH2 0x2632 DUP9 DUP3 DUP10 ADD PUSH2 0x1F3A JUMP JUMPDEST SWAP3 POP POP PUSH1 0x80 PUSH2 0x2643 DUP9 DUP3 DUP10 ADD PUSH2 0x1F68 JUMP JUMPDEST SWAP2 POP POP SWAP3 SWAP6 POP SWAP3 SWAP6 SWAP1 SWAP4 POP JUMP JUMPDEST PUSH1 0x0 DUP1 PUSH1 0x0 PUSH1 0x60 DUP5 DUP7 SUB SLT ISZERO PUSH2 0x2669 JUMPI PUSH2 0x2668 PUSH2 0x2E74 JUMP JUMPDEST JUMPDEST PUSH1 0x0 PUSH2 0x2677 DUP7 DUP3 DUP8 ADD PUSH2 0x1F7D JUMP JUMPDEST SWAP4 POP POP PUSH1 0x20 PUSH2 0x2688 DUP7 DUP3 DUP8 ADD PUSH2 0x1F7D JUMP JUMPDEST SWAP3 POP POP PUSH1 0x40 PUSH2 0x2699 DUP7 DUP3 DUP8 ADD PUSH2 0x1F7D JUMP JUMPDEST SWAP2 POP POP SWAP3 POP SWAP3 POP SWAP3 JUMP JUMPDEST PUSH1 0x0 PUSH2 0x26AF DUP4 DUP4 PUSH2 0x26BB JUMP JUMPDEST PUSH1 0x20 DUP4 ADD SWAP1 POP SWAP3 SWAP2 POP POP JUMP JUMPDEST PUSH2 0x26C4 DUP2 PUSH2 0x2D18 JUMP JUMPDEST DUP3 MSTORE POP POP JUMP JUMPDEST PUSH2 0x26D3 DUP2 PUSH2 0x2D18 JUMP JUMPDEST DUP3 MSTORE POP POP JUMP JUMPDEST PUSH1 0x0 PUSH2 0x26E4 DUP3 PUSH2 0x2C17 JUMP JUMPDEST PUSH2 0x26EE DUP2 DUP6 PUSH2 0x2C45 JUMP JUMPDEST SWAP4 POP PUSH2 0x26F9 DUP4 PUSH2 0x2C07 JUMP JUMPDEST DUP1 PUSH1 0x0 JUMPDEST DUP4 DUP2 LT ISZERO PUSH2 0x272A JUMPI DUP2 MLOAD PUSH2 0x2711 DUP9 DUP3 PUSH2 0x26A3 JUMP JUMPDEST SWAP8 POP PUSH2 0x271C DUP4 PUSH2 0x2C38 JUMP JUMPDEST SWAP3 POP POP PUSH1 0x1 DUP2 ADD SWAP1 POP PUSH2 0x26FD JUMP JUMPDEST POP DUP6 SWAP4 POP POP POP POP SWAP3 SWAP2 POP POP JUMP JUMPDEST PUSH2 0x2740 DUP2 PUSH2 0x2D2A JUMP JUMPDEST DUP3 MSTORE POP POP JUMP JUMPDEST PUSH1 0x0 PUSH2 0x2751 DUP3 PUSH2 0x2C22 JUMP JUMPDEST PUSH2 0x275B DUP2 DUP6 PUSH2 0x2C56 JUMP JUMPDEST SWAP4 POP PUSH2 0x276B DUP2 DUP6 PUSH1 0x20 DUP7 ADD PUSH2 0x2D6F JUMP JUMPDEST PUSH2 0x2774 DUP2 PUSH2 0x2E79 JUMP JUMPDEST DUP5 ADD SWAP2 POP POP SWAP3 SWAP2 POP POP JUMP JUMPDEST PUSH1 0x0 PUSH2 0x278A DUP3 PUSH2 0x2C22 JUMP JUMPDEST PUSH2 0x2794 DUP2 DUP6 PUSH2 0x2C67 JUMP JUMPDEST SWAP4 POP PUSH2 0x27A4 DUP2 DUP6 PUSH1 0x20 DUP7 ADD PUSH2 0x2D6F JUMP JUMPDEST DUP1 DUP5 ADD SWAP2 POP POP SWAP3 SWAP2 POP POP JUMP JUMPDEST PUSH1 0x0 PUSH2 0x27BB DUP3 PUSH2 0x2C2D JUMP JUMPDEST PUSH2 0x27C5 DUP2 DUP6 PUSH2 0x2C83 JUMP JUMPDEST SWAP4 POP PUSH2 0x27D5 DUP2 DUP6 PUSH1 0x20 DUP7 ADD PUSH2 0x2D6F JUMP JUMPDEST DUP1 DUP5 ADD SWAP2 POP POP SWAP3 SWAP2 POP POP JUMP JUMPDEST PUSH1 0x0 PUSH2 0x27EE PUSH1 0x33 DUP4 PUSH2 0x2C72 JUMP JUMPDEST SWAP2 POP PUSH2 0x27F9 DUP3 PUSH2 0x2E8A JUMP JUMPDEST PUSH1 0x40 DUP3 ADD SWAP1 POP SWAP2 SWAP1 POP JUMP JUMPDEST PUSH1 0x0 PUSH2 0x2811 PUSH1 0x3A DUP4 PUSH2 0x2C72 JUMP JUMPDEST SWAP2 POP PUSH2 0x281C DUP3 PUSH2 0x2ED9 JUMP JUMPDEST PUSH1 0x40 DUP3 ADD SWAP1 POP SWAP2 SWAP1 POP JUMP JUMPDEST PUSH1 0x0 PUSH2 0x2834 PUSH1 0x38 DUP4 PUSH2 0x2C72 JUMP JUMPDEST SWAP2 POP PUSH2 0x283F DUP3 PUSH2 0x2F28 JUMP JUMPDEST PUSH1 0x40 DUP3 ADD SWAP1 POP SWAP2 SWAP1 POP JUMP JUMPDEST PUSH1 0x0 PUSH2 0x2857 PUSH1 0x6 DUP4 PUSH2 0x2C83 JUMP JUMPDEST SWAP2 POP PUSH2 0x2862 DUP3 PUSH2 0x2F77 JUMP JUMPDEST PUSH1 0x6 DUP3 ADD SWAP1 POP SWAP2 SWAP1 POP JUMP JUMPDEST PUSH2 0x2876 DUP2 PUSH2 0x2D56 JUMP JUMPDEST DUP3 MSTORE POP POP JUMP JUMPDEST PUSH1 0x0 PUSH2 0x2888 DUP3 DUP5 PUSH2 0x277F JUMP JUMPDEST SWAP2 POP DUP2 SWAP1 POP SWAP3 SWAP2 POP POP JUMP JUMPDEST PUSH1 0x0 PUSH2 0x289F DUP3 DUP5 PUSH2 0x27B0 JUMP JUMPDEST SWAP2 POP DUP2 SWAP1 POP SWAP3 SWAP2 POP POP JUMP JUMPDEST PUSH1 0x0 PUSH2 0x28B5 DUP3 PUSH2 0x284A JUMP JUMPDEST SWAP2 POP DUP2 SWAP1 POP SWAP2 SWAP1 POP JUMP JUMPDEST PUSH1 0x0 PUSH1 0x20 DUP3 ADD SWAP1 POP PUSH2 0x28D4 PUSH1 0x0 DUP4 ADD DUP5 PUSH2 0x26CA JUMP JUMPDEST SWAP3 SWAP2 POP POP JUMP JUMPDEST PUSH1 0x0 PUSH1 0x40 DUP3 ADD SWAP1 POP PUSH2 0x28EF PUSH1 0x0 DUP4 ADD DUP6 PUSH2 0x26CA JUMP JUMPDEST PUSH2 0x28FC PUSH1 0x20 DUP4 ADD DUP5 PUSH2 0x26CA JUMP JUMPDEST SWAP4 SWAP3 POP POP POP JUMP JUMPDEST PUSH1 0x0 PUSH1 0x60 DUP3 ADD SWAP1 POP PUSH2 0x2918 PUSH1 0x0 DUP4 ADD DUP7 PUSH2 0x26CA JUMP JUMPDEST PUSH2 0x2925 PUSH1 0x20 DUP4 ADD DUP6 PUSH2 0x26CA JUMP JUMPDEST PUSH2 0x2932 PUSH1 0x40 DUP4 ADD DUP5 PUSH2 0x286D JUMP JUMPDEST SWAP5 SWAP4 POP POP POP POP JUMP JUMPDEST PUSH1 0x0 PUSH1 0xE0 DUP3 ADD SWAP1 POP PUSH2 0x294F PUSH1 0x0 DUP4 ADD DUP11 PUSH2 0x26CA JUMP JUMPDEST PUSH2 0x295C PUSH1 0x20 DUP4 ADD DUP10 PUSH2 0x26CA JUMP JUMPDEST PUSH2 0x2969 PUSH1 0x40 DUP4 ADD DUP9 PUSH2 0x286D JUMP JUMPDEST PUSH2 0x2976 PUSH1 0x60 DUP4 ADD DUP8 PUSH2 0x286D JUMP JUMPDEST PUSH2 0x2983 PUSH1 0x80 DUP4 ADD DUP7 PUSH2 0x286D JUMP JUMPDEST PUSH2 0x2990 PUSH1 0xA0 DUP4 ADD DUP6 PUSH2 0x26CA JUMP JUMPDEST PUSH2 0x299D PUSH1 0xC0 DUP4 ADD DUP5 PUSH2 0x286D JUMP JUMPDEST SWAP9 SWAP8 POP POP POP POP POP POP POP POP JUMP JUMPDEST PUSH1 0x0 PUSH2 0x100 DUP3 ADD SWAP1 POP PUSH2 0x29BF PUSH1 0x0 DUP4 ADD DUP12 PUSH2 0x26CA JUMP JUMPDEST PUSH2 0x29CC PUSH1 0x20 DUP4 ADD DUP11 PUSH2 0x26CA JUMP JUMPDEST PUSH2 0x29D9 PUSH1 0x40 DUP4 ADD DUP10 PUSH2 0x286D JUMP JUMPDEST PUSH2 0x29E6 PUSH1 0x60 DUP4 ADD DUP9 PUSH2 0x286D JUMP JUMPDEST PUSH2 0x29F3 PUSH1 0x80 DUP4 ADD DUP8 PUSH2 0x286D JUMP JUMPDEST PUSH2 0x2A00 PUSH1 0xA0 DUP4 ADD DUP7 PUSH2 0x286D JUMP JUMPDEST PUSH2 0x2A0D PUSH1 0xC0 DUP4 ADD DUP6 PUSH2 0x26CA JUMP JUMPDEST PUSH2 0x2A1A PUSH1 0xE0 DUP4 ADD DUP5 PUSH2 0x286D JUMP JUMPDEST SWAP10 SWAP9 POP POP POP POP POP POP POP POP POP JUMP JUMPDEST PUSH1 0x0 PUSH1 0x40 DUP3 ADD SWAP1 POP PUSH2 0x2A3C PUSH1 0x0 DUP4 ADD DUP6 PUSH2 0x26CA JUMP JUMPDEST PUSH2 0x2A49 PUSH1 0x20 DUP4 ADD DUP5 PUSH2 0x286D JUMP JUMPDEST SWAP4 SWAP3 POP POP POP JUMP JUMPDEST PUSH1 0x0 PUSH1 0x40 DUP3 ADD SWAP1 POP PUSH2 0x2A65 PUSH1 0x0 DUP4 ADD DUP6 PUSH2 0x2737 JUMP JUMPDEST DUP2 DUP2 SUB PUSH1 0x20 DUP4 ADD MSTORE PUSH2 0x2A77 DUP2 DUP5 PUSH2 0x2746 JUMP JUMPDEST SWAP1 POP SWAP4 SWAP3 POP POP POP JUMP JUMPDEST PUSH1 0x0 PUSH1 0x20 DUP3 ADD SWAP1 POP DUP2 DUP2 SUB PUSH1 0x0 DUP4 ADD MSTORE PUSH2 0x2A99 DUP2 PUSH2 0x27E1 JUMP JUMPDEST SWAP1 POP SWAP2 SWAP1 POP JUMP JUMPDEST PUSH1 0x0 PUSH1 0x20 DUP3 ADD SWAP1 POP DUP2 DUP2 SUB PUSH1 0x0 DUP4 ADD MSTORE PUSH2 0x2AB9 DUP2 PUSH2 0x2804 JUMP JUMPDEST SWAP1 POP SWAP2 SWAP1 POP JUMP JUMPDEST PUSH1 0x0 PUSH1 0x20 DUP3 ADD SWAP1 POP DUP2 DUP2 SUB PUSH1 0x0 DUP4 ADD MSTORE PUSH2 0x2AD9 DUP2 PUSH2 0x2827 JUMP JUMPDEST SWAP1 POP SWAP2 SWAP1 POP JUMP JUMPDEST PUSH1 0x0 PUSH1 0x20 DUP3 ADD SWAP1 POP PUSH2 0x2AF5 PUSH1 0x0 DUP4 ADD DUP5 PUSH2 0x286D JUMP JUMPDEST SWAP3 SWAP2 POP POP JUMP JUMPDEST PUSH1 0x0 PUSH1 0x40 DUP3 ADD SWAP1 POP PUSH2 0x2B10 PUSH1 0x0 DUP4 ADD DUP6 PUSH2 0x286D JUMP JUMPDEST DUP2 DUP2 SUB PUSH1 0x20 DUP4 ADD MSTORE PUSH2 0x2B22 DUP2 DUP5 PUSH2 0x26D9 JUMP JUMPDEST SWAP1 POP SWAP4 SWAP3 POP POP POP JUMP JUMPDEST PUSH1 0x0 PUSH1 0xA0 DUP3 ADD SWAP1 POP PUSH2 0x2B40 PUSH1 0x0 DUP4 ADD DUP9 PUSH2 0x286D JUMP JUMPDEST PUSH2 0x2B4D PUSH1 0x20 DUP4 ADD DUP8 PUSH2 0x286D JUMP JUMPDEST DUP2 DUP2 SUB PUSH1 0x40 DUP4 ADD MSTORE PUSH2 0x2B5F DUP2 DUP7 PUSH2 0x26D9 JUMP JUMPDEST SWAP1 POP PUSH2 0x2B6E PUSH1 0x60 DUP4 ADD DUP6 PUSH2 0x26CA JUMP JUMPDEST PUSH2 0x2B7B PUSH1 0x80 DUP4 ADD DUP5 PUSH2 0x286D JUMP JUMPDEST SWAP7 SWAP6 POP POP POP POP POP POP JUMP JUMPDEST PUSH1 0x0 PUSH2 0x2B8F PUSH2 0x2BA0 JUMP JUMPDEST SWAP1 POP PUSH2 0x2B9B DUP3 DUP3 PUSH2 0x2DA2 JUMP JUMPDEST SWAP2 SWAP1 POP JUMP JUMPDEST PUSH1 0x0 PUSH1 0x40 MLOAD SWAP1 POP SWAP1 JUMP JUMPDEST PUSH1 0x0 PUSH8 0xFFFFFFFFFFFFFFFF DUP3 GT ISZERO PUSH2 0x2BC5 JUMPI PUSH2 0x2BC4 PUSH2 0x2E31 JUMP JUMPDEST JUMPDEST PUSH1 0x20 DUP3 MUL SWAP1 POP PUSH1 0x20 DUP2 ADD SWAP1 POP SWAP2 SWAP1 POP JUMP JUMPDEST PUSH1 0x0 PUSH8 0xFFFFFFFFFFFFFFFF DUP3 GT ISZERO PUSH2 0x2BF1 JUMPI PUSH2 0x2BF0 PUSH2 0x2E31 JUMP JUMPDEST JUMPDEST PUSH2 0x2BFA DUP3 PUSH2 0x2E79 JUMP JUMPDEST SWAP1 POP PUSH1 0x20 DUP2 ADD SWAP1 POP SWAP2 SWAP1 POP JUMP JUMPDEST PUSH1 0x0 DUP2 SWAP1 POP PUSH1 0x20 DUP3 ADD SWAP1 POP SWAP2 SWAP1 POP JUMP JUMPDEST PUSH1 0x0 DUP2 MLOAD SWAP1 POP SWAP2 SWAP1 POP JUMP JUMPDEST PUSH1 0x0 DUP2 MLOAD SWAP1 POP SWAP2 SWAP1 POP JUMP JUMPDEST PUSH1 0x0 DUP2 MLOAD SWAP1 POP SWAP2 SWAP1 POP JUMP JUMPDEST PUSH1 0x0 PUSH1 0x20 DUP3 ADD SWAP1 POP SWAP2 SWAP1 POP JUMP JUMPDEST PUSH1 0x0 DUP3 DUP3 MSTORE PUSH1 0x20 DUP3 ADD SWAP1 POP SWAP3 SWAP2 POP POP JUMP JUMPDEST PUSH1 0x0 DUP3 DUP3 MSTORE PUSH1 0x20 DUP3 ADD SWAP1 POP SWAP3 SWAP2 POP POP JUMP JUMPDEST PUSH1 0x0 DUP2 SWAP1 POP SWAP3 SWAP2 POP POP JUMP JUMPDEST PUSH1 0x0 DUP3 DUP3 MSTORE PUSH1 0x20 DUP3 ADD SWAP1 POP SWAP3 SWAP2 POP POP JUMP JUMPDEST PUSH1 0x0 DUP2 SWAP1 POP SWAP3 SWAP2 POP POP JUMP JUMPDEST PUSH1 0x0 PUSH2 0x2C99 DUP3 PUSH2 0x2D56 JUMP JUMPDEST SWAP2 POP PUSH2 0x2CA4 DUP4 PUSH2 0x2D56 JUMP JUMPDEST SWAP3 POP DUP3 PUSH32 0xFFFFFFFFFFFFFFFFFFFFFFFFFFFFFFFFFFFFFFFFFFFFFFFFFFFFFFFFFFFFFFFF SUB DUP3 GT ISZERO PUSH2 0x2CD9 JUMPI PUSH2 0x2CD8 PUSH2 0x2DD3 JUMP JUMPDEST JUMPDEST DUP3 DUP3 ADD SWAP1 POP SWAP3 SWAP2 POP POP JUMP JUMPDEST PUSH1 0x0 PUSH2 0x2CEF DUP3 PUSH2 0x2D56 JUMP JUMPDEST SWAP2 POP PUSH2 0x2CFA DUP4 PUSH2 0x2D56 JUMP JUMPDEST SWAP3 POP DUP3 DUP3 LT ISZERO PUSH2 0x2D0D JUMPI PUSH2 0x2D0C PUSH2 0x2DD3 JUMP JUMPDEST JUMPDEST DUP3 DUP3 SUB SWAP1 POP SWAP3 SWAP2 POP POP JUMP JUMPDEST PUSH1 0x0 PUSH2 0x2D23 DUP3 PUSH2 0x2D36 JUMP JUMPDEST SWAP1 POP SWAP2 SWAP1 POP JUMP JUMPDEST PUSH1 0x0 DUP2 ISZERO ISZERO SWAP1 POP SWAP2 SWAP1 POP JUMP JUMPDEST PUSH1 0x0 PUSH20 0xFFFFFFFFFFFFFFFFFFFFFFFFFFFFFFFFFFFFFFFF DUP3 AND SWAP1 POP SWAP2 SWAP1 POP JUMP JUMPDEST PUSH1 0x0 DUP2 SWAP1 POP SWAP2 SWAP1 POP JUMP JUMPDEST DUP3 DUP2 DUP4 CALLDATACOPY PUSH1 0x0 DUP4 DUP4 ADD MSTORE POP POP POP JUMP JUMPDEST PUSH1 0x0 JUMPDEST DUP4 DUP2 LT ISZERO PUSH2 0x2D8D JUMPI DUP1 DUP3 ADD MLOAD DUP2 DUP5 ADD MSTORE PUSH1 0x20 DUP2 ADD SWAP1 POP PUSH2 0x2D72 JUMP JUMPDEST DUP4 DUP2 GT ISZERO PUSH2 0x2D9C JUMPI PUSH1 0x0 DUP5 DUP5 ADD MSTORE JUMPDEST POP POP POP POP JUMP JUMPDEST PUSH2 0x2DAB DUP3 PUSH2 0x2E79 JUMP JUMPDEST DUP2 ADD DUP2 DUP2 LT PUSH8 0xFFFFFFFFFFFFFFFF DUP3 GT OR ISZERO PUSH2 0x2DCA JUMPI PUSH2 0x2DC9 PUSH2 0x2E31 JUMP JUMPDEST JUMPDEST DUP1 PUSH1 0x40 MSTORE POP POP POP JUMP JUMPDEST PUSH32 0x4E487B7100000000000000000000000000000000000000000000000000000000 PUSH1 0x0 MSTORE PUSH1 0x11 PUSH1 0x4 MSTORE PUSH1 0x24 PUSH1 0x0 REVERT JUMPDEST PUSH32 0x4E487B7100000000000000000000000000000000000000000000000000000000 PUSH1 0x0 MSTORE PUSH1 0x32 PUSH1 0x4 MSTORE PUSH1 0x24 PUSH1 0x0 REVERT JUMPDEST PUSH32 0x4E487B7100000000000000000000000000000000000000000000000000000000 PUSH1 0x0 MSTORE PUSH1 0x41 PUSH1 0x4 MSTORE PUSH1 0x24 PUSH1 0x0 REVERT JUMPDEST PUSH1 0x0 DUP1 REVERT JUMPDEST PUSH1 0x0 DUP1 REVERT JUMPDEST PUSH1 0x0 DUP1 REVERT JUMPDEST PUSH1 0x0 DUP1 REVERT JUMPDEST PUSH1 0x0 DUP1 REVERT JUMPDEST PUSH1 0x0 PUSH1 0x1F NOT PUSH1 0x1F DUP4 ADD AND SWAP1 POP SWAP2 SWAP1 POP JUMP JUMPDEST PUSH32 0x5573657220646F6573206E6F74206861766520656E6F7567682062616C616E63 PUSH1 0x0 DUP3 ADD MSTORE PUSH32 0x6520746F20616464206C69717569646974792E00000000000000000000000000 PUSH1 0x20 DUP3 ADD MSTORE POP JUMP JUMPDEST PUSH32 0x5573657220646F6573206E6F74206861766520656E6F7567682062616C616E63 PUSH1 0x0 DUP3 ADD MSTORE PUSH32 0x6520746F207769746864726177207468697320616D6F756E742E000000000000 PUSH1 0x20 DUP3 ADD MSTORE POP JUMP JUMPDEST PUSH32 0x455243323020636F6E747261637420686173206E6F7420676976656E20706572 PUSH1 0x0 DUP3 ADD MSTORE PUSH32 0x6D697373696F6E20746F207468697320616464726573732E0000000000000000 PUSH1 0x20 DUP3 ADD MSTORE POP JUMP JUMPDEST PUSH32 0x574D415449430000000000000000000000000000000000000000000000000000 PUSH1 0x0 DUP3 ADD MSTORE POP JUMP JUMPDEST PUSH2 0x2FA9 DUP2 PUSH2 0x2D18 JUMP JUMPDEST DUP2 EQ PUSH2 0x2FB4 JUMPI PUSH1 0x0 DUP1 REVERT JUMPDEST POP JUMP JUMPDEST PUSH2 0x2FC0 DUP2 PUSH2 0x2D2A JUMP JUMPDEST DUP2 EQ PUSH2 0x2FCB JUMPI PUSH1 0x0 DUP1 REVERT JUMPDEST POP JUMP JUMPDEST PUSH2 0x2FD7 DUP2 PUSH2 0x2D56 JUMP JUMPDEST DUP2 EQ PUSH2 0x2FE2 JUMPI PUSH1 0x0 DUP1 REVERT JUMPDEST POP JUMP INVALID LOG2 PUSH5 0x6970667358 0x22 SLT KECCAK256 PUSH28 0xB4DA80F591F50EE5F93D2B5DBBE6F7A42E9ED1A9D15E4532A11A6795 LOG3 PUSH22 0xE564736F6C6343000807003300000000000000000000 "
				},
				"gasEstimates": {
					"creation": {
						"codeDepositCost": "2463000",
						"executionCost": "infinite",
						"totalCost": "infinite"
					},
					"external": {
						"add_liquidity(string,string,uint256,uint256,uint256,uint256,uint256)": "infinite",
						"get_amounts_out(uint256,string,string)": "infinite",
						"get_lp_token_balance(string,string,address)": "infinite",
						"get_lp_token_balance_contract(string,string)": "infinite",
						"get_lp_token_balance_sender(string,string)": "infinite",
						"get_token_balance(string,address)": "infinite",
						"get_token_balance_contract(string)": "infinite",
						"get_token_balance_sender(string)": "infinite",
						"get_user_deposit(address,string,string)": "infinite",
						"receive_wmatic()": "infinite",
						"swap_exact_tokens_for_tokens(uint256,uint256,string,string,uint256)": "infinite",
						"transfer_token(string,address,uint256)": "infinite",
						"transfer_token_to_contract(string,uint256)": "infinite",
						"withdraw_liquidity(string,string,uint256,uint256,uint256,uint256)": "infinite"
					},
					"internal": {
						"update_deposit(string memory,string memory,address)": "infinite"
					}
				},
				"methodIdentifiers": {
					"add_liquidity(string,string,uint256,uint256,uint256,uint256,uint256)": "ff091567",
					"get_amounts_out(uint256,string,string)": "6d336d6a",
					"get_lp_token_balance(string,string,address)": "f6884735",
					"get_lp_token_balance_contract(string,string)": "9d4d69c5",
					"get_lp_token_balance_sender(string,string)": "4ea44896",
					"get_token_balance(string,address)": "c3a48401",
					"get_token_balance_contract(string)": "e4386ba3",
					"get_token_balance_sender(string)": "7d3683ba",
					"get_user_deposit(address,string,string)": "884ef7bd",
					"receive_wmatic()": "7b60eb23",
					"swap_exact_tokens_for_tokens(uint256,uint256,string,string,uint256)": "f809a2e6",
					"transfer_token(string,address,uint256)": "7552acd6",
					"transfer_token_to_contract(string,uint256)": "9bc97dee",
					"withdraw_liquidity(string,string,uint256,uint256,uint256,uint256)": "99269cae"
				}
			},
			"storageLayout": {
				"storage": [
					{
						"astId": 495,
						"contract": "contracts/polygon/microcebus_main.sol:microcebus_main",
						"label": "token_contracts",
						"offset": 0,
						"slot": "0",
						"type": "t_mapping(t_string_memory_ptr,t_struct(Token)473_storage)"
					},
					{
						"astId": 502,
						"contract": "contracts/polygon/microcebus_main.sol:microcebus_main",
						"label": "lp_token_contracts",
						"offset": 0,
						"slot": "1",
						"type": "t_mapping(t_string_memory_ptr,t_mapping(t_string_memory_ptr,t_struct(LPToken)490_storage))"
					},
					{
						"astId": 531,
						"contract": "contracts/polygon/microcebus_main.sol:microcebus_main",
						"label": "admin",
						"offset": 0,
						"slot": "2",
						"type": "t_address"
					}
				],
				"types": {
					"t_address": {
						"encoding": "inplace",
						"label": "address",
						"numberOfBytes": "20"
					},
					"t_mapping(t_address,t_uint256)": {
						"encoding": "mapping",
						"key": "t_address",
						"label": "mapping(address => uint256)",
						"numberOfBytes": "32",
						"value": "t_uint256"
					},
					"t_mapping(t_string_memory_ptr,t_mapping(t_string_memory_ptr,t_struct(LPToken)490_storage))": {
						"encoding": "mapping",
						"key": "t_string_memory_ptr",
						"label": "mapping(string => mapping(string => struct microcebus_main.LPToken))",
						"numberOfBytes": "32",
						"value": "t_mapping(t_string_memory_ptr,t_struct(LPToken)490_storage)"
					},
					"t_mapping(t_string_memory_ptr,t_struct(LPToken)490_storage)": {
						"encoding": "mapping",
						"key": "t_string_memory_ptr",
						"label": "mapping(string => struct microcebus_main.LPToken)",
						"numberOfBytes": "32",
						"value": "t_struct(LPToken)490_storage"
					},
					"t_mapping(t_string_memory_ptr,t_struct(Token)473_storage)": {
						"encoding": "mapping",
						"key": "t_string_memory_ptr",
						"label": "mapping(string => struct microcebus_main.Token)",
						"numberOfBytes": "32",
						"value": "t_struct(Token)473_storage"
					},
					"t_string_memory_ptr": {
						"encoding": "bytes",
						"label": "string",
						"numberOfBytes": "32"
					},
					"t_struct(LPToken)490_storage": {
						"encoding": "inplace",
						"label": "struct microcebus_main.LPToken",
						"members": [
							{
								"astId": 476,
								"contract": "contracts/polygon/microcebus_main.sol:microcebus_main",
								"label": "token0",
								"offset": 0,
								"slot": "0",
								"type": "t_struct(Token)473_storage"
							},
							{
								"astId": 479,
								"contract": "contracts/polygon/microcebus_main.sol:microcebus_main",
								"label": "token1",
								"offset": 0,
								"slot": "2",
								"type": "t_struct(Token)473_storage"
							},
							{
								"astId": 481,
								"contract": "contracts/polygon/microcebus_main.sol:microcebus_main",
								"label": "adr",
								"offset": 0,
								"slot": "4",
								"type": "t_address"
							},
							{
								"astId": 483,
								"contract": "contracts/polygon/microcebus_main.sol:microcebus_main",
								"label": "decimals",
								"offset": 0,
								"slot": "5",
								"type": "t_uint256"
							},
							{
								"astId": 487,
								"contract": "contracts/polygon/microcebus_main.sol:microcebus_main",
								"label": "user_deposits",
								"offset": 0,
								"slot": "6",
								"type": "t_mapping(t_address,t_uint256)"
							},
							{
								"astId": 489,
								"contract": "contracts/polygon/microcebus_main.sol:microcebus_main",
								"label": "contract_deposit",
								"offset": 0,
								"slot": "7",
								"type": "t_uint256"
							}
						],
						"numberOfBytes": "256"
					},
					"t_struct(Token)473_storage": {
						"encoding": "inplace",
						"label": "struct microcebus_main.Token",
						"members": [
							{
								"astId": 470,
								"contract": "contracts/polygon/microcebus_main.sol:microcebus_main",
								"label": "adr",
								"offset": 0,
								"slot": "0",
								"type": "t_address"
							},
							{
								"astId": 472,
								"contract": "contracts/polygon/microcebus_main.sol:microcebus_main",
								"label": "decimals",
								"offset": 0,
								"slot": "1",
								"type": "t_uint256"
							}
						],
						"numberOfBytes": "64"
					},
					"t_uint256": {
						"encoding": "inplace",
						"label": "uint256",
						"numberOfBytes": "32"
					}
				}
			},
			"userdoc": {
				"kind": "user",
				"methods": {},
				"version": 1
			}
		}
	}
}