{
	"contracts/polygon/microcebus_main.sol": {
		"microcebus_main": {
			"abi": [
				{
					"inputs": [],
					"stateMutability": "nonpayable",
					"type": "constructor"
				},
				{
					"anonymous": false,
					"inputs": [
						{
							"indexed": false,
							"internalType": "bool",
							"name": "success",
							"type": "bool"
						},
						{
							"indexed": false,
							"internalType": "bytes",
							"name": "data",
							"type": "bytes"
						}
					],
					"name": "Response",
					"type": "event"
				},
				{
					"inputs": [],
					"name": "receive_wmatic",
					"outputs": [],
					"stateMutability": "payable",
					"type": "function"
				},
				{
					"inputs": [
						{
							"internalType": "uint256",
							"name": "_amount_in",
							"type": "uint256"
						},
						{
							"internalType": "uint256",
							"name": "_amount_out_min",
							"type": "uint256"
						},
						{
							"internalType": "string",
							"name": "_token_in_identifier",
							"type": "string"
						},
						{
							"internalType": "string",
							"name": "_token_out_identifier",
							"type": "string"
						},
						{
							"internalType": "uint256",
							"name": "deadline",
							"type": "uint256"
						}
					],
					"name": "swap_exact_tokens_for_tokens",
					"outputs": [],
					"stateMutability": "nonpayable",
					"type": "function"
				},
				{
					"inputs": [
						{
							"internalType": "string",
							"name": "_token_in_identifier",
							"type": "string"
						},
						{
							"internalType": "address",
							"name": "_token_receiver",
							"type": "address"
						},
						{
							"internalType": "uint256",
							"name": "_amount",
							"type": "uint256"
						}
					],
					"name": "transfer_token",
					"outputs": [],
					"stateMutability": "nonpayable",
					"type": "function"
				},
				{
					"inputs": [
						{
							"internalType": "string",
							"name": "_token_in_identifier",
							"type": "string"
						},
						{
							"internalType": "uint256",
							"name": "_amount",
							"type": "uint256"
						}
					],
					"name": "transfer_token_to_contract",
					"outputs": [],
					"stateMutability": "nonpayable",
					"type": "function"
				},
				{
					"stateMutability": "payable",
					"type": "receive"
				}
			],
			"devdoc": {
				"kind": "dev",
				"methods": {},
				"version": 1
			},
			"evm": {
				"assembly": "    /* \"contracts/polygon/microcebus_main.sol\":94:4106  contract microcebus_main {... */\n  mstore(0x40, 0x80)\n    /* \"contracts/polygon/microcebus_main.sol\":1252:1780  constructor() {... */\n  callvalue\n  dup1\n  iszero\n  tag_1\n  jumpi\n  0x00\n  dup1\n  revert\ntag_1:\n  pop\n    /* \"contracts/polygon/microcebus_main.sol\":1285:1295  msg.sender */\n  caller\n    /* \"contracts/polygon/microcebus_main.sol\":1277:1282  admin */\n  0x01\n  0x00\n    /* \"contracts/polygon/microcebus_main.sol\":1277:1295  admin = msg.sender */\n  0x0100\n  exp\n  dup2\n  sload\n  dup2\n  0xffffffffffffffffffffffffffffffffffffffff\n  mul\n  not\n  and\n  swap1\n  dup4\n  0xffffffffffffffffffffffffffffffffffffffff\n  and\n  mul\n  or\n  swap1\n  sstore\n  pop\n    /* \"contracts/polygon/microcebus_main.sol\":1330:1361  Token({adr: DAI, decimals: 18}) */\n  mload(0x40)\n  dup1\n  0x40\n  add\n  0x40\n  mstore\n  dup1\n    /* \"contracts/polygon/microcebus_main.sol\":854:896  0x8f3Cf7ad23Cd3CaDbD9735AFf958023239c6A063 */\n  0x8f3cf7ad23cd3cadbd9735aff958023239c6a063\n    /* \"contracts/polygon/microcebus_main.sol\":1330:1361  Token({adr: DAI, decimals: 18}) */\n  0xffffffffffffffffffffffffffffffffffffffff\n  and\n  dup2\n  mstore\n  0x20\n  add\n    /* \"contracts/polygon/microcebus_main.sol\":1357:1359  18 */\n  0x12\n    /* \"contracts/polygon/microcebus_main.sol\":1330:1361  Token({adr: DAI, decimals: 18}) */\n  dup2\n  mstore\n  pop\n    /* \"contracts/polygon/microcebus_main.sol\":1305:1320  token_contracts */\n  0x00\n    /* \"contracts/polygon/microcebus_main.sol\":1305:1327  token_contracts[\"DAI\"] */\n  mload(0x40)\n  tag_4\n  swap1\n  tag_5\n  jump\t// in\ntag_4:\n  swap1\n  dup2\n  mstore\n  0x20\n  add\n  mload(0x40)\n  dup1\n  swap2\n  sub\n  swap1\n  keccak256\n    /* \"contracts/polygon/microcebus_main.sol\":1305:1361  token_contracts[\"DAI\"] = Token({adr: DAI, decimals: 18}) */\n  0x00\n  dup3\n  add\n  mload\n  dup2\n  0x00\n  add\n  exp(0x0100, 0x00)\n  dup2\n  sload\n  dup2\n  0xffffffffffffffffffffffffffffffffffffffff\n  mul\n  not\n  and\n  swap1\n  dup4\n  0xffffffffffffffffffffffffffffffffffffffff\n  and\n  mul\n  or\n  swap1\n  sstore\n  pop\n  0x20\n  dup3\n  add\n  mload\n  dup2\n  0x01\n  add\n  sstore\n  swap1\n  pop\n  pop\n    /* \"contracts/polygon/microcebus_main.sol\":1397:1429  Token({adr: WETH, decimals: 18}) */\n  mload(0x40)\n  dup1\n  0x40\n  add\n  0x40\n  mstore\n  dup1\n    /* \"contracts/polygon/microcebus_main.sol\":1136:1178  0x7ceB23fD6bC0adD59E62ac25578270cFf1b9f619 */\n  0x7ceb23fd6bc0add59e62ac25578270cff1b9f619\n    /* \"contracts/polygon/microcebus_main.sol\":1397:1429  Token({adr: WETH, decimals: 18}) */\n  0xffffffffffffffffffffffffffffffffffffffff\n  and\n  dup2\n  mstore\n  0x20\n  add\n    /* \"contracts/polygon/microcebus_main.sol\":1425:1427  18 */\n  0x12\n    /* \"contracts/polygon/microcebus_main.sol\":1397:1429  Token({adr: WETH, decimals: 18}) */\n  dup2\n  mstore\n  pop\n    /* \"contracts/polygon/microcebus_main.sol\":1371:1386  token_contracts */\n  0x00\n    /* \"contracts/polygon/microcebus_main.sol\":1371:1394  token_contracts[\"WETH\"] */\n  mload(0x40)\n  tag_6\n  swap1\n  tag_7\n  jump\t// in\ntag_6:\n  swap1\n  dup2\n  mstore\n  0x20\n  add\n  mload(0x40)\n  dup1\n  swap2\n  sub\n  swap1\n  keccak256\n    /* \"contracts/polygon/microcebus_main.sol\":1371:1429  token_contracts[\"WETH\"] = Token({adr: WETH, decimals: 18}) */\n  0x00\n  dup3\n  add\n  mload\n  dup2\n  0x00\n  add\n  exp(0x0100, 0x00)\n  dup2\n  sload\n  dup2\n  0xffffffffffffffffffffffffffffffffffffffff\n  mul\n  not\n  and\n  swap1\n  dup4\n  0xffffffffffffffffffffffffffffffffffffffff\n  and\n  mul\n  or\n  swap1\n  sstore\n  pop\n  0x20\n  dup3\n  add\n  mload\n  dup2\n  0x01\n  add\n  sstore\n  swap1\n  pop\n  pop\n    /* \"contracts/polygon/microcebus_main.sol\":1467:1501  Token({adr: WMATIC, decimals: 18}) */\n  mload(0x40)\n  dup1\n  0x40\n  add\n  0x40\n  mstore\n  dup1\n    /* \"contracts/polygon/microcebus_main.sol\":715:757  0x0d500B1d8E8eF31E21C99d1Db9A6444d3ADf1270 */\n  0x0d500b1d8e8ef31e21c99d1db9a6444d3adf1270\n    /* \"contracts/polygon/microcebus_main.sol\":1467:1501  Token({adr: WMATIC, decimals: 18}) */\n  0xffffffffffffffffffffffffffffffffffffffff\n  and\n  dup2\n  mstore\n  0x20\n  add\n    /* \"contracts/polygon/microcebus_main.sol\":1497:1499  18 */\n  0x12\n    /* \"contracts/polygon/microcebus_main.sol\":1467:1501  Token({adr: WMATIC, decimals: 18}) */\n  dup2\n  mstore\n  pop\n    /* \"contracts/polygon/microcebus_main.sol\":1439:1454  token_contracts */\n  0x00\n    /* \"contracts/polygon/microcebus_main.sol\":1439:1464  token_contracts[\"WMATIC\"] */\n  mload(0x40)\n  tag_8\n  swap1\n  tag_9\n  jump\t// in\ntag_8:\n  swap1\n  dup2\n  mstore\n  0x20\n  add\n  mload(0x40)\n  dup1\n  swap2\n  sub\n  swap1\n  keccak256\n    /* \"contracts/polygon/microcebus_main.sol\":1439:1501  token_contracts[\"WMATIC\"] = Token({adr: WMATIC, decimals: 18}) */\n  0x00\n  dup3\n  add\n  mload\n  dup2\n  0x00\n  add\n  exp(0x0100, 0x00)\n  dup2\n  sload\n  dup2\n  0xffffffffffffffffffffffffffffffffffffffff\n  mul\n  not\n  and\n  swap1\n  dup4\n  0xffffffffffffffffffffffffffffffffffffffff\n  and\n  mul\n  or\n  swap1\n  sstore\n  pop\n  0x20\n  dup3\n  add\n  mload\n  dup2\n  0x01\n  add\n  sstore\n  swap1\n  pop\n  pop\n    /* \"contracts/polygon/microcebus_main.sol\":1537:1568  Token({adr: USDC, decimals: 6}) */\n  mload(0x40)\n  dup1\n  0x40\n  add\n  0x40\n  mstore\n  dup1\n    /* \"contracts/polygon/microcebus_main.sol\":785:827  0x2791Bca1f2de4661ED88A30C99A7a9449Aa84174 */\n  0x2791bca1f2de4661ed88a30c99a7a9449aa84174\n    /* \"contracts/polygon/microcebus_main.sol\":1537:1568  Token({adr: USDC, decimals: 6}) */\n  0xffffffffffffffffffffffffffffffffffffffff\n  and\n  dup2\n  mstore\n  0x20\n  add\n    /* \"contracts/polygon/microcebus_main.sol\":1565:1566  6 */\n  0x06\n    /* \"contracts/polygon/microcebus_main.sol\":1537:1568  Token({adr: USDC, decimals: 6}) */\n  dup2\n  mstore\n  pop\n    /* \"contracts/polygon/microcebus_main.sol\":1511:1526  token_contracts */\n  0x00\n    /* \"contracts/polygon/microcebus_main.sol\":1511:1534  token_contracts[\"USDC\"] */\n  mload(0x40)\n  tag_10\n  swap1\n  tag_11\n  jump\t// in\ntag_10:\n  swap1\n  dup2\n  mstore\n  0x20\n  add\n  mload(0x40)\n  dup1\n  swap2\n  sub\n  swap1\n  keccak256\n    /* \"contracts/polygon/microcebus_main.sol\":1511:1568  token_contracts[\"USDC\"] = Token({adr: USDC, decimals: 6}) */\n  0x00\n  dup3\n  add\n  mload\n  dup2\n  0x00\n  add\n  exp(0x0100, 0x00)\n  dup2\n  sload\n  dup2\n  0xffffffffffffffffffffffffffffffffffffffff\n  mul\n  not\n  and\n  swap1\n  dup4\n  0xffffffffffffffffffffffffffffffffffffffff\n  and\n  mul\n  or\n  swap1\n  sstore\n  pop\n  0x20\n  dup3\n  add\n  mload\n  dup2\n  0x01\n  add\n  sstore\n  swap1\n  pop\n  pop\n    /* \"contracts/polygon/microcebus_main.sol\":1604:1635  Token({adr: USDT, decimals: 6}) */\n  mload(0x40)\n  dup1\n  0x40\n  add\n  0x40\n  mstore\n  dup1\n    /* \"contracts/polygon/microcebus_main.sol\":924:966  0xc2132D05D31c914a87C6611C10748AEb04B58e8F */\n  0xc2132d05d31c914a87c6611c10748aeb04b58e8f\n    /* \"contracts/polygon/microcebus_main.sol\":1604:1635  Token({adr: USDT, decimals: 6}) */\n  0xffffffffffffffffffffffffffffffffffffffff\n  and\n  dup2\n  mstore\n  0x20\n  add\n    /* \"contracts/polygon/microcebus_main.sol\":1632:1633  6 */\n  0x06\n    /* \"contracts/polygon/microcebus_main.sol\":1604:1635  Token({adr: USDT, decimals: 6}) */\n  dup2\n  mstore\n  pop\n    /* \"contracts/polygon/microcebus_main.sol\":1578:1593  token_contracts */\n  0x00\n    /* \"contracts/polygon/microcebus_main.sol\":1578:1601  token_contracts[\"USDT\"] */\n  mload(0x40)\n  tag_12\n  swap1\n  tag_13\n  jump\t// in\ntag_12:\n  swap1\n  dup2\n  mstore\n  0x20\n  add\n  mload(0x40)\n  dup1\n  swap2\n  sub\n  swap1\n  keccak256\n    /* \"contracts/polygon/microcebus_main.sol\":1578:1635  token_contracts[\"USDT\"] = Token({adr: USDT, decimals: 6}) */\n  0x00\n  dup3\n  add\n  mload\n  dup2\n  0x00\n  add\n  exp(0x0100, 0x00)\n  dup2\n  sload\n  dup2\n  0xffffffffffffffffffffffffffffffffffffffff\n  mul\n  not\n  and\n  swap1\n  dup4\n  0xffffffffffffffffffffffffffffffffffffffff\n  and\n  mul\n  or\n  swap1\n  sstore\n  pop\n  0x20\n  dup3\n  add\n  mload\n  dup2\n  0x01\n  add\n  sstore\n  swap1\n  pop\n  pop\n    /* \"contracts/polygon/microcebus_main.sol\":1671:1702  Token({adr: WBTC, decimals: 8}) */\n  mload(0x40)\n  dup1\n  0x40\n  add\n  0x40\n  mstore\n  dup1\n    /* \"contracts/polygon/microcebus_main.sol\":994:1036  0x1BFD67037B42Cf73acF2047067bd4F2C47D9BfD6 */\n  0x1bfd67037b42cf73acf2047067bd4f2c47d9bfd6\n    /* \"contracts/polygon/microcebus_main.sol\":1671:1702  Token({adr: WBTC, decimals: 8}) */\n  0xffffffffffffffffffffffffffffffffffffffff\n  and\n  dup2\n  mstore\n  0x20\n  add\n    /* \"contracts/polygon/microcebus_main.sol\":1699:1700  8 */\n  0x08\n    /* \"contracts/polygon/microcebus_main.sol\":1671:1702  Token({adr: WBTC, decimals: 8}) */\n  dup2\n  mstore\n  pop\n    /* \"contracts/polygon/microcebus_main.sol\":1645:1660  token_contracts */\n  0x00\n    /* \"contracts/polygon/microcebus_main.sol\":1645:1668  token_contracts[\"WBTC\"] */\n  mload(0x40)\n  tag_14\n  swap1\n  tag_15\n  jump\t// in\ntag_14:\n  swap1\n  dup2\n  mstore\n  0x20\n  add\n  mload(0x40)\n  dup1\n  swap2\n  sub\n  swap1\n  keccak256\n    /* \"contracts/polygon/microcebus_main.sol\":1645:1702  token_contracts[\"WBTC\"] = Token({adr: WBTC, decimals: 8}) */\n  0x00\n  dup3\n  add\n  mload\n  dup2\n  0x00\n  add\n  exp(0x0100, 0x00)\n  dup2\n  sload\n  dup2\n  0xffffffffffffffffffffffffffffffffffffffff\n  mul\n  not\n  and\n  swap1\n  dup4\n  0xffffffffffffffffffffffffffffffffffffffff\n  and\n  mul\n  or\n  swap1\n  sstore\n  pop\n  0x20\n  dup3\n  add\n  mload\n  dup2\n  0x01\n  add\n  sstore\n  swap1\n  pop\n  pop\n    /* \"contracts/polygon/microcebus_main.sol\":1740:1774  Token({adr: DQUICK, decimals: 18}) */\n  mload(0x40)\n  dup1\n  0x40\n  add\n  0x40\n  mstore\n  dup1\n    /* \"contracts/polygon/microcebus_main.sol\":1066:1108  0xf28164A485B0B2C90639E47b0f377b4a438a16B1 */\n  0xf28164a485b0b2c90639e47b0f377b4a438a16b1\n    /* \"contracts/polygon/microcebus_main.sol\":1740:1774  Token({adr: DQUICK, decimals: 18}) */\n  0xffffffffffffffffffffffffffffffffffffffff\n  and\n  dup2\n  mstore\n  0x20\n  add\n    /* \"contracts/polygon/microcebus_main.sol\":1770:1772  18 */\n  0x12\n    /* \"contracts/polygon/microcebus_main.sol\":1740:1774  Token({adr: DQUICK, decimals: 18}) */\n  dup2\n  mstore\n  pop\n    /* \"contracts/polygon/microcebus_main.sol\":1712:1727  token_contracts */\n  0x00\n    /* \"contracts/polygon/microcebus_main.sol\":1712:1737  token_contracts[\"DQUICK\"] */\n  mload(0x40)\n  tag_16\n  swap1\n  tag_17\n  jump\t// in\ntag_16:\n  swap1\n  dup2\n  mstore\n  0x20\n  add\n  mload(0x40)\n  dup1\n  swap2\n  sub\n  swap1\n  keccak256\n    /* \"contracts/polygon/microcebus_main.sol\":1712:1774  token_contracts[\"DQUICK\"] = Token({adr: DQUICK, decimals: 18}) */\n  0x00\n  dup3\n  add\n  mload\n  dup2\n  0x00\n  add\n  exp(0x0100, 0x00)\n  dup2\n  sload\n  dup2\n  0xffffffffffffffffffffffffffffffffffffffff\n  mul\n  not\n  and\n  swap1\n  dup4\n  0xffffffffffffffffffffffffffffffffffffffff\n  and\n  mul\n  or\n  swap1\n  sstore\n  pop\n  0x20\n  dup3\n  add\n  mload\n  dup2\n  0x01\n  add\n  sstore\n  swap1\n  pop\n  pop\n    /* \"contracts/polygon/microcebus_main.sol\":94:4106  contract microcebus_main {... */\n  jump(tag_18)\n    /* \"#utility.yul\":7:407   */\ntag_20:\n    /* \"#utility.yul\":167:170   */\n  0x00\n    /* \"#utility.yul\":188:272   */\n  tag_22\n    /* \"#utility.yul\":270:271   */\n  0x04\n    /* \"#utility.yul\":265:268   */\n  dup4\n    /* \"#utility.yul\":188:272   */\n  tag_23\n  jump\t// in\ntag_22:\n    /* \"#utility.yul\":181:272   */\n  swap2\n  pop\n    /* \"#utility.yul\":281:374   */\n  tag_24\n    /* \"#utility.yul\":370:373   */\n  dup3\n    /* \"#utility.yul\":281:374   */\n  tag_25\n  jump\t// in\ntag_24:\n    /* \"#utility.yul\":399:400   */\n  0x04\n    /* \"#utility.yul\":394:397   */\n  dup3\n    /* \"#utility.yul\":390:401   */\n  add\n    /* \"#utility.yul\":383:401   */\n  swap1\n  pop\n    /* \"#utility.yul\":7:407   */\n  swap2\n  swap1\n  pop\n  jump\t// out\n    /* \"#utility.yul\":413:813   */\ntag_26:\n    /* \"#utility.yul\":573:576   */\n  0x00\n    /* \"#utility.yul\":594:678   */\n  tag_28\n    /* \"#utility.yul\":676:677   */\n  0x06\n    /* \"#utility.yul\":671:674   */\n  dup4\n    /* \"#utility.yul\":594:678   */\n  tag_23\n  jump\t// in\ntag_28:\n    /* \"#utility.yul\":587:678   */\n  swap2\n  pop\n    /* \"#utility.yul\":687:780   */\n  tag_29\n    /* \"#utility.yul\":776:779   */\n  dup3\n    /* \"#utility.yul\":687:780   */\n  tag_30\n  jump\t// in\ntag_29:\n    /* \"#utility.yul\":805:806   */\n  0x06\n    /* \"#utility.yul\":800:803   */\n  dup3\n    /* \"#utility.yul\":796:807   */\n  add\n    /* \"#utility.yul\":789:807   */\n  swap1\n  pop\n    /* \"#utility.yul\":413:813   */\n  swap2\n  swap1\n  pop\n  jump\t// out\n    /* \"#utility.yul\":819:1219   */\ntag_31:\n    /* \"#utility.yul\":979:982   */\n  0x00\n    /* \"#utility.yul\":1000:1084   */\n  tag_33\n    /* \"#utility.yul\":1082:1083   */\n  0x04\n    /* \"#utility.yul\":1077:1080   */\n  dup4\n    /* \"#utility.yul\":1000:1084   */\n  tag_23\n  jump\t// in\ntag_33:\n    /* \"#utility.yul\":993:1084   */\n  swap2\n  pop\n    /* \"#utility.yul\":1093:1186   */\n  tag_34\n    /* \"#utility.yul\":1182:1185   */\n  dup3\n    /* \"#utility.yul\":1093:1186   */\n  tag_35\n  jump\t// in\ntag_34:\n    /* \"#utility.yul\":1211:1212   */\n  0x04\n    /* \"#utility.yul\":1206:1209   */\n  dup3\n    /* \"#utility.yul\":1202:1213   */\n  add\n    /* \"#utility.yul\":1195:1213   */\n  swap1\n  pop\n    /* \"#utility.yul\":819:1219   */\n  swap2\n  swap1\n  pop\n  jump\t// out\n    /* \"#utility.yul\":1225:1625   */\ntag_36:\n    /* \"#utility.yul\":1385:1388   */\n  0x00\n    /* \"#utility.yul\":1406:1490   */\n  tag_38\n    /* \"#utility.yul\":1488:1489   */\n  0x04\n    /* \"#utility.yul\":1483:1486   */\n  dup4\n    /* \"#utility.yul\":1406:1490   */\n  tag_23\n  jump\t// in\ntag_38:\n    /* \"#utility.yul\":1399:1490   */\n  swap2\n  pop\n    /* \"#utility.yul\":1499:1592   */\n  tag_39\n    /* \"#utility.yul\":1588:1591   */\n  dup3\n    /* \"#utility.yul\":1499:1592   */\n  tag_40\n  jump\t// in\ntag_39:\n    /* \"#utility.yul\":1617:1618   */\n  0x04\n    /* \"#utility.yul\":1612:1615   */\n  dup3\n    /* \"#utility.yul\":1608:1619   */\n  add\n    /* \"#utility.yul\":1601:1619   */\n  swap1\n  pop\n    /* \"#utility.yul\":1225:1625   */\n  swap2\n  swap1\n  pop\n  jump\t// out\n    /* \"#utility.yul\":1631:2031   */\ntag_41:\n    /* \"#utility.yul\":1791:1794   */\n  0x00\n    /* \"#utility.yul\":1812:1896   */\n  tag_43\n    /* \"#utility.yul\":1894:1895   */\n  0x03\n    /* \"#utility.yul\":1889:1892   */\n  dup4\n    /* \"#utility.yul\":1812:1896   */\n  tag_23\n  jump\t// in\ntag_43:\n    /* \"#utility.yul\":1805:1896   */\n  swap2\n  pop\n    /* \"#utility.yul\":1905:1998   */\n  tag_44\n    /* \"#utility.yul\":1994:1997   */\n  dup3\n    /* \"#utility.yul\":1905:1998   */\n  tag_45\n  jump\t// in\ntag_44:\n    /* \"#utility.yul\":2023:2024   */\n  0x03\n    /* \"#utility.yul\":2018:2021   */\n  dup3\n    /* \"#utility.yul\":2014:2025   */\n  add\n    /* \"#utility.yul\":2007:2025   */\n  swap1\n  pop\n    /* \"#utility.yul\":1631:2031   */\n  swap2\n  swap1\n  pop\n  jump\t// out\n    /* \"#utility.yul\":2037:2437   */\ntag_46:\n    /* \"#utility.yul\":2197:2200   */\n  0x00\n    /* \"#utility.yul\":2218:2302   */\n  tag_48\n    /* \"#utility.yul\":2300:2301   */\n  0x04\n    /* \"#utility.yul\":2295:2298   */\n  dup4\n    /* \"#utility.yul\":2218:2302   */\n  tag_23\n  jump\t// in\ntag_48:\n    /* \"#utility.yul\":2211:2302   */\n  swap2\n  pop\n    /* \"#utility.yul\":2311:2404   */\n  tag_49\n    /* \"#utility.yul\":2400:2403   */\n  dup3\n    /* \"#utility.yul\":2311:2404   */\n  tag_50\n  jump\t// in\ntag_49:\n    /* \"#utility.yul\":2429:2430   */\n  0x04\n    /* \"#utility.yul\":2424:2427   */\n  dup3\n    /* \"#utility.yul\":2420:2431   */\n  add\n    /* \"#utility.yul\":2413:2431   */\n  swap1\n  pop\n    /* \"#utility.yul\":2037:2437   */\n  swap2\n  swap1\n  pop\n  jump\t// out\n    /* \"#utility.yul\":2443:2843   */\ntag_51:\n    /* \"#utility.yul\":2603:2606   */\n  0x00\n    /* \"#utility.yul\":2624:2708   */\n  tag_53\n    /* \"#utility.yul\":2706:2707   */\n  0x06\n    /* \"#utility.yul\":2701:2704   */\n  dup4\n    /* \"#utility.yul\":2624:2708   */\n  tag_23\n  jump\t// in\ntag_53:\n    /* \"#utility.yul\":2617:2708   */\n  swap2\n  pop\n    /* \"#utility.yul\":2717:2810   */\n  tag_54\n    /* \"#utility.yul\":2806:2809   */\n  dup3\n    /* \"#utility.yul\":2717:2810   */\n  tag_55\n  jump\t// in\ntag_54:\n    /* \"#utility.yul\":2835:2836   */\n  0x06\n    /* \"#utility.yul\":2830:2833   */\n  dup3\n    /* \"#utility.yul\":2826:2837   */\n  add\n    /* \"#utility.yul\":2819:2837   */\n  swap1\n  pop\n    /* \"#utility.yul\":2443:2843   */\n  swap2\n  swap1\n  pop\n  jump\t// out\n    /* \"#utility.yul\":2849:3230   */\ntag_7:\n    /* \"#utility.yul\":3034:3037   */\n  0x00\n    /* \"#utility.yul\":3056:3204   */\n  tag_57\n    /* \"#utility.yul\":3200:3203   */\n  dup3\n    /* \"#utility.yul\":3056:3204   */\n  tag_20\n  jump\t// in\ntag_57:\n    /* \"#utility.yul\":3049:3204   */\n  swap2\n  pop\n    /* \"#utility.yul\":3221:3224   */\n  dup2\n    /* \"#utility.yul\":3214:3224   */\n  swap1\n  pop\n    /* \"#utility.yul\":2849:3230   */\n  swap2\n  swap1\n  pop\n  jump\t// out\n    /* \"#utility.yul\":3236:3617   */\ntag_17:\n    /* \"#utility.yul\":3421:3424   */\n  0x00\n    /* \"#utility.yul\":3443:3591   */\n  tag_59\n    /* \"#utility.yul\":3587:3590   */\n  dup3\n    /* \"#utility.yul\":3443:3591   */\n  tag_26\n  jump\t// in\ntag_59:\n    /* \"#utility.yul\":3436:3591   */\n  swap2\n  pop\n    /* \"#utility.yul\":3608:3611   */\n  dup2\n    /* \"#utility.yul\":3601:3611   */\n  swap1\n  pop\n    /* \"#utility.yul\":3236:3617   */\n  swap2\n  swap1\n  pop\n  jump\t// out\n    /* \"#utility.yul\":3623:4004   */\ntag_13:\n    /* \"#utility.yul\":3808:3811   */\n  0x00\n    /* \"#utility.yul\":3830:3978   */\n  tag_61\n    /* \"#utility.yul\":3974:3977   */\n  dup3\n    /* \"#utility.yul\":3830:3978   */\n  tag_31\n  jump\t// in\ntag_61:\n    /* \"#utility.yul\":3823:3978   */\n  swap2\n  pop\n    /* \"#utility.yul\":3995:3998   */\n  dup2\n    /* \"#utility.yul\":3988:3998   */\n  swap1\n  pop\n    /* \"#utility.yul\":3623:4004   */\n  swap2\n  swap1\n  pop\n  jump\t// out\n    /* \"#utility.yul\":4010:4391   */\ntag_15:\n    /* \"#utility.yul\":4195:4198   */\n  0x00\n    /* \"#utility.yul\":4217:4365   */\n  tag_63\n    /* \"#utility.yul\":4361:4364   */\n  dup3\n    /* \"#utility.yul\":4217:4365   */\n  tag_36\n  jump\t// in\ntag_63:\n    /* \"#utility.yul\":4210:4365   */\n  swap2\n  pop\n    /* \"#utility.yul\":4382:4385   */\n  dup2\n    /* \"#utility.yul\":4375:4385   */\n  swap1\n  pop\n    /* \"#utility.yul\":4010:4391   */\n  swap2\n  swap1\n  pop\n  jump\t// out\n    /* \"#utility.yul\":4397:4778   */\ntag_5:\n    /* \"#utility.yul\":4582:4585   */\n  0x00\n    /* \"#utility.yul\":4604:4752   */\n  tag_65\n    /* \"#utility.yul\":4748:4751   */\n  dup3\n    /* \"#utility.yul\":4604:4752   */\n  tag_41\n  jump\t// in\ntag_65:\n    /* \"#utility.yul\":4597:4752   */\n  swap2\n  pop\n    /* \"#utility.yul\":4769:4772   */\n  dup2\n    /* \"#utility.yul\":4762:4772   */\n  swap1\n  pop\n    /* \"#utility.yul\":4397:4778   */\n  swap2\n  swap1\n  pop\n  jump\t// out\n    /* \"#utility.yul\":4784:5165   */\ntag_11:\n    /* \"#utility.yul\":4969:4972   */\n  0x00\n    /* \"#utility.yul\":4991:5139   */\n  tag_67\n    /* \"#utility.yul\":5135:5138   */\n  dup3\n    /* \"#utility.yul\":4991:5139   */\n  tag_46\n  jump\t// in\ntag_67:\n    /* \"#utility.yul\":4984:5139   */\n  swap2\n  pop\n    /* \"#utility.yul\":5156:5159   */\n  dup2\n    /* \"#utility.yul\":5149:5159   */\n  swap1\n  pop\n    /* \"#utility.yul\":4784:5165   */\n  swap2\n  swap1\n  pop\n  jump\t// out\n    /* \"#utility.yul\":5171:5552   */\ntag_9:\n    /* \"#utility.yul\":5356:5359   */\n  0x00\n    /* \"#utility.yul\":5378:5526   */\n  tag_69\n    /* \"#utility.yul\":5522:5525   */\n  dup3\n    /* \"#utility.yul\":5378:5526   */\n  tag_51\n  jump\t// in\ntag_69:\n    /* \"#utility.yul\":5371:5526   */\n  swap2\n  pop\n    /* \"#utility.yul\":5543:5546   */\n  dup2\n    /* \"#utility.yul\":5536:5546   */\n  swap1\n  pop\n    /* \"#utility.yul\":5171:5552   */\n  swap2\n  swap1\n  pop\n  jump\t// out\n    /* \"#utility.yul\":5558:5706   */\ntag_23:\n    /* \"#utility.yul\":5660:5671   */\n  0x00\n    /* \"#utility.yul\":5697:5700   */\n  dup2\n    /* \"#utility.yul\":5682:5700   */\n  swap1\n  pop\n    /* \"#utility.yul\":5558:5706   */\n  swap3\n  swap2\n  pop\n  pop\n  jump\t// out\n    /* \"#utility.yul\":5712:5866   */\ntag_25:\n    /* \"#utility.yul\":5852:5858   */\n  0x5745544800000000000000000000000000000000000000000000000000000000\n    /* \"#utility.yul\":5848:5849   */\n  0x00\n    /* \"#utility.yul\":5840:5846   */\n  dup3\n    /* \"#utility.yul\":5836:5850   */\n  add\n    /* \"#utility.yul\":5829:5859   */\n  mstore\n    /* \"#utility.yul\":5712:5866   */\n  pop\n  jump\t// out\n    /* \"#utility.yul\":5872:6028   */\ntag_30:\n    /* \"#utility.yul\":6012:6020   */\n  0x44515549434b0000000000000000000000000000000000000000000000000000\n    /* \"#utility.yul\":6008:6009   */\n  0x00\n    /* \"#utility.yul\":6000:6006   */\n  dup3\n    /* \"#utility.yul\":5996:6010   */\n  add\n    /* \"#utility.yul\":5989:6021   */\n  mstore\n    /* \"#utility.yul\":5872:6028   */\n  pop\n  jump\t// out\n    /* \"#utility.yul\":6034:6188   */\ntag_35:\n    /* \"#utility.yul\":6174:6180   */\n  0x5553445400000000000000000000000000000000000000000000000000000000\n    /* \"#utility.yul\":6170:6171   */\n  0x00\n    /* \"#utility.yul\":6162:6168   */\n  dup3\n    /* \"#utility.yul\":6158:6172   */\n  add\n    /* \"#utility.yul\":6151:6181   */\n  mstore\n    /* \"#utility.yul\":6034:6188   */\n  pop\n  jump\t// out\n    /* \"#utility.yul\":6194:6348   */\ntag_40:\n    /* \"#utility.yul\":6334:6340   */\n  0x5742544300000000000000000000000000000000000000000000000000000000\n    /* \"#utility.yul\":6330:6331   */\n  0x00\n    /* \"#utility.yul\":6322:6328   */\n  dup3\n    /* \"#utility.yul\":6318:6332   */\n  add\n    /* \"#utility.yul\":6311:6341   */\n  mstore\n    /* \"#utility.yul\":6194:6348   */\n  pop\n  jump\t// out\n    /* \"#utility.yul\":6354:6507   */\ntag_45:\n    /* \"#utility.yul\":6494:6499   */\n  0x4441490000000000000000000000000000000000000000000000000000000000\n    /* \"#utility.yul\":6490:6491   */\n  0x00\n    /* \"#utility.yul\":6482:6488   */\n  dup3\n    /* \"#utility.yul\":6478:6492   */\n  add\n    /* \"#utility.yul\":6471:6500   */\n  mstore\n    /* \"#utility.yul\":6354:6507   */\n  pop\n  jump\t// out\n    /* \"#utility.yul\":6513:6667   */\ntag_50:\n    /* \"#utility.yul\":6653:6659   */\n  0x5553444300000000000000000000000000000000000000000000000000000000\n    /* \"#utility.yul\":6649:6650   */\n  0x00\n    /* \"#utility.yul\":6641:6647   */\n  dup3\n    /* \"#utility.yul\":6637:6651   */\n  add\n    /* \"#utility.yul\":6630:6660   */\n  mstore\n    /* \"#utility.yul\":6513:6667   */\n  pop\n  jump\t// out\n    /* \"#utility.yul\":6673:6829   */\ntag_55:\n    /* \"#utility.yul\":6813:6821   */\n  0x574d415449430000000000000000000000000000000000000000000000000000\n    /* \"#utility.yul\":6809:6810   */\n  0x00\n    /* \"#utility.yul\":6801:6807   */\n  dup3\n    /* \"#utility.yul\":6797:6811   */\n  add\n    /* \"#utility.yul\":6790:6822   */\n  mstore\n    /* \"#utility.yul\":6673:6829   */\n  pop\n  jump\t// out\n    /* \"contracts/polygon/microcebus_main.sol\":94:4106  contract microcebus_main {... */\ntag_18:\n  dataSize(sub_0)\n  dup1\n  dataOffset(sub_0)\n  0x00\n  codecopy\n  0x00\n  return\nstop\n\nsub_0: assembly {\n        /* \"contracts/polygon/microcebus_main.sol\":94:4106  contract microcebus_main {... */\n      mstore(0x40, 0x80)\n      jumpi(tag_1, lt(calldatasize, 0x04))\n      shr(0xe0, calldataload(0x00))\n      dup1\n      0x7552acd6\n      eq\n      tag_3\n      jumpi\n      dup1\n      0x7b60eb23\n      eq\n      tag_4\n      jumpi\n      dup1\n      0x9bc97dee\n      eq\n      tag_5\n      jumpi\n      dup1\n      0xf809a2e6\n      eq\n      tag_6\n      jumpi\n      jump(tag_2)\n    tag_1:\n      jumpi(tag_2, calldatasize)\n      stop\n    tag_2:\n      0x00\n      dup1\n      revert\n        /* \"contracts/polygon/microcebus_main.sol\":2564:2906  function transfer_token(string memory _token_in_identifier, address _token_receiver, uint256 _amount)... */\n    tag_3:\n      callvalue\n      dup1\n      iszero\n      tag_9\n      jumpi\n      0x00\n      dup1\n      revert\n    tag_9:\n      pop\n      tag_10\n      0x04\n      dup1\n      calldatasize\n      sub\n      dup2\n      add\n      swap1\n      tag_11\n      swap2\n      swap1\n      tag_12\n      jump\t// in\n    tag_11:\n      tag_13\n      jump\t// in\n    tag_10:\n      stop\n        /* \"contracts/polygon/microcebus_main.sol\":2181:2510  function receive_wmatic() external payable {... */\n    tag_4:\n      tag_14\n      tag_15\n      jump\t// in\n    tag_14:\n      stop\n        /* \"contracts/polygon/microcebus_main.sol\":2952:3277  function transfer_token_to_contract(string memory _token_in_identifier, uint256 _amount)... */\n    tag_5:\n      callvalue\n      dup1\n      iszero\n      tag_16\n      jumpi\n      0x00\n      dup1\n      revert\n    tag_16:\n      pop\n      tag_17\n      0x04\n      dup1\n      calldatasize\n      sub\n      dup2\n      add\n      swap1\n      tag_18\n      swap2\n      swap1\n      tag_19\n      jump\t// in\n    tag_18:\n      tag_20\n      jump\t// in\n    tag_17:\n      stop\n        /* \"contracts/polygon/microcebus_main.sol\":3318:4036  function swap_exact_tokens_for_tokens(uint256 _amount_in, uint _amount_out_min, string memory _token_in_identifier,... */\n    tag_6:\n      callvalue\n      dup1\n      iszero\n      tag_21\n      jumpi\n      0x00\n      dup1\n      revert\n    tag_21:\n      pop\n      tag_22\n      0x04\n      dup1\n      calldatasize\n      sub\n      dup2\n      add\n      swap1\n      tag_23\n      swap2\n      swap1\n      tag_24\n      jump\t// in\n    tag_23:\n      tag_25\n      jump\t// in\n    tag_22:\n      stop\n        /* \"contracts/polygon/microcebus_main.sol\":2564:2906  function transfer_token(string memory _token_in_identifier, address _token_receiver, uint256 _amount)... */\n    tag_13:\n        /* \"contracts/polygon/microcebus_main.sol\":2693:2708  token_contracts */\n      0x00\n        /* \"contracts/polygon/microcebus_main.sol\":2709:2729  _token_in_identifier */\n      dup4\n        /* \"contracts/polygon/microcebus_main.sol\":2693:2730  token_contracts[_token_in_identifier] */\n      mload(0x40)\n      tag_26\n      swap2\n      swap1\n      tag_27\n      jump\t// in\n    tag_26:\n      swap1\n      dup2\n      mstore\n      0x20\n      add\n      mload(0x40)\n      dup1\n      swap2\n      sub\n      swap1\n      keccak256\n        /* \"contracts/polygon/microcebus_main.sol\":2693:2734  token_contracts[_token_in_identifier].adr */\n      0x00\n      add\n      0x00\n      swap1\n      sload\n      swap1\n      0x0100\n      exp\n      swap1\n      div\n      0xffffffffffffffffffffffffffffffffffffffff\n      and\n        /* \"contracts/polygon/microcebus_main.sol\":2736:2746  msg.sender */\n      caller\n        /* \"contracts/polygon/microcebus_main.sol\":2748:2763  _token_receiver */\n      dup4\n        /* \"contracts/polygon/microcebus_main.sol\":2765:2772  _amount */\n      dup4\n        /* \"contracts/polygon/microcebus_main.sol\":2007:2014  _amount */\n      dup1\n        /* \"contracts/polygon/microcebus_main.sol\":1946:1960  _token_address */\n      dup5\n        /* \"contracts/polygon/microcebus_main.sol\":1939:1971  iERC20(_token_address).allowance */\n      0xffffffffffffffffffffffffffffffffffffffff\n      and\n      0xdd62ed3e\n        /* \"contracts/polygon/microcebus_main.sol\":1972:1985  _token_sender */\n      dup6\n        /* \"contracts/polygon/microcebus_main.sol\":1987:2002  _token_receiver */\n      dup6\n        /* \"contracts/polygon/microcebus_main.sol\":1939:2003  iERC20(_token_address).allowance(_token_sender, _token_receiver) */\n      mload(0x40)\n      dup4\n      0xffffffff\n      and\n      0xe0\n      shl\n      dup2\n      mstore\n      0x04\n      add\n      tag_29\n      swap3\n      swap2\n      swap1\n      tag_30\n      jump\t// in\n    tag_29:\n      0x20\n      mload(0x40)\n      dup1\n      dup4\n      sub\n      dup2\n      dup7\n      dup1\n      extcodesize\n      iszero\n      dup1\n      iszero\n      tag_31\n      jumpi\n      0x00\n      dup1\n      revert\n    tag_31:\n      pop\n      gas\n      staticcall\n      iszero\n      dup1\n      iszero\n      tag_33\n      jumpi\n      returndatasize\n      0x00\n      dup1\n      returndatacopy\n      revert(0x00, returndatasize)\n    tag_33:\n      pop\n      pop\n      pop\n      pop\n      mload(0x40)\n      returndatasize\n      not(0x1f)\n      0x1f\n      dup3\n      add\n      and\n      dup3\n      add\n      dup1\n      0x40\n      mstore\n      pop\n      dup2\n      add\n      swap1\n      tag_34\n      swap2\n      swap1\n      tag_35\n      jump\t// in\n    tag_34:\n        /* \"contracts/polygon/microcebus_main.sol\":1939:2014  iERC20(_token_address).allowance(_token_sender, _token_receiver) >= _amount */\n      lt\n      iszero\n        /* \"contracts/polygon/microcebus_main.sol\":1931:2083  require(iERC20(_token_address).allowance(_token_sender, _token_receiver) >= _amount,... */\n      tag_36\n      jumpi\n      mload(0x40)\n      0x08c379a000000000000000000000000000000000000000000000000000000000\n      dup2\n      mstore\n      0x04\n      add\n      tag_37\n      swap1\n      tag_38\n      jump\t// in\n    tag_37:\n      mload(0x40)\n      dup1\n      swap2\n      sub\n      swap1\n      revert\n    tag_36:\n        /* \"contracts/polygon/microcebus_main.sol\":2802:2817  token_contracts */\n      0x00\n        /* \"contracts/polygon/microcebus_main.sol\":2818:2838  _token_in_identifier */\n      dup8\n        /* \"contracts/polygon/microcebus_main.sol\":2802:2839  token_contracts[_token_in_identifier] */\n      mload(0x40)\n      tag_40\n      swap2\n      swap1\n      tag_27\n      jump\t// in\n    tag_40:\n      swap1\n      dup2\n      mstore\n      0x20\n      add\n      mload(0x40)\n      dup1\n      swap2\n      sub\n      swap1\n      keccak256\n        /* \"contracts/polygon/microcebus_main.sol\":2802:2843  token_contracts[_token_in_identifier].adr */\n      0x00\n      add\n      0x00\n      swap1\n      sload\n      swap1\n      0x0100\n      exp\n      swap1\n      div\n      0xffffffffffffffffffffffffffffffffffffffff\n      and\n        /* \"contracts/polygon/microcebus_main.sol\":2795:2857  iERC20(token_contracts[_token_in_identifier].adr).transferFrom */\n      0xffffffffffffffffffffffffffffffffffffffff\n      and\n      0x23b872dd\n        /* \"contracts/polygon/microcebus_main.sol\":2858:2868  msg.sender */\n      caller\n        /* \"contracts/polygon/microcebus_main.sol\":2870:2885  _token_receiver */\n      dup9\n        /* \"contracts/polygon/microcebus_main.sol\":2887:2894  _amount */\n      dup9\n        /* \"contracts/polygon/microcebus_main.sol\":2795:2895  iERC20(token_contracts[_token_in_identifier].adr).transferFrom(msg.sender, _token_receiver, _amount) */\n      mload(0x40)\n      dup5\n      0xffffffff\n      and\n      0xe0\n      shl\n      dup2\n      mstore\n      0x04\n      add\n      tag_41\n      swap4\n      swap3\n      swap2\n      swap1\n      tag_42\n      jump\t// in\n    tag_41:\n      0x20\n      mload(0x40)\n      dup1\n      dup4\n      sub\n      dup2\n      0x00\n      dup8\n      dup1\n      extcodesize\n      iszero\n      dup1\n      iszero\n      tag_43\n      jumpi\n      0x00\n      dup1\n      revert\n    tag_43:\n      pop\n      gas\n      call\n      iszero\n      dup1\n      iszero\n      tag_45\n      jumpi\n      returndatasize\n      0x00\n      dup1\n      returndatacopy\n      revert(0x00, returndatasize)\n    tag_45:\n      pop\n      pop\n      pop\n      pop\n      mload(0x40)\n      returndatasize\n      not(0x1f)\n      0x1f\n      dup3\n      add\n      and\n      dup3\n      add\n      dup1\n      0x40\n      mstore\n      pop\n      dup2\n      add\n      swap1\n      tag_46\n      swap2\n      swap1\n      tag_47\n      jump\t// in\n    tag_46:\n      pop\n        /* \"contracts/polygon/microcebus_main.sol\":2564:2906  function transfer_token(string memory _token_in_identifier, address _token_receiver, uint256 _amount)... */\n      pop\n      pop\n      pop\n      pop\n      pop\n      pop\n      pop\n      jump\t// out\n        /* \"contracts/polygon/microcebus_main.sol\":2181:2510  function receive_wmatic() external payable {... */\n    tag_15:\n        /* \"contracts/polygon/microcebus_main.sol\":2239:2251  bool success */\n      0x00\n        /* \"contracts/polygon/microcebus_main.sol\":2253:2270  bytes memory data */\n      dup1\n        /* \"contracts/polygon/microcebus_main.sol\":2274:2289  token_contracts */\n      0x00\n        /* \"contracts/polygon/microcebus_main.sol\":2274:2299  token_contracts[\"WMATIC\"] */\n      mload(0x40)\n      tag_49\n      swap1\n      tag_50\n      jump\t// in\n    tag_49:\n      swap1\n      dup2\n      mstore\n      0x20\n      add\n      mload(0x40)\n      dup1\n      swap2\n      sub\n      swap1\n      keccak256\n        /* \"contracts/polygon/microcebus_main.sol\":2274:2303  token_contracts[\"WMATIC\"].adr */\n      0x00\n      add\n      0x00\n      swap1\n      sload\n      swap1\n      0x0100\n      exp\n      swap1\n      div\n      0xffffffffffffffffffffffffffffffffffffffff\n      and\n        /* \"contracts/polygon/microcebus_main.sol\":2274:2308  token_contracts[\"WMATIC\"].adr.call */\n      0xffffffffffffffffffffffffffffffffffffffff\n      and\n        /* \"contracts/polygon/microcebus_main.sol\":2316:2325  msg.value */\n      callvalue\n        /* \"contracts/polygon/microcebus_main.sol\":2327:2354  abi.encodeWithSignature(\"\") */\n      add(0x24, mload(0x40))\n      mload(0x40)\n      0x20\n      dup2\n      dup4\n      sub\n      sub\n      dup2\n      mstore\n      swap1\n      0x40\n      mstore\n      and(not(0xffffffffffffffffffffffffffffffffffffffffffffffffffffffff), 0xc5d2460100000000000000000000000000000000000000000000000000000000)\n      0x20\n      dup3\n      add\n      dup1\n      mload\n      0xffffffffffffffffffffffffffffffffffffffffffffffffffffffff\n      dup4\n      dup2\n      dup4\n      and\n      or\n      dup4\n      mstore\n      pop\n      pop\n      pop\n      pop\n        /* \"contracts/polygon/microcebus_main.sol\":2274:2355  token_contracts[\"WMATIC\"].adr.call{value: msg.value}(abi.encodeWithSignature(\"\")) */\n      mload(0x40)\n      tag_51\n      swap2\n      swap1\n      tag_52\n      jump\t// in\n    tag_51:\n      0x00\n      mload(0x40)\n      dup1\n      dup4\n      sub\n      dup2\n      dup6\n      dup8\n      gas\n      call\n      swap3\n      pop\n      pop\n      pop\n      returndatasize\n      dup1\n      0x00\n      dup2\n      eq\n      tag_55\n      jumpi\n      mload(0x40)\n      swap2\n      pop\n      and(add(returndatasize, 0x3f), not(0x1f))\n      dup3\n      add\n      0x40\n      mstore\n      returndatasize\n      dup3\n      mstore\n      returndatasize\n      0x00\n      0x20\n      dup5\n      add\n      returndatacopy\n      jump(tag_54)\n    tag_55:\n      0x60\n      swap2\n      pop\n    tag_54:\n      pop\n        /* \"contracts/polygon/microcebus_main.sol\":2238:2355  (bool success, bytes memory data) = token_contracts[\"WMATIC\"].adr.call{value: msg.value}(abi.encodeWithSignature(\"\")) */\n      swap2\n      pop\n      swap2\n      pop\n        /* \"contracts/polygon/microcebus_main.sol\":2376:2391  token_contracts */\n      0x00\n        /* \"contracts/polygon/microcebus_main.sol\":2376:2401  token_contracts[\"WMATIC\"] */\n      mload(0x40)\n      tag_56\n      swap1\n      tag_50\n      jump\t// in\n    tag_56:\n      swap1\n      dup2\n      mstore\n      0x20\n      add\n      mload(0x40)\n      dup1\n      swap2\n      sub\n      swap1\n      keccak256\n        /* \"contracts/polygon/microcebus_main.sol\":2376:2405  token_contracts[\"WMATIC\"].adr */\n      0x00\n      add\n      0x00\n      swap1\n      sload\n      swap1\n      0x0100\n      exp\n      swap1\n      div\n      0xffffffffffffffffffffffffffffffffffffffff\n      and\n        /* \"contracts/polygon/microcebus_main.sol\":2369:2419  iERC20(token_contracts[\"WMATIC\"].adr).transferFrom */\n      0xffffffffffffffffffffffffffffffffffffffff\n      and\n      0x23b872dd\n        /* \"contracts/polygon/microcebus_main.sol\":2428:2432  this */\n      address\n        /* \"contracts/polygon/microcebus_main.sol\":2435:2445  msg.sender */\n      caller\n        /* \"contracts/polygon/microcebus_main.sol\":2447:2456  msg.value */\n      callvalue\n        /* \"contracts/polygon/microcebus_main.sol\":2369:2457  iERC20(token_contracts[\"WMATIC\"].adr).transferFrom(address(this), msg.sender, msg.value) */\n      mload(0x40)\n      dup5\n      0xffffffff\n      and\n      0xe0\n      shl\n      dup2\n      mstore\n      0x04\n      add\n      tag_57\n      swap4\n      swap3\n      swap2\n      swap1\n      tag_42\n      jump\t// in\n    tag_57:\n      0x20\n      mload(0x40)\n      dup1\n      dup4\n      sub\n      dup2\n      0x00\n      dup8\n      dup1\n      extcodesize\n      iszero\n      dup1\n      iszero\n      tag_58\n      jumpi\n      0x00\n      dup1\n      revert\n    tag_58:\n      pop\n      gas\n      call\n      iszero\n      dup1\n      iszero\n      tag_60\n      jumpi\n      returndatasize\n      0x00\n      dup1\n      returndatacopy\n      revert(0x00, returndatasize)\n    tag_60:\n      pop\n      pop\n      pop\n      pop\n      mload(0x40)\n      returndatasize\n      not(0x1f)\n      0x1f\n      dup3\n      add\n      and\n      dup3\n      add\n      dup1\n      0x40\n      mstore\n      pop\n      dup2\n      add\n      swap1\n      tag_61\n      swap2\n      swap1\n      tag_47\n      jump\t// in\n    tag_61:\n      pop\n        /* \"contracts/polygon/microcebus_main.sol\":2476:2499  Response(success, data) */\n      0x13848c3e38f8886f3f5d2ad9dff80d8092c2bbb8efd5b887a99c2c6cfc09ac2a\n        /* \"contracts/polygon/microcebus_main.sol\":2485:2492  success */\n      dup3\n        /* \"contracts/polygon/microcebus_main.sol\":2494:2498  data */\n      dup3\n        /* \"contracts/polygon/microcebus_main.sol\":2476:2499  Response(success, data) */\n      mload(0x40)\n      tag_62\n      swap3\n      swap2\n      swap1\n      tag_63\n      jump\t// in\n    tag_62:\n      mload(0x40)\n      dup1\n      swap2\n      sub\n      swap1\n      log1\n        /* \"contracts/polygon/microcebus_main.sol\":2224:2510  {... */\n      pop\n      pop\n        /* \"contracts/polygon/microcebus_main.sol\":2181:2510  function receive_wmatic() external payable {... */\n      jump\t// out\n        /* \"contracts/polygon/microcebus_main.sol\":2952:3277  function transfer_token_to_contract(string memory _token_in_identifier, uint256 _amount)... */\n    tag_20:\n        /* \"contracts/polygon/microcebus_main.sol\":3068:3083  token_contracts */\n      0x00\n        /* \"contracts/polygon/microcebus_main.sol\":3084:3104  _token_in_identifier */\n      dup3\n        /* \"contracts/polygon/microcebus_main.sol\":3068:3105  token_contracts[_token_in_identifier] */\n      mload(0x40)\n      tag_64\n      swap2\n      swap1\n      tag_27\n      jump\t// in\n    tag_64:\n      swap1\n      dup2\n      mstore\n      0x20\n      add\n      mload(0x40)\n      dup1\n      swap2\n      sub\n      swap1\n      keccak256\n        /* \"contracts/polygon/microcebus_main.sol\":3068:3109  token_contracts[_token_in_identifier].adr */\n      0x00\n      add\n      0x00\n      swap1\n      sload\n      swap1\n      0x0100\n      exp\n      swap1\n      div\n      0xffffffffffffffffffffffffffffffffffffffff\n      and\n        /* \"contracts/polygon/microcebus_main.sol\":3111:3121  msg.sender */\n      caller\n        /* \"contracts/polygon/microcebus_main.sol\":3131:3135  this */\n      address\n        /* \"contracts/polygon/microcebus_main.sol\":3138:3145  _amount */\n      dup4\n        /* \"contracts/polygon/microcebus_main.sol\":2007:2014  _amount */\n      dup1\n        /* \"contracts/polygon/microcebus_main.sol\":1946:1960  _token_address */\n      dup5\n        /* \"contracts/polygon/microcebus_main.sol\":1939:1971  iERC20(_token_address).allowance */\n      0xffffffffffffffffffffffffffffffffffffffff\n      and\n      0xdd62ed3e\n        /* \"contracts/polygon/microcebus_main.sol\":1972:1985  _token_sender */\n      dup6\n        /* \"contracts/polygon/microcebus_main.sol\":1987:2002  _token_receiver */\n      dup6\n        /* \"contracts/polygon/microcebus_main.sol\":1939:2003  iERC20(_token_address).allowance(_token_sender, _token_receiver) */\n      mload(0x40)\n      dup4\n      0xffffffff\n      and\n      0xe0\n      shl\n      dup2\n      mstore\n      0x04\n      add\n      tag_66\n      swap3\n      swap2\n      swap1\n      tag_30\n      jump\t// in\n    tag_66:\n      0x20\n      mload(0x40)\n      dup1\n      dup4\n      sub\n      dup2\n      dup7\n      dup1\n      extcodesize\n      iszero\n      dup1\n      iszero\n      tag_67\n      jumpi\n      0x00\n      dup1\n      revert\n    tag_67:\n      pop\n      gas\n      staticcall\n      iszero\n      dup1\n      iszero\n      tag_69\n      jumpi\n      returndatasize\n      0x00\n      dup1\n      returndatacopy\n      revert(0x00, returndatasize)\n    tag_69:\n      pop\n      pop\n      pop\n      pop\n      mload(0x40)\n      returndatasize\n      not(0x1f)\n      0x1f\n      dup3\n      add\n      and\n      dup3\n      add\n      dup1\n      0x40\n      mstore\n      pop\n      dup2\n      add\n      swap1\n      tag_70\n      swap2\n      swap1\n      tag_35\n      jump\t// in\n    tag_70:\n        /* \"contracts/polygon/microcebus_main.sol\":1939:2014  iERC20(_token_address).allowance(_token_sender, _token_receiver) >= _amount */\n      lt\n      iszero\n        /* \"contracts/polygon/microcebus_main.sol\":1931:2083  require(iERC20(_token_address).allowance(_token_sender, _token_receiver) >= _amount,... */\n      tag_71\n      jumpi\n      mload(0x40)\n      0x08c379a000000000000000000000000000000000000000000000000000000000\n      dup2\n      mstore\n      0x04\n      add\n      tag_72\n      swap1\n      tag_38\n      jump\t// in\n    tag_72:\n      mload(0x40)\n      dup1\n      swap2\n      sub\n      swap1\n      revert\n    tag_71:\n        /* \"contracts/polygon/microcebus_main.sol\":3175:3190  token_contracts */\n      0x00\n        /* \"contracts/polygon/microcebus_main.sol\":3191:3211  _token_in_identifier */\n      dup7\n        /* \"contracts/polygon/microcebus_main.sol\":3175:3212  token_contracts[_token_in_identifier] */\n      mload(0x40)\n      tag_74\n      swap2\n      swap1\n      tag_27\n      jump\t// in\n    tag_74:\n      swap1\n      dup2\n      mstore\n      0x20\n      add\n      mload(0x40)\n      dup1\n      swap2\n      sub\n      swap1\n      keccak256\n        /* \"contracts/polygon/microcebus_main.sol\":3175:3216  token_contracts[_token_in_identifier].adr */\n      0x00\n      add\n      0x00\n      swap1\n      sload\n      swap1\n      0x0100\n      exp\n      swap1\n      div\n      0xffffffffffffffffffffffffffffffffffffffff\n      and\n        /* \"contracts/polygon/microcebus_main.sol\":3168:3230  iERC20(token_contracts[_token_in_identifier].adr).transferFrom */\n      0xffffffffffffffffffffffffffffffffffffffff\n      and\n      0x23b872dd\n        /* \"contracts/polygon/microcebus_main.sol\":3231:3241  msg.sender */\n      caller\n        /* \"contracts/polygon/microcebus_main.sol\":3251:3255  this */\n      address\n        /* \"contracts/polygon/microcebus_main.sol\":3258:3265  _amount */\n      dup9\n        /* \"contracts/polygon/microcebus_main.sol\":3168:3266  iERC20(token_contracts[_token_in_identifier].adr).transferFrom(msg.sender, address(this), _amount) */\n      mload(0x40)\n      dup5\n      0xffffffff\n      and\n      0xe0\n      shl\n      dup2\n      mstore\n      0x04\n      add\n      tag_75\n      swap4\n      swap3\n      swap2\n      swap1\n      tag_42\n      jump\t// in\n    tag_75:\n      0x20\n      mload(0x40)\n      dup1\n      dup4\n      sub\n      dup2\n      0x00\n      dup8\n      dup1\n      extcodesize\n      iszero\n      dup1\n      iszero\n      tag_76\n      jumpi\n      0x00\n      dup1\n      revert\n    tag_76:\n      pop\n      gas\n      call\n      iszero\n      dup1\n      iszero\n      tag_78\n      jumpi\n      returndatasize\n      0x00\n      dup1\n      returndatacopy\n      revert(0x00, returndatasize)\n    tag_78:\n      pop\n      pop\n      pop\n      pop\n      mload(0x40)\n      returndatasize\n      not(0x1f)\n      0x1f\n      dup3\n      add\n      and\n      dup3\n      add\n      dup1\n      0x40\n      mstore\n      pop\n      dup2\n      add\n      swap1\n      tag_79\n      swap2\n      swap1\n      tag_47\n      jump\t// in\n    tag_79:\n      pop\n        /* \"contracts/polygon/microcebus_main.sol\":2952:3277  function transfer_token_to_contract(string memory _token_in_identifier, uint256 _amount)... */\n      pop\n      pop\n      pop\n      pop\n      pop\n      pop\n      jump\t// out\n        /* \"contracts/polygon/microcebus_main.sol\":3318:4036  function swap_exact_tokens_for_tokens(uint256 _amount_in, uint _amount_out_min, string memory _token_in_identifier,... */\n    tag_25:\n        /* \"contracts/polygon/microcebus_main.sol\":3513:3573  transfer_token_to_contract(_token_in_identifier, _amount_in) */\n      tag_81\n        /* \"contracts/polygon/microcebus_main.sol\":3540:3560  _token_in_identifier */\n      dup4\n        /* \"contracts/polygon/microcebus_main.sol\":3562:3572  _amount_in */\n      dup7\n        /* \"contracts/polygon/microcebus_main.sol\":3513:3539  transfer_token_to_contract */\n      tag_20\n        /* \"contracts/polygon/microcebus_main.sol\":3513:3573  transfer_token_to_contract(_token_in_identifier, _amount_in) */\n      jump\t// in\n    tag_81:\n        /* \"contracts/polygon/microcebus_main.sol\":3583:3604  address[] memory path */\n      0x00\n        /* \"contracts/polygon/microcebus_main.sol\":3621:3622  2 */\n      0x02\n        /* \"contracts/polygon/microcebus_main.sol\":3607:3623  new address[](2) */\n      0xffffffffffffffff\n      dup2\n      gt\n      iszero\n      tag_82\n      jumpi\n      tag_83\n      tag_84\n      jump\t// in\n    tag_83:\n    tag_82:\n      mload(0x40)\n      swap1\n      dup1\n      dup3\n      mstore\n      dup1\n      0x20\n      mul\n      0x20\n      add\n      dup3\n      add\n      0x40\n      mstore\n      dup1\n      iszero\n      tag_85\n      jumpi\n      dup2\n      0x20\n      add\n      0x20\n      dup3\n      mul\n      dup1\n      calldatasize\n      dup4\n      calldatacopy\n      dup1\n      dup3\n      add\n      swap2\n      pop\n      pop\n      swap1\n      pop\n    tag_85:\n      pop\n        /* \"contracts/polygon/microcebus_main.sol\":3583:3623  address[] memory path = new address[](2) */\n      swap1\n      pop\n        /* \"contracts/polygon/microcebus_main.sol\":3643:3658  token_contracts */\n      0x00\n        /* \"contracts/polygon/microcebus_main.sol\":3659:3679  _token_in_identifier */\n      dup5\n        /* \"contracts/polygon/microcebus_main.sol\":3643:3680  token_contracts[_token_in_identifier] */\n      mload(0x40)\n      tag_86\n      swap2\n      swap1\n      tag_27\n      jump\t// in\n    tag_86:\n      swap1\n      dup2\n      mstore\n      0x20\n      add\n      mload(0x40)\n      dup1\n      swap2\n      sub\n      swap1\n      keccak256\n        /* \"contracts/polygon/microcebus_main.sol\":3643:3684  token_contracts[_token_in_identifier].adr */\n      0x00\n      add\n      0x00\n      swap1\n      sload\n      swap1\n      0x0100\n      exp\n      swap1\n      div\n      0xffffffffffffffffffffffffffffffffffffffff\n      and\n        /* \"contracts/polygon/microcebus_main.sol\":3633:3637  path */\n      dup2\n        /* \"contracts/polygon/microcebus_main.sol\":3638:3639  0 */\n      0x00\n        /* \"contracts/polygon/microcebus_main.sol\":3633:3640  path[0] */\n      dup2\n      mload\n      dup2\n      lt\n      tag_87\n      jumpi\n      tag_88\n      tag_89\n      jump\t// in\n    tag_88:\n    tag_87:\n      0x20\n      mul\n      0x20\n      add\n      add\n        /* \"contracts/polygon/microcebus_main.sol\":3633:3684  path[0] = token_contracts[_token_in_identifier].adr */\n      swap1\n      0xffffffffffffffffffffffffffffffffffffffff\n      and\n      swap1\n      dup2\n      0xffffffffffffffffffffffffffffffffffffffff\n      and\n      dup2\n      mstore\n      pop\n      pop\n        /* \"contracts/polygon/microcebus_main.sol\":3704:3719  token_contracts */\n      0x00\n        /* \"contracts/polygon/microcebus_main.sol\":3720:3741  _token_out_identifier */\n      dup4\n        /* \"contracts/polygon/microcebus_main.sol\":3704:3742  token_contracts[_token_out_identifier] */\n      mload(0x40)\n      tag_90\n      swap2\n      swap1\n      tag_27\n      jump\t// in\n    tag_90:\n      swap1\n      dup2\n      mstore\n      0x20\n      add\n      mload(0x40)\n      dup1\n      swap2\n      sub\n      swap1\n      keccak256\n        /* \"contracts/polygon/microcebus_main.sol\":3704:3746  token_contracts[_token_out_identifier].adr */\n      0x00\n      add\n      0x00\n      swap1\n      sload\n      swap1\n      0x0100\n      exp\n      swap1\n      div\n      0xffffffffffffffffffffffffffffffffffffffff\n      and\n        /* \"contracts/polygon/microcebus_main.sol\":3694:3698  path */\n      dup2\n        /* \"contracts/polygon/microcebus_main.sol\":3699:3700  1 */\n      0x01\n        /* \"contracts/polygon/microcebus_main.sol\":3694:3701  path[1] */\n      dup2\n      mload\n      dup2\n      lt\n      tag_91\n      jumpi\n      tag_92\n      tag_89\n      jump\t// in\n    tag_92:\n    tag_91:\n      0x20\n      mul\n      0x20\n      add\n      add\n        /* \"contracts/polygon/microcebus_main.sol\":3694:3746  path[1] = token_contracts[_token_out_identifier].adr */\n      swap1\n      0xffffffffffffffffffffffffffffffffffffffff\n      and\n      swap1\n      dup2\n      0xffffffffffffffffffffffffffffffffffffffff\n      and\n      dup2\n      mstore\n      pop\n      pop\n        /* \"contracts/polygon/microcebus_main.sol\":3763:3778  token_contracts */\n      0x00\n        /* \"contracts/polygon/microcebus_main.sol\":3779:3799  _token_in_identifier */\n      dup5\n        /* \"contracts/polygon/microcebus_main.sol\":3763:3800  token_contracts[_token_in_identifier] */\n      mload(0x40)\n      tag_93\n      swap2\n      swap1\n      tag_27\n      jump\t// in\n    tag_93:\n      swap1\n      dup2\n      mstore\n      0x20\n      add\n      mload(0x40)\n      dup1\n      swap2\n      sub\n      swap1\n      keccak256\n        /* \"contracts/polygon/microcebus_main.sol\":3763:3804  token_contracts[_token_in_identifier].adr */\n      0x00\n      add\n      0x00\n      swap1\n      sload\n      swap1\n      0x0100\n      exp\n      swap1\n      div\n      0xffffffffffffffffffffffffffffffffffffffff\n      and\n        /* \"contracts/polygon/microcebus_main.sol\":3756:3813  iERC20(token_contracts[_token_in_identifier].adr).approve */\n      0xffffffffffffffffffffffffffffffffffffffff\n      and\n      0x095ea7b3\n        /* \"contracts/polygon/microcebus_main.sol\":643:685  0xa5E0829CaCEd8fFDD4De3c43696c57F7D7A678ff */\n      0xa5e0829caced8ffdd4de3c43696c57f7d7a678ff\n        /* \"contracts/polygon/microcebus_main.sol\":3833:3843  _amount_in */\n      dup9\n        /* \"contracts/polygon/microcebus_main.sol\":3756:3844  iERC20(token_contracts[_token_in_identifier].adr).approve(UniswapV2Router02, _amount_in) */\n      mload(0x40)\n      dup4\n      0xffffffff\n      and\n      0xe0\n      shl\n      dup2\n      mstore\n      0x04\n      add\n      tag_94\n      swap3\n      swap2\n      swap1\n      tag_95\n      jump\t// in\n    tag_94:\n      0x20\n      mload(0x40)\n      dup1\n      dup4\n      sub\n      dup2\n      0x00\n      dup8\n      dup1\n      extcodesize\n      iszero\n      dup1\n      iszero\n      tag_96\n      jumpi\n      0x00\n      dup1\n      revert\n    tag_96:\n      pop\n      gas\n      call\n      iszero\n      dup1\n      iszero\n      tag_98\n      jumpi\n      returndatasize\n      0x00\n      dup1\n      returndatacopy\n      revert(0x00, returndatasize)\n    tag_98:\n      pop\n      pop\n      pop\n      pop\n      mload(0x40)\n      returndatasize\n      not(0x1f)\n      0x1f\n      dup3\n      add\n      and\n      dup3\n      add\n      dup1\n      0x40\n      mstore\n      pop\n      dup2\n      add\n      swap1\n      tag_99\n      swap2\n      swap1\n      tag_47\n      jump\t// in\n    tag_99:\n      pop\n        /* \"contracts/polygon/microcebus_main.sol\":643:685  0xa5E0829CaCEd8fFDD4De3c43696c57F7D7A678ff */\n      0xa5e0829caced8ffdd4de3c43696c57f7d7a678ff\n        /* \"contracts/polygon/microcebus_main.sol\":3859:3921  IUniswapV2Router02(UniswapV2Router02).swapExactTokensForTokens */\n      0xffffffffffffffffffffffffffffffffffffffff\n      and\n      0x38ed1739\n        /* \"contracts/polygon/microcebus_main.sol\":3933:3943  _amount_in */\n      dup8\n        /* \"contracts/polygon/microcebus_main.sol\":3955:3970  _amount_out_min */\n      dup8\n        /* \"contracts/polygon/microcebus_main.sol\":3982:3986  path */\n      dup5\n        /* \"contracts/polygon/microcebus_main.sol\":3998:4008  msg.sender */\n      caller\n        /* \"contracts/polygon/microcebus_main.sol\":4020:4028  deadline */\n      dup8\n        /* \"contracts/polygon/microcebus_main.sol\":3859:4029  IUniswapV2Router02(UniswapV2Router02).swapExactTokensForTokens(... */\n      mload(0x40)\n      dup7\n      0xffffffff\n      and\n      0xe0\n      shl\n      dup2\n      mstore\n      0x04\n      add\n      tag_100\n      swap6\n      swap5\n      swap4\n      swap3\n      swap2\n      swap1\n      tag_101\n      jump\t// in\n    tag_100:\n      0x00\n      mload(0x40)\n      dup1\n      dup4\n      sub\n      dup2\n      0x00\n      dup8\n      dup1\n      extcodesize\n      iszero\n      dup1\n      iszero\n      tag_102\n      jumpi\n      0x00\n      dup1\n      revert\n    tag_102:\n      pop\n      gas\n      call\n      iszero\n      dup1\n      iszero\n      tag_104\n      jumpi\n      returndatasize\n      0x00\n      dup1\n      returndatacopy\n      revert(0x00, returndatasize)\n    tag_104:\n      pop\n      pop\n      pop\n      pop\n      mload(0x40)\n      returndatasize\n      0x00\n      dup3\n      returndatacopy\n      returndatasize\n      not(0x1f)\n      0x1f\n      dup3\n      add\n      and\n      dup3\n      add\n      dup1\n      0x40\n      mstore\n      pop\n      dup2\n      add\n      swap1\n      tag_105\n      swap2\n      swap1\n      tag_106\n      jump\t// in\n    tag_105:\n      pop\n        /* \"contracts/polygon/microcebus_main.sol\":3503:4036  {... */\n      pop\n        /* \"contracts/polygon/microcebus_main.sol\":3318:4036  function swap_exact_tokens_for_tokens(uint256 _amount_in, uint _amount_out_min, string memory _token_in_identifier,... */\n      pop\n      pop\n      pop\n      pop\n      pop\n      jump\t// out\n        /* \"#utility.yul\":24:768   */\n    tag_108:\n        /* \"#utility.yul\":131:136   */\n      0x00\n        /* \"#utility.yul\":156:237   */\n      tag_110\n        /* \"#utility.yul\":172:236   */\n      tag_111\n        /* \"#utility.yul\":229:235   */\n      dup5\n        /* \"#utility.yul\":172:236   */\n      tag_112\n      jump\t// in\n    tag_111:\n        /* \"#utility.yul\":156:237   */\n      tag_113\n      jump\t// in\n    tag_110:\n        /* \"#utility.yul\":147:237   */\n      swap1\n      pop\n        /* \"#utility.yul\":257:262   */\n      dup1\n        /* \"#utility.yul\":286:292   */\n      dup4\n        /* \"#utility.yul\":279:284   */\n      dup3\n        /* \"#utility.yul\":272:293   */\n      mstore\n        /* \"#utility.yul\":320:324   */\n      0x20\n        /* \"#utility.yul\":313:318   */\n      dup3\n        /* \"#utility.yul\":309:325   */\n      add\n        /* \"#utility.yul\":302:325   */\n      swap1\n      pop\n        /* \"#utility.yul\":346:352   */\n      dup3\n        /* \"#utility.yul\":396:399   */\n      dup6\n        /* \"#utility.yul\":388:392   */\n      0x20\n        /* \"#utility.yul\":380:386   */\n      dup7\n        /* \"#utility.yul\":376:393   */\n      mul\n        /* \"#utility.yul\":371:374   */\n      dup3\n        /* \"#utility.yul\":367:394   */\n      add\n        /* \"#utility.yul\":364:400   */\n      gt\n        /* \"#utility.yul\":361:504   */\n      iszero\n      tag_114\n      jumpi\n        /* \"#utility.yul\":415:494   */\n      tag_115\n      tag_116\n      jump\t// in\n    tag_115:\n        /* \"#utility.yul\":361:504   */\n    tag_114:\n        /* \"#utility.yul\":528:529   */\n      0x00\n        /* \"#utility.yul\":513:762   */\n    tag_117:\n        /* \"#utility.yul\":538:544   */\n      dup6\n        /* \"#utility.yul\":535:536   */\n      dup2\n        /* \"#utility.yul\":532:545   */\n      lt\n        /* \"#utility.yul\":513:762   */\n      iszero\n      tag_119\n      jumpi\n        /* \"#utility.yul\":606:609   */\n      dup2\n        /* \"#utility.yul\":635:683   */\n      tag_120\n        /* \"#utility.yul\":679:682   */\n      dup9\n        /* \"#utility.yul\":667:677   */\n      dup3\n        /* \"#utility.yul\":635:683   */\n      tag_121\n      jump\t// in\n    tag_120:\n        /* \"#utility.yul\":630:633   */\n      dup5\n        /* \"#utility.yul\":623:684   */\n      mstore\n        /* \"#utility.yul\":713:717   */\n      0x20\n        /* \"#utility.yul\":708:711   */\n      dup5\n        /* \"#utility.yul\":704:718   */\n      add\n        /* \"#utility.yul\":697:718   */\n      swap4\n      pop\n        /* \"#utility.yul\":747:751   */\n      0x20\n        /* \"#utility.yul\":742:745   */\n      dup4\n        /* \"#utility.yul\":738:752   */\n      add\n        /* \"#utility.yul\":731:752   */\n      swap3\n      pop\n        /* \"#utility.yul\":573:762   */\n      pop\n        /* \"#utility.yul\":560:561   */\n      0x01\n        /* \"#utility.yul\":557:558   */\n      dup2\n        /* \"#utility.yul\":553:562   */\n      add\n        /* \"#utility.yul\":548:562   */\n      swap1\n      pop\n        /* \"#utility.yul\":513:762   */\n      jump(tag_117)\n    tag_119:\n        /* \"#utility.yul\":517:531   */\n      pop\n        /* \"#utility.yul\":137:768   */\n      pop\n      pop\n        /* \"#utility.yul\":24:768   */\n      swap4\n      swap3\n      pop\n      pop\n      pop\n      jump\t// out\n        /* \"#utility.yul\":774:1186   */\n    tag_122:\n        /* \"#utility.yul\":852:857   */\n      0x00\n        /* \"#utility.yul\":877:943   */\n      tag_124\n        /* \"#utility.yul\":893:942   */\n      tag_125\n        /* \"#utility.yul\":935:941   */\n      dup5\n        /* \"#utility.yul\":893:942   */\n      tag_126\n      jump\t// in\n    tag_125:\n        /* \"#utility.yul\":877:943   */\n      tag_113\n      jump\t// in\n    tag_124:\n        /* \"#utility.yul\":868:943   */\n      swap1\n      pop\n        /* \"#utility.yul\":966:972   */\n      dup3\n        /* \"#utility.yul\":959:964   */\n      dup2\n        /* \"#utility.yul\":952:973   */\n      mstore\n        /* \"#utility.yul\":1004:1008   */\n      0x20\n        /* \"#utility.yul\":997:1002   */\n      dup2\n        /* \"#utility.yul\":993:1009   */\n      add\n        /* \"#utility.yul\":1042:1045   */\n      dup5\n        /* \"#utility.yul\":1033:1039   */\n      dup5\n        /* \"#utility.yul\":1028:1031   */\n      dup5\n        /* \"#utility.yul\":1024:1040   */\n      add\n        /* \"#utility.yul\":1021:1046   */\n      gt\n        /* \"#utility.yul\":1018:1130   */\n      iszero\n      tag_127\n      jumpi\n        /* \"#utility.yul\":1049:1128   */\n      tag_128\n      tag_129\n      jump\t// in\n    tag_128:\n        /* \"#utility.yul\":1018:1130   */\n    tag_127:\n        /* \"#utility.yul\":1139:1180   */\n      tag_130\n        /* \"#utility.yul\":1173:1179   */\n      dup5\n        /* \"#utility.yul\":1168:1171   */\n      dup3\n        /* \"#utility.yul\":1163:1166   */\n      dup6\n        /* \"#utility.yul\":1139:1180   */\n      tag_131\n      jump\t// in\n    tag_130:\n        /* \"#utility.yul\":858:1186   */\n      pop\n        /* \"#utility.yul\":774:1186   */\n      swap4\n      swap3\n      pop\n      pop\n      pop\n      jump\t// out\n        /* \"#utility.yul\":1192:1331   */\n    tag_132:\n        /* \"#utility.yul\":1238:1243   */\n      0x00\n        /* \"#utility.yul\":1276:1282   */\n      dup2\n        /* \"#utility.yul\":1263:1283   */\n      calldataload\n        /* \"#utility.yul\":1254:1283   */\n      swap1\n      pop\n        /* \"#utility.yul\":1292:1325   */\n      tag_134\n        /* \"#utility.yul\":1319:1324   */\n      dup2\n        /* \"#utility.yul\":1292:1325   */\n      tag_135\n      jump\t// in\n    tag_134:\n        /* \"#utility.yul\":1192:1331   */\n      swap3\n      swap2\n      pop\n      pop\n      jump\t// out\n        /* \"#utility.yul\":1354:1739   */\n    tag_136:\n        /* \"#utility.yul\":1436:1441   */\n      0x00\n        /* \"#utility.yul\":1485:1488   */\n      dup3\n        /* \"#utility.yul\":1478:1482   */\n      0x1f\n        /* \"#utility.yul\":1470:1476   */\n      dup4\n        /* \"#utility.yul\":1466:1483   */\n      add\n        /* \"#utility.yul\":1462:1489   */\n      slt\n        /* \"#utility.yul\":1452:1574   */\n      tag_138\n      jumpi\n        /* \"#utility.yul\":1493:1572   */\n      tag_139\n      tag_140\n      jump\t// in\n    tag_139:\n        /* \"#utility.yul\":1452:1574   */\n    tag_138:\n        /* \"#utility.yul\":1603:1609   */\n      dup2\n        /* \"#utility.yul\":1597:1610   */\n      mload\n        /* \"#utility.yul\":1628:1733   */\n      tag_141\n        /* \"#utility.yul\":1729:1732   */\n      dup5\n        /* \"#utility.yul\":1721:1727   */\n      dup3\n        /* \"#utility.yul\":1714:1718   */\n      0x20\n        /* \"#utility.yul\":1706:1712   */\n      dup7\n        /* \"#utility.yul\":1702:1719   */\n      add\n        /* \"#utility.yul\":1628:1733   */\n      tag_108\n      jump\t// in\n    tag_141:\n        /* \"#utility.yul\":1619:1733   */\n      swap2\n      pop\n        /* \"#utility.yul\":1442:1739   */\n      pop\n        /* \"#utility.yul\":1354:1739   */\n      swap3\n      swap2\n      pop\n      pop\n      jump\t// out\n        /* \"#utility.yul\":1745:1882   */\n    tag_142:\n        /* \"#utility.yul\":1799:1804   */\n      0x00\n        /* \"#utility.yul\":1830:1836   */\n      dup2\n        /* \"#utility.yul\":1824:1837   */\n      mload\n        /* \"#utility.yul\":1815:1837   */\n      swap1\n      pop\n        /* \"#utility.yul\":1846:1876   */\n      tag_144\n        /* \"#utility.yul\":1870:1875   */\n      dup2\n        /* \"#utility.yul\":1846:1876   */\n      tag_145\n      jump\t// in\n    tag_144:\n        /* \"#utility.yul\":1745:1882   */\n      swap3\n      swap2\n      pop\n      pop\n      jump\t// out\n        /* \"#utility.yul\":1902:2242   */\n    tag_146:\n        /* \"#utility.yul\":1958:1963   */\n      0x00\n        /* \"#utility.yul\":2007:2010   */\n      dup3\n        /* \"#utility.yul\":2000:2004   */\n      0x1f\n        /* \"#utility.yul\":1992:1998   */\n      dup4\n        /* \"#utility.yul\":1988:2005   */\n      add\n        /* \"#utility.yul\":1984:2011   */\n      slt\n        /* \"#utility.yul\":1974:2096   */\n      tag_148\n      jumpi\n        /* \"#utility.yul\":2015:2094   */\n      tag_149\n      tag_140\n      jump\t// in\n    tag_149:\n        /* \"#utility.yul\":1974:2096   */\n    tag_148:\n        /* \"#utility.yul\":2132:2138   */\n      dup2\n        /* \"#utility.yul\":2119:2139   */\n      calldataload\n        /* \"#utility.yul\":2157:2236   */\n      tag_150\n        /* \"#utility.yul\":2232:2235   */\n      dup5\n        /* \"#utility.yul\":2224:2230   */\n      dup3\n        /* \"#utility.yul\":2217:2221   */\n      0x20\n        /* \"#utility.yul\":2209:2215   */\n      dup7\n        /* \"#utility.yul\":2205:2222   */\n      add\n        /* \"#utility.yul\":2157:2236   */\n      tag_122\n      jump\t// in\n    tag_150:\n        /* \"#utility.yul\":2148:2236   */\n      swap2\n      pop\n        /* \"#utility.yul\":1964:2242   */\n      pop\n        /* \"#utility.yul\":1902:2242   */\n      swap3\n      swap2\n      pop\n      pop\n      jump\t// out\n        /* \"#utility.yul\":2248:2387   */\n    tag_151:\n        /* \"#utility.yul\":2294:2299   */\n      0x00\n        /* \"#utility.yul\":2332:2338   */\n      dup2\n        /* \"#utility.yul\":2319:2339   */\n      calldataload\n        /* \"#utility.yul\":2310:2339   */\n      swap1\n      pop\n        /* \"#utility.yul\":2348:2381   */\n      tag_153\n        /* \"#utility.yul\":2375:2380   */\n      dup2\n        /* \"#utility.yul\":2348:2381   */\n      tag_154\n      jump\t// in\n    tag_153:\n        /* \"#utility.yul\":2248:2387   */\n      swap3\n      swap2\n      pop\n      pop\n      jump\t// out\n        /* \"#utility.yul\":2393:2536   */\n    tag_121:\n        /* \"#utility.yul\":2450:2455   */\n      0x00\n        /* \"#utility.yul\":2481:2487   */\n      dup2\n        /* \"#utility.yul\":2475:2488   */\n      mload\n        /* \"#utility.yul\":2466:2488   */\n      swap1\n      pop\n        /* \"#utility.yul\":2497:2530   */\n      tag_156\n        /* \"#utility.yul\":2524:2529   */\n      dup2\n        /* \"#utility.yul\":2497:2530   */\n      tag_154\n      jump\t// in\n    tag_156:\n        /* \"#utility.yul\":2393:2536   */\n      swap3\n      swap2\n      pop\n      pop\n      jump\t// out\n        /* \"#utility.yul\":2542:3096   */\n    tag_106:\n        /* \"#utility.yul\":2637:2643   */\n      0x00\n        /* \"#utility.yul\":2686:2688   */\n      0x20\n        /* \"#utility.yul\":2674:2683   */\n      dup3\n        /* \"#utility.yul\":2665:2672   */\n      dup5\n        /* \"#utility.yul\":2661:2684   */\n      sub\n        /* \"#utility.yul\":2657:2689   */\n      slt\n        /* \"#utility.yul\":2654:2773   */\n      iszero\n      tag_158\n      jumpi\n        /* \"#utility.yul\":2692:2771   */\n      tag_159\n      tag_160\n      jump\t// in\n    tag_159:\n        /* \"#utility.yul\":2654:2773   */\n    tag_158:\n        /* \"#utility.yul\":2833:2834   */\n      0x00\n        /* \"#utility.yul\":2822:2831   */\n      dup3\n        /* \"#utility.yul\":2818:2835   */\n      add\n        /* \"#utility.yul\":2812:2836   */\n      mload\n        /* \"#utility.yul\":2863:2881   */\n      0xffffffffffffffff\n        /* \"#utility.yul\":2855:2861   */\n      dup2\n        /* \"#utility.yul\":2852:2882   */\n      gt\n        /* \"#utility.yul\":2849:2966   */\n      iszero\n      tag_161\n      jumpi\n        /* \"#utility.yul\":2885:2964   */\n      tag_162\n      tag_163\n      jump\t// in\n    tag_162:\n        /* \"#utility.yul\":2849:2966   */\n    tag_161:\n        /* \"#utility.yul\":2990:3079   */\n      tag_164\n        /* \"#utility.yul\":3071:3078   */\n      dup5\n        /* \"#utility.yul\":3062:3068   */\n      dup3\n        /* \"#utility.yul\":3051:3060   */\n      dup6\n        /* \"#utility.yul\":3047:3069   */\n      add\n        /* \"#utility.yul\":2990:3079   */\n      tag_136\n      jump\t// in\n    tag_164:\n        /* \"#utility.yul\":2980:3079   */\n      swap2\n      pop\n        /* \"#utility.yul\":2783:3089   */\n      pop\n        /* \"#utility.yul\":2542:3096   */\n      swap3\n      swap2\n      pop\n      pop\n      jump\t// out\n        /* \"#utility.yul\":3102:3447   */\n    tag_47:\n        /* \"#utility.yul\":3169:3175   */\n      0x00\n        /* \"#utility.yul\":3218:3220   */\n      0x20\n        /* \"#utility.yul\":3206:3215   */\n      dup3\n        /* \"#utility.yul\":3197:3204   */\n      dup5\n        /* \"#utility.yul\":3193:3216   */\n      sub\n        /* \"#utility.yul\":3189:3221   */\n      slt\n        /* \"#utility.yul\":3186:3305   */\n      iszero\n      tag_166\n      jumpi\n        /* \"#utility.yul\":3224:3303   */\n      tag_167\n      tag_160\n      jump\t// in\n    tag_167:\n        /* \"#utility.yul\":3186:3305   */\n    tag_166:\n        /* \"#utility.yul\":3344:3345   */\n      0x00\n        /* \"#utility.yul\":3369:3430   */\n      tag_168\n        /* \"#utility.yul\":3422:3429   */\n      dup5\n        /* \"#utility.yul\":3413:3419   */\n      dup3\n        /* \"#utility.yul\":3402:3411   */\n      dup6\n        /* \"#utility.yul\":3398:3420   */\n      add\n        /* \"#utility.yul\":3369:3430   */\n      tag_142\n      jump\t// in\n    tag_168:\n        /* \"#utility.yul\":3359:3430   */\n      swap2\n      pop\n        /* \"#utility.yul\":3315:3440   */\n      pop\n        /* \"#utility.yul\":3102:3447   */\n      swap3\n      swap2\n      pop\n      pop\n      jump\t// out\n        /* \"#utility.yul\":3453:4252   */\n    tag_12:\n        /* \"#utility.yul\":3540:3546   */\n      0x00\n        /* \"#utility.yul\":3548:3554   */\n      dup1\n        /* \"#utility.yul\":3556:3562   */\n      0x00\n        /* \"#utility.yul\":3605:3607   */\n      0x60\n        /* \"#utility.yul\":3593:3602   */\n      dup5\n        /* \"#utility.yul\":3584:3591   */\n      dup7\n        /* \"#utility.yul\":3580:3603   */\n      sub\n        /* \"#utility.yul\":3576:3608   */\n      slt\n        /* \"#utility.yul\":3573:3692   */\n      iszero\n      tag_170\n      jumpi\n        /* \"#utility.yul\":3611:3690   */\n      tag_171\n      tag_160\n      jump\t// in\n    tag_171:\n        /* \"#utility.yul\":3573:3692   */\n    tag_170:\n        /* \"#utility.yul\":3759:3760   */\n      0x00\n        /* \"#utility.yul\":3748:3757   */\n      dup5\n        /* \"#utility.yul\":3744:3761   */\n      add\n        /* \"#utility.yul\":3731:3762   */\n      calldataload\n        /* \"#utility.yul\":3789:3807   */\n      0xffffffffffffffff\n        /* \"#utility.yul\":3781:3787   */\n      dup2\n        /* \"#utility.yul\":3778:3808   */\n      gt\n        /* \"#utility.yul\":3775:3892   */\n      iszero\n      tag_172\n      jumpi\n        /* \"#utility.yul\":3811:3890   */\n      tag_173\n      tag_163\n      jump\t// in\n    tag_173:\n        /* \"#utility.yul\":3775:3892   */\n    tag_172:\n        /* \"#utility.yul\":3916:3979   */\n      tag_174\n        /* \"#utility.yul\":3971:3978   */\n      dup7\n        /* \"#utility.yul\":3962:3968   */\n      dup3\n        /* \"#utility.yul\":3951:3960   */\n      dup8\n        /* \"#utility.yul\":3947:3969   */\n      add\n        /* \"#utility.yul\":3916:3979   */\n      tag_146\n      jump\t// in\n    tag_174:\n        /* \"#utility.yul\":3906:3979   */\n      swap4\n      pop\n        /* \"#utility.yul\":3702:3989   */\n      pop\n        /* \"#utility.yul\":4028:4030   */\n      0x20\n        /* \"#utility.yul\":4054:4107   */\n      tag_175\n        /* \"#utility.yul\":4099:4106   */\n      dup7\n        /* \"#utility.yul\":4090:4096   */\n      dup3\n        /* \"#utility.yul\":4079:4088   */\n      dup8\n        /* \"#utility.yul\":4075:4097   */\n      add\n        /* \"#utility.yul\":4054:4107   */\n      tag_132\n      jump\t// in\n    tag_175:\n        /* \"#utility.yul\":4044:4107   */\n      swap3\n      pop\n        /* \"#utility.yul\":3999:4117   */\n      pop\n        /* \"#utility.yul\":4156:4158   */\n      0x40\n        /* \"#utility.yul\":4182:4235   */\n      tag_176\n        /* \"#utility.yul\":4227:4234   */\n      dup7\n        /* \"#utility.yul\":4218:4224   */\n      dup3\n        /* \"#utility.yul\":4207:4216   */\n      dup8\n        /* \"#utility.yul\":4203:4225   */\n      add\n        /* \"#utility.yul\":4182:4235   */\n      tag_151\n      jump\t// in\n    tag_176:\n        /* \"#utility.yul\":4172:4235   */\n      swap2\n      pop\n        /* \"#utility.yul\":4127:4245   */\n      pop\n        /* \"#utility.yul\":3453:4252   */\n      swap3\n      pop\n      swap3\n      pop\n      swap3\n      jump\t// out\n        /* \"#utility.yul\":4258:4912   */\n    tag_19:\n        /* \"#utility.yul\":4336:4342   */\n      0x00\n        /* \"#utility.yul\":4344:4350   */\n      dup1\n        /* \"#utility.yul\":4393:4395   */\n      0x40\n        /* \"#utility.yul\":4381:4390   */\n      dup4\n        /* \"#utility.yul\":4372:4379   */\n      dup6\n        /* \"#utility.yul\":4368:4391   */\n      sub\n        /* \"#utility.yul\":4364:4396   */\n      slt\n        /* \"#utility.yul\":4361:4480   */\n      iszero\n      tag_178\n      jumpi\n        /* \"#utility.yul\":4399:4478   */\n      tag_179\n      tag_160\n      jump\t// in\n    tag_179:\n        /* \"#utility.yul\":4361:4480   */\n    tag_178:\n        /* \"#utility.yul\":4547:4548   */\n      0x00\n        /* \"#utility.yul\":4536:4545   */\n      dup4\n        /* \"#utility.yul\":4532:4549   */\n      add\n        /* \"#utility.yul\":4519:4550   */\n      calldataload\n        /* \"#utility.yul\":4577:4595   */\n      0xffffffffffffffff\n        /* \"#utility.yul\":4569:4575   */\n      dup2\n        /* \"#utility.yul\":4566:4596   */\n      gt\n        /* \"#utility.yul\":4563:4680   */\n      iszero\n      tag_180\n      jumpi\n        /* \"#utility.yul\":4599:4678   */\n      tag_181\n      tag_163\n      jump\t// in\n    tag_181:\n        /* \"#utility.yul\":4563:4680   */\n    tag_180:\n        /* \"#utility.yul\":4704:4767   */\n      tag_182\n        /* \"#utility.yul\":4759:4766   */\n      dup6\n        /* \"#utility.yul\":4750:4756   */\n      dup3\n        /* \"#utility.yul\":4739:4748   */\n      dup7\n        /* \"#utility.yul\":4735:4757   */\n      add\n        /* \"#utility.yul\":4704:4767   */\n      tag_146\n      jump\t// in\n    tag_182:\n        /* \"#utility.yul\":4694:4767   */\n      swap3\n      pop\n        /* \"#utility.yul\":4490:4777   */\n      pop\n        /* \"#utility.yul\":4816:4818   */\n      0x20\n        /* \"#utility.yul\":4842:4895   */\n      tag_183\n        /* \"#utility.yul\":4887:4894   */\n      dup6\n        /* \"#utility.yul\":4878:4884   */\n      dup3\n        /* \"#utility.yul\":4867:4876   */\n      dup7\n        /* \"#utility.yul\":4863:4885   */\n      add\n        /* \"#utility.yul\":4842:4895   */\n      tag_151\n      jump\t// in\n    tag_183:\n        /* \"#utility.yul\":4832:4895   */\n      swap2\n      pop\n        /* \"#utility.yul\":4787:4905   */\n      pop\n        /* \"#utility.yul\":4258:4912   */\n      swap3\n      pop\n      swap3\n      swap1\n      pop\n      jump\t// out\n        /* \"#utility.yul\":4918:5269   */\n    tag_35:\n        /* \"#utility.yul\":4988:4994   */\n      0x00\n        /* \"#utility.yul\":5037:5039   */\n      0x20\n        /* \"#utility.yul\":5025:5034   */\n      dup3\n        /* \"#utility.yul\":5016:5023   */\n      dup5\n        /* \"#utility.yul\":5012:5035   */\n      sub\n        /* \"#utility.yul\":5008:5040   */\n      slt\n        /* \"#utility.yul\":5005:5124   */\n      iszero\n      tag_185\n      jumpi\n        /* \"#utility.yul\":5043:5122   */\n      tag_186\n      tag_160\n      jump\t// in\n    tag_186:\n        /* \"#utility.yul\":5005:5124   */\n    tag_185:\n        /* \"#utility.yul\":5163:5164   */\n      0x00\n        /* \"#utility.yul\":5188:5252   */\n      tag_187\n        /* \"#utility.yul\":5244:5251   */\n      dup5\n        /* \"#utility.yul\":5235:5241   */\n      dup3\n        /* \"#utility.yul\":5224:5233   */\n      dup6\n        /* \"#utility.yul\":5220:5242   */\n      add\n        /* \"#utility.yul\":5188:5252   */\n      tag_121\n      jump\t// in\n    tag_187:\n        /* \"#utility.yul\":5178:5252   */\n      swap2\n      pop\n        /* \"#utility.yul\":5134:5262   */\n      pop\n        /* \"#utility.yul\":4918:5269   */\n      swap3\n      swap2\n      pop\n      pop\n      jump\t// out\n        /* \"#utility.yul\":5275:6546   */\n    tag_24:\n        /* \"#utility.yul\":5390:5396   */\n      0x00\n        /* \"#utility.yul\":5398:5404   */\n      dup1\n        /* \"#utility.yul\":5406:5412   */\n      0x00\n        /* \"#utility.yul\":5414:5420   */\n      dup1\n        /* \"#utility.yul\":5422:5428   */\n      0x00\n        /* \"#utility.yul\":5471:5474   */\n      0xa0\n        /* \"#utility.yul\":5459:5468   */\n      dup7\n        /* \"#utility.yul\":5450:5457   */\n      dup9\n        /* \"#utility.yul\":5446:5469   */\n      sub\n        /* \"#utility.yul\":5442:5475   */\n      slt\n        /* \"#utility.yul\":5439:5559   */\n      iszero\n      tag_189\n      jumpi\n        /* \"#utility.yul\":5478:5557   */\n      tag_190\n      tag_160\n      jump\t// in\n    tag_190:\n        /* \"#utility.yul\":5439:5559   */\n    tag_189:\n        /* \"#utility.yul\":5598:5599   */\n      0x00\n        /* \"#utility.yul\":5623:5676   */\n      tag_191\n        /* \"#utility.yul\":5668:5675   */\n      dup9\n        /* \"#utility.yul\":5659:5665   */\n      dup3\n        /* \"#utility.yul\":5648:5657   */\n      dup10\n        /* \"#utility.yul\":5644:5666   */\n      add\n        /* \"#utility.yul\":5623:5676   */\n      tag_151\n      jump\t// in\n    tag_191:\n        /* \"#utility.yul\":5613:5676   */\n      swap6\n      pop\n        /* \"#utility.yul\":5569:5686   */\n      pop\n        /* \"#utility.yul\":5725:5727   */\n      0x20\n        /* \"#utility.yul\":5751:5804   */\n      tag_192\n        /* \"#utility.yul\":5796:5803   */\n      dup9\n        /* \"#utility.yul\":5787:5793   */\n      dup3\n        /* \"#utility.yul\":5776:5785   */\n      dup10\n        /* \"#utility.yul\":5772:5794   */\n      add\n        /* \"#utility.yul\":5751:5804   */\n      tag_151\n      jump\t// in\n    tag_192:\n        /* \"#utility.yul\":5741:5804   */\n      swap5\n      pop\n        /* \"#utility.yul\":5696:5814   */\n      pop\n        /* \"#utility.yul\":5881:5883   */\n      0x40\n        /* \"#utility.yul\":5870:5879   */\n      dup7\n        /* \"#utility.yul\":5866:5884   */\n      add\n        /* \"#utility.yul\":5853:5885   */\n      calldataload\n        /* \"#utility.yul\":5912:5930   */\n      0xffffffffffffffff\n        /* \"#utility.yul\":5904:5910   */\n      dup2\n        /* \"#utility.yul\":5901:5931   */\n      gt\n        /* \"#utility.yul\":5898:6015   */\n      iszero\n      tag_193\n      jumpi\n        /* \"#utility.yul\":5934:6013   */\n      tag_194\n      tag_163\n      jump\t// in\n    tag_194:\n        /* \"#utility.yul\":5898:6015   */\n    tag_193:\n        /* \"#utility.yul\":6039:6102   */\n      tag_195\n        /* \"#utility.yul\":6094:6101   */\n      dup9\n        /* \"#utility.yul\":6085:6091   */\n      dup3\n        /* \"#utility.yul\":6074:6083   */\n      dup10\n        /* \"#utility.yul\":6070:6092   */\n      add\n        /* \"#utility.yul\":6039:6102   */\n      tag_146\n      jump\t// in\n    tag_195:\n        /* \"#utility.yul\":6029:6102   */\n      swap4\n      pop\n        /* \"#utility.yul\":5824:6112   */\n      pop\n        /* \"#utility.yul\":6179:6181   */\n      0x60\n        /* \"#utility.yul\":6168:6177   */\n      dup7\n        /* \"#utility.yul\":6164:6182   */\n      add\n        /* \"#utility.yul\":6151:6183   */\n      calldataload\n        /* \"#utility.yul\":6210:6228   */\n      0xffffffffffffffff\n        /* \"#utility.yul\":6202:6208   */\n      dup2\n        /* \"#utility.yul\":6199:6229   */\n      gt\n        /* \"#utility.yul\":6196:6313   */\n      iszero\n      tag_196\n      jumpi\n        /* \"#utility.yul\":6232:6311   */\n      tag_197\n      tag_163\n      jump\t// in\n    tag_197:\n        /* \"#utility.yul\":6196:6313   */\n    tag_196:\n        /* \"#utility.yul\":6337:6400   */\n      tag_198\n        /* \"#utility.yul\":6392:6399   */\n      dup9\n        /* \"#utility.yul\":6383:6389   */\n      dup3\n        /* \"#utility.yul\":6372:6381   */\n      dup10\n        /* \"#utility.yul\":6368:6390   */\n      add\n        /* \"#utility.yul\":6337:6400   */\n      tag_146\n      jump\t// in\n    tag_198:\n        /* \"#utility.yul\":6327:6400   */\n      swap3\n      pop\n        /* \"#utility.yul\":6122:6410   */\n      pop\n        /* \"#utility.yul\":6449:6452   */\n      0x80\n        /* \"#utility.yul\":6476:6529   */\n      tag_199\n        /* \"#utility.yul\":6521:6528   */\n      dup9\n        /* \"#utility.yul\":6512:6518   */\n      dup3\n        /* \"#utility.yul\":6501:6510   */\n      dup10\n        /* \"#utility.yul\":6497:6519   */\n      add\n        /* \"#utility.yul\":6476:6529   */\n      tag_151\n      jump\t// in\n    tag_199:\n        /* \"#utility.yul\":6466:6529   */\n      swap2\n      pop\n        /* \"#utility.yul\":6420:6539   */\n      pop\n        /* \"#utility.yul\":5275:6546   */\n      swap3\n      swap6\n      pop\n      swap3\n      swap6\n      swap1\n      swap4\n      pop\n      jump\t// out\n        /* \"#utility.yul\":6552:6731   */\n    tag_200:\n        /* \"#utility.yul\":6621:6631   */\n      0x00\n        /* \"#utility.yul\":6642:6688   */\n      tag_202\n        /* \"#utility.yul\":6684:6687   */\n      dup4\n        /* \"#utility.yul\":6676:6682   */\n      dup4\n        /* \"#utility.yul\":6642:6688   */\n      tag_203\n      jump\t// in\n    tag_202:\n        /* \"#utility.yul\":6720:6724   */\n      0x20\n        /* \"#utility.yul\":6715:6718   */\n      dup4\n        /* \"#utility.yul\":6711:6725   */\n      add\n        /* \"#utility.yul\":6697:6725   */\n      swap1\n      pop\n        /* \"#utility.yul\":6552:6731   */\n      swap3\n      swap2\n      pop\n      pop\n      jump\t// out\n        /* \"#utility.yul\":6737:6845   */\n    tag_203:\n        /* \"#utility.yul\":6814:6838   */\n      tag_205\n        /* \"#utility.yul\":6832:6837   */\n      dup2\n        /* \"#utility.yul\":6814:6838   */\n      tag_206\n      jump\t// in\n    tag_205:\n        /* \"#utility.yul\":6809:6812   */\n      dup3\n        /* \"#utility.yul\":6802:6839   */\n      mstore\n        /* \"#utility.yul\":6737:6845   */\n      pop\n      pop\n      jump\t// out\n        /* \"#utility.yul\":6851:6969   */\n    tag_207:\n        /* \"#utility.yul\":6938:6962   */\n      tag_209\n        /* \"#utility.yul\":6956:6961   */\n      dup2\n        /* \"#utility.yul\":6938:6962   */\n      tag_206\n      jump\t// in\n    tag_209:\n        /* \"#utility.yul\":6933:6936   */\n      dup3\n        /* \"#utility.yul\":6926:6963   */\n      mstore\n        /* \"#utility.yul\":6851:6969   */\n      pop\n      pop\n      jump\t// out\n        /* \"#utility.yul\":7005:7737   */\n    tag_210:\n        /* \"#utility.yul\":7124:7127   */\n      0x00\n        /* \"#utility.yul\":7153:7207   */\n      tag_212\n        /* \"#utility.yul\":7201:7206   */\n      dup3\n        /* \"#utility.yul\":7153:7207   */\n      tag_213\n      jump\t// in\n    tag_212:\n        /* \"#utility.yul\":7223:7309   */\n      tag_214\n        /* \"#utility.yul\":7302:7308   */\n      dup2\n        /* \"#utility.yul\":7297:7300   */\n      dup6\n        /* \"#utility.yul\":7223:7309   */\n      tag_215\n      jump\t// in\n    tag_214:\n        /* \"#utility.yul\":7216:7309   */\n      swap4\n      pop\n        /* \"#utility.yul\":7333:7389   */\n      tag_216\n        /* \"#utility.yul\":7383:7388   */\n      dup4\n        /* \"#utility.yul\":7333:7389   */\n      tag_217\n      jump\t// in\n    tag_216:\n        /* \"#utility.yul\":7412:7419   */\n      dup1\n        /* \"#utility.yul\":7443:7444   */\n      0x00\n        /* \"#utility.yul\":7428:7712   */\n    tag_218:\n        /* \"#utility.yul\":7453:7459   */\n      dup4\n        /* \"#utility.yul\":7450:7451   */\n      dup2\n        /* \"#utility.yul\":7447:7460   */\n      lt\n        /* \"#utility.yul\":7428:7712   */\n      iszero\n      tag_220\n      jumpi\n        /* \"#utility.yul\":7529:7535   */\n      dup2\n        /* \"#utility.yul\":7523:7536   */\n      mload\n        /* \"#utility.yul\":7556:7619   */\n      tag_221\n        /* \"#utility.yul\":7615:7618   */\n      dup9\n        /* \"#utility.yul\":7600:7613   */\n      dup3\n        /* \"#utility.yul\":7556:7619   */\n      tag_200\n      jump\t// in\n    tag_221:\n        /* \"#utility.yul\":7549:7619   */\n      swap8\n      pop\n        /* \"#utility.yul\":7642:7702   */\n      tag_222\n        /* \"#utility.yul\":7695:7701   */\n      dup4\n        /* \"#utility.yul\":7642:7702   */\n      tag_223\n      jump\t// in\n    tag_222:\n        /* \"#utility.yul\":7632:7702   */\n      swap3\n      pop\n        /* \"#utility.yul\":7488:7712   */\n      pop\n        /* \"#utility.yul\":7475:7476   */\n      0x01\n        /* \"#utility.yul\":7472:7473   */\n      dup2\n        /* \"#utility.yul\":7468:7477   */\n      add\n        /* \"#utility.yul\":7463:7477   */\n      swap1\n      pop\n        /* \"#utility.yul\":7428:7712   */\n      jump(tag_218)\n    tag_220:\n        /* \"#utility.yul\":7432:7446   */\n      pop\n        /* \"#utility.yul\":7728:7731   */\n      dup6\n        /* \"#utility.yul\":7721:7731   */\n      swap4\n      pop\n        /* \"#utility.yul\":7129:7737   */\n      pop\n      pop\n      pop\n        /* \"#utility.yul\":7005:7737   */\n      swap3\n      swap2\n      pop\n      pop\n      jump\t// out\n        /* \"#utility.yul\":7743:7852   */\n    tag_224:\n        /* \"#utility.yul\":7824:7845   */\n      tag_226\n        /* \"#utility.yul\":7839:7844   */\n      dup2\n        /* \"#utility.yul\":7824:7845   */\n      tag_227\n      jump\t// in\n    tag_226:\n        /* \"#utility.yul\":7819:7822   */\n      dup3\n        /* \"#utility.yul\":7812:7846   */\n      mstore\n        /* \"#utility.yul\":7743:7852   */\n      pop\n      pop\n      jump\t// out\n        /* \"#utility.yul\":7858:8218   */\n    tag_228:\n        /* \"#utility.yul\":7944:7947   */\n      0x00\n        /* \"#utility.yul\":7972:8010   */\n      tag_230\n        /* \"#utility.yul\":8004:8009   */\n      dup3\n        /* \"#utility.yul\":7972:8010   */\n      tag_231\n      jump\t// in\n    tag_230:\n        /* \"#utility.yul\":8026:8096   */\n      tag_232\n        /* \"#utility.yul\":8089:8095   */\n      dup2\n        /* \"#utility.yul\":8084:8087   */\n      dup6\n        /* \"#utility.yul\":8026:8096   */\n      tag_233\n      jump\t// in\n    tag_232:\n        /* \"#utility.yul\":8019:8096   */\n      swap4\n      pop\n        /* \"#utility.yul\":8105:8157   */\n      tag_234\n        /* \"#utility.yul\":8150:8156   */\n      dup2\n        /* \"#utility.yul\":8145:8148   */\n      dup6\n        /* \"#utility.yul\":8138:8142   */\n      0x20\n        /* \"#utility.yul\":8131:8136   */\n      dup7\n        /* \"#utility.yul\":8127:8143   */\n      add\n        /* \"#utility.yul\":8105:8157   */\n      tag_235\n      jump\t// in\n    tag_234:\n        /* \"#utility.yul\":8182:8211   */\n      tag_236\n        /* \"#utility.yul\":8204:8210   */\n      dup2\n        /* \"#utility.yul\":8182:8211   */\n      tag_237\n      jump\t// in\n    tag_236:\n        /* \"#utility.yul\":8177:8180   */\n      dup5\n        /* \"#utility.yul\":8173:8212   */\n      add\n        /* \"#utility.yul\":8166:8212   */\n      swap2\n      pop\n        /* \"#utility.yul\":7948:8218   */\n      pop\n        /* \"#utility.yul\":7858:8218   */\n      swap3\n      swap2\n      pop\n      pop\n      jump\t// out\n        /* \"#utility.yul\":8224:8597   */\n    tag_238:\n        /* \"#utility.yul\":8328:8331   */\n      0x00\n        /* \"#utility.yul\":8356:8394   */\n      tag_240\n        /* \"#utility.yul\":8388:8393   */\n      dup3\n        /* \"#utility.yul\":8356:8394   */\n      tag_231\n      jump\t// in\n    tag_240:\n        /* \"#utility.yul\":8410:8498   */\n      tag_241\n        /* \"#utility.yul\":8491:8497   */\n      dup2\n        /* \"#utility.yul\":8486:8489   */\n      dup6\n        /* \"#utility.yul\":8410:8498   */\n      tag_242\n      jump\t// in\n    tag_241:\n        /* \"#utility.yul\":8403:8498   */\n      swap4\n      pop\n        /* \"#utility.yul\":8507:8559   */\n      tag_243\n        /* \"#utility.yul\":8552:8558   */\n      dup2\n        /* \"#utility.yul\":8547:8550   */\n      dup6\n        /* \"#utility.yul\":8540:8544   */\n      0x20\n        /* \"#utility.yul\":8533:8538   */\n      dup7\n        /* \"#utility.yul\":8529:8545   */\n      add\n        /* \"#utility.yul\":8507:8559   */\n      tag_235\n      jump\t// in\n    tag_243:\n        /* \"#utility.yul\":8584:8590   */\n      dup1\n        /* \"#utility.yul\":8579:8582   */\n      dup5\n        /* \"#utility.yul\":8575:8591   */\n      add\n        /* \"#utility.yul\":8568:8591   */\n      swap2\n      pop\n        /* \"#utility.yul\":8332:8597   */\n      pop\n        /* \"#utility.yul\":8224:8597   */\n      swap3\n      swap2\n      pop\n      pop\n      jump\t// out\n        /* \"#utility.yul\":8603:8980   */\n    tag_244:\n        /* \"#utility.yul\":8709:8712   */\n      0x00\n        /* \"#utility.yul\":8737:8776   */\n      tag_246\n        /* \"#utility.yul\":8770:8775   */\n      dup3\n        /* \"#utility.yul\":8737:8776   */\n      tag_247\n      jump\t// in\n    tag_246:\n        /* \"#utility.yul\":8792:8881   */\n      tag_248\n        /* \"#utility.yul\":8874:8880   */\n      dup2\n        /* \"#utility.yul\":8869:8872   */\n      dup6\n        /* \"#utility.yul\":8792:8881   */\n      tag_249\n      jump\t// in\n    tag_248:\n        /* \"#utility.yul\":8785:8881   */\n      swap4\n      pop\n        /* \"#utility.yul\":8890:8942   */\n      tag_250\n        /* \"#utility.yul\":8935:8941   */\n      dup2\n        /* \"#utility.yul\":8930:8933   */\n      dup6\n        /* \"#utility.yul\":8923:8927   */\n      0x20\n        /* \"#utility.yul\":8916:8921   */\n      dup7\n        /* \"#utility.yul\":8912:8928   */\n      add\n        /* \"#utility.yul\":8890:8942   */\n      tag_235\n      jump\t// in\n    tag_250:\n        /* \"#utility.yul\":8967:8973   */\n      dup1\n        /* \"#utility.yul\":8962:8965   */\n      dup5\n        /* \"#utility.yul\":8958:8974   */\n      add\n        /* \"#utility.yul\":8951:8974   */\n      swap2\n      pop\n        /* \"#utility.yul\":8713:8980   */\n      pop\n        /* \"#utility.yul\":8603:8980   */\n      swap3\n      swap2\n      pop\n      pop\n      jump\t// out\n        /* \"#utility.yul\":8986:9352   */\n    tag_251:\n        /* \"#utility.yul\":9128:9131   */\n      0x00\n        /* \"#utility.yul\":9149:9216   */\n      tag_253\n        /* \"#utility.yul\":9213:9215   */\n      0x38\n        /* \"#utility.yul\":9208:9211   */\n      dup4\n        /* \"#utility.yul\":9149:9216   */\n      tag_254\n      jump\t// in\n    tag_253:\n        /* \"#utility.yul\":9142:9216   */\n      swap2\n      pop\n        /* \"#utility.yul\":9225:9318   */\n      tag_255\n        /* \"#utility.yul\":9314:9317   */\n      dup3\n        /* \"#utility.yul\":9225:9318   */\n      tag_256\n      jump\t// in\n    tag_255:\n        /* \"#utility.yul\":9343:9345   */\n      0x40\n        /* \"#utility.yul\":9338:9341   */\n      dup3\n        /* \"#utility.yul\":9334:9346   */\n      add\n        /* \"#utility.yul\":9327:9346   */\n      swap1\n      pop\n        /* \"#utility.yul\":8986:9352   */\n      swap2\n      swap1\n      pop\n      jump\t// out\n        /* \"#utility.yul\":9358:9758   */\n    tag_257:\n        /* \"#utility.yul\":9518:9521   */\n      0x00\n        /* \"#utility.yul\":9539:9623   */\n      tag_259\n        /* \"#utility.yul\":9621:9622   */\n      0x06\n        /* \"#utility.yul\":9616:9619   */\n      dup4\n        /* \"#utility.yul\":9539:9623   */\n      tag_249\n      jump\t// in\n    tag_259:\n        /* \"#utility.yul\":9532:9623   */\n      swap2\n      pop\n        /* \"#utility.yul\":9632:9725   */\n      tag_260\n        /* \"#utility.yul\":9721:9724   */\n      dup3\n        /* \"#utility.yul\":9632:9725   */\n      tag_261\n      jump\t// in\n    tag_260:\n        /* \"#utility.yul\":9750:9751   */\n      0x06\n        /* \"#utility.yul\":9745:9748   */\n      dup3\n        /* \"#utility.yul\":9741:9752   */\n      add\n        /* \"#utility.yul\":9734:9752   */\n      swap1\n      pop\n        /* \"#utility.yul\":9358:9758   */\n      swap2\n      swap1\n      pop\n      jump\t// out\n        /* \"#utility.yul\":9764:9882   */\n    tag_262:\n        /* \"#utility.yul\":9851:9875   */\n      tag_264\n        /* \"#utility.yul\":9869:9874   */\n      dup2\n        /* \"#utility.yul\":9851:9875   */\n      tag_265\n      jump\t// in\n    tag_264:\n        /* \"#utility.yul\":9846:9849   */\n      dup3\n        /* \"#utility.yul\":9839:9876   */\n      mstore\n        /* \"#utility.yul\":9764:9882   */\n      pop\n      pop\n      jump\t// out\n        /* \"#utility.yul\":9888:10159   */\n    tag_52:\n        /* \"#utility.yul\":10018:10021   */\n      0x00\n        /* \"#utility.yul\":10040:10133   */\n      tag_267\n        /* \"#utility.yul\":10129:10132   */\n      dup3\n        /* \"#utility.yul\":10120:10126   */\n      dup5\n        /* \"#utility.yul\":10040:10133   */\n      tag_238\n      jump\t// in\n    tag_267:\n        /* \"#utility.yul\":10033:10133   */\n      swap2\n      pop\n        /* \"#utility.yul\":10150:10153   */\n      dup2\n        /* \"#utility.yul\":10143:10153   */\n      swap1\n      pop\n        /* \"#utility.yul\":9888:10159   */\n      swap3\n      swap2\n      pop\n      pop\n      jump\t// out\n        /* \"#utility.yul\":10165:10440   */\n    tag_27:\n        /* \"#utility.yul\":10297:10300   */\n      0x00\n        /* \"#utility.yul\":10319:10414   */\n      tag_269\n        /* \"#utility.yul\":10410:10413   */\n      dup3\n        /* \"#utility.yul\":10401:10407   */\n      dup5\n        /* \"#utility.yul\":10319:10414   */\n      tag_244\n      jump\t// in\n    tag_269:\n        /* \"#utility.yul\":10312:10414   */\n      swap2\n      pop\n        /* \"#utility.yul\":10431:10434   */\n      dup2\n        /* \"#utility.yul\":10424:10434   */\n      swap1\n      pop\n        /* \"#utility.yul\":10165:10440   */\n      swap3\n      swap2\n      pop\n      pop\n      jump\t// out\n        /* \"#utility.yul\":10446:10827   */\n    tag_50:\n        /* \"#utility.yul\":10631:10634   */\n      0x00\n        /* \"#utility.yul\":10653:10801   */\n      tag_271\n        /* \"#utility.yul\":10797:10800   */\n      dup3\n        /* \"#utility.yul\":10653:10801   */\n      tag_257\n      jump\t// in\n    tag_271:\n        /* \"#utility.yul\":10646:10801   */\n      swap2\n      pop\n        /* \"#utility.yul\":10818:10821   */\n      dup2\n        /* \"#utility.yul\":10811:10821   */\n      swap1\n      pop\n        /* \"#utility.yul\":10446:10827   */\n      swap2\n      swap1\n      pop\n      jump\t// out\n        /* \"#utility.yul\":10833:11165   */\n    tag_30:\n        /* \"#utility.yul\":10954:10958   */\n      0x00\n        /* \"#utility.yul\":10992:10994   */\n      0x40\n        /* \"#utility.yul\":10981:10990   */\n      dup3\n        /* \"#utility.yul\":10977:10995   */\n      add\n        /* \"#utility.yul\":10969:10995   */\n      swap1\n      pop\n        /* \"#utility.yul\":11005:11076   */\n      tag_273\n        /* \"#utility.yul\":11073:11074   */\n      0x00\n        /* \"#utility.yul\":11062:11071   */\n      dup4\n        /* \"#utility.yul\":11058:11075   */\n      add\n        /* \"#utility.yul\":11049:11055   */\n      dup6\n        /* \"#utility.yul\":11005:11076   */\n      tag_207\n      jump\t// in\n    tag_273:\n        /* \"#utility.yul\":11086:11158   */\n      tag_274\n        /* \"#utility.yul\":11154:11156   */\n      0x20\n        /* \"#utility.yul\":11143:11152   */\n      dup4\n        /* \"#utility.yul\":11139:11157   */\n      add\n        /* \"#utility.yul\":11130:11136   */\n      dup5\n        /* \"#utility.yul\":11086:11158   */\n      tag_207\n      jump\t// in\n    tag_274:\n        /* \"#utility.yul\":10833:11165   */\n      swap4\n      swap3\n      pop\n      pop\n      pop\n      jump\t// out\n        /* \"#utility.yul\":11171:11613   */\n    tag_42:\n        /* \"#utility.yul\":11320:11324   */\n      0x00\n        /* \"#utility.yul\":11358:11360   */\n      0x60\n        /* \"#utility.yul\":11347:11356   */\n      dup3\n        /* \"#utility.yul\":11343:11361   */\n      add\n        /* \"#utility.yul\":11335:11361   */\n      swap1\n      pop\n        /* \"#utility.yul\":11371:11442   */\n      tag_276\n        /* \"#utility.yul\":11439:11440   */\n      0x00\n        /* \"#utility.yul\":11428:11437   */\n      dup4\n        /* \"#utility.yul\":11424:11441   */\n      add\n        /* \"#utility.yul\":11415:11421   */\n      dup7\n        /* \"#utility.yul\":11371:11442   */\n      tag_207\n      jump\t// in\n    tag_276:\n        /* \"#utility.yul\":11452:11524   */\n      tag_277\n        /* \"#utility.yul\":11520:11522   */\n      0x20\n        /* \"#utility.yul\":11509:11518   */\n      dup4\n        /* \"#utility.yul\":11505:11523   */\n      add\n        /* \"#utility.yul\":11496:11502   */\n      dup6\n        /* \"#utility.yul\":11452:11524   */\n      tag_207\n      jump\t// in\n    tag_277:\n        /* \"#utility.yul\":11534:11606   */\n      tag_278\n        /* \"#utility.yul\":11602:11604   */\n      0x40\n        /* \"#utility.yul\":11591:11600   */\n      dup4\n        /* \"#utility.yul\":11587:11605   */\n      add\n        /* \"#utility.yul\":11578:11584   */\n      dup5\n        /* \"#utility.yul\":11534:11606   */\n      tag_262\n      jump\t// in\n    tag_278:\n        /* \"#utility.yul\":11171:11613   */\n      swap5\n      swap4\n      pop\n      pop\n      pop\n      pop\n      jump\t// out\n        /* \"#utility.yul\":11619:11951   */\n    tag_95:\n        /* \"#utility.yul\":11740:11744   */\n      0x00\n        /* \"#utility.yul\":11778:11780   */\n      0x40\n        /* \"#utility.yul\":11767:11776   */\n      dup3\n        /* \"#utility.yul\":11763:11781   */\n      add\n        /* \"#utility.yul\":11755:11781   */\n      swap1\n      pop\n        /* \"#utility.yul\":11791:11862   */\n      tag_280\n        /* \"#utility.yul\":11859:11860   */\n      0x00\n        /* \"#utility.yul\":11848:11857   */\n      dup4\n        /* \"#utility.yul\":11844:11861   */\n      add\n        /* \"#utility.yul\":11835:11841   */\n      dup6\n        /* \"#utility.yul\":11791:11862   */\n      tag_207\n      jump\t// in\n    tag_280:\n        /* \"#utility.yul\":11872:11944   */\n      tag_281\n        /* \"#utility.yul\":11940:11942   */\n      0x20\n        /* \"#utility.yul\":11929:11938   */\n      dup4\n        /* \"#utility.yul\":11925:11943   */\n      add\n        /* \"#utility.yul\":11916:11922   */\n      dup5\n        /* \"#utility.yul\":11872:11944   */\n      tag_262\n      jump\t// in\n    tag_281:\n        /* \"#utility.yul\":11619:11951   */\n      swap4\n      swap3\n      pop\n      pop\n      pop\n      jump\t// out\n        /* \"#utility.yul\":11957:12364   */\n    tag_63:\n        /* \"#utility.yul\":12090:12094   */\n      0x00\n        /* \"#utility.yul\":12128:12130   */\n      0x40\n        /* \"#utility.yul\":12117:12126   */\n      dup3\n        /* \"#utility.yul\":12113:12131   */\n      add\n        /* \"#utility.yul\":12105:12131   */\n      swap1\n      pop\n        /* \"#utility.yul\":12141:12206   */\n      tag_283\n        /* \"#utility.yul\":12203:12204   */\n      0x00\n        /* \"#utility.yul\":12192:12201   */\n      dup4\n        /* \"#utility.yul\":12188:12205   */\n      add\n        /* \"#utility.yul\":12179:12185   */\n      dup6\n        /* \"#utility.yul\":12141:12206   */\n      tag_224\n      jump\t// in\n    tag_283:\n        /* \"#utility.yul\":12253:12262   */\n      dup2\n        /* \"#utility.yul\":12247:12251   */\n      dup2\n        /* \"#utility.yul\":12243:12263   */\n      sub\n        /* \"#utility.yul\":12238:12240   */\n      0x20\n        /* \"#utility.yul\":12227:12236   */\n      dup4\n        /* \"#utility.yul\":12223:12241   */\n      add\n        /* \"#utility.yul\":12216:12264   */\n      mstore\n        /* \"#utility.yul\":12281:12357   */\n      tag_284\n        /* \"#utility.yul\":12352:12356   */\n      dup2\n        /* \"#utility.yul\":12343:12349   */\n      dup5\n        /* \"#utility.yul\":12281:12357   */\n      tag_228\n      jump\t// in\n    tag_284:\n        /* \"#utility.yul\":12273:12357   */\n      swap1\n      pop\n        /* \"#utility.yul\":11957:12364   */\n      swap4\n      swap3\n      pop\n      pop\n      pop\n      jump\t// out\n        /* \"#utility.yul\":12370:12789   */\n    tag_38:\n        /* \"#utility.yul\":12536:12540   */\n      0x00\n        /* \"#utility.yul\":12574:12576   */\n      0x20\n        /* \"#utility.yul\":12563:12572   */\n      dup3\n        /* \"#utility.yul\":12559:12577   */\n      add\n        /* \"#utility.yul\":12551:12577   */\n      swap1\n      pop\n        /* \"#utility.yul\":12623:12632   */\n      dup2\n        /* \"#utility.yul\":12617:12621   */\n      dup2\n        /* \"#utility.yul\":12613:12633   */\n      sub\n        /* \"#utility.yul\":12609:12610   */\n      0x00\n        /* \"#utility.yul\":12598:12607   */\n      dup4\n        /* \"#utility.yul\":12594:12611   */\n      add\n        /* \"#utility.yul\":12587:12634   */\n      mstore\n        /* \"#utility.yul\":12651:12782   */\n      tag_286\n        /* \"#utility.yul\":12777:12781   */\n      dup2\n        /* \"#utility.yul\":12651:12782   */\n      tag_251\n      jump\t// in\n    tag_286:\n        /* \"#utility.yul\":12643:12782   */\n      swap1\n      pop\n        /* \"#utility.yul\":12370:12789   */\n      swap2\n      swap1\n      pop\n      jump\t// out\n        /* \"#utility.yul\":12795:13610   */\n    tag_101:\n        /* \"#utility.yul\":13050:13054   */\n      0x00\n        /* \"#utility.yul\":13088:13091   */\n      0xa0\n        /* \"#utility.yul\":13077:13086   */\n      dup3\n        /* \"#utility.yul\":13073:13092   */\n      add\n        /* \"#utility.yul\":13065:13092   */\n      swap1\n      pop\n        /* \"#utility.yul\":13102:13173   */\n      tag_288\n        /* \"#utility.yul\":13170:13171   */\n      0x00\n        /* \"#utility.yul\":13159:13168   */\n      dup4\n        /* \"#utility.yul\":13155:13172   */\n      add\n        /* \"#utility.yul\":13146:13152   */\n      dup9\n        /* \"#utility.yul\":13102:13173   */\n      tag_262\n      jump\t// in\n    tag_288:\n        /* \"#utility.yul\":13183:13255   */\n      tag_289\n        /* \"#utility.yul\":13251:13253   */\n      0x20\n        /* \"#utility.yul\":13240:13249   */\n      dup4\n        /* \"#utility.yul\":13236:13254   */\n      add\n        /* \"#utility.yul\":13227:13233   */\n      dup8\n        /* \"#utility.yul\":13183:13255   */\n      tag_262\n      jump\t// in\n    tag_289:\n        /* \"#utility.yul\":13302:13311   */\n      dup2\n        /* \"#utility.yul\":13296:13300   */\n      dup2\n        /* \"#utility.yul\":13292:13312   */\n      sub\n        /* \"#utility.yul\":13287:13289   */\n      0x40\n        /* \"#utility.yul\":13276:13285   */\n      dup4\n        /* \"#utility.yul\":13272:13290   */\n      add\n        /* \"#utility.yul\":13265:13313   */\n      mstore\n        /* \"#utility.yul\":13330:13438   */\n      tag_290\n        /* \"#utility.yul\":13433:13437   */\n      dup2\n        /* \"#utility.yul\":13424:13430   */\n      dup7\n        /* \"#utility.yul\":13330:13438   */\n      tag_210\n      jump\t// in\n    tag_290:\n        /* \"#utility.yul\":13322:13438   */\n      swap1\n      pop\n        /* \"#utility.yul\":13448:13520   */\n      tag_291\n        /* \"#utility.yul\":13516:13518   */\n      0x60\n        /* \"#utility.yul\":13505:13514   */\n      dup4\n        /* \"#utility.yul\":13501:13519   */\n      add\n        /* \"#utility.yul\":13492:13498   */\n      dup6\n        /* \"#utility.yul\":13448:13520   */\n      tag_207\n      jump\t// in\n    tag_291:\n        /* \"#utility.yul\":13530:13603   */\n      tag_292\n        /* \"#utility.yul\":13598:13601   */\n      0x80\n        /* \"#utility.yul\":13587:13596   */\n      dup4\n        /* \"#utility.yul\":13583:13602   */\n      add\n        /* \"#utility.yul\":13574:13580   */\n      dup5\n        /* \"#utility.yul\":13530:13603   */\n      tag_262\n      jump\t// in\n    tag_292:\n        /* \"#utility.yul\":12795:13610   */\n      swap7\n      swap6\n      pop\n      pop\n      pop\n      pop\n      pop\n      pop\n      jump\t// out\n        /* \"#utility.yul\":13616:13745   */\n    tag_113:\n        /* \"#utility.yul\":13650:13656   */\n      0x00\n        /* \"#utility.yul\":13677:13697   */\n      tag_294\n      tag_295\n      jump\t// in\n    tag_294:\n        /* \"#utility.yul\":13667:13697   */\n      swap1\n      pop\n        /* \"#utility.yul\":13706:13739   */\n      tag_296\n        /* \"#utility.yul\":13734:13738   */\n      dup3\n        /* \"#utility.yul\":13726:13732   */\n      dup3\n        /* \"#utility.yul\":13706:13739   */\n      tag_297\n      jump\t// in\n    tag_296:\n        /* \"#utility.yul\":13616:13745   */\n      swap2\n      swap1\n      pop\n      jump\t// out\n        /* \"#utility.yul\":13751:13826   */\n    tag_295:\n        /* \"#utility.yul\":13784:13790   */\n      0x00\n        /* \"#utility.yul\":13817:13819   */\n      0x40\n        /* \"#utility.yul\":13811:13820   */\n      mload\n        /* \"#utility.yul\":13801:13820   */\n      swap1\n      pop\n        /* \"#utility.yul\":13751:13826   */\n      swap1\n      jump\t// out\n        /* \"#utility.yul\":13832:14143   */\n    tag_112:\n        /* \"#utility.yul\":13909:13913   */\n      0x00\n        /* \"#utility.yul\":13999:14017   */\n      0xffffffffffffffff\n        /* \"#utility.yul\":13991:13997   */\n      dup3\n        /* \"#utility.yul\":13988:14018   */\n      gt\n        /* \"#utility.yul\":13985:14041   */\n      iszero\n      tag_300\n      jumpi\n        /* \"#utility.yul\":14021:14039   */\n      tag_301\n      tag_84\n      jump\t// in\n    tag_301:\n        /* \"#utility.yul\":13985:14041   */\n    tag_300:\n        /* \"#utility.yul\":14071:14075   */\n      0x20\n        /* \"#utility.yul\":14063:14069   */\n      dup3\n        /* \"#utility.yul\":14059:14076   */\n      mul\n        /* \"#utility.yul\":14051:14076   */\n      swap1\n      pop\n        /* \"#utility.yul\":14131:14135   */\n      0x20\n        /* \"#utility.yul\":14125:14129   */\n      dup2\n        /* \"#utility.yul\":14121:14136   */\n      add\n        /* \"#utility.yul\":14113:14136   */\n      swap1\n      pop\n        /* \"#utility.yul\":13832:14143   */\n      swap2\n      swap1\n      pop\n      jump\t// out\n        /* \"#utility.yul\":14149:14457   */\n    tag_126:\n        /* \"#utility.yul\":14211:14215   */\n      0x00\n        /* \"#utility.yul\":14301:14319   */\n      0xffffffffffffffff\n        /* \"#utility.yul\":14293:14299   */\n      dup3\n        /* \"#utility.yul\":14290:14320   */\n      gt\n        /* \"#utility.yul\":14287:14343   */\n      iszero\n      tag_303\n      jumpi\n        /* \"#utility.yul\":14323:14341   */\n      tag_304\n      tag_84\n      jump\t// in\n    tag_304:\n        /* \"#utility.yul\":14287:14343   */\n    tag_303:\n        /* \"#utility.yul\":14361:14390   */\n      tag_305\n        /* \"#utility.yul\":14383:14389   */\n      dup3\n        /* \"#utility.yul\":14361:14390   */\n      tag_237\n      jump\t// in\n    tag_305:\n        /* \"#utility.yul\":14353:14390   */\n      swap1\n      pop\n        /* \"#utility.yul\":14445:14449   */\n      0x20\n        /* \"#utility.yul\":14439:14443   */\n      dup2\n        /* \"#utility.yul\":14435:14450   */\n      add\n        /* \"#utility.yul\":14427:14450   */\n      swap1\n      pop\n        /* \"#utility.yul\":14149:14457   */\n      swap2\n      swap1\n      pop\n      jump\t// out\n        /* \"#utility.yul\":14463:14595   */\n    tag_217:\n        /* \"#utility.yul\":14530:14534   */\n      0x00\n        /* \"#utility.yul\":14553:14556   */\n      dup2\n        /* \"#utility.yul\":14545:14556   */\n      swap1\n      pop\n        /* \"#utility.yul\":14583:14587   */\n      0x20\n        /* \"#utility.yul\":14578:14581   */\n      dup3\n        /* \"#utility.yul\":14574:14588   */\n      add\n        /* \"#utility.yul\":14566:14588   */\n      swap1\n      pop\n        /* \"#utility.yul\":14463:14595   */\n      swap2\n      swap1\n      pop\n      jump\t// out\n        /* \"#utility.yul\":14601:14715   */\n    tag_213:\n        /* \"#utility.yul\":14668:14674   */\n      0x00\n        /* \"#utility.yul\":14702:14707   */\n      dup2\n        /* \"#utility.yul\":14696:14708   */\n      mload\n        /* \"#utility.yul\":14686:14708   */\n      swap1\n      pop\n        /* \"#utility.yul\":14601:14715   */\n      swap2\n      swap1\n      pop\n      jump\t// out\n        /* \"#utility.yul\":14721:14819   */\n    tag_231:\n        /* \"#utility.yul\":14772:14778   */\n      0x00\n        /* \"#utility.yul\":14806:14811   */\n      dup2\n        /* \"#utility.yul\":14800:14812   */\n      mload\n        /* \"#utility.yul\":14790:14812   */\n      swap1\n      pop\n        /* \"#utility.yul\":14721:14819   */\n      swap2\n      swap1\n      pop\n      jump\t// out\n        /* \"#utility.yul\":14825:14924   */\n    tag_247:\n        /* \"#utility.yul\":14877:14883   */\n      0x00\n        /* \"#utility.yul\":14911:14916   */\n      dup2\n        /* \"#utility.yul\":14905:14917   */\n      mload\n        /* \"#utility.yul\":14895:14917   */\n      swap1\n      pop\n        /* \"#utility.yul\":14825:14924   */\n      swap2\n      swap1\n      pop\n      jump\t// out\n        /* \"#utility.yul\":14930:15043   */\n    tag_223:\n        /* \"#utility.yul\":15000:15004   */\n      0x00\n        /* \"#utility.yul\":15032:15036   */\n      0x20\n        /* \"#utility.yul\":15027:15030   */\n      dup3\n        /* \"#utility.yul\":15023:15037   */\n      add\n        /* \"#utility.yul\":15015:15037   */\n      swap1\n      pop\n        /* \"#utility.yul\":14930:15043   */\n      swap2\n      swap1\n      pop\n      jump\t// out\n        /* \"#utility.yul\":15049:15233   */\n    tag_215:\n        /* \"#utility.yul\":15148:15159   */\n      0x00\n        /* \"#utility.yul\":15182:15188   */\n      dup3\n        /* \"#utility.yul\":15177:15180   */\n      dup3\n        /* \"#utility.yul\":15170:15189   */\n      mstore\n        /* \"#utility.yul\":15222:15226   */\n      0x20\n        /* \"#utility.yul\":15217:15220   */\n      dup3\n        /* \"#utility.yul\":15213:15227   */\n      add\n        /* \"#utility.yul\":15198:15227   */\n      swap1\n      pop\n        /* \"#utility.yul\":15049:15233   */\n      swap3\n      swap2\n      pop\n      pop\n      jump\t// out\n        /* \"#utility.yul\":15239:15407   */\n    tag_233:\n        /* \"#utility.yul\":15322:15333   */\n      0x00\n        /* \"#utility.yul\":15356:15362   */\n      dup3\n        /* \"#utility.yul\":15351:15354   */\n      dup3\n        /* \"#utility.yul\":15344:15363   */\n      mstore\n        /* \"#utility.yul\":15396:15400   */\n      0x20\n        /* \"#utility.yul\":15391:15394   */\n      dup3\n        /* \"#utility.yul\":15387:15401   */\n      add\n        /* \"#utility.yul\":15372:15401   */\n      swap1\n      pop\n        /* \"#utility.yul\":15239:15407   */\n      swap3\n      swap2\n      pop\n      pop\n      jump\t// out\n        /* \"#utility.yul\":15413:15560   */\n    tag_242:\n        /* \"#utility.yul\":15514:15525   */\n      0x00\n        /* \"#utility.yul\":15551:15554   */\n      dup2\n        /* \"#utility.yul\":15536:15554   */\n      swap1\n      pop\n        /* \"#utility.yul\":15413:15560   */\n      swap3\n      swap2\n      pop\n      pop\n      jump\t// out\n        /* \"#utility.yul\":15566:15735   */\n    tag_254:\n        /* \"#utility.yul\":15650:15661   */\n      0x00\n        /* \"#utility.yul\":15684:15690   */\n      dup3\n        /* \"#utility.yul\":15679:15682   */\n      dup3\n        /* \"#utility.yul\":15672:15691   */\n      mstore\n        /* \"#utility.yul\":15724:15728   */\n      0x20\n        /* \"#utility.yul\":15719:15722   */\n      dup3\n        /* \"#utility.yul\":15715:15729   */\n      add\n        /* \"#utility.yul\":15700:15729   */\n      swap1\n      pop\n        /* \"#utility.yul\":15566:15735   */\n      swap3\n      swap2\n      pop\n      pop\n      jump\t// out\n        /* \"#utility.yul\":15741:15889   */\n    tag_249:\n        /* \"#utility.yul\":15843:15854   */\n      0x00\n        /* \"#utility.yul\":15880:15883   */\n      dup2\n        /* \"#utility.yul\":15865:15883   */\n      swap1\n      pop\n        /* \"#utility.yul\":15741:15889   */\n      swap3\n      swap2\n      pop\n      pop\n      jump\t// out\n        /* \"#utility.yul\":15895:15991   */\n    tag_206:\n        /* \"#utility.yul\":15932:15939   */\n      0x00\n        /* \"#utility.yul\":15961:15985   */\n      tag_317\n        /* \"#utility.yul\":15979:15984   */\n      dup3\n        /* \"#utility.yul\":15961:15985   */\n      tag_318\n      jump\t// in\n    tag_317:\n        /* \"#utility.yul\":15950:15985   */\n      swap1\n      pop\n        /* \"#utility.yul\":15895:15991   */\n      swap2\n      swap1\n      pop\n      jump\t// out\n        /* \"#utility.yul\":15997:16087   */\n    tag_227:\n        /* \"#utility.yul\":16031:16038   */\n      0x00\n        /* \"#utility.yul\":16074:16079   */\n      dup2\n        /* \"#utility.yul\":16067:16080   */\n      iszero\n        /* \"#utility.yul\":16060:16081   */\n      iszero\n        /* \"#utility.yul\":16049:16081   */\n      swap1\n      pop\n        /* \"#utility.yul\":15997:16087   */\n      swap2\n      swap1\n      pop\n      jump\t// out\n        /* \"#utility.yul\":16093:16219   */\n    tag_318:\n        /* \"#utility.yul\":16130:16137   */\n      0x00\n        /* \"#utility.yul\":16170:16212   */\n      0xffffffffffffffffffffffffffffffffffffffff\n        /* \"#utility.yul\":16163:16168   */\n      dup3\n        /* \"#utility.yul\":16159:16213   */\n      and\n        /* \"#utility.yul\":16148:16213   */\n      swap1\n      pop\n        /* \"#utility.yul\":16093:16219   */\n      swap2\n      swap1\n      pop\n      jump\t// out\n        /* \"#utility.yul\":16225:16302   */\n    tag_265:\n        /* \"#utility.yul\":16262:16269   */\n      0x00\n        /* \"#utility.yul\":16291:16296   */\n      dup2\n        /* \"#utility.yul\":16280:16296   */\n      swap1\n      pop\n        /* \"#utility.yul\":16225:16302   */\n      swap2\n      swap1\n      pop\n      jump\t// out\n        /* \"#utility.yul\":16308:16462   */\n    tag_131:\n        /* \"#utility.yul\":16392:16398   */\n      dup3\n        /* \"#utility.yul\":16387:16390   */\n      dup2\n        /* \"#utility.yul\":16382:16385   */\n      dup4\n        /* \"#utility.yul\":16369:16399   */\n      calldatacopy\n        /* \"#utility.yul\":16454:16455   */\n      0x00\n        /* \"#utility.yul\":16445:16451   */\n      dup4\n        /* \"#utility.yul\":16440:16443   */\n      dup4\n        /* \"#utility.yul\":16436:16452   */\n      add\n        /* \"#utility.yul\":16429:16456   */\n      mstore\n        /* \"#utility.yul\":16308:16462   */\n      pop\n      pop\n      pop\n      jump\t// out\n        /* \"#utility.yul\":16468:16775   */\n    tag_235:\n        /* \"#utility.yul\":16536:16537   */\n      0x00\n        /* \"#utility.yul\":16546:16659   */\n    tag_324:\n        /* \"#utility.yul\":16560:16566   */\n      dup4\n        /* \"#utility.yul\":16557:16558   */\n      dup2\n        /* \"#utility.yul\":16554:16567   */\n      lt\n        /* \"#utility.yul\":16546:16659   */\n      iszero\n      tag_326\n      jumpi\n        /* \"#utility.yul\":16645:16646   */\n      dup1\n        /* \"#utility.yul\":16640:16643   */\n      dup3\n        /* \"#utility.yul\":16636:16647   */\n      add\n        /* \"#utility.yul\":16630:16648   */\n      mload\n        /* \"#utility.yul\":16626:16627   */\n      dup2\n        /* \"#utility.yul\":16621:16624   */\n      dup5\n        /* \"#utility.yul\":16617:16628   */\n      add\n        /* \"#utility.yul\":16610:16649   */\n      mstore\n        /* \"#utility.yul\":16582:16584   */\n      0x20\n        /* \"#utility.yul\":16579:16580   */\n      dup2\n        /* \"#utility.yul\":16575:16585   */\n      add\n        /* \"#utility.yul\":16570:16585   */\n      swap1\n      pop\n        /* \"#utility.yul\":16546:16659   */\n      jump(tag_324)\n    tag_326:\n        /* \"#utility.yul\":16677:16683   */\n      dup4\n        /* \"#utility.yul\":16674:16675   */\n      dup2\n        /* \"#utility.yul\":16671:16684   */\n      gt\n        /* \"#utility.yul\":16668:16769   */\n      iszero\n      tag_327\n      jumpi\n        /* \"#utility.yul\":16757:16758   */\n      0x00\n        /* \"#utility.yul\":16748:16754   */\n      dup5\n        /* \"#utility.yul\":16743:16746   */\n      dup5\n        /* \"#utility.yul\":16739:16755   */\n      add\n        /* \"#utility.yul\":16732:16759   */\n      mstore\n        /* \"#utility.yul\":16668:16769   */\n    tag_327:\n        /* \"#utility.yul\":16517:16775   */\n      pop\n        /* \"#utility.yul\":16468:16775   */\n      pop\n      pop\n      pop\n      jump\t// out\n        /* \"#utility.yul\":16781:17062   */\n    tag_297:\n        /* \"#utility.yul\":16864:16891   */\n      tag_329\n        /* \"#utility.yul\":16886:16890   */\n      dup3\n        /* \"#utility.yul\":16864:16891   */\n      tag_237\n      jump\t// in\n    tag_329:\n        /* \"#utility.yul\":16856:16862   */\n      dup2\n        /* \"#utility.yul\":16852:16892   */\n      add\n        /* \"#utility.yul\":16994:17000   */\n      dup2\n        /* \"#utility.yul\":16982:16992   */\n      dup2\n        /* \"#utility.yul\":16979:17001   */\n      lt\n        /* \"#utility.yul\":16958:16976   */\n      0xffffffffffffffff\n        /* \"#utility.yul\":16946:16956   */\n      dup3\n        /* \"#utility.yul\":16943:16977   */\n      gt\n        /* \"#utility.yul\":16940:17002   */\n      or\n        /* \"#utility.yul\":16937:17025   */\n      iszero\n      tag_330\n      jumpi\n        /* \"#utility.yul\":17005:17023   */\n      tag_331\n      tag_84\n      jump\t// in\n    tag_331:\n        /* \"#utility.yul\":16937:17025   */\n    tag_330:\n        /* \"#utility.yul\":17045:17055   */\n      dup1\n        /* \"#utility.yul\":17041:17043   */\n      0x40\n        /* \"#utility.yul\":17034:17056   */\n      mstore\n        /* \"#utility.yul\":16824:17062   */\n      pop\n        /* \"#utility.yul\":16781:17062   */\n      pop\n      pop\n      jump\t// out\n        /* \"#utility.yul\":17068:17248   */\n    tag_89:\n        /* \"#utility.yul\":17116:17193   */\n      0x4e487b7100000000000000000000000000000000000000000000000000000000\n        /* \"#utility.yul\":17113:17114   */\n      0x00\n        /* \"#utility.yul\":17106:17194   */\n      mstore\n        /* \"#utility.yul\":17213:17217   */\n      0x32\n        /* \"#utility.yul\":17210:17211   */\n      0x04\n        /* \"#utility.yul\":17203:17218   */\n      mstore\n        /* \"#utility.yul\":17237:17241   */\n      0x24\n        /* \"#utility.yul\":17234:17235   */\n      0x00\n        /* \"#utility.yul\":17227:17242   */\n      revert\n        /* \"#utility.yul\":17254:17434   */\n    tag_84:\n        /* \"#utility.yul\":17302:17379   */\n      0x4e487b7100000000000000000000000000000000000000000000000000000000\n        /* \"#utility.yul\":17299:17300   */\n      0x00\n        /* \"#utility.yul\":17292:17380   */\n      mstore\n        /* \"#utility.yul\":17399:17403   */\n      0x41\n        /* \"#utility.yul\":17396:17397   */\n      0x04\n        /* \"#utility.yul\":17389:17404   */\n      mstore\n        /* \"#utility.yul\":17423:17427   */\n      0x24\n        /* \"#utility.yul\":17420:17421   */\n      0x00\n        /* \"#utility.yul\":17413:17428   */\n      revert\n        /* \"#utility.yul\":17440:17557   */\n    tag_140:\n        /* \"#utility.yul\":17549:17550   */\n      0x00\n        /* \"#utility.yul\":17546:17547   */\n      dup1\n        /* \"#utility.yul\":17539:17551   */\n      revert\n        /* \"#utility.yul\":17563:17680   */\n    tag_116:\n        /* \"#utility.yul\":17672:17673   */\n      0x00\n        /* \"#utility.yul\":17669:17670   */\n      dup1\n        /* \"#utility.yul\":17662:17674   */\n      revert\n        /* \"#utility.yul\":17686:17803   */\n    tag_129:\n        /* \"#utility.yul\":17795:17796   */\n      0x00\n        /* \"#utility.yul\":17792:17793   */\n      dup1\n        /* \"#utility.yul\":17785:17797   */\n      revert\n        /* \"#utility.yul\":17809:17926   */\n    tag_163:\n        /* \"#utility.yul\":17918:17919   */\n      0x00\n        /* \"#utility.yul\":17915:17916   */\n      dup1\n        /* \"#utility.yul\":17908:17920   */\n      revert\n        /* \"#utility.yul\":17932:18049   */\n    tag_160:\n        /* \"#utility.yul\":18041:18042   */\n      0x00\n        /* \"#utility.yul\":18038:18039   */\n      dup1\n        /* \"#utility.yul\":18031:18043   */\n      revert\n        /* \"#utility.yul\":18055:18157   */\n    tag_237:\n        /* \"#utility.yul\":18096:18102   */\n      0x00\n        /* \"#utility.yul\":18147:18149   */\n      0x1f\n        /* \"#utility.yul\":18143:18150   */\n      not\n        /* \"#utility.yul\":18138:18140   */\n      0x1f\n        /* \"#utility.yul\":18131:18136   */\n      dup4\n        /* \"#utility.yul\":18127:18141   */\n      add\n        /* \"#utility.yul\":18123:18151   */\n      and\n        /* \"#utility.yul\":18113:18151   */\n      swap1\n      pop\n        /* \"#utility.yul\":18055:18157   */\n      swap2\n      swap1\n      pop\n      jump\t// out\n        /* \"#utility.yul\":18163:18406   */\n    tag_256:\n        /* \"#utility.yul\":18303:18337   */\n      0x455243323020636f6e747261637420686173206e6f7420676976656e20706572\n        /* \"#utility.yul\":18299:18300   */\n      0x00\n        /* \"#utility.yul\":18291:18297   */\n      dup3\n        /* \"#utility.yul\":18287:18301   */\n      add\n        /* \"#utility.yul\":18280:18338   */\n      mstore\n        /* \"#utility.yul\":18372:18398   */\n      0x6d697373696f6e20746f207468697320616464726573732e0000000000000000\n        /* \"#utility.yul\":18367:18369   */\n      0x20\n        /* \"#utility.yul\":18359:18365   */\n      dup3\n        /* \"#utility.yul\":18355:18370   */\n      add\n        /* \"#utility.yul\":18348:18399   */\n      mstore\n        /* \"#utility.yul\":18163:18406   */\n      pop\n      jump\t// out\n        /* \"#utility.yul\":18412:18568   */\n    tag_261:\n        /* \"#utility.yul\":18552:18560   */\n      0x574d415449430000000000000000000000000000000000000000000000000000\n        /* \"#utility.yul\":18548:18549   */\n      0x00\n        /* \"#utility.yul\":18540:18546   */\n      dup3\n        /* \"#utility.yul\":18536:18550   */\n      add\n        /* \"#utility.yul\":18529:18561   */\n      mstore\n        /* \"#utility.yul\":18412:18568   */\n      pop\n      jump\t// out\n        /* \"#utility.yul\":18574:18696   */\n    tag_135:\n        /* \"#utility.yul\":18647:18671   */\n      tag_343\n        /* \"#utility.yul\":18665:18670   */\n      dup2\n        /* \"#utility.yul\":18647:18671   */\n      tag_206\n      jump\t// in\n    tag_343:\n        /* \"#utility.yul\":18640:18645   */\n      dup2\n        /* \"#utility.yul\":18637:18672   */\n      eq\n        /* \"#utility.yul\":18627:18690   */\n      tag_344\n      jumpi\n        /* \"#utility.yul\":18686:18687   */\n      0x00\n        /* \"#utility.yul\":18683:18684   */\n      dup1\n        /* \"#utility.yul\":18676:18688   */\n      revert\n        /* \"#utility.yul\":18627:18690   */\n    tag_344:\n        /* \"#utility.yul\":18574:18696   */\n      pop\n      jump\t// out\n        /* \"#utility.yul\":18702:18818   */\n    tag_145:\n        /* \"#utility.yul\":18772:18793   */\n      tag_346\n        /* \"#utility.yul\":18787:18792   */\n      dup2\n        /* \"#utility.yul\":18772:18793   */\n      tag_227\n      jump\t// in\n    tag_346:\n        /* \"#utility.yul\":18765:18770   */\n      dup2\n        /* \"#utility.yul\":18762:18794   */\n      eq\n        /* \"#utility.yul\":18752:18812   */\n      tag_347\n      jumpi\n        /* \"#utility.yul\":18808:18809   */\n      0x00\n        /* \"#utility.yul\":18805:18806   */\n      dup1\n        /* \"#utility.yul\":18798:18810   */\n      revert\n        /* \"#utility.yul\":18752:18812   */\n    tag_347:\n        /* \"#utility.yul\":18702:18818   */\n      pop\n      jump\t// out\n        /* \"#utility.yul\":18824:18946   */\n    tag_154:\n        /* \"#utility.yul\":18897:18921   */\n      tag_349\n        /* \"#utility.yul\":18915:18920   */\n      dup2\n        /* \"#utility.yul\":18897:18921   */\n      tag_265\n      jump\t// in\n    tag_349:\n        /* \"#utility.yul\":18890:18895   */\n      dup2\n        /* \"#utility.yul\":18887:18922   */\n      eq\n        /* \"#utility.yul\":18877:18940   */\n      tag_350\n      jumpi\n        /* \"#utility.yul\":18936:18937   */\n      0x00\n        /* \"#utility.yul\":18933:18934   */\n      dup1\n        /* \"#utility.yul\":18926:18938   */\n      revert\n        /* \"#utility.yul\":18877:18940   */\n    tag_350:\n        /* \"#utility.yul\":18824:18946   */\n      pop\n      jump\t// out\n\n    auxdata: 0xa264697066735822122076c1126fd8468aebf88271704a0ef3d05d7c7f3bdc67863a0a1ef676afb6d85864736f6c63430008070033\n}\n",
				"bytecode": {
					"linkReferences": {},
					"object": "60806040523480156200001157600080fd5b5033600160006101000a81548173ffffffffffffffffffffffffffffffffffffffff021916908373ffffffffffffffffffffffffffffffffffffffff1602179055506040518060400160405280738f3cf7ad23cd3cadbd9735aff958023239c6a06373ffffffffffffffffffffffffffffffffffffffff16815260200160128152506000604051620000a390620006a4565b908152602001604051809103902060008201518160000160006101000a81548173ffffffffffffffffffffffffffffffffffffffff021916908373ffffffffffffffffffffffffffffffffffffffff160217905550602082015181600101559050506040518060400160405280737ceb23fd6bc0add59e62ac25578270cff1b9f61973ffffffffffffffffffffffffffffffffffffffff16815260200160128152506000604051620001559062000648565b908152602001604051809103902060008201518160000160006101000a81548173ffffffffffffffffffffffffffffffffffffffff021916908373ffffffffffffffffffffffffffffffffffffffff160217905550602082015181600101559050506040518060400160405280730d500b1d8e8ef31e21c99d1db9a6444d3adf127073ffffffffffffffffffffffffffffffffffffffff168152602001601281525060006040516200020790620006d2565b908152602001604051809103902060008201518160000160006101000a81548173ffffffffffffffffffffffffffffffffffffffff021916908373ffffffffffffffffffffffffffffffffffffffff160217905550602082015181600101559050506040518060400160405280732791bca1f2de4661ed88a30c99a7a9449aa8417473ffffffffffffffffffffffffffffffffffffffff16815260200160068152506000604051620002b990620006bb565b908152602001604051809103902060008201518160000160006101000a81548173ffffffffffffffffffffffffffffffffffffffff021916908373ffffffffffffffffffffffffffffffffffffffff16021790555060208201518160010155905050604051806040016040528073c2132d05d31c914a87c6611c10748aeb04b58e8f73ffffffffffffffffffffffffffffffffffffffff168152602001600681525060006040516200036b9062000676565b908152602001604051809103902060008201518160000160006101000a81548173ffffffffffffffffffffffffffffffffffffffff021916908373ffffffffffffffffffffffffffffffffffffffff160217905550602082015181600101559050506040518060400160405280731bfd67037b42cf73acf2047067bd4f2c47d9bfd673ffffffffffffffffffffffffffffffffffffffff168152602001600881525060006040516200041d906200068d565b908152602001604051809103902060008201518160000160006101000a81548173ffffffffffffffffffffffffffffffffffffffff021916908373ffffffffffffffffffffffffffffffffffffffff16021790555060208201518160010155905050604051806040016040528073f28164a485b0b2c90639e47b0f377b4a438a16b173ffffffffffffffffffffffffffffffffffffffff16815260200160128152506000604051620004cf906200065f565b908152602001604051809103902060008201518160000160006101000a81548173ffffffffffffffffffffffffffffffffffffffff021916908373ffffffffffffffffffffffffffffffffffffffff1602179055506020820151816001015590505062000813565b600062000546600483620006e9565b91506200055382620006f4565b600482019050919050565b60006200056d600683620006e9565b91506200057a826200071d565b600682019050919050565b600062000594600483620006e9565b9150620005a18262000746565b600482019050919050565b6000620005bb600483620006e9565b9150620005c8826200076f565b600482019050919050565b6000620005e2600383620006e9565b9150620005ef8262000798565b600382019050919050565b600062000609600483620006e9565b91506200061682620007c1565b600482019050919050565b600062000630600683620006e9565b91506200063d82620007ea565b600682019050919050565b6000620006558262000537565b9150819050919050565b60006200066c826200055e565b9150819050919050565b6000620006838262000585565b9150819050919050565b60006200069a82620005ac565b9150819050919050565b6000620006b182620005d3565b9150819050919050565b6000620006c882620005fa565b9150819050919050565b6000620006df8262000621565b9150819050919050565b600081905092915050565b7f5745544800000000000000000000000000000000000000000000000000000000600082015250565b7f44515549434b0000000000000000000000000000000000000000000000000000600082015250565b7f5553445400000000000000000000000000000000000000000000000000000000600082015250565b7f5742544300000000000000000000000000000000000000000000000000000000600082015250565b7f4441490000000000000000000000000000000000000000000000000000000000600082015250565b7f5553444300000000000000000000000000000000000000000000000000000000600082015250565b7f574d415449430000000000000000000000000000000000000000000000000000600082015250565b6113c380620008236000396000f3fe6080604052600436106100435760003560e01c80637552acd61461004f5780637b60eb23146100785780639bc97dee14610082578063f809a2e6146100ab5761004a565b3661004a57005b600080fd5b34801561005b57600080fd5b5061007660048036038101906100719190610bd0565b6100d4565b005b6100806102c0565b005b34801561008e57600080fd5b506100a960048036038101906100a49190610c3f565b6104fd565b005b3480156100b757600080fd5b506100d260048036038101906100cd9190610cc8565b6106e8565b005b6000836040516100e49190610f25565b908152602001604051809103902060000160009054906101000a900473ffffffffffffffffffffffffffffffffffffffff16338383808473ffffffffffffffffffffffffffffffffffffffff1663dd62ed3e85856040518363ffffffff1660e01b8152600401610155929190610f51565b60206040518083038186803b15801561016d57600080fd5b505afa158015610181573d6000803e3d6000fd5b505050506040513d601f19601f820116820180604052508101906101a59190610c9b565b10156101e6576040517f08c379a00000000000000000000000000000000000000000000000000000000081526004016101dd9061100a565b60405180910390fd5b6000876040516101f69190610f25565b908152602001604051809103902060000160009054906101000a900473ffffffffffffffffffffffffffffffffffffffff1673ffffffffffffffffffffffffffffffffffffffff166323b872dd3388886040518463ffffffff1660e01b815260040161026493929190610f7a565b602060405180830381600087803b15801561027e57600080fd5b505af1158015610292573d6000803e3d6000fd5b505050506040513d601f19601f820116820180604052508101906102b69190610ba3565b5050505050505050565b60008060006040516102d190610f3c565b908152602001604051809103902060000160009054906101000a900473ffffffffffffffffffffffffffffffffffffffff1673ffffffffffffffffffffffffffffffffffffffff16346040516024016040516020818303038152906040527fc5d24601000000000000000000000000000000000000000000000000000000007bffffffffffffffffffffffffffffffffffffffffffffffffffffffff19166020820180517bffffffffffffffffffffffffffffffffffffffffffffffffffffffff83818316178352505050506040516103aa9190610f0e565b60006040518083038185875af1925050503d80600081146103e7576040519150601f19603f3d011682016040523d82523d6000602084013e6103ec565b606091505b509150915060006040516103ff90610f3c565b908152602001604051809103902060000160009054906101000a900473ffffffffffffffffffffffffffffffffffffffff1673ffffffffffffffffffffffffffffffffffffffff166323b872dd3033346040518463ffffffff1660e01b815260040161046d93929190610f7a565b602060405180830381600087803b15801561048757600080fd5b505af115801561049b573d6000803e3d6000fd5b505050506040513d601f19601f820116820180604052508101906104bf9190610ba3565b507f13848c3e38f8886f3f5d2ad9dff80d8092c2bbb8efd5b887a99c2c6cfc09ac2a82826040516104f1929190610fda565b60405180910390a15050565b60008260405161050d9190610f25565b908152602001604051809103902060000160009054906101000a900473ffffffffffffffffffffffffffffffffffffffff16333083808473ffffffffffffffffffffffffffffffffffffffff1663dd62ed3e85856040518363ffffffff1660e01b815260040161057e929190610f51565b60206040518083038186803b15801561059657600080fd5b505afa1580156105aa573d6000803e3d6000fd5b505050506040513d601f19601f820116820180604052508101906105ce9190610c9b565b101561060f576040517f08c379a00000000000000000000000000000000000000000000000000000000081526004016106069061100a565b60405180910390fd5b60008660405161061f9190610f25565b908152602001604051809103902060000160009054906101000a900473ffffffffffffffffffffffffffffffffffffffff1673ffffffffffffffffffffffffffffffffffffffff166323b872dd3330886040518463ffffffff1660e01b815260040161068d93929190610f7a565b602060405180830381600087803b1580156106a757600080fd5b505af11580156106bb573d6000803e3d6000fd5b505050506040513d601f19601f820116820180604052508101906106df9190610ba3565b50505050505050565b6106f283866104fd565b6000600267ffffffffffffffff81111561070f5761070e611277565b5b60405190808252806020026020018201604052801561073d5781602001602082028036833780820191505090505b5090506000846040516107509190610f25565b908152602001604051809103902060000160009054906101000a900473ffffffffffffffffffffffffffffffffffffffff168160008151811061079657610795611248565b5b602002602001019073ffffffffffffffffffffffffffffffffffffffff16908173ffffffffffffffffffffffffffffffffffffffff16815250506000836040516107e09190610f25565b908152602001604051809103902060000160009054906101000a900473ffffffffffffffffffffffffffffffffffffffff168160018151811061082657610825611248565b5b602002602001019073ffffffffffffffffffffffffffffffffffffffff16908173ffffffffffffffffffffffffffffffffffffffff16815250506000846040516108709190610f25565b908152602001604051809103902060000160009054906101000a900473ffffffffffffffffffffffffffffffffffffffff1673ffffffffffffffffffffffffffffffffffffffff1663095ea7b373a5e0829caced8ffdd4de3c43696c57f7d7a678ff886040518363ffffffff1660e01b81526004016108f0929190610fb1565b602060405180830381600087803b15801561090a57600080fd5b505af115801561091e573d6000803e3d6000fd5b505050506040513d601f19601f820116820180604052508101906109429190610ba3565b5073a5e0829caced8ffdd4de3c43696c57f7d7a678ff73ffffffffffffffffffffffffffffffffffffffff166338ed173987878433876040518663ffffffff1660e01b815260040161099895949392919061102a565b600060405180830381600087803b1580156109b257600080fd5b505af11580156109c6573d6000803e3d6000fd5b505050506040513d6000823e3d601f19601f820116820180604052508101906109ef9190610b5a565b50505050505050565b6000610a0b610a06846110a9565b611084565b90508083825260208201905082856020860282011115610a2e57610a2d6112ab565b5b60005b85811015610a5e5781610a448882610b45565b845260208401935060208301925050600181019050610a31565b5050509392505050565b6000610a7b610a76846110d5565b611084565b905082815260208101848484011115610a9757610a966112b0565b5b610aa28482856111d5565b509392505050565b600081359050610ab981611348565b92915050565b600082601f830112610ad457610ad36112a6565b5b8151610ae48482602086016109f8565b91505092915050565b600081519050610afc8161135f565b92915050565b600082601f830112610b1757610b166112a6565b5b8135610b27848260208601610a68565b91505092915050565b600081359050610b3f81611376565b92915050565b600081519050610b5481611376565b92915050565b600060208284031215610b7057610b6f6112ba565b5b600082015167ffffffffffffffff811115610b8e57610b8d6112b5565b5b610b9a84828501610abf565b91505092915050565b600060208284031215610bb957610bb86112ba565b5b6000610bc784828501610aed565b91505092915050565b600080600060608486031215610be957610be86112ba565b5b600084013567ffffffffffffffff811115610c0757610c066112b5565b5b610c1386828701610b02565b9350506020610c2486828701610aaa565b9250506040610c3586828701610b30565b9150509250925092565b60008060408385031215610c5657610c556112ba565b5b600083013567ffffffffffffffff811115610c7457610c736112b5565b5b610c8085828601610b02565b9250506020610c9185828601610b30565b9150509250929050565b600060208284031215610cb157610cb06112ba565b5b6000610cbf84828501610b45565b91505092915050565b600080600080600060a08688031215610ce457610ce36112ba565b5b6000610cf288828901610b30565b9550506020610d0388828901610b30565b945050604086013567ffffffffffffffff811115610d2457610d236112b5565b5b610d3088828901610b02565b935050606086013567ffffffffffffffff811115610d5157610d506112b5565b5b610d5d88828901610b02565b9250506080610d6e88828901610b30565b9150509295509295909350565b6000610d878383610d93565b60208301905092915050565b610d9c8161118d565b82525050565b610dab8161118d565b82525050565b6000610dbc82611116565b610dc68185611144565b9350610dd183611106565b8060005b83811015610e02578151610de98882610d7b565b9750610df483611137565b925050600181019050610dd5565b5085935050505092915050565b610e188161119f565b82525050565b6000610e2982611121565b610e338185611155565b9350610e438185602086016111e4565b610e4c816112bf565b840191505092915050565b6000610e6282611121565b610e6c8185611166565b9350610e7c8185602086016111e4565b80840191505092915050565b6000610e938261112c565b610e9d8185611182565b9350610ead8185602086016111e4565b80840191505092915050565b6000610ec6603883611171565b9150610ed1826112d0565b604082019050919050565b6000610ee9600683611182565b9150610ef48261131f565b600682019050919050565b610f08816111cb565b82525050565b6000610f1a8284610e57565b915081905092915050565b6000610f318284610e88565b915081905092915050565b6000610f4782610edc565b9150819050919050565b6000604082019050610f666000830185610da2565b610f736020830184610da2565b9392505050565b6000606082019050610f8f6000830186610da2565b610f9c6020830185610da2565b610fa96040830184610eff565b949350505050565b6000604082019050610fc66000830185610da2565b610fd36020830184610eff565b9392505050565b6000604082019050610fef6000830185610e0f565b81810360208301526110018184610e1e565b90509392505050565b6000602082019050818103600083015261102381610eb9565b9050919050565b600060a08201905061103f6000830188610eff565b61104c6020830187610eff565b818103604083015261105e8186610db1565b905061106d6060830185610da2565b61107a6080830184610eff565b9695505050505050565b600061108e61109f565b905061109a8282611217565b919050565b6000604051905090565b600067ffffffffffffffff8211156110c4576110c3611277565b5b602082029050602081019050919050565b600067ffffffffffffffff8211156110f0576110ef611277565b5b6110f9826112bf565b9050602081019050919050565b6000819050602082019050919050565b600081519050919050565b600081519050919050565b600081519050919050565b6000602082019050919050565b600082825260208201905092915050565b600082825260208201905092915050565b600081905092915050565b600082825260208201905092915050565b600081905092915050565b6000611198826111ab565b9050919050565b60008115159050919050565b600073ffffffffffffffffffffffffffffffffffffffff82169050919050565b6000819050919050565b82818337600083830152505050565b60005b838110156112025780820151818401526020810190506111e7565b83811115611211576000848401525b50505050565b611220826112bf565b810181811067ffffffffffffffff8211171561123f5761123e611277565b5b80604052505050565b7f4e487b7100000000000000000000000000000000000000000000000000000000600052603260045260246000fd5b7f4e487b7100000000000000000000000000000000000000000000000000000000600052604160045260246000fd5b600080fd5b600080fd5b600080fd5b600080fd5b600080fd5b6000601f19601f8301169050919050565b7f455243323020636f6e747261637420686173206e6f7420676976656e2070657260008201527f6d697373696f6e20746f207468697320616464726573732e0000000000000000602082015250565b7f574d415449430000000000000000000000000000000000000000000000000000600082015250565b6113518161118d565b811461135c57600080fd5b50565b6113688161119f565b811461137357600080fd5b50565b61137f816111cb565b811461138a57600080fd5b5056fea264697066735822122076c1126fd8468aebf88271704a0ef3d05d7c7f3bdc67863a0a1ef676afb6d85864736f6c63430008070033",
					"opcodes": "PUSH1 0x80 PUSH1 0x40 MSTORE CALLVALUE DUP1 ISZERO PUSH3 0x11 JUMPI PUSH1 0x0 DUP1 REVERT JUMPDEST POP CALLER PUSH1 0x1 PUSH1 0x0 PUSH2 0x100 EXP DUP2 SLOAD DUP2 PUSH20 0xFFFFFFFFFFFFFFFFFFFFFFFFFFFFFFFFFFFFFFFF MUL NOT AND SWAP1 DUP4 PUSH20 0xFFFFFFFFFFFFFFFFFFFFFFFFFFFFFFFFFFFFFFFF AND MUL OR SWAP1 SSTORE POP PUSH1 0x40 MLOAD DUP1 PUSH1 0x40 ADD PUSH1 0x40 MSTORE DUP1 PUSH20 0x8F3CF7AD23CD3CADBD9735AFF958023239C6A063 PUSH20 0xFFFFFFFFFFFFFFFFFFFFFFFFFFFFFFFFFFFFFFFF AND DUP2 MSTORE PUSH1 0x20 ADD PUSH1 0x12 DUP2 MSTORE POP PUSH1 0x0 PUSH1 0x40 MLOAD PUSH3 0xA3 SWAP1 PUSH3 0x6A4 JUMP JUMPDEST SWAP1 DUP2 MSTORE PUSH1 0x20 ADD PUSH1 0x40 MLOAD DUP1 SWAP2 SUB SWAP1 KECCAK256 PUSH1 0x0 DUP3 ADD MLOAD DUP2 PUSH1 0x0 ADD PUSH1 0x0 PUSH2 0x100 EXP DUP2 SLOAD DUP2 PUSH20 0xFFFFFFFFFFFFFFFFFFFFFFFFFFFFFFFFFFFFFFFF MUL NOT AND SWAP1 DUP4 PUSH20 0xFFFFFFFFFFFFFFFFFFFFFFFFFFFFFFFFFFFFFFFF AND MUL OR SWAP1 SSTORE POP PUSH1 0x20 DUP3 ADD MLOAD DUP2 PUSH1 0x1 ADD SSTORE SWAP1 POP POP PUSH1 0x40 MLOAD DUP1 PUSH1 0x40 ADD PUSH1 0x40 MSTORE DUP1 PUSH20 0x7CEB23FD6BC0ADD59E62AC25578270CFF1B9F619 PUSH20 0xFFFFFFFFFFFFFFFFFFFFFFFFFFFFFFFFFFFFFFFF AND DUP2 MSTORE PUSH1 0x20 ADD PUSH1 0x12 DUP2 MSTORE POP PUSH1 0x0 PUSH1 0x40 MLOAD PUSH3 0x155 SWAP1 PUSH3 0x648 JUMP JUMPDEST SWAP1 DUP2 MSTORE PUSH1 0x20 ADD PUSH1 0x40 MLOAD DUP1 SWAP2 SUB SWAP1 KECCAK256 PUSH1 0x0 DUP3 ADD MLOAD DUP2 PUSH1 0x0 ADD PUSH1 0x0 PUSH2 0x100 EXP DUP2 SLOAD DUP2 PUSH20 0xFFFFFFFFFFFFFFFFFFFFFFFFFFFFFFFFFFFFFFFF MUL NOT AND SWAP1 DUP4 PUSH20 0xFFFFFFFFFFFFFFFFFFFFFFFFFFFFFFFFFFFFFFFF AND MUL OR SWAP1 SSTORE POP PUSH1 0x20 DUP3 ADD MLOAD DUP2 PUSH1 0x1 ADD SSTORE SWAP1 POP POP PUSH1 0x40 MLOAD DUP1 PUSH1 0x40 ADD PUSH1 0x40 MSTORE DUP1 PUSH20 0xD500B1D8E8EF31E21C99D1DB9A6444D3ADF1270 PUSH20 0xFFFFFFFFFFFFFFFFFFFFFFFFFFFFFFFFFFFFFFFF AND DUP2 MSTORE PUSH1 0x20 ADD PUSH1 0x12 DUP2 MSTORE POP PUSH1 0x0 PUSH1 0x40 MLOAD PUSH3 0x207 SWAP1 PUSH3 0x6D2 JUMP JUMPDEST SWAP1 DUP2 MSTORE PUSH1 0x20 ADD PUSH1 0x40 MLOAD DUP1 SWAP2 SUB SWAP1 KECCAK256 PUSH1 0x0 DUP3 ADD MLOAD DUP2 PUSH1 0x0 ADD PUSH1 0x0 PUSH2 0x100 EXP DUP2 SLOAD DUP2 PUSH20 0xFFFFFFFFFFFFFFFFFFFFFFFFFFFFFFFFFFFFFFFF MUL NOT AND SWAP1 DUP4 PUSH20 0xFFFFFFFFFFFFFFFFFFFFFFFFFFFFFFFFFFFFFFFF AND MUL OR SWAP1 SSTORE POP PUSH1 0x20 DUP3 ADD MLOAD DUP2 PUSH1 0x1 ADD SSTORE SWAP1 POP POP PUSH1 0x40 MLOAD DUP1 PUSH1 0x40 ADD PUSH1 0x40 MSTORE DUP1 PUSH20 0x2791BCA1F2DE4661ED88A30C99A7A9449AA84174 PUSH20 0xFFFFFFFFFFFFFFFFFFFFFFFFFFFFFFFFFFFFFFFF AND DUP2 MSTORE PUSH1 0x20 ADD PUSH1 0x6 DUP2 MSTORE POP PUSH1 0x0 PUSH1 0x40 MLOAD PUSH3 0x2B9 SWAP1 PUSH3 0x6BB JUMP JUMPDEST SWAP1 DUP2 MSTORE PUSH1 0x20 ADD PUSH1 0x40 MLOAD DUP1 SWAP2 SUB SWAP1 KECCAK256 PUSH1 0x0 DUP3 ADD MLOAD DUP2 PUSH1 0x0 ADD PUSH1 0x0 PUSH2 0x100 EXP DUP2 SLOAD DUP2 PUSH20 0xFFFFFFFFFFFFFFFFFFFFFFFFFFFFFFFFFFFFFFFF MUL NOT AND SWAP1 DUP4 PUSH20 0xFFFFFFFFFFFFFFFFFFFFFFFFFFFFFFFFFFFFFFFF AND MUL OR SWAP1 SSTORE POP PUSH1 0x20 DUP3 ADD MLOAD DUP2 PUSH1 0x1 ADD SSTORE SWAP1 POP POP PUSH1 0x40 MLOAD DUP1 PUSH1 0x40 ADD PUSH1 0x40 MSTORE DUP1 PUSH20 0xC2132D05D31C914A87C6611C10748AEB04B58E8F PUSH20 0xFFFFFFFFFFFFFFFFFFFFFFFFFFFFFFFFFFFFFFFF AND DUP2 MSTORE PUSH1 0x20 ADD PUSH1 0x6 DUP2 MSTORE POP PUSH1 0x0 PUSH1 0x40 MLOAD PUSH3 0x36B SWAP1 PUSH3 0x676 JUMP JUMPDEST SWAP1 DUP2 MSTORE PUSH1 0x20 ADD PUSH1 0x40 MLOAD DUP1 SWAP2 SUB SWAP1 KECCAK256 PUSH1 0x0 DUP3 ADD MLOAD DUP2 PUSH1 0x0 ADD PUSH1 0x0 PUSH2 0x100 EXP DUP2 SLOAD DUP2 PUSH20 0xFFFFFFFFFFFFFFFFFFFFFFFFFFFFFFFFFFFFFFFF MUL NOT AND SWAP1 DUP4 PUSH20 0xFFFFFFFFFFFFFFFFFFFFFFFFFFFFFFFFFFFFFFFF AND MUL OR SWAP1 SSTORE POP PUSH1 0x20 DUP3 ADD MLOAD DUP2 PUSH1 0x1 ADD SSTORE SWAP1 POP POP PUSH1 0x40 MLOAD DUP1 PUSH1 0x40 ADD PUSH1 0x40 MSTORE DUP1 PUSH20 0x1BFD67037B42CF73ACF2047067BD4F2C47D9BFD6 PUSH20 0xFFFFFFFFFFFFFFFFFFFFFFFFFFFFFFFFFFFFFFFF AND DUP2 MSTORE PUSH1 0x20 ADD PUSH1 0x8 DUP2 MSTORE POP PUSH1 0x0 PUSH1 0x40 MLOAD PUSH3 0x41D SWAP1 PUSH3 0x68D JUMP JUMPDEST SWAP1 DUP2 MSTORE PUSH1 0x20 ADD PUSH1 0x40 MLOAD DUP1 SWAP2 SUB SWAP1 KECCAK256 PUSH1 0x0 DUP3 ADD MLOAD DUP2 PUSH1 0x0 ADD PUSH1 0x0 PUSH2 0x100 EXP DUP2 SLOAD DUP2 PUSH20 0xFFFFFFFFFFFFFFFFFFFFFFFFFFFFFFFFFFFFFFFF MUL NOT AND SWAP1 DUP4 PUSH20 0xFFFFFFFFFFFFFFFFFFFFFFFFFFFFFFFFFFFFFFFF AND MUL OR SWAP1 SSTORE POP PUSH1 0x20 DUP3 ADD MLOAD DUP2 PUSH1 0x1 ADD SSTORE SWAP1 POP POP PUSH1 0x40 MLOAD DUP1 PUSH1 0x40 ADD PUSH1 0x40 MSTORE DUP1 PUSH20 0xF28164A485B0B2C90639E47B0F377B4A438A16B1 PUSH20 0xFFFFFFFFFFFFFFFFFFFFFFFFFFFFFFFFFFFFFFFF AND DUP2 MSTORE PUSH1 0x20 ADD PUSH1 0x12 DUP2 MSTORE POP PUSH1 0x0 PUSH1 0x40 MLOAD PUSH3 0x4CF SWAP1 PUSH3 0x65F JUMP JUMPDEST SWAP1 DUP2 MSTORE PUSH1 0x20 ADD PUSH1 0x40 MLOAD DUP1 SWAP2 SUB SWAP1 KECCAK256 PUSH1 0x0 DUP3 ADD MLOAD DUP2 PUSH1 0x0 ADD PUSH1 0x0 PUSH2 0x100 EXP DUP2 SLOAD DUP2 PUSH20 0xFFFFFFFFFFFFFFFFFFFFFFFFFFFFFFFFFFFFFFFF MUL NOT AND SWAP1 DUP4 PUSH20 0xFFFFFFFFFFFFFFFFFFFFFFFFFFFFFFFFFFFFFFFF AND MUL OR SWAP1 SSTORE POP PUSH1 0x20 DUP3 ADD MLOAD DUP2 PUSH1 0x1 ADD SSTORE SWAP1 POP POP PUSH3 0x813 JUMP JUMPDEST PUSH1 0x0 PUSH3 0x546 PUSH1 0x4 DUP4 PUSH3 0x6E9 JUMP JUMPDEST SWAP2 POP PUSH3 0x553 DUP3 PUSH3 0x6F4 JUMP JUMPDEST PUSH1 0x4 DUP3 ADD SWAP1 POP SWAP2 SWAP1 POP JUMP JUMPDEST PUSH1 0x0 PUSH3 0x56D PUSH1 0x6 DUP4 PUSH3 0x6E9 JUMP JUMPDEST SWAP2 POP PUSH3 0x57A DUP3 PUSH3 0x71D JUMP JUMPDEST PUSH1 0x6 DUP3 ADD SWAP1 POP SWAP2 SWAP1 POP JUMP JUMPDEST PUSH1 0x0 PUSH3 0x594 PUSH1 0x4 DUP4 PUSH3 0x6E9 JUMP JUMPDEST SWAP2 POP PUSH3 0x5A1 DUP3 PUSH3 0x746 JUMP JUMPDEST PUSH1 0x4 DUP3 ADD SWAP1 POP SWAP2 SWAP1 POP JUMP JUMPDEST PUSH1 0x0 PUSH3 0x5BB PUSH1 0x4 DUP4 PUSH3 0x6E9 JUMP JUMPDEST SWAP2 POP PUSH3 0x5C8 DUP3 PUSH3 0x76F JUMP JUMPDEST PUSH1 0x4 DUP3 ADD SWAP1 POP SWAP2 SWAP1 POP JUMP JUMPDEST PUSH1 0x0 PUSH3 0x5E2 PUSH1 0x3 DUP4 PUSH3 0x6E9 JUMP JUMPDEST SWAP2 POP PUSH3 0x5EF DUP3 PUSH3 0x798 JUMP JUMPDEST PUSH1 0x3 DUP3 ADD SWAP1 POP SWAP2 SWAP1 POP JUMP JUMPDEST PUSH1 0x0 PUSH3 0x609 PUSH1 0x4 DUP4 PUSH3 0x6E9 JUMP JUMPDEST SWAP2 POP PUSH3 0x616 DUP3 PUSH3 0x7C1 JUMP JUMPDEST PUSH1 0x4 DUP3 ADD SWAP1 POP SWAP2 SWAP1 POP JUMP JUMPDEST PUSH1 0x0 PUSH3 0x630 PUSH1 0x6 DUP4 PUSH3 0x6E9 JUMP JUMPDEST SWAP2 POP PUSH3 0x63D DUP3 PUSH3 0x7EA JUMP JUMPDEST PUSH1 0x6 DUP3 ADD SWAP1 POP SWAP2 SWAP1 POP JUMP JUMPDEST PUSH1 0x0 PUSH3 0x655 DUP3 PUSH3 0x537 JUMP JUMPDEST SWAP2 POP DUP2 SWAP1 POP SWAP2 SWAP1 POP JUMP JUMPDEST PUSH1 0x0 PUSH3 0x66C DUP3 PUSH3 0x55E JUMP JUMPDEST SWAP2 POP DUP2 SWAP1 POP SWAP2 SWAP1 POP JUMP JUMPDEST PUSH1 0x0 PUSH3 0x683 DUP3 PUSH3 0x585 JUMP JUMPDEST SWAP2 POP DUP2 SWAP1 POP SWAP2 SWAP1 POP JUMP JUMPDEST PUSH1 0x0 PUSH3 0x69A DUP3 PUSH3 0x5AC JUMP JUMPDEST SWAP2 POP DUP2 SWAP1 POP SWAP2 SWAP1 POP JUMP JUMPDEST PUSH1 0x0 PUSH3 0x6B1 DUP3 PUSH3 0x5D3 JUMP JUMPDEST SWAP2 POP DUP2 SWAP1 POP SWAP2 SWAP1 POP JUMP JUMPDEST PUSH1 0x0 PUSH3 0x6C8 DUP3 PUSH3 0x5FA JUMP JUMPDEST SWAP2 POP DUP2 SWAP1 POP SWAP2 SWAP1 POP JUMP JUMPDEST PUSH1 0x0 PUSH3 0x6DF DUP3 PUSH3 0x621 JUMP JUMPDEST SWAP2 POP DUP2 SWAP1 POP SWAP2 SWAP1 POP JUMP JUMPDEST PUSH1 0x0 DUP2 SWAP1 POP SWAP3 SWAP2 POP POP JUMP JUMPDEST PUSH32 0x5745544800000000000000000000000000000000000000000000000000000000 PUSH1 0x0 DUP3 ADD MSTORE POP JUMP JUMPDEST PUSH32 0x44515549434B0000000000000000000000000000000000000000000000000000 PUSH1 0x0 DUP3 ADD MSTORE POP JUMP JUMPDEST PUSH32 0x5553445400000000000000000000000000000000000000000000000000000000 PUSH1 0x0 DUP3 ADD MSTORE POP JUMP JUMPDEST PUSH32 0x5742544300000000000000000000000000000000000000000000000000000000 PUSH1 0x0 DUP3 ADD MSTORE POP JUMP JUMPDEST PUSH32 0x4441490000000000000000000000000000000000000000000000000000000000 PUSH1 0x0 DUP3 ADD MSTORE POP JUMP JUMPDEST PUSH32 0x5553444300000000000000000000000000000000000000000000000000000000 PUSH1 0x0 DUP3 ADD MSTORE POP JUMP JUMPDEST PUSH32 0x574D415449430000000000000000000000000000000000000000000000000000 PUSH1 0x0 DUP3 ADD MSTORE POP JUMP JUMPDEST PUSH2 0x13C3 DUP1 PUSH3 0x823 PUSH1 0x0 CODECOPY PUSH1 0x0 RETURN INVALID PUSH1 0x80 PUSH1 0x40 MSTORE PUSH1 0x4 CALLDATASIZE LT PUSH2 0x43 JUMPI PUSH1 0x0 CALLDATALOAD PUSH1 0xE0 SHR DUP1 PUSH4 0x7552ACD6 EQ PUSH2 0x4F JUMPI DUP1 PUSH4 0x7B60EB23 EQ PUSH2 0x78 JUMPI DUP1 PUSH4 0x9BC97DEE EQ PUSH2 0x82 JUMPI DUP1 PUSH4 0xF809A2E6 EQ PUSH2 0xAB JUMPI PUSH2 0x4A JUMP JUMPDEST CALLDATASIZE PUSH2 0x4A JUMPI STOP JUMPDEST PUSH1 0x0 DUP1 REVERT JUMPDEST CALLVALUE DUP1 ISZERO PUSH2 0x5B JUMPI PUSH1 0x0 DUP1 REVERT JUMPDEST POP PUSH2 0x76 PUSH1 0x4 DUP1 CALLDATASIZE SUB DUP2 ADD SWAP1 PUSH2 0x71 SWAP2 SWAP1 PUSH2 0xBD0 JUMP JUMPDEST PUSH2 0xD4 JUMP JUMPDEST STOP JUMPDEST PUSH2 0x80 PUSH2 0x2C0 JUMP JUMPDEST STOP JUMPDEST CALLVALUE DUP1 ISZERO PUSH2 0x8E JUMPI PUSH1 0x0 DUP1 REVERT JUMPDEST POP PUSH2 0xA9 PUSH1 0x4 DUP1 CALLDATASIZE SUB DUP2 ADD SWAP1 PUSH2 0xA4 SWAP2 SWAP1 PUSH2 0xC3F JUMP JUMPDEST PUSH2 0x4FD JUMP JUMPDEST STOP JUMPDEST CALLVALUE DUP1 ISZERO PUSH2 0xB7 JUMPI PUSH1 0x0 DUP1 REVERT JUMPDEST POP PUSH2 0xD2 PUSH1 0x4 DUP1 CALLDATASIZE SUB DUP2 ADD SWAP1 PUSH2 0xCD SWAP2 SWAP1 PUSH2 0xCC8 JUMP JUMPDEST PUSH2 0x6E8 JUMP JUMPDEST STOP JUMPDEST PUSH1 0x0 DUP4 PUSH1 0x40 MLOAD PUSH2 0xE4 SWAP2 SWAP1 PUSH2 0xF25 JUMP JUMPDEST SWAP1 DUP2 MSTORE PUSH1 0x20 ADD PUSH1 0x40 MLOAD DUP1 SWAP2 SUB SWAP1 KECCAK256 PUSH1 0x0 ADD PUSH1 0x0 SWAP1 SLOAD SWAP1 PUSH2 0x100 EXP SWAP1 DIV PUSH20 0xFFFFFFFFFFFFFFFFFFFFFFFFFFFFFFFFFFFFFFFF AND CALLER DUP4 DUP4 DUP1 DUP5 PUSH20 0xFFFFFFFFFFFFFFFFFFFFFFFFFFFFFFFFFFFFFFFF AND PUSH4 0xDD62ED3E DUP6 DUP6 PUSH1 0x40 MLOAD DUP4 PUSH4 0xFFFFFFFF AND PUSH1 0xE0 SHL DUP2 MSTORE PUSH1 0x4 ADD PUSH2 0x155 SWAP3 SWAP2 SWAP1 PUSH2 0xF51 JUMP JUMPDEST PUSH1 0x20 PUSH1 0x40 MLOAD DUP1 DUP4 SUB DUP2 DUP7 DUP1 EXTCODESIZE ISZERO DUP1 ISZERO PUSH2 0x16D JUMPI PUSH1 0x0 DUP1 REVERT JUMPDEST POP GAS STATICCALL ISZERO DUP1 ISZERO PUSH2 0x181 JUMPI RETURNDATASIZE PUSH1 0x0 DUP1 RETURNDATACOPY RETURNDATASIZE PUSH1 0x0 REVERT JUMPDEST POP POP POP POP PUSH1 0x40 MLOAD RETURNDATASIZE PUSH1 0x1F NOT PUSH1 0x1F DUP3 ADD AND DUP3 ADD DUP1 PUSH1 0x40 MSTORE POP DUP2 ADD SWAP1 PUSH2 0x1A5 SWAP2 SWAP1 PUSH2 0xC9B JUMP JUMPDEST LT ISZERO PUSH2 0x1E6 JUMPI PUSH1 0x40 MLOAD PUSH32 0x8C379A000000000000000000000000000000000000000000000000000000000 DUP2 MSTORE PUSH1 0x4 ADD PUSH2 0x1DD SWAP1 PUSH2 0x100A JUMP JUMPDEST PUSH1 0x40 MLOAD DUP1 SWAP2 SUB SWAP1 REVERT JUMPDEST PUSH1 0x0 DUP8 PUSH1 0x40 MLOAD PUSH2 0x1F6 SWAP2 SWAP1 PUSH2 0xF25 JUMP JUMPDEST SWAP1 DUP2 MSTORE PUSH1 0x20 ADD PUSH1 0x40 MLOAD DUP1 SWAP2 SUB SWAP1 KECCAK256 PUSH1 0x0 ADD PUSH1 0x0 SWAP1 SLOAD SWAP1 PUSH2 0x100 EXP SWAP1 DIV PUSH20 0xFFFFFFFFFFFFFFFFFFFFFFFFFFFFFFFFFFFFFFFF AND PUSH20 0xFFFFFFFFFFFFFFFFFFFFFFFFFFFFFFFFFFFFFFFF AND PUSH4 0x23B872DD CALLER DUP9 DUP9 PUSH1 0x40 MLOAD DUP5 PUSH4 0xFFFFFFFF AND PUSH1 0xE0 SHL DUP2 MSTORE PUSH1 0x4 ADD PUSH2 0x264 SWAP4 SWAP3 SWAP2 SWAP1 PUSH2 0xF7A JUMP JUMPDEST PUSH1 0x20 PUSH1 0x40 MLOAD DUP1 DUP4 SUB DUP2 PUSH1 0x0 DUP8 DUP1 EXTCODESIZE ISZERO DUP1 ISZERO PUSH2 0x27E JUMPI PUSH1 0x0 DUP1 REVERT JUMPDEST POP GAS CALL ISZERO DUP1 ISZERO PUSH2 0x292 JUMPI RETURNDATASIZE PUSH1 0x0 DUP1 RETURNDATACOPY RETURNDATASIZE PUSH1 0x0 REVERT JUMPDEST POP POP POP POP PUSH1 0x40 MLOAD RETURNDATASIZE PUSH1 0x1F NOT PUSH1 0x1F DUP3 ADD AND DUP3 ADD DUP1 PUSH1 0x40 MSTORE POP DUP2 ADD SWAP1 PUSH2 0x2B6 SWAP2 SWAP1 PUSH2 0xBA3 JUMP JUMPDEST POP POP POP POP POP POP POP POP JUMP JUMPDEST PUSH1 0x0 DUP1 PUSH1 0x0 PUSH1 0x40 MLOAD PUSH2 0x2D1 SWAP1 PUSH2 0xF3C JUMP JUMPDEST SWAP1 DUP2 MSTORE PUSH1 0x20 ADD PUSH1 0x40 MLOAD DUP1 SWAP2 SUB SWAP1 KECCAK256 PUSH1 0x0 ADD PUSH1 0x0 SWAP1 SLOAD SWAP1 PUSH2 0x100 EXP SWAP1 DIV PUSH20 0xFFFFFFFFFFFFFFFFFFFFFFFFFFFFFFFFFFFFFFFF AND PUSH20 0xFFFFFFFFFFFFFFFFFFFFFFFFFFFFFFFFFFFFFFFF AND CALLVALUE PUSH1 0x40 MLOAD PUSH1 0x24 ADD PUSH1 0x40 MLOAD PUSH1 0x20 DUP2 DUP4 SUB SUB DUP2 MSTORE SWAP1 PUSH1 0x40 MSTORE PUSH32 0xC5D2460100000000000000000000000000000000000000000000000000000000 PUSH28 0xFFFFFFFFFFFFFFFFFFFFFFFFFFFFFFFFFFFFFFFFFFFFFFFFFFFFFFFF NOT AND PUSH1 0x20 DUP3 ADD DUP1 MLOAD PUSH28 0xFFFFFFFFFFFFFFFFFFFFFFFFFFFFFFFFFFFFFFFFFFFFFFFFFFFFFFFF DUP4 DUP2 DUP4 AND OR DUP4 MSTORE POP POP POP POP PUSH1 0x40 MLOAD PUSH2 0x3AA SWAP2 SWAP1 PUSH2 0xF0E JUMP JUMPDEST PUSH1 0x0 PUSH1 0x40 MLOAD DUP1 DUP4 SUB DUP2 DUP6 DUP8 GAS CALL SWAP3 POP POP POP RETURNDATASIZE DUP1 PUSH1 0x0 DUP2 EQ PUSH2 0x3E7 JUMPI PUSH1 0x40 MLOAD SWAP2 POP PUSH1 0x1F NOT PUSH1 0x3F RETURNDATASIZE ADD AND DUP3 ADD PUSH1 0x40 MSTORE RETURNDATASIZE DUP3 MSTORE RETURNDATASIZE PUSH1 0x0 PUSH1 0x20 DUP5 ADD RETURNDATACOPY PUSH2 0x3EC JUMP JUMPDEST PUSH1 0x60 SWAP2 POP JUMPDEST POP SWAP2 POP SWAP2 POP PUSH1 0x0 PUSH1 0x40 MLOAD PUSH2 0x3FF SWAP1 PUSH2 0xF3C JUMP JUMPDEST SWAP1 DUP2 MSTORE PUSH1 0x20 ADD PUSH1 0x40 MLOAD DUP1 SWAP2 SUB SWAP1 KECCAK256 PUSH1 0x0 ADD PUSH1 0x0 SWAP1 SLOAD SWAP1 PUSH2 0x100 EXP SWAP1 DIV PUSH20 0xFFFFFFFFFFFFFFFFFFFFFFFFFFFFFFFFFFFFFFFF AND PUSH20 0xFFFFFFFFFFFFFFFFFFFFFFFFFFFFFFFFFFFFFFFF AND PUSH4 0x23B872DD ADDRESS CALLER CALLVALUE PUSH1 0x40 MLOAD DUP5 PUSH4 0xFFFFFFFF AND PUSH1 0xE0 SHL DUP2 MSTORE PUSH1 0x4 ADD PUSH2 0x46D SWAP4 SWAP3 SWAP2 SWAP1 PUSH2 0xF7A JUMP JUMPDEST PUSH1 0x20 PUSH1 0x40 MLOAD DUP1 DUP4 SUB DUP2 PUSH1 0x0 DUP8 DUP1 EXTCODESIZE ISZERO DUP1 ISZERO PUSH2 0x487 JUMPI PUSH1 0x0 DUP1 REVERT JUMPDEST POP GAS CALL ISZERO DUP1 ISZERO PUSH2 0x49B JUMPI RETURNDATASIZE PUSH1 0x0 DUP1 RETURNDATACOPY RETURNDATASIZE PUSH1 0x0 REVERT JUMPDEST POP POP POP POP PUSH1 0x40 MLOAD RETURNDATASIZE PUSH1 0x1F NOT PUSH1 0x1F DUP3 ADD AND DUP3 ADD DUP1 PUSH1 0x40 MSTORE POP DUP2 ADD SWAP1 PUSH2 0x4BF SWAP2 SWAP1 PUSH2 0xBA3 JUMP JUMPDEST POP PUSH32 0x13848C3E38F8886F3F5D2AD9DFF80D8092C2BBB8EFD5B887A99C2C6CFC09AC2A DUP3 DUP3 PUSH1 0x40 MLOAD PUSH2 0x4F1 SWAP3 SWAP2 SWAP1 PUSH2 0xFDA JUMP JUMPDEST PUSH1 0x40 MLOAD DUP1 SWAP2 SUB SWAP1 LOG1 POP POP JUMP JUMPDEST PUSH1 0x0 DUP3 PUSH1 0x40 MLOAD PUSH2 0x50D SWAP2 SWAP1 PUSH2 0xF25 JUMP JUMPDEST SWAP1 DUP2 MSTORE PUSH1 0x20 ADD PUSH1 0x40 MLOAD DUP1 SWAP2 SUB SWAP1 KECCAK256 PUSH1 0x0 ADD PUSH1 0x0 SWAP1 SLOAD SWAP1 PUSH2 0x100 EXP SWAP1 DIV PUSH20 0xFFFFFFFFFFFFFFFFFFFFFFFFFFFFFFFFFFFFFFFF AND CALLER ADDRESS DUP4 DUP1 DUP5 PUSH20 0xFFFFFFFFFFFFFFFFFFFFFFFFFFFFFFFFFFFFFFFF AND PUSH4 0xDD62ED3E DUP6 DUP6 PUSH1 0x40 MLOAD DUP4 PUSH4 0xFFFFFFFF AND PUSH1 0xE0 SHL DUP2 MSTORE PUSH1 0x4 ADD PUSH2 0x57E SWAP3 SWAP2 SWAP1 PUSH2 0xF51 JUMP JUMPDEST PUSH1 0x20 PUSH1 0x40 MLOAD DUP1 DUP4 SUB DUP2 DUP7 DUP1 EXTCODESIZE ISZERO DUP1 ISZERO PUSH2 0x596 JUMPI PUSH1 0x0 DUP1 REVERT JUMPDEST POP GAS STATICCALL ISZERO DUP1 ISZERO PUSH2 0x5AA JUMPI RETURNDATASIZE PUSH1 0x0 DUP1 RETURNDATACOPY RETURNDATASIZE PUSH1 0x0 REVERT JUMPDEST POP POP POP POP PUSH1 0x40 MLOAD RETURNDATASIZE PUSH1 0x1F NOT PUSH1 0x1F DUP3 ADD AND DUP3 ADD DUP1 PUSH1 0x40 MSTORE POP DUP2 ADD SWAP1 PUSH2 0x5CE SWAP2 SWAP1 PUSH2 0xC9B JUMP JUMPDEST LT ISZERO PUSH2 0x60F JUMPI PUSH1 0x40 MLOAD PUSH32 0x8C379A000000000000000000000000000000000000000000000000000000000 DUP2 MSTORE PUSH1 0x4 ADD PUSH2 0x606 SWAP1 PUSH2 0x100A JUMP JUMPDEST PUSH1 0x40 MLOAD DUP1 SWAP2 SUB SWAP1 REVERT JUMPDEST PUSH1 0x0 DUP7 PUSH1 0x40 MLOAD PUSH2 0x61F SWAP2 SWAP1 PUSH2 0xF25 JUMP JUMPDEST SWAP1 DUP2 MSTORE PUSH1 0x20 ADD PUSH1 0x40 MLOAD DUP1 SWAP2 SUB SWAP1 KECCAK256 PUSH1 0x0 ADD PUSH1 0x0 SWAP1 SLOAD SWAP1 PUSH2 0x100 EXP SWAP1 DIV PUSH20 0xFFFFFFFFFFFFFFFFFFFFFFFFFFFFFFFFFFFFFFFF AND PUSH20 0xFFFFFFFFFFFFFFFFFFFFFFFFFFFFFFFFFFFFFFFF AND PUSH4 0x23B872DD CALLER ADDRESS DUP9 PUSH1 0x40 MLOAD DUP5 PUSH4 0xFFFFFFFF AND PUSH1 0xE0 SHL DUP2 MSTORE PUSH1 0x4 ADD PUSH2 0x68D SWAP4 SWAP3 SWAP2 SWAP1 PUSH2 0xF7A JUMP JUMPDEST PUSH1 0x20 PUSH1 0x40 MLOAD DUP1 DUP4 SUB DUP2 PUSH1 0x0 DUP8 DUP1 EXTCODESIZE ISZERO DUP1 ISZERO PUSH2 0x6A7 JUMPI PUSH1 0x0 DUP1 REVERT JUMPDEST POP GAS CALL ISZERO DUP1 ISZERO PUSH2 0x6BB JUMPI RETURNDATASIZE PUSH1 0x0 DUP1 RETURNDATACOPY RETURNDATASIZE PUSH1 0x0 REVERT JUMPDEST POP POP POP POP PUSH1 0x40 MLOAD RETURNDATASIZE PUSH1 0x1F NOT PUSH1 0x1F DUP3 ADD AND DUP3 ADD DUP1 PUSH1 0x40 MSTORE POP DUP2 ADD SWAP1 PUSH2 0x6DF SWAP2 SWAP1 PUSH2 0xBA3 JUMP JUMPDEST POP POP POP POP POP POP POP JUMP JUMPDEST PUSH2 0x6F2 DUP4 DUP7 PUSH2 0x4FD JUMP JUMPDEST PUSH1 0x0 PUSH1 0x2 PUSH8 0xFFFFFFFFFFFFFFFF DUP2 GT ISZERO PUSH2 0x70F JUMPI PUSH2 0x70E PUSH2 0x1277 JUMP JUMPDEST JUMPDEST PUSH1 0x40 MLOAD SWAP1 DUP1 DUP3 MSTORE DUP1 PUSH1 0x20 MUL PUSH1 0x20 ADD DUP3 ADD PUSH1 0x40 MSTORE DUP1 ISZERO PUSH2 0x73D JUMPI DUP2 PUSH1 0x20 ADD PUSH1 0x20 DUP3 MUL DUP1 CALLDATASIZE DUP4 CALLDATACOPY DUP1 DUP3 ADD SWAP2 POP POP SWAP1 POP JUMPDEST POP SWAP1 POP PUSH1 0x0 DUP5 PUSH1 0x40 MLOAD PUSH2 0x750 SWAP2 SWAP1 PUSH2 0xF25 JUMP JUMPDEST SWAP1 DUP2 MSTORE PUSH1 0x20 ADD PUSH1 0x40 MLOAD DUP1 SWAP2 SUB SWAP1 KECCAK256 PUSH1 0x0 ADD PUSH1 0x0 SWAP1 SLOAD SWAP1 PUSH2 0x100 EXP SWAP1 DIV PUSH20 0xFFFFFFFFFFFFFFFFFFFFFFFFFFFFFFFFFFFFFFFF AND DUP2 PUSH1 0x0 DUP2 MLOAD DUP2 LT PUSH2 0x796 JUMPI PUSH2 0x795 PUSH2 0x1248 JUMP JUMPDEST JUMPDEST PUSH1 0x20 MUL PUSH1 0x20 ADD ADD SWAP1 PUSH20 0xFFFFFFFFFFFFFFFFFFFFFFFFFFFFFFFFFFFFFFFF AND SWAP1 DUP2 PUSH20 0xFFFFFFFFFFFFFFFFFFFFFFFFFFFFFFFFFFFFFFFF AND DUP2 MSTORE POP POP PUSH1 0x0 DUP4 PUSH1 0x40 MLOAD PUSH2 0x7E0 SWAP2 SWAP1 PUSH2 0xF25 JUMP JUMPDEST SWAP1 DUP2 MSTORE PUSH1 0x20 ADD PUSH1 0x40 MLOAD DUP1 SWAP2 SUB SWAP1 KECCAK256 PUSH1 0x0 ADD PUSH1 0x0 SWAP1 SLOAD SWAP1 PUSH2 0x100 EXP SWAP1 DIV PUSH20 0xFFFFFFFFFFFFFFFFFFFFFFFFFFFFFFFFFFFFFFFF AND DUP2 PUSH1 0x1 DUP2 MLOAD DUP2 LT PUSH2 0x826 JUMPI PUSH2 0x825 PUSH2 0x1248 JUMP JUMPDEST JUMPDEST PUSH1 0x20 MUL PUSH1 0x20 ADD ADD SWAP1 PUSH20 0xFFFFFFFFFFFFFFFFFFFFFFFFFFFFFFFFFFFFFFFF AND SWAP1 DUP2 PUSH20 0xFFFFFFFFFFFFFFFFFFFFFFFFFFFFFFFFFFFFFFFF AND DUP2 MSTORE POP POP PUSH1 0x0 DUP5 PUSH1 0x40 MLOAD PUSH2 0x870 SWAP2 SWAP1 PUSH2 0xF25 JUMP JUMPDEST SWAP1 DUP2 MSTORE PUSH1 0x20 ADD PUSH1 0x40 MLOAD DUP1 SWAP2 SUB SWAP1 KECCAK256 PUSH1 0x0 ADD PUSH1 0x0 SWAP1 SLOAD SWAP1 PUSH2 0x100 EXP SWAP1 DIV PUSH20 0xFFFFFFFFFFFFFFFFFFFFFFFFFFFFFFFFFFFFFFFF AND PUSH20 0xFFFFFFFFFFFFFFFFFFFFFFFFFFFFFFFFFFFFFFFF AND PUSH4 0x95EA7B3 PUSH20 0xA5E0829CACED8FFDD4DE3C43696C57F7D7A678FF DUP9 PUSH1 0x40 MLOAD DUP4 PUSH4 0xFFFFFFFF AND PUSH1 0xE0 SHL DUP2 MSTORE PUSH1 0x4 ADD PUSH2 0x8F0 SWAP3 SWAP2 SWAP1 PUSH2 0xFB1 JUMP JUMPDEST PUSH1 0x20 PUSH1 0x40 MLOAD DUP1 DUP4 SUB DUP2 PUSH1 0x0 DUP8 DUP1 EXTCODESIZE ISZERO DUP1 ISZERO PUSH2 0x90A JUMPI PUSH1 0x0 DUP1 REVERT JUMPDEST POP GAS CALL ISZERO DUP1 ISZERO PUSH2 0x91E JUMPI RETURNDATASIZE PUSH1 0x0 DUP1 RETURNDATACOPY RETURNDATASIZE PUSH1 0x0 REVERT JUMPDEST POP POP POP POP PUSH1 0x40 MLOAD RETURNDATASIZE PUSH1 0x1F NOT PUSH1 0x1F DUP3 ADD AND DUP3 ADD DUP1 PUSH1 0x40 MSTORE POP DUP2 ADD SWAP1 PUSH2 0x942 SWAP2 SWAP1 PUSH2 0xBA3 JUMP JUMPDEST POP PUSH20 0xA5E0829CACED8FFDD4DE3C43696C57F7D7A678FF PUSH20 0xFFFFFFFFFFFFFFFFFFFFFFFFFFFFFFFFFFFFFFFF AND PUSH4 0x38ED1739 DUP8 DUP8 DUP5 CALLER DUP8 PUSH1 0x40 MLOAD DUP7 PUSH4 0xFFFFFFFF AND PUSH1 0xE0 SHL DUP2 MSTORE PUSH1 0x4 ADD PUSH2 0x998 SWAP6 SWAP5 SWAP4 SWAP3 SWAP2 SWAP1 PUSH2 0x102A JUMP JUMPDEST PUSH1 0x0 PUSH1 0x40 MLOAD DUP1 DUP4 SUB DUP2 PUSH1 0x0 DUP8 DUP1 EXTCODESIZE ISZERO DUP1 ISZERO PUSH2 0x9B2 JUMPI PUSH1 0x0 DUP1 REVERT JUMPDEST POP GAS CALL ISZERO DUP1 ISZERO PUSH2 0x9C6 JUMPI RETURNDATASIZE PUSH1 0x0 DUP1 RETURNDATACOPY RETURNDATASIZE PUSH1 0x0 REVERT JUMPDEST POP POP POP POP PUSH1 0x40 MLOAD RETURNDATASIZE PUSH1 0x0 DUP3 RETURNDATACOPY RETURNDATASIZE PUSH1 0x1F NOT PUSH1 0x1F DUP3 ADD AND DUP3 ADD DUP1 PUSH1 0x40 MSTORE POP DUP2 ADD SWAP1 PUSH2 0x9EF SWAP2 SWAP1 PUSH2 0xB5A JUMP JUMPDEST POP POP POP POP POP POP POP JUMP JUMPDEST PUSH1 0x0 PUSH2 0xA0B PUSH2 0xA06 DUP5 PUSH2 0x10A9 JUMP JUMPDEST PUSH2 0x1084 JUMP JUMPDEST SWAP1 POP DUP1 DUP4 DUP3 MSTORE PUSH1 0x20 DUP3 ADD SWAP1 POP DUP3 DUP6 PUSH1 0x20 DUP7 MUL DUP3 ADD GT ISZERO PUSH2 0xA2E JUMPI PUSH2 0xA2D PUSH2 0x12AB JUMP JUMPDEST JUMPDEST PUSH1 0x0 JUMPDEST DUP6 DUP2 LT ISZERO PUSH2 0xA5E JUMPI DUP2 PUSH2 0xA44 DUP9 DUP3 PUSH2 0xB45 JUMP JUMPDEST DUP5 MSTORE PUSH1 0x20 DUP5 ADD SWAP4 POP PUSH1 0x20 DUP4 ADD SWAP3 POP POP PUSH1 0x1 DUP2 ADD SWAP1 POP PUSH2 0xA31 JUMP JUMPDEST POP POP POP SWAP4 SWAP3 POP POP POP JUMP JUMPDEST PUSH1 0x0 PUSH2 0xA7B PUSH2 0xA76 DUP5 PUSH2 0x10D5 JUMP JUMPDEST PUSH2 0x1084 JUMP JUMPDEST SWAP1 POP DUP3 DUP2 MSTORE PUSH1 0x20 DUP2 ADD DUP5 DUP5 DUP5 ADD GT ISZERO PUSH2 0xA97 JUMPI PUSH2 0xA96 PUSH2 0x12B0 JUMP JUMPDEST JUMPDEST PUSH2 0xAA2 DUP5 DUP3 DUP6 PUSH2 0x11D5 JUMP JUMPDEST POP SWAP4 SWAP3 POP POP POP JUMP JUMPDEST PUSH1 0x0 DUP2 CALLDATALOAD SWAP1 POP PUSH2 0xAB9 DUP2 PUSH2 0x1348 JUMP JUMPDEST SWAP3 SWAP2 POP POP JUMP JUMPDEST PUSH1 0x0 DUP3 PUSH1 0x1F DUP4 ADD SLT PUSH2 0xAD4 JUMPI PUSH2 0xAD3 PUSH2 0x12A6 JUMP JUMPDEST JUMPDEST DUP2 MLOAD PUSH2 0xAE4 DUP5 DUP3 PUSH1 0x20 DUP7 ADD PUSH2 0x9F8 JUMP JUMPDEST SWAP2 POP POP SWAP3 SWAP2 POP POP JUMP JUMPDEST PUSH1 0x0 DUP2 MLOAD SWAP1 POP PUSH2 0xAFC DUP2 PUSH2 0x135F JUMP JUMPDEST SWAP3 SWAP2 POP POP JUMP JUMPDEST PUSH1 0x0 DUP3 PUSH1 0x1F DUP4 ADD SLT PUSH2 0xB17 JUMPI PUSH2 0xB16 PUSH2 0x12A6 JUMP JUMPDEST JUMPDEST DUP2 CALLDATALOAD PUSH2 0xB27 DUP5 DUP3 PUSH1 0x20 DUP7 ADD PUSH2 0xA68 JUMP JUMPDEST SWAP2 POP POP SWAP3 SWAP2 POP POP JUMP JUMPDEST PUSH1 0x0 DUP2 CALLDATALOAD SWAP1 POP PUSH2 0xB3F DUP2 PUSH2 0x1376 JUMP JUMPDEST SWAP3 SWAP2 POP POP JUMP JUMPDEST PUSH1 0x0 DUP2 MLOAD SWAP1 POP PUSH2 0xB54 DUP2 PUSH2 0x1376 JUMP JUMPDEST SWAP3 SWAP2 POP POP JUMP JUMPDEST PUSH1 0x0 PUSH1 0x20 DUP3 DUP5 SUB SLT ISZERO PUSH2 0xB70 JUMPI PUSH2 0xB6F PUSH2 0x12BA JUMP JUMPDEST JUMPDEST PUSH1 0x0 DUP3 ADD MLOAD PUSH8 0xFFFFFFFFFFFFFFFF DUP2 GT ISZERO PUSH2 0xB8E JUMPI PUSH2 0xB8D PUSH2 0x12B5 JUMP JUMPDEST JUMPDEST PUSH2 0xB9A DUP5 DUP3 DUP6 ADD PUSH2 0xABF JUMP JUMPDEST SWAP2 POP POP SWAP3 SWAP2 POP POP JUMP JUMPDEST PUSH1 0x0 PUSH1 0x20 DUP3 DUP5 SUB SLT ISZERO PUSH2 0xBB9 JUMPI PUSH2 0xBB8 PUSH2 0x12BA JUMP JUMPDEST JUMPDEST PUSH1 0x0 PUSH2 0xBC7 DUP5 DUP3 DUP6 ADD PUSH2 0xAED JUMP JUMPDEST SWAP2 POP POP SWAP3 SWAP2 POP POP JUMP JUMPDEST PUSH1 0x0 DUP1 PUSH1 0x0 PUSH1 0x60 DUP5 DUP7 SUB SLT ISZERO PUSH2 0xBE9 JUMPI PUSH2 0xBE8 PUSH2 0x12BA JUMP JUMPDEST JUMPDEST PUSH1 0x0 DUP5 ADD CALLDATALOAD PUSH8 0xFFFFFFFFFFFFFFFF DUP2 GT ISZERO PUSH2 0xC07 JUMPI PUSH2 0xC06 PUSH2 0x12B5 JUMP JUMPDEST JUMPDEST PUSH2 0xC13 DUP7 DUP3 DUP8 ADD PUSH2 0xB02 JUMP JUMPDEST SWAP4 POP POP PUSH1 0x20 PUSH2 0xC24 DUP7 DUP3 DUP8 ADD PUSH2 0xAAA JUMP JUMPDEST SWAP3 POP POP PUSH1 0x40 PUSH2 0xC35 DUP7 DUP3 DUP8 ADD PUSH2 0xB30 JUMP JUMPDEST SWAP2 POP POP SWAP3 POP SWAP3 POP SWAP3 JUMP JUMPDEST PUSH1 0x0 DUP1 PUSH1 0x40 DUP4 DUP6 SUB SLT ISZERO PUSH2 0xC56 JUMPI PUSH2 0xC55 PUSH2 0x12BA JUMP JUMPDEST JUMPDEST PUSH1 0x0 DUP4 ADD CALLDATALOAD PUSH8 0xFFFFFFFFFFFFFFFF DUP2 GT ISZERO PUSH2 0xC74 JUMPI PUSH2 0xC73 PUSH2 0x12B5 JUMP JUMPDEST JUMPDEST PUSH2 0xC80 DUP6 DUP3 DUP7 ADD PUSH2 0xB02 JUMP JUMPDEST SWAP3 POP POP PUSH1 0x20 PUSH2 0xC91 DUP6 DUP3 DUP7 ADD PUSH2 0xB30 JUMP JUMPDEST SWAP2 POP POP SWAP3 POP SWAP3 SWAP1 POP JUMP JUMPDEST PUSH1 0x0 PUSH1 0x20 DUP3 DUP5 SUB SLT ISZERO PUSH2 0xCB1 JUMPI PUSH2 0xCB0 PUSH2 0x12BA JUMP JUMPDEST JUMPDEST PUSH1 0x0 PUSH2 0xCBF DUP5 DUP3 DUP6 ADD PUSH2 0xB45 JUMP JUMPDEST SWAP2 POP POP SWAP3 SWAP2 POP POP JUMP JUMPDEST PUSH1 0x0 DUP1 PUSH1 0x0 DUP1 PUSH1 0x0 PUSH1 0xA0 DUP7 DUP9 SUB SLT ISZERO PUSH2 0xCE4 JUMPI PUSH2 0xCE3 PUSH2 0x12BA JUMP JUMPDEST JUMPDEST PUSH1 0x0 PUSH2 0xCF2 DUP9 DUP3 DUP10 ADD PUSH2 0xB30 JUMP JUMPDEST SWAP6 POP POP PUSH1 0x20 PUSH2 0xD03 DUP9 DUP3 DUP10 ADD PUSH2 0xB30 JUMP JUMPDEST SWAP5 POP POP PUSH1 0x40 DUP7 ADD CALLDATALOAD PUSH8 0xFFFFFFFFFFFFFFFF DUP2 GT ISZERO PUSH2 0xD24 JUMPI PUSH2 0xD23 PUSH2 0x12B5 JUMP JUMPDEST JUMPDEST PUSH2 0xD30 DUP9 DUP3 DUP10 ADD PUSH2 0xB02 JUMP JUMPDEST SWAP4 POP POP PUSH1 0x60 DUP7 ADD CALLDATALOAD PUSH8 0xFFFFFFFFFFFFFFFF DUP2 GT ISZERO PUSH2 0xD51 JUMPI PUSH2 0xD50 PUSH2 0x12B5 JUMP JUMPDEST JUMPDEST PUSH2 0xD5D DUP9 DUP3 DUP10 ADD PUSH2 0xB02 JUMP JUMPDEST SWAP3 POP POP PUSH1 0x80 PUSH2 0xD6E DUP9 DUP3 DUP10 ADD PUSH2 0xB30 JUMP JUMPDEST SWAP2 POP POP SWAP3 SWAP6 POP SWAP3 SWAP6 SWAP1 SWAP4 POP JUMP JUMPDEST PUSH1 0x0 PUSH2 0xD87 DUP4 DUP4 PUSH2 0xD93 JUMP JUMPDEST PUSH1 0x20 DUP4 ADD SWAP1 POP SWAP3 SWAP2 POP POP JUMP JUMPDEST PUSH2 0xD9C DUP2 PUSH2 0x118D JUMP JUMPDEST DUP3 MSTORE POP POP JUMP JUMPDEST PUSH2 0xDAB DUP2 PUSH2 0x118D JUMP JUMPDEST DUP3 MSTORE POP POP JUMP JUMPDEST PUSH1 0x0 PUSH2 0xDBC DUP3 PUSH2 0x1116 JUMP JUMPDEST PUSH2 0xDC6 DUP2 DUP6 PUSH2 0x1144 JUMP JUMPDEST SWAP4 POP PUSH2 0xDD1 DUP4 PUSH2 0x1106 JUMP JUMPDEST DUP1 PUSH1 0x0 JUMPDEST DUP4 DUP2 LT ISZERO PUSH2 0xE02 JUMPI DUP2 MLOAD PUSH2 0xDE9 DUP9 DUP3 PUSH2 0xD7B JUMP JUMPDEST SWAP8 POP PUSH2 0xDF4 DUP4 PUSH2 0x1137 JUMP JUMPDEST SWAP3 POP POP PUSH1 0x1 DUP2 ADD SWAP1 POP PUSH2 0xDD5 JUMP JUMPDEST POP DUP6 SWAP4 POP POP POP POP SWAP3 SWAP2 POP POP JUMP JUMPDEST PUSH2 0xE18 DUP2 PUSH2 0x119F JUMP JUMPDEST DUP3 MSTORE POP POP JUMP JUMPDEST PUSH1 0x0 PUSH2 0xE29 DUP3 PUSH2 0x1121 JUMP JUMPDEST PUSH2 0xE33 DUP2 DUP6 PUSH2 0x1155 JUMP JUMPDEST SWAP4 POP PUSH2 0xE43 DUP2 DUP6 PUSH1 0x20 DUP7 ADD PUSH2 0x11E4 JUMP JUMPDEST PUSH2 0xE4C DUP2 PUSH2 0x12BF JUMP JUMPDEST DUP5 ADD SWAP2 POP POP SWAP3 SWAP2 POP POP JUMP JUMPDEST PUSH1 0x0 PUSH2 0xE62 DUP3 PUSH2 0x1121 JUMP JUMPDEST PUSH2 0xE6C DUP2 DUP6 PUSH2 0x1166 JUMP JUMPDEST SWAP4 POP PUSH2 0xE7C DUP2 DUP6 PUSH1 0x20 DUP7 ADD PUSH2 0x11E4 JUMP JUMPDEST DUP1 DUP5 ADD SWAP2 POP POP SWAP3 SWAP2 POP POP JUMP JUMPDEST PUSH1 0x0 PUSH2 0xE93 DUP3 PUSH2 0x112C JUMP JUMPDEST PUSH2 0xE9D DUP2 DUP6 PUSH2 0x1182 JUMP JUMPDEST SWAP4 POP PUSH2 0xEAD DUP2 DUP6 PUSH1 0x20 DUP7 ADD PUSH2 0x11E4 JUMP JUMPDEST DUP1 DUP5 ADD SWAP2 POP POP SWAP3 SWAP2 POP POP JUMP JUMPDEST PUSH1 0x0 PUSH2 0xEC6 PUSH1 0x38 DUP4 PUSH2 0x1171 JUMP JUMPDEST SWAP2 POP PUSH2 0xED1 DUP3 PUSH2 0x12D0 JUMP JUMPDEST PUSH1 0x40 DUP3 ADD SWAP1 POP SWAP2 SWAP1 POP JUMP JUMPDEST PUSH1 0x0 PUSH2 0xEE9 PUSH1 0x6 DUP4 PUSH2 0x1182 JUMP JUMPDEST SWAP2 POP PUSH2 0xEF4 DUP3 PUSH2 0x131F JUMP JUMPDEST PUSH1 0x6 DUP3 ADD SWAP1 POP SWAP2 SWAP1 POP JUMP JUMPDEST PUSH2 0xF08 DUP2 PUSH2 0x11CB JUMP JUMPDEST DUP3 MSTORE POP POP JUMP JUMPDEST PUSH1 0x0 PUSH2 0xF1A DUP3 DUP5 PUSH2 0xE57 JUMP JUMPDEST SWAP2 POP DUP2 SWAP1 POP SWAP3 SWAP2 POP POP JUMP JUMPDEST PUSH1 0x0 PUSH2 0xF31 DUP3 DUP5 PUSH2 0xE88 JUMP JUMPDEST SWAP2 POP DUP2 SWAP1 POP SWAP3 SWAP2 POP POP JUMP JUMPDEST PUSH1 0x0 PUSH2 0xF47 DUP3 PUSH2 0xEDC JUMP JUMPDEST SWAP2 POP DUP2 SWAP1 POP SWAP2 SWAP1 POP JUMP JUMPDEST PUSH1 0x0 PUSH1 0x40 DUP3 ADD SWAP1 POP PUSH2 0xF66 PUSH1 0x0 DUP4 ADD DUP6 PUSH2 0xDA2 JUMP JUMPDEST PUSH2 0xF73 PUSH1 0x20 DUP4 ADD DUP5 PUSH2 0xDA2 JUMP JUMPDEST SWAP4 SWAP3 POP POP POP JUMP JUMPDEST PUSH1 0x0 PUSH1 0x60 DUP3 ADD SWAP1 POP PUSH2 0xF8F PUSH1 0x0 DUP4 ADD DUP7 PUSH2 0xDA2 JUMP JUMPDEST PUSH2 0xF9C PUSH1 0x20 DUP4 ADD DUP6 PUSH2 0xDA2 JUMP JUMPDEST PUSH2 0xFA9 PUSH1 0x40 DUP4 ADD DUP5 PUSH2 0xEFF JUMP JUMPDEST SWAP5 SWAP4 POP POP POP POP JUMP JUMPDEST PUSH1 0x0 PUSH1 0x40 DUP3 ADD SWAP1 POP PUSH2 0xFC6 PUSH1 0x0 DUP4 ADD DUP6 PUSH2 0xDA2 JUMP JUMPDEST PUSH2 0xFD3 PUSH1 0x20 DUP4 ADD DUP5 PUSH2 0xEFF JUMP JUMPDEST SWAP4 SWAP3 POP POP POP JUMP JUMPDEST PUSH1 0x0 PUSH1 0x40 DUP3 ADD SWAP1 POP PUSH2 0xFEF PUSH1 0x0 DUP4 ADD DUP6 PUSH2 0xE0F JUMP JUMPDEST DUP2 DUP2 SUB PUSH1 0x20 DUP4 ADD MSTORE PUSH2 0x1001 DUP2 DUP5 PUSH2 0xE1E JUMP JUMPDEST SWAP1 POP SWAP4 SWAP3 POP POP POP JUMP JUMPDEST PUSH1 0x0 PUSH1 0x20 DUP3 ADD SWAP1 POP DUP2 DUP2 SUB PUSH1 0x0 DUP4 ADD MSTORE PUSH2 0x1023 DUP2 PUSH2 0xEB9 JUMP JUMPDEST SWAP1 POP SWAP2 SWAP1 POP JUMP JUMPDEST PUSH1 0x0 PUSH1 0xA0 DUP3 ADD SWAP1 POP PUSH2 0x103F PUSH1 0x0 DUP4 ADD DUP9 PUSH2 0xEFF JUMP JUMPDEST PUSH2 0x104C PUSH1 0x20 DUP4 ADD DUP8 PUSH2 0xEFF JUMP JUMPDEST DUP2 DUP2 SUB PUSH1 0x40 DUP4 ADD MSTORE PUSH2 0x105E DUP2 DUP7 PUSH2 0xDB1 JUMP JUMPDEST SWAP1 POP PUSH2 0x106D PUSH1 0x60 DUP4 ADD DUP6 PUSH2 0xDA2 JUMP JUMPDEST PUSH2 0x107A PUSH1 0x80 DUP4 ADD DUP5 PUSH2 0xEFF JUMP JUMPDEST SWAP7 SWAP6 POP POP POP POP POP POP JUMP JUMPDEST PUSH1 0x0 PUSH2 0x108E PUSH2 0x109F JUMP JUMPDEST SWAP1 POP PUSH2 0x109A DUP3 DUP3 PUSH2 0x1217 JUMP JUMPDEST SWAP2 SWAP1 POP JUMP JUMPDEST PUSH1 0x0 PUSH1 0x40 MLOAD SWAP1 POP SWAP1 JUMP JUMPDEST PUSH1 0x0 PUSH8 0xFFFFFFFFFFFFFFFF DUP3 GT ISZERO PUSH2 0x10C4 JUMPI PUSH2 0x10C3 PUSH2 0x1277 JUMP JUMPDEST JUMPDEST PUSH1 0x20 DUP3 MUL SWAP1 POP PUSH1 0x20 DUP2 ADD SWAP1 POP SWAP2 SWAP1 POP JUMP JUMPDEST PUSH1 0x0 PUSH8 0xFFFFFFFFFFFFFFFF DUP3 GT ISZERO PUSH2 0x10F0 JUMPI PUSH2 0x10EF PUSH2 0x1277 JUMP JUMPDEST JUMPDEST PUSH2 0x10F9 DUP3 PUSH2 0x12BF JUMP JUMPDEST SWAP1 POP PUSH1 0x20 DUP2 ADD SWAP1 POP SWAP2 SWAP1 POP JUMP JUMPDEST PUSH1 0x0 DUP2 SWAP1 POP PUSH1 0x20 DUP3 ADD SWAP1 POP SWAP2 SWAP1 POP JUMP JUMPDEST PUSH1 0x0 DUP2 MLOAD SWAP1 POP SWAP2 SWAP1 POP JUMP JUMPDEST PUSH1 0x0 DUP2 MLOAD SWAP1 POP SWAP2 SWAP1 POP JUMP JUMPDEST PUSH1 0x0 DUP2 MLOAD SWAP1 POP SWAP2 SWAP1 POP JUMP JUMPDEST PUSH1 0x0 PUSH1 0x20 DUP3 ADD SWAP1 POP SWAP2 SWAP1 POP JUMP JUMPDEST PUSH1 0x0 DUP3 DUP3 MSTORE PUSH1 0x20 DUP3 ADD SWAP1 POP SWAP3 SWAP2 POP POP JUMP JUMPDEST PUSH1 0x0 DUP3 DUP3 MSTORE PUSH1 0x20 DUP3 ADD SWAP1 POP SWAP3 SWAP2 POP POP JUMP JUMPDEST PUSH1 0x0 DUP2 SWAP1 POP SWAP3 SWAP2 POP POP JUMP JUMPDEST PUSH1 0x0 DUP3 DUP3 MSTORE PUSH1 0x20 DUP3 ADD SWAP1 POP SWAP3 SWAP2 POP POP JUMP JUMPDEST PUSH1 0x0 DUP2 SWAP1 POP SWAP3 SWAP2 POP POP JUMP JUMPDEST PUSH1 0x0 PUSH2 0x1198 DUP3 PUSH2 0x11AB JUMP JUMPDEST SWAP1 POP SWAP2 SWAP1 POP JUMP JUMPDEST PUSH1 0x0 DUP2 ISZERO ISZERO SWAP1 POP SWAP2 SWAP1 POP JUMP JUMPDEST PUSH1 0x0 PUSH20 0xFFFFFFFFFFFFFFFFFFFFFFFFFFFFFFFFFFFFFFFF DUP3 AND SWAP1 POP SWAP2 SWAP1 POP JUMP JUMPDEST PUSH1 0x0 DUP2 SWAP1 POP SWAP2 SWAP1 POP JUMP JUMPDEST DUP3 DUP2 DUP4 CALLDATACOPY PUSH1 0x0 DUP4 DUP4 ADD MSTORE POP POP POP JUMP JUMPDEST PUSH1 0x0 JUMPDEST DUP4 DUP2 LT ISZERO PUSH2 0x1202 JUMPI DUP1 DUP3 ADD MLOAD DUP2 DUP5 ADD MSTORE PUSH1 0x20 DUP2 ADD SWAP1 POP PUSH2 0x11E7 JUMP JUMPDEST DUP4 DUP2 GT ISZERO PUSH2 0x1211 JUMPI PUSH1 0x0 DUP5 DUP5 ADD MSTORE JUMPDEST POP POP POP POP JUMP JUMPDEST PUSH2 0x1220 DUP3 PUSH2 0x12BF JUMP JUMPDEST DUP2 ADD DUP2 DUP2 LT PUSH8 0xFFFFFFFFFFFFFFFF DUP3 GT OR ISZERO PUSH2 0x123F JUMPI PUSH2 0x123E PUSH2 0x1277 JUMP JUMPDEST JUMPDEST DUP1 PUSH1 0x40 MSTORE POP POP POP JUMP JUMPDEST PUSH32 0x4E487B7100000000000000000000000000000000000000000000000000000000 PUSH1 0x0 MSTORE PUSH1 0x32 PUSH1 0x4 MSTORE PUSH1 0x24 PUSH1 0x0 REVERT JUMPDEST PUSH32 0x4E487B7100000000000000000000000000000000000000000000000000000000 PUSH1 0x0 MSTORE PUSH1 0x41 PUSH1 0x4 MSTORE PUSH1 0x24 PUSH1 0x0 REVERT JUMPDEST PUSH1 0x0 DUP1 REVERT JUMPDEST PUSH1 0x0 DUP1 REVERT JUMPDEST PUSH1 0x0 DUP1 REVERT JUMPDEST PUSH1 0x0 DUP1 REVERT JUMPDEST PUSH1 0x0 DUP1 REVERT JUMPDEST PUSH1 0x0 PUSH1 0x1F NOT PUSH1 0x1F DUP4 ADD AND SWAP1 POP SWAP2 SWAP1 POP JUMP JUMPDEST PUSH32 0x455243323020636F6E747261637420686173206E6F7420676976656E20706572 PUSH1 0x0 DUP3 ADD MSTORE PUSH32 0x6D697373696F6E20746F207468697320616464726573732E0000000000000000 PUSH1 0x20 DUP3 ADD MSTORE POP JUMP JUMPDEST PUSH32 0x574D415449430000000000000000000000000000000000000000000000000000 PUSH1 0x0 DUP3 ADD MSTORE POP JUMP JUMPDEST PUSH2 0x1351 DUP2 PUSH2 0x118D JUMP JUMPDEST DUP2 EQ PUSH2 0x135C JUMPI PUSH1 0x0 DUP1 REVERT JUMPDEST POP JUMP JUMPDEST PUSH2 0x1368 DUP2 PUSH2 0x119F JUMP JUMPDEST DUP2 EQ PUSH2 0x1373 JUMPI PUSH1 0x0 DUP1 REVERT JUMPDEST POP JUMP JUMPDEST PUSH2 0x137F DUP2 PUSH2 0x11CB JUMP JUMPDEST DUP2 EQ PUSH2 0x138A JUMPI PUSH1 0x0 DUP1 REVERT JUMPDEST POP JUMP INVALID LOG2 PUSH5 0x6970667358 0x22 SLT KECCAK256 PUSH23 0xC1126FD8468AEBF88271704A0EF3D05D7C7F3BDC67863A EXP 0x1E 0xF6 PUSH23 0xAFB6D85864736F6C634300080700330000000000000000 "
				},
				"gasEstimates": {
					"creation": {
						"codeDepositCost": "1011800",
						"executionCost": "infinite",
						"totalCost": "infinite"
					},
					"external": {
						"receive_wmatic()": "infinite",
						"swap_exact_tokens_for_tokens(uint256,uint256,string,string,uint256)": "infinite",
						"transfer_token(string,address,uint256)": "infinite",
						"transfer_token_to_contract(string,uint256)": "infinite"
					}
				},
				"methodIdentifiers": {
					"receive_wmatic()": "7b60eb23",
					"swap_exact_tokens_for_tokens(uint256,uint256,string,string,uint256)": "f809a2e6",
					"transfer_token(string,address,uint256)": "7552acd6",
					"transfer_token_to_contract(string,uint256)": "9bc97dee"
				}
			},
			"storageLayout": {
				"storage": [
					{
						"astId": 495,
						"contract": "contracts/polygon/microcebus_main.sol:microcebus_main",
						"label": "token_contracts",
						"offset": 0,
						"slot": "0",
						"type": "t_mapping(t_string_memory_ptr,t_struct(Token)473_storage)"
					},
					{
						"astId": 521,
						"contract": "contracts/polygon/microcebus_main.sol:microcebus_main",
						"label": "admin",
						"offset": 0,
						"slot": "1",
						"type": "t_address"
					}
				],
				"types": {
					"t_address": {
						"encoding": "inplace",
						"label": "address",
						"numberOfBytes": "20"
					},
					"t_mapping(t_string_memory_ptr,t_struct(Token)473_storage)": {
						"encoding": "mapping",
						"key": "t_string_memory_ptr",
						"label": "mapping(string => struct microcebus_main.Token)",
						"numberOfBytes": "32",
						"value": "t_struct(Token)473_storage"
					},
					"t_string_memory_ptr": {
						"encoding": "bytes",
						"label": "string",
						"numberOfBytes": "32"
					},
					"t_struct(Token)473_storage": {
						"encoding": "inplace",
						"label": "struct microcebus_main.Token",
						"members": [
							{
								"astId": 470,
								"contract": "contracts/polygon/microcebus_main.sol:microcebus_main",
								"label": "adr",
								"offset": 0,
								"slot": "0",
								"type": "t_address"
							},
							{
								"astId": 472,
								"contract": "contracts/polygon/microcebus_main.sol:microcebus_main",
								"label": "decimals",
								"offset": 0,
								"slot": "1",
								"type": "t_uint256"
							}
						],
						"numberOfBytes": "64"
					},
					"t_uint256": {
						"encoding": "inplace",
						"label": "uint256",
						"numberOfBytes": "32"
					}
				}
			},
			"userdoc": {
				"kind": "user",
				"methods": {},
				"version": 1
			}
		}
	}
}