{
	"contracts/polygon/microcebus_main.sol": {
		"microcebus_main": {
			"abi": [
				{
					"inputs": [],
					"stateMutability": "nonpayable",
					"type": "constructor"
				},
				{
					"anonymous": false,
					"inputs": [
						{
							"indexed": false,
							"internalType": "bool",
							"name": "success",
							"type": "bool"
						},
						{
							"indexed": false,
							"internalType": "bytes",
							"name": "data",
							"type": "bytes"
						}
					],
					"name": "Response",
					"type": "event"
				},
				{
					"inputs": [
						{
							"internalType": "uint256",
							"name": "_amount_in",
							"type": "uint256"
						},
						{
							"internalType": "string",
							"name": "_token_in_identifier",
							"type": "string"
						},
						{
							"internalType": "string",
							"name": "_token_out_identifier",
							"type": "string"
						}
					],
					"name": "get_amounts_out",
					"outputs": [
						{
							"internalType": "uint256[]",
							"name": "",
							"type": "uint256[]"
						}
					],
					"stateMutability": "view",
					"type": "function"
				},
				{
					"inputs": [
						{
							"internalType": "string",
							"name": "_token_identifier",
							"type": "string"
						},
						{
							"internalType": "address",
							"name": "_token_owner",
							"type": "address"
						}
					],
					"name": "get_token_balance",
					"outputs": [
						{
							"internalType": "uint256",
							"name": "",
							"type": "uint256"
						}
					],
					"stateMutability": "view",
					"type": "function"
				},
				{
					"inputs": [
						{
							"internalType": "string",
							"name": "_token_identifier",
							"type": "string"
						}
					],
					"name": "get_token_balance_contract",
					"outputs": [
						{
							"internalType": "uint256",
							"name": "",
							"type": "uint256"
						}
					],
					"stateMutability": "view",
					"type": "function"
				},
				{
					"inputs": [
						{
							"internalType": "string",
							"name": "_token_identifier",
							"type": "string"
						}
					],
					"name": "get_token_balance_sender",
					"outputs": [
						{
							"internalType": "uint256",
							"name": "",
							"type": "uint256"
						}
					],
					"stateMutability": "view",
					"type": "function"
				},
				{
					"inputs": [],
					"name": "receive_wmatic",
					"outputs": [],
					"stateMutability": "payable",
					"type": "function"
				},
				{
					"inputs": [
						{
							"internalType": "uint256",
							"name": "_amount_in",
							"type": "uint256"
						},
						{
							"internalType": "uint256",
							"name": "_amount_out_min",
							"type": "uint256"
						},
						{
							"internalType": "string",
							"name": "_token_in_identifier",
							"type": "string"
						},
						{
							"internalType": "string",
							"name": "_token_out_identifier",
							"type": "string"
						},
						{
							"internalType": "uint256",
							"name": "deadline",
							"type": "uint256"
						}
					],
					"name": "swap_exact_tokens_for_tokens",
					"outputs": [],
					"stateMutability": "nonpayable",
					"type": "function"
				},
				{
					"inputs": [
						{
							"internalType": "string",
							"name": "_token_in_identifier",
							"type": "string"
						},
						{
							"internalType": "address",
							"name": "_token_receiver",
							"type": "address"
						},
						{
							"internalType": "uint256",
							"name": "_amount",
							"type": "uint256"
						}
					],
					"name": "transfer_token",
					"outputs": [],
					"stateMutability": "nonpayable",
					"type": "function"
				},
				{
					"inputs": [
						{
							"internalType": "string",
							"name": "_token_in_identifier",
							"type": "string"
						},
						{
							"internalType": "uint256",
							"name": "_amount",
							"type": "uint256"
						}
					],
					"name": "transfer_token_to_contract",
					"outputs": [],
					"stateMutability": "nonpayable",
					"type": "function"
				},
				{
					"stateMutability": "payable",
					"type": "receive"
				}
			],
			"devdoc": {
				"kind": "dev",
				"methods": {},
				"version": 1
			},
			"evm": {
				"assembly": "    /* \"contracts/polygon/microcebus_main.sol\":94:5341  contract microcebus_main {... */\n  mstore(0x40, 0x80)\n    /* \"contracts/polygon/microcebus_main.sol\":1252:1780  constructor() {... */\n  callvalue\n  dup1\n  iszero\n  tag_1\n  jumpi\n  0x00\n  dup1\n  revert\ntag_1:\n  pop\n    /* \"contracts/polygon/microcebus_main.sol\":1285:1295  msg.sender */\n  caller\n    /* \"contracts/polygon/microcebus_main.sol\":1277:1282  admin */\n  0x01\n  0x00\n    /* \"contracts/polygon/microcebus_main.sol\":1277:1295  admin = msg.sender */\n  0x0100\n  exp\n  dup2\n  sload\n  dup2\n  0xffffffffffffffffffffffffffffffffffffffff\n  mul\n  not\n  and\n  swap1\n  dup4\n  0xffffffffffffffffffffffffffffffffffffffff\n  and\n  mul\n  or\n  swap1\n  sstore\n  pop\n    /* \"contracts/polygon/microcebus_main.sol\":1330:1361  Token({adr: DAI, decimals: 18}) */\n  mload(0x40)\n  dup1\n  0x40\n  add\n  0x40\n  mstore\n  dup1\n    /* \"contracts/polygon/microcebus_main.sol\":854:896  0x8f3Cf7ad23Cd3CaDbD9735AFf958023239c6A063 */\n  0x8f3cf7ad23cd3cadbd9735aff958023239c6a063\n    /* \"contracts/polygon/microcebus_main.sol\":1330:1361  Token({adr: DAI, decimals: 18}) */\n  0xffffffffffffffffffffffffffffffffffffffff\n  and\n  dup2\n  mstore\n  0x20\n  add\n    /* \"contracts/polygon/microcebus_main.sol\":1357:1359  18 */\n  0x12\n    /* \"contracts/polygon/microcebus_main.sol\":1330:1361  Token({adr: DAI, decimals: 18}) */\n  dup2\n  mstore\n  pop\n    /* \"contracts/polygon/microcebus_main.sol\":1305:1320  token_contracts */\n  0x00\n    /* \"contracts/polygon/microcebus_main.sol\":1305:1327  token_contracts[\"DAI\"] */\n  mload(0x40)\n  tag_4\n  swap1\n  tag_5\n  jump\t// in\ntag_4:\n  swap1\n  dup2\n  mstore\n  0x20\n  add\n  mload(0x40)\n  dup1\n  swap2\n  sub\n  swap1\n  keccak256\n    /* \"contracts/polygon/microcebus_main.sol\":1305:1361  token_contracts[\"DAI\"] = Token({adr: DAI, decimals: 18}) */\n  0x00\n  dup3\n  add\n  mload\n  dup2\n  0x00\n  add\n  exp(0x0100, 0x00)\n  dup2\n  sload\n  dup2\n  0xffffffffffffffffffffffffffffffffffffffff\n  mul\n  not\n  and\n  swap1\n  dup4\n  0xffffffffffffffffffffffffffffffffffffffff\n  and\n  mul\n  or\n  swap1\n  sstore\n  pop\n  0x20\n  dup3\n  add\n  mload\n  dup2\n  0x01\n  add\n  sstore\n  swap1\n  pop\n  pop\n    /* \"contracts/polygon/microcebus_main.sol\":1397:1429  Token({adr: WETH, decimals: 18}) */\n  mload(0x40)\n  dup1\n  0x40\n  add\n  0x40\n  mstore\n  dup1\n    /* \"contracts/polygon/microcebus_main.sol\":1136:1178  0x7ceB23fD6bC0adD59E62ac25578270cFf1b9f619 */\n  0x7ceb23fd6bc0add59e62ac25578270cff1b9f619\n    /* \"contracts/polygon/microcebus_main.sol\":1397:1429  Token({adr: WETH, decimals: 18}) */\n  0xffffffffffffffffffffffffffffffffffffffff\n  and\n  dup2\n  mstore\n  0x20\n  add\n    /* \"contracts/polygon/microcebus_main.sol\":1425:1427  18 */\n  0x12\n    /* \"contracts/polygon/microcebus_main.sol\":1397:1429  Token({adr: WETH, decimals: 18}) */\n  dup2\n  mstore\n  pop\n    /* \"contracts/polygon/microcebus_main.sol\":1371:1386  token_contracts */\n  0x00\n    /* \"contracts/polygon/microcebus_main.sol\":1371:1394  token_contracts[\"WETH\"] */\n  mload(0x40)\n  tag_6\n  swap1\n  tag_7\n  jump\t// in\ntag_6:\n  swap1\n  dup2\n  mstore\n  0x20\n  add\n  mload(0x40)\n  dup1\n  swap2\n  sub\n  swap1\n  keccak256\n    /* \"contracts/polygon/microcebus_main.sol\":1371:1429  token_contracts[\"WETH\"] = Token({adr: WETH, decimals: 18}) */\n  0x00\n  dup3\n  add\n  mload\n  dup2\n  0x00\n  add\n  exp(0x0100, 0x00)\n  dup2\n  sload\n  dup2\n  0xffffffffffffffffffffffffffffffffffffffff\n  mul\n  not\n  and\n  swap1\n  dup4\n  0xffffffffffffffffffffffffffffffffffffffff\n  and\n  mul\n  or\n  swap1\n  sstore\n  pop\n  0x20\n  dup3\n  add\n  mload\n  dup2\n  0x01\n  add\n  sstore\n  swap1\n  pop\n  pop\n    /* \"contracts/polygon/microcebus_main.sol\":1467:1501  Token({adr: WMATIC, decimals: 18}) */\n  mload(0x40)\n  dup1\n  0x40\n  add\n  0x40\n  mstore\n  dup1\n    /* \"contracts/polygon/microcebus_main.sol\":715:757  0x0d500B1d8E8eF31E21C99d1Db9A6444d3ADf1270 */\n  0x0d500b1d8e8ef31e21c99d1db9a6444d3adf1270\n    /* \"contracts/polygon/microcebus_main.sol\":1467:1501  Token({adr: WMATIC, decimals: 18}) */\n  0xffffffffffffffffffffffffffffffffffffffff\n  and\n  dup2\n  mstore\n  0x20\n  add\n    /* \"contracts/polygon/microcebus_main.sol\":1497:1499  18 */\n  0x12\n    /* \"contracts/polygon/microcebus_main.sol\":1467:1501  Token({adr: WMATIC, decimals: 18}) */\n  dup2\n  mstore\n  pop\n    /* \"contracts/polygon/microcebus_main.sol\":1439:1454  token_contracts */\n  0x00\n    /* \"contracts/polygon/microcebus_main.sol\":1439:1464  token_contracts[\"WMATIC\"] */\n  mload(0x40)\n  tag_8\n  swap1\n  tag_9\n  jump\t// in\ntag_8:\n  swap1\n  dup2\n  mstore\n  0x20\n  add\n  mload(0x40)\n  dup1\n  swap2\n  sub\n  swap1\n  keccak256\n    /* \"contracts/polygon/microcebus_main.sol\":1439:1501  token_contracts[\"WMATIC\"] = Token({adr: WMATIC, decimals: 18}) */\n  0x00\n  dup3\n  add\n  mload\n  dup2\n  0x00\n  add\n  exp(0x0100, 0x00)\n  dup2\n  sload\n  dup2\n  0xffffffffffffffffffffffffffffffffffffffff\n  mul\n  not\n  and\n  swap1\n  dup4\n  0xffffffffffffffffffffffffffffffffffffffff\n  and\n  mul\n  or\n  swap1\n  sstore\n  pop\n  0x20\n  dup3\n  add\n  mload\n  dup2\n  0x01\n  add\n  sstore\n  swap1\n  pop\n  pop\n    /* \"contracts/polygon/microcebus_main.sol\":1537:1568  Token({adr: USDC, decimals: 6}) */\n  mload(0x40)\n  dup1\n  0x40\n  add\n  0x40\n  mstore\n  dup1\n    /* \"contracts/polygon/microcebus_main.sol\":785:827  0x2791Bca1f2de4661ED88A30C99A7a9449Aa84174 */\n  0x2791bca1f2de4661ed88a30c99a7a9449aa84174\n    /* \"contracts/polygon/microcebus_main.sol\":1537:1568  Token({adr: USDC, decimals: 6}) */\n  0xffffffffffffffffffffffffffffffffffffffff\n  and\n  dup2\n  mstore\n  0x20\n  add\n    /* \"contracts/polygon/microcebus_main.sol\":1565:1566  6 */\n  0x06\n    /* \"contracts/polygon/microcebus_main.sol\":1537:1568  Token({adr: USDC, decimals: 6}) */\n  dup2\n  mstore\n  pop\n    /* \"contracts/polygon/microcebus_main.sol\":1511:1526  token_contracts */\n  0x00\n    /* \"contracts/polygon/microcebus_main.sol\":1511:1534  token_contracts[\"USDC\"] */\n  mload(0x40)\n  tag_10\n  swap1\n  tag_11\n  jump\t// in\ntag_10:\n  swap1\n  dup2\n  mstore\n  0x20\n  add\n  mload(0x40)\n  dup1\n  swap2\n  sub\n  swap1\n  keccak256\n    /* \"contracts/polygon/microcebus_main.sol\":1511:1568  token_contracts[\"USDC\"] = Token({adr: USDC, decimals: 6}) */\n  0x00\n  dup3\n  add\n  mload\n  dup2\n  0x00\n  add\n  exp(0x0100, 0x00)\n  dup2\n  sload\n  dup2\n  0xffffffffffffffffffffffffffffffffffffffff\n  mul\n  not\n  and\n  swap1\n  dup4\n  0xffffffffffffffffffffffffffffffffffffffff\n  and\n  mul\n  or\n  swap1\n  sstore\n  pop\n  0x20\n  dup3\n  add\n  mload\n  dup2\n  0x01\n  add\n  sstore\n  swap1\n  pop\n  pop\n    /* \"contracts/polygon/microcebus_main.sol\":1604:1635  Token({adr: USDT, decimals: 6}) */\n  mload(0x40)\n  dup1\n  0x40\n  add\n  0x40\n  mstore\n  dup1\n    /* \"contracts/polygon/microcebus_main.sol\":924:966  0xc2132D05D31c914a87C6611C10748AEb04B58e8F */\n  0xc2132d05d31c914a87c6611c10748aeb04b58e8f\n    /* \"contracts/polygon/microcebus_main.sol\":1604:1635  Token({adr: USDT, decimals: 6}) */\n  0xffffffffffffffffffffffffffffffffffffffff\n  and\n  dup2\n  mstore\n  0x20\n  add\n    /* \"contracts/polygon/microcebus_main.sol\":1632:1633  6 */\n  0x06\n    /* \"contracts/polygon/microcebus_main.sol\":1604:1635  Token({adr: USDT, decimals: 6}) */\n  dup2\n  mstore\n  pop\n    /* \"contracts/polygon/microcebus_main.sol\":1578:1593  token_contracts */\n  0x00\n    /* \"contracts/polygon/microcebus_main.sol\":1578:1601  token_contracts[\"USDT\"] */\n  mload(0x40)\n  tag_12\n  swap1\n  tag_13\n  jump\t// in\ntag_12:\n  swap1\n  dup2\n  mstore\n  0x20\n  add\n  mload(0x40)\n  dup1\n  swap2\n  sub\n  swap1\n  keccak256\n    /* \"contracts/polygon/microcebus_main.sol\":1578:1635  token_contracts[\"USDT\"] = Token({adr: USDT, decimals: 6}) */\n  0x00\n  dup3\n  add\n  mload\n  dup2\n  0x00\n  add\n  exp(0x0100, 0x00)\n  dup2\n  sload\n  dup2\n  0xffffffffffffffffffffffffffffffffffffffff\n  mul\n  not\n  and\n  swap1\n  dup4\n  0xffffffffffffffffffffffffffffffffffffffff\n  and\n  mul\n  or\n  swap1\n  sstore\n  pop\n  0x20\n  dup3\n  add\n  mload\n  dup2\n  0x01\n  add\n  sstore\n  swap1\n  pop\n  pop\n    /* \"contracts/polygon/microcebus_main.sol\":1671:1702  Token({adr: WBTC, decimals: 8}) */\n  mload(0x40)\n  dup1\n  0x40\n  add\n  0x40\n  mstore\n  dup1\n    /* \"contracts/polygon/microcebus_main.sol\":994:1036  0x1BFD67037B42Cf73acF2047067bd4F2C47D9BfD6 */\n  0x1bfd67037b42cf73acf2047067bd4f2c47d9bfd6\n    /* \"contracts/polygon/microcebus_main.sol\":1671:1702  Token({adr: WBTC, decimals: 8}) */\n  0xffffffffffffffffffffffffffffffffffffffff\n  and\n  dup2\n  mstore\n  0x20\n  add\n    /* \"contracts/polygon/microcebus_main.sol\":1699:1700  8 */\n  0x08\n    /* \"contracts/polygon/microcebus_main.sol\":1671:1702  Token({adr: WBTC, decimals: 8}) */\n  dup2\n  mstore\n  pop\n    /* \"contracts/polygon/microcebus_main.sol\":1645:1660  token_contracts */\n  0x00\n    /* \"contracts/polygon/microcebus_main.sol\":1645:1668  token_contracts[\"WBTC\"] */\n  mload(0x40)\n  tag_14\n  swap1\n  tag_15\n  jump\t// in\ntag_14:\n  swap1\n  dup2\n  mstore\n  0x20\n  add\n  mload(0x40)\n  dup1\n  swap2\n  sub\n  swap1\n  keccak256\n    /* \"contracts/polygon/microcebus_main.sol\":1645:1702  token_contracts[\"WBTC\"] = Token({adr: WBTC, decimals: 8}) */\n  0x00\n  dup3\n  add\n  mload\n  dup2\n  0x00\n  add\n  exp(0x0100, 0x00)\n  dup2\n  sload\n  dup2\n  0xffffffffffffffffffffffffffffffffffffffff\n  mul\n  not\n  and\n  swap1\n  dup4\n  0xffffffffffffffffffffffffffffffffffffffff\n  and\n  mul\n  or\n  swap1\n  sstore\n  pop\n  0x20\n  dup3\n  add\n  mload\n  dup2\n  0x01\n  add\n  sstore\n  swap1\n  pop\n  pop\n    /* \"contracts/polygon/microcebus_main.sol\":1740:1774  Token({adr: DQUICK, decimals: 18}) */\n  mload(0x40)\n  dup1\n  0x40\n  add\n  0x40\n  mstore\n  dup1\n    /* \"contracts/polygon/microcebus_main.sol\":1066:1108  0xf28164A485B0B2C90639E47b0f377b4a438a16B1 */\n  0xf28164a485b0b2c90639e47b0f377b4a438a16b1\n    /* \"contracts/polygon/microcebus_main.sol\":1740:1774  Token({adr: DQUICK, decimals: 18}) */\n  0xffffffffffffffffffffffffffffffffffffffff\n  and\n  dup2\n  mstore\n  0x20\n  add\n    /* \"contracts/polygon/microcebus_main.sol\":1770:1772  18 */\n  0x12\n    /* \"contracts/polygon/microcebus_main.sol\":1740:1774  Token({adr: DQUICK, decimals: 18}) */\n  dup2\n  mstore\n  pop\n    /* \"contracts/polygon/microcebus_main.sol\":1712:1727  token_contracts */\n  0x00\n    /* \"contracts/polygon/microcebus_main.sol\":1712:1737  token_contracts[\"DQUICK\"] */\n  mload(0x40)\n  tag_16\n  swap1\n  tag_17\n  jump\t// in\ntag_16:\n  swap1\n  dup2\n  mstore\n  0x20\n  add\n  mload(0x40)\n  dup1\n  swap2\n  sub\n  swap1\n  keccak256\n    /* \"contracts/polygon/microcebus_main.sol\":1712:1774  token_contracts[\"DQUICK\"] = Token({adr: DQUICK, decimals: 18}) */\n  0x00\n  dup3\n  add\n  mload\n  dup2\n  0x00\n  add\n  exp(0x0100, 0x00)\n  dup2\n  sload\n  dup2\n  0xffffffffffffffffffffffffffffffffffffffff\n  mul\n  not\n  and\n  swap1\n  dup4\n  0xffffffffffffffffffffffffffffffffffffffff\n  and\n  mul\n  or\n  swap1\n  sstore\n  pop\n  0x20\n  dup3\n  add\n  mload\n  dup2\n  0x01\n  add\n  sstore\n  swap1\n  pop\n  pop\n    /* \"contracts/polygon/microcebus_main.sol\":94:5341  contract microcebus_main {... */\n  jump(tag_18)\n    /* \"#utility.yul\":7:407   */\ntag_20:\n    /* \"#utility.yul\":167:170   */\n  0x00\n    /* \"#utility.yul\":188:272   */\n  tag_22\n    /* \"#utility.yul\":270:271   */\n  0x04\n    /* \"#utility.yul\":265:268   */\n  dup4\n    /* \"#utility.yul\":188:272   */\n  tag_23\n  jump\t// in\ntag_22:\n    /* \"#utility.yul\":181:272   */\n  swap2\n  pop\n    /* \"#utility.yul\":281:374   */\n  tag_24\n    /* \"#utility.yul\":370:373   */\n  dup3\n    /* \"#utility.yul\":281:374   */\n  tag_25\n  jump\t// in\ntag_24:\n    /* \"#utility.yul\":399:400   */\n  0x04\n    /* \"#utility.yul\":394:397   */\n  dup3\n    /* \"#utility.yul\":390:401   */\n  add\n    /* \"#utility.yul\":383:401   */\n  swap1\n  pop\n    /* \"#utility.yul\":7:407   */\n  swap2\n  swap1\n  pop\n  jump\t// out\n    /* \"#utility.yul\":413:813   */\ntag_26:\n    /* \"#utility.yul\":573:576   */\n  0x00\n    /* \"#utility.yul\":594:678   */\n  tag_28\n    /* \"#utility.yul\":676:677   */\n  0x06\n    /* \"#utility.yul\":671:674   */\n  dup4\n    /* \"#utility.yul\":594:678   */\n  tag_23\n  jump\t// in\ntag_28:\n    /* \"#utility.yul\":587:678   */\n  swap2\n  pop\n    /* \"#utility.yul\":687:780   */\n  tag_29\n    /* \"#utility.yul\":776:779   */\n  dup3\n    /* \"#utility.yul\":687:780   */\n  tag_30\n  jump\t// in\ntag_29:\n    /* \"#utility.yul\":805:806   */\n  0x06\n    /* \"#utility.yul\":800:803   */\n  dup3\n    /* \"#utility.yul\":796:807   */\n  add\n    /* \"#utility.yul\":789:807   */\n  swap1\n  pop\n    /* \"#utility.yul\":413:813   */\n  swap2\n  swap1\n  pop\n  jump\t// out\n    /* \"#utility.yul\":819:1219   */\ntag_31:\n    /* \"#utility.yul\":979:982   */\n  0x00\n    /* \"#utility.yul\":1000:1084   */\n  tag_33\n    /* \"#utility.yul\":1082:1083   */\n  0x04\n    /* \"#utility.yul\":1077:1080   */\n  dup4\n    /* \"#utility.yul\":1000:1084   */\n  tag_23\n  jump\t// in\ntag_33:\n    /* \"#utility.yul\":993:1084   */\n  swap2\n  pop\n    /* \"#utility.yul\":1093:1186   */\n  tag_34\n    /* \"#utility.yul\":1182:1185   */\n  dup3\n    /* \"#utility.yul\":1093:1186   */\n  tag_35\n  jump\t// in\ntag_34:\n    /* \"#utility.yul\":1211:1212   */\n  0x04\n    /* \"#utility.yul\":1206:1209   */\n  dup3\n    /* \"#utility.yul\":1202:1213   */\n  add\n    /* \"#utility.yul\":1195:1213   */\n  swap1\n  pop\n    /* \"#utility.yul\":819:1219   */\n  swap2\n  swap1\n  pop\n  jump\t// out\n    /* \"#utility.yul\":1225:1625   */\ntag_36:\n    /* \"#utility.yul\":1385:1388   */\n  0x00\n    /* \"#utility.yul\":1406:1490   */\n  tag_38\n    /* \"#utility.yul\":1488:1489   */\n  0x04\n    /* \"#utility.yul\":1483:1486   */\n  dup4\n    /* \"#utility.yul\":1406:1490   */\n  tag_23\n  jump\t// in\ntag_38:\n    /* \"#utility.yul\":1399:1490   */\n  swap2\n  pop\n    /* \"#utility.yul\":1499:1592   */\n  tag_39\n    /* \"#utility.yul\":1588:1591   */\n  dup3\n    /* \"#utility.yul\":1499:1592   */\n  tag_40\n  jump\t// in\ntag_39:\n    /* \"#utility.yul\":1617:1618   */\n  0x04\n    /* \"#utility.yul\":1612:1615   */\n  dup3\n    /* \"#utility.yul\":1608:1619   */\n  add\n    /* \"#utility.yul\":1601:1619   */\n  swap1\n  pop\n    /* \"#utility.yul\":1225:1625   */\n  swap2\n  swap1\n  pop\n  jump\t// out\n    /* \"#utility.yul\":1631:2031   */\ntag_41:\n    /* \"#utility.yul\":1791:1794   */\n  0x00\n    /* \"#utility.yul\":1812:1896   */\n  tag_43\n    /* \"#utility.yul\":1894:1895   */\n  0x03\n    /* \"#utility.yul\":1889:1892   */\n  dup4\n    /* \"#utility.yul\":1812:1896   */\n  tag_23\n  jump\t// in\ntag_43:\n    /* \"#utility.yul\":1805:1896   */\n  swap2\n  pop\n    /* \"#utility.yul\":1905:1998   */\n  tag_44\n    /* \"#utility.yul\":1994:1997   */\n  dup3\n    /* \"#utility.yul\":1905:1998   */\n  tag_45\n  jump\t// in\ntag_44:\n    /* \"#utility.yul\":2023:2024   */\n  0x03\n    /* \"#utility.yul\":2018:2021   */\n  dup3\n    /* \"#utility.yul\":2014:2025   */\n  add\n    /* \"#utility.yul\":2007:2025   */\n  swap1\n  pop\n    /* \"#utility.yul\":1631:2031   */\n  swap2\n  swap1\n  pop\n  jump\t// out\n    /* \"#utility.yul\":2037:2437   */\ntag_46:\n    /* \"#utility.yul\":2197:2200   */\n  0x00\n    /* \"#utility.yul\":2218:2302   */\n  tag_48\n    /* \"#utility.yul\":2300:2301   */\n  0x04\n    /* \"#utility.yul\":2295:2298   */\n  dup4\n    /* \"#utility.yul\":2218:2302   */\n  tag_23\n  jump\t// in\ntag_48:\n    /* \"#utility.yul\":2211:2302   */\n  swap2\n  pop\n    /* \"#utility.yul\":2311:2404   */\n  tag_49\n    /* \"#utility.yul\":2400:2403   */\n  dup3\n    /* \"#utility.yul\":2311:2404   */\n  tag_50\n  jump\t// in\ntag_49:\n    /* \"#utility.yul\":2429:2430   */\n  0x04\n    /* \"#utility.yul\":2424:2427   */\n  dup3\n    /* \"#utility.yul\":2420:2431   */\n  add\n    /* \"#utility.yul\":2413:2431   */\n  swap1\n  pop\n    /* \"#utility.yul\":2037:2437   */\n  swap2\n  swap1\n  pop\n  jump\t// out\n    /* \"#utility.yul\":2443:2843   */\ntag_51:\n    /* \"#utility.yul\":2603:2606   */\n  0x00\n    /* \"#utility.yul\":2624:2708   */\n  tag_53\n    /* \"#utility.yul\":2706:2707   */\n  0x06\n    /* \"#utility.yul\":2701:2704   */\n  dup4\n    /* \"#utility.yul\":2624:2708   */\n  tag_23\n  jump\t// in\ntag_53:\n    /* \"#utility.yul\":2617:2708   */\n  swap2\n  pop\n    /* \"#utility.yul\":2717:2810   */\n  tag_54\n    /* \"#utility.yul\":2806:2809   */\n  dup3\n    /* \"#utility.yul\":2717:2810   */\n  tag_55\n  jump\t// in\ntag_54:\n    /* \"#utility.yul\":2835:2836   */\n  0x06\n    /* \"#utility.yul\":2830:2833   */\n  dup3\n    /* \"#utility.yul\":2826:2837   */\n  add\n    /* \"#utility.yul\":2819:2837   */\n  swap1\n  pop\n    /* \"#utility.yul\":2443:2843   */\n  swap2\n  swap1\n  pop\n  jump\t// out\n    /* \"#utility.yul\":2849:3230   */\ntag_7:\n    /* \"#utility.yul\":3034:3037   */\n  0x00\n    /* \"#utility.yul\":3056:3204   */\n  tag_57\n    /* \"#utility.yul\":3200:3203   */\n  dup3\n    /* \"#utility.yul\":3056:3204   */\n  tag_20\n  jump\t// in\ntag_57:\n    /* \"#utility.yul\":3049:3204   */\n  swap2\n  pop\n    /* \"#utility.yul\":3221:3224   */\n  dup2\n    /* \"#utility.yul\":3214:3224   */\n  swap1\n  pop\n    /* \"#utility.yul\":2849:3230   */\n  swap2\n  swap1\n  pop\n  jump\t// out\n    /* \"#utility.yul\":3236:3617   */\ntag_17:\n    /* \"#utility.yul\":3421:3424   */\n  0x00\n    /* \"#utility.yul\":3443:3591   */\n  tag_59\n    /* \"#utility.yul\":3587:3590   */\n  dup3\n    /* \"#utility.yul\":3443:3591   */\n  tag_26\n  jump\t// in\ntag_59:\n    /* \"#utility.yul\":3436:3591   */\n  swap2\n  pop\n    /* \"#utility.yul\":3608:3611   */\n  dup2\n    /* \"#utility.yul\":3601:3611   */\n  swap1\n  pop\n    /* \"#utility.yul\":3236:3617   */\n  swap2\n  swap1\n  pop\n  jump\t// out\n    /* \"#utility.yul\":3623:4004   */\ntag_13:\n    /* \"#utility.yul\":3808:3811   */\n  0x00\n    /* \"#utility.yul\":3830:3978   */\n  tag_61\n    /* \"#utility.yul\":3974:3977   */\n  dup3\n    /* \"#utility.yul\":3830:3978   */\n  tag_31\n  jump\t// in\ntag_61:\n    /* \"#utility.yul\":3823:3978   */\n  swap2\n  pop\n    /* \"#utility.yul\":3995:3998   */\n  dup2\n    /* \"#utility.yul\":3988:3998   */\n  swap1\n  pop\n    /* \"#utility.yul\":3623:4004   */\n  swap2\n  swap1\n  pop\n  jump\t// out\n    /* \"#utility.yul\":4010:4391   */\ntag_15:\n    /* \"#utility.yul\":4195:4198   */\n  0x00\n    /* \"#utility.yul\":4217:4365   */\n  tag_63\n    /* \"#utility.yul\":4361:4364   */\n  dup3\n    /* \"#utility.yul\":4217:4365   */\n  tag_36\n  jump\t// in\ntag_63:\n    /* \"#utility.yul\":4210:4365   */\n  swap2\n  pop\n    /* \"#utility.yul\":4382:4385   */\n  dup2\n    /* \"#utility.yul\":4375:4385   */\n  swap1\n  pop\n    /* \"#utility.yul\":4010:4391   */\n  swap2\n  swap1\n  pop\n  jump\t// out\n    /* \"#utility.yul\":4397:4778   */\ntag_5:\n    /* \"#utility.yul\":4582:4585   */\n  0x00\n    /* \"#utility.yul\":4604:4752   */\n  tag_65\n    /* \"#utility.yul\":4748:4751   */\n  dup3\n    /* \"#utility.yul\":4604:4752   */\n  tag_41\n  jump\t// in\ntag_65:\n    /* \"#utility.yul\":4597:4752   */\n  swap2\n  pop\n    /* \"#utility.yul\":4769:4772   */\n  dup2\n    /* \"#utility.yul\":4762:4772   */\n  swap1\n  pop\n    /* \"#utility.yul\":4397:4778   */\n  swap2\n  swap1\n  pop\n  jump\t// out\n    /* \"#utility.yul\":4784:5165   */\ntag_11:\n    /* \"#utility.yul\":4969:4972   */\n  0x00\n    /* \"#utility.yul\":4991:5139   */\n  tag_67\n    /* \"#utility.yul\":5135:5138   */\n  dup3\n    /* \"#utility.yul\":4991:5139   */\n  tag_46\n  jump\t// in\ntag_67:\n    /* \"#utility.yul\":4984:5139   */\n  swap2\n  pop\n    /* \"#utility.yul\":5156:5159   */\n  dup2\n    /* \"#utility.yul\":5149:5159   */\n  swap1\n  pop\n    /* \"#utility.yul\":4784:5165   */\n  swap2\n  swap1\n  pop\n  jump\t// out\n    /* \"#utility.yul\":5171:5552   */\ntag_9:\n    /* \"#utility.yul\":5356:5359   */\n  0x00\n    /* \"#utility.yul\":5378:5526   */\n  tag_69\n    /* \"#utility.yul\":5522:5525   */\n  dup3\n    /* \"#utility.yul\":5378:5526   */\n  tag_51\n  jump\t// in\ntag_69:\n    /* \"#utility.yul\":5371:5526   */\n  swap2\n  pop\n    /* \"#utility.yul\":5543:5546   */\n  dup2\n    /* \"#utility.yul\":5536:5546   */\n  swap1\n  pop\n    /* \"#utility.yul\":5171:5552   */\n  swap2\n  swap1\n  pop\n  jump\t// out\n    /* \"#utility.yul\":5558:5706   */\ntag_23:\n    /* \"#utility.yul\":5660:5671   */\n  0x00\n    /* \"#utility.yul\":5697:5700   */\n  dup2\n    /* \"#utility.yul\":5682:5700   */\n  swap1\n  pop\n    /* \"#utility.yul\":5558:5706   */\n  swap3\n  swap2\n  pop\n  pop\n  jump\t// out\n    /* \"#utility.yul\":5712:5866   */\ntag_25:\n    /* \"#utility.yul\":5852:5858   */\n  0x5745544800000000000000000000000000000000000000000000000000000000\n    /* \"#utility.yul\":5848:5849   */\n  0x00\n    /* \"#utility.yul\":5840:5846   */\n  dup3\n    /* \"#utility.yul\":5836:5850   */\n  add\n    /* \"#utility.yul\":5829:5859   */\n  mstore\n    /* \"#utility.yul\":5712:5866   */\n  pop\n  jump\t// out\n    /* \"#utility.yul\":5872:6028   */\ntag_30:\n    /* \"#utility.yul\":6012:6020   */\n  0x44515549434b0000000000000000000000000000000000000000000000000000\n    /* \"#utility.yul\":6008:6009   */\n  0x00\n    /* \"#utility.yul\":6000:6006   */\n  dup3\n    /* \"#utility.yul\":5996:6010   */\n  add\n    /* \"#utility.yul\":5989:6021   */\n  mstore\n    /* \"#utility.yul\":5872:6028   */\n  pop\n  jump\t// out\n    /* \"#utility.yul\":6034:6188   */\ntag_35:\n    /* \"#utility.yul\":6174:6180   */\n  0x5553445400000000000000000000000000000000000000000000000000000000\n    /* \"#utility.yul\":6170:6171   */\n  0x00\n    /* \"#utility.yul\":6162:6168   */\n  dup3\n    /* \"#utility.yul\":6158:6172   */\n  add\n    /* \"#utility.yul\":6151:6181   */\n  mstore\n    /* \"#utility.yul\":6034:6188   */\n  pop\n  jump\t// out\n    /* \"#utility.yul\":6194:6348   */\ntag_40:\n    /* \"#utility.yul\":6334:6340   */\n  0x5742544300000000000000000000000000000000000000000000000000000000\n    /* \"#utility.yul\":6330:6331   */\n  0x00\n    /* \"#utility.yul\":6322:6328   */\n  dup3\n    /* \"#utility.yul\":6318:6332   */\n  add\n    /* \"#utility.yul\":6311:6341   */\n  mstore\n    /* \"#utility.yul\":6194:6348   */\n  pop\n  jump\t// out\n    /* \"#utility.yul\":6354:6507   */\ntag_45:\n    /* \"#utility.yul\":6494:6499   */\n  0x4441490000000000000000000000000000000000000000000000000000000000\n    /* \"#utility.yul\":6490:6491   */\n  0x00\n    /* \"#utility.yul\":6482:6488   */\n  dup3\n    /* \"#utility.yul\":6478:6492   */\n  add\n    /* \"#utility.yul\":6471:6500   */\n  mstore\n    /* \"#utility.yul\":6354:6507   */\n  pop\n  jump\t// out\n    /* \"#utility.yul\":6513:6667   */\ntag_50:\n    /* \"#utility.yul\":6653:6659   */\n  0x5553444300000000000000000000000000000000000000000000000000000000\n    /* \"#utility.yul\":6649:6650   */\n  0x00\n    /* \"#utility.yul\":6641:6647   */\n  dup3\n    /* \"#utility.yul\":6637:6651   */\n  add\n    /* \"#utility.yul\":6630:6660   */\n  mstore\n    /* \"#utility.yul\":6513:6667   */\n  pop\n  jump\t// out\n    /* \"#utility.yul\":6673:6829   */\ntag_55:\n    /* \"#utility.yul\":6813:6821   */\n  0x574d415449430000000000000000000000000000000000000000000000000000\n    /* \"#utility.yul\":6809:6810   */\n  0x00\n    /* \"#utility.yul\":6801:6807   */\n  dup3\n    /* \"#utility.yul\":6797:6811   */\n  add\n    /* \"#utility.yul\":6790:6822   */\n  mstore\n    /* \"#utility.yul\":6673:6829   */\n  pop\n  jump\t// out\n    /* \"contracts/polygon/microcebus_main.sol\":94:5341  contract microcebus_main {... */\ntag_18:\n  dataSize(sub_0)\n  dup1\n  dataOffset(sub_0)\n  0x00\n  codecopy\n  0x00\n  return\nstop\n\nsub_0: assembly {\n        /* \"contracts/polygon/microcebus_main.sol\":94:5341  contract microcebus_main {... */\n      mstore(0x40, 0x80)\n      jumpi(tag_1, lt(calldatasize, 0x04))\n      shr(0xe0, calldataload(0x00))\n      dup1\n      0x9bc97dee\n      gt\n      tag_11\n      jumpi\n      dup1\n      0x9bc97dee\n      eq\n      tag_7\n      jumpi\n      dup1\n      0xc3a48401\n      eq\n      tag_8\n      jumpi\n      dup1\n      0xe4386ba3\n      eq\n      tag_9\n      jumpi\n      dup1\n      0xf809a2e6\n      eq\n      tag_10\n      jumpi\n      jump(tag_2)\n    tag_11:\n      dup1\n      0x6d336d6a\n      eq\n      tag_3\n      jumpi\n      dup1\n      0x7552acd6\n      eq\n      tag_4\n      jumpi\n      dup1\n      0x7b60eb23\n      eq\n      tag_5\n      jumpi\n      dup1\n      0x7d3683ba\n      eq\n      tag_6\n      jumpi\n      jump(tag_2)\n    tag_1:\n      jumpi(tag_2, calldatasize)\n      stop\n    tag_2:\n      0x00\n      dup1\n      revert\n        /* \"contracts/polygon/microcebus_main.sol\":4065:4515  function get_amounts_out(... */\n    tag_3:\n      callvalue\n      dup1\n      iszero\n      tag_14\n      jumpi\n      0x00\n      dup1\n      revert\n    tag_14:\n      pop\n      tag_15\n      0x04\n      dup1\n      calldatasize\n      sub\n      dup2\n      add\n      swap1\n      tag_16\n      swap2\n      swap1\n      tag_17\n      jump\t// in\n    tag_16:\n      tag_18\n      jump\t// in\n    tag_15:\n      mload(0x40)\n      tag_19\n      swap2\n      swap1\n      tag_20\n      jump\t// in\n    tag_19:\n      mload(0x40)\n      dup1\n      swap2\n      sub\n      swap1\n      return\n        /* \"contracts/polygon/microcebus_main.sol\":2564:2906  function transfer_token(string memory _token_in_identifier, address _token_receiver, uint256 _amount)... */\n    tag_4:\n      callvalue\n      dup1\n      iszero\n      tag_21\n      jumpi\n      0x00\n      dup1\n      revert\n    tag_21:\n      pop\n      tag_22\n      0x04\n      dup1\n      calldatasize\n      sub\n      dup2\n      add\n      swap1\n      tag_23\n      swap2\n      swap1\n      tag_24\n      jump\t// in\n    tag_23:\n      tag_25\n      jump\t// in\n    tag_22:\n      stop\n        /* \"contracts/polygon/microcebus_main.sol\":2181:2510  function receive_wmatic() external payable {... */\n    tag_5:\n      tag_26\n      tag_27\n      jump\t// in\n    tag_26:\n      stop\n        /* \"contracts/polygon/microcebus_main.sol\":4818:5017  function get_token_balance_sender(string memory _token_identifier) external view returns(uint256) {... */\n    tag_6:\n      callvalue\n      dup1\n      iszero\n      tag_28\n      jumpi\n      0x00\n      dup1\n      revert\n    tag_28:\n      pop\n      tag_29\n      0x04\n      dup1\n      calldatasize\n      sub\n      dup2\n      add\n      swap1\n      tag_30\n      swap2\n      swap1\n      tag_31\n      jump\t// in\n    tag_30:\n      tag_32\n      jump\t// in\n    tag_29:\n      mload(0x40)\n      tag_33\n      swap2\n      swap1\n      tag_34\n      jump\t// in\n    tag_33:\n      mload(0x40)\n      dup1\n      swap2\n      sub\n      swap1\n      return\n        /* \"contracts/polygon/microcebus_main.sol\":2952:3277  function transfer_token_to_contract(string memory _token_in_identifier, uint256 _amount)... */\n    tag_7:\n      callvalue\n      dup1\n      iszero\n      tag_35\n      jumpi\n      0x00\n      dup1\n      revert\n    tag_35:\n      pop\n      tag_36\n      0x04\n      dup1\n      calldatasize\n      sub\n      dup2\n      add\n      swap1\n      tag_37\n      swap2\n      swap1\n      tag_38\n      jump\t// in\n    tag_37:\n      tag_39\n      jump\t// in\n    tag_36:\n      stop\n        /* \"contracts/polygon/microcebus_main.sol\":4554:4770  function get_token_balance(string memory _token_identifier, address _token_owner) external view returns(uint256) {... */\n    tag_8:\n      callvalue\n      dup1\n      iszero\n      tag_40\n      jumpi\n      0x00\n      dup1\n      revert\n    tag_40:\n      pop\n      tag_41\n      0x04\n      dup1\n      calldatasize\n      sub\n      dup2\n      add\n      swap1\n      tag_42\n      swap2\n      swap1\n      tag_43\n      jump\t// in\n    tag_42:\n      tag_44\n      jump\t// in\n    tag_41:\n      mload(0x40)\n      tag_45\n      swap2\n      swap1\n      tag_34\n      jump\t// in\n    tag_45:\n      mload(0x40)\n      dup1\n      swap2\n      sub\n      swap1\n      return\n        /* \"contracts/polygon/microcebus_main.sol\":5067:5271  function get_token_balance_contract(string memory _token_identifier) external view returns(uint256) {... */\n    tag_9:\n      callvalue\n      dup1\n      iszero\n      tag_46\n      jumpi\n      0x00\n      dup1\n      revert\n    tag_46:\n      pop\n      tag_47\n      0x04\n      dup1\n      calldatasize\n      sub\n      dup2\n      add\n      swap1\n      tag_48\n      swap2\n      swap1\n      tag_31\n      jump\t// in\n    tag_48:\n      tag_49\n      jump\t// in\n    tag_47:\n      mload(0x40)\n      tag_50\n      swap2\n      swap1\n      tag_34\n      jump\t// in\n    tag_50:\n      mload(0x40)\n      dup1\n      swap2\n      sub\n      swap1\n      return\n        /* \"contracts/polygon/microcebus_main.sol\":3318:4036  function swap_exact_tokens_for_tokens(uint256 _amount_in, uint _amount_out_min, string memory _token_in_identifier,... */\n    tag_10:\n      callvalue\n      dup1\n      iszero\n      tag_51\n      jumpi\n      0x00\n      dup1\n      revert\n    tag_51:\n      pop\n      tag_52\n      0x04\n      dup1\n      calldatasize\n      sub\n      dup2\n      add\n      swap1\n      tag_53\n      swap2\n      swap1\n      tag_54\n      jump\t// in\n    tag_53:\n      tag_55\n      jump\t// in\n    tag_52:\n      stop\n        /* \"contracts/polygon/microcebus_main.sol\":4065:4515  function get_amounts_out(... */\n    tag_18:\n        /* \"contracts/polygon/microcebus_main.sol\":4216:4232  uint256[] memory */\n      0x60\n        /* \"contracts/polygon/microcebus_main.sol\":4244:4265  address[] memory path */\n      dup1\n        /* \"contracts/polygon/microcebus_main.sol\":4296:4297  2 */\n      0x02\n        /* \"contracts/polygon/microcebus_main.sol\":4282:4298  new address[](2) */\n      0xffffffffffffffff\n      dup2\n      gt\n      iszero\n      tag_57\n      jumpi\n      tag_58\n      tag_59\n      jump\t// in\n    tag_58:\n    tag_57:\n      mload(0x40)\n      swap1\n      dup1\n      dup3\n      mstore\n      dup1\n      0x20\n      mul\n      0x20\n      add\n      dup3\n      add\n      0x40\n      mstore\n      dup1\n      iszero\n      tag_60\n      jumpi\n      dup2\n      0x20\n      add\n      0x20\n      dup3\n      mul\n      dup1\n      calldatasize\n      dup4\n      calldatacopy\n      dup1\n      dup3\n      add\n      swap2\n      pop\n      pop\n      swap1\n      pop\n    tag_60:\n      pop\n        /* \"contracts/polygon/microcebus_main.sol\":4275:4298  path = new address[](2) */\n      swap1\n      pop\n        /* \"contracts/polygon/microcebus_main.sol\":4318:4333  token_contracts */\n      0x00\n        /* \"contracts/polygon/microcebus_main.sol\":4334:4354  _token_in_identifier */\n      dup5\n        /* \"contracts/polygon/microcebus_main.sol\":4318:4355  token_contracts[_token_in_identifier] */\n      mload(0x40)\n      tag_61\n      swap2\n      swap1\n      tag_62\n      jump\t// in\n    tag_61:\n      swap1\n      dup2\n      mstore\n      0x20\n      add\n      mload(0x40)\n      dup1\n      swap2\n      sub\n      swap1\n      keccak256\n        /* \"contracts/polygon/microcebus_main.sol\":4318:4359  token_contracts[_token_in_identifier].adr */\n      0x00\n      add\n      0x00\n      swap1\n      sload\n      swap1\n      0x0100\n      exp\n      swap1\n      div\n      0xffffffffffffffffffffffffffffffffffffffff\n      and\n        /* \"contracts/polygon/microcebus_main.sol\":4308:4312  path */\n      dup2\n        /* \"contracts/polygon/microcebus_main.sol\":4313:4314  0 */\n      0x00\n        /* \"contracts/polygon/microcebus_main.sol\":4308:4315  path[0] */\n      dup2\n      mload\n      dup2\n      lt\n      tag_63\n      jumpi\n      tag_64\n      tag_65\n      jump\t// in\n    tag_64:\n    tag_63:\n      0x20\n      mul\n      0x20\n      add\n      add\n        /* \"contracts/polygon/microcebus_main.sol\":4308:4359  path[0] = token_contracts[_token_in_identifier].adr */\n      swap1\n      0xffffffffffffffffffffffffffffffffffffffff\n      and\n      swap1\n      dup2\n      0xffffffffffffffffffffffffffffffffffffffff\n      and\n      dup2\n      mstore\n      pop\n      pop\n        /* \"contracts/polygon/microcebus_main.sol\":4379:4394  token_contracts */\n      0x00\n        /* \"contracts/polygon/microcebus_main.sol\":4395:4416  _token_out_identifier */\n      dup4\n        /* \"contracts/polygon/microcebus_main.sol\":4379:4417  token_contracts[_token_out_identifier] */\n      mload(0x40)\n      tag_66\n      swap2\n      swap1\n      tag_62\n      jump\t// in\n    tag_66:\n      swap1\n      dup2\n      mstore\n      0x20\n      add\n      mload(0x40)\n      dup1\n      swap2\n      sub\n      swap1\n      keccak256\n        /* \"contracts/polygon/microcebus_main.sol\":4379:4421  token_contracts[_token_out_identifier].adr */\n      0x00\n      add\n      0x00\n      swap1\n      sload\n      swap1\n      0x0100\n      exp\n      swap1\n      div\n      0xffffffffffffffffffffffffffffffffffffffff\n      and\n        /* \"contracts/polygon/microcebus_main.sol\":4369:4373  path */\n      dup2\n        /* \"contracts/polygon/microcebus_main.sol\":4374:4375  1 */\n      0x01\n        /* \"contracts/polygon/microcebus_main.sol\":4369:4376  path[1] */\n      dup2\n      mload\n      dup2\n      lt\n      tag_67\n      jumpi\n      tag_68\n      tag_65\n      jump\t// in\n    tag_68:\n    tag_67:\n      0x20\n      mul\n      0x20\n      add\n      add\n        /* \"contracts/polygon/microcebus_main.sol\":4369:4421  path[1] = token_contracts[_token_out_identifier].adr */\n      swap1\n      0xffffffffffffffffffffffffffffffffffffffff\n      and\n      swap1\n      dup2\n      0xffffffffffffffffffffffffffffffffffffffff\n      and\n      dup2\n      mstore\n      pop\n      pop\n        /* \"contracts/polygon/microcebus_main.sol\":643:685  0xa5E0829CaCEd8fFDD4De3c43696c57F7D7A678ff */\n      0xa5e0829caced8ffdd4de3c43696c57f7d7a678ff\n        /* \"contracts/polygon/microcebus_main.sol\":4438:4489  IUniswapV2Router02(UniswapV2Router02).getAmountsOut */\n      0xffffffffffffffffffffffffffffffffffffffff\n      and\n      0xd06ca61f\n        /* \"contracts/polygon/microcebus_main.sol\":4490:4500  _amount_in */\n      dup7\n        /* \"contracts/polygon/microcebus_main.sol\":4502:4506  path */\n      dup4\n        /* \"contracts/polygon/microcebus_main.sol\":4438:4507  IUniswapV2Router02(UniswapV2Router02).getAmountsOut(_amount_in, path) */\n      mload(0x40)\n      dup4\n      0xffffffff\n      and\n      0xe0\n      shl\n      dup2\n      mstore\n      0x04\n      add\n      tag_69\n      swap3\n      swap2\n      swap1\n      tag_70\n      jump\t// in\n    tag_69:\n      0x00\n      mload(0x40)\n      dup1\n      dup4\n      sub\n      dup2\n      dup7\n      dup1\n      extcodesize\n      iszero\n      dup1\n      iszero\n      tag_71\n      jumpi\n      0x00\n      dup1\n      revert\n    tag_71:\n      pop\n      gas\n      staticcall\n      iszero\n      dup1\n      iszero\n      tag_73\n      jumpi\n      returndatasize\n      0x00\n      dup1\n      returndatacopy\n      revert(0x00, returndatasize)\n    tag_73:\n      pop\n      pop\n      pop\n      pop\n      mload(0x40)\n      returndatasize\n      0x00\n      dup3\n      returndatacopy\n      returndatasize\n      not(0x1f)\n      0x1f\n      dup3\n      add\n      and\n      dup3\n      add\n      dup1\n      0x40\n      mstore\n      pop\n      dup2\n      add\n      swap1\n      tag_74\n      swap2\n      swap1\n      tag_75\n      jump\t// in\n    tag_74:\n        /* \"contracts/polygon/microcebus_main.sol\":4431:4508  return(IUniswapV2Router02(UniswapV2Router02).getAmountsOut(_amount_in, path)) */\n      swap2\n      pop\n      pop\n        /* \"contracts/polygon/microcebus_main.sol\":4065:4515  function get_amounts_out(... */\n      swap4\n      swap3\n      pop\n      pop\n      pop\n      jump\t// out\n        /* \"contracts/polygon/microcebus_main.sol\":2564:2906  function transfer_token(string memory _token_in_identifier, address _token_receiver, uint256 _amount)... */\n    tag_25:\n        /* \"contracts/polygon/microcebus_main.sol\":2693:2708  token_contracts */\n      0x00\n        /* \"contracts/polygon/microcebus_main.sol\":2709:2729  _token_in_identifier */\n      dup4\n        /* \"contracts/polygon/microcebus_main.sol\":2693:2730  token_contracts[_token_in_identifier] */\n      mload(0x40)\n      tag_76\n      swap2\n      swap1\n      tag_62\n      jump\t// in\n    tag_76:\n      swap1\n      dup2\n      mstore\n      0x20\n      add\n      mload(0x40)\n      dup1\n      swap2\n      sub\n      swap1\n      keccak256\n        /* \"contracts/polygon/microcebus_main.sol\":2693:2734  token_contracts[_token_in_identifier].adr */\n      0x00\n      add\n      0x00\n      swap1\n      sload\n      swap1\n      0x0100\n      exp\n      swap1\n      div\n      0xffffffffffffffffffffffffffffffffffffffff\n      and\n        /* \"contracts/polygon/microcebus_main.sol\":2736:2746  msg.sender */\n      caller\n        /* \"contracts/polygon/microcebus_main.sol\":2748:2763  _token_receiver */\n      dup4\n        /* \"contracts/polygon/microcebus_main.sol\":2765:2772  _amount */\n      dup4\n        /* \"contracts/polygon/microcebus_main.sol\":2007:2014  _amount */\n      dup1\n        /* \"contracts/polygon/microcebus_main.sol\":1946:1960  _token_address */\n      dup5\n        /* \"contracts/polygon/microcebus_main.sol\":1939:1971  iERC20(_token_address).allowance */\n      0xffffffffffffffffffffffffffffffffffffffff\n      and\n      0xdd62ed3e\n        /* \"contracts/polygon/microcebus_main.sol\":1972:1985  _token_sender */\n      dup6\n        /* \"contracts/polygon/microcebus_main.sol\":1987:2002  _token_receiver */\n      dup6\n        /* \"contracts/polygon/microcebus_main.sol\":1939:2003  iERC20(_token_address).allowance(_token_sender, _token_receiver) */\n      mload(0x40)\n      dup4\n      0xffffffff\n      and\n      0xe0\n      shl\n      dup2\n      mstore\n      0x04\n      add\n      tag_78\n      swap3\n      swap2\n      swap1\n      tag_79\n      jump\t// in\n    tag_78:\n      0x20\n      mload(0x40)\n      dup1\n      dup4\n      sub\n      dup2\n      dup7\n      dup1\n      extcodesize\n      iszero\n      dup1\n      iszero\n      tag_80\n      jumpi\n      0x00\n      dup1\n      revert\n    tag_80:\n      pop\n      gas\n      staticcall\n      iszero\n      dup1\n      iszero\n      tag_82\n      jumpi\n      returndatasize\n      0x00\n      dup1\n      returndatacopy\n      revert(0x00, returndatasize)\n    tag_82:\n      pop\n      pop\n      pop\n      pop\n      mload(0x40)\n      returndatasize\n      not(0x1f)\n      0x1f\n      dup3\n      add\n      and\n      dup3\n      add\n      dup1\n      0x40\n      mstore\n      pop\n      dup2\n      add\n      swap1\n      tag_83\n      swap2\n      swap1\n      tag_84\n      jump\t// in\n    tag_83:\n        /* \"contracts/polygon/microcebus_main.sol\":1939:2014  iERC20(_token_address).allowance(_token_sender, _token_receiver) >= _amount */\n      lt\n      iszero\n        /* \"contracts/polygon/microcebus_main.sol\":1931:2083  require(iERC20(_token_address).allowance(_token_sender, _token_receiver) >= _amount,... */\n      tag_85\n      jumpi\n      mload(0x40)\n      0x08c379a000000000000000000000000000000000000000000000000000000000\n      dup2\n      mstore\n      0x04\n      add\n      tag_86\n      swap1\n      tag_87\n      jump\t// in\n    tag_86:\n      mload(0x40)\n      dup1\n      swap2\n      sub\n      swap1\n      revert\n    tag_85:\n        /* \"contracts/polygon/microcebus_main.sol\":2802:2817  token_contracts */\n      0x00\n        /* \"contracts/polygon/microcebus_main.sol\":2818:2838  _token_in_identifier */\n      dup8\n        /* \"contracts/polygon/microcebus_main.sol\":2802:2839  token_contracts[_token_in_identifier] */\n      mload(0x40)\n      tag_89\n      swap2\n      swap1\n      tag_62\n      jump\t// in\n    tag_89:\n      swap1\n      dup2\n      mstore\n      0x20\n      add\n      mload(0x40)\n      dup1\n      swap2\n      sub\n      swap1\n      keccak256\n        /* \"contracts/polygon/microcebus_main.sol\":2802:2843  token_contracts[_token_in_identifier].adr */\n      0x00\n      add\n      0x00\n      swap1\n      sload\n      swap1\n      0x0100\n      exp\n      swap1\n      div\n      0xffffffffffffffffffffffffffffffffffffffff\n      and\n        /* \"contracts/polygon/microcebus_main.sol\":2795:2857  iERC20(token_contracts[_token_in_identifier].adr).transferFrom */\n      0xffffffffffffffffffffffffffffffffffffffff\n      and\n      0x23b872dd\n        /* \"contracts/polygon/microcebus_main.sol\":2858:2868  msg.sender */\n      caller\n        /* \"contracts/polygon/microcebus_main.sol\":2870:2885  _token_receiver */\n      dup9\n        /* \"contracts/polygon/microcebus_main.sol\":2887:2894  _amount */\n      dup9\n        /* \"contracts/polygon/microcebus_main.sol\":2795:2895  iERC20(token_contracts[_token_in_identifier].adr).transferFrom(msg.sender, _token_receiver, _amount) */\n      mload(0x40)\n      dup5\n      0xffffffff\n      and\n      0xe0\n      shl\n      dup2\n      mstore\n      0x04\n      add\n      tag_90\n      swap4\n      swap3\n      swap2\n      swap1\n      tag_91\n      jump\t// in\n    tag_90:\n      0x20\n      mload(0x40)\n      dup1\n      dup4\n      sub\n      dup2\n      0x00\n      dup8\n      dup1\n      extcodesize\n      iszero\n      dup1\n      iszero\n      tag_92\n      jumpi\n      0x00\n      dup1\n      revert\n    tag_92:\n      pop\n      gas\n      call\n      iszero\n      dup1\n      iszero\n      tag_94\n      jumpi\n      returndatasize\n      0x00\n      dup1\n      returndatacopy\n      revert(0x00, returndatasize)\n    tag_94:\n      pop\n      pop\n      pop\n      pop\n      mload(0x40)\n      returndatasize\n      not(0x1f)\n      0x1f\n      dup3\n      add\n      and\n      dup3\n      add\n      dup1\n      0x40\n      mstore\n      pop\n      dup2\n      add\n      swap1\n      tag_95\n      swap2\n      swap1\n      tag_96\n      jump\t// in\n    tag_95:\n      pop\n        /* \"contracts/polygon/microcebus_main.sol\":2564:2906  function transfer_token(string memory _token_in_identifier, address _token_receiver, uint256 _amount)... */\n      pop\n      pop\n      pop\n      pop\n      pop\n      pop\n      pop\n      jump\t// out\n        /* \"contracts/polygon/microcebus_main.sol\":2181:2510  function receive_wmatic() external payable {... */\n    tag_27:\n        /* \"contracts/polygon/microcebus_main.sol\":2239:2251  bool success */\n      0x00\n        /* \"contracts/polygon/microcebus_main.sol\":2253:2270  bytes memory data */\n      dup1\n        /* \"contracts/polygon/microcebus_main.sol\":2274:2289  token_contracts */\n      0x00\n        /* \"contracts/polygon/microcebus_main.sol\":2274:2299  token_contracts[\"WMATIC\"] */\n      mload(0x40)\n      tag_98\n      swap1\n      tag_99\n      jump\t// in\n    tag_98:\n      swap1\n      dup2\n      mstore\n      0x20\n      add\n      mload(0x40)\n      dup1\n      swap2\n      sub\n      swap1\n      keccak256\n        /* \"contracts/polygon/microcebus_main.sol\":2274:2303  token_contracts[\"WMATIC\"].adr */\n      0x00\n      add\n      0x00\n      swap1\n      sload\n      swap1\n      0x0100\n      exp\n      swap1\n      div\n      0xffffffffffffffffffffffffffffffffffffffff\n      and\n        /* \"contracts/polygon/microcebus_main.sol\":2274:2308  token_contracts[\"WMATIC\"].adr.call */\n      0xffffffffffffffffffffffffffffffffffffffff\n      and\n        /* \"contracts/polygon/microcebus_main.sol\":2316:2325  msg.value */\n      callvalue\n        /* \"contracts/polygon/microcebus_main.sol\":2327:2354  abi.encodeWithSignature(\"\") */\n      add(0x24, mload(0x40))\n      mload(0x40)\n      0x20\n      dup2\n      dup4\n      sub\n      sub\n      dup2\n      mstore\n      swap1\n      0x40\n      mstore\n      and(not(0xffffffffffffffffffffffffffffffffffffffffffffffffffffffff), 0xc5d2460100000000000000000000000000000000000000000000000000000000)\n      0x20\n      dup3\n      add\n      dup1\n      mload\n      0xffffffffffffffffffffffffffffffffffffffffffffffffffffffff\n      dup4\n      dup2\n      dup4\n      and\n      or\n      dup4\n      mstore\n      pop\n      pop\n      pop\n      pop\n        /* \"contracts/polygon/microcebus_main.sol\":2274:2355  token_contracts[\"WMATIC\"].adr.call{value: msg.value}(abi.encodeWithSignature(\"\")) */\n      mload(0x40)\n      tag_100\n      swap2\n      swap1\n      tag_101\n      jump\t// in\n    tag_100:\n      0x00\n      mload(0x40)\n      dup1\n      dup4\n      sub\n      dup2\n      dup6\n      dup8\n      gas\n      call\n      swap3\n      pop\n      pop\n      pop\n      returndatasize\n      dup1\n      0x00\n      dup2\n      eq\n      tag_104\n      jumpi\n      mload(0x40)\n      swap2\n      pop\n      and(add(returndatasize, 0x3f), not(0x1f))\n      dup3\n      add\n      0x40\n      mstore\n      returndatasize\n      dup3\n      mstore\n      returndatasize\n      0x00\n      0x20\n      dup5\n      add\n      returndatacopy\n      jump(tag_103)\n    tag_104:\n      0x60\n      swap2\n      pop\n    tag_103:\n      pop\n        /* \"contracts/polygon/microcebus_main.sol\":2238:2355  (bool success, bytes memory data) = token_contracts[\"WMATIC\"].adr.call{value: msg.value}(abi.encodeWithSignature(\"\")) */\n      swap2\n      pop\n      swap2\n      pop\n        /* \"contracts/polygon/microcebus_main.sol\":2376:2391  token_contracts */\n      0x00\n        /* \"contracts/polygon/microcebus_main.sol\":2376:2401  token_contracts[\"WMATIC\"] */\n      mload(0x40)\n      tag_105\n      swap1\n      tag_99\n      jump\t// in\n    tag_105:\n      swap1\n      dup2\n      mstore\n      0x20\n      add\n      mload(0x40)\n      dup1\n      swap2\n      sub\n      swap1\n      keccak256\n        /* \"contracts/polygon/microcebus_main.sol\":2376:2405  token_contracts[\"WMATIC\"].adr */\n      0x00\n      add\n      0x00\n      swap1\n      sload\n      swap1\n      0x0100\n      exp\n      swap1\n      div\n      0xffffffffffffffffffffffffffffffffffffffff\n      and\n        /* \"contracts/polygon/microcebus_main.sol\":2369:2419  iERC20(token_contracts[\"WMATIC\"].adr).transferFrom */\n      0xffffffffffffffffffffffffffffffffffffffff\n      and\n      0x23b872dd\n        /* \"contracts/polygon/microcebus_main.sol\":2428:2432  this */\n      address\n        /* \"contracts/polygon/microcebus_main.sol\":2435:2445  msg.sender */\n      caller\n        /* \"contracts/polygon/microcebus_main.sol\":2447:2456  msg.value */\n      callvalue\n        /* \"contracts/polygon/microcebus_main.sol\":2369:2457  iERC20(token_contracts[\"WMATIC\"].adr).transferFrom(address(this), msg.sender, msg.value) */\n      mload(0x40)\n      dup5\n      0xffffffff\n      and\n      0xe0\n      shl\n      dup2\n      mstore\n      0x04\n      add\n      tag_106\n      swap4\n      swap3\n      swap2\n      swap1\n      tag_91\n      jump\t// in\n    tag_106:\n      0x20\n      mload(0x40)\n      dup1\n      dup4\n      sub\n      dup2\n      0x00\n      dup8\n      dup1\n      extcodesize\n      iszero\n      dup1\n      iszero\n      tag_107\n      jumpi\n      0x00\n      dup1\n      revert\n    tag_107:\n      pop\n      gas\n      call\n      iszero\n      dup1\n      iszero\n      tag_109\n      jumpi\n      returndatasize\n      0x00\n      dup1\n      returndatacopy\n      revert(0x00, returndatasize)\n    tag_109:\n      pop\n      pop\n      pop\n      pop\n      mload(0x40)\n      returndatasize\n      not(0x1f)\n      0x1f\n      dup3\n      add\n      and\n      dup3\n      add\n      dup1\n      0x40\n      mstore\n      pop\n      dup2\n      add\n      swap1\n      tag_110\n      swap2\n      swap1\n      tag_96\n      jump\t// in\n    tag_110:\n      pop\n        /* \"contracts/polygon/microcebus_main.sol\":2476:2499  Response(success, data) */\n      0x13848c3e38f8886f3f5d2ad9dff80d8092c2bbb8efd5b887a99c2c6cfc09ac2a\n        /* \"contracts/polygon/microcebus_main.sol\":2485:2492  success */\n      dup3\n        /* \"contracts/polygon/microcebus_main.sol\":2494:2498  data */\n      dup3\n        /* \"contracts/polygon/microcebus_main.sol\":2476:2499  Response(success, data) */\n      mload(0x40)\n      tag_111\n      swap3\n      swap2\n      swap1\n      tag_112\n      jump\t// in\n    tag_111:\n      mload(0x40)\n      dup1\n      swap2\n      sub\n      swap1\n      log1\n        /* \"contracts/polygon/microcebus_main.sol\":2224:2510  {... */\n      pop\n      pop\n        /* \"contracts/polygon/microcebus_main.sol\":2181:2510  function receive_wmatic() external payable {... */\n      jump\t// out\n        /* \"contracts/polygon/microcebus_main.sol\":4818:5017  function get_token_balance_sender(string memory _token_identifier) external view returns(uint256) {... */\n    tag_32:\n        /* \"contracts/polygon/microcebus_main.sol\":4907:4914  uint256 */\n      0x00\n        /* \"contracts/polygon/microcebus_main.sol\":4944:4959  token_contracts */\n      dup1\n        /* \"contracts/polygon/microcebus_main.sol\":4960:4977  _token_identifier */\n      dup3\n        /* \"contracts/polygon/microcebus_main.sol\":4944:4978  token_contracts[_token_identifier] */\n      mload(0x40)\n      tag_114\n      swap2\n      swap1\n      tag_62\n      jump\t// in\n    tag_114:\n      swap1\n      dup2\n      mstore\n      0x20\n      add\n      mload(0x40)\n      dup1\n      swap2\n      sub\n      swap1\n      keccak256\n        /* \"contracts/polygon/microcebus_main.sol\":4944:4982  token_contracts[_token_identifier].adr */\n      0x00\n      add\n      0x00\n      swap1\n      sload\n      swap1\n      0x0100\n      exp\n      swap1\n      div\n      0xffffffffffffffffffffffffffffffffffffffff\n      and\n        /* \"contracts/polygon/microcebus_main.sol\":4937:4993  iERC20(token_contracts[_token_identifier].adr).balanceOf */\n      0xffffffffffffffffffffffffffffffffffffffff\n      and\n      0x70a08231\n        /* \"contracts/polygon/microcebus_main.sol\":4994:5004  msg.sender */\n      caller\n        /* \"contracts/polygon/microcebus_main.sol\":4937:5005  iERC20(token_contracts[_token_identifier].adr).balanceOf(msg.sender) */\n      mload(0x40)\n      dup3\n      0xffffffff\n      and\n      0xe0\n      shl\n      dup2\n      mstore\n      0x04\n      add\n      tag_115\n      swap2\n      swap1\n      tag_116\n      jump\t// in\n    tag_115:\n      0x20\n      mload(0x40)\n      dup1\n      dup4\n      sub\n      dup2\n      dup7\n      dup1\n      extcodesize\n      iszero\n      dup1\n      iszero\n      tag_117\n      jumpi\n      0x00\n      dup1\n      revert\n    tag_117:\n      pop\n      gas\n      staticcall\n      iszero\n      dup1\n      iszero\n      tag_119\n      jumpi\n      returndatasize\n      0x00\n      dup1\n      returndatacopy\n      revert(0x00, returndatasize)\n    tag_119:\n      pop\n      pop\n      pop\n      pop\n      mload(0x40)\n      returndatasize\n      not(0x1f)\n      0x1f\n      dup3\n      add\n      and\n      dup3\n      add\n      dup1\n      0x40\n      mstore\n      pop\n      dup2\n      add\n      swap1\n      tag_120\n      swap2\n      swap1\n      tag_84\n      jump\t// in\n    tag_120:\n        /* \"contracts/polygon/microcebus_main.sol\":4930:5006  return(iERC20(token_contracts[_token_identifier].adr).balanceOf(msg.sender)) */\n      swap1\n      pop\n        /* \"contracts/polygon/microcebus_main.sol\":4818:5017  function get_token_balance_sender(string memory _token_identifier) external view returns(uint256) {... */\n      swap2\n      swap1\n      pop\n      jump\t// out\n        /* \"contracts/polygon/microcebus_main.sol\":2952:3277  function transfer_token_to_contract(string memory _token_in_identifier, uint256 _amount)... */\n    tag_39:\n        /* \"contracts/polygon/microcebus_main.sol\":3068:3083  token_contracts */\n      0x00\n        /* \"contracts/polygon/microcebus_main.sol\":3084:3104  _token_in_identifier */\n      dup3\n        /* \"contracts/polygon/microcebus_main.sol\":3068:3105  token_contracts[_token_in_identifier] */\n      mload(0x40)\n      tag_121\n      swap2\n      swap1\n      tag_62\n      jump\t// in\n    tag_121:\n      swap1\n      dup2\n      mstore\n      0x20\n      add\n      mload(0x40)\n      dup1\n      swap2\n      sub\n      swap1\n      keccak256\n        /* \"contracts/polygon/microcebus_main.sol\":3068:3109  token_contracts[_token_in_identifier].adr */\n      0x00\n      add\n      0x00\n      swap1\n      sload\n      swap1\n      0x0100\n      exp\n      swap1\n      div\n      0xffffffffffffffffffffffffffffffffffffffff\n      and\n        /* \"contracts/polygon/microcebus_main.sol\":3111:3121  msg.sender */\n      caller\n        /* \"contracts/polygon/microcebus_main.sol\":3131:3135  this */\n      address\n        /* \"contracts/polygon/microcebus_main.sol\":3138:3145  _amount */\n      dup4\n        /* \"contracts/polygon/microcebus_main.sol\":2007:2014  _amount */\n      dup1\n        /* \"contracts/polygon/microcebus_main.sol\":1946:1960  _token_address */\n      dup5\n        /* \"contracts/polygon/microcebus_main.sol\":1939:1971  iERC20(_token_address).allowance */\n      0xffffffffffffffffffffffffffffffffffffffff\n      and\n      0xdd62ed3e\n        /* \"contracts/polygon/microcebus_main.sol\":1972:1985  _token_sender */\n      dup6\n        /* \"contracts/polygon/microcebus_main.sol\":1987:2002  _token_receiver */\n      dup6\n        /* \"contracts/polygon/microcebus_main.sol\":1939:2003  iERC20(_token_address).allowance(_token_sender, _token_receiver) */\n      mload(0x40)\n      dup4\n      0xffffffff\n      and\n      0xe0\n      shl\n      dup2\n      mstore\n      0x04\n      add\n      tag_123\n      swap3\n      swap2\n      swap1\n      tag_79\n      jump\t// in\n    tag_123:\n      0x20\n      mload(0x40)\n      dup1\n      dup4\n      sub\n      dup2\n      dup7\n      dup1\n      extcodesize\n      iszero\n      dup1\n      iszero\n      tag_124\n      jumpi\n      0x00\n      dup1\n      revert\n    tag_124:\n      pop\n      gas\n      staticcall\n      iszero\n      dup1\n      iszero\n      tag_126\n      jumpi\n      returndatasize\n      0x00\n      dup1\n      returndatacopy\n      revert(0x00, returndatasize)\n    tag_126:\n      pop\n      pop\n      pop\n      pop\n      mload(0x40)\n      returndatasize\n      not(0x1f)\n      0x1f\n      dup3\n      add\n      and\n      dup3\n      add\n      dup1\n      0x40\n      mstore\n      pop\n      dup2\n      add\n      swap1\n      tag_127\n      swap2\n      swap1\n      tag_84\n      jump\t// in\n    tag_127:\n        /* \"contracts/polygon/microcebus_main.sol\":1939:2014  iERC20(_token_address).allowance(_token_sender, _token_receiver) >= _amount */\n      lt\n      iszero\n        /* \"contracts/polygon/microcebus_main.sol\":1931:2083  require(iERC20(_token_address).allowance(_token_sender, _token_receiver) >= _amount,... */\n      tag_128\n      jumpi\n      mload(0x40)\n      0x08c379a000000000000000000000000000000000000000000000000000000000\n      dup2\n      mstore\n      0x04\n      add\n      tag_129\n      swap1\n      tag_87\n      jump\t// in\n    tag_129:\n      mload(0x40)\n      dup1\n      swap2\n      sub\n      swap1\n      revert\n    tag_128:\n        /* \"contracts/polygon/microcebus_main.sol\":3175:3190  token_contracts */\n      0x00\n        /* \"contracts/polygon/microcebus_main.sol\":3191:3211  _token_in_identifier */\n      dup7\n        /* \"contracts/polygon/microcebus_main.sol\":3175:3212  token_contracts[_token_in_identifier] */\n      mload(0x40)\n      tag_131\n      swap2\n      swap1\n      tag_62\n      jump\t// in\n    tag_131:\n      swap1\n      dup2\n      mstore\n      0x20\n      add\n      mload(0x40)\n      dup1\n      swap2\n      sub\n      swap1\n      keccak256\n        /* \"contracts/polygon/microcebus_main.sol\":3175:3216  token_contracts[_token_in_identifier].adr */\n      0x00\n      add\n      0x00\n      swap1\n      sload\n      swap1\n      0x0100\n      exp\n      swap1\n      div\n      0xffffffffffffffffffffffffffffffffffffffff\n      and\n        /* \"contracts/polygon/microcebus_main.sol\":3168:3230  iERC20(token_contracts[_token_in_identifier].adr).transferFrom */\n      0xffffffffffffffffffffffffffffffffffffffff\n      and\n      0x23b872dd\n        /* \"contracts/polygon/microcebus_main.sol\":3231:3241  msg.sender */\n      caller\n        /* \"contracts/polygon/microcebus_main.sol\":3251:3255  this */\n      address\n        /* \"contracts/polygon/microcebus_main.sol\":3258:3265  _amount */\n      dup9\n        /* \"contracts/polygon/microcebus_main.sol\":3168:3266  iERC20(token_contracts[_token_in_identifier].adr).transferFrom(msg.sender, address(this), _amount) */\n      mload(0x40)\n      dup5\n      0xffffffff\n      and\n      0xe0\n      shl\n      dup2\n      mstore\n      0x04\n      add\n      tag_132\n      swap4\n      swap3\n      swap2\n      swap1\n      tag_91\n      jump\t// in\n    tag_132:\n      0x20\n      mload(0x40)\n      dup1\n      dup4\n      sub\n      dup2\n      0x00\n      dup8\n      dup1\n      extcodesize\n      iszero\n      dup1\n      iszero\n      tag_133\n      jumpi\n      0x00\n      dup1\n      revert\n    tag_133:\n      pop\n      gas\n      call\n      iszero\n      dup1\n      iszero\n      tag_135\n      jumpi\n      returndatasize\n      0x00\n      dup1\n      returndatacopy\n      revert(0x00, returndatasize)\n    tag_135:\n      pop\n      pop\n      pop\n      pop\n      mload(0x40)\n      returndatasize\n      not(0x1f)\n      0x1f\n      dup3\n      add\n      and\n      dup3\n      add\n      dup1\n      0x40\n      mstore\n      pop\n      dup2\n      add\n      swap1\n      tag_136\n      swap2\n      swap1\n      tag_96\n      jump\t// in\n    tag_136:\n      pop\n        /* \"contracts/polygon/microcebus_main.sol\":2952:3277  function transfer_token_to_contract(string memory _token_in_identifier, uint256 _amount)... */\n      pop\n      pop\n      pop\n      pop\n      pop\n      pop\n      jump\t// out\n        /* \"contracts/polygon/microcebus_main.sol\":4554:4770  function get_token_balance(string memory _token_identifier, address _token_owner) external view returns(uint256) {... */\n    tag_44:\n        /* \"contracts/polygon/microcebus_main.sol\":4658:4665  uint256 */\n      0x00\n        /* \"contracts/polygon/microcebus_main.sol\":4695:4710  token_contracts */\n      dup1\n        /* \"contracts/polygon/microcebus_main.sol\":4711:4728  _token_identifier */\n      dup4\n        /* \"contracts/polygon/microcebus_main.sol\":4695:4729  token_contracts[_token_identifier] */\n      mload(0x40)\n      tag_138\n      swap2\n      swap1\n      tag_62\n      jump\t// in\n    tag_138:\n      swap1\n      dup2\n      mstore\n      0x20\n      add\n      mload(0x40)\n      dup1\n      swap2\n      sub\n      swap1\n      keccak256\n        /* \"contracts/polygon/microcebus_main.sol\":4695:4733  token_contracts[_token_identifier].adr */\n      0x00\n      add\n      0x00\n      swap1\n      sload\n      swap1\n      0x0100\n      exp\n      swap1\n      div\n      0xffffffffffffffffffffffffffffffffffffffff\n      and\n        /* \"contracts/polygon/microcebus_main.sol\":4688:4744  iERC20(token_contracts[_token_identifier].adr).balanceOf */\n      0xffffffffffffffffffffffffffffffffffffffff\n      and\n      0x70a08231\n        /* \"contracts/polygon/microcebus_main.sol\":4745:4757  _token_owner */\n      dup4\n        /* \"contracts/polygon/microcebus_main.sol\":4688:4758  iERC20(token_contracts[_token_identifier].adr).balanceOf(_token_owner) */\n      mload(0x40)\n      dup3\n      0xffffffff\n      and\n      0xe0\n      shl\n      dup2\n      mstore\n      0x04\n      add\n      tag_139\n      swap2\n      swap1\n      tag_116\n      jump\t// in\n    tag_139:\n      0x20\n      mload(0x40)\n      dup1\n      dup4\n      sub\n      dup2\n      dup7\n      dup1\n      extcodesize\n      iszero\n      dup1\n      iszero\n      tag_140\n      jumpi\n      0x00\n      dup1\n      revert\n    tag_140:\n      pop\n      gas\n      staticcall\n      iszero\n      dup1\n      iszero\n      tag_142\n      jumpi\n      returndatasize\n      0x00\n      dup1\n      returndatacopy\n      revert(0x00, returndatasize)\n    tag_142:\n      pop\n      pop\n      pop\n      pop\n      mload(0x40)\n      returndatasize\n      not(0x1f)\n      0x1f\n      dup3\n      add\n      and\n      dup3\n      add\n      dup1\n      0x40\n      mstore\n      pop\n      dup2\n      add\n      swap1\n      tag_143\n      swap2\n      swap1\n      tag_84\n      jump\t// in\n    tag_143:\n        /* \"contracts/polygon/microcebus_main.sol\":4681:4759  return(iERC20(token_contracts[_token_identifier].adr).balanceOf(_token_owner)) */\n      swap1\n      pop\n        /* \"contracts/polygon/microcebus_main.sol\":4554:4770  function get_token_balance(string memory _token_identifier, address _token_owner) external view returns(uint256) {... */\n      swap3\n      swap2\n      pop\n      pop\n      jump\t// out\n        /* \"contracts/polygon/microcebus_main.sol\":5067:5271  function get_token_balance_contract(string memory _token_identifier) external view returns(uint256) {... */\n    tag_49:\n        /* \"contracts/polygon/microcebus_main.sol\":5158:5165  uint256 */\n      0x00\n        /* \"contracts/polygon/microcebus_main.sol\":5195:5210  token_contracts */\n      dup1\n        /* \"contracts/polygon/microcebus_main.sol\":5211:5228  _token_identifier */\n      dup3\n        /* \"contracts/polygon/microcebus_main.sol\":5195:5229  token_contracts[_token_identifier] */\n      mload(0x40)\n      tag_145\n      swap2\n      swap1\n      tag_62\n      jump\t// in\n    tag_145:\n      swap1\n      dup2\n      mstore\n      0x20\n      add\n      mload(0x40)\n      dup1\n      swap2\n      sub\n      swap1\n      keccak256\n        /* \"contracts/polygon/microcebus_main.sol\":5195:5233  token_contracts[_token_identifier].adr */\n      0x00\n      add\n      0x00\n      swap1\n      sload\n      swap1\n      0x0100\n      exp\n      swap1\n      div\n      0xffffffffffffffffffffffffffffffffffffffff\n      and\n        /* \"contracts/polygon/microcebus_main.sol\":5188:5244  iERC20(token_contracts[_token_identifier].adr).balanceOf */\n      0xffffffffffffffffffffffffffffffffffffffff\n      and\n      0x70a08231\n        /* \"contracts/polygon/microcebus_main.sol\":5253:5257  this */\n      address\n        /* \"contracts/polygon/microcebus_main.sol\":5188:5259  iERC20(token_contracts[_token_identifier].adr).balanceOf(address(this)) */\n      mload(0x40)\n      dup3\n      0xffffffff\n      and\n      0xe0\n      shl\n      dup2\n      mstore\n      0x04\n      add\n      tag_146\n      swap2\n      swap1\n      tag_116\n      jump\t// in\n    tag_146:\n      0x20\n      mload(0x40)\n      dup1\n      dup4\n      sub\n      dup2\n      dup7\n      dup1\n      extcodesize\n      iszero\n      dup1\n      iszero\n      tag_147\n      jumpi\n      0x00\n      dup1\n      revert\n    tag_147:\n      pop\n      gas\n      staticcall\n      iszero\n      dup1\n      iszero\n      tag_149\n      jumpi\n      returndatasize\n      0x00\n      dup1\n      returndatacopy\n      revert(0x00, returndatasize)\n    tag_149:\n      pop\n      pop\n      pop\n      pop\n      mload(0x40)\n      returndatasize\n      not(0x1f)\n      0x1f\n      dup3\n      add\n      and\n      dup3\n      add\n      dup1\n      0x40\n      mstore\n      pop\n      dup2\n      add\n      swap1\n      tag_150\n      swap2\n      swap1\n      tag_84\n      jump\t// in\n    tag_150:\n        /* \"contracts/polygon/microcebus_main.sol\":5181:5260  return(iERC20(token_contracts[_token_identifier].adr).balanceOf(address(this))) */\n      swap1\n      pop\n        /* \"contracts/polygon/microcebus_main.sol\":5067:5271  function get_token_balance_contract(string memory _token_identifier) external view returns(uint256) {... */\n      swap2\n      swap1\n      pop\n      jump\t// out\n        /* \"contracts/polygon/microcebus_main.sol\":3318:4036  function swap_exact_tokens_for_tokens(uint256 _amount_in, uint _amount_out_min, string memory _token_in_identifier,... */\n    tag_55:\n        /* \"contracts/polygon/microcebus_main.sol\":3513:3573  transfer_token_to_contract(_token_in_identifier, _amount_in) */\n      tag_152\n        /* \"contracts/polygon/microcebus_main.sol\":3540:3560  _token_in_identifier */\n      dup4\n        /* \"contracts/polygon/microcebus_main.sol\":3562:3572  _amount_in */\n      dup7\n        /* \"contracts/polygon/microcebus_main.sol\":3513:3539  transfer_token_to_contract */\n      tag_39\n        /* \"contracts/polygon/microcebus_main.sol\":3513:3573  transfer_token_to_contract(_token_in_identifier, _amount_in) */\n      jump\t// in\n    tag_152:\n        /* \"contracts/polygon/microcebus_main.sol\":3583:3604  address[] memory path */\n      0x00\n        /* \"contracts/polygon/microcebus_main.sol\":3621:3622  2 */\n      0x02\n        /* \"contracts/polygon/microcebus_main.sol\":3607:3623  new address[](2) */\n      0xffffffffffffffff\n      dup2\n      gt\n      iszero\n      tag_153\n      jumpi\n      tag_154\n      tag_59\n      jump\t// in\n    tag_154:\n    tag_153:\n      mload(0x40)\n      swap1\n      dup1\n      dup3\n      mstore\n      dup1\n      0x20\n      mul\n      0x20\n      add\n      dup3\n      add\n      0x40\n      mstore\n      dup1\n      iszero\n      tag_155\n      jumpi\n      dup2\n      0x20\n      add\n      0x20\n      dup3\n      mul\n      dup1\n      calldatasize\n      dup4\n      calldatacopy\n      dup1\n      dup3\n      add\n      swap2\n      pop\n      pop\n      swap1\n      pop\n    tag_155:\n      pop\n        /* \"contracts/polygon/microcebus_main.sol\":3583:3623  address[] memory path = new address[](2) */\n      swap1\n      pop\n        /* \"contracts/polygon/microcebus_main.sol\":3643:3658  token_contracts */\n      0x00\n        /* \"contracts/polygon/microcebus_main.sol\":3659:3679  _token_in_identifier */\n      dup5\n        /* \"contracts/polygon/microcebus_main.sol\":3643:3680  token_contracts[_token_in_identifier] */\n      mload(0x40)\n      tag_156\n      swap2\n      swap1\n      tag_62\n      jump\t// in\n    tag_156:\n      swap1\n      dup2\n      mstore\n      0x20\n      add\n      mload(0x40)\n      dup1\n      swap2\n      sub\n      swap1\n      keccak256\n        /* \"contracts/polygon/microcebus_main.sol\":3643:3684  token_contracts[_token_in_identifier].adr */\n      0x00\n      add\n      0x00\n      swap1\n      sload\n      swap1\n      0x0100\n      exp\n      swap1\n      div\n      0xffffffffffffffffffffffffffffffffffffffff\n      and\n        /* \"contracts/polygon/microcebus_main.sol\":3633:3637  path */\n      dup2\n        /* \"contracts/polygon/microcebus_main.sol\":3638:3639  0 */\n      0x00\n        /* \"contracts/polygon/microcebus_main.sol\":3633:3640  path[0] */\n      dup2\n      mload\n      dup2\n      lt\n      tag_157\n      jumpi\n      tag_158\n      tag_65\n      jump\t// in\n    tag_158:\n    tag_157:\n      0x20\n      mul\n      0x20\n      add\n      add\n        /* \"contracts/polygon/microcebus_main.sol\":3633:3684  path[0] = token_contracts[_token_in_identifier].adr */\n      swap1\n      0xffffffffffffffffffffffffffffffffffffffff\n      and\n      swap1\n      dup2\n      0xffffffffffffffffffffffffffffffffffffffff\n      and\n      dup2\n      mstore\n      pop\n      pop\n        /* \"contracts/polygon/microcebus_main.sol\":3704:3719  token_contracts */\n      0x00\n        /* \"contracts/polygon/microcebus_main.sol\":3720:3741  _token_out_identifier */\n      dup4\n        /* \"contracts/polygon/microcebus_main.sol\":3704:3742  token_contracts[_token_out_identifier] */\n      mload(0x40)\n      tag_159\n      swap2\n      swap1\n      tag_62\n      jump\t// in\n    tag_159:\n      swap1\n      dup2\n      mstore\n      0x20\n      add\n      mload(0x40)\n      dup1\n      swap2\n      sub\n      swap1\n      keccak256\n        /* \"contracts/polygon/microcebus_main.sol\":3704:3746  token_contracts[_token_out_identifier].adr */\n      0x00\n      add\n      0x00\n      swap1\n      sload\n      swap1\n      0x0100\n      exp\n      swap1\n      div\n      0xffffffffffffffffffffffffffffffffffffffff\n      and\n        /* \"contracts/polygon/microcebus_main.sol\":3694:3698  path */\n      dup2\n        /* \"contracts/polygon/microcebus_main.sol\":3699:3700  1 */\n      0x01\n        /* \"contracts/polygon/microcebus_main.sol\":3694:3701  path[1] */\n      dup2\n      mload\n      dup2\n      lt\n      tag_160\n      jumpi\n      tag_161\n      tag_65\n      jump\t// in\n    tag_161:\n    tag_160:\n      0x20\n      mul\n      0x20\n      add\n      add\n        /* \"contracts/polygon/microcebus_main.sol\":3694:3746  path[1] = token_contracts[_token_out_identifier].adr */\n      swap1\n      0xffffffffffffffffffffffffffffffffffffffff\n      and\n      swap1\n      dup2\n      0xffffffffffffffffffffffffffffffffffffffff\n      and\n      dup2\n      mstore\n      pop\n      pop\n        /* \"contracts/polygon/microcebus_main.sol\":3763:3778  token_contracts */\n      0x00\n        /* \"contracts/polygon/microcebus_main.sol\":3779:3799  _token_in_identifier */\n      dup5\n        /* \"contracts/polygon/microcebus_main.sol\":3763:3800  token_contracts[_token_in_identifier] */\n      mload(0x40)\n      tag_162\n      swap2\n      swap1\n      tag_62\n      jump\t// in\n    tag_162:\n      swap1\n      dup2\n      mstore\n      0x20\n      add\n      mload(0x40)\n      dup1\n      swap2\n      sub\n      swap1\n      keccak256\n        /* \"contracts/polygon/microcebus_main.sol\":3763:3804  token_contracts[_token_in_identifier].adr */\n      0x00\n      add\n      0x00\n      swap1\n      sload\n      swap1\n      0x0100\n      exp\n      swap1\n      div\n      0xffffffffffffffffffffffffffffffffffffffff\n      and\n        /* \"contracts/polygon/microcebus_main.sol\":3756:3813  iERC20(token_contracts[_token_in_identifier].adr).approve */\n      0xffffffffffffffffffffffffffffffffffffffff\n      and\n      0x095ea7b3\n        /* \"contracts/polygon/microcebus_main.sol\":643:685  0xa5E0829CaCEd8fFDD4De3c43696c57F7D7A678ff */\n      0xa5e0829caced8ffdd4de3c43696c57f7d7a678ff\n        /* \"contracts/polygon/microcebus_main.sol\":3833:3843  _amount_in */\n      dup9\n        /* \"contracts/polygon/microcebus_main.sol\":3756:3844  iERC20(token_contracts[_token_in_identifier].adr).approve(UniswapV2Router02, _amount_in) */\n      mload(0x40)\n      dup4\n      0xffffffff\n      and\n      0xe0\n      shl\n      dup2\n      mstore\n      0x04\n      add\n      tag_163\n      swap3\n      swap2\n      swap1\n      tag_164\n      jump\t// in\n    tag_163:\n      0x20\n      mload(0x40)\n      dup1\n      dup4\n      sub\n      dup2\n      0x00\n      dup8\n      dup1\n      extcodesize\n      iszero\n      dup1\n      iszero\n      tag_165\n      jumpi\n      0x00\n      dup1\n      revert\n    tag_165:\n      pop\n      gas\n      call\n      iszero\n      dup1\n      iszero\n      tag_167\n      jumpi\n      returndatasize\n      0x00\n      dup1\n      returndatacopy\n      revert(0x00, returndatasize)\n    tag_167:\n      pop\n      pop\n      pop\n      pop\n      mload(0x40)\n      returndatasize\n      not(0x1f)\n      0x1f\n      dup3\n      add\n      and\n      dup3\n      add\n      dup1\n      0x40\n      mstore\n      pop\n      dup2\n      add\n      swap1\n      tag_168\n      swap2\n      swap1\n      tag_96\n      jump\t// in\n    tag_168:\n      pop\n        /* \"contracts/polygon/microcebus_main.sol\":643:685  0xa5E0829CaCEd8fFDD4De3c43696c57F7D7A678ff */\n      0xa5e0829caced8ffdd4de3c43696c57f7d7a678ff\n        /* \"contracts/polygon/microcebus_main.sol\":3859:3921  IUniswapV2Router02(UniswapV2Router02).swapExactTokensForTokens */\n      0xffffffffffffffffffffffffffffffffffffffff\n      and\n      0x38ed1739\n        /* \"contracts/polygon/microcebus_main.sol\":3933:3943  _amount_in */\n      dup8\n        /* \"contracts/polygon/microcebus_main.sol\":3955:3970  _amount_out_min */\n      dup8\n        /* \"contracts/polygon/microcebus_main.sol\":3982:3986  path */\n      dup5\n        /* \"contracts/polygon/microcebus_main.sol\":3998:4008  msg.sender */\n      caller\n        /* \"contracts/polygon/microcebus_main.sol\":4020:4028  deadline */\n      dup8\n        /* \"contracts/polygon/microcebus_main.sol\":3859:4029  IUniswapV2Router02(UniswapV2Router02).swapExactTokensForTokens(... */\n      mload(0x40)\n      dup7\n      0xffffffff\n      and\n      0xe0\n      shl\n      dup2\n      mstore\n      0x04\n      add\n      tag_169\n      swap6\n      swap5\n      swap4\n      swap3\n      swap2\n      swap1\n      tag_170\n      jump\t// in\n    tag_169:\n      0x00\n      mload(0x40)\n      dup1\n      dup4\n      sub\n      dup2\n      0x00\n      dup8\n      dup1\n      extcodesize\n      iszero\n      dup1\n      iszero\n      tag_171\n      jumpi\n      0x00\n      dup1\n      revert\n    tag_171:\n      pop\n      gas\n      call\n      iszero\n      dup1\n      iszero\n      tag_173\n      jumpi\n      returndatasize\n      0x00\n      dup1\n      returndatacopy\n      revert(0x00, returndatasize)\n    tag_173:\n      pop\n      pop\n      pop\n      pop\n      mload(0x40)\n      returndatasize\n      0x00\n      dup3\n      returndatacopy\n      returndatasize\n      not(0x1f)\n      0x1f\n      dup3\n      add\n      and\n      dup3\n      add\n      dup1\n      0x40\n      mstore\n      pop\n      dup2\n      add\n      swap1\n      tag_174\n      swap2\n      swap1\n      tag_75\n      jump\t// in\n    tag_174:\n      pop\n        /* \"contracts/polygon/microcebus_main.sol\":3503:4036  {... */\n      pop\n        /* \"contracts/polygon/microcebus_main.sol\":3318:4036  function swap_exact_tokens_for_tokens(uint256 _amount_in, uint _amount_out_min, string memory _token_in_identifier,... */\n      pop\n      pop\n      pop\n      pop\n      pop\n      jump\t// out\n        /* \"#utility.yul\":24:768   */\n    tag_176:\n        /* \"#utility.yul\":131:136   */\n      0x00\n        /* \"#utility.yul\":156:237   */\n      tag_178\n        /* \"#utility.yul\":172:236   */\n      tag_179\n        /* \"#utility.yul\":229:235   */\n      dup5\n        /* \"#utility.yul\":172:236   */\n      tag_180\n      jump\t// in\n    tag_179:\n        /* \"#utility.yul\":156:237   */\n      tag_181\n      jump\t// in\n    tag_178:\n        /* \"#utility.yul\":147:237   */\n      swap1\n      pop\n        /* \"#utility.yul\":257:262   */\n      dup1\n        /* \"#utility.yul\":286:292   */\n      dup4\n        /* \"#utility.yul\":279:284   */\n      dup3\n        /* \"#utility.yul\":272:293   */\n      mstore\n        /* \"#utility.yul\":320:324   */\n      0x20\n        /* \"#utility.yul\":313:318   */\n      dup3\n        /* \"#utility.yul\":309:325   */\n      add\n        /* \"#utility.yul\":302:325   */\n      swap1\n      pop\n        /* \"#utility.yul\":346:352   */\n      dup3\n        /* \"#utility.yul\":396:399   */\n      dup6\n        /* \"#utility.yul\":388:392   */\n      0x20\n        /* \"#utility.yul\":380:386   */\n      dup7\n        /* \"#utility.yul\":376:393   */\n      mul\n        /* \"#utility.yul\":371:374   */\n      dup3\n        /* \"#utility.yul\":367:394   */\n      add\n        /* \"#utility.yul\":364:400   */\n      gt\n        /* \"#utility.yul\":361:504   */\n      iszero\n      tag_182\n      jumpi\n        /* \"#utility.yul\":415:494   */\n      tag_183\n      tag_184\n      jump\t// in\n    tag_183:\n        /* \"#utility.yul\":361:504   */\n    tag_182:\n        /* \"#utility.yul\":528:529   */\n      0x00\n        /* \"#utility.yul\":513:762   */\n    tag_185:\n        /* \"#utility.yul\":538:544   */\n      dup6\n        /* \"#utility.yul\":535:536   */\n      dup2\n        /* \"#utility.yul\":532:545   */\n      lt\n        /* \"#utility.yul\":513:762   */\n      iszero\n      tag_187\n      jumpi\n        /* \"#utility.yul\":606:609   */\n      dup2\n        /* \"#utility.yul\":635:683   */\n      tag_188\n        /* \"#utility.yul\":679:682   */\n      dup9\n        /* \"#utility.yul\":667:677   */\n      dup3\n        /* \"#utility.yul\":635:683   */\n      tag_189\n      jump\t// in\n    tag_188:\n        /* \"#utility.yul\":630:633   */\n      dup5\n        /* \"#utility.yul\":623:684   */\n      mstore\n        /* \"#utility.yul\":713:717   */\n      0x20\n        /* \"#utility.yul\":708:711   */\n      dup5\n        /* \"#utility.yul\":704:718   */\n      add\n        /* \"#utility.yul\":697:718   */\n      swap4\n      pop\n        /* \"#utility.yul\":747:751   */\n      0x20\n        /* \"#utility.yul\":742:745   */\n      dup4\n        /* \"#utility.yul\":738:752   */\n      add\n        /* \"#utility.yul\":731:752   */\n      swap3\n      pop\n        /* \"#utility.yul\":573:762   */\n      pop\n        /* \"#utility.yul\":560:561   */\n      0x01\n        /* \"#utility.yul\":557:558   */\n      dup2\n        /* \"#utility.yul\":553:562   */\n      add\n        /* \"#utility.yul\":548:562   */\n      swap1\n      pop\n        /* \"#utility.yul\":513:762   */\n      jump(tag_185)\n    tag_187:\n        /* \"#utility.yul\":517:531   */\n      pop\n        /* \"#utility.yul\":137:768   */\n      pop\n      pop\n        /* \"#utility.yul\":24:768   */\n      swap4\n      swap3\n      pop\n      pop\n      pop\n      jump\t// out\n        /* \"#utility.yul\":774:1186   */\n    tag_190:\n        /* \"#utility.yul\":852:857   */\n      0x00\n        /* \"#utility.yul\":877:943   */\n      tag_192\n        /* \"#utility.yul\":893:942   */\n      tag_193\n        /* \"#utility.yul\":935:941   */\n      dup5\n        /* \"#utility.yul\":893:942   */\n      tag_194\n      jump\t// in\n    tag_193:\n        /* \"#utility.yul\":877:943   */\n      tag_181\n      jump\t// in\n    tag_192:\n        /* \"#utility.yul\":868:943   */\n      swap1\n      pop\n        /* \"#utility.yul\":966:972   */\n      dup3\n        /* \"#utility.yul\":959:964   */\n      dup2\n        /* \"#utility.yul\":952:973   */\n      mstore\n        /* \"#utility.yul\":1004:1008   */\n      0x20\n        /* \"#utility.yul\":997:1002   */\n      dup2\n        /* \"#utility.yul\":993:1009   */\n      add\n        /* \"#utility.yul\":1042:1045   */\n      dup5\n        /* \"#utility.yul\":1033:1039   */\n      dup5\n        /* \"#utility.yul\":1028:1031   */\n      dup5\n        /* \"#utility.yul\":1024:1040   */\n      add\n        /* \"#utility.yul\":1021:1046   */\n      gt\n        /* \"#utility.yul\":1018:1130   */\n      iszero\n      tag_195\n      jumpi\n        /* \"#utility.yul\":1049:1128   */\n      tag_196\n      tag_197\n      jump\t// in\n    tag_196:\n        /* \"#utility.yul\":1018:1130   */\n    tag_195:\n        /* \"#utility.yul\":1139:1180   */\n      tag_198\n        /* \"#utility.yul\":1173:1179   */\n      dup5\n        /* \"#utility.yul\":1168:1171   */\n      dup3\n        /* \"#utility.yul\":1163:1166   */\n      dup6\n        /* \"#utility.yul\":1139:1180   */\n      tag_199\n      jump\t// in\n    tag_198:\n        /* \"#utility.yul\":858:1186   */\n      pop\n        /* \"#utility.yul\":774:1186   */\n      swap4\n      swap3\n      pop\n      pop\n      pop\n      jump\t// out\n        /* \"#utility.yul\":1192:1331   */\n    tag_200:\n        /* \"#utility.yul\":1238:1243   */\n      0x00\n        /* \"#utility.yul\":1276:1282   */\n      dup2\n        /* \"#utility.yul\":1263:1283   */\n      calldataload\n        /* \"#utility.yul\":1254:1283   */\n      swap1\n      pop\n        /* \"#utility.yul\":1292:1325   */\n      tag_202\n        /* \"#utility.yul\":1319:1324   */\n      dup2\n        /* \"#utility.yul\":1292:1325   */\n      tag_203\n      jump\t// in\n    tag_202:\n        /* \"#utility.yul\":1192:1331   */\n      swap3\n      swap2\n      pop\n      pop\n      jump\t// out\n        /* \"#utility.yul\":1354:1739   */\n    tag_204:\n        /* \"#utility.yul\":1436:1441   */\n      0x00\n        /* \"#utility.yul\":1485:1488   */\n      dup3\n        /* \"#utility.yul\":1478:1482   */\n      0x1f\n        /* \"#utility.yul\":1470:1476   */\n      dup4\n        /* \"#utility.yul\":1466:1483   */\n      add\n        /* \"#utility.yul\":1462:1489   */\n      slt\n        /* \"#utility.yul\":1452:1574   */\n      tag_206\n      jumpi\n        /* \"#utility.yul\":1493:1572   */\n      tag_207\n      tag_208\n      jump\t// in\n    tag_207:\n        /* \"#utility.yul\":1452:1574   */\n    tag_206:\n        /* \"#utility.yul\":1603:1609   */\n      dup2\n        /* \"#utility.yul\":1597:1610   */\n      mload\n        /* \"#utility.yul\":1628:1733   */\n      tag_209\n        /* \"#utility.yul\":1729:1732   */\n      dup5\n        /* \"#utility.yul\":1721:1727   */\n      dup3\n        /* \"#utility.yul\":1714:1718   */\n      0x20\n        /* \"#utility.yul\":1706:1712   */\n      dup7\n        /* \"#utility.yul\":1702:1719   */\n      add\n        /* \"#utility.yul\":1628:1733   */\n      tag_176\n      jump\t// in\n    tag_209:\n        /* \"#utility.yul\":1619:1733   */\n      swap2\n      pop\n        /* \"#utility.yul\":1442:1739   */\n      pop\n        /* \"#utility.yul\":1354:1739   */\n      swap3\n      swap2\n      pop\n      pop\n      jump\t// out\n        /* \"#utility.yul\":1745:1882   */\n    tag_210:\n        /* \"#utility.yul\":1799:1804   */\n      0x00\n        /* \"#utility.yul\":1830:1836   */\n      dup2\n        /* \"#utility.yul\":1824:1837   */\n      mload\n        /* \"#utility.yul\":1815:1837   */\n      swap1\n      pop\n        /* \"#utility.yul\":1846:1876   */\n      tag_212\n        /* \"#utility.yul\":1870:1875   */\n      dup2\n        /* \"#utility.yul\":1846:1876   */\n      tag_213\n      jump\t// in\n    tag_212:\n        /* \"#utility.yul\":1745:1882   */\n      swap3\n      swap2\n      pop\n      pop\n      jump\t// out\n        /* \"#utility.yul\":1902:2242   */\n    tag_214:\n        /* \"#utility.yul\":1958:1963   */\n      0x00\n        /* \"#utility.yul\":2007:2010   */\n      dup3\n        /* \"#utility.yul\":2000:2004   */\n      0x1f\n        /* \"#utility.yul\":1992:1998   */\n      dup4\n        /* \"#utility.yul\":1988:2005   */\n      add\n        /* \"#utility.yul\":1984:2011   */\n      slt\n        /* \"#utility.yul\":1974:2096   */\n      tag_216\n      jumpi\n        /* \"#utility.yul\":2015:2094   */\n      tag_217\n      tag_208\n      jump\t// in\n    tag_217:\n        /* \"#utility.yul\":1974:2096   */\n    tag_216:\n        /* \"#utility.yul\":2132:2138   */\n      dup2\n        /* \"#utility.yul\":2119:2139   */\n      calldataload\n        /* \"#utility.yul\":2157:2236   */\n      tag_218\n        /* \"#utility.yul\":2232:2235   */\n      dup5\n        /* \"#utility.yul\":2224:2230   */\n      dup3\n        /* \"#utility.yul\":2217:2221   */\n      0x20\n        /* \"#utility.yul\":2209:2215   */\n      dup7\n        /* \"#utility.yul\":2205:2222   */\n      add\n        /* \"#utility.yul\":2157:2236   */\n      tag_190\n      jump\t// in\n    tag_218:\n        /* \"#utility.yul\":2148:2236   */\n      swap2\n      pop\n        /* \"#utility.yul\":1964:2242   */\n      pop\n        /* \"#utility.yul\":1902:2242   */\n      swap3\n      swap2\n      pop\n      pop\n      jump\t// out\n        /* \"#utility.yul\":2248:2387   */\n    tag_219:\n        /* \"#utility.yul\":2294:2299   */\n      0x00\n        /* \"#utility.yul\":2332:2338   */\n      dup2\n        /* \"#utility.yul\":2319:2339   */\n      calldataload\n        /* \"#utility.yul\":2310:2339   */\n      swap1\n      pop\n        /* \"#utility.yul\":2348:2381   */\n      tag_221\n        /* \"#utility.yul\":2375:2380   */\n      dup2\n        /* \"#utility.yul\":2348:2381   */\n      tag_222\n      jump\t// in\n    tag_221:\n        /* \"#utility.yul\":2248:2387   */\n      swap3\n      swap2\n      pop\n      pop\n      jump\t// out\n        /* \"#utility.yul\":2393:2536   */\n    tag_189:\n        /* \"#utility.yul\":2450:2455   */\n      0x00\n        /* \"#utility.yul\":2481:2487   */\n      dup2\n        /* \"#utility.yul\":2475:2488   */\n      mload\n        /* \"#utility.yul\":2466:2488   */\n      swap1\n      pop\n        /* \"#utility.yul\":2497:2530   */\n      tag_224\n        /* \"#utility.yul\":2524:2529   */\n      dup2\n        /* \"#utility.yul\":2497:2530   */\n      tag_222\n      jump\t// in\n    tag_224:\n        /* \"#utility.yul\":2393:2536   */\n      swap3\n      swap2\n      pop\n      pop\n      jump\t// out\n        /* \"#utility.yul\":2542:3096   */\n    tag_75:\n        /* \"#utility.yul\":2637:2643   */\n      0x00\n        /* \"#utility.yul\":2686:2688   */\n      0x20\n        /* \"#utility.yul\":2674:2683   */\n      dup3\n        /* \"#utility.yul\":2665:2672   */\n      dup5\n        /* \"#utility.yul\":2661:2684   */\n      sub\n        /* \"#utility.yul\":2657:2689   */\n      slt\n        /* \"#utility.yul\":2654:2773   */\n      iszero\n      tag_226\n      jumpi\n        /* \"#utility.yul\":2692:2771   */\n      tag_227\n      tag_228\n      jump\t// in\n    tag_227:\n        /* \"#utility.yul\":2654:2773   */\n    tag_226:\n        /* \"#utility.yul\":2833:2834   */\n      0x00\n        /* \"#utility.yul\":2822:2831   */\n      dup3\n        /* \"#utility.yul\":2818:2835   */\n      add\n        /* \"#utility.yul\":2812:2836   */\n      mload\n        /* \"#utility.yul\":2863:2881   */\n      0xffffffffffffffff\n        /* \"#utility.yul\":2855:2861   */\n      dup2\n        /* \"#utility.yul\":2852:2882   */\n      gt\n        /* \"#utility.yul\":2849:2966   */\n      iszero\n      tag_229\n      jumpi\n        /* \"#utility.yul\":2885:2964   */\n      tag_230\n      tag_231\n      jump\t// in\n    tag_230:\n        /* \"#utility.yul\":2849:2966   */\n    tag_229:\n        /* \"#utility.yul\":2990:3079   */\n      tag_232\n        /* \"#utility.yul\":3071:3078   */\n      dup5\n        /* \"#utility.yul\":3062:3068   */\n      dup3\n        /* \"#utility.yul\":3051:3060   */\n      dup6\n        /* \"#utility.yul\":3047:3069   */\n      add\n        /* \"#utility.yul\":2990:3079   */\n      tag_204\n      jump\t// in\n    tag_232:\n        /* \"#utility.yul\":2980:3079   */\n      swap2\n      pop\n        /* \"#utility.yul\":2783:3089   */\n      pop\n        /* \"#utility.yul\":2542:3096   */\n      swap3\n      swap2\n      pop\n      pop\n      jump\t// out\n        /* \"#utility.yul\":3102:3447   */\n    tag_96:\n        /* \"#utility.yul\":3169:3175   */\n      0x00\n        /* \"#utility.yul\":3218:3220   */\n      0x20\n        /* \"#utility.yul\":3206:3215   */\n      dup3\n        /* \"#utility.yul\":3197:3204   */\n      dup5\n        /* \"#utility.yul\":3193:3216   */\n      sub\n        /* \"#utility.yul\":3189:3221   */\n      slt\n        /* \"#utility.yul\":3186:3305   */\n      iszero\n      tag_234\n      jumpi\n        /* \"#utility.yul\":3224:3303   */\n      tag_235\n      tag_228\n      jump\t// in\n    tag_235:\n        /* \"#utility.yul\":3186:3305   */\n    tag_234:\n        /* \"#utility.yul\":3344:3345   */\n      0x00\n        /* \"#utility.yul\":3369:3430   */\n      tag_236\n        /* \"#utility.yul\":3422:3429   */\n      dup5\n        /* \"#utility.yul\":3413:3419   */\n      dup3\n        /* \"#utility.yul\":3402:3411   */\n      dup6\n        /* \"#utility.yul\":3398:3420   */\n      add\n        /* \"#utility.yul\":3369:3430   */\n      tag_210\n      jump\t// in\n    tag_236:\n        /* \"#utility.yul\":3359:3430   */\n      swap2\n      pop\n        /* \"#utility.yul\":3315:3440   */\n      pop\n        /* \"#utility.yul\":3102:3447   */\n      swap3\n      swap2\n      pop\n      pop\n      jump\t// out\n        /* \"#utility.yul\":3453:3962   */\n    tag_31:\n        /* \"#utility.yul\":3522:3528   */\n      0x00\n        /* \"#utility.yul\":3571:3573   */\n      0x20\n        /* \"#utility.yul\":3559:3568   */\n      dup3\n        /* \"#utility.yul\":3550:3557   */\n      dup5\n        /* \"#utility.yul\":3546:3569   */\n      sub\n        /* \"#utility.yul\":3542:3574   */\n      slt\n        /* \"#utility.yul\":3539:3658   */\n      iszero\n      tag_238\n      jumpi\n        /* \"#utility.yul\":3577:3656   */\n      tag_239\n      tag_228\n      jump\t// in\n    tag_239:\n        /* \"#utility.yul\":3539:3658   */\n    tag_238:\n        /* \"#utility.yul\":3725:3726   */\n      0x00\n        /* \"#utility.yul\":3714:3723   */\n      dup3\n        /* \"#utility.yul\":3710:3727   */\n      add\n        /* \"#utility.yul\":3697:3728   */\n      calldataload\n        /* \"#utility.yul\":3755:3773   */\n      0xffffffffffffffff\n        /* \"#utility.yul\":3747:3753   */\n      dup2\n        /* \"#utility.yul\":3744:3774   */\n      gt\n        /* \"#utility.yul\":3741:3858   */\n      iszero\n      tag_240\n      jumpi\n        /* \"#utility.yul\":3777:3856   */\n      tag_241\n      tag_231\n      jump\t// in\n    tag_241:\n        /* \"#utility.yul\":3741:3858   */\n    tag_240:\n        /* \"#utility.yul\":3882:3945   */\n      tag_242\n        /* \"#utility.yul\":3937:3944   */\n      dup5\n        /* \"#utility.yul\":3928:3934   */\n      dup3\n        /* \"#utility.yul\":3917:3926   */\n      dup6\n        /* \"#utility.yul\":3913:3935   */\n      add\n        /* \"#utility.yul\":3882:3945   */\n      tag_214\n      jump\t// in\n    tag_242:\n        /* \"#utility.yul\":3872:3945   */\n      swap2\n      pop\n        /* \"#utility.yul\":3668:3955   */\n      pop\n        /* \"#utility.yul\":3453:3962   */\n      swap3\n      swap2\n      pop\n      pop\n      jump\t// out\n        /* \"#utility.yul\":3968:4622   */\n    tag_43:\n        /* \"#utility.yul\":4046:4052   */\n      0x00\n        /* \"#utility.yul\":4054:4060   */\n      dup1\n        /* \"#utility.yul\":4103:4105   */\n      0x40\n        /* \"#utility.yul\":4091:4100   */\n      dup4\n        /* \"#utility.yul\":4082:4089   */\n      dup6\n        /* \"#utility.yul\":4078:4101   */\n      sub\n        /* \"#utility.yul\":4074:4106   */\n      slt\n        /* \"#utility.yul\":4071:4190   */\n      iszero\n      tag_244\n      jumpi\n        /* \"#utility.yul\":4109:4188   */\n      tag_245\n      tag_228\n      jump\t// in\n    tag_245:\n        /* \"#utility.yul\":4071:4190   */\n    tag_244:\n        /* \"#utility.yul\":4257:4258   */\n      0x00\n        /* \"#utility.yul\":4246:4255   */\n      dup4\n        /* \"#utility.yul\":4242:4259   */\n      add\n        /* \"#utility.yul\":4229:4260   */\n      calldataload\n        /* \"#utility.yul\":4287:4305   */\n      0xffffffffffffffff\n        /* \"#utility.yul\":4279:4285   */\n      dup2\n        /* \"#utility.yul\":4276:4306   */\n      gt\n        /* \"#utility.yul\":4273:4390   */\n      iszero\n      tag_246\n      jumpi\n        /* \"#utility.yul\":4309:4388   */\n      tag_247\n      tag_231\n      jump\t// in\n    tag_247:\n        /* \"#utility.yul\":4273:4390   */\n    tag_246:\n        /* \"#utility.yul\":4414:4477   */\n      tag_248\n        /* \"#utility.yul\":4469:4476   */\n      dup6\n        /* \"#utility.yul\":4460:4466   */\n      dup3\n        /* \"#utility.yul\":4449:4458   */\n      dup7\n        /* \"#utility.yul\":4445:4467   */\n      add\n        /* \"#utility.yul\":4414:4477   */\n      tag_214\n      jump\t// in\n    tag_248:\n        /* \"#utility.yul\":4404:4477   */\n      swap3\n      pop\n        /* \"#utility.yul\":4200:4487   */\n      pop\n        /* \"#utility.yul\":4526:4528   */\n      0x20\n        /* \"#utility.yul\":4552:4605   */\n      tag_249\n        /* \"#utility.yul\":4597:4604   */\n      dup6\n        /* \"#utility.yul\":4588:4594   */\n      dup3\n        /* \"#utility.yul\":4577:4586   */\n      dup7\n        /* \"#utility.yul\":4573:4595   */\n      add\n        /* \"#utility.yul\":4552:4605   */\n      tag_200\n      jump\t// in\n    tag_249:\n        /* \"#utility.yul\":4542:4605   */\n      swap2\n      pop\n        /* \"#utility.yul\":4497:4615   */\n      pop\n        /* \"#utility.yul\":3968:4622   */\n      swap3\n      pop\n      swap3\n      swap1\n      pop\n      jump\t// out\n        /* \"#utility.yul\":4628:5427   */\n    tag_24:\n        /* \"#utility.yul\":4715:4721   */\n      0x00\n        /* \"#utility.yul\":4723:4729   */\n      dup1\n        /* \"#utility.yul\":4731:4737   */\n      0x00\n        /* \"#utility.yul\":4780:4782   */\n      0x60\n        /* \"#utility.yul\":4768:4777   */\n      dup5\n        /* \"#utility.yul\":4759:4766   */\n      dup7\n        /* \"#utility.yul\":4755:4778   */\n      sub\n        /* \"#utility.yul\":4751:4783   */\n      slt\n        /* \"#utility.yul\":4748:4867   */\n      iszero\n      tag_251\n      jumpi\n        /* \"#utility.yul\":4786:4865   */\n      tag_252\n      tag_228\n      jump\t// in\n    tag_252:\n        /* \"#utility.yul\":4748:4867   */\n    tag_251:\n        /* \"#utility.yul\":4934:4935   */\n      0x00\n        /* \"#utility.yul\":4923:4932   */\n      dup5\n        /* \"#utility.yul\":4919:4936   */\n      add\n        /* \"#utility.yul\":4906:4937   */\n      calldataload\n        /* \"#utility.yul\":4964:4982   */\n      0xffffffffffffffff\n        /* \"#utility.yul\":4956:4962   */\n      dup2\n        /* \"#utility.yul\":4953:4983   */\n      gt\n        /* \"#utility.yul\":4950:5067   */\n      iszero\n      tag_253\n      jumpi\n        /* \"#utility.yul\":4986:5065   */\n      tag_254\n      tag_231\n      jump\t// in\n    tag_254:\n        /* \"#utility.yul\":4950:5067   */\n    tag_253:\n        /* \"#utility.yul\":5091:5154   */\n      tag_255\n        /* \"#utility.yul\":5146:5153   */\n      dup7\n        /* \"#utility.yul\":5137:5143   */\n      dup3\n        /* \"#utility.yul\":5126:5135   */\n      dup8\n        /* \"#utility.yul\":5122:5144   */\n      add\n        /* \"#utility.yul\":5091:5154   */\n      tag_214\n      jump\t// in\n    tag_255:\n        /* \"#utility.yul\":5081:5154   */\n      swap4\n      pop\n        /* \"#utility.yul\":4877:5164   */\n      pop\n        /* \"#utility.yul\":5203:5205   */\n      0x20\n        /* \"#utility.yul\":5229:5282   */\n      tag_256\n        /* \"#utility.yul\":5274:5281   */\n      dup7\n        /* \"#utility.yul\":5265:5271   */\n      dup3\n        /* \"#utility.yul\":5254:5263   */\n      dup8\n        /* \"#utility.yul\":5250:5272   */\n      add\n        /* \"#utility.yul\":5229:5282   */\n      tag_200\n      jump\t// in\n    tag_256:\n        /* \"#utility.yul\":5219:5282   */\n      swap3\n      pop\n        /* \"#utility.yul\":5174:5292   */\n      pop\n        /* \"#utility.yul\":5331:5333   */\n      0x40\n        /* \"#utility.yul\":5357:5410   */\n      tag_257\n        /* \"#utility.yul\":5402:5409   */\n      dup7\n        /* \"#utility.yul\":5393:5399   */\n      dup3\n        /* \"#utility.yul\":5382:5391   */\n      dup8\n        /* \"#utility.yul\":5378:5400   */\n      add\n        /* \"#utility.yul\":5357:5410   */\n      tag_219\n      jump\t// in\n    tag_257:\n        /* \"#utility.yul\":5347:5410   */\n      swap2\n      pop\n        /* \"#utility.yul\":5302:5420   */\n      pop\n        /* \"#utility.yul\":4628:5427   */\n      swap3\n      pop\n      swap3\n      pop\n      swap3\n      jump\t// out\n        /* \"#utility.yul\":5433:6087   */\n    tag_38:\n        /* \"#utility.yul\":5511:5517   */\n      0x00\n        /* \"#utility.yul\":5519:5525   */\n      dup1\n        /* \"#utility.yul\":5568:5570   */\n      0x40\n        /* \"#utility.yul\":5556:5565   */\n      dup4\n        /* \"#utility.yul\":5547:5554   */\n      dup6\n        /* \"#utility.yul\":5543:5566   */\n      sub\n        /* \"#utility.yul\":5539:5571   */\n      slt\n        /* \"#utility.yul\":5536:5655   */\n      iszero\n      tag_259\n      jumpi\n        /* \"#utility.yul\":5574:5653   */\n      tag_260\n      tag_228\n      jump\t// in\n    tag_260:\n        /* \"#utility.yul\":5536:5655   */\n    tag_259:\n        /* \"#utility.yul\":5722:5723   */\n      0x00\n        /* \"#utility.yul\":5711:5720   */\n      dup4\n        /* \"#utility.yul\":5707:5724   */\n      add\n        /* \"#utility.yul\":5694:5725   */\n      calldataload\n        /* \"#utility.yul\":5752:5770   */\n      0xffffffffffffffff\n        /* \"#utility.yul\":5744:5750   */\n      dup2\n        /* \"#utility.yul\":5741:5771   */\n      gt\n        /* \"#utility.yul\":5738:5855   */\n      iszero\n      tag_261\n      jumpi\n        /* \"#utility.yul\":5774:5853   */\n      tag_262\n      tag_231\n      jump\t// in\n    tag_262:\n        /* \"#utility.yul\":5738:5855   */\n    tag_261:\n        /* \"#utility.yul\":5879:5942   */\n      tag_263\n        /* \"#utility.yul\":5934:5941   */\n      dup6\n        /* \"#utility.yul\":5925:5931   */\n      dup3\n        /* \"#utility.yul\":5914:5923   */\n      dup7\n        /* \"#utility.yul\":5910:5932   */\n      add\n        /* \"#utility.yul\":5879:5942   */\n      tag_214\n      jump\t// in\n    tag_263:\n        /* \"#utility.yul\":5869:5942   */\n      swap3\n      pop\n        /* \"#utility.yul\":5665:5952   */\n      pop\n        /* \"#utility.yul\":5991:5993   */\n      0x20\n        /* \"#utility.yul\":6017:6070   */\n      tag_264\n        /* \"#utility.yul\":6062:6069   */\n      dup6\n        /* \"#utility.yul\":6053:6059   */\n      dup3\n        /* \"#utility.yul\":6042:6051   */\n      dup7\n        /* \"#utility.yul\":6038:6060   */\n      add\n        /* \"#utility.yul\":6017:6070   */\n      tag_219\n      jump\t// in\n    tag_264:\n        /* \"#utility.yul\":6007:6070   */\n      swap2\n      pop\n        /* \"#utility.yul\":5962:6080   */\n      pop\n        /* \"#utility.yul\":5433:6087   */\n      swap3\n      pop\n      swap3\n      swap1\n      pop\n      jump\t// out\n        /* \"#utility.yul\":6093:6444   */\n    tag_84:\n        /* \"#utility.yul\":6163:6169   */\n      0x00\n        /* \"#utility.yul\":6212:6214   */\n      0x20\n        /* \"#utility.yul\":6200:6209   */\n      dup3\n        /* \"#utility.yul\":6191:6198   */\n      dup5\n        /* \"#utility.yul\":6187:6210   */\n      sub\n        /* \"#utility.yul\":6183:6215   */\n      slt\n        /* \"#utility.yul\":6180:6299   */\n      iszero\n      tag_266\n      jumpi\n        /* \"#utility.yul\":6218:6297   */\n      tag_267\n      tag_228\n      jump\t// in\n    tag_267:\n        /* \"#utility.yul\":6180:6299   */\n    tag_266:\n        /* \"#utility.yul\":6338:6339   */\n      0x00\n        /* \"#utility.yul\":6363:6427   */\n      tag_268\n        /* \"#utility.yul\":6419:6426   */\n      dup5\n        /* \"#utility.yul\":6410:6416   */\n      dup3\n        /* \"#utility.yul\":6399:6408   */\n      dup6\n        /* \"#utility.yul\":6395:6417   */\n      add\n        /* \"#utility.yul\":6363:6427   */\n      tag_189\n      jump\t// in\n    tag_268:\n        /* \"#utility.yul\":6353:6427   */\n      swap2\n      pop\n        /* \"#utility.yul\":6309:6437   */\n      pop\n        /* \"#utility.yul\":6093:6444   */\n      swap3\n      swap2\n      pop\n      pop\n      jump\t// out\n        /* \"#utility.yul\":6450:7429   */\n    tag_17:\n        /* \"#utility.yul\":6547:6553   */\n      0x00\n        /* \"#utility.yul\":6555:6561   */\n      dup1\n        /* \"#utility.yul\":6563:6569   */\n      0x00\n        /* \"#utility.yul\":6612:6614   */\n      0x60\n        /* \"#utility.yul\":6600:6609   */\n      dup5\n        /* \"#utility.yul\":6591:6598   */\n      dup7\n        /* \"#utility.yul\":6587:6610   */\n      sub\n        /* \"#utility.yul\":6583:6615   */\n      slt\n        /* \"#utility.yul\":6580:6699   */\n      iszero\n      tag_270\n      jumpi\n        /* \"#utility.yul\":6618:6697   */\n      tag_271\n      tag_228\n      jump\t// in\n    tag_271:\n        /* \"#utility.yul\":6580:6699   */\n    tag_270:\n        /* \"#utility.yul\":6738:6739   */\n      0x00\n        /* \"#utility.yul\":6763:6816   */\n      tag_272\n        /* \"#utility.yul\":6808:6815   */\n      dup7\n        /* \"#utility.yul\":6799:6805   */\n      dup3\n        /* \"#utility.yul\":6788:6797   */\n      dup8\n        /* \"#utility.yul\":6784:6806   */\n      add\n        /* \"#utility.yul\":6763:6816   */\n      tag_219\n      jump\t// in\n    tag_272:\n        /* \"#utility.yul\":6753:6816   */\n      swap4\n      pop\n        /* \"#utility.yul\":6709:6826   */\n      pop\n        /* \"#utility.yul\":6893:6895   */\n      0x20\n        /* \"#utility.yul\":6882:6891   */\n      dup5\n        /* \"#utility.yul\":6878:6896   */\n      add\n        /* \"#utility.yul\":6865:6897   */\n      calldataload\n        /* \"#utility.yul\":6924:6942   */\n      0xffffffffffffffff\n        /* \"#utility.yul\":6916:6922   */\n      dup2\n        /* \"#utility.yul\":6913:6943   */\n      gt\n        /* \"#utility.yul\":6910:7027   */\n      iszero\n      tag_273\n      jumpi\n        /* \"#utility.yul\":6946:7025   */\n      tag_274\n      tag_231\n      jump\t// in\n    tag_274:\n        /* \"#utility.yul\":6910:7027   */\n    tag_273:\n        /* \"#utility.yul\":7051:7114   */\n      tag_275\n        /* \"#utility.yul\":7106:7113   */\n      dup7\n        /* \"#utility.yul\":7097:7103   */\n      dup3\n        /* \"#utility.yul\":7086:7095   */\n      dup8\n        /* \"#utility.yul\":7082:7104   */\n      add\n        /* \"#utility.yul\":7051:7114   */\n      tag_214\n      jump\t// in\n    tag_275:\n        /* \"#utility.yul\":7041:7114   */\n      swap3\n      pop\n        /* \"#utility.yul\":6836:7124   */\n      pop\n        /* \"#utility.yul\":7191:7193   */\n      0x40\n        /* \"#utility.yul\":7180:7189   */\n      dup5\n        /* \"#utility.yul\":7176:7194   */\n      add\n        /* \"#utility.yul\":7163:7195   */\n      calldataload\n        /* \"#utility.yul\":7222:7240   */\n      0xffffffffffffffff\n        /* \"#utility.yul\":7214:7220   */\n      dup2\n        /* \"#utility.yul\":7211:7241   */\n      gt\n        /* \"#utility.yul\":7208:7325   */\n      iszero\n      tag_276\n      jumpi\n        /* \"#utility.yul\":7244:7323   */\n      tag_277\n      tag_231\n      jump\t// in\n    tag_277:\n        /* \"#utility.yul\":7208:7325   */\n    tag_276:\n        /* \"#utility.yul\":7349:7412   */\n      tag_278\n        /* \"#utility.yul\":7404:7411   */\n      dup7\n        /* \"#utility.yul\":7395:7401   */\n      dup3\n        /* \"#utility.yul\":7384:7393   */\n      dup8\n        /* \"#utility.yul\":7380:7402   */\n      add\n        /* \"#utility.yul\":7349:7412   */\n      tag_214\n      jump\t// in\n    tag_278:\n        /* \"#utility.yul\":7339:7412   */\n      swap2\n      pop\n        /* \"#utility.yul\":7134:7422   */\n      pop\n        /* \"#utility.yul\":6450:7429   */\n      swap3\n      pop\n      swap3\n      pop\n      swap3\n      jump\t// out\n        /* \"#utility.yul\":7435:8706   */\n    tag_54:\n        /* \"#utility.yul\":7550:7556   */\n      0x00\n        /* \"#utility.yul\":7558:7564   */\n      dup1\n        /* \"#utility.yul\":7566:7572   */\n      0x00\n        /* \"#utility.yul\":7574:7580   */\n      dup1\n        /* \"#utility.yul\":7582:7588   */\n      0x00\n        /* \"#utility.yul\":7631:7634   */\n      0xa0\n        /* \"#utility.yul\":7619:7628   */\n      dup7\n        /* \"#utility.yul\":7610:7617   */\n      dup9\n        /* \"#utility.yul\":7606:7629   */\n      sub\n        /* \"#utility.yul\":7602:7635   */\n      slt\n        /* \"#utility.yul\":7599:7719   */\n      iszero\n      tag_280\n      jumpi\n        /* \"#utility.yul\":7638:7717   */\n      tag_281\n      tag_228\n      jump\t// in\n    tag_281:\n        /* \"#utility.yul\":7599:7719   */\n    tag_280:\n        /* \"#utility.yul\":7758:7759   */\n      0x00\n        /* \"#utility.yul\":7783:7836   */\n      tag_282\n        /* \"#utility.yul\":7828:7835   */\n      dup9\n        /* \"#utility.yul\":7819:7825   */\n      dup3\n        /* \"#utility.yul\":7808:7817   */\n      dup10\n        /* \"#utility.yul\":7804:7826   */\n      add\n        /* \"#utility.yul\":7783:7836   */\n      tag_219\n      jump\t// in\n    tag_282:\n        /* \"#utility.yul\":7773:7836   */\n      swap6\n      pop\n        /* \"#utility.yul\":7729:7846   */\n      pop\n        /* \"#utility.yul\":7885:7887   */\n      0x20\n        /* \"#utility.yul\":7911:7964   */\n      tag_283\n        /* \"#utility.yul\":7956:7963   */\n      dup9\n        /* \"#utility.yul\":7947:7953   */\n      dup3\n        /* \"#utility.yul\":7936:7945   */\n      dup10\n        /* \"#utility.yul\":7932:7954   */\n      add\n        /* \"#utility.yul\":7911:7964   */\n      tag_219\n      jump\t// in\n    tag_283:\n        /* \"#utility.yul\":7901:7964   */\n      swap5\n      pop\n        /* \"#utility.yul\":7856:7974   */\n      pop\n        /* \"#utility.yul\":8041:8043   */\n      0x40\n        /* \"#utility.yul\":8030:8039   */\n      dup7\n        /* \"#utility.yul\":8026:8044   */\n      add\n        /* \"#utility.yul\":8013:8045   */\n      calldataload\n        /* \"#utility.yul\":8072:8090   */\n      0xffffffffffffffff\n        /* \"#utility.yul\":8064:8070   */\n      dup2\n        /* \"#utility.yul\":8061:8091   */\n      gt\n        /* \"#utility.yul\":8058:8175   */\n      iszero\n      tag_284\n      jumpi\n        /* \"#utility.yul\":8094:8173   */\n      tag_285\n      tag_231\n      jump\t// in\n    tag_285:\n        /* \"#utility.yul\":8058:8175   */\n    tag_284:\n        /* \"#utility.yul\":8199:8262   */\n      tag_286\n        /* \"#utility.yul\":8254:8261   */\n      dup9\n        /* \"#utility.yul\":8245:8251   */\n      dup3\n        /* \"#utility.yul\":8234:8243   */\n      dup10\n        /* \"#utility.yul\":8230:8252   */\n      add\n        /* \"#utility.yul\":8199:8262   */\n      tag_214\n      jump\t// in\n    tag_286:\n        /* \"#utility.yul\":8189:8262   */\n      swap4\n      pop\n        /* \"#utility.yul\":7984:8272   */\n      pop\n        /* \"#utility.yul\":8339:8341   */\n      0x60\n        /* \"#utility.yul\":8328:8337   */\n      dup7\n        /* \"#utility.yul\":8324:8342   */\n      add\n        /* \"#utility.yul\":8311:8343   */\n      calldataload\n        /* \"#utility.yul\":8370:8388   */\n      0xffffffffffffffff\n        /* \"#utility.yul\":8362:8368   */\n      dup2\n        /* \"#utility.yul\":8359:8389   */\n      gt\n        /* \"#utility.yul\":8356:8473   */\n      iszero\n      tag_287\n      jumpi\n        /* \"#utility.yul\":8392:8471   */\n      tag_288\n      tag_231\n      jump\t// in\n    tag_288:\n        /* \"#utility.yul\":8356:8473   */\n    tag_287:\n        /* \"#utility.yul\":8497:8560   */\n      tag_289\n        /* \"#utility.yul\":8552:8559   */\n      dup9\n        /* \"#utility.yul\":8543:8549   */\n      dup3\n        /* \"#utility.yul\":8532:8541   */\n      dup10\n        /* \"#utility.yul\":8528:8550   */\n      add\n        /* \"#utility.yul\":8497:8560   */\n      tag_214\n      jump\t// in\n    tag_289:\n        /* \"#utility.yul\":8487:8560   */\n      swap3\n      pop\n        /* \"#utility.yul\":8282:8570   */\n      pop\n        /* \"#utility.yul\":8609:8612   */\n      0x80\n        /* \"#utility.yul\":8636:8689   */\n      tag_290\n        /* \"#utility.yul\":8681:8688   */\n      dup9\n        /* \"#utility.yul\":8672:8678   */\n      dup3\n        /* \"#utility.yul\":8661:8670   */\n      dup10\n        /* \"#utility.yul\":8657:8679   */\n      add\n        /* \"#utility.yul\":8636:8689   */\n      tag_219\n      jump\t// in\n    tag_290:\n        /* \"#utility.yul\":8626:8689   */\n      swap2\n      pop\n        /* \"#utility.yul\":8580:8699   */\n      pop\n        /* \"#utility.yul\":7435:8706   */\n      swap3\n      swap6\n      pop\n      swap3\n      swap6\n      swap1\n      swap4\n      pop\n      jump\t// out\n        /* \"#utility.yul\":8712:8891   */\n    tag_291:\n        /* \"#utility.yul\":8781:8791   */\n      0x00\n        /* \"#utility.yul\":8802:8848   */\n      tag_293\n        /* \"#utility.yul\":8844:8847   */\n      dup4\n        /* \"#utility.yul\":8836:8842   */\n      dup4\n        /* \"#utility.yul\":8802:8848   */\n      tag_294\n      jump\t// in\n    tag_293:\n        /* \"#utility.yul\":8880:8884   */\n      0x20\n        /* \"#utility.yul\":8875:8878   */\n      dup4\n        /* \"#utility.yul\":8871:8885   */\n      add\n        /* \"#utility.yul\":8857:8885   */\n      swap1\n      pop\n        /* \"#utility.yul\":8712:8891   */\n      swap3\n      swap2\n      pop\n      pop\n      jump\t// out\n        /* \"#utility.yul\":8897:9076   */\n    tag_295:\n        /* \"#utility.yul\":8966:8976   */\n      0x00\n        /* \"#utility.yul\":8987:9033   */\n      tag_297\n        /* \"#utility.yul\":9029:9032   */\n      dup4\n        /* \"#utility.yul\":9021:9027   */\n      dup4\n        /* \"#utility.yul\":8987:9033   */\n      tag_298\n      jump\t// in\n    tag_297:\n        /* \"#utility.yul\":9065:9069   */\n      0x20\n        /* \"#utility.yul\":9060:9063   */\n      dup4\n        /* \"#utility.yul\":9056:9070   */\n      add\n        /* \"#utility.yul\":9042:9070   */\n      swap1\n      pop\n        /* \"#utility.yul\":8897:9076   */\n      swap3\n      swap2\n      pop\n      pop\n      jump\t// out\n        /* \"#utility.yul\":9082:9190   */\n    tag_294:\n        /* \"#utility.yul\":9159:9183   */\n      tag_300\n        /* \"#utility.yul\":9177:9182   */\n      dup2\n        /* \"#utility.yul\":9159:9183   */\n      tag_301\n      jump\t// in\n    tag_300:\n        /* \"#utility.yul\":9154:9157   */\n      dup3\n        /* \"#utility.yul\":9147:9184   */\n      mstore\n        /* \"#utility.yul\":9082:9190   */\n      pop\n      pop\n      jump\t// out\n        /* \"#utility.yul\":9196:9314   */\n    tag_302:\n        /* \"#utility.yul\":9283:9307   */\n      tag_304\n        /* \"#utility.yul\":9301:9306   */\n      dup2\n        /* \"#utility.yul\":9283:9307   */\n      tag_301\n      jump\t// in\n    tag_304:\n        /* \"#utility.yul\":9278:9281   */\n      dup3\n        /* \"#utility.yul\":9271:9308   */\n      mstore\n        /* \"#utility.yul\":9196:9314   */\n      pop\n      pop\n      jump\t// out\n        /* \"#utility.yul\":9350:10082   */\n    tag_305:\n        /* \"#utility.yul\":9469:9472   */\n      0x00\n        /* \"#utility.yul\":9498:9552   */\n      tag_307\n        /* \"#utility.yul\":9546:9551   */\n      dup3\n        /* \"#utility.yul\":9498:9552   */\n      tag_308\n      jump\t// in\n    tag_307:\n        /* \"#utility.yul\":9568:9654   */\n      tag_309\n        /* \"#utility.yul\":9647:9653   */\n      dup2\n        /* \"#utility.yul\":9642:9645   */\n      dup6\n        /* \"#utility.yul\":9568:9654   */\n      tag_310\n      jump\t// in\n    tag_309:\n        /* \"#utility.yul\":9561:9654   */\n      swap4\n      pop\n        /* \"#utility.yul\":9678:9734   */\n      tag_311\n        /* \"#utility.yul\":9728:9733   */\n      dup4\n        /* \"#utility.yul\":9678:9734   */\n      tag_312\n      jump\t// in\n    tag_311:\n        /* \"#utility.yul\":9757:9764   */\n      dup1\n        /* \"#utility.yul\":9788:9789   */\n      0x00\n        /* \"#utility.yul\":9773:10057   */\n    tag_313:\n        /* \"#utility.yul\":9798:9804   */\n      dup4\n        /* \"#utility.yul\":9795:9796   */\n      dup2\n        /* \"#utility.yul\":9792:9805   */\n      lt\n        /* \"#utility.yul\":9773:10057   */\n      iszero\n      tag_315\n      jumpi\n        /* \"#utility.yul\":9874:9880   */\n      dup2\n        /* \"#utility.yul\":9868:9881   */\n      mload\n        /* \"#utility.yul\":9901:9964   */\n      tag_316\n        /* \"#utility.yul\":9960:9963   */\n      dup9\n        /* \"#utility.yul\":9945:9958   */\n      dup3\n        /* \"#utility.yul\":9901:9964   */\n      tag_291\n      jump\t// in\n    tag_316:\n        /* \"#utility.yul\":9894:9964   */\n      swap8\n      pop\n        /* \"#utility.yul\":9987:10047   */\n      tag_317\n        /* \"#utility.yul\":10040:10046   */\n      dup4\n        /* \"#utility.yul\":9987:10047   */\n      tag_318\n      jump\t// in\n    tag_317:\n        /* \"#utility.yul\":9977:10047   */\n      swap3\n      pop\n        /* \"#utility.yul\":9833:10057   */\n      pop\n        /* \"#utility.yul\":9820:9821   */\n      0x01\n        /* \"#utility.yul\":9817:9818   */\n      dup2\n        /* \"#utility.yul\":9813:9822   */\n      add\n        /* \"#utility.yul\":9808:9822   */\n      swap1\n      pop\n        /* \"#utility.yul\":9773:10057   */\n      jump(tag_313)\n    tag_315:\n        /* \"#utility.yul\":9777:9791   */\n      pop\n        /* \"#utility.yul\":10073:10076   */\n      dup6\n        /* \"#utility.yul\":10066:10076   */\n      swap4\n      pop\n        /* \"#utility.yul\":9474:10082   */\n      pop\n      pop\n      pop\n        /* \"#utility.yul\":9350:10082   */\n      swap3\n      swap2\n      pop\n      pop\n      jump\t// out\n        /* \"#utility.yul\":10118:10850   */\n    tag_319:\n        /* \"#utility.yul\":10237:10240   */\n      0x00\n        /* \"#utility.yul\":10266:10320   */\n      tag_321\n        /* \"#utility.yul\":10314:10319   */\n      dup3\n        /* \"#utility.yul\":10266:10320   */\n      tag_322\n      jump\t// in\n    tag_321:\n        /* \"#utility.yul\":10336:10422   */\n      tag_323\n        /* \"#utility.yul\":10415:10421   */\n      dup2\n        /* \"#utility.yul\":10410:10413   */\n      dup6\n        /* \"#utility.yul\":10336:10422   */\n      tag_324\n      jump\t// in\n    tag_323:\n        /* \"#utility.yul\":10329:10422   */\n      swap4\n      pop\n        /* \"#utility.yul\":10446:10502   */\n      tag_325\n        /* \"#utility.yul\":10496:10501   */\n      dup4\n        /* \"#utility.yul\":10446:10502   */\n      tag_326\n      jump\t// in\n    tag_325:\n        /* \"#utility.yul\":10525:10532   */\n      dup1\n        /* \"#utility.yul\":10556:10557   */\n      0x00\n        /* \"#utility.yul\":10541:10825   */\n    tag_327:\n        /* \"#utility.yul\":10566:10572   */\n      dup4\n        /* \"#utility.yul\":10563:10564   */\n      dup2\n        /* \"#utility.yul\":10560:10573   */\n      lt\n        /* \"#utility.yul\":10541:10825   */\n      iszero\n      tag_329\n      jumpi\n        /* \"#utility.yul\":10642:10648   */\n      dup2\n        /* \"#utility.yul\":10636:10649   */\n      mload\n        /* \"#utility.yul\":10669:10732   */\n      tag_330\n        /* \"#utility.yul\":10728:10731   */\n      dup9\n        /* \"#utility.yul\":10713:10726   */\n      dup3\n        /* \"#utility.yul\":10669:10732   */\n      tag_295\n      jump\t// in\n    tag_330:\n        /* \"#utility.yul\":10662:10732   */\n      swap8\n      pop\n        /* \"#utility.yul\":10755:10815   */\n      tag_331\n        /* \"#utility.yul\":10808:10814   */\n      dup4\n        /* \"#utility.yul\":10755:10815   */\n      tag_332\n      jump\t// in\n    tag_331:\n        /* \"#utility.yul\":10745:10815   */\n      swap3\n      pop\n        /* \"#utility.yul\":10601:10825   */\n      pop\n        /* \"#utility.yul\":10588:10589   */\n      0x01\n        /* \"#utility.yul\":10585:10586   */\n      dup2\n        /* \"#utility.yul\":10581:10590   */\n      add\n        /* \"#utility.yul\":10576:10590   */\n      swap1\n      pop\n        /* \"#utility.yul\":10541:10825   */\n      jump(tag_327)\n    tag_329:\n        /* \"#utility.yul\":10545:10559   */\n      pop\n        /* \"#utility.yul\":10841:10844   */\n      dup6\n        /* \"#utility.yul\":10834:10844   */\n      swap4\n      pop\n        /* \"#utility.yul\":10242:10850   */\n      pop\n      pop\n      pop\n        /* \"#utility.yul\":10118:10850   */\n      swap3\n      swap2\n      pop\n      pop\n      jump\t// out\n        /* \"#utility.yul\":10856:10965   */\n    tag_333:\n        /* \"#utility.yul\":10937:10958   */\n      tag_335\n        /* \"#utility.yul\":10952:10957   */\n      dup2\n        /* \"#utility.yul\":10937:10958   */\n      tag_336\n      jump\t// in\n    tag_335:\n        /* \"#utility.yul\":10932:10935   */\n      dup3\n        /* \"#utility.yul\":10925:10959   */\n      mstore\n        /* \"#utility.yul\":10856:10965   */\n      pop\n      pop\n      jump\t// out\n        /* \"#utility.yul\":10971:11331   */\n    tag_337:\n        /* \"#utility.yul\":11057:11060   */\n      0x00\n        /* \"#utility.yul\":11085:11123   */\n      tag_339\n        /* \"#utility.yul\":11117:11122   */\n      dup3\n        /* \"#utility.yul\":11085:11123   */\n      tag_340\n      jump\t// in\n    tag_339:\n        /* \"#utility.yul\":11139:11209   */\n      tag_341\n        /* \"#utility.yul\":11202:11208   */\n      dup2\n        /* \"#utility.yul\":11197:11200   */\n      dup6\n        /* \"#utility.yul\":11139:11209   */\n      tag_342\n      jump\t// in\n    tag_341:\n        /* \"#utility.yul\":11132:11209   */\n      swap4\n      pop\n        /* \"#utility.yul\":11218:11270   */\n      tag_343\n        /* \"#utility.yul\":11263:11269   */\n      dup2\n        /* \"#utility.yul\":11258:11261   */\n      dup6\n        /* \"#utility.yul\":11251:11255   */\n      0x20\n        /* \"#utility.yul\":11244:11249   */\n      dup7\n        /* \"#utility.yul\":11240:11256   */\n      add\n        /* \"#utility.yul\":11218:11270   */\n      tag_344\n      jump\t// in\n    tag_343:\n        /* \"#utility.yul\":11295:11324   */\n      tag_345\n        /* \"#utility.yul\":11317:11323   */\n      dup2\n        /* \"#utility.yul\":11295:11324   */\n      tag_346\n      jump\t// in\n    tag_345:\n        /* \"#utility.yul\":11290:11293   */\n      dup5\n        /* \"#utility.yul\":11286:11325   */\n      add\n        /* \"#utility.yul\":11279:11325   */\n      swap2\n      pop\n        /* \"#utility.yul\":11061:11331   */\n      pop\n        /* \"#utility.yul\":10971:11331   */\n      swap3\n      swap2\n      pop\n      pop\n      jump\t// out\n        /* \"#utility.yul\":11337:11710   */\n    tag_347:\n        /* \"#utility.yul\":11441:11444   */\n      0x00\n        /* \"#utility.yul\":11469:11507   */\n      tag_349\n        /* \"#utility.yul\":11501:11506   */\n      dup3\n        /* \"#utility.yul\":11469:11507   */\n      tag_340\n      jump\t// in\n    tag_349:\n        /* \"#utility.yul\":11523:11611   */\n      tag_350\n        /* \"#utility.yul\":11604:11610   */\n      dup2\n        /* \"#utility.yul\":11599:11602   */\n      dup6\n        /* \"#utility.yul\":11523:11611   */\n      tag_351\n      jump\t// in\n    tag_350:\n        /* \"#utility.yul\":11516:11611   */\n      swap4\n      pop\n        /* \"#utility.yul\":11620:11672   */\n      tag_352\n        /* \"#utility.yul\":11665:11671   */\n      dup2\n        /* \"#utility.yul\":11660:11663   */\n      dup6\n        /* \"#utility.yul\":11653:11657   */\n      0x20\n        /* \"#utility.yul\":11646:11651   */\n      dup7\n        /* \"#utility.yul\":11642:11658   */\n      add\n        /* \"#utility.yul\":11620:11672   */\n      tag_344\n      jump\t// in\n    tag_352:\n        /* \"#utility.yul\":11697:11703   */\n      dup1\n        /* \"#utility.yul\":11692:11695   */\n      dup5\n        /* \"#utility.yul\":11688:11704   */\n      add\n        /* \"#utility.yul\":11681:11704   */\n      swap2\n      pop\n        /* \"#utility.yul\":11445:11710   */\n      pop\n        /* \"#utility.yul\":11337:11710   */\n      swap3\n      swap2\n      pop\n      pop\n      jump\t// out\n        /* \"#utility.yul\":11716:12093   */\n    tag_353:\n        /* \"#utility.yul\":11822:11825   */\n      0x00\n        /* \"#utility.yul\":11850:11889   */\n      tag_355\n        /* \"#utility.yul\":11883:11888   */\n      dup3\n        /* \"#utility.yul\":11850:11889   */\n      tag_356\n      jump\t// in\n    tag_355:\n        /* \"#utility.yul\":11905:11994   */\n      tag_357\n        /* \"#utility.yul\":11987:11993   */\n      dup2\n        /* \"#utility.yul\":11982:11985   */\n      dup6\n        /* \"#utility.yul\":11905:11994   */\n      tag_358\n      jump\t// in\n    tag_357:\n        /* \"#utility.yul\":11898:11994   */\n      swap4\n      pop\n        /* \"#utility.yul\":12003:12055   */\n      tag_359\n        /* \"#utility.yul\":12048:12054   */\n      dup2\n        /* \"#utility.yul\":12043:12046   */\n      dup6\n        /* \"#utility.yul\":12036:12040   */\n      0x20\n        /* \"#utility.yul\":12029:12034   */\n      dup7\n        /* \"#utility.yul\":12025:12041   */\n      add\n        /* \"#utility.yul\":12003:12055   */\n      tag_344\n      jump\t// in\n    tag_359:\n        /* \"#utility.yul\":12080:12086   */\n      dup1\n        /* \"#utility.yul\":12075:12078   */\n      dup5\n        /* \"#utility.yul\":12071:12087   */\n      add\n        /* \"#utility.yul\":12064:12087   */\n      swap2\n      pop\n        /* \"#utility.yul\":11826:12093   */\n      pop\n        /* \"#utility.yul\":11716:12093   */\n      swap3\n      swap2\n      pop\n      pop\n      jump\t// out\n        /* \"#utility.yul\":12099:12465   */\n    tag_360:\n        /* \"#utility.yul\":12241:12244   */\n      0x00\n        /* \"#utility.yul\":12262:12329   */\n      tag_362\n        /* \"#utility.yul\":12326:12328   */\n      0x38\n        /* \"#utility.yul\":12321:12324   */\n      dup4\n        /* \"#utility.yul\":12262:12329   */\n      tag_363\n      jump\t// in\n    tag_362:\n        /* \"#utility.yul\":12255:12329   */\n      swap2\n      pop\n        /* \"#utility.yul\":12338:12431   */\n      tag_364\n        /* \"#utility.yul\":12427:12430   */\n      dup3\n        /* \"#utility.yul\":12338:12431   */\n      tag_365\n      jump\t// in\n    tag_364:\n        /* \"#utility.yul\":12456:12458   */\n      0x40\n        /* \"#utility.yul\":12451:12454   */\n      dup3\n        /* \"#utility.yul\":12447:12459   */\n      add\n        /* \"#utility.yul\":12440:12459   */\n      swap1\n      pop\n        /* \"#utility.yul\":12099:12465   */\n      swap2\n      swap1\n      pop\n      jump\t// out\n        /* \"#utility.yul\":12471:12871   */\n    tag_366:\n        /* \"#utility.yul\":12631:12634   */\n      0x00\n        /* \"#utility.yul\":12652:12736   */\n      tag_368\n        /* \"#utility.yul\":12734:12735   */\n      0x06\n        /* \"#utility.yul\":12729:12732   */\n      dup4\n        /* \"#utility.yul\":12652:12736   */\n      tag_358\n      jump\t// in\n    tag_368:\n        /* \"#utility.yul\":12645:12736   */\n      swap2\n      pop\n        /* \"#utility.yul\":12745:12838   */\n      tag_369\n        /* \"#utility.yul\":12834:12837   */\n      dup3\n        /* \"#utility.yul\":12745:12838   */\n      tag_370\n      jump\t// in\n    tag_369:\n        /* \"#utility.yul\":12863:12864   */\n      0x06\n        /* \"#utility.yul\":12858:12861   */\n      dup3\n        /* \"#utility.yul\":12854:12865   */\n      add\n        /* \"#utility.yul\":12847:12865   */\n      swap1\n      pop\n        /* \"#utility.yul\":12471:12871   */\n      swap2\n      swap1\n      pop\n      jump\t// out\n        /* \"#utility.yul\":12877:12985   */\n    tag_298:\n        /* \"#utility.yul\":12954:12978   */\n      tag_372\n        /* \"#utility.yul\":12972:12977   */\n      dup2\n        /* \"#utility.yul\":12954:12978   */\n      tag_373\n      jump\t// in\n    tag_372:\n        /* \"#utility.yul\":12949:12952   */\n      dup3\n        /* \"#utility.yul\":12942:12979   */\n      mstore\n        /* \"#utility.yul\":12877:12985   */\n      pop\n      pop\n      jump\t// out\n        /* \"#utility.yul\":12991:13109   */\n    tag_374:\n        /* \"#utility.yul\":13078:13102   */\n      tag_376\n        /* \"#utility.yul\":13096:13101   */\n      dup2\n        /* \"#utility.yul\":13078:13102   */\n      tag_373\n      jump\t// in\n    tag_376:\n        /* \"#utility.yul\":13073:13076   */\n      dup3\n        /* \"#utility.yul\":13066:13103   */\n      mstore\n        /* \"#utility.yul\":12991:13109   */\n      pop\n      pop\n      jump\t// out\n        /* \"#utility.yul\":13115:13386   */\n    tag_101:\n        /* \"#utility.yul\":13245:13248   */\n      0x00\n        /* \"#utility.yul\":13267:13360   */\n      tag_378\n        /* \"#utility.yul\":13356:13359   */\n      dup3\n        /* \"#utility.yul\":13347:13353   */\n      dup5\n        /* \"#utility.yul\":13267:13360   */\n      tag_347\n      jump\t// in\n    tag_378:\n        /* \"#utility.yul\":13260:13360   */\n      swap2\n      pop\n        /* \"#utility.yul\":13377:13380   */\n      dup2\n        /* \"#utility.yul\":13370:13380   */\n      swap1\n      pop\n        /* \"#utility.yul\":13115:13386   */\n      swap3\n      swap2\n      pop\n      pop\n      jump\t// out\n        /* \"#utility.yul\":13392:13667   */\n    tag_62:\n        /* \"#utility.yul\":13524:13527   */\n      0x00\n        /* \"#utility.yul\":13546:13641   */\n      tag_380\n        /* \"#utility.yul\":13637:13640   */\n      dup3\n        /* \"#utility.yul\":13628:13634   */\n      dup5\n        /* \"#utility.yul\":13546:13641   */\n      tag_353\n      jump\t// in\n    tag_380:\n        /* \"#utility.yul\":13539:13641   */\n      swap2\n      pop\n        /* \"#utility.yul\":13658:13661   */\n      dup2\n        /* \"#utility.yul\":13651:13661   */\n      swap1\n      pop\n        /* \"#utility.yul\":13392:13667   */\n      swap3\n      swap2\n      pop\n      pop\n      jump\t// out\n        /* \"#utility.yul\":13673:14054   */\n    tag_99:\n        /* \"#utility.yul\":13858:13861   */\n      0x00\n        /* \"#utility.yul\":13880:14028   */\n      tag_382\n        /* \"#utility.yul\":14024:14027   */\n      dup3\n        /* \"#utility.yul\":13880:14028   */\n      tag_366\n      jump\t// in\n    tag_382:\n        /* \"#utility.yul\":13873:14028   */\n      swap2\n      pop\n        /* \"#utility.yul\":14045:14048   */\n      dup2\n        /* \"#utility.yul\":14038:14048   */\n      swap1\n      pop\n        /* \"#utility.yul\":13673:14054   */\n      swap2\n      swap1\n      pop\n      jump\t// out\n        /* \"#utility.yul\":14060:14282   */\n    tag_116:\n        /* \"#utility.yul\":14153:14157   */\n      0x00\n        /* \"#utility.yul\":14191:14193   */\n      0x20\n        /* \"#utility.yul\":14180:14189   */\n      dup3\n        /* \"#utility.yul\":14176:14194   */\n      add\n        /* \"#utility.yul\":14168:14194   */\n      swap1\n      pop\n        /* \"#utility.yul\":14204:14275   */\n      tag_384\n        /* \"#utility.yul\":14272:14273   */\n      0x00\n        /* \"#utility.yul\":14261:14270   */\n      dup4\n        /* \"#utility.yul\":14257:14274   */\n      add\n        /* \"#utility.yul\":14248:14254   */\n      dup5\n        /* \"#utility.yul\":14204:14275   */\n      tag_302\n      jump\t// in\n    tag_384:\n        /* \"#utility.yul\":14060:14282   */\n      swap3\n      swap2\n      pop\n      pop\n      jump\t// out\n        /* \"#utility.yul\":14288:14620   */\n    tag_79:\n        /* \"#utility.yul\":14409:14413   */\n      0x00\n        /* \"#utility.yul\":14447:14449   */\n      0x40\n        /* \"#utility.yul\":14436:14445   */\n      dup3\n        /* \"#utility.yul\":14432:14450   */\n      add\n        /* \"#utility.yul\":14424:14450   */\n      swap1\n      pop\n        /* \"#utility.yul\":14460:14531   */\n      tag_386\n        /* \"#utility.yul\":14528:14529   */\n      0x00\n        /* \"#utility.yul\":14517:14526   */\n      dup4\n        /* \"#utility.yul\":14513:14530   */\n      add\n        /* \"#utility.yul\":14504:14510   */\n      dup6\n        /* \"#utility.yul\":14460:14531   */\n      tag_302\n      jump\t// in\n    tag_386:\n        /* \"#utility.yul\":14541:14613   */\n      tag_387\n        /* \"#utility.yul\":14609:14611   */\n      0x20\n        /* \"#utility.yul\":14598:14607   */\n      dup4\n        /* \"#utility.yul\":14594:14612   */\n      add\n        /* \"#utility.yul\":14585:14591   */\n      dup5\n        /* \"#utility.yul\":14541:14613   */\n      tag_302\n      jump\t// in\n    tag_387:\n        /* \"#utility.yul\":14288:14620   */\n      swap4\n      swap3\n      pop\n      pop\n      pop\n      jump\t// out\n        /* \"#utility.yul\":14626:15068   */\n    tag_91:\n        /* \"#utility.yul\":14775:14779   */\n      0x00\n        /* \"#utility.yul\":14813:14815   */\n      0x60\n        /* \"#utility.yul\":14802:14811   */\n      dup3\n        /* \"#utility.yul\":14798:14816   */\n      add\n        /* \"#utility.yul\":14790:14816   */\n      swap1\n      pop\n        /* \"#utility.yul\":14826:14897   */\n      tag_389\n        /* \"#utility.yul\":14894:14895   */\n      0x00\n        /* \"#utility.yul\":14883:14892   */\n      dup4\n        /* \"#utility.yul\":14879:14896   */\n      add\n        /* \"#utility.yul\":14870:14876   */\n      dup7\n        /* \"#utility.yul\":14826:14897   */\n      tag_302\n      jump\t// in\n    tag_389:\n        /* \"#utility.yul\":14907:14979   */\n      tag_390\n        /* \"#utility.yul\":14975:14977   */\n      0x20\n        /* \"#utility.yul\":14964:14973   */\n      dup4\n        /* \"#utility.yul\":14960:14978   */\n      add\n        /* \"#utility.yul\":14951:14957   */\n      dup6\n        /* \"#utility.yul\":14907:14979   */\n      tag_302\n      jump\t// in\n    tag_390:\n        /* \"#utility.yul\":14989:15061   */\n      tag_391\n        /* \"#utility.yul\":15057:15059   */\n      0x40\n        /* \"#utility.yul\":15046:15055   */\n      dup4\n        /* \"#utility.yul\":15042:15060   */\n      add\n        /* \"#utility.yul\":15033:15039   */\n      dup5\n        /* \"#utility.yul\":14989:15061   */\n      tag_374\n      jump\t// in\n    tag_391:\n        /* \"#utility.yul\":14626:15068   */\n      swap5\n      swap4\n      pop\n      pop\n      pop\n      pop\n      jump\t// out\n        /* \"#utility.yul\":15074:15406   */\n    tag_164:\n        /* \"#utility.yul\":15195:15199   */\n      0x00\n        /* \"#utility.yul\":15233:15235   */\n      0x40\n        /* \"#utility.yul\":15222:15231   */\n      dup3\n        /* \"#utility.yul\":15218:15236   */\n      add\n        /* \"#utility.yul\":15210:15236   */\n      swap1\n      pop\n        /* \"#utility.yul\":15246:15317   */\n      tag_393\n        /* \"#utility.yul\":15314:15315   */\n      0x00\n        /* \"#utility.yul\":15303:15312   */\n      dup4\n        /* \"#utility.yul\":15299:15316   */\n      add\n        /* \"#utility.yul\":15290:15296   */\n      dup6\n        /* \"#utility.yul\":15246:15317   */\n      tag_302\n      jump\t// in\n    tag_393:\n        /* \"#utility.yul\":15327:15399   */\n      tag_394\n        /* \"#utility.yul\":15395:15397   */\n      0x20\n        /* \"#utility.yul\":15384:15393   */\n      dup4\n        /* \"#utility.yul\":15380:15398   */\n      add\n        /* \"#utility.yul\":15371:15377   */\n      dup5\n        /* \"#utility.yul\":15327:15399   */\n      tag_374\n      jump\t// in\n    tag_394:\n        /* \"#utility.yul\":15074:15406   */\n      swap4\n      swap3\n      pop\n      pop\n      pop\n      jump\t// out\n        /* \"#utility.yul\":15412:15785   */\n    tag_20:\n        /* \"#utility.yul\":15555:15559   */\n      0x00\n        /* \"#utility.yul\":15593:15595   */\n      0x20\n        /* \"#utility.yul\":15582:15591   */\n      dup3\n        /* \"#utility.yul\":15578:15596   */\n      add\n        /* \"#utility.yul\":15570:15596   */\n      swap1\n      pop\n        /* \"#utility.yul\":15642:15651   */\n      dup2\n        /* \"#utility.yul\":15636:15640   */\n      dup2\n        /* \"#utility.yul\":15632:15652   */\n      sub\n        /* \"#utility.yul\":15628:15629   */\n      0x00\n        /* \"#utility.yul\":15617:15626   */\n      dup4\n        /* \"#utility.yul\":15613:15630   */\n      add\n        /* \"#utility.yul\":15606:15653   */\n      mstore\n        /* \"#utility.yul\":15670:15778   */\n      tag_396\n        /* \"#utility.yul\":15773:15777   */\n      dup2\n        /* \"#utility.yul\":15764:15770   */\n      dup5\n        /* \"#utility.yul\":15670:15778   */\n      tag_319\n      jump\t// in\n    tag_396:\n        /* \"#utility.yul\":15662:15778   */\n      swap1\n      pop\n        /* \"#utility.yul\":15412:15785   */\n      swap3\n      swap2\n      pop\n      pop\n      jump\t// out\n        /* \"#utility.yul\":15791:16198   */\n    tag_112:\n        /* \"#utility.yul\":15924:15928   */\n      0x00\n        /* \"#utility.yul\":15962:15964   */\n      0x40\n        /* \"#utility.yul\":15951:15960   */\n      dup3\n        /* \"#utility.yul\":15947:15965   */\n      add\n        /* \"#utility.yul\":15939:15965   */\n      swap1\n      pop\n        /* \"#utility.yul\":15975:16040   */\n      tag_398\n        /* \"#utility.yul\":16037:16038   */\n      0x00\n        /* \"#utility.yul\":16026:16035   */\n      dup4\n        /* \"#utility.yul\":16022:16039   */\n      add\n        /* \"#utility.yul\":16013:16019   */\n      dup6\n        /* \"#utility.yul\":15975:16040   */\n      tag_333\n      jump\t// in\n    tag_398:\n        /* \"#utility.yul\":16087:16096   */\n      dup2\n        /* \"#utility.yul\":16081:16085   */\n      dup2\n        /* \"#utility.yul\":16077:16097   */\n      sub\n        /* \"#utility.yul\":16072:16074   */\n      0x20\n        /* \"#utility.yul\":16061:16070   */\n      dup4\n        /* \"#utility.yul\":16057:16075   */\n      add\n        /* \"#utility.yul\":16050:16098   */\n      mstore\n        /* \"#utility.yul\":16115:16191   */\n      tag_399\n        /* \"#utility.yul\":16186:16190   */\n      dup2\n        /* \"#utility.yul\":16177:16183   */\n      dup5\n        /* \"#utility.yul\":16115:16191   */\n      tag_337\n      jump\t// in\n    tag_399:\n        /* \"#utility.yul\":16107:16191   */\n      swap1\n      pop\n        /* \"#utility.yul\":15791:16198   */\n      swap4\n      swap3\n      pop\n      pop\n      pop\n      jump\t// out\n        /* \"#utility.yul\":16204:16623   */\n    tag_87:\n        /* \"#utility.yul\":16370:16374   */\n      0x00\n        /* \"#utility.yul\":16408:16410   */\n      0x20\n        /* \"#utility.yul\":16397:16406   */\n      dup3\n        /* \"#utility.yul\":16393:16411   */\n      add\n        /* \"#utility.yul\":16385:16411   */\n      swap1\n      pop\n        /* \"#utility.yul\":16457:16466   */\n      dup2\n        /* \"#utility.yul\":16451:16455   */\n      dup2\n        /* \"#utility.yul\":16447:16467   */\n      sub\n        /* \"#utility.yul\":16443:16444   */\n      0x00\n        /* \"#utility.yul\":16432:16441   */\n      dup4\n        /* \"#utility.yul\":16428:16445   */\n      add\n        /* \"#utility.yul\":16421:16468   */\n      mstore\n        /* \"#utility.yul\":16485:16616   */\n      tag_401\n        /* \"#utility.yul\":16611:16615   */\n      dup2\n        /* \"#utility.yul\":16485:16616   */\n      tag_360\n      jump\t// in\n    tag_401:\n        /* \"#utility.yul\":16477:16616   */\n      swap1\n      pop\n        /* \"#utility.yul\":16204:16623   */\n      swap2\n      swap1\n      pop\n      jump\t// out\n        /* \"#utility.yul\":16629:16851   */\n    tag_34:\n        /* \"#utility.yul\":16722:16726   */\n      0x00\n        /* \"#utility.yul\":16760:16762   */\n      0x20\n        /* \"#utility.yul\":16749:16758   */\n      dup3\n        /* \"#utility.yul\":16745:16763   */\n      add\n        /* \"#utility.yul\":16737:16763   */\n      swap1\n      pop\n        /* \"#utility.yul\":16773:16844   */\n      tag_403\n        /* \"#utility.yul\":16841:16842   */\n      0x00\n        /* \"#utility.yul\":16830:16839   */\n      dup4\n        /* \"#utility.yul\":16826:16843   */\n      add\n        /* \"#utility.yul\":16817:16823   */\n      dup5\n        /* \"#utility.yul\":16773:16844   */\n      tag_374\n      jump\t// in\n    tag_403:\n        /* \"#utility.yul\":16629:16851   */\n      swap3\n      swap2\n      pop\n      pop\n      jump\t// out\n        /* \"#utility.yul\":16857:17340   */\n    tag_70:\n        /* \"#utility.yul\":17028:17032   */\n      0x00\n        /* \"#utility.yul\":17066:17068   */\n      0x40\n        /* \"#utility.yul\":17055:17064   */\n      dup3\n        /* \"#utility.yul\":17051:17069   */\n      add\n        /* \"#utility.yul\":17043:17069   */\n      swap1\n      pop\n        /* \"#utility.yul\":17079:17150   */\n      tag_405\n        /* \"#utility.yul\":17147:17148   */\n      0x00\n        /* \"#utility.yul\":17136:17145   */\n      dup4\n        /* \"#utility.yul\":17132:17149   */\n      add\n        /* \"#utility.yul\":17123:17129   */\n      dup6\n        /* \"#utility.yul\":17079:17150   */\n      tag_374\n      jump\t// in\n    tag_405:\n        /* \"#utility.yul\":17197:17206   */\n      dup2\n        /* \"#utility.yul\":17191:17195   */\n      dup2\n        /* \"#utility.yul\":17187:17207   */\n      sub\n        /* \"#utility.yul\":17182:17184   */\n      0x20\n        /* \"#utility.yul\":17171:17180   */\n      dup4\n        /* \"#utility.yul\":17167:17185   */\n      add\n        /* \"#utility.yul\":17160:17208   */\n      mstore\n        /* \"#utility.yul\":17225:17333   */\n      tag_406\n        /* \"#utility.yul\":17328:17332   */\n      dup2\n        /* \"#utility.yul\":17319:17325   */\n      dup5\n        /* \"#utility.yul\":17225:17333   */\n      tag_305\n      jump\t// in\n    tag_406:\n        /* \"#utility.yul\":17217:17333   */\n      swap1\n      pop\n        /* \"#utility.yul\":16857:17340   */\n      swap4\n      swap3\n      pop\n      pop\n      pop\n      jump\t// out\n        /* \"#utility.yul\":17346:18161   */\n    tag_170:\n        /* \"#utility.yul\":17601:17605   */\n      0x00\n        /* \"#utility.yul\":17639:17642   */\n      0xa0\n        /* \"#utility.yul\":17628:17637   */\n      dup3\n        /* \"#utility.yul\":17624:17643   */\n      add\n        /* \"#utility.yul\":17616:17643   */\n      swap1\n      pop\n        /* \"#utility.yul\":17653:17724   */\n      tag_408\n        /* \"#utility.yul\":17721:17722   */\n      0x00\n        /* \"#utility.yul\":17710:17719   */\n      dup4\n        /* \"#utility.yul\":17706:17723   */\n      add\n        /* \"#utility.yul\":17697:17703   */\n      dup9\n        /* \"#utility.yul\":17653:17724   */\n      tag_374\n      jump\t// in\n    tag_408:\n        /* \"#utility.yul\":17734:17806   */\n      tag_409\n        /* \"#utility.yul\":17802:17804   */\n      0x20\n        /* \"#utility.yul\":17791:17800   */\n      dup4\n        /* \"#utility.yul\":17787:17805   */\n      add\n        /* \"#utility.yul\":17778:17784   */\n      dup8\n        /* \"#utility.yul\":17734:17806   */\n      tag_374\n      jump\t// in\n    tag_409:\n        /* \"#utility.yul\":17853:17862   */\n      dup2\n        /* \"#utility.yul\":17847:17851   */\n      dup2\n        /* \"#utility.yul\":17843:17863   */\n      sub\n        /* \"#utility.yul\":17838:17840   */\n      0x40\n        /* \"#utility.yul\":17827:17836   */\n      dup4\n        /* \"#utility.yul\":17823:17841   */\n      add\n        /* \"#utility.yul\":17816:17864   */\n      mstore\n        /* \"#utility.yul\":17881:17989   */\n      tag_410\n        /* \"#utility.yul\":17984:17988   */\n      dup2\n        /* \"#utility.yul\":17975:17981   */\n      dup7\n        /* \"#utility.yul\":17881:17989   */\n      tag_305\n      jump\t// in\n    tag_410:\n        /* \"#utility.yul\":17873:17989   */\n      swap1\n      pop\n        /* \"#utility.yul\":17999:18071   */\n      tag_411\n        /* \"#utility.yul\":18067:18069   */\n      0x60\n        /* \"#utility.yul\":18056:18065   */\n      dup4\n        /* \"#utility.yul\":18052:18070   */\n      add\n        /* \"#utility.yul\":18043:18049   */\n      dup6\n        /* \"#utility.yul\":17999:18071   */\n      tag_302\n      jump\t// in\n    tag_411:\n        /* \"#utility.yul\":18081:18154   */\n      tag_412\n        /* \"#utility.yul\":18149:18152   */\n      0x80\n        /* \"#utility.yul\":18138:18147   */\n      dup4\n        /* \"#utility.yul\":18134:18153   */\n      add\n        /* \"#utility.yul\":18125:18131   */\n      dup5\n        /* \"#utility.yul\":18081:18154   */\n      tag_374\n      jump\t// in\n    tag_412:\n        /* \"#utility.yul\":17346:18161   */\n      swap7\n      swap6\n      pop\n      pop\n      pop\n      pop\n      pop\n      pop\n      jump\t// out\n        /* \"#utility.yul\":18167:18296   */\n    tag_181:\n        /* \"#utility.yul\":18201:18207   */\n      0x00\n        /* \"#utility.yul\":18228:18248   */\n      tag_414\n      tag_415\n      jump\t// in\n    tag_414:\n        /* \"#utility.yul\":18218:18248   */\n      swap1\n      pop\n        /* \"#utility.yul\":18257:18290   */\n      tag_416\n        /* \"#utility.yul\":18285:18289   */\n      dup3\n        /* \"#utility.yul\":18277:18283   */\n      dup3\n        /* \"#utility.yul\":18257:18290   */\n      tag_417\n      jump\t// in\n    tag_416:\n        /* \"#utility.yul\":18167:18296   */\n      swap2\n      swap1\n      pop\n      jump\t// out\n        /* \"#utility.yul\":18302:18377   */\n    tag_415:\n        /* \"#utility.yul\":18335:18341   */\n      0x00\n        /* \"#utility.yul\":18368:18370   */\n      0x40\n        /* \"#utility.yul\":18362:18371   */\n      mload\n        /* \"#utility.yul\":18352:18371   */\n      swap1\n      pop\n        /* \"#utility.yul\":18302:18377   */\n      swap1\n      jump\t// out\n        /* \"#utility.yul\":18383:18694   */\n    tag_180:\n        /* \"#utility.yul\":18460:18464   */\n      0x00\n        /* \"#utility.yul\":18550:18568   */\n      0xffffffffffffffff\n        /* \"#utility.yul\":18542:18548   */\n      dup3\n        /* \"#utility.yul\":18539:18569   */\n      gt\n        /* \"#utility.yul\":18536:18592   */\n      iszero\n      tag_420\n      jumpi\n        /* \"#utility.yul\":18572:18590   */\n      tag_421\n      tag_59\n      jump\t// in\n    tag_421:\n        /* \"#utility.yul\":18536:18592   */\n    tag_420:\n        /* \"#utility.yul\":18622:18626   */\n      0x20\n        /* \"#utility.yul\":18614:18620   */\n      dup3\n        /* \"#utility.yul\":18610:18627   */\n      mul\n        /* \"#utility.yul\":18602:18627   */\n      swap1\n      pop\n        /* \"#utility.yul\":18682:18686   */\n      0x20\n        /* \"#utility.yul\":18676:18680   */\n      dup2\n        /* \"#utility.yul\":18672:18687   */\n      add\n        /* \"#utility.yul\":18664:18687   */\n      swap1\n      pop\n        /* \"#utility.yul\":18383:18694   */\n      swap2\n      swap1\n      pop\n      jump\t// out\n        /* \"#utility.yul\":18700:19008   */\n    tag_194:\n        /* \"#utility.yul\":18762:18766   */\n      0x00\n        /* \"#utility.yul\":18852:18870   */\n      0xffffffffffffffff\n        /* \"#utility.yul\":18844:18850   */\n      dup3\n        /* \"#utility.yul\":18841:18871   */\n      gt\n        /* \"#utility.yul\":18838:18894   */\n      iszero\n      tag_423\n      jumpi\n        /* \"#utility.yul\":18874:18892   */\n      tag_424\n      tag_59\n      jump\t// in\n    tag_424:\n        /* \"#utility.yul\":18838:18894   */\n    tag_423:\n        /* \"#utility.yul\":18912:18941   */\n      tag_425\n        /* \"#utility.yul\":18934:18940   */\n      dup3\n        /* \"#utility.yul\":18912:18941   */\n      tag_346\n      jump\t// in\n    tag_425:\n        /* \"#utility.yul\":18904:18941   */\n      swap1\n      pop\n        /* \"#utility.yul\":18996:19000   */\n      0x20\n        /* \"#utility.yul\":18990:18994   */\n      dup2\n        /* \"#utility.yul\":18986:19001   */\n      add\n        /* \"#utility.yul\":18978:19001   */\n      swap1\n      pop\n        /* \"#utility.yul\":18700:19008   */\n      swap2\n      swap1\n      pop\n      jump\t// out\n        /* \"#utility.yul\":19014:19146   */\n    tag_312:\n        /* \"#utility.yul\":19081:19085   */\n      0x00\n        /* \"#utility.yul\":19104:19107   */\n      dup2\n        /* \"#utility.yul\":19096:19107   */\n      swap1\n      pop\n        /* \"#utility.yul\":19134:19138   */\n      0x20\n        /* \"#utility.yul\":19129:19132   */\n      dup3\n        /* \"#utility.yul\":19125:19139   */\n      add\n        /* \"#utility.yul\":19117:19139   */\n      swap1\n      pop\n        /* \"#utility.yul\":19014:19146   */\n      swap2\n      swap1\n      pop\n      jump\t// out\n        /* \"#utility.yul\":19152:19284   */\n    tag_326:\n        /* \"#utility.yul\":19219:19223   */\n      0x00\n        /* \"#utility.yul\":19242:19245   */\n      dup2\n        /* \"#utility.yul\":19234:19245   */\n      swap1\n      pop\n        /* \"#utility.yul\":19272:19276   */\n      0x20\n        /* \"#utility.yul\":19267:19270   */\n      dup3\n        /* \"#utility.yul\":19263:19277   */\n      add\n        /* \"#utility.yul\":19255:19277   */\n      swap1\n      pop\n        /* \"#utility.yul\":19152:19284   */\n      swap2\n      swap1\n      pop\n      jump\t// out\n        /* \"#utility.yul\":19290:19404   */\n    tag_308:\n        /* \"#utility.yul\":19357:19363   */\n      0x00\n        /* \"#utility.yul\":19391:19396   */\n      dup2\n        /* \"#utility.yul\":19385:19397   */\n      mload\n        /* \"#utility.yul\":19375:19397   */\n      swap1\n      pop\n        /* \"#utility.yul\":19290:19404   */\n      swap2\n      swap1\n      pop\n      jump\t// out\n        /* \"#utility.yul\":19410:19524   */\n    tag_322:\n        /* \"#utility.yul\":19477:19483   */\n      0x00\n        /* \"#utility.yul\":19511:19516   */\n      dup2\n        /* \"#utility.yul\":19505:19517   */\n      mload\n        /* \"#utility.yul\":19495:19517   */\n      swap1\n      pop\n        /* \"#utility.yul\":19410:19524   */\n      swap2\n      swap1\n      pop\n      jump\t// out\n        /* \"#utility.yul\":19530:19628   */\n    tag_340:\n        /* \"#utility.yul\":19581:19587   */\n      0x00\n        /* \"#utility.yul\":19615:19620   */\n      dup2\n        /* \"#utility.yul\":19609:19621   */\n      mload\n        /* \"#utility.yul\":19599:19621   */\n      swap1\n      pop\n        /* \"#utility.yul\":19530:19628   */\n      swap2\n      swap1\n      pop\n      jump\t// out\n        /* \"#utility.yul\":19634:19733   */\n    tag_356:\n        /* \"#utility.yul\":19686:19692   */\n      0x00\n        /* \"#utility.yul\":19720:19725   */\n      dup2\n        /* \"#utility.yul\":19714:19726   */\n      mload\n        /* \"#utility.yul\":19704:19726   */\n      swap1\n      pop\n        /* \"#utility.yul\":19634:19733   */\n      swap2\n      swap1\n      pop\n      jump\t// out\n        /* \"#utility.yul\":19739:19852   */\n    tag_318:\n        /* \"#utility.yul\":19809:19813   */\n      0x00\n        /* \"#utility.yul\":19841:19845   */\n      0x20\n        /* \"#utility.yul\":19836:19839   */\n      dup3\n        /* \"#utility.yul\":19832:19846   */\n      add\n        /* \"#utility.yul\":19824:19846   */\n      swap1\n      pop\n        /* \"#utility.yul\":19739:19852   */\n      swap2\n      swap1\n      pop\n      jump\t// out\n        /* \"#utility.yul\":19858:19971   */\n    tag_332:\n        /* \"#utility.yul\":19928:19932   */\n      0x00\n        /* \"#utility.yul\":19960:19964   */\n      0x20\n        /* \"#utility.yul\":19955:19958   */\n      dup3\n        /* \"#utility.yul\":19951:19965   */\n      add\n        /* \"#utility.yul\":19943:19965   */\n      swap1\n      pop\n        /* \"#utility.yul\":19858:19971   */\n      swap2\n      swap1\n      pop\n      jump\t// out\n        /* \"#utility.yul\":19977:20161   */\n    tag_310:\n        /* \"#utility.yul\":20076:20087   */\n      0x00\n        /* \"#utility.yul\":20110:20116   */\n      dup3\n        /* \"#utility.yul\":20105:20108   */\n      dup3\n        /* \"#utility.yul\":20098:20117   */\n      mstore\n        /* \"#utility.yul\":20150:20154   */\n      0x20\n        /* \"#utility.yul\":20145:20148   */\n      dup3\n        /* \"#utility.yul\":20141:20155   */\n      add\n        /* \"#utility.yul\":20126:20155   */\n      swap1\n      pop\n        /* \"#utility.yul\":19977:20161   */\n      swap3\n      swap2\n      pop\n      pop\n      jump\t// out\n        /* \"#utility.yul\":20167:20351   */\n    tag_324:\n        /* \"#utility.yul\":20266:20277   */\n      0x00\n        /* \"#utility.yul\":20300:20306   */\n      dup3\n        /* \"#utility.yul\":20295:20298   */\n      dup3\n        /* \"#utility.yul\":20288:20307   */\n      mstore\n        /* \"#utility.yul\":20340:20344   */\n      0x20\n        /* \"#utility.yul\":20335:20338   */\n      dup3\n        /* \"#utility.yul\":20331:20345   */\n      add\n        /* \"#utility.yul\":20316:20345   */\n      swap1\n      pop\n        /* \"#utility.yul\":20167:20351   */\n      swap3\n      swap2\n      pop\n      pop\n      jump\t// out\n        /* \"#utility.yul\":20357:20525   */\n    tag_342:\n        /* \"#utility.yul\":20440:20451   */\n      0x00\n        /* \"#utility.yul\":20474:20480   */\n      dup3\n        /* \"#utility.yul\":20469:20472   */\n      dup3\n        /* \"#utility.yul\":20462:20481   */\n      mstore\n        /* \"#utility.yul\":20514:20518   */\n      0x20\n        /* \"#utility.yul\":20509:20512   */\n      dup3\n        /* \"#utility.yul\":20505:20519   */\n      add\n        /* \"#utility.yul\":20490:20519   */\n      swap1\n      pop\n        /* \"#utility.yul\":20357:20525   */\n      swap3\n      swap2\n      pop\n      pop\n      jump\t// out\n        /* \"#utility.yul\":20531:20678   */\n    tag_351:\n        /* \"#utility.yul\":20632:20643   */\n      0x00\n        /* \"#utility.yul\":20669:20672   */\n      dup2\n        /* \"#utility.yul\":20654:20672   */\n      swap1\n      pop\n        /* \"#utility.yul\":20531:20678   */\n      swap3\n      swap2\n      pop\n      pop\n      jump\t// out\n        /* \"#utility.yul\":20684:20853   */\n    tag_363:\n        /* \"#utility.yul\":20768:20779   */\n      0x00\n        /* \"#utility.yul\":20802:20808   */\n      dup3\n        /* \"#utility.yul\":20797:20800   */\n      dup3\n        /* \"#utility.yul\":20790:20809   */\n      mstore\n        /* \"#utility.yul\":20842:20846   */\n      0x20\n        /* \"#utility.yul\":20837:20840   */\n      dup3\n        /* \"#utility.yul\":20833:20847   */\n      add\n        /* \"#utility.yul\":20818:20847   */\n      swap1\n      pop\n        /* \"#utility.yul\":20684:20853   */\n      swap3\n      swap2\n      pop\n      pop\n      jump\t// out\n        /* \"#utility.yul\":20859:21007   */\n    tag_358:\n        /* \"#utility.yul\":20961:20972   */\n      0x00\n        /* \"#utility.yul\":20998:21001   */\n      dup2\n        /* \"#utility.yul\":20983:21001   */\n      swap1\n      pop\n        /* \"#utility.yul\":20859:21007   */\n      swap3\n      swap2\n      pop\n      pop\n      jump\t// out\n        /* \"#utility.yul\":21013:21109   */\n    tag_301:\n        /* \"#utility.yul\":21050:21057   */\n      0x00\n        /* \"#utility.yul\":21079:21103   */\n      tag_441\n        /* \"#utility.yul\":21097:21102   */\n      dup3\n        /* \"#utility.yul\":21079:21103   */\n      tag_442\n      jump\t// in\n    tag_441:\n        /* \"#utility.yul\":21068:21103   */\n      swap1\n      pop\n        /* \"#utility.yul\":21013:21109   */\n      swap2\n      swap1\n      pop\n      jump\t// out\n        /* \"#utility.yul\":21115:21205   */\n    tag_336:\n        /* \"#utility.yul\":21149:21156   */\n      0x00\n        /* \"#utility.yul\":21192:21197   */\n      dup2\n        /* \"#utility.yul\":21185:21198   */\n      iszero\n        /* \"#utility.yul\":21178:21199   */\n      iszero\n        /* \"#utility.yul\":21167:21199   */\n      swap1\n      pop\n        /* \"#utility.yul\":21115:21205   */\n      swap2\n      swap1\n      pop\n      jump\t// out\n        /* \"#utility.yul\":21211:21337   */\n    tag_442:\n        /* \"#utility.yul\":21248:21255   */\n      0x00\n        /* \"#utility.yul\":21288:21330   */\n      0xffffffffffffffffffffffffffffffffffffffff\n        /* \"#utility.yul\":21281:21286   */\n      dup3\n        /* \"#utility.yul\":21277:21331   */\n      and\n        /* \"#utility.yul\":21266:21331   */\n      swap1\n      pop\n        /* \"#utility.yul\":21211:21337   */\n      swap2\n      swap1\n      pop\n      jump\t// out\n        /* \"#utility.yul\":21343:21420   */\n    tag_373:\n        /* \"#utility.yul\":21380:21387   */\n      0x00\n        /* \"#utility.yul\":21409:21414   */\n      dup2\n        /* \"#utility.yul\":21398:21414   */\n      swap1\n      pop\n        /* \"#utility.yul\":21343:21420   */\n      swap2\n      swap1\n      pop\n      jump\t// out\n        /* \"#utility.yul\":21426:21580   */\n    tag_199:\n        /* \"#utility.yul\":21510:21516   */\n      dup3\n        /* \"#utility.yul\":21505:21508   */\n      dup2\n        /* \"#utility.yul\":21500:21503   */\n      dup4\n        /* \"#utility.yul\":21487:21517   */\n      calldatacopy\n        /* \"#utility.yul\":21572:21573   */\n      0x00\n        /* \"#utility.yul\":21563:21569   */\n      dup4\n        /* \"#utility.yul\":21558:21561   */\n      dup4\n        /* \"#utility.yul\":21554:21570   */\n      add\n        /* \"#utility.yul\":21547:21574   */\n      mstore\n        /* \"#utility.yul\":21426:21580   */\n      pop\n      pop\n      pop\n      jump\t// out\n        /* \"#utility.yul\":21586:21893   */\n    tag_344:\n        /* \"#utility.yul\":21654:21655   */\n      0x00\n        /* \"#utility.yul\":21664:21777   */\n    tag_448:\n        /* \"#utility.yul\":21678:21684   */\n      dup4\n        /* \"#utility.yul\":21675:21676   */\n      dup2\n        /* \"#utility.yul\":21672:21685   */\n      lt\n        /* \"#utility.yul\":21664:21777   */\n      iszero\n      tag_450\n      jumpi\n        /* \"#utility.yul\":21763:21764   */\n      dup1\n        /* \"#utility.yul\":21758:21761   */\n      dup3\n        /* \"#utility.yul\":21754:21765   */\n      add\n        /* \"#utility.yul\":21748:21766   */\n      mload\n        /* \"#utility.yul\":21744:21745   */\n      dup2\n        /* \"#utility.yul\":21739:21742   */\n      dup5\n        /* \"#utility.yul\":21735:21746   */\n      add\n        /* \"#utility.yul\":21728:21767   */\n      mstore\n        /* \"#utility.yul\":21700:21702   */\n      0x20\n        /* \"#utility.yul\":21697:21698   */\n      dup2\n        /* \"#utility.yul\":21693:21703   */\n      add\n        /* \"#utility.yul\":21688:21703   */\n      swap1\n      pop\n        /* \"#utility.yul\":21664:21777   */\n      jump(tag_448)\n    tag_450:\n        /* \"#utility.yul\":21795:21801   */\n      dup4\n        /* \"#utility.yul\":21792:21793   */\n      dup2\n        /* \"#utility.yul\":21789:21802   */\n      gt\n        /* \"#utility.yul\":21786:21887   */\n      iszero\n      tag_451\n      jumpi\n        /* \"#utility.yul\":21875:21876   */\n      0x00\n        /* \"#utility.yul\":21866:21872   */\n      dup5\n        /* \"#utility.yul\":21861:21864   */\n      dup5\n        /* \"#utility.yul\":21857:21873   */\n      add\n        /* \"#utility.yul\":21850:21877   */\n      mstore\n        /* \"#utility.yul\":21786:21887   */\n    tag_451:\n        /* \"#utility.yul\":21635:21893   */\n      pop\n        /* \"#utility.yul\":21586:21893   */\n      pop\n      pop\n      pop\n      jump\t// out\n        /* \"#utility.yul\":21899:22180   */\n    tag_417:\n        /* \"#utility.yul\":21982:22009   */\n      tag_453\n        /* \"#utility.yul\":22004:22008   */\n      dup3\n        /* \"#utility.yul\":21982:22009   */\n      tag_346\n      jump\t// in\n    tag_453:\n        /* \"#utility.yul\":21974:21980   */\n      dup2\n        /* \"#utility.yul\":21970:22010   */\n      add\n        /* \"#utility.yul\":22112:22118   */\n      dup2\n        /* \"#utility.yul\":22100:22110   */\n      dup2\n        /* \"#utility.yul\":22097:22119   */\n      lt\n        /* \"#utility.yul\":22076:22094   */\n      0xffffffffffffffff\n        /* \"#utility.yul\":22064:22074   */\n      dup3\n        /* \"#utility.yul\":22061:22095   */\n      gt\n        /* \"#utility.yul\":22058:22120   */\n      or\n        /* \"#utility.yul\":22055:22143   */\n      iszero\n      tag_454\n      jumpi\n        /* \"#utility.yul\":22123:22141   */\n      tag_455\n      tag_59\n      jump\t// in\n    tag_455:\n        /* \"#utility.yul\":22055:22143   */\n    tag_454:\n        /* \"#utility.yul\":22163:22173   */\n      dup1\n        /* \"#utility.yul\":22159:22161   */\n      0x40\n        /* \"#utility.yul\":22152:22174   */\n      mstore\n        /* \"#utility.yul\":21942:22180   */\n      pop\n        /* \"#utility.yul\":21899:22180   */\n      pop\n      pop\n      jump\t// out\n        /* \"#utility.yul\":22186:22366   */\n    tag_65:\n        /* \"#utility.yul\":22234:22311   */\n      0x4e487b7100000000000000000000000000000000000000000000000000000000\n        /* \"#utility.yul\":22231:22232   */\n      0x00\n        /* \"#utility.yul\":22224:22312   */\n      mstore\n        /* \"#utility.yul\":22331:22335   */\n      0x32\n        /* \"#utility.yul\":22328:22329   */\n      0x04\n        /* \"#utility.yul\":22321:22336   */\n      mstore\n        /* \"#utility.yul\":22355:22359   */\n      0x24\n        /* \"#utility.yul\":22352:22353   */\n      0x00\n        /* \"#utility.yul\":22345:22360   */\n      revert\n        /* \"#utility.yul\":22372:22552   */\n    tag_59:\n        /* \"#utility.yul\":22420:22497   */\n      0x4e487b7100000000000000000000000000000000000000000000000000000000\n        /* \"#utility.yul\":22417:22418   */\n      0x00\n        /* \"#utility.yul\":22410:22498   */\n      mstore\n        /* \"#utility.yul\":22517:22521   */\n      0x41\n        /* \"#utility.yul\":22514:22515   */\n      0x04\n        /* \"#utility.yul\":22507:22522   */\n      mstore\n        /* \"#utility.yul\":22541:22545   */\n      0x24\n        /* \"#utility.yul\":22538:22539   */\n      0x00\n        /* \"#utility.yul\":22531:22546   */\n      revert\n        /* \"#utility.yul\":22558:22675   */\n    tag_208:\n        /* \"#utility.yul\":22667:22668   */\n      0x00\n        /* \"#utility.yul\":22664:22665   */\n      dup1\n        /* \"#utility.yul\":22657:22669   */\n      revert\n        /* \"#utility.yul\":22681:22798   */\n    tag_184:\n        /* \"#utility.yul\":22790:22791   */\n      0x00\n        /* \"#utility.yul\":22787:22788   */\n      dup1\n        /* \"#utility.yul\":22780:22792   */\n      revert\n        /* \"#utility.yul\":22804:22921   */\n    tag_197:\n        /* \"#utility.yul\":22913:22914   */\n      0x00\n        /* \"#utility.yul\":22910:22911   */\n      dup1\n        /* \"#utility.yul\":22903:22915   */\n      revert\n        /* \"#utility.yul\":22927:23044   */\n    tag_231:\n        /* \"#utility.yul\":23036:23037   */\n      0x00\n        /* \"#utility.yul\":23033:23034   */\n      dup1\n        /* \"#utility.yul\":23026:23038   */\n      revert\n        /* \"#utility.yul\":23050:23167   */\n    tag_228:\n        /* \"#utility.yul\":23159:23160   */\n      0x00\n        /* \"#utility.yul\":23156:23157   */\n      dup1\n        /* \"#utility.yul\":23149:23161   */\n      revert\n        /* \"#utility.yul\":23173:23275   */\n    tag_346:\n        /* \"#utility.yul\":23214:23220   */\n      0x00\n        /* \"#utility.yul\":23265:23267   */\n      0x1f\n        /* \"#utility.yul\":23261:23268   */\n      not\n        /* \"#utility.yul\":23256:23258   */\n      0x1f\n        /* \"#utility.yul\":23249:23254   */\n      dup4\n        /* \"#utility.yul\":23245:23259   */\n      add\n        /* \"#utility.yul\":23241:23269   */\n      and\n        /* \"#utility.yul\":23231:23269   */\n      swap1\n      pop\n        /* \"#utility.yul\":23173:23275   */\n      swap2\n      swap1\n      pop\n      jump\t// out\n        /* \"#utility.yul\":23281:23524   */\n    tag_365:\n        /* \"#utility.yul\":23421:23455   */\n      0x455243323020636f6e747261637420686173206e6f7420676976656e20706572\n        /* \"#utility.yul\":23417:23418   */\n      0x00\n        /* \"#utility.yul\":23409:23415   */\n      dup3\n        /* \"#utility.yul\":23405:23419   */\n      add\n        /* \"#utility.yul\":23398:23456   */\n      mstore\n        /* \"#utility.yul\":23490:23516   */\n      0x6d697373696f6e20746f207468697320616464726573732e0000000000000000\n        /* \"#utility.yul\":23485:23487   */\n      0x20\n        /* \"#utility.yul\":23477:23483   */\n      dup3\n        /* \"#utility.yul\":23473:23488   */\n      add\n        /* \"#utility.yul\":23466:23517   */\n      mstore\n        /* \"#utility.yul\":23281:23524   */\n      pop\n      jump\t// out\n        /* \"#utility.yul\":23530:23686   */\n    tag_370:\n        /* \"#utility.yul\":23670:23678   */\n      0x574d415449430000000000000000000000000000000000000000000000000000\n        /* \"#utility.yul\":23666:23667   */\n      0x00\n        /* \"#utility.yul\":23658:23664   */\n      dup3\n        /* \"#utility.yul\":23654:23668   */\n      add\n        /* \"#utility.yul\":23647:23679   */\n      mstore\n        /* \"#utility.yul\":23530:23686   */\n      pop\n      jump\t// out\n        /* \"#utility.yul\":23692:23814   */\n    tag_203:\n        /* \"#utility.yul\":23765:23789   */\n      tag_467\n        /* \"#utility.yul\":23783:23788   */\n      dup2\n        /* \"#utility.yul\":23765:23789   */\n      tag_301\n      jump\t// in\n    tag_467:\n        /* \"#utility.yul\":23758:23763   */\n      dup2\n        /* \"#utility.yul\":23755:23790   */\n      eq\n        /* \"#utility.yul\":23745:23808   */\n      tag_468\n      jumpi\n        /* \"#utility.yul\":23804:23805   */\n      0x00\n        /* \"#utility.yul\":23801:23802   */\n      dup1\n        /* \"#utility.yul\":23794:23806   */\n      revert\n        /* \"#utility.yul\":23745:23808   */\n    tag_468:\n        /* \"#utility.yul\":23692:23814   */\n      pop\n      jump\t// out\n        /* \"#utility.yul\":23820:23936   */\n    tag_213:\n        /* \"#utility.yul\":23890:23911   */\n      tag_470\n        /* \"#utility.yul\":23905:23910   */\n      dup2\n        /* \"#utility.yul\":23890:23911   */\n      tag_336\n      jump\t// in\n    tag_470:\n        /* \"#utility.yul\":23883:23888   */\n      dup2\n        /* \"#utility.yul\":23880:23912   */\n      eq\n        /* \"#utility.yul\":23870:23930   */\n      tag_471\n      jumpi\n        /* \"#utility.yul\":23926:23927   */\n      0x00\n        /* \"#utility.yul\":23923:23924   */\n      dup1\n        /* \"#utility.yul\":23916:23928   */\n      revert\n        /* \"#utility.yul\":23870:23930   */\n    tag_471:\n        /* \"#utility.yul\":23820:23936   */\n      pop\n      jump\t// out\n        /* \"#utility.yul\":23942:24064   */\n    tag_222:\n        /* \"#utility.yul\":24015:24039   */\n      tag_473\n        /* \"#utility.yul\":24033:24038   */\n      dup2\n        /* \"#utility.yul\":24015:24039   */\n      tag_373\n      jump\t// in\n    tag_473:\n        /* \"#utility.yul\":24008:24013   */\n      dup2\n        /* \"#utility.yul\":24005:24040   */\n      eq\n        /* \"#utility.yul\":23995:24058   */\n      tag_474\n      jumpi\n        /* \"#utility.yul\":24054:24055   */\n      0x00\n        /* \"#utility.yul\":24051:24052   */\n      dup1\n        /* \"#utility.yul\":24044:24056   */\n      revert\n        /* \"#utility.yul\":23995:24058   */\n    tag_474:\n        /* \"#utility.yul\":23942:24064   */\n      pop\n      jump\t// out\n\n    auxdata: 0xa26469706673582212207a3f036bcea56751e84d06ad2b20c9bcae0a63c313e514a878a687440d11919164736f6c63430008070033\n}\n",
				"bytecode": {
					"linkReferences": {},
					"object": "60806040523480156200001157600080fd5b5033600160006101000a81548173ffffffffffffffffffffffffffffffffffffffff021916908373ffffffffffffffffffffffffffffffffffffffff1602179055506040518060400160405280738f3cf7ad23cd3cadbd9735aff958023239c6a06373ffffffffffffffffffffffffffffffffffffffff16815260200160128152506000604051620000a390620006a4565b908152602001604051809103902060008201518160000160006101000a81548173ffffffffffffffffffffffffffffffffffffffff021916908373ffffffffffffffffffffffffffffffffffffffff160217905550602082015181600101559050506040518060400160405280737ceb23fd6bc0add59e62ac25578270cff1b9f61973ffffffffffffffffffffffffffffffffffffffff16815260200160128152506000604051620001559062000648565b908152602001604051809103902060008201518160000160006101000a81548173ffffffffffffffffffffffffffffffffffffffff021916908373ffffffffffffffffffffffffffffffffffffffff160217905550602082015181600101559050506040518060400160405280730d500b1d8e8ef31e21c99d1db9a6444d3adf127073ffffffffffffffffffffffffffffffffffffffff168152602001601281525060006040516200020790620006d2565b908152602001604051809103902060008201518160000160006101000a81548173ffffffffffffffffffffffffffffffffffffffff021916908373ffffffffffffffffffffffffffffffffffffffff160217905550602082015181600101559050506040518060400160405280732791bca1f2de4661ed88a30c99a7a9449aa8417473ffffffffffffffffffffffffffffffffffffffff16815260200160068152506000604051620002b990620006bb565b908152602001604051809103902060008201518160000160006101000a81548173ffffffffffffffffffffffffffffffffffffffff021916908373ffffffffffffffffffffffffffffffffffffffff16021790555060208201518160010155905050604051806040016040528073c2132d05d31c914a87c6611c10748aeb04b58e8f73ffffffffffffffffffffffffffffffffffffffff168152602001600681525060006040516200036b9062000676565b908152602001604051809103902060008201518160000160006101000a81548173ffffffffffffffffffffffffffffffffffffffff021916908373ffffffffffffffffffffffffffffffffffffffff160217905550602082015181600101559050506040518060400160405280731bfd67037b42cf73acf2047067bd4f2c47d9bfd673ffffffffffffffffffffffffffffffffffffffff168152602001600881525060006040516200041d906200068d565b908152602001604051809103902060008201518160000160006101000a81548173ffffffffffffffffffffffffffffffffffffffff021916908373ffffffffffffffffffffffffffffffffffffffff16021790555060208201518160010155905050604051806040016040528073f28164a485b0b2c90639e47b0f377b4a438a16b173ffffffffffffffffffffffffffffffffffffffff16815260200160128152506000604051620004cf906200065f565b908152602001604051809103902060008201518160000160006101000a81548173ffffffffffffffffffffffffffffffffffffffff021916908373ffffffffffffffffffffffffffffffffffffffff1602179055506020820151816001015590505062000813565b600062000546600483620006e9565b91506200055382620006f4565b600482019050919050565b60006200056d600683620006e9565b91506200057a826200071d565b600682019050919050565b600062000594600483620006e9565b9150620005a18262000746565b600482019050919050565b6000620005bb600483620006e9565b9150620005c8826200076f565b600482019050919050565b6000620005e2600383620006e9565b9150620005ef8262000798565b600382019050919050565b600062000609600483620006e9565b91506200061682620007c1565b600482019050919050565b600062000630600683620006e9565b91506200063d82620007ea565b600682019050919050565b6000620006558262000537565b9150819050919050565b60006200066c826200055e565b9150819050919050565b6000620006838262000585565b9150819050919050565b60006200069a82620005ac565b9150819050919050565b6000620006b182620005d3565b9150819050919050565b6000620006c882620005fa565b9150819050919050565b6000620006df8262000621565b9150819050919050565b600081905092915050565b7f5745544800000000000000000000000000000000000000000000000000000000600082015250565b7f44515549434b0000000000000000000000000000000000000000000000000000600082015250565b7f5553445400000000000000000000000000000000000000000000000000000000600082015250565b7f5742544300000000000000000000000000000000000000000000000000000000600082015250565b7f4441490000000000000000000000000000000000000000000000000000000000600082015250565b7f5553444300000000000000000000000000000000000000000000000000000000600082015250565b7f574d415449430000000000000000000000000000000000000000000000000000600082015250565b611bfd80620008236000396000f3fe60806040526004361061007f5760003560e01c80639bc97dee1161004e5780639bc97dee14610138578063c3a4840114610161578063e4386ba31461019e578063f809a2e6146101db57610086565b80636d336d6a1461008b5780637552acd6146100c85780637b60eb23146100f15780637d3683ba146100fb57610086565b3661008657005b600080fd5b34801561009757600080fd5b506100b260048036038101906100ad9190611331565b610204565b6040516100bf919061176e565b60405180910390f35b3480156100d457600080fd5b506100ef60048036038101906100ea9190611239565b610421565b005b6100f961060d565b005b34801561010757600080fd5b50610122600480360381019061011d9190611194565b61084a565b60405161012f91906117e0565b60405180910390f35b34801561014457600080fd5b5061015f600480360381019061015a91906112a8565b61091c565b005b34801561016d57600080fd5b50610188600480360381019061018391906111dd565b610b07565b60405161019591906117e0565b60405180910390f35b3480156101aa57600080fd5b506101c560048036038101906101c09190611194565b610bda565b6040516101d291906117e0565b60405180910390f35b3480156101e757600080fd5b5061020260048036038101906101fd91906113bc565b610cac565b005b606080600267ffffffffffffffff81111561022257610221611ab1565b5b6040519080825280602002602001820160405280156102505781602001602082028036833780820191505090505b509050600084604051610263919061169e565b908152602001604051809103902060000160009054906101000a900473ffffffffffffffffffffffffffffffffffffffff16816000815181106102a9576102a8611a82565b5b602002602001019073ffffffffffffffffffffffffffffffffffffffff16908173ffffffffffffffffffffffffffffffffffffffff16815250506000836040516102f3919061169e565b908152602001604051809103902060000160009054906101000a900473ffffffffffffffffffffffffffffffffffffffff168160018151811061033957610338611a82565b5b602002602001019073ffffffffffffffffffffffffffffffffffffffff16908173ffffffffffffffffffffffffffffffffffffffff168152505073a5e0829caced8ffdd4de3c43696c57f7d7a678ff73ffffffffffffffffffffffffffffffffffffffff1663d06ca61f86836040518363ffffffff1660e01b81526004016103c29291906117fb565b60006040518083038186803b1580156103da57600080fd5b505afa1580156103ee573d6000803e3d6000fd5b505050506040513d6000823e3d601f19601f82011682018060405250810190610417919061111e565b9150509392505050565b600083604051610431919061169e565b908152602001604051809103902060000160009054906101000a900473ffffffffffffffffffffffffffffffffffffffff16338383808473ffffffffffffffffffffffffffffffffffffffff1663dd62ed3e85856040518363ffffffff1660e01b81526004016104a29291906116e5565b60206040518083038186803b1580156104ba57600080fd5b505afa1580156104ce573d6000803e3d6000fd5b505050506040513d601f19601f820116820180604052508101906104f29190611304565b1015610533576040517f08c379a000000000000000000000000000000000000000000000000000000000815260040161052a906117c0565b60405180910390fd5b600087604051610543919061169e565b908152602001604051809103902060000160009054906101000a900473ffffffffffffffffffffffffffffffffffffffff1673ffffffffffffffffffffffffffffffffffffffff166323b872dd3388886040518463ffffffff1660e01b81526004016105b19392919061170e565b602060405180830381600087803b1580156105cb57600080fd5b505af11580156105df573d6000803e3d6000fd5b505050506040513d601f19601f820116820180604052508101906106039190611167565b5050505050505050565b600080600060405161061e906116b5565b908152602001604051809103902060000160009054906101000a900473ffffffffffffffffffffffffffffffffffffffff1673ffffffffffffffffffffffffffffffffffffffff16346040516024016040516020818303038152906040527fc5d24601000000000000000000000000000000000000000000000000000000007bffffffffffffffffffffffffffffffffffffffffffffffffffffffff19166020820180517bffffffffffffffffffffffffffffffffffffffffffffffffffffffff83818316178352505050506040516106f79190611687565b60006040518083038185875af1925050503d8060008114610734576040519150601f19603f3d011682016040523d82523d6000602084013e610739565b606091505b5091509150600060405161074c906116b5565b908152602001604051809103902060000160009054906101000a900473ffffffffffffffffffffffffffffffffffffffff1673ffffffffffffffffffffffffffffffffffffffff166323b872dd3033346040518463ffffffff1660e01b81526004016107ba9392919061170e565b602060405180830381600087803b1580156107d457600080fd5b505af11580156107e8573d6000803e3d6000fd5b505050506040513d601f19601f8201168201806040525081019061080c9190611167565b507f13848c3e38f8886f3f5d2ad9dff80d8092c2bbb8efd5b887a99c2c6cfc09ac2a828260405161083e929190611790565b60405180910390a15050565b6000808260405161085b919061169e565b908152602001604051809103902060000160009054906101000a900473ffffffffffffffffffffffffffffffffffffffff1673ffffffffffffffffffffffffffffffffffffffff166370a08231336040518263ffffffff1660e01b81526004016108c591906116ca565b60206040518083038186803b1580156108dd57600080fd5b505afa1580156108f1573d6000803e3d6000fd5b505050506040513d601f19601f820116820180604052508101906109159190611304565b9050919050565b60008260405161092c919061169e565b908152602001604051809103902060000160009054906101000a900473ffffffffffffffffffffffffffffffffffffffff16333083808473ffffffffffffffffffffffffffffffffffffffff1663dd62ed3e85856040518363ffffffff1660e01b815260040161099d9291906116e5565b60206040518083038186803b1580156109b557600080fd5b505afa1580156109c9573d6000803e3d6000fd5b505050506040513d601f19601f820116820180604052508101906109ed9190611304565b1015610a2e576040517f08c379a0000000000000000000000000000000000000000000000000000000008152600401610a25906117c0565b60405180910390fd5b600086604051610a3e919061169e565b908152602001604051809103902060000160009054906101000a900473ffffffffffffffffffffffffffffffffffffffff1673ffffffffffffffffffffffffffffffffffffffff166323b872dd3330886040518463ffffffff1660e01b8152600401610aac9392919061170e565b602060405180830381600087803b158015610ac657600080fd5b505af1158015610ada573d6000803e3d6000fd5b505050506040513d601f19601f82011682018060405250810190610afe9190611167565b50505050505050565b60008083604051610b18919061169e565b908152602001604051809103902060000160009054906101000a900473ffffffffffffffffffffffffffffffffffffffff1673ffffffffffffffffffffffffffffffffffffffff166370a08231836040518263ffffffff1660e01b8152600401610b8291906116ca565b60206040518083038186803b158015610b9a57600080fd5b505afa158015610bae573d6000803e3d6000fd5b505050506040513d601f19601f82011682018060405250810190610bd29190611304565b905092915050565b60008082604051610beb919061169e565b908152602001604051809103902060000160009054906101000a900473ffffffffffffffffffffffffffffffffffffffff1673ffffffffffffffffffffffffffffffffffffffff166370a08231306040518263ffffffff1660e01b8152600401610c5591906116ca565b60206040518083038186803b158015610c6d57600080fd5b505afa158015610c81573d6000803e3d6000fd5b505050506040513d601f19601f82011682018060405250810190610ca59190611304565b9050919050565b610cb6838661091c565b6000600267ffffffffffffffff811115610cd357610cd2611ab1565b5b604051908082528060200260200182016040528015610d015781602001602082028036833780820191505090505b509050600084604051610d14919061169e565b908152602001604051809103902060000160009054906101000a900473ffffffffffffffffffffffffffffffffffffffff1681600081518110610d5a57610d59611a82565b5b602002602001019073ffffffffffffffffffffffffffffffffffffffff16908173ffffffffffffffffffffffffffffffffffffffff1681525050600083604051610da4919061169e565b908152602001604051809103902060000160009054906101000a900473ffffffffffffffffffffffffffffffffffffffff1681600181518110610dea57610de9611a82565b5b602002602001019073ffffffffffffffffffffffffffffffffffffffff16908173ffffffffffffffffffffffffffffffffffffffff1681525050600084604051610e34919061169e565b908152602001604051809103902060000160009054906101000a900473ffffffffffffffffffffffffffffffffffffffff1673ffffffffffffffffffffffffffffffffffffffff1663095ea7b373a5e0829caced8ffdd4de3c43696c57f7d7a678ff886040518363ffffffff1660e01b8152600401610eb4929190611745565b602060405180830381600087803b158015610ece57600080fd5b505af1158015610ee2573d6000803e3d6000fd5b505050506040513d601f19601f82011682018060405250810190610f069190611167565b5073a5e0829caced8ffdd4de3c43696c57f7d7a678ff73ffffffffffffffffffffffffffffffffffffffff166338ed173987878433876040518663ffffffff1660e01b8152600401610f5c95949392919061182b565b600060405180830381600087803b158015610f7657600080fd5b505af1158015610f8a573d6000803e3d6000fd5b505050506040513d6000823e3d601f19601f82011682018060405250810190610fb3919061111e565b50505050505050565b6000610fcf610fca846118aa565b611885565b90508083825260208201905082856020860282011115610ff257610ff1611ae5565b5b60005b8581101561102257816110088882611109565b845260208401935060208301925050600181019050610ff5565b5050509392505050565b600061103f61103a846118d6565b611885565b90508281526020810184848401111561105b5761105a611aea565b5b611066848285611a0f565b509392505050565b60008135905061107d81611b82565b92915050565b600082601f83011261109857611097611ae0565b5b81516110a8848260208601610fbc565b91505092915050565b6000815190506110c081611b99565b92915050565b600082601f8301126110db576110da611ae0565b5b81356110eb84826020860161102c565b91505092915050565b60008135905061110381611bb0565b92915050565b60008151905061111881611bb0565b92915050565b60006020828403121561113457611133611af4565b5b600082015167ffffffffffffffff81111561115257611151611aef565b5b61115e84828501611083565b91505092915050565b60006020828403121561117d5761117c611af4565b5b600061118b848285016110b1565b91505092915050565b6000602082840312156111aa576111a9611af4565b5b600082013567ffffffffffffffff8111156111c8576111c7611aef565b5b6111d4848285016110c6565b91505092915050565b600080604083850312156111f4576111f3611af4565b5b600083013567ffffffffffffffff81111561121257611211611aef565b5b61121e858286016110c6565b925050602061122f8582860161106e565b9150509250929050565b60008060006060848603121561125257611251611af4565b5b600084013567ffffffffffffffff8111156112705761126f611aef565b5b61127c868287016110c6565b935050602061128d8682870161106e565b925050604061129e868287016110f4565b9150509250925092565b600080604083850312156112bf576112be611af4565b5b600083013567ffffffffffffffff8111156112dd576112dc611aef565b5b6112e9858286016110c6565b92505060206112fa858286016110f4565b9150509250929050565b60006020828403121561131a57611319611af4565b5b600061132884828501611109565b91505092915050565b60008060006060848603121561134a57611349611af4565b5b6000611358868287016110f4565b935050602084013567ffffffffffffffff81111561137957611378611aef565b5b611385868287016110c6565b925050604084013567ffffffffffffffff8111156113a6576113a5611aef565b5b6113b2868287016110c6565b9150509250925092565b600080600080600060a086880312156113d8576113d7611af4565b5b60006113e6888289016110f4565b95505060206113f7888289016110f4565b945050604086013567ffffffffffffffff81111561141857611417611aef565b5b611424888289016110c6565b935050606086013567ffffffffffffffff81111561144557611444611aef565b5b611451888289016110c6565b9250506080611462888289016110f4565b9150509295509295909350565b600061147b838361149f565b60208301905092915050565b60006114938383611669565b60208301905092915050565b6114a8816119c7565b82525050565b6114b7816119c7565b82525050565b60006114c882611927565b6114d2818561196d565b93506114dd83611907565b8060005b8381101561150e5781516114f5888261146f565b975061150083611953565b9250506001810190506114e1565b5085935050505092915050565b600061152682611932565b611530818561197e565b935061153b83611917565b8060005b8381101561156c5781516115538882611487565b975061155e83611960565b92505060018101905061153f565b5085935050505092915050565b611582816119d9565b82525050565b60006115938261193d565b61159d818561198f565b93506115ad818560208601611a1e565b6115b681611af9565b840191505092915050565b60006115cc8261193d565b6115d681856119a0565b93506115e6818560208601611a1e565b80840191505092915050565b60006115fd82611948565b61160781856119bc565b9350611617818560208601611a1e565b80840191505092915050565b60006116306038836119ab565b915061163b82611b0a565b604082019050919050565b60006116536006836119bc565b915061165e82611b59565b600682019050919050565b61167281611a05565b82525050565b61168181611a05565b82525050565b600061169382846115c1565b915081905092915050565b60006116aa82846115f2565b915081905092915050565b60006116c082611646565b9150819050919050565b60006020820190506116df60008301846114ae565b92915050565b60006040820190506116fa60008301856114ae565b61170760208301846114ae565b9392505050565b600060608201905061172360008301866114ae565b61173060208301856114ae565b61173d6040830184611678565b949350505050565b600060408201905061175a60008301856114ae565b6117676020830184611678565b9392505050565b60006020820190508181036000830152611788818461151b565b905092915050565b60006040820190506117a56000830185611579565b81810360208301526117b78184611588565b90509392505050565b600060208201905081810360008301526117d981611623565b9050919050565b60006020820190506117f56000830184611678565b92915050565b60006040820190506118106000830185611678565b818103602083015261182281846114bd565b90509392505050565b600060a0820190506118406000830188611678565b61184d6020830187611678565b818103604083015261185f81866114bd565b905061186e60608301856114ae565b61187b6080830184611678565b9695505050505050565b600061188f6118a0565b905061189b8282611a51565b919050565b6000604051905090565b600067ffffffffffffffff8211156118c5576118c4611ab1565b5b602082029050602081019050919050565b600067ffffffffffffffff8211156118f1576118f0611ab1565b5b6118fa82611af9565b9050602081019050919050565b6000819050602082019050919050565b6000819050602082019050919050565b600081519050919050565b600081519050919050565b600081519050919050565b600081519050919050565b6000602082019050919050565b6000602082019050919050565b600082825260208201905092915050565b600082825260208201905092915050565b600082825260208201905092915050565b600081905092915050565b600082825260208201905092915050565b600081905092915050565b60006119d2826119e5565b9050919050565b60008115159050919050565b600073ffffffffffffffffffffffffffffffffffffffff82169050919050565b6000819050919050565b82818337600083830152505050565b60005b83811015611a3c578082015181840152602081019050611a21565b83811115611a4b576000848401525b50505050565b611a5a82611af9565b810181811067ffffffffffffffff82111715611a7957611a78611ab1565b5b80604052505050565b7f4e487b7100000000000000000000000000000000000000000000000000000000600052603260045260246000fd5b7f4e487b7100000000000000000000000000000000000000000000000000000000600052604160045260246000fd5b600080fd5b600080fd5b600080fd5b600080fd5b600080fd5b6000601f19601f8301169050919050565b7f455243323020636f6e747261637420686173206e6f7420676976656e2070657260008201527f6d697373696f6e20746f207468697320616464726573732e0000000000000000602082015250565b7f574d415449430000000000000000000000000000000000000000000000000000600082015250565b611b8b816119c7565b8114611b9657600080fd5b50565b611ba2816119d9565b8114611bad57600080fd5b50565b611bb981611a05565b8114611bc457600080fd5b5056fea26469706673582212207a3f036bcea56751e84d06ad2b20c9bcae0a63c313e514a878a687440d11919164736f6c63430008070033",
					"opcodes": "PUSH1 0x80 PUSH1 0x40 MSTORE CALLVALUE DUP1 ISZERO PUSH3 0x11 JUMPI PUSH1 0x0 DUP1 REVERT JUMPDEST POP CALLER PUSH1 0x1 PUSH1 0x0 PUSH2 0x100 EXP DUP2 SLOAD DUP2 PUSH20 0xFFFFFFFFFFFFFFFFFFFFFFFFFFFFFFFFFFFFFFFF MUL NOT AND SWAP1 DUP4 PUSH20 0xFFFFFFFFFFFFFFFFFFFFFFFFFFFFFFFFFFFFFFFF AND MUL OR SWAP1 SSTORE POP PUSH1 0x40 MLOAD DUP1 PUSH1 0x40 ADD PUSH1 0x40 MSTORE DUP1 PUSH20 0x8F3CF7AD23CD3CADBD9735AFF958023239C6A063 PUSH20 0xFFFFFFFFFFFFFFFFFFFFFFFFFFFFFFFFFFFFFFFF AND DUP2 MSTORE PUSH1 0x20 ADD PUSH1 0x12 DUP2 MSTORE POP PUSH1 0x0 PUSH1 0x40 MLOAD PUSH3 0xA3 SWAP1 PUSH3 0x6A4 JUMP JUMPDEST SWAP1 DUP2 MSTORE PUSH1 0x20 ADD PUSH1 0x40 MLOAD DUP1 SWAP2 SUB SWAP1 KECCAK256 PUSH1 0x0 DUP3 ADD MLOAD DUP2 PUSH1 0x0 ADD PUSH1 0x0 PUSH2 0x100 EXP DUP2 SLOAD DUP2 PUSH20 0xFFFFFFFFFFFFFFFFFFFFFFFFFFFFFFFFFFFFFFFF MUL NOT AND SWAP1 DUP4 PUSH20 0xFFFFFFFFFFFFFFFFFFFFFFFFFFFFFFFFFFFFFFFF AND MUL OR SWAP1 SSTORE POP PUSH1 0x20 DUP3 ADD MLOAD DUP2 PUSH1 0x1 ADD SSTORE SWAP1 POP POP PUSH1 0x40 MLOAD DUP1 PUSH1 0x40 ADD PUSH1 0x40 MSTORE DUP1 PUSH20 0x7CEB23FD6BC0ADD59E62AC25578270CFF1B9F619 PUSH20 0xFFFFFFFFFFFFFFFFFFFFFFFFFFFFFFFFFFFFFFFF AND DUP2 MSTORE PUSH1 0x20 ADD PUSH1 0x12 DUP2 MSTORE POP PUSH1 0x0 PUSH1 0x40 MLOAD PUSH3 0x155 SWAP1 PUSH3 0x648 JUMP JUMPDEST SWAP1 DUP2 MSTORE PUSH1 0x20 ADD PUSH1 0x40 MLOAD DUP1 SWAP2 SUB SWAP1 KECCAK256 PUSH1 0x0 DUP3 ADD MLOAD DUP2 PUSH1 0x0 ADD PUSH1 0x0 PUSH2 0x100 EXP DUP2 SLOAD DUP2 PUSH20 0xFFFFFFFFFFFFFFFFFFFFFFFFFFFFFFFFFFFFFFFF MUL NOT AND SWAP1 DUP4 PUSH20 0xFFFFFFFFFFFFFFFFFFFFFFFFFFFFFFFFFFFFFFFF AND MUL OR SWAP1 SSTORE POP PUSH1 0x20 DUP3 ADD MLOAD DUP2 PUSH1 0x1 ADD SSTORE SWAP1 POP POP PUSH1 0x40 MLOAD DUP1 PUSH1 0x40 ADD PUSH1 0x40 MSTORE DUP1 PUSH20 0xD500B1D8E8EF31E21C99D1DB9A6444D3ADF1270 PUSH20 0xFFFFFFFFFFFFFFFFFFFFFFFFFFFFFFFFFFFFFFFF AND DUP2 MSTORE PUSH1 0x20 ADD PUSH1 0x12 DUP2 MSTORE POP PUSH1 0x0 PUSH1 0x40 MLOAD PUSH3 0x207 SWAP1 PUSH3 0x6D2 JUMP JUMPDEST SWAP1 DUP2 MSTORE PUSH1 0x20 ADD PUSH1 0x40 MLOAD DUP1 SWAP2 SUB SWAP1 KECCAK256 PUSH1 0x0 DUP3 ADD MLOAD DUP2 PUSH1 0x0 ADD PUSH1 0x0 PUSH2 0x100 EXP DUP2 SLOAD DUP2 PUSH20 0xFFFFFFFFFFFFFFFFFFFFFFFFFFFFFFFFFFFFFFFF MUL NOT AND SWAP1 DUP4 PUSH20 0xFFFFFFFFFFFFFFFFFFFFFFFFFFFFFFFFFFFFFFFF AND MUL OR SWAP1 SSTORE POP PUSH1 0x20 DUP3 ADD MLOAD DUP2 PUSH1 0x1 ADD SSTORE SWAP1 POP POP PUSH1 0x40 MLOAD DUP1 PUSH1 0x40 ADD PUSH1 0x40 MSTORE DUP1 PUSH20 0x2791BCA1F2DE4661ED88A30C99A7A9449AA84174 PUSH20 0xFFFFFFFFFFFFFFFFFFFFFFFFFFFFFFFFFFFFFFFF AND DUP2 MSTORE PUSH1 0x20 ADD PUSH1 0x6 DUP2 MSTORE POP PUSH1 0x0 PUSH1 0x40 MLOAD PUSH3 0x2B9 SWAP1 PUSH3 0x6BB JUMP JUMPDEST SWAP1 DUP2 MSTORE PUSH1 0x20 ADD PUSH1 0x40 MLOAD DUP1 SWAP2 SUB SWAP1 KECCAK256 PUSH1 0x0 DUP3 ADD MLOAD DUP2 PUSH1 0x0 ADD PUSH1 0x0 PUSH2 0x100 EXP DUP2 SLOAD DUP2 PUSH20 0xFFFFFFFFFFFFFFFFFFFFFFFFFFFFFFFFFFFFFFFF MUL NOT AND SWAP1 DUP4 PUSH20 0xFFFFFFFFFFFFFFFFFFFFFFFFFFFFFFFFFFFFFFFF AND MUL OR SWAP1 SSTORE POP PUSH1 0x20 DUP3 ADD MLOAD DUP2 PUSH1 0x1 ADD SSTORE SWAP1 POP POP PUSH1 0x40 MLOAD DUP1 PUSH1 0x40 ADD PUSH1 0x40 MSTORE DUP1 PUSH20 0xC2132D05D31C914A87C6611C10748AEB04B58E8F PUSH20 0xFFFFFFFFFFFFFFFFFFFFFFFFFFFFFFFFFFFFFFFF AND DUP2 MSTORE PUSH1 0x20 ADD PUSH1 0x6 DUP2 MSTORE POP PUSH1 0x0 PUSH1 0x40 MLOAD PUSH3 0x36B SWAP1 PUSH3 0x676 JUMP JUMPDEST SWAP1 DUP2 MSTORE PUSH1 0x20 ADD PUSH1 0x40 MLOAD DUP1 SWAP2 SUB SWAP1 KECCAK256 PUSH1 0x0 DUP3 ADD MLOAD DUP2 PUSH1 0x0 ADD PUSH1 0x0 PUSH2 0x100 EXP DUP2 SLOAD DUP2 PUSH20 0xFFFFFFFFFFFFFFFFFFFFFFFFFFFFFFFFFFFFFFFF MUL NOT AND SWAP1 DUP4 PUSH20 0xFFFFFFFFFFFFFFFFFFFFFFFFFFFFFFFFFFFFFFFF AND MUL OR SWAP1 SSTORE POP PUSH1 0x20 DUP3 ADD MLOAD DUP2 PUSH1 0x1 ADD SSTORE SWAP1 POP POP PUSH1 0x40 MLOAD DUP1 PUSH1 0x40 ADD PUSH1 0x40 MSTORE DUP1 PUSH20 0x1BFD67037B42CF73ACF2047067BD4F2C47D9BFD6 PUSH20 0xFFFFFFFFFFFFFFFFFFFFFFFFFFFFFFFFFFFFFFFF AND DUP2 MSTORE PUSH1 0x20 ADD PUSH1 0x8 DUP2 MSTORE POP PUSH1 0x0 PUSH1 0x40 MLOAD PUSH3 0x41D SWAP1 PUSH3 0x68D JUMP JUMPDEST SWAP1 DUP2 MSTORE PUSH1 0x20 ADD PUSH1 0x40 MLOAD DUP1 SWAP2 SUB SWAP1 KECCAK256 PUSH1 0x0 DUP3 ADD MLOAD DUP2 PUSH1 0x0 ADD PUSH1 0x0 PUSH2 0x100 EXP DUP2 SLOAD DUP2 PUSH20 0xFFFFFFFFFFFFFFFFFFFFFFFFFFFFFFFFFFFFFFFF MUL NOT AND SWAP1 DUP4 PUSH20 0xFFFFFFFFFFFFFFFFFFFFFFFFFFFFFFFFFFFFFFFF AND MUL OR SWAP1 SSTORE POP PUSH1 0x20 DUP3 ADD MLOAD DUP2 PUSH1 0x1 ADD SSTORE SWAP1 POP POP PUSH1 0x40 MLOAD DUP1 PUSH1 0x40 ADD PUSH1 0x40 MSTORE DUP1 PUSH20 0xF28164A485B0B2C90639E47B0F377B4A438A16B1 PUSH20 0xFFFFFFFFFFFFFFFFFFFFFFFFFFFFFFFFFFFFFFFF AND DUP2 MSTORE PUSH1 0x20 ADD PUSH1 0x12 DUP2 MSTORE POP PUSH1 0x0 PUSH1 0x40 MLOAD PUSH3 0x4CF SWAP1 PUSH3 0x65F JUMP JUMPDEST SWAP1 DUP2 MSTORE PUSH1 0x20 ADD PUSH1 0x40 MLOAD DUP1 SWAP2 SUB SWAP1 KECCAK256 PUSH1 0x0 DUP3 ADD MLOAD DUP2 PUSH1 0x0 ADD PUSH1 0x0 PUSH2 0x100 EXP DUP2 SLOAD DUP2 PUSH20 0xFFFFFFFFFFFFFFFFFFFFFFFFFFFFFFFFFFFFFFFF MUL NOT AND SWAP1 DUP4 PUSH20 0xFFFFFFFFFFFFFFFFFFFFFFFFFFFFFFFFFFFFFFFF AND MUL OR SWAP1 SSTORE POP PUSH1 0x20 DUP3 ADD MLOAD DUP2 PUSH1 0x1 ADD SSTORE SWAP1 POP POP PUSH3 0x813 JUMP JUMPDEST PUSH1 0x0 PUSH3 0x546 PUSH1 0x4 DUP4 PUSH3 0x6E9 JUMP JUMPDEST SWAP2 POP PUSH3 0x553 DUP3 PUSH3 0x6F4 JUMP JUMPDEST PUSH1 0x4 DUP3 ADD SWAP1 POP SWAP2 SWAP1 POP JUMP JUMPDEST PUSH1 0x0 PUSH3 0x56D PUSH1 0x6 DUP4 PUSH3 0x6E9 JUMP JUMPDEST SWAP2 POP PUSH3 0x57A DUP3 PUSH3 0x71D JUMP JUMPDEST PUSH1 0x6 DUP3 ADD SWAP1 POP SWAP2 SWAP1 POP JUMP JUMPDEST PUSH1 0x0 PUSH3 0x594 PUSH1 0x4 DUP4 PUSH3 0x6E9 JUMP JUMPDEST SWAP2 POP PUSH3 0x5A1 DUP3 PUSH3 0x746 JUMP JUMPDEST PUSH1 0x4 DUP3 ADD SWAP1 POP SWAP2 SWAP1 POP JUMP JUMPDEST PUSH1 0x0 PUSH3 0x5BB PUSH1 0x4 DUP4 PUSH3 0x6E9 JUMP JUMPDEST SWAP2 POP PUSH3 0x5C8 DUP3 PUSH3 0x76F JUMP JUMPDEST PUSH1 0x4 DUP3 ADD SWAP1 POP SWAP2 SWAP1 POP JUMP JUMPDEST PUSH1 0x0 PUSH3 0x5E2 PUSH1 0x3 DUP4 PUSH3 0x6E9 JUMP JUMPDEST SWAP2 POP PUSH3 0x5EF DUP3 PUSH3 0x798 JUMP JUMPDEST PUSH1 0x3 DUP3 ADD SWAP1 POP SWAP2 SWAP1 POP JUMP JUMPDEST PUSH1 0x0 PUSH3 0x609 PUSH1 0x4 DUP4 PUSH3 0x6E9 JUMP JUMPDEST SWAP2 POP PUSH3 0x616 DUP3 PUSH3 0x7C1 JUMP JUMPDEST PUSH1 0x4 DUP3 ADD SWAP1 POP SWAP2 SWAP1 POP JUMP JUMPDEST PUSH1 0x0 PUSH3 0x630 PUSH1 0x6 DUP4 PUSH3 0x6E9 JUMP JUMPDEST SWAP2 POP PUSH3 0x63D DUP3 PUSH3 0x7EA JUMP JUMPDEST PUSH1 0x6 DUP3 ADD SWAP1 POP SWAP2 SWAP1 POP JUMP JUMPDEST PUSH1 0x0 PUSH3 0x655 DUP3 PUSH3 0x537 JUMP JUMPDEST SWAP2 POP DUP2 SWAP1 POP SWAP2 SWAP1 POP JUMP JUMPDEST PUSH1 0x0 PUSH3 0x66C DUP3 PUSH3 0x55E JUMP JUMPDEST SWAP2 POP DUP2 SWAP1 POP SWAP2 SWAP1 POP JUMP JUMPDEST PUSH1 0x0 PUSH3 0x683 DUP3 PUSH3 0x585 JUMP JUMPDEST SWAP2 POP DUP2 SWAP1 POP SWAP2 SWAP1 POP JUMP JUMPDEST PUSH1 0x0 PUSH3 0x69A DUP3 PUSH3 0x5AC JUMP JUMPDEST SWAP2 POP DUP2 SWAP1 POP SWAP2 SWAP1 POP JUMP JUMPDEST PUSH1 0x0 PUSH3 0x6B1 DUP3 PUSH3 0x5D3 JUMP JUMPDEST SWAP2 POP DUP2 SWAP1 POP SWAP2 SWAP1 POP JUMP JUMPDEST PUSH1 0x0 PUSH3 0x6C8 DUP3 PUSH3 0x5FA JUMP JUMPDEST SWAP2 POP DUP2 SWAP1 POP SWAP2 SWAP1 POP JUMP JUMPDEST PUSH1 0x0 PUSH3 0x6DF DUP3 PUSH3 0x621 JUMP JUMPDEST SWAP2 POP DUP2 SWAP1 POP SWAP2 SWAP1 POP JUMP JUMPDEST PUSH1 0x0 DUP2 SWAP1 POP SWAP3 SWAP2 POP POP JUMP JUMPDEST PUSH32 0x5745544800000000000000000000000000000000000000000000000000000000 PUSH1 0x0 DUP3 ADD MSTORE POP JUMP JUMPDEST PUSH32 0x44515549434B0000000000000000000000000000000000000000000000000000 PUSH1 0x0 DUP3 ADD MSTORE POP JUMP JUMPDEST PUSH32 0x5553445400000000000000000000000000000000000000000000000000000000 PUSH1 0x0 DUP3 ADD MSTORE POP JUMP JUMPDEST PUSH32 0x5742544300000000000000000000000000000000000000000000000000000000 PUSH1 0x0 DUP3 ADD MSTORE POP JUMP JUMPDEST PUSH32 0x4441490000000000000000000000000000000000000000000000000000000000 PUSH1 0x0 DUP3 ADD MSTORE POP JUMP JUMPDEST PUSH32 0x5553444300000000000000000000000000000000000000000000000000000000 PUSH1 0x0 DUP3 ADD MSTORE POP JUMP JUMPDEST PUSH32 0x574D415449430000000000000000000000000000000000000000000000000000 PUSH1 0x0 DUP3 ADD MSTORE POP JUMP JUMPDEST PUSH2 0x1BFD DUP1 PUSH3 0x823 PUSH1 0x0 CODECOPY PUSH1 0x0 RETURN INVALID PUSH1 0x80 PUSH1 0x40 MSTORE PUSH1 0x4 CALLDATASIZE LT PUSH2 0x7F JUMPI PUSH1 0x0 CALLDATALOAD PUSH1 0xE0 SHR DUP1 PUSH4 0x9BC97DEE GT PUSH2 0x4E JUMPI DUP1 PUSH4 0x9BC97DEE EQ PUSH2 0x138 JUMPI DUP1 PUSH4 0xC3A48401 EQ PUSH2 0x161 JUMPI DUP1 PUSH4 0xE4386BA3 EQ PUSH2 0x19E JUMPI DUP1 PUSH4 0xF809A2E6 EQ PUSH2 0x1DB JUMPI PUSH2 0x86 JUMP JUMPDEST DUP1 PUSH4 0x6D336D6A EQ PUSH2 0x8B JUMPI DUP1 PUSH4 0x7552ACD6 EQ PUSH2 0xC8 JUMPI DUP1 PUSH4 0x7B60EB23 EQ PUSH2 0xF1 JUMPI DUP1 PUSH4 0x7D3683BA EQ PUSH2 0xFB JUMPI PUSH2 0x86 JUMP JUMPDEST CALLDATASIZE PUSH2 0x86 JUMPI STOP JUMPDEST PUSH1 0x0 DUP1 REVERT JUMPDEST CALLVALUE DUP1 ISZERO PUSH2 0x97 JUMPI PUSH1 0x0 DUP1 REVERT JUMPDEST POP PUSH2 0xB2 PUSH1 0x4 DUP1 CALLDATASIZE SUB DUP2 ADD SWAP1 PUSH2 0xAD SWAP2 SWAP1 PUSH2 0x1331 JUMP JUMPDEST PUSH2 0x204 JUMP JUMPDEST PUSH1 0x40 MLOAD PUSH2 0xBF SWAP2 SWAP1 PUSH2 0x176E JUMP JUMPDEST PUSH1 0x40 MLOAD DUP1 SWAP2 SUB SWAP1 RETURN JUMPDEST CALLVALUE DUP1 ISZERO PUSH2 0xD4 JUMPI PUSH1 0x0 DUP1 REVERT JUMPDEST POP PUSH2 0xEF PUSH1 0x4 DUP1 CALLDATASIZE SUB DUP2 ADD SWAP1 PUSH2 0xEA SWAP2 SWAP1 PUSH2 0x1239 JUMP JUMPDEST PUSH2 0x421 JUMP JUMPDEST STOP JUMPDEST PUSH2 0xF9 PUSH2 0x60D JUMP JUMPDEST STOP JUMPDEST CALLVALUE DUP1 ISZERO PUSH2 0x107 JUMPI PUSH1 0x0 DUP1 REVERT JUMPDEST POP PUSH2 0x122 PUSH1 0x4 DUP1 CALLDATASIZE SUB DUP2 ADD SWAP1 PUSH2 0x11D SWAP2 SWAP1 PUSH2 0x1194 JUMP JUMPDEST PUSH2 0x84A JUMP JUMPDEST PUSH1 0x40 MLOAD PUSH2 0x12F SWAP2 SWAP1 PUSH2 0x17E0 JUMP JUMPDEST PUSH1 0x40 MLOAD DUP1 SWAP2 SUB SWAP1 RETURN JUMPDEST CALLVALUE DUP1 ISZERO PUSH2 0x144 JUMPI PUSH1 0x0 DUP1 REVERT JUMPDEST POP PUSH2 0x15F PUSH1 0x4 DUP1 CALLDATASIZE SUB DUP2 ADD SWAP1 PUSH2 0x15A SWAP2 SWAP1 PUSH2 0x12A8 JUMP JUMPDEST PUSH2 0x91C JUMP JUMPDEST STOP JUMPDEST CALLVALUE DUP1 ISZERO PUSH2 0x16D JUMPI PUSH1 0x0 DUP1 REVERT JUMPDEST POP PUSH2 0x188 PUSH1 0x4 DUP1 CALLDATASIZE SUB DUP2 ADD SWAP1 PUSH2 0x183 SWAP2 SWAP1 PUSH2 0x11DD JUMP JUMPDEST PUSH2 0xB07 JUMP JUMPDEST PUSH1 0x40 MLOAD PUSH2 0x195 SWAP2 SWAP1 PUSH2 0x17E0 JUMP JUMPDEST PUSH1 0x40 MLOAD DUP1 SWAP2 SUB SWAP1 RETURN JUMPDEST CALLVALUE DUP1 ISZERO PUSH2 0x1AA JUMPI PUSH1 0x0 DUP1 REVERT JUMPDEST POP PUSH2 0x1C5 PUSH1 0x4 DUP1 CALLDATASIZE SUB DUP2 ADD SWAP1 PUSH2 0x1C0 SWAP2 SWAP1 PUSH2 0x1194 JUMP JUMPDEST PUSH2 0xBDA JUMP JUMPDEST PUSH1 0x40 MLOAD PUSH2 0x1D2 SWAP2 SWAP1 PUSH2 0x17E0 JUMP JUMPDEST PUSH1 0x40 MLOAD DUP1 SWAP2 SUB SWAP1 RETURN JUMPDEST CALLVALUE DUP1 ISZERO PUSH2 0x1E7 JUMPI PUSH1 0x0 DUP1 REVERT JUMPDEST POP PUSH2 0x202 PUSH1 0x4 DUP1 CALLDATASIZE SUB DUP2 ADD SWAP1 PUSH2 0x1FD SWAP2 SWAP1 PUSH2 0x13BC JUMP JUMPDEST PUSH2 0xCAC JUMP JUMPDEST STOP JUMPDEST PUSH1 0x60 DUP1 PUSH1 0x2 PUSH8 0xFFFFFFFFFFFFFFFF DUP2 GT ISZERO PUSH2 0x222 JUMPI PUSH2 0x221 PUSH2 0x1AB1 JUMP JUMPDEST JUMPDEST PUSH1 0x40 MLOAD SWAP1 DUP1 DUP3 MSTORE DUP1 PUSH1 0x20 MUL PUSH1 0x20 ADD DUP3 ADD PUSH1 0x40 MSTORE DUP1 ISZERO PUSH2 0x250 JUMPI DUP2 PUSH1 0x20 ADD PUSH1 0x20 DUP3 MUL DUP1 CALLDATASIZE DUP4 CALLDATACOPY DUP1 DUP3 ADD SWAP2 POP POP SWAP1 POP JUMPDEST POP SWAP1 POP PUSH1 0x0 DUP5 PUSH1 0x40 MLOAD PUSH2 0x263 SWAP2 SWAP1 PUSH2 0x169E JUMP JUMPDEST SWAP1 DUP2 MSTORE PUSH1 0x20 ADD PUSH1 0x40 MLOAD DUP1 SWAP2 SUB SWAP1 KECCAK256 PUSH1 0x0 ADD PUSH1 0x0 SWAP1 SLOAD SWAP1 PUSH2 0x100 EXP SWAP1 DIV PUSH20 0xFFFFFFFFFFFFFFFFFFFFFFFFFFFFFFFFFFFFFFFF AND DUP2 PUSH1 0x0 DUP2 MLOAD DUP2 LT PUSH2 0x2A9 JUMPI PUSH2 0x2A8 PUSH2 0x1A82 JUMP JUMPDEST JUMPDEST PUSH1 0x20 MUL PUSH1 0x20 ADD ADD SWAP1 PUSH20 0xFFFFFFFFFFFFFFFFFFFFFFFFFFFFFFFFFFFFFFFF AND SWAP1 DUP2 PUSH20 0xFFFFFFFFFFFFFFFFFFFFFFFFFFFFFFFFFFFFFFFF AND DUP2 MSTORE POP POP PUSH1 0x0 DUP4 PUSH1 0x40 MLOAD PUSH2 0x2F3 SWAP2 SWAP1 PUSH2 0x169E JUMP JUMPDEST SWAP1 DUP2 MSTORE PUSH1 0x20 ADD PUSH1 0x40 MLOAD DUP1 SWAP2 SUB SWAP1 KECCAK256 PUSH1 0x0 ADD PUSH1 0x0 SWAP1 SLOAD SWAP1 PUSH2 0x100 EXP SWAP1 DIV PUSH20 0xFFFFFFFFFFFFFFFFFFFFFFFFFFFFFFFFFFFFFFFF AND DUP2 PUSH1 0x1 DUP2 MLOAD DUP2 LT PUSH2 0x339 JUMPI PUSH2 0x338 PUSH2 0x1A82 JUMP JUMPDEST JUMPDEST PUSH1 0x20 MUL PUSH1 0x20 ADD ADD SWAP1 PUSH20 0xFFFFFFFFFFFFFFFFFFFFFFFFFFFFFFFFFFFFFFFF AND SWAP1 DUP2 PUSH20 0xFFFFFFFFFFFFFFFFFFFFFFFFFFFFFFFFFFFFFFFF AND DUP2 MSTORE POP POP PUSH20 0xA5E0829CACED8FFDD4DE3C43696C57F7D7A678FF PUSH20 0xFFFFFFFFFFFFFFFFFFFFFFFFFFFFFFFFFFFFFFFF AND PUSH4 0xD06CA61F DUP7 DUP4 PUSH1 0x40 MLOAD DUP4 PUSH4 0xFFFFFFFF AND PUSH1 0xE0 SHL DUP2 MSTORE PUSH1 0x4 ADD PUSH2 0x3C2 SWAP3 SWAP2 SWAP1 PUSH2 0x17FB JUMP JUMPDEST PUSH1 0x0 PUSH1 0x40 MLOAD DUP1 DUP4 SUB DUP2 DUP7 DUP1 EXTCODESIZE ISZERO DUP1 ISZERO PUSH2 0x3DA JUMPI PUSH1 0x0 DUP1 REVERT JUMPDEST POP GAS STATICCALL ISZERO DUP1 ISZERO PUSH2 0x3EE JUMPI RETURNDATASIZE PUSH1 0x0 DUP1 RETURNDATACOPY RETURNDATASIZE PUSH1 0x0 REVERT JUMPDEST POP POP POP POP PUSH1 0x40 MLOAD RETURNDATASIZE PUSH1 0x0 DUP3 RETURNDATACOPY RETURNDATASIZE PUSH1 0x1F NOT PUSH1 0x1F DUP3 ADD AND DUP3 ADD DUP1 PUSH1 0x40 MSTORE POP DUP2 ADD SWAP1 PUSH2 0x417 SWAP2 SWAP1 PUSH2 0x111E JUMP JUMPDEST SWAP2 POP POP SWAP4 SWAP3 POP POP POP JUMP JUMPDEST PUSH1 0x0 DUP4 PUSH1 0x40 MLOAD PUSH2 0x431 SWAP2 SWAP1 PUSH2 0x169E JUMP JUMPDEST SWAP1 DUP2 MSTORE PUSH1 0x20 ADD PUSH1 0x40 MLOAD DUP1 SWAP2 SUB SWAP1 KECCAK256 PUSH1 0x0 ADD PUSH1 0x0 SWAP1 SLOAD SWAP1 PUSH2 0x100 EXP SWAP1 DIV PUSH20 0xFFFFFFFFFFFFFFFFFFFFFFFFFFFFFFFFFFFFFFFF AND CALLER DUP4 DUP4 DUP1 DUP5 PUSH20 0xFFFFFFFFFFFFFFFFFFFFFFFFFFFFFFFFFFFFFFFF AND PUSH4 0xDD62ED3E DUP6 DUP6 PUSH1 0x40 MLOAD DUP4 PUSH4 0xFFFFFFFF AND PUSH1 0xE0 SHL DUP2 MSTORE PUSH1 0x4 ADD PUSH2 0x4A2 SWAP3 SWAP2 SWAP1 PUSH2 0x16E5 JUMP JUMPDEST PUSH1 0x20 PUSH1 0x40 MLOAD DUP1 DUP4 SUB DUP2 DUP7 DUP1 EXTCODESIZE ISZERO DUP1 ISZERO PUSH2 0x4BA JUMPI PUSH1 0x0 DUP1 REVERT JUMPDEST POP GAS STATICCALL ISZERO DUP1 ISZERO PUSH2 0x4CE JUMPI RETURNDATASIZE PUSH1 0x0 DUP1 RETURNDATACOPY RETURNDATASIZE PUSH1 0x0 REVERT JUMPDEST POP POP POP POP PUSH1 0x40 MLOAD RETURNDATASIZE PUSH1 0x1F NOT PUSH1 0x1F DUP3 ADD AND DUP3 ADD DUP1 PUSH1 0x40 MSTORE POP DUP2 ADD SWAP1 PUSH2 0x4F2 SWAP2 SWAP1 PUSH2 0x1304 JUMP JUMPDEST LT ISZERO PUSH2 0x533 JUMPI PUSH1 0x40 MLOAD PUSH32 0x8C379A000000000000000000000000000000000000000000000000000000000 DUP2 MSTORE PUSH1 0x4 ADD PUSH2 0x52A SWAP1 PUSH2 0x17C0 JUMP JUMPDEST PUSH1 0x40 MLOAD DUP1 SWAP2 SUB SWAP1 REVERT JUMPDEST PUSH1 0x0 DUP8 PUSH1 0x40 MLOAD PUSH2 0x543 SWAP2 SWAP1 PUSH2 0x169E JUMP JUMPDEST SWAP1 DUP2 MSTORE PUSH1 0x20 ADD PUSH1 0x40 MLOAD DUP1 SWAP2 SUB SWAP1 KECCAK256 PUSH1 0x0 ADD PUSH1 0x0 SWAP1 SLOAD SWAP1 PUSH2 0x100 EXP SWAP1 DIV PUSH20 0xFFFFFFFFFFFFFFFFFFFFFFFFFFFFFFFFFFFFFFFF AND PUSH20 0xFFFFFFFFFFFFFFFFFFFFFFFFFFFFFFFFFFFFFFFF AND PUSH4 0x23B872DD CALLER DUP9 DUP9 PUSH1 0x40 MLOAD DUP5 PUSH4 0xFFFFFFFF AND PUSH1 0xE0 SHL DUP2 MSTORE PUSH1 0x4 ADD PUSH2 0x5B1 SWAP4 SWAP3 SWAP2 SWAP1 PUSH2 0x170E JUMP JUMPDEST PUSH1 0x20 PUSH1 0x40 MLOAD DUP1 DUP4 SUB DUP2 PUSH1 0x0 DUP8 DUP1 EXTCODESIZE ISZERO DUP1 ISZERO PUSH2 0x5CB JUMPI PUSH1 0x0 DUP1 REVERT JUMPDEST POP GAS CALL ISZERO DUP1 ISZERO PUSH2 0x5DF JUMPI RETURNDATASIZE PUSH1 0x0 DUP1 RETURNDATACOPY RETURNDATASIZE PUSH1 0x0 REVERT JUMPDEST POP POP POP POP PUSH1 0x40 MLOAD RETURNDATASIZE PUSH1 0x1F NOT PUSH1 0x1F DUP3 ADD AND DUP3 ADD DUP1 PUSH1 0x40 MSTORE POP DUP2 ADD SWAP1 PUSH2 0x603 SWAP2 SWAP1 PUSH2 0x1167 JUMP JUMPDEST POP POP POP POP POP POP POP POP JUMP JUMPDEST PUSH1 0x0 DUP1 PUSH1 0x0 PUSH1 0x40 MLOAD PUSH2 0x61E SWAP1 PUSH2 0x16B5 JUMP JUMPDEST SWAP1 DUP2 MSTORE PUSH1 0x20 ADD PUSH1 0x40 MLOAD DUP1 SWAP2 SUB SWAP1 KECCAK256 PUSH1 0x0 ADD PUSH1 0x0 SWAP1 SLOAD SWAP1 PUSH2 0x100 EXP SWAP1 DIV PUSH20 0xFFFFFFFFFFFFFFFFFFFFFFFFFFFFFFFFFFFFFFFF AND PUSH20 0xFFFFFFFFFFFFFFFFFFFFFFFFFFFFFFFFFFFFFFFF AND CALLVALUE PUSH1 0x40 MLOAD PUSH1 0x24 ADD PUSH1 0x40 MLOAD PUSH1 0x20 DUP2 DUP4 SUB SUB DUP2 MSTORE SWAP1 PUSH1 0x40 MSTORE PUSH32 0xC5D2460100000000000000000000000000000000000000000000000000000000 PUSH28 0xFFFFFFFFFFFFFFFFFFFFFFFFFFFFFFFFFFFFFFFFFFFFFFFFFFFFFFFF NOT AND PUSH1 0x20 DUP3 ADD DUP1 MLOAD PUSH28 0xFFFFFFFFFFFFFFFFFFFFFFFFFFFFFFFFFFFFFFFFFFFFFFFFFFFFFFFF DUP4 DUP2 DUP4 AND OR DUP4 MSTORE POP POP POP POP PUSH1 0x40 MLOAD PUSH2 0x6F7 SWAP2 SWAP1 PUSH2 0x1687 JUMP JUMPDEST PUSH1 0x0 PUSH1 0x40 MLOAD DUP1 DUP4 SUB DUP2 DUP6 DUP8 GAS CALL SWAP3 POP POP POP RETURNDATASIZE DUP1 PUSH1 0x0 DUP2 EQ PUSH2 0x734 JUMPI PUSH1 0x40 MLOAD SWAP2 POP PUSH1 0x1F NOT PUSH1 0x3F RETURNDATASIZE ADD AND DUP3 ADD PUSH1 0x40 MSTORE RETURNDATASIZE DUP3 MSTORE RETURNDATASIZE PUSH1 0x0 PUSH1 0x20 DUP5 ADD RETURNDATACOPY PUSH2 0x739 JUMP JUMPDEST PUSH1 0x60 SWAP2 POP JUMPDEST POP SWAP2 POP SWAP2 POP PUSH1 0x0 PUSH1 0x40 MLOAD PUSH2 0x74C SWAP1 PUSH2 0x16B5 JUMP JUMPDEST SWAP1 DUP2 MSTORE PUSH1 0x20 ADD PUSH1 0x40 MLOAD DUP1 SWAP2 SUB SWAP1 KECCAK256 PUSH1 0x0 ADD PUSH1 0x0 SWAP1 SLOAD SWAP1 PUSH2 0x100 EXP SWAP1 DIV PUSH20 0xFFFFFFFFFFFFFFFFFFFFFFFFFFFFFFFFFFFFFFFF AND PUSH20 0xFFFFFFFFFFFFFFFFFFFFFFFFFFFFFFFFFFFFFFFF AND PUSH4 0x23B872DD ADDRESS CALLER CALLVALUE PUSH1 0x40 MLOAD DUP5 PUSH4 0xFFFFFFFF AND PUSH1 0xE0 SHL DUP2 MSTORE PUSH1 0x4 ADD PUSH2 0x7BA SWAP4 SWAP3 SWAP2 SWAP1 PUSH2 0x170E JUMP JUMPDEST PUSH1 0x20 PUSH1 0x40 MLOAD DUP1 DUP4 SUB DUP2 PUSH1 0x0 DUP8 DUP1 EXTCODESIZE ISZERO DUP1 ISZERO PUSH2 0x7D4 JUMPI PUSH1 0x0 DUP1 REVERT JUMPDEST POP GAS CALL ISZERO DUP1 ISZERO PUSH2 0x7E8 JUMPI RETURNDATASIZE PUSH1 0x0 DUP1 RETURNDATACOPY RETURNDATASIZE PUSH1 0x0 REVERT JUMPDEST POP POP POP POP PUSH1 0x40 MLOAD RETURNDATASIZE PUSH1 0x1F NOT PUSH1 0x1F DUP3 ADD AND DUP3 ADD DUP1 PUSH1 0x40 MSTORE POP DUP2 ADD SWAP1 PUSH2 0x80C SWAP2 SWAP1 PUSH2 0x1167 JUMP JUMPDEST POP PUSH32 0x13848C3E38F8886F3F5D2AD9DFF80D8092C2BBB8EFD5B887A99C2C6CFC09AC2A DUP3 DUP3 PUSH1 0x40 MLOAD PUSH2 0x83E SWAP3 SWAP2 SWAP1 PUSH2 0x1790 JUMP JUMPDEST PUSH1 0x40 MLOAD DUP1 SWAP2 SUB SWAP1 LOG1 POP POP JUMP JUMPDEST PUSH1 0x0 DUP1 DUP3 PUSH1 0x40 MLOAD PUSH2 0x85B SWAP2 SWAP1 PUSH2 0x169E JUMP JUMPDEST SWAP1 DUP2 MSTORE PUSH1 0x20 ADD PUSH1 0x40 MLOAD DUP1 SWAP2 SUB SWAP1 KECCAK256 PUSH1 0x0 ADD PUSH1 0x0 SWAP1 SLOAD SWAP1 PUSH2 0x100 EXP SWAP1 DIV PUSH20 0xFFFFFFFFFFFFFFFFFFFFFFFFFFFFFFFFFFFFFFFF AND PUSH20 0xFFFFFFFFFFFFFFFFFFFFFFFFFFFFFFFFFFFFFFFF AND PUSH4 0x70A08231 CALLER PUSH1 0x40 MLOAD DUP3 PUSH4 0xFFFFFFFF AND PUSH1 0xE0 SHL DUP2 MSTORE PUSH1 0x4 ADD PUSH2 0x8C5 SWAP2 SWAP1 PUSH2 0x16CA JUMP JUMPDEST PUSH1 0x20 PUSH1 0x40 MLOAD DUP1 DUP4 SUB DUP2 DUP7 DUP1 EXTCODESIZE ISZERO DUP1 ISZERO PUSH2 0x8DD JUMPI PUSH1 0x0 DUP1 REVERT JUMPDEST POP GAS STATICCALL ISZERO DUP1 ISZERO PUSH2 0x8F1 JUMPI RETURNDATASIZE PUSH1 0x0 DUP1 RETURNDATACOPY RETURNDATASIZE PUSH1 0x0 REVERT JUMPDEST POP POP POP POP PUSH1 0x40 MLOAD RETURNDATASIZE PUSH1 0x1F NOT PUSH1 0x1F DUP3 ADD AND DUP3 ADD DUP1 PUSH1 0x40 MSTORE POP DUP2 ADD SWAP1 PUSH2 0x915 SWAP2 SWAP1 PUSH2 0x1304 JUMP JUMPDEST SWAP1 POP SWAP2 SWAP1 POP JUMP JUMPDEST PUSH1 0x0 DUP3 PUSH1 0x40 MLOAD PUSH2 0x92C SWAP2 SWAP1 PUSH2 0x169E JUMP JUMPDEST SWAP1 DUP2 MSTORE PUSH1 0x20 ADD PUSH1 0x40 MLOAD DUP1 SWAP2 SUB SWAP1 KECCAK256 PUSH1 0x0 ADD PUSH1 0x0 SWAP1 SLOAD SWAP1 PUSH2 0x100 EXP SWAP1 DIV PUSH20 0xFFFFFFFFFFFFFFFFFFFFFFFFFFFFFFFFFFFFFFFF AND CALLER ADDRESS DUP4 DUP1 DUP5 PUSH20 0xFFFFFFFFFFFFFFFFFFFFFFFFFFFFFFFFFFFFFFFF AND PUSH4 0xDD62ED3E DUP6 DUP6 PUSH1 0x40 MLOAD DUP4 PUSH4 0xFFFFFFFF AND PUSH1 0xE0 SHL DUP2 MSTORE PUSH1 0x4 ADD PUSH2 0x99D SWAP3 SWAP2 SWAP1 PUSH2 0x16E5 JUMP JUMPDEST PUSH1 0x20 PUSH1 0x40 MLOAD DUP1 DUP4 SUB DUP2 DUP7 DUP1 EXTCODESIZE ISZERO DUP1 ISZERO PUSH2 0x9B5 JUMPI PUSH1 0x0 DUP1 REVERT JUMPDEST POP GAS STATICCALL ISZERO DUP1 ISZERO PUSH2 0x9C9 JUMPI RETURNDATASIZE PUSH1 0x0 DUP1 RETURNDATACOPY RETURNDATASIZE PUSH1 0x0 REVERT JUMPDEST POP POP POP POP PUSH1 0x40 MLOAD RETURNDATASIZE PUSH1 0x1F NOT PUSH1 0x1F DUP3 ADD AND DUP3 ADD DUP1 PUSH1 0x40 MSTORE POP DUP2 ADD SWAP1 PUSH2 0x9ED SWAP2 SWAP1 PUSH2 0x1304 JUMP JUMPDEST LT ISZERO PUSH2 0xA2E JUMPI PUSH1 0x40 MLOAD PUSH32 0x8C379A000000000000000000000000000000000000000000000000000000000 DUP2 MSTORE PUSH1 0x4 ADD PUSH2 0xA25 SWAP1 PUSH2 0x17C0 JUMP JUMPDEST PUSH1 0x40 MLOAD DUP1 SWAP2 SUB SWAP1 REVERT JUMPDEST PUSH1 0x0 DUP7 PUSH1 0x40 MLOAD PUSH2 0xA3E SWAP2 SWAP1 PUSH2 0x169E JUMP JUMPDEST SWAP1 DUP2 MSTORE PUSH1 0x20 ADD PUSH1 0x40 MLOAD DUP1 SWAP2 SUB SWAP1 KECCAK256 PUSH1 0x0 ADD PUSH1 0x0 SWAP1 SLOAD SWAP1 PUSH2 0x100 EXP SWAP1 DIV PUSH20 0xFFFFFFFFFFFFFFFFFFFFFFFFFFFFFFFFFFFFFFFF AND PUSH20 0xFFFFFFFFFFFFFFFFFFFFFFFFFFFFFFFFFFFFFFFF AND PUSH4 0x23B872DD CALLER ADDRESS DUP9 PUSH1 0x40 MLOAD DUP5 PUSH4 0xFFFFFFFF AND PUSH1 0xE0 SHL DUP2 MSTORE PUSH1 0x4 ADD PUSH2 0xAAC SWAP4 SWAP3 SWAP2 SWAP1 PUSH2 0x170E JUMP JUMPDEST PUSH1 0x20 PUSH1 0x40 MLOAD DUP1 DUP4 SUB DUP2 PUSH1 0x0 DUP8 DUP1 EXTCODESIZE ISZERO DUP1 ISZERO PUSH2 0xAC6 JUMPI PUSH1 0x0 DUP1 REVERT JUMPDEST POP GAS CALL ISZERO DUP1 ISZERO PUSH2 0xADA JUMPI RETURNDATASIZE PUSH1 0x0 DUP1 RETURNDATACOPY RETURNDATASIZE PUSH1 0x0 REVERT JUMPDEST POP POP POP POP PUSH1 0x40 MLOAD RETURNDATASIZE PUSH1 0x1F NOT PUSH1 0x1F DUP3 ADD AND DUP3 ADD DUP1 PUSH1 0x40 MSTORE POP DUP2 ADD SWAP1 PUSH2 0xAFE SWAP2 SWAP1 PUSH2 0x1167 JUMP JUMPDEST POP POP POP POP POP POP POP JUMP JUMPDEST PUSH1 0x0 DUP1 DUP4 PUSH1 0x40 MLOAD PUSH2 0xB18 SWAP2 SWAP1 PUSH2 0x169E JUMP JUMPDEST SWAP1 DUP2 MSTORE PUSH1 0x20 ADD PUSH1 0x40 MLOAD DUP1 SWAP2 SUB SWAP1 KECCAK256 PUSH1 0x0 ADD PUSH1 0x0 SWAP1 SLOAD SWAP1 PUSH2 0x100 EXP SWAP1 DIV PUSH20 0xFFFFFFFFFFFFFFFFFFFFFFFFFFFFFFFFFFFFFFFF AND PUSH20 0xFFFFFFFFFFFFFFFFFFFFFFFFFFFFFFFFFFFFFFFF AND PUSH4 0x70A08231 DUP4 PUSH1 0x40 MLOAD DUP3 PUSH4 0xFFFFFFFF AND PUSH1 0xE0 SHL DUP2 MSTORE PUSH1 0x4 ADD PUSH2 0xB82 SWAP2 SWAP1 PUSH2 0x16CA JUMP JUMPDEST PUSH1 0x20 PUSH1 0x40 MLOAD DUP1 DUP4 SUB DUP2 DUP7 DUP1 EXTCODESIZE ISZERO DUP1 ISZERO PUSH2 0xB9A JUMPI PUSH1 0x0 DUP1 REVERT JUMPDEST POP GAS STATICCALL ISZERO DUP1 ISZERO PUSH2 0xBAE JUMPI RETURNDATASIZE PUSH1 0x0 DUP1 RETURNDATACOPY RETURNDATASIZE PUSH1 0x0 REVERT JUMPDEST POP POP POP POP PUSH1 0x40 MLOAD RETURNDATASIZE PUSH1 0x1F NOT PUSH1 0x1F DUP3 ADD AND DUP3 ADD DUP1 PUSH1 0x40 MSTORE POP DUP2 ADD SWAP1 PUSH2 0xBD2 SWAP2 SWAP1 PUSH2 0x1304 JUMP JUMPDEST SWAP1 POP SWAP3 SWAP2 POP POP JUMP JUMPDEST PUSH1 0x0 DUP1 DUP3 PUSH1 0x40 MLOAD PUSH2 0xBEB SWAP2 SWAP1 PUSH2 0x169E JUMP JUMPDEST SWAP1 DUP2 MSTORE PUSH1 0x20 ADD PUSH1 0x40 MLOAD DUP1 SWAP2 SUB SWAP1 KECCAK256 PUSH1 0x0 ADD PUSH1 0x0 SWAP1 SLOAD SWAP1 PUSH2 0x100 EXP SWAP1 DIV PUSH20 0xFFFFFFFFFFFFFFFFFFFFFFFFFFFFFFFFFFFFFFFF AND PUSH20 0xFFFFFFFFFFFFFFFFFFFFFFFFFFFFFFFFFFFFFFFF AND PUSH4 0x70A08231 ADDRESS PUSH1 0x40 MLOAD DUP3 PUSH4 0xFFFFFFFF AND PUSH1 0xE0 SHL DUP2 MSTORE PUSH1 0x4 ADD PUSH2 0xC55 SWAP2 SWAP1 PUSH2 0x16CA JUMP JUMPDEST PUSH1 0x20 PUSH1 0x40 MLOAD DUP1 DUP4 SUB DUP2 DUP7 DUP1 EXTCODESIZE ISZERO DUP1 ISZERO PUSH2 0xC6D JUMPI PUSH1 0x0 DUP1 REVERT JUMPDEST POP GAS STATICCALL ISZERO DUP1 ISZERO PUSH2 0xC81 JUMPI RETURNDATASIZE PUSH1 0x0 DUP1 RETURNDATACOPY RETURNDATASIZE PUSH1 0x0 REVERT JUMPDEST POP POP POP POP PUSH1 0x40 MLOAD RETURNDATASIZE PUSH1 0x1F NOT PUSH1 0x1F DUP3 ADD AND DUP3 ADD DUP1 PUSH1 0x40 MSTORE POP DUP2 ADD SWAP1 PUSH2 0xCA5 SWAP2 SWAP1 PUSH2 0x1304 JUMP JUMPDEST SWAP1 POP SWAP2 SWAP1 POP JUMP JUMPDEST PUSH2 0xCB6 DUP4 DUP7 PUSH2 0x91C JUMP JUMPDEST PUSH1 0x0 PUSH1 0x2 PUSH8 0xFFFFFFFFFFFFFFFF DUP2 GT ISZERO PUSH2 0xCD3 JUMPI PUSH2 0xCD2 PUSH2 0x1AB1 JUMP JUMPDEST JUMPDEST PUSH1 0x40 MLOAD SWAP1 DUP1 DUP3 MSTORE DUP1 PUSH1 0x20 MUL PUSH1 0x20 ADD DUP3 ADD PUSH1 0x40 MSTORE DUP1 ISZERO PUSH2 0xD01 JUMPI DUP2 PUSH1 0x20 ADD PUSH1 0x20 DUP3 MUL DUP1 CALLDATASIZE DUP4 CALLDATACOPY DUP1 DUP3 ADD SWAP2 POP POP SWAP1 POP JUMPDEST POP SWAP1 POP PUSH1 0x0 DUP5 PUSH1 0x40 MLOAD PUSH2 0xD14 SWAP2 SWAP1 PUSH2 0x169E JUMP JUMPDEST SWAP1 DUP2 MSTORE PUSH1 0x20 ADD PUSH1 0x40 MLOAD DUP1 SWAP2 SUB SWAP1 KECCAK256 PUSH1 0x0 ADD PUSH1 0x0 SWAP1 SLOAD SWAP1 PUSH2 0x100 EXP SWAP1 DIV PUSH20 0xFFFFFFFFFFFFFFFFFFFFFFFFFFFFFFFFFFFFFFFF AND DUP2 PUSH1 0x0 DUP2 MLOAD DUP2 LT PUSH2 0xD5A JUMPI PUSH2 0xD59 PUSH2 0x1A82 JUMP JUMPDEST JUMPDEST PUSH1 0x20 MUL PUSH1 0x20 ADD ADD SWAP1 PUSH20 0xFFFFFFFFFFFFFFFFFFFFFFFFFFFFFFFFFFFFFFFF AND SWAP1 DUP2 PUSH20 0xFFFFFFFFFFFFFFFFFFFFFFFFFFFFFFFFFFFFFFFF AND DUP2 MSTORE POP POP PUSH1 0x0 DUP4 PUSH1 0x40 MLOAD PUSH2 0xDA4 SWAP2 SWAP1 PUSH2 0x169E JUMP JUMPDEST SWAP1 DUP2 MSTORE PUSH1 0x20 ADD PUSH1 0x40 MLOAD DUP1 SWAP2 SUB SWAP1 KECCAK256 PUSH1 0x0 ADD PUSH1 0x0 SWAP1 SLOAD SWAP1 PUSH2 0x100 EXP SWAP1 DIV PUSH20 0xFFFFFFFFFFFFFFFFFFFFFFFFFFFFFFFFFFFFFFFF AND DUP2 PUSH1 0x1 DUP2 MLOAD DUP2 LT PUSH2 0xDEA JUMPI PUSH2 0xDE9 PUSH2 0x1A82 JUMP JUMPDEST JUMPDEST PUSH1 0x20 MUL PUSH1 0x20 ADD ADD SWAP1 PUSH20 0xFFFFFFFFFFFFFFFFFFFFFFFFFFFFFFFFFFFFFFFF AND SWAP1 DUP2 PUSH20 0xFFFFFFFFFFFFFFFFFFFFFFFFFFFFFFFFFFFFFFFF AND DUP2 MSTORE POP POP PUSH1 0x0 DUP5 PUSH1 0x40 MLOAD PUSH2 0xE34 SWAP2 SWAP1 PUSH2 0x169E JUMP JUMPDEST SWAP1 DUP2 MSTORE PUSH1 0x20 ADD PUSH1 0x40 MLOAD DUP1 SWAP2 SUB SWAP1 KECCAK256 PUSH1 0x0 ADD PUSH1 0x0 SWAP1 SLOAD SWAP1 PUSH2 0x100 EXP SWAP1 DIV PUSH20 0xFFFFFFFFFFFFFFFFFFFFFFFFFFFFFFFFFFFFFFFF AND PUSH20 0xFFFFFFFFFFFFFFFFFFFFFFFFFFFFFFFFFFFFFFFF AND PUSH4 0x95EA7B3 PUSH20 0xA5E0829CACED8FFDD4DE3C43696C57F7D7A678FF DUP9 PUSH1 0x40 MLOAD DUP4 PUSH4 0xFFFFFFFF AND PUSH1 0xE0 SHL DUP2 MSTORE PUSH1 0x4 ADD PUSH2 0xEB4 SWAP3 SWAP2 SWAP1 PUSH2 0x1745 JUMP JUMPDEST PUSH1 0x20 PUSH1 0x40 MLOAD DUP1 DUP4 SUB DUP2 PUSH1 0x0 DUP8 DUP1 EXTCODESIZE ISZERO DUP1 ISZERO PUSH2 0xECE JUMPI PUSH1 0x0 DUP1 REVERT JUMPDEST POP GAS CALL ISZERO DUP1 ISZERO PUSH2 0xEE2 JUMPI RETURNDATASIZE PUSH1 0x0 DUP1 RETURNDATACOPY RETURNDATASIZE PUSH1 0x0 REVERT JUMPDEST POP POP POP POP PUSH1 0x40 MLOAD RETURNDATASIZE PUSH1 0x1F NOT PUSH1 0x1F DUP3 ADD AND DUP3 ADD DUP1 PUSH1 0x40 MSTORE POP DUP2 ADD SWAP1 PUSH2 0xF06 SWAP2 SWAP1 PUSH2 0x1167 JUMP JUMPDEST POP PUSH20 0xA5E0829CACED8FFDD4DE3C43696C57F7D7A678FF PUSH20 0xFFFFFFFFFFFFFFFFFFFFFFFFFFFFFFFFFFFFFFFF AND PUSH4 0x38ED1739 DUP8 DUP8 DUP5 CALLER DUP8 PUSH1 0x40 MLOAD DUP7 PUSH4 0xFFFFFFFF AND PUSH1 0xE0 SHL DUP2 MSTORE PUSH1 0x4 ADD PUSH2 0xF5C SWAP6 SWAP5 SWAP4 SWAP3 SWAP2 SWAP1 PUSH2 0x182B JUMP JUMPDEST PUSH1 0x0 PUSH1 0x40 MLOAD DUP1 DUP4 SUB DUP2 PUSH1 0x0 DUP8 DUP1 EXTCODESIZE ISZERO DUP1 ISZERO PUSH2 0xF76 JUMPI PUSH1 0x0 DUP1 REVERT JUMPDEST POP GAS CALL ISZERO DUP1 ISZERO PUSH2 0xF8A JUMPI RETURNDATASIZE PUSH1 0x0 DUP1 RETURNDATACOPY RETURNDATASIZE PUSH1 0x0 REVERT JUMPDEST POP POP POP POP PUSH1 0x40 MLOAD RETURNDATASIZE PUSH1 0x0 DUP3 RETURNDATACOPY RETURNDATASIZE PUSH1 0x1F NOT PUSH1 0x1F DUP3 ADD AND DUP3 ADD DUP1 PUSH1 0x40 MSTORE POP DUP2 ADD SWAP1 PUSH2 0xFB3 SWAP2 SWAP1 PUSH2 0x111E JUMP JUMPDEST POP POP POP POP POP POP POP JUMP JUMPDEST PUSH1 0x0 PUSH2 0xFCF PUSH2 0xFCA DUP5 PUSH2 0x18AA JUMP JUMPDEST PUSH2 0x1885 JUMP JUMPDEST SWAP1 POP DUP1 DUP4 DUP3 MSTORE PUSH1 0x20 DUP3 ADD SWAP1 POP DUP3 DUP6 PUSH1 0x20 DUP7 MUL DUP3 ADD GT ISZERO PUSH2 0xFF2 JUMPI PUSH2 0xFF1 PUSH2 0x1AE5 JUMP JUMPDEST JUMPDEST PUSH1 0x0 JUMPDEST DUP6 DUP2 LT ISZERO PUSH2 0x1022 JUMPI DUP2 PUSH2 0x1008 DUP9 DUP3 PUSH2 0x1109 JUMP JUMPDEST DUP5 MSTORE PUSH1 0x20 DUP5 ADD SWAP4 POP PUSH1 0x20 DUP4 ADD SWAP3 POP POP PUSH1 0x1 DUP2 ADD SWAP1 POP PUSH2 0xFF5 JUMP JUMPDEST POP POP POP SWAP4 SWAP3 POP POP POP JUMP JUMPDEST PUSH1 0x0 PUSH2 0x103F PUSH2 0x103A DUP5 PUSH2 0x18D6 JUMP JUMPDEST PUSH2 0x1885 JUMP JUMPDEST SWAP1 POP DUP3 DUP2 MSTORE PUSH1 0x20 DUP2 ADD DUP5 DUP5 DUP5 ADD GT ISZERO PUSH2 0x105B JUMPI PUSH2 0x105A PUSH2 0x1AEA JUMP JUMPDEST JUMPDEST PUSH2 0x1066 DUP5 DUP3 DUP6 PUSH2 0x1A0F JUMP JUMPDEST POP SWAP4 SWAP3 POP POP POP JUMP JUMPDEST PUSH1 0x0 DUP2 CALLDATALOAD SWAP1 POP PUSH2 0x107D DUP2 PUSH2 0x1B82 JUMP JUMPDEST SWAP3 SWAP2 POP POP JUMP JUMPDEST PUSH1 0x0 DUP3 PUSH1 0x1F DUP4 ADD SLT PUSH2 0x1098 JUMPI PUSH2 0x1097 PUSH2 0x1AE0 JUMP JUMPDEST JUMPDEST DUP2 MLOAD PUSH2 0x10A8 DUP5 DUP3 PUSH1 0x20 DUP7 ADD PUSH2 0xFBC JUMP JUMPDEST SWAP2 POP POP SWAP3 SWAP2 POP POP JUMP JUMPDEST PUSH1 0x0 DUP2 MLOAD SWAP1 POP PUSH2 0x10C0 DUP2 PUSH2 0x1B99 JUMP JUMPDEST SWAP3 SWAP2 POP POP JUMP JUMPDEST PUSH1 0x0 DUP3 PUSH1 0x1F DUP4 ADD SLT PUSH2 0x10DB JUMPI PUSH2 0x10DA PUSH2 0x1AE0 JUMP JUMPDEST JUMPDEST DUP2 CALLDATALOAD PUSH2 0x10EB DUP5 DUP3 PUSH1 0x20 DUP7 ADD PUSH2 0x102C JUMP JUMPDEST SWAP2 POP POP SWAP3 SWAP2 POP POP JUMP JUMPDEST PUSH1 0x0 DUP2 CALLDATALOAD SWAP1 POP PUSH2 0x1103 DUP2 PUSH2 0x1BB0 JUMP JUMPDEST SWAP3 SWAP2 POP POP JUMP JUMPDEST PUSH1 0x0 DUP2 MLOAD SWAP1 POP PUSH2 0x1118 DUP2 PUSH2 0x1BB0 JUMP JUMPDEST SWAP3 SWAP2 POP POP JUMP JUMPDEST PUSH1 0x0 PUSH1 0x20 DUP3 DUP5 SUB SLT ISZERO PUSH2 0x1134 JUMPI PUSH2 0x1133 PUSH2 0x1AF4 JUMP JUMPDEST JUMPDEST PUSH1 0x0 DUP3 ADD MLOAD PUSH8 0xFFFFFFFFFFFFFFFF DUP2 GT ISZERO PUSH2 0x1152 JUMPI PUSH2 0x1151 PUSH2 0x1AEF JUMP JUMPDEST JUMPDEST PUSH2 0x115E DUP5 DUP3 DUP6 ADD PUSH2 0x1083 JUMP JUMPDEST SWAP2 POP POP SWAP3 SWAP2 POP POP JUMP JUMPDEST PUSH1 0x0 PUSH1 0x20 DUP3 DUP5 SUB SLT ISZERO PUSH2 0x117D JUMPI PUSH2 0x117C PUSH2 0x1AF4 JUMP JUMPDEST JUMPDEST PUSH1 0x0 PUSH2 0x118B DUP5 DUP3 DUP6 ADD PUSH2 0x10B1 JUMP JUMPDEST SWAP2 POP POP SWAP3 SWAP2 POP POP JUMP JUMPDEST PUSH1 0x0 PUSH1 0x20 DUP3 DUP5 SUB SLT ISZERO PUSH2 0x11AA JUMPI PUSH2 0x11A9 PUSH2 0x1AF4 JUMP JUMPDEST JUMPDEST PUSH1 0x0 DUP3 ADD CALLDATALOAD PUSH8 0xFFFFFFFFFFFFFFFF DUP2 GT ISZERO PUSH2 0x11C8 JUMPI PUSH2 0x11C7 PUSH2 0x1AEF JUMP JUMPDEST JUMPDEST PUSH2 0x11D4 DUP5 DUP3 DUP6 ADD PUSH2 0x10C6 JUMP JUMPDEST SWAP2 POP POP SWAP3 SWAP2 POP POP JUMP JUMPDEST PUSH1 0x0 DUP1 PUSH1 0x40 DUP4 DUP6 SUB SLT ISZERO PUSH2 0x11F4 JUMPI PUSH2 0x11F3 PUSH2 0x1AF4 JUMP JUMPDEST JUMPDEST PUSH1 0x0 DUP4 ADD CALLDATALOAD PUSH8 0xFFFFFFFFFFFFFFFF DUP2 GT ISZERO PUSH2 0x1212 JUMPI PUSH2 0x1211 PUSH2 0x1AEF JUMP JUMPDEST JUMPDEST PUSH2 0x121E DUP6 DUP3 DUP7 ADD PUSH2 0x10C6 JUMP JUMPDEST SWAP3 POP POP PUSH1 0x20 PUSH2 0x122F DUP6 DUP3 DUP7 ADD PUSH2 0x106E JUMP JUMPDEST SWAP2 POP POP SWAP3 POP SWAP3 SWAP1 POP JUMP JUMPDEST PUSH1 0x0 DUP1 PUSH1 0x0 PUSH1 0x60 DUP5 DUP7 SUB SLT ISZERO PUSH2 0x1252 JUMPI PUSH2 0x1251 PUSH2 0x1AF4 JUMP JUMPDEST JUMPDEST PUSH1 0x0 DUP5 ADD CALLDATALOAD PUSH8 0xFFFFFFFFFFFFFFFF DUP2 GT ISZERO PUSH2 0x1270 JUMPI PUSH2 0x126F PUSH2 0x1AEF JUMP JUMPDEST JUMPDEST PUSH2 0x127C DUP7 DUP3 DUP8 ADD PUSH2 0x10C6 JUMP JUMPDEST SWAP4 POP POP PUSH1 0x20 PUSH2 0x128D DUP7 DUP3 DUP8 ADD PUSH2 0x106E JUMP JUMPDEST SWAP3 POP POP PUSH1 0x40 PUSH2 0x129E DUP7 DUP3 DUP8 ADD PUSH2 0x10F4 JUMP JUMPDEST SWAP2 POP POP SWAP3 POP SWAP3 POP SWAP3 JUMP JUMPDEST PUSH1 0x0 DUP1 PUSH1 0x40 DUP4 DUP6 SUB SLT ISZERO PUSH2 0x12BF JUMPI PUSH2 0x12BE PUSH2 0x1AF4 JUMP JUMPDEST JUMPDEST PUSH1 0x0 DUP4 ADD CALLDATALOAD PUSH8 0xFFFFFFFFFFFFFFFF DUP2 GT ISZERO PUSH2 0x12DD JUMPI PUSH2 0x12DC PUSH2 0x1AEF JUMP JUMPDEST JUMPDEST PUSH2 0x12E9 DUP6 DUP3 DUP7 ADD PUSH2 0x10C6 JUMP JUMPDEST SWAP3 POP POP PUSH1 0x20 PUSH2 0x12FA DUP6 DUP3 DUP7 ADD PUSH2 0x10F4 JUMP JUMPDEST SWAP2 POP POP SWAP3 POP SWAP3 SWAP1 POP JUMP JUMPDEST PUSH1 0x0 PUSH1 0x20 DUP3 DUP5 SUB SLT ISZERO PUSH2 0x131A JUMPI PUSH2 0x1319 PUSH2 0x1AF4 JUMP JUMPDEST JUMPDEST PUSH1 0x0 PUSH2 0x1328 DUP5 DUP3 DUP6 ADD PUSH2 0x1109 JUMP JUMPDEST SWAP2 POP POP SWAP3 SWAP2 POP POP JUMP JUMPDEST PUSH1 0x0 DUP1 PUSH1 0x0 PUSH1 0x60 DUP5 DUP7 SUB SLT ISZERO PUSH2 0x134A JUMPI PUSH2 0x1349 PUSH2 0x1AF4 JUMP JUMPDEST JUMPDEST PUSH1 0x0 PUSH2 0x1358 DUP7 DUP3 DUP8 ADD PUSH2 0x10F4 JUMP JUMPDEST SWAP4 POP POP PUSH1 0x20 DUP5 ADD CALLDATALOAD PUSH8 0xFFFFFFFFFFFFFFFF DUP2 GT ISZERO PUSH2 0x1379 JUMPI PUSH2 0x1378 PUSH2 0x1AEF JUMP JUMPDEST JUMPDEST PUSH2 0x1385 DUP7 DUP3 DUP8 ADD PUSH2 0x10C6 JUMP JUMPDEST SWAP3 POP POP PUSH1 0x40 DUP5 ADD CALLDATALOAD PUSH8 0xFFFFFFFFFFFFFFFF DUP2 GT ISZERO PUSH2 0x13A6 JUMPI PUSH2 0x13A5 PUSH2 0x1AEF JUMP JUMPDEST JUMPDEST PUSH2 0x13B2 DUP7 DUP3 DUP8 ADD PUSH2 0x10C6 JUMP JUMPDEST SWAP2 POP POP SWAP3 POP SWAP3 POP SWAP3 JUMP JUMPDEST PUSH1 0x0 DUP1 PUSH1 0x0 DUP1 PUSH1 0x0 PUSH1 0xA0 DUP7 DUP9 SUB SLT ISZERO PUSH2 0x13D8 JUMPI PUSH2 0x13D7 PUSH2 0x1AF4 JUMP JUMPDEST JUMPDEST PUSH1 0x0 PUSH2 0x13E6 DUP9 DUP3 DUP10 ADD PUSH2 0x10F4 JUMP JUMPDEST SWAP6 POP POP PUSH1 0x20 PUSH2 0x13F7 DUP9 DUP3 DUP10 ADD PUSH2 0x10F4 JUMP JUMPDEST SWAP5 POP POP PUSH1 0x40 DUP7 ADD CALLDATALOAD PUSH8 0xFFFFFFFFFFFFFFFF DUP2 GT ISZERO PUSH2 0x1418 JUMPI PUSH2 0x1417 PUSH2 0x1AEF JUMP JUMPDEST JUMPDEST PUSH2 0x1424 DUP9 DUP3 DUP10 ADD PUSH2 0x10C6 JUMP JUMPDEST SWAP4 POP POP PUSH1 0x60 DUP7 ADD CALLDATALOAD PUSH8 0xFFFFFFFFFFFFFFFF DUP2 GT ISZERO PUSH2 0x1445 JUMPI PUSH2 0x1444 PUSH2 0x1AEF JUMP JUMPDEST JUMPDEST PUSH2 0x1451 DUP9 DUP3 DUP10 ADD PUSH2 0x10C6 JUMP JUMPDEST SWAP3 POP POP PUSH1 0x80 PUSH2 0x1462 DUP9 DUP3 DUP10 ADD PUSH2 0x10F4 JUMP JUMPDEST SWAP2 POP POP SWAP3 SWAP6 POP SWAP3 SWAP6 SWAP1 SWAP4 POP JUMP JUMPDEST PUSH1 0x0 PUSH2 0x147B DUP4 DUP4 PUSH2 0x149F JUMP JUMPDEST PUSH1 0x20 DUP4 ADD SWAP1 POP SWAP3 SWAP2 POP POP JUMP JUMPDEST PUSH1 0x0 PUSH2 0x1493 DUP4 DUP4 PUSH2 0x1669 JUMP JUMPDEST PUSH1 0x20 DUP4 ADD SWAP1 POP SWAP3 SWAP2 POP POP JUMP JUMPDEST PUSH2 0x14A8 DUP2 PUSH2 0x19C7 JUMP JUMPDEST DUP3 MSTORE POP POP JUMP JUMPDEST PUSH2 0x14B7 DUP2 PUSH2 0x19C7 JUMP JUMPDEST DUP3 MSTORE POP POP JUMP JUMPDEST PUSH1 0x0 PUSH2 0x14C8 DUP3 PUSH2 0x1927 JUMP JUMPDEST PUSH2 0x14D2 DUP2 DUP6 PUSH2 0x196D JUMP JUMPDEST SWAP4 POP PUSH2 0x14DD DUP4 PUSH2 0x1907 JUMP JUMPDEST DUP1 PUSH1 0x0 JUMPDEST DUP4 DUP2 LT ISZERO PUSH2 0x150E JUMPI DUP2 MLOAD PUSH2 0x14F5 DUP9 DUP3 PUSH2 0x146F JUMP JUMPDEST SWAP8 POP PUSH2 0x1500 DUP4 PUSH2 0x1953 JUMP JUMPDEST SWAP3 POP POP PUSH1 0x1 DUP2 ADD SWAP1 POP PUSH2 0x14E1 JUMP JUMPDEST POP DUP6 SWAP4 POP POP POP POP SWAP3 SWAP2 POP POP JUMP JUMPDEST PUSH1 0x0 PUSH2 0x1526 DUP3 PUSH2 0x1932 JUMP JUMPDEST PUSH2 0x1530 DUP2 DUP6 PUSH2 0x197E JUMP JUMPDEST SWAP4 POP PUSH2 0x153B DUP4 PUSH2 0x1917 JUMP JUMPDEST DUP1 PUSH1 0x0 JUMPDEST DUP4 DUP2 LT ISZERO PUSH2 0x156C JUMPI DUP2 MLOAD PUSH2 0x1553 DUP9 DUP3 PUSH2 0x1487 JUMP JUMPDEST SWAP8 POP PUSH2 0x155E DUP4 PUSH2 0x1960 JUMP JUMPDEST SWAP3 POP POP PUSH1 0x1 DUP2 ADD SWAP1 POP PUSH2 0x153F JUMP JUMPDEST POP DUP6 SWAP4 POP POP POP POP SWAP3 SWAP2 POP POP JUMP JUMPDEST PUSH2 0x1582 DUP2 PUSH2 0x19D9 JUMP JUMPDEST DUP3 MSTORE POP POP JUMP JUMPDEST PUSH1 0x0 PUSH2 0x1593 DUP3 PUSH2 0x193D JUMP JUMPDEST PUSH2 0x159D DUP2 DUP6 PUSH2 0x198F JUMP JUMPDEST SWAP4 POP PUSH2 0x15AD DUP2 DUP6 PUSH1 0x20 DUP7 ADD PUSH2 0x1A1E JUMP JUMPDEST PUSH2 0x15B6 DUP2 PUSH2 0x1AF9 JUMP JUMPDEST DUP5 ADD SWAP2 POP POP SWAP3 SWAP2 POP POP JUMP JUMPDEST PUSH1 0x0 PUSH2 0x15CC DUP3 PUSH2 0x193D JUMP JUMPDEST PUSH2 0x15D6 DUP2 DUP6 PUSH2 0x19A0 JUMP JUMPDEST SWAP4 POP PUSH2 0x15E6 DUP2 DUP6 PUSH1 0x20 DUP7 ADD PUSH2 0x1A1E JUMP JUMPDEST DUP1 DUP5 ADD SWAP2 POP POP SWAP3 SWAP2 POP POP JUMP JUMPDEST PUSH1 0x0 PUSH2 0x15FD DUP3 PUSH2 0x1948 JUMP JUMPDEST PUSH2 0x1607 DUP2 DUP6 PUSH2 0x19BC JUMP JUMPDEST SWAP4 POP PUSH2 0x1617 DUP2 DUP6 PUSH1 0x20 DUP7 ADD PUSH2 0x1A1E JUMP JUMPDEST DUP1 DUP5 ADD SWAP2 POP POP SWAP3 SWAP2 POP POP JUMP JUMPDEST PUSH1 0x0 PUSH2 0x1630 PUSH1 0x38 DUP4 PUSH2 0x19AB JUMP JUMPDEST SWAP2 POP PUSH2 0x163B DUP3 PUSH2 0x1B0A JUMP JUMPDEST PUSH1 0x40 DUP3 ADD SWAP1 POP SWAP2 SWAP1 POP JUMP JUMPDEST PUSH1 0x0 PUSH2 0x1653 PUSH1 0x6 DUP4 PUSH2 0x19BC JUMP JUMPDEST SWAP2 POP PUSH2 0x165E DUP3 PUSH2 0x1B59 JUMP JUMPDEST PUSH1 0x6 DUP3 ADD SWAP1 POP SWAP2 SWAP1 POP JUMP JUMPDEST PUSH2 0x1672 DUP2 PUSH2 0x1A05 JUMP JUMPDEST DUP3 MSTORE POP POP JUMP JUMPDEST PUSH2 0x1681 DUP2 PUSH2 0x1A05 JUMP JUMPDEST DUP3 MSTORE POP POP JUMP JUMPDEST PUSH1 0x0 PUSH2 0x1693 DUP3 DUP5 PUSH2 0x15C1 JUMP JUMPDEST SWAP2 POP DUP2 SWAP1 POP SWAP3 SWAP2 POP POP JUMP JUMPDEST PUSH1 0x0 PUSH2 0x16AA DUP3 DUP5 PUSH2 0x15F2 JUMP JUMPDEST SWAP2 POP DUP2 SWAP1 POP SWAP3 SWAP2 POP POP JUMP JUMPDEST PUSH1 0x0 PUSH2 0x16C0 DUP3 PUSH2 0x1646 JUMP JUMPDEST SWAP2 POP DUP2 SWAP1 POP SWAP2 SWAP1 POP JUMP JUMPDEST PUSH1 0x0 PUSH1 0x20 DUP3 ADD SWAP1 POP PUSH2 0x16DF PUSH1 0x0 DUP4 ADD DUP5 PUSH2 0x14AE JUMP JUMPDEST SWAP3 SWAP2 POP POP JUMP JUMPDEST PUSH1 0x0 PUSH1 0x40 DUP3 ADD SWAP1 POP PUSH2 0x16FA PUSH1 0x0 DUP4 ADD DUP6 PUSH2 0x14AE JUMP JUMPDEST PUSH2 0x1707 PUSH1 0x20 DUP4 ADD DUP5 PUSH2 0x14AE JUMP JUMPDEST SWAP4 SWAP3 POP POP POP JUMP JUMPDEST PUSH1 0x0 PUSH1 0x60 DUP3 ADD SWAP1 POP PUSH2 0x1723 PUSH1 0x0 DUP4 ADD DUP7 PUSH2 0x14AE JUMP JUMPDEST PUSH2 0x1730 PUSH1 0x20 DUP4 ADD DUP6 PUSH2 0x14AE JUMP JUMPDEST PUSH2 0x173D PUSH1 0x40 DUP4 ADD DUP5 PUSH2 0x1678 JUMP JUMPDEST SWAP5 SWAP4 POP POP POP POP JUMP JUMPDEST PUSH1 0x0 PUSH1 0x40 DUP3 ADD SWAP1 POP PUSH2 0x175A PUSH1 0x0 DUP4 ADD DUP6 PUSH2 0x14AE JUMP JUMPDEST PUSH2 0x1767 PUSH1 0x20 DUP4 ADD DUP5 PUSH2 0x1678 JUMP JUMPDEST SWAP4 SWAP3 POP POP POP JUMP JUMPDEST PUSH1 0x0 PUSH1 0x20 DUP3 ADD SWAP1 POP DUP2 DUP2 SUB PUSH1 0x0 DUP4 ADD MSTORE PUSH2 0x1788 DUP2 DUP5 PUSH2 0x151B JUMP JUMPDEST SWAP1 POP SWAP3 SWAP2 POP POP JUMP JUMPDEST PUSH1 0x0 PUSH1 0x40 DUP3 ADD SWAP1 POP PUSH2 0x17A5 PUSH1 0x0 DUP4 ADD DUP6 PUSH2 0x1579 JUMP JUMPDEST DUP2 DUP2 SUB PUSH1 0x20 DUP4 ADD MSTORE PUSH2 0x17B7 DUP2 DUP5 PUSH2 0x1588 JUMP JUMPDEST SWAP1 POP SWAP4 SWAP3 POP POP POP JUMP JUMPDEST PUSH1 0x0 PUSH1 0x20 DUP3 ADD SWAP1 POP DUP2 DUP2 SUB PUSH1 0x0 DUP4 ADD MSTORE PUSH2 0x17D9 DUP2 PUSH2 0x1623 JUMP JUMPDEST SWAP1 POP SWAP2 SWAP1 POP JUMP JUMPDEST PUSH1 0x0 PUSH1 0x20 DUP3 ADD SWAP1 POP PUSH2 0x17F5 PUSH1 0x0 DUP4 ADD DUP5 PUSH2 0x1678 JUMP JUMPDEST SWAP3 SWAP2 POP POP JUMP JUMPDEST PUSH1 0x0 PUSH1 0x40 DUP3 ADD SWAP1 POP PUSH2 0x1810 PUSH1 0x0 DUP4 ADD DUP6 PUSH2 0x1678 JUMP JUMPDEST DUP2 DUP2 SUB PUSH1 0x20 DUP4 ADD MSTORE PUSH2 0x1822 DUP2 DUP5 PUSH2 0x14BD JUMP JUMPDEST SWAP1 POP SWAP4 SWAP3 POP POP POP JUMP JUMPDEST PUSH1 0x0 PUSH1 0xA0 DUP3 ADD SWAP1 POP PUSH2 0x1840 PUSH1 0x0 DUP4 ADD DUP9 PUSH2 0x1678 JUMP JUMPDEST PUSH2 0x184D PUSH1 0x20 DUP4 ADD DUP8 PUSH2 0x1678 JUMP JUMPDEST DUP2 DUP2 SUB PUSH1 0x40 DUP4 ADD MSTORE PUSH2 0x185F DUP2 DUP7 PUSH2 0x14BD JUMP JUMPDEST SWAP1 POP PUSH2 0x186E PUSH1 0x60 DUP4 ADD DUP6 PUSH2 0x14AE JUMP JUMPDEST PUSH2 0x187B PUSH1 0x80 DUP4 ADD DUP5 PUSH2 0x1678 JUMP JUMPDEST SWAP7 SWAP6 POP POP POP POP POP POP JUMP JUMPDEST PUSH1 0x0 PUSH2 0x188F PUSH2 0x18A0 JUMP JUMPDEST SWAP1 POP PUSH2 0x189B DUP3 DUP3 PUSH2 0x1A51 JUMP JUMPDEST SWAP2 SWAP1 POP JUMP JUMPDEST PUSH1 0x0 PUSH1 0x40 MLOAD SWAP1 POP SWAP1 JUMP JUMPDEST PUSH1 0x0 PUSH8 0xFFFFFFFFFFFFFFFF DUP3 GT ISZERO PUSH2 0x18C5 JUMPI PUSH2 0x18C4 PUSH2 0x1AB1 JUMP JUMPDEST JUMPDEST PUSH1 0x20 DUP3 MUL SWAP1 POP PUSH1 0x20 DUP2 ADD SWAP1 POP SWAP2 SWAP1 POP JUMP JUMPDEST PUSH1 0x0 PUSH8 0xFFFFFFFFFFFFFFFF DUP3 GT ISZERO PUSH2 0x18F1 JUMPI PUSH2 0x18F0 PUSH2 0x1AB1 JUMP JUMPDEST JUMPDEST PUSH2 0x18FA DUP3 PUSH2 0x1AF9 JUMP JUMPDEST SWAP1 POP PUSH1 0x20 DUP2 ADD SWAP1 POP SWAP2 SWAP1 POP JUMP JUMPDEST PUSH1 0x0 DUP2 SWAP1 POP PUSH1 0x20 DUP3 ADD SWAP1 POP SWAP2 SWAP1 POP JUMP JUMPDEST PUSH1 0x0 DUP2 SWAP1 POP PUSH1 0x20 DUP3 ADD SWAP1 POP SWAP2 SWAP1 POP JUMP JUMPDEST PUSH1 0x0 DUP2 MLOAD SWAP1 POP SWAP2 SWAP1 POP JUMP JUMPDEST PUSH1 0x0 DUP2 MLOAD SWAP1 POP SWAP2 SWAP1 POP JUMP JUMPDEST PUSH1 0x0 DUP2 MLOAD SWAP1 POP SWAP2 SWAP1 POP JUMP JUMPDEST PUSH1 0x0 DUP2 MLOAD SWAP1 POP SWAP2 SWAP1 POP JUMP JUMPDEST PUSH1 0x0 PUSH1 0x20 DUP3 ADD SWAP1 POP SWAP2 SWAP1 POP JUMP JUMPDEST PUSH1 0x0 PUSH1 0x20 DUP3 ADD SWAP1 POP SWAP2 SWAP1 POP JUMP JUMPDEST PUSH1 0x0 DUP3 DUP3 MSTORE PUSH1 0x20 DUP3 ADD SWAP1 POP SWAP3 SWAP2 POP POP JUMP JUMPDEST PUSH1 0x0 DUP3 DUP3 MSTORE PUSH1 0x20 DUP3 ADD SWAP1 POP SWAP3 SWAP2 POP POP JUMP JUMPDEST PUSH1 0x0 DUP3 DUP3 MSTORE PUSH1 0x20 DUP3 ADD SWAP1 POP SWAP3 SWAP2 POP POP JUMP JUMPDEST PUSH1 0x0 DUP2 SWAP1 POP SWAP3 SWAP2 POP POP JUMP JUMPDEST PUSH1 0x0 DUP3 DUP3 MSTORE PUSH1 0x20 DUP3 ADD SWAP1 POP SWAP3 SWAP2 POP POP JUMP JUMPDEST PUSH1 0x0 DUP2 SWAP1 POP SWAP3 SWAP2 POP POP JUMP JUMPDEST PUSH1 0x0 PUSH2 0x19D2 DUP3 PUSH2 0x19E5 JUMP JUMPDEST SWAP1 POP SWAP2 SWAP1 POP JUMP JUMPDEST PUSH1 0x0 DUP2 ISZERO ISZERO SWAP1 POP SWAP2 SWAP1 POP JUMP JUMPDEST PUSH1 0x0 PUSH20 0xFFFFFFFFFFFFFFFFFFFFFFFFFFFFFFFFFFFFFFFF DUP3 AND SWAP1 POP SWAP2 SWAP1 POP JUMP JUMPDEST PUSH1 0x0 DUP2 SWAP1 POP SWAP2 SWAP1 POP JUMP JUMPDEST DUP3 DUP2 DUP4 CALLDATACOPY PUSH1 0x0 DUP4 DUP4 ADD MSTORE POP POP POP JUMP JUMPDEST PUSH1 0x0 JUMPDEST DUP4 DUP2 LT ISZERO PUSH2 0x1A3C JUMPI DUP1 DUP3 ADD MLOAD DUP2 DUP5 ADD MSTORE PUSH1 0x20 DUP2 ADD SWAP1 POP PUSH2 0x1A21 JUMP JUMPDEST DUP4 DUP2 GT ISZERO PUSH2 0x1A4B JUMPI PUSH1 0x0 DUP5 DUP5 ADD MSTORE JUMPDEST POP POP POP POP JUMP JUMPDEST PUSH2 0x1A5A DUP3 PUSH2 0x1AF9 JUMP JUMPDEST DUP2 ADD DUP2 DUP2 LT PUSH8 0xFFFFFFFFFFFFFFFF DUP3 GT OR ISZERO PUSH2 0x1A79 JUMPI PUSH2 0x1A78 PUSH2 0x1AB1 JUMP JUMPDEST JUMPDEST DUP1 PUSH1 0x40 MSTORE POP POP POP JUMP JUMPDEST PUSH32 0x4E487B7100000000000000000000000000000000000000000000000000000000 PUSH1 0x0 MSTORE PUSH1 0x32 PUSH1 0x4 MSTORE PUSH1 0x24 PUSH1 0x0 REVERT JUMPDEST PUSH32 0x4E487B7100000000000000000000000000000000000000000000000000000000 PUSH1 0x0 MSTORE PUSH1 0x41 PUSH1 0x4 MSTORE PUSH1 0x24 PUSH1 0x0 REVERT JUMPDEST PUSH1 0x0 DUP1 REVERT JUMPDEST PUSH1 0x0 DUP1 REVERT JUMPDEST PUSH1 0x0 DUP1 REVERT JUMPDEST PUSH1 0x0 DUP1 REVERT JUMPDEST PUSH1 0x0 DUP1 REVERT JUMPDEST PUSH1 0x0 PUSH1 0x1F NOT PUSH1 0x1F DUP4 ADD AND SWAP1 POP SWAP2 SWAP1 POP JUMP JUMPDEST PUSH32 0x455243323020636F6E747261637420686173206E6F7420676976656E20706572 PUSH1 0x0 DUP3 ADD MSTORE PUSH32 0x6D697373696F6E20746F207468697320616464726573732E0000000000000000 PUSH1 0x20 DUP3 ADD MSTORE POP JUMP JUMPDEST PUSH32 0x574D415449430000000000000000000000000000000000000000000000000000 PUSH1 0x0 DUP3 ADD MSTORE POP JUMP JUMPDEST PUSH2 0x1B8B DUP2 PUSH2 0x19C7 JUMP JUMPDEST DUP2 EQ PUSH2 0x1B96 JUMPI PUSH1 0x0 DUP1 REVERT JUMPDEST POP JUMP JUMPDEST PUSH2 0x1BA2 DUP2 PUSH2 0x19D9 JUMP JUMPDEST DUP2 EQ PUSH2 0x1BAD JUMPI PUSH1 0x0 DUP1 REVERT JUMPDEST POP JUMP JUMPDEST PUSH2 0x1BB9 DUP2 PUSH2 0x1A05 JUMP JUMPDEST DUP2 EQ PUSH2 0x1BC4 JUMPI PUSH1 0x0 DUP1 REVERT JUMPDEST POP JUMP INVALID LOG2 PUSH5 0x6970667358 0x22 SLT KECCAK256 PUSH27 0x3F036BCEA56751E84D06AD2B20C9BCAE0A63C313E514A878A68744 0xD GT SWAP2 SWAP2 PUSH5 0x736F6C6343 STOP ADDMOD SMOD STOP CALLER "
				},
				"gasEstimates": {
					"creation": {
						"codeDepositCost": "1433000",
						"executionCost": "infinite",
						"totalCost": "infinite"
					},
					"external": {
						"get_amounts_out(uint256,string,string)": "infinite",
						"get_token_balance(string,address)": "infinite",
						"get_token_balance_contract(string)": "infinite",
						"get_token_balance_sender(string)": "infinite",
						"receive_wmatic()": "infinite",
						"swap_exact_tokens_for_tokens(uint256,uint256,string,string,uint256)": "infinite",
						"transfer_token(string,address,uint256)": "infinite",
						"transfer_token_to_contract(string,uint256)": "infinite"
					}
				},
				"methodIdentifiers": {
					"get_amounts_out(uint256,string,string)": "6d336d6a",
					"get_token_balance(string,address)": "c3a48401",
					"get_token_balance_contract(string)": "e4386ba3",
					"get_token_balance_sender(string)": "7d3683ba",
					"receive_wmatic()": "7b60eb23",
					"swap_exact_tokens_for_tokens(uint256,uint256,string,string,uint256)": "f809a2e6",
					"transfer_token(string,address,uint256)": "7552acd6",
					"transfer_token_to_contract(string,uint256)": "9bc97dee"
				}
			},
			"storageLayout": {
				"storage": [
					{
						"astId": 495,
						"contract": "contracts/polygon/microcebus_main.sol:microcebus_main",
						"label": "token_contracts",
						"offset": 0,
						"slot": "0",
						"type": "t_mapping(t_string_memory_ptr,t_struct(Token)473_storage)"
					},
					{
						"astId": 521,
						"contract": "contracts/polygon/microcebus_main.sol:microcebus_main",
						"label": "admin",
						"offset": 0,
						"slot": "1",
						"type": "t_address"
					}
				],
				"types": {
					"t_address": {
						"encoding": "inplace",
						"label": "address",
						"numberOfBytes": "20"
					},
					"t_mapping(t_string_memory_ptr,t_struct(Token)473_storage)": {
						"encoding": "mapping",
						"key": "t_string_memory_ptr",
						"label": "mapping(string => struct microcebus_main.Token)",
						"numberOfBytes": "32",
						"value": "t_struct(Token)473_storage"
					},
					"t_string_memory_ptr": {
						"encoding": "bytes",
						"label": "string",
						"numberOfBytes": "32"
					},
					"t_struct(Token)473_storage": {
						"encoding": "inplace",
						"label": "struct microcebus_main.Token",
						"members": [
							{
								"astId": 470,
								"contract": "contracts/polygon/microcebus_main.sol:microcebus_main",
								"label": "adr",
								"offset": 0,
								"slot": "0",
								"type": "t_address"
							},
							{
								"astId": 472,
								"contract": "contracts/polygon/microcebus_main.sol:microcebus_main",
								"label": "decimals",
								"offset": 0,
								"slot": "1",
								"type": "t_uint256"
							}
						],
						"numberOfBytes": "64"
					},
					"t_uint256": {
						"encoding": "inplace",
						"label": "uint256",
						"numberOfBytes": "32"
					}
				}
			},
			"userdoc": {
				"kind": "user",
				"methods": {},
				"version": 1
			}
		}
	}
}