{
	"contracts/polygon/microcebus_main.sol": {
		"microcebus_main": {
			"abi": [
				{
					"inputs": [],
					"stateMutability": "nonpayable",
					"type": "constructor"
				},
				{
					"anonymous": false,
					"inputs": [
						{
							"indexed": false,
							"internalType": "bool",
							"name": "success",
							"type": "bool"
						},
						{
							"indexed": false,
							"internalType": "bytes",
							"name": "data",
							"type": "bytes"
						}
					],
					"name": "Response",
					"type": "event"
				},
				{
					"inputs": [
						{
							"internalType": "string",
							"name": "_token_identifier",
							"type": "string"
						},
						{
							"internalType": "address",
							"name": "_token_owner",
							"type": "address"
						}
					],
					"name": "get_token_balance",
					"outputs": [
						{
							"internalType": "uint256",
							"name": "",
							"type": "uint256"
						}
					],
					"stateMutability": "view",
					"type": "function"
				},
				{
					"inputs": [
						{
							"internalType": "string",
							"name": "_token_identifier",
							"type": "string"
						}
					],
					"name": "get_token_balance_contract",
					"outputs": [
						{
							"internalType": "uint256",
							"name": "",
							"type": "uint256"
						}
					],
					"stateMutability": "view",
					"type": "function"
				},
				{
					"inputs": [
						{
							"internalType": "string",
							"name": "_token_identifier",
							"type": "string"
						}
					],
					"name": "get_token_balance_sender",
					"outputs": [
						{
							"internalType": "uint256",
							"name": "",
							"type": "uint256"
						}
					],
					"stateMutability": "view",
					"type": "function"
				},
				{
					"inputs": [],
					"name": "receive_wmatic",
					"outputs": [],
					"stateMutability": "payable",
					"type": "function"
				},
				{
					"inputs": [
						{
							"internalType": "uint256",
							"name": "_amount_in",
							"type": "uint256"
						},
						{
							"internalType": "uint256",
							"name": "_amount_out_min",
							"type": "uint256"
						},
						{
							"internalType": "string",
							"name": "_token_in_identifier",
							"type": "string"
						},
						{
							"internalType": "string",
							"name": "_token_out_identifier",
							"type": "string"
						},
						{
							"internalType": "uint256",
							"name": "deadline",
							"type": "uint256"
						}
					],
					"name": "swap_exact_tokens_for_tokens",
					"outputs": [],
					"stateMutability": "nonpayable",
					"type": "function"
				},
				{
					"inputs": [
						{
							"internalType": "string",
							"name": "_token_in_identifier",
							"type": "string"
						},
						{
							"internalType": "address",
							"name": "_token_receiver",
							"type": "address"
						},
						{
							"internalType": "uint256",
							"name": "_amount",
							"type": "uint256"
						}
					],
					"name": "transfer_token",
					"outputs": [],
					"stateMutability": "nonpayable",
					"type": "function"
				},
				{
					"inputs": [
						{
							"internalType": "string",
							"name": "_token_in_identifier",
							"type": "string"
						},
						{
							"internalType": "uint256",
							"name": "_amount",
							"type": "uint256"
						}
					],
					"name": "transfer_token_to_contract",
					"outputs": [],
					"stateMutability": "nonpayable",
					"type": "function"
				},
				{
					"stateMutability": "payable",
					"type": "receive"
				}
			],
			"devdoc": {
				"kind": "dev",
				"methods": {},
				"version": 1
			},
			"evm": {
				"assembly": "    /* \"contracts/polygon/microcebus_main.sol\":94:4862  contract microcebus_main {... */\n  mstore(0x40, 0x80)\n    /* \"contracts/polygon/microcebus_main.sol\":1252:1780  constructor() {... */\n  callvalue\n  dup1\n  iszero\n  tag_1\n  jumpi\n  0x00\n  dup1\n  revert\ntag_1:\n  pop\n    /* \"contracts/polygon/microcebus_main.sol\":1285:1295  msg.sender */\n  caller\n    /* \"contracts/polygon/microcebus_main.sol\":1277:1282  admin */\n  0x01\n  0x00\n    /* \"contracts/polygon/microcebus_main.sol\":1277:1295  admin = msg.sender */\n  0x0100\n  exp\n  dup2\n  sload\n  dup2\n  0xffffffffffffffffffffffffffffffffffffffff\n  mul\n  not\n  and\n  swap1\n  dup4\n  0xffffffffffffffffffffffffffffffffffffffff\n  and\n  mul\n  or\n  swap1\n  sstore\n  pop\n    /* \"contracts/polygon/microcebus_main.sol\":1330:1361  Token({adr: DAI, decimals: 18}) */\n  mload(0x40)\n  dup1\n  0x40\n  add\n  0x40\n  mstore\n  dup1\n    /* \"contracts/polygon/microcebus_main.sol\":854:896  0x8f3Cf7ad23Cd3CaDbD9735AFf958023239c6A063 */\n  0x8f3cf7ad23cd3cadbd9735aff958023239c6a063\n    /* \"contracts/polygon/microcebus_main.sol\":1330:1361  Token({adr: DAI, decimals: 18}) */\n  0xffffffffffffffffffffffffffffffffffffffff\n  and\n  dup2\n  mstore\n  0x20\n  add\n    /* \"contracts/polygon/microcebus_main.sol\":1357:1359  18 */\n  0x12\n    /* \"contracts/polygon/microcebus_main.sol\":1330:1361  Token({adr: DAI, decimals: 18}) */\n  dup2\n  mstore\n  pop\n    /* \"contracts/polygon/microcebus_main.sol\":1305:1320  token_contracts */\n  0x00\n    /* \"contracts/polygon/microcebus_main.sol\":1305:1327  token_contracts[\"DAI\"] */\n  mload(0x40)\n  tag_4\n  swap1\n  tag_5\n  jump\t// in\ntag_4:\n  swap1\n  dup2\n  mstore\n  0x20\n  add\n  mload(0x40)\n  dup1\n  swap2\n  sub\n  swap1\n  keccak256\n    /* \"contracts/polygon/microcebus_main.sol\":1305:1361  token_contracts[\"DAI\"] = Token({adr: DAI, decimals: 18}) */\n  0x00\n  dup3\n  add\n  mload\n  dup2\n  0x00\n  add\n  exp(0x0100, 0x00)\n  dup2\n  sload\n  dup2\n  0xffffffffffffffffffffffffffffffffffffffff\n  mul\n  not\n  and\n  swap1\n  dup4\n  0xffffffffffffffffffffffffffffffffffffffff\n  and\n  mul\n  or\n  swap1\n  sstore\n  pop\n  0x20\n  dup3\n  add\n  mload\n  dup2\n  0x01\n  add\n  sstore\n  swap1\n  pop\n  pop\n    /* \"contracts/polygon/microcebus_main.sol\":1397:1429  Token({adr: WETH, decimals: 18}) */\n  mload(0x40)\n  dup1\n  0x40\n  add\n  0x40\n  mstore\n  dup1\n    /* \"contracts/polygon/microcebus_main.sol\":1136:1178  0x7ceB23fD6bC0adD59E62ac25578270cFf1b9f619 */\n  0x7ceb23fd6bc0add59e62ac25578270cff1b9f619\n    /* \"contracts/polygon/microcebus_main.sol\":1397:1429  Token({adr: WETH, decimals: 18}) */\n  0xffffffffffffffffffffffffffffffffffffffff\n  and\n  dup2\n  mstore\n  0x20\n  add\n    /* \"contracts/polygon/microcebus_main.sol\":1425:1427  18 */\n  0x12\n    /* \"contracts/polygon/microcebus_main.sol\":1397:1429  Token({adr: WETH, decimals: 18}) */\n  dup2\n  mstore\n  pop\n    /* \"contracts/polygon/microcebus_main.sol\":1371:1386  token_contracts */\n  0x00\n    /* \"contracts/polygon/microcebus_main.sol\":1371:1394  token_contracts[\"WETH\"] */\n  mload(0x40)\n  tag_6\n  swap1\n  tag_7\n  jump\t// in\ntag_6:\n  swap1\n  dup2\n  mstore\n  0x20\n  add\n  mload(0x40)\n  dup1\n  swap2\n  sub\n  swap1\n  keccak256\n    /* \"contracts/polygon/microcebus_main.sol\":1371:1429  token_contracts[\"WETH\"] = Token({adr: WETH, decimals: 18}) */\n  0x00\n  dup3\n  add\n  mload\n  dup2\n  0x00\n  add\n  exp(0x0100, 0x00)\n  dup2\n  sload\n  dup2\n  0xffffffffffffffffffffffffffffffffffffffff\n  mul\n  not\n  and\n  swap1\n  dup4\n  0xffffffffffffffffffffffffffffffffffffffff\n  and\n  mul\n  or\n  swap1\n  sstore\n  pop\n  0x20\n  dup3\n  add\n  mload\n  dup2\n  0x01\n  add\n  sstore\n  swap1\n  pop\n  pop\n    /* \"contracts/polygon/microcebus_main.sol\":1467:1501  Token({adr: WMATIC, decimals: 18}) */\n  mload(0x40)\n  dup1\n  0x40\n  add\n  0x40\n  mstore\n  dup1\n    /* \"contracts/polygon/microcebus_main.sol\":715:757  0x0d500B1d8E8eF31E21C99d1Db9A6444d3ADf1270 */\n  0x0d500b1d8e8ef31e21c99d1db9a6444d3adf1270\n    /* \"contracts/polygon/microcebus_main.sol\":1467:1501  Token({adr: WMATIC, decimals: 18}) */\n  0xffffffffffffffffffffffffffffffffffffffff\n  and\n  dup2\n  mstore\n  0x20\n  add\n    /* \"contracts/polygon/microcebus_main.sol\":1497:1499  18 */\n  0x12\n    /* \"contracts/polygon/microcebus_main.sol\":1467:1501  Token({adr: WMATIC, decimals: 18}) */\n  dup2\n  mstore\n  pop\n    /* \"contracts/polygon/microcebus_main.sol\":1439:1454  token_contracts */\n  0x00\n    /* \"contracts/polygon/microcebus_main.sol\":1439:1464  token_contracts[\"WMATIC\"] */\n  mload(0x40)\n  tag_8\n  swap1\n  tag_9\n  jump\t// in\ntag_8:\n  swap1\n  dup2\n  mstore\n  0x20\n  add\n  mload(0x40)\n  dup1\n  swap2\n  sub\n  swap1\n  keccak256\n    /* \"contracts/polygon/microcebus_main.sol\":1439:1501  token_contracts[\"WMATIC\"] = Token({adr: WMATIC, decimals: 18}) */\n  0x00\n  dup3\n  add\n  mload\n  dup2\n  0x00\n  add\n  exp(0x0100, 0x00)\n  dup2\n  sload\n  dup2\n  0xffffffffffffffffffffffffffffffffffffffff\n  mul\n  not\n  and\n  swap1\n  dup4\n  0xffffffffffffffffffffffffffffffffffffffff\n  and\n  mul\n  or\n  swap1\n  sstore\n  pop\n  0x20\n  dup3\n  add\n  mload\n  dup2\n  0x01\n  add\n  sstore\n  swap1\n  pop\n  pop\n    /* \"contracts/polygon/microcebus_main.sol\":1537:1568  Token({adr: USDC, decimals: 6}) */\n  mload(0x40)\n  dup1\n  0x40\n  add\n  0x40\n  mstore\n  dup1\n    /* \"contracts/polygon/microcebus_main.sol\":785:827  0x2791Bca1f2de4661ED88A30C99A7a9449Aa84174 */\n  0x2791bca1f2de4661ed88a30c99a7a9449aa84174\n    /* \"contracts/polygon/microcebus_main.sol\":1537:1568  Token({adr: USDC, decimals: 6}) */\n  0xffffffffffffffffffffffffffffffffffffffff\n  and\n  dup2\n  mstore\n  0x20\n  add\n    /* \"contracts/polygon/microcebus_main.sol\":1565:1566  6 */\n  0x06\n    /* \"contracts/polygon/microcebus_main.sol\":1537:1568  Token({adr: USDC, decimals: 6}) */\n  dup2\n  mstore\n  pop\n    /* \"contracts/polygon/microcebus_main.sol\":1511:1526  token_contracts */\n  0x00\n    /* \"contracts/polygon/microcebus_main.sol\":1511:1534  token_contracts[\"USDC\"] */\n  mload(0x40)\n  tag_10\n  swap1\n  tag_11\n  jump\t// in\ntag_10:\n  swap1\n  dup2\n  mstore\n  0x20\n  add\n  mload(0x40)\n  dup1\n  swap2\n  sub\n  swap1\n  keccak256\n    /* \"contracts/polygon/microcebus_main.sol\":1511:1568  token_contracts[\"USDC\"] = Token({adr: USDC, decimals: 6}) */\n  0x00\n  dup3\n  add\n  mload\n  dup2\n  0x00\n  add\n  exp(0x0100, 0x00)\n  dup2\n  sload\n  dup2\n  0xffffffffffffffffffffffffffffffffffffffff\n  mul\n  not\n  and\n  swap1\n  dup4\n  0xffffffffffffffffffffffffffffffffffffffff\n  and\n  mul\n  or\n  swap1\n  sstore\n  pop\n  0x20\n  dup3\n  add\n  mload\n  dup2\n  0x01\n  add\n  sstore\n  swap1\n  pop\n  pop\n    /* \"contracts/polygon/microcebus_main.sol\":1604:1635  Token({adr: USDT, decimals: 6}) */\n  mload(0x40)\n  dup1\n  0x40\n  add\n  0x40\n  mstore\n  dup1\n    /* \"contracts/polygon/microcebus_main.sol\":924:966  0xc2132D05D31c914a87C6611C10748AEb04B58e8F */\n  0xc2132d05d31c914a87c6611c10748aeb04b58e8f\n    /* \"contracts/polygon/microcebus_main.sol\":1604:1635  Token({adr: USDT, decimals: 6}) */\n  0xffffffffffffffffffffffffffffffffffffffff\n  and\n  dup2\n  mstore\n  0x20\n  add\n    /* \"contracts/polygon/microcebus_main.sol\":1632:1633  6 */\n  0x06\n    /* \"contracts/polygon/microcebus_main.sol\":1604:1635  Token({adr: USDT, decimals: 6}) */\n  dup2\n  mstore\n  pop\n    /* \"contracts/polygon/microcebus_main.sol\":1578:1593  token_contracts */\n  0x00\n    /* \"contracts/polygon/microcebus_main.sol\":1578:1601  token_contracts[\"USDT\"] */\n  mload(0x40)\n  tag_12\n  swap1\n  tag_13\n  jump\t// in\ntag_12:\n  swap1\n  dup2\n  mstore\n  0x20\n  add\n  mload(0x40)\n  dup1\n  swap2\n  sub\n  swap1\n  keccak256\n    /* \"contracts/polygon/microcebus_main.sol\":1578:1635  token_contracts[\"USDT\"] = Token({adr: USDT, decimals: 6}) */\n  0x00\n  dup3\n  add\n  mload\n  dup2\n  0x00\n  add\n  exp(0x0100, 0x00)\n  dup2\n  sload\n  dup2\n  0xffffffffffffffffffffffffffffffffffffffff\n  mul\n  not\n  and\n  swap1\n  dup4\n  0xffffffffffffffffffffffffffffffffffffffff\n  and\n  mul\n  or\n  swap1\n  sstore\n  pop\n  0x20\n  dup3\n  add\n  mload\n  dup2\n  0x01\n  add\n  sstore\n  swap1\n  pop\n  pop\n    /* \"contracts/polygon/microcebus_main.sol\":1671:1702  Token({adr: WBTC, decimals: 8}) */\n  mload(0x40)\n  dup1\n  0x40\n  add\n  0x40\n  mstore\n  dup1\n    /* \"contracts/polygon/microcebus_main.sol\":994:1036  0x1BFD67037B42Cf73acF2047067bd4F2C47D9BfD6 */\n  0x1bfd67037b42cf73acf2047067bd4f2c47d9bfd6\n    /* \"contracts/polygon/microcebus_main.sol\":1671:1702  Token({adr: WBTC, decimals: 8}) */\n  0xffffffffffffffffffffffffffffffffffffffff\n  and\n  dup2\n  mstore\n  0x20\n  add\n    /* \"contracts/polygon/microcebus_main.sol\":1699:1700  8 */\n  0x08\n    /* \"contracts/polygon/microcebus_main.sol\":1671:1702  Token({adr: WBTC, decimals: 8}) */\n  dup2\n  mstore\n  pop\n    /* \"contracts/polygon/microcebus_main.sol\":1645:1660  token_contracts */\n  0x00\n    /* \"contracts/polygon/microcebus_main.sol\":1645:1668  token_contracts[\"WBTC\"] */\n  mload(0x40)\n  tag_14\n  swap1\n  tag_15\n  jump\t// in\ntag_14:\n  swap1\n  dup2\n  mstore\n  0x20\n  add\n  mload(0x40)\n  dup1\n  swap2\n  sub\n  swap1\n  keccak256\n    /* \"contracts/polygon/microcebus_main.sol\":1645:1702  token_contracts[\"WBTC\"] = Token({adr: WBTC, decimals: 8}) */\n  0x00\n  dup3\n  add\n  mload\n  dup2\n  0x00\n  add\n  exp(0x0100, 0x00)\n  dup2\n  sload\n  dup2\n  0xffffffffffffffffffffffffffffffffffffffff\n  mul\n  not\n  and\n  swap1\n  dup4\n  0xffffffffffffffffffffffffffffffffffffffff\n  and\n  mul\n  or\n  swap1\n  sstore\n  pop\n  0x20\n  dup3\n  add\n  mload\n  dup2\n  0x01\n  add\n  sstore\n  swap1\n  pop\n  pop\n    /* \"contracts/polygon/microcebus_main.sol\":1740:1774  Token({adr: DQUICK, decimals: 18}) */\n  mload(0x40)\n  dup1\n  0x40\n  add\n  0x40\n  mstore\n  dup1\n    /* \"contracts/polygon/microcebus_main.sol\":1066:1108  0xf28164A485B0B2C90639E47b0f377b4a438a16B1 */\n  0xf28164a485b0b2c90639e47b0f377b4a438a16b1\n    /* \"contracts/polygon/microcebus_main.sol\":1740:1774  Token({adr: DQUICK, decimals: 18}) */\n  0xffffffffffffffffffffffffffffffffffffffff\n  and\n  dup2\n  mstore\n  0x20\n  add\n    /* \"contracts/polygon/microcebus_main.sol\":1770:1772  18 */\n  0x12\n    /* \"contracts/polygon/microcebus_main.sol\":1740:1774  Token({adr: DQUICK, decimals: 18}) */\n  dup2\n  mstore\n  pop\n    /* \"contracts/polygon/microcebus_main.sol\":1712:1727  token_contracts */\n  0x00\n    /* \"contracts/polygon/microcebus_main.sol\":1712:1737  token_contracts[\"DQUICK\"] */\n  mload(0x40)\n  tag_16\n  swap1\n  tag_17\n  jump\t// in\ntag_16:\n  swap1\n  dup2\n  mstore\n  0x20\n  add\n  mload(0x40)\n  dup1\n  swap2\n  sub\n  swap1\n  keccak256\n    /* \"contracts/polygon/microcebus_main.sol\":1712:1774  token_contracts[\"DQUICK\"] = Token({adr: DQUICK, decimals: 18}) */\n  0x00\n  dup3\n  add\n  mload\n  dup2\n  0x00\n  add\n  exp(0x0100, 0x00)\n  dup2\n  sload\n  dup2\n  0xffffffffffffffffffffffffffffffffffffffff\n  mul\n  not\n  and\n  swap1\n  dup4\n  0xffffffffffffffffffffffffffffffffffffffff\n  and\n  mul\n  or\n  swap1\n  sstore\n  pop\n  0x20\n  dup3\n  add\n  mload\n  dup2\n  0x01\n  add\n  sstore\n  swap1\n  pop\n  pop\n    /* \"contracts/polygon/microcebus_main.sol\":94:4862  contract microcebus_main {... */\n  jump(tag_18)\n    /* \"#utility.yul\":7:407   */\ntag_20:\n    /* \"#utility.yul\":167:170   */\n  0x00\n    /* \"#utility.yul\":188:272   */\n  tag_22\n    /* \"#utility.yul\":270:271   */\n  0x04\n    /* \"#utility.yul\":265:268   */\n  dup4\n    /* \"#utility.yul\":188:272   */\n  tag_23\n  jump\t// in\ntag_22:\n    /* \"#utility.yul\":181:272   */\n  swap2\n  pop\n    /* \"#utility.yul\":281:374   */\n  tag_24\n    /* \"#utility.yul\":370:373   */\n  dup3\n    /* \"#utility.yul\":281:374   */\n  tag_25\n  jump\t// in\ntag_24:\n    /* \"#utility.yul\":399:400   */\n  0x04\n    /* \"#utility.yul\":394:397   */\n  dup3\n    /* \"#utility.yul\":390:401   */\n  add\n    /* \"#utility.yul\":383:401   */\n  swap1\n  pop\n    /* \"#utility.yul\":7:407   */\n  swap2\n  swap1\n  pop\n  jump\t// out\n    /* \"#utility.yul\":413:813   */\ntag_26:\n    /* \"#utility.yul\":573:576   */\n  0x00\n    /* \"#utility.yul\":594:678   */\n  tag_28\n    /* \"#utility.yul\":676:677   */\n  0x06\n    /* \"#utility.yul\":671:674   */\n  dup4\n    /* \"#utility.yul\":594:678   */\n  tag_23\n  jump\t// in\ntag_28:\n    /* \"#utility.yul\":587:678   */\n  swap2\n  pop\n    /* \"#utility.yul\":687:780   */\n  tag_29\n    /* \"#utility.yul\":776:779   */\n  dup3\n    /* \"#utility.yul\":687:780   */\n  tag_30\n  jump\t// in\ntag_29:\n    /* \"#utility.yul\":805:806   */\n  0x06\n    /* \"#utility.yul\":800:803   */\n  dup3\n    /* \"#utility.yul\":796:807   */\n  add\n    /* \"#utility.yul\":789:807   */\n  swap1\n  pop\n    /* \"#utility.yul\":413:813   */\n  swap2\n  swap1\n  pop\n  jump\t// out\n    /* \"#utility.yul\":819:1219   */\ntag_31:\n    /* \"#utility.yul\":979:982   */\n  0x00\n    /* \"#utility.yul\":1000:1084   */\n  tag_33\n    /* \"#utility.yul\":1082:1083   */\n  0x04\n    /* \"#utility.yul\":1077:1080   */\n  dup4\n    /* \"#utility.yul\":1000:1084   */\n  tag_23\n  jump\t// in\ntag_33:\n    /* \"#utility.yul\":993:1084   */\n  swap2\n  pop\n    /* \"#utility.yul\":1093:1186   */\n  tag_34\n    /* \"#utility.yul\":1182:1185   */\n  dup3\n    /* \"#utility.yul\":1093:1186   */\n  tag_35\n  jump\t// in\ntag_34:\n    /* \"#utility.yul\":1211:1212   */\n  0x04\n    /* \"#utility.yul\":1206:1209   */\n  dup3\n    /* \"#utility.yul\":1202:1213   */\n  add\n    /* \"#utility.yul\":1195:1213   */\n  swap1\n  pop\n    /* \"#utility.yul\":819:1219   */\n  swap2\n  swap1\n  pop\n  jump\t// out\n    /* \"#utility.yul\":1225:1625   */\ntag_36:\n    /* \"#utility.yul\":1385:1388   */\n  0x00\n    /* \"#utility.yul\":1406:1490   */\n  tag_38\n    /* \"#utility.yul\":1488:1489   */\n  0x04\n    /* \"#utility.yul\":1483:1486   */\n  dup4\n    /* \"#utility.yul\":1406:1490   */\n  tag_23\n  jump\t// in\ntag_38:\n    /* \"#utility.yul\":1399:1490   */\n  swap2\n  pop\n    /* \"#utility.yul\":1499:1592   */\n  tag_39\n    /* \"#utility.yul\":1588:1591   */\n  dup3\n    /* \"#utility.yul\":1499:1592   */\n  tag_40\n  jump\t// in\ntag_39:\n    /* \"#utility.yul\":1617:1618   */\n  0x04\n    /* \"#utility.yul\":1612:1615   */\n  dup3\n    /* \"#utility.yul\":1608:1619   */\n  add\n    /* \"#utility.yul\":1601:1619   */\n  swap1\n  pop\n    /* \"#utility.yul\":1225:1625   */\n  swap2\n  swap1\n  pop\n  jump\t// out\n    /* \"#utility.yul\":1631:2031   */\ntag_41:\n    /* \"#utility.yul\":1791:1794   */\n  0x00\n    /* \"#utility.yul\":1812:1896   */\n  tag_43\n    /* \"#utility.yul\":1894:1895   */\n  0x03\n    /* \"#utility.yul\":1889:1892   */\n  dup4\n    /* \"#utility.yul\":1812:1896   */\n  tag_23\n  jump\t// in\ntag_43:\n    /* \"#utility.yul\":1805:1896   */\n  swap2\n  pop\n    /* \"#utility.yul\":1905:1998   */\n  tag_44\n    /* \"#utility.yul\":1994:1997   */\n  dup3\n    /* \"#utility.yul\":1905:1998   */\n  tag_45\n  jump\t// in\ntag_44:\n    /* \"#utility.yul\":2023:2024   */\n  0x03\n    /* \"#utility.yul\":2018:2021   */\n  dup3\n    /* \"#utility.yul\":2014:2025   */\n  add\n    /* \"#utility.yul\":2007:2025   */\n  swap1\n  pop\n    /* \"#utility.yul\":1631:2031   */\n  swap2\n  swap1\n  pop\n  jump\t// out\n    /* \"#utility.yul\":2037:2437   */\ntag_46:\n    /* \"#utility.yul\":2197:2200   */\n  0x00\n    /* \"#utility.yul\":2218:2302   */\n  tag_48\n    /* \"#utility.yul\":2300:2301   */\n  0x04\n    /* \"#utility.yul\":2295:2298   */\n  dup4\n    /* \"#utility.yul\":2218:2302   */\n  tag_23\n  jump\t// in\ntag_48:\n    /* \"#utility.yul\":2211:2302   */\n  swap2\n  pop\n    /* \"#utility.yul\":2311:2404   */\n  tag_49\n    /* \"#utility.yul\":2400:2403   */\n  dup3\n    /* \"#utility.yul\":2311:2404   */\n  tag_50\n  jump\t// in\ntag_49:\n    /* \"#utility.yul\":2429:2430   */\n  0x04\n    /* \"#utility.yul\":2424:2427   */\n  dup3\n    /* \"#utility.yul\":2420:2431   */\n  add\n    /* \"#utility.yul\":2413:2431   */\n  swap1\n  pop\n    /* \"#utility.yul\":2037:2437   */\n  swap2\n  swap1\n  pop\n  jump\t// out\n    /* \"#utility.yul\":2443:2843   */\ntag_51:\n    /* \"#utility.yul\":2603:2606   */\n  0x00\n    /* \"#utility.yul\":2624:2708   */\n  tag_53\n    /* \"#utility.yul\":2706:2707   */\n  0x06\n    /* \"#utility.yul\":2701:2704   */\n  dup4\n    /* \"#utility.yul\":2624:2708   */\n  tag_23\n  jump\t// in\ntag_53:\n    /* \"#utility.yul\":2617:2708   */\n  swap2\n  pop\n    /* \"#utility.yul\":2717:2810   */\n  tag_54\n    /* \"#utility.yul\":2806:2809   */\n  dup3\n    /* \"#utility.yul\":2717:2810   */\n  tag_55\n  jump\t// in\ntag_54:\n    /* \"#utility.yul\":2835:2836   */\n  0x06\n    /* \"#utility.yul\":2830:2833   */\n  dup3\n    /* \"#utility.yul\":2826:2837   */\n  add\n    /* \"#utility.yul\":2819:2837   */\n  swap1\n  pop\n    /* \"#utility.yul\":2443:2843   */\n  swap2\n  swap1\n  pop\n  jump\t// out\n    /* \"#utility.yul\":2849:3230   */\ntag_7:\n    /* \"#utility.yul\":3034:3037   */\n  0x00\n    /* \"#utility.yul\":3056:3204   */\n  tag_57\n    /* \"#utility.yul\":3200:3203   */\n  dup3\n    /* \"#utility.yul\":3056:3204   */\n  tag_20\n  jump\t// in\ntag_57:\n    /* \"#utility.yul\":3049:3204   */\n  swap2\n  pop\n    /* \"#utility.yul\":3221:3224   */\n  dup2\n    /* \"#utility.yul\":3214:3224   */\n  swap1\n  pop\n    /* \"#utility.yul\":2849:3230   */\n  swap2\n  swap1\n  pop\n  jump\t// out\n    /* \"#utility.yul\":3236:3617   */\ntag_17:\n    /* \"#utility.yul\":3421:3424   */\n  0x00\n    /* \"#utility.yul\":3443:3591   */\n  tag_59\n    /* \"#utility.yul\":3587:3590   */\n  dup3\n    /* \"#utility.yul\":3443:3591   */\n  tag_26\n  jump\t// in\ntag_59:\n    /* \"#utility.yul\":3436:3591   */\n  swap2\n  pop\n    /* \"#utility.yul\":3608:3611   */\n  dup2\n    /* \"#utility.yul\":3601:3611   */\n  swap1\n  pop\n    /* \"#utility.yul\":3236:3617   */\n  swap2\n  swap1\n  pop\n  jump\t// out\n    /* \"#utility.yul\":3623:4004   */\ntag_13:\n    /* \"#utility.yul\":3808:3811   */\n  0x00\n    /* \"#utility.yul\":3830:3978   */\n  tag_61\n    /* \"#utility.yul\":3974:3977   */\n  dup3\n    /* \"#utility.yul\":3830:3978   */\n  tag_31\n  jump\t// in\ntag_61:\n    /* \"#utility.yul\":3823:3978   */\n  swap2\n  pop\n    /* \"#utility.yul\":3995:3998   */\n  dup2\n    /* \"#utility.yul\":3988:3998   */\n  swap1\n  pop\n    /* \"#utility.yul\":3623:4004   */\n  swap2\n  swap1\n  pop\n  jump\t// out\n    /* \"#utility.yul\":4010:4391   */\ntag_15:\n    /* \"#utility.yul\":4195:4198   */\n  0x00\n    /* \"#utility.yul\":4217:4365   */\n  tag_63\n    /* \"#utility.yul\":4361:4364   */\n  dup3\n    /* \"#utility.yul\":4217:4365   */\n  tag_36\n  jump\t// in\ntag_63:\n    /* \"#utility.yul\":4210:4365   */\n  swap2\n  pop\n    /* \"#utility.yul\":4382:4385   */\n  dup2\n    /* \"#utility.yul\":4375:4385   */\n  swap1\n  pop\n    /* \"#utility.yul\":4010:4391   */\n  swap2\n  swap1\n  pop\n  jump\t// out\n    /* \"#utility.yul\":4397:4778   */\ntag_5:\n    /* \"#utility.yul\":4582:4585   */\n  0x00\n    /* \"#utility.yul\":4604:4752   */\n  tag_65\n    /* \"#utility.yul\":4748:4751   */\n  dup3\n    /* \"#utility.yul\":4604:4752   */\n  tag_41\n  jump\t// in\ntag_65:\n    /* \"#utility.yul\":4597:4752   */\n  swap2\n  pop\n    /* \"#utility.yul\":4769:4772   */\n  dup2\n    /* \"#utility.yul\":4762:4772   */\n  swap1\n  pop\n    /* \"#utility.yul\":4397:4778   */\n  swap2\n  swap1\n  pop\n  jump\t// out\n    /* \"#utility.yul\":4784:5165   */\ntag_11:\n    /* \"#utility.yul\":4969:4972   */\n  0x00\n    /* \"#utility.yul\":4991:5139   */\n  tag_67\n    /* \"#utility.yul\":5135:5138   */\n  dup3\n    /* \"#utility.yul\":4991:5139   */\n  tag_46\n  jump\t// in\ntag_67:\n    /* \"#utility.yul\":4984:5139   */\n  swap2\n  pop\n    /* \"#utility.yul\":5156:5159   */\n  dup2\n    /* \"#utility.yul\":5149:5159   */\n  swap1\n  pop\n    /* \"#utility.yul\":4784:5165   */\n  swap2\n  swap1\n  pop\n  jump\t// out\n    /* \"#utility.yul\":5171:5552   */\ntag_9:\n    /* \"#utility.yul\":5356:5359   */\n  0x00\n    /* \"#utility.yul\":5378:5526   */\n  tag_69\n    /* \"#utility.yul\":5522:5525   */\n  dup3\n    /* \"#utility.yul\":5378:5526   */\n  tag_51\n  jump\t// in\ntag_69:\n    /* \"#utility.yul\":5371:5526   */\n  swap2\n  pop\n    /* \"#utility.yul\":5543:5546   */\n  dup2\n    /* \"#utility.yul\":5536:5546   */\n  swap1\n  pop\n    /* \"#utility.yul\":5171:5552   */\n  swap2\n  swap1\n  pop\n  jump\t// out\n    /* \"#utility.yul\":5558:5706   */\ntag_23:\n    /* \"#utility.yul\":5660:5671   */\n  0x00\n    /* \"#utility.yul\":5697:5700   */\n  dup2\n    /* \"#utility.yul\":5682:5700   */\n  swap1\n  pop\n    /* \"#utility.yul\":5558:5706   */\n  swap3\n  swap2\n  pop\n  pop\n  jump\t// out\n    /* \"#utility.yul\":5712:5866   */\ntag_25:\n    /* \"#utility.yul\":5852:5858   */\n  0x5745544800000000000000000000000000000000000000000000000000000000\n    /* \"#utility.yul\":5848:5849   */\n  0x00\n    /* \"#utility.yul\":5840:5846   */\n  dup3\n    /* \"#utility.yul\":5836:5850   */\n  add\n    /* \"#utility.yul\":5829:5859   */\n  mstore\n    /* \"#utility.yul\":5712:5866   */\n  pop\n  jump\t// out\n    /* \"#utility.yul\":5872:6028   */\ntag_30:\n    /* \"#utility.yul\":6012:6020   */\n  0x44515549434b0000000000000000000000000000000000000000000000000000\n    /* \"#utility.yul\":6008:6009   */\n  0x00\n    /* \"#utility.yul\":6000:6006   */\n  dup3\n    /* \"#utility.yul\":5996:6010   */\n  add\n    /* \"#utility.yul\":5989:6021   */\n  mstore\n    /* \"#utility.yul\":5872:6028   */\n  pop\n  jump\t// out\n    /* \"#utility.yul\":6034:6188   */\ntag_35:\n    /* \"#utility.yul\":6174:6180   */\n  0x5553445400000000000000000000000000000000000000000000000000000000\n    /* \"#utility.yul\":6170:6171   */\n  0x00\n    /* \"#utility.yul\":6162:6168   */\n  dup3\n    /* \"#utility.yul\":6158:6172   */\n  add\n    /* \"#utility.yul\":6151:6181   */\n  mstore\n    /* \"#utility.yul\":6034:6188   */\n  pop\n  jump\t// out\n    /* \"#utility.yul\":6194:6348   */\ntag_40:\n    /* \"#utility.yul\":6334:6340   */\n  0x5742544300000000000000000000000000000000000000000000000000000000\n    /* \"#utility.yul\":6330:6331   */\n  0x00\n    /* \"#utility.yul\":6322:6328   */\n  dup3\n    /* \"#utility.yul\":6318:6332   */\n  add\n    /* \"#utility.yul\":6311:6341   */\n  mstore\n    /* \"#utility.yul\":6194:6348   */\n  pop\n  jump\t// out\n    /* \"#utility.yul\":6354:6507   */\ntag_45:\n    /* \"#utility.yul\":6494:6499   */\n  0x4441490000000000000000000000000000000000000000000000000000000000\n    /* \"#utility.yul\":6490:6491   */\n  0x00\n    /* \"#utility.yul\":6482:6488   */\n  dup3\n    /* \"#utility.yul\":6478:6492   */\n  add\n    /* \"#utility.yul\":6471:6500   */\n  mstore\n    /* \"#utility.yul\":6354:6507   */\n  pop\n  jump\t// out\n    /* \"#utility.yul\":6513:6667   */\ntag_50:\n    /* \"#utility.yul\":6653:6659   */\n  0x5553444300000000000000000000000000000000000000000000000000000000\n    /* \"#utility.yul\":6649:6650   */\n  0x00\n    /* \"#utility.yul\":6641:6647   */\n  dup3\n    /* \"#utility.yul\":6637:6651   */\n  add\n    /* \"#utility.yul\":6630:6660   */\n  mstore\n    /* \"#utility.yul\":6513:6667   */\n  pop\n  jump\t// out\n    /* \"#utility.yul\":6673:6829   */\ntag_55:\n    /* \"#utility.yul\":6813:6821   */\n  0x574d415449430000000000000000000000000000000000000000000000000000\n    /* \"#utility.yul\":6809:6810   */\n  0x00\n    /* \"#utility.yul\":6801:6807   */\n  dup3\n    /* \"#utility.yul\":6797:6811   */\n  add\n    /* \"#utility.yul\":6790:6822   */\n  mstore\n    /* \"#utility.yul\":6673:6829   */\n  pop\n  jump\t// out\n    /* \"contracts/polygon/microcebus_main.sol\":94:4862  contract microcebus_main {... */\ntag_18:\n  dataSize(sub_0)\n  dup1\n  dataOffset(sub_0)\n  0x00\n  codecopy\n  0x00\n  return\nstop\n\nsub_0: assembly {\n        /* \"contracts/polygon/microcebus_main.sol\":94:4862  contract microcebus_main {... */\n      mstore(0x40, 0x80)\n      jumpi(tag_1, lt(calldatasize, 0x04))\n      shr(0xe0, calldataload(0x00))\n      dup1\n      0x9bc97dee\n      gt\n      tag_10\n      jumpi\n      dup1\n      0x9bc97dee\n      eq\n      tag_6\n      jumpi\n      dup1\n      0xc3a48401\n      eq\n      tag_7\n      jumpi\n      dup1\n      0xe4386ba3\n      eq\n      tag_8\n      jumpi\n      dup1\n      0xf809a2e6\n      eq\n      tag_9\n      jumpi\n      jump(tag_2)\n    tag_10:\n      dup1\n      0x7552acd6\n      eq\n      tag_3\n      jumpi\n      dup1\n      0x7b60eb23\n      eq\n      tag_4\n      jumpi\n      dup1\n      0x7d3683ba\n      eq\n      tag_5\n      jumpi\n      jump(tag_2)\n    tag_1:\n      jumpi(tag_2, calldatasize)\n      stop\n    tag_2:\n      0x00\n      dup1\n      revert\n        /* \"contracts/polygon/microcebus_main.sol\":2564:2906  function transfer_token(string memory _token_in_identifier, address _token_receiver, uint256 _amount)... */\n    tag_3:\n      callvalue\n      dup1\n      iszero\n      tag_13\n      jumpi\n      0x00\n      dup1\n      revert\n    tag_13:\n      pop\n      tag_14\n      0x04\n      dup1\n      calldatasize\n      sub\n      dup2\n      add\n      swap1\n      tag_15\n      swap2\n      swap1\n      tag_16\n      jump\t// in\n    tag_15:\n      tag_17\n      jump\t// in\n    tag_14:\n      stop\n        /* \"contracts/polygon/microcebus_main.sol\":2181:2510  function receive_wmatic() external payable {... */\n    tag_4:\n      tag_18\n      tag_19\n      jump\t// in\n    tag_18:\n      stop\n        /* \"contracts/polygon/microcebus_main.sol\":4339:4538  function get_token_balance_sender(string memory _token_identifier) external view returns(uint256) {... */\n    tag_5:\n      callvalue\n      dup1\n      iszero\n      tag_20\n      jumpi\n      0x00\n      dup1\n      revert\n    tag_20:\n      pop\n      tag_21\n      0x04\n      dup1\n      calldatasize\n      sub\n      dup2\n      add\n      swap1\n      tag_22\n      swap2\n      swap1\n      tag_23\n      jump\t// in\n    tag_22:\n      tag_24\n      jump\t// in\n    tag_21:\n      mload(0x40)\n      tag_25\n      swap2\n      swap1\n      tag_26\n      jump\t// in\n    tag_25:\n      mload(0x40)\n      dup1\n      swap2\n      sub\n      swap1\n      return\n        /* \"contracts/polygon/microcebus_main.sol\":2952:3277  function transfer_token_to_contract(string memory _token_in_identifier, uint256 _amount)... */\n    tag_6:\n      callvalue\n      dup1\n      iszero\n      tag_27\n      jumpi\n      0x00\n      dup1\n      revert\n    tag_27:\n      pop\n      tag_28\n      0x04\n      dup1\n      calldatasize\n      sub\n      dup2\n      add\n      swap1\n      tag_29\n      swap2\n      swap1\n      tag_30\n      jump\t// in\n    tag_29:\n      tag_31\n      jump\t// in\n    tag_28:\n      stop\n        /* \"contracts/polygon/microcebus_main.sol\":4075:4291  function get_token_balance(string memory _token_identifier, address _token_owner) external view returns(uint256) {... */\n    tag_7:\n      callvalue\n      dup1\n      iszero\n      tag_32\n      jumpi\n      0x00\n      dup1\n      revert\n    tag_32:\n      pop\n      tag_33\n      0x04\n      dup1\n      calldatasize\n      sub\n      dup2\n      add\n      swap1\n      tag_34\n      swap2\n      swap1\n      tag_35\n      jump\t// in\n    tag_34:\n      tag_36\n      jump\t// in\n    tag_33:\n      mload(0x40)\n      tag_37\n      swap2\n      swap1\n      tag_26\n      jump\t// in\n    tag_37:\n      mload(0x40)\n      dup1\n      swap2\n      sub\n      swap1\n      return\n        /* \"contracts/polygon/microcebus_main.sol\":4588:4792  function get_token_balance_contract(string memory _token_identifier) external view returns(uint256) {... */\n    tag_8:\n      callvalue\n      dup1\n      iszero\n      tag_38\n      jumpi\n      0x00\n      dup1\n      revert\n    tag_38:\n      pop\n      tag_39\n      0x04\n      dup1\n      calldatasize\n      sub\n      dup2\n      add\n      swap1\n      tag_40\n      swap2\n      swap1\n      tag_23\n      jump\t// in\n    tag_40:\n      tag_41\n      jump\t// in\n    tag_39:\n      mload(0x40)\n      tag_42\n      swap2\n      swap1\n      tag_26\n      jump\t// in\n    tag_42:\n      mload(0x40)\n      dup1\n      swap2\n      sub\n      swap1\n      return\n        /* \"contracts/polygon/microcebus_main.sol\":3318:4036  function swap_exact_tokens_for_tokens(uint256 _amount_in, uint _amount_out_min, string memory _token_in_identifier,... */\n    tag_9:\n      callvalue\n      dup1\n      iszero\n      tag_43\n      jumpi\n      0x00\n      dup1\n      revert\n    tag_43:\n      pop\n      tag_44\n      0x04\n      dup1\n      calldatasize\n      sub\n      dup2\n      add\n      swap1\n      tag_45\n      swap2\n      swap1\n      tag_46\n      jump\t// in\n    tag_45:\n      tag_47\n      jump\t// in\n    tag_44:\n      stop\n        /* \"contracts/polygon/microcebus_main.sol\":2564:2906  function transfer_token(string memory _token_in_identifier, address _token_receiver, uint256 _amount)... */\n    tag_17:\n        /* \"contracts/polygon/microcebus_main.sol\":2693:2708  token_contracts */\n      0x00\n        /* \"contracts/polygon/microcebus_main.sol\":2709:2729  _token_in_identifier */\n      dup4\n        /* \"contracts/polygon/microcebus_main.sol\":2693:2730  token_contracts[_token_in_identifier] */\n      mload(0x40)\n      tag_48\n      swap2\n      swap1\n      tag_49\n      jump\t// in\n    tag_48:\n      swap1\n      dup2\n      mstore\n      0x20\n      add\n      mload(0x40)\n      dup1\n      swap2\n      sub\n      swap1\n      keccak256\n        /* \"contracts/polygon/microcebus_main.sol\":2693:2734  token_contracts[_token_in_identifier].adr */\n      0x00\n      add\n      0x00\n      swap1\n      sload\n      swap1\n      0x0100\n      exp\n      swap1\n      div\n      0xffffffffffffffffffffffffffffffffffffffff\n      and\n        /* \"contracts/polygon/microcebus_main.sol\":2736:2746  msg.sender */\n      caller\n        /* \"contracts/polygon/microcebus_main.sol\":2748:2763  _token_receiver */\n      dup4\n        /* \"contracts/polygon/microcebus_main.sol\":2765:2772  _amount */\n      dup4\n        /* \"contracts/polygon/microcebus_main.sol\":2007:2014  _amount */\n      dup1\n        /* \"contracts/polygon/microcebus_main.sol\":1946:1960  _token_address */\n      dup5\n        /* \"contracts/polygon/microcebus_main.sol\":1939:1971  iERC20(_token_address).allowance */\n      0xffffffffffffffffffffffffffffffffffffffff\n      and\n      0xdd62ed3e\n        /* \"contracts/polygon/microcebus_main.sol\":1972:1985  _token_sender */\n      dup6\n        /* \"contracts/polygon/microcebus_main.sol\":1987:2002  _token_receiver */\n      dup6\n        /* \"contracts/polygon/microcebus_main.sol\":1939:2003  iERC20(_token_address).allowance(_token_sender, _token_receiver) */\n      mload(0x40)\n      dup4\n      0xffffffff\n      and\n      0xe0\n      shl\n      dup2\n      mstore\n      0x04\n      add\n      tag_51\n      swap3\n      swap2\n      swap1\n      tag_52\n      jump\t// in\n    tag_51:\n      0x20\n      mload(0x40)\n      dup1\n      dup4\n      sub\n      dup2\n      dup7\n      dup1\n      extcodesize\n      iszero\n      dup1\n      iszero\n      tag_53\n      jumpi\n      0x00\n      dup1\n      revert\n    tag_53:\n      pop\n      gas\n      staticcall\n      iszero\n      dup1\n      iszero\n      tag_55\n      jumpi\n      returndatasize\n      0x00\n      dup1\n      returndatacopy\n      revert(0x00, returndatasize)\n    tag_55:\n      pop\n      pop\n      pop\n      pop\n      mload(0x40)\n      returndatasize\n      not(0x1f)\n      0x1f\n      dup3\n      add\n      and\n      dup3\n      add\n      dup1\n      0x40\n      mstore\n      pop\n      dup2\n      add\n      swap1\n      tag_56\n      swap2\n      swap1\n      tag_57\n      jump\t// in\n    tag_56:\n        /* \"contracts/polygon/microcebus_main.sol\":1939:2014  iERC20(_token_address).allowance(_token_sender, _token_receiver) >= _amount */\n      lt\n      iszero\n        /* \"contracts/polygon/microcebus_main.sol\":1931:2083  require(iERC20(_token_address).allowance(_token_sender, _token_receiver) >= _amount,... */\n      tag_58\n      jumpi\n      mload(0x40)\n      0x08c379a000000000000000000000000000000000000000000000000000000000\n      dup2\n      mstore\n      0x04\n      add\n      tag_59\n      swap1\n      tag_60\n      jump\t// in\n    tag_59:\n      mload(0x40)\n      dup1\n      swap2\n      sub\n      swap1\n      revert\n    tag_58:\n        /* \"contracts/polygon/microcebus_main.sol\":2802:2817  token_contracts */\n      0x00\n        /* \"contracts/polygon/microcebus_main.sol\":2818:2838  _token_in_identifier */\n      dup8\n        /* \"contracts/polygon/microcebus_main.sol\":2802:2839  token_contracts[_token_in_identifier] */\n      mload(0x40)\n      tag_62\n      swap2\n      swap1\n      tag_49\n      jump\t// in\n    tag_62:\n      swap1\n      dup2\n      mstore\n      0x20\n      add\n      mload(0x40)\n      dup1\n      swap2\n      sub\n      swap1\n      keccak256\n        /* \"contracts/polygon/microcebus_main.sol\":2802:2843  token_contracts[_token_in_identifier].adr */\n      0x00\n      add\n      0x00\n      swap1\n      sload\n      swap1\n      0x0100\n      exp\n      swap1\n      div\n      0xffffffffffffffffffffffffffffffffffffffff\n      and\n        /* \"contracts/polygon/microcebus_main.sol\":2795:2857  iERC20(token_contracts[_token_in_identifier].adr).transferFrom */\n      0xffffffffffffffffffffffffffffffffffffffff\n      and\n      0x23b872dd\n        /* \"contracts/polygon/microcebus_main.sol\":2858:2868  msg.sender */\n      caller\n        /* \"contracts/polygon/microcebus_main.sol\":2870:2885  _token_receiver */\n      dup9\n        /* \"contracts/polygon/microcebus_main.sol\":2887:2894  _amount */\n      dup9\n        /* \"contracts/polygon/microcebus_main.sol\":2795:2895  iERC20(token_contracts[_token_in_identifier].adr).transferFrom(msg.sender, _token_receiver, _amount) */\n      mload(0x40)\n      dup5\n      0xffffffff\n      and\n      0xe0\n      shl\n      dup2\n      mstore\n      0x04\n      add\n      tag_63\n      swap4\n      swap3\n      swap2\n      swap1\n      tag_64\n      jump\t// in\n    tag_63:\n      0x20\n      mload(0x40)\n      dup1\n      dup4\n      sub\n      dup2\n      0x00\n      dup8\n      dup1\n      extcodesize\n      iszero\n      dup1\n      iszero\n      tag_65\n      jumpi\n      0x00\n      dup1\n      revert\n    tag_65:\n      pop\n      gas\n      call\n      iszero\n      dup1\n      iszero\n      tag_67\n      jumpi\n      returndatasize\n      0x00\n      dup1\n      returndatacopy\n      revert(0x00, returndatasize)\n    tag_67:\n      pop\n      pop\n      pop\n      pop\n      mload(0x40)\n      returndatasize\n      not(0x1f)\n      0x1f\n      dup3\n      add\n      and\n      dup3\n      add\n      dup1\n      0x40\n      mstore\n      pop\n      dup2\n      add\n      swap1\n      tag_68\n      swap2\n      swap1\n      tag_69\n      jump\t// in\n    tag_68:\n      pop\n        /* \"contracts/polygon/microcebus_main.sol\":2564:2906  function transfer_token(string memory _token_in_identifier, address _token_receiver, uint256 _amount)... */\n      pop\n      pop\n      pop\n      pop\n      pop\n      pop\n      pop\n      jump\t// out\n        /* \"contracts/polygon/microcebus_main.sol\":2181:2510  function receive_wmatic() external payable {... */\n    tag_19:\n        /* \"contracts/polygon/microcebus_main.sol\":2239:2251  bool success */\n      0x00\n        /* \"contracts/polygon/microcebus_main.sol\":2253:2270  bytes memory data */\n      dup1\n        /* \"contracts/polygon/microcebus_main.sol\":2274:2289  token_contracts */\n      0x00\n        /* \"contracts/polygon/microcebus_main.sol\":2274:2299  token_contracts[\"WMATIC\"] */\n      mload(0x40)\n      tag_71\n      swap1\n      tag_72\n      jump\t// in\n    tag_71:\n      swap1\n      dup2\n      mstore\n      0x20\n      add\n      mload(0x40)\n      dup1\n      swap2\n      sub\n      swap1\n      keccak256\n        /* \"contracts/polygon/microcebus_main.sol\":2274:2303  token_contracts[\"WMATIC\"].adr */\n      0x00\n      add\n      0x00\n      swap1\n      sload\n      swap1\n      0x0100\n      exp\n      swap1\n      div\n      0xffffffffffffffffffffffffffffffffffffffff\n      and\n        /* \"contracts/polygon/microcebus_main.sol\":2274:2308  token_contracts[\"WMATIC\"].adr.call */\n      0xffffffffffffffffffffffffffffffffffffffff\n      and\n        /* \"contracts/polygon/microcebus_main.sol\":2316:2325  msg.value */\n      callvalue\n        /* \"contracts/polygon/microcebus_main.sol\":2327:2354  abi.encodeWithSignature(\"\") */\n      add(0x24, mload(0x40))\n      mload(0x40)\n      0x20\n      dup2\n      dup4\n      sub\n      sub\n      dup2\n      mstore\n      swap1\n      0x40\n      mstore\n      and(not(0xffffffffffffffffffffffffffffffffffffffffffffffffffffffff), 0xc5d2460100000000000000000000000000000000000000000000000000000000)\n      0x20\n      dup3\n      add\n      dup1\n      mload\n      0xffffffffffffffffffffffffffffffffffffffffffffffffffffffff\n      dup4\n      dup2\n      dup4\n      and\n      or\n      dup4\n      mstore\n      pop\n      pop\n      pop\n      pop\n        /* \"contracts/polygon/microcebus_main.sol\":2274:2355  token_contracts[\"WMATIC\"].adr.call{value: msg.value}(abi.encodeWithSignature(\"\")) */\n      mload(0x40)\n      tag_73\n      swap2\n      swap1\n      tag_74\n      jump\t// in\n    tag_73:\n      0x00\n      mload(0x40)\n      dup1\n      dup4\n      sub\n      dup2\n      dup6\n      dup8\n      gas\n      call\n      swap3\n      pop\n      pop\n      pop\n      returndatasize\n      dup1\n      0x00\n      dup2\n      eq\n      tag_77\n      jumpi\n      mload(0x40)\n      swap2\n      pop\n      and(add(returndatasize, 0x3f), not(0x1f))\n      dup3\n      add\n      0x40\n      mstore\n      returndatasize\n      dup3\n      mstore\n      returndatasize\n      0x00\n      0x20\n      dup5\n      add\n      returndatacopy\n      jump(tag_76)\n    tag_77:\n      0x60\n      swap2\n      pop\n    tag_76:\n      pop\n        /* \"contracts/polygon/microcebus_main.sol\":2238:2355  (bool success, bytes memory data) = token_contracts[\"WMATIC\"].adr.call{value: msg.value}(abi.encodeWithSignature(\"\")) */\n      swap2\n      pop\n      swap2\n      pop\n        /* \"contracts/polygon/microcebus_main.sol\":2376:2391  token_contracts */\n      0x00\n        /* \"contracts/polygon/microcebus_main.sol\":2376:2401  token_contracts[\"WMATIC\"] */\n      mload(0x40)\n      tag_78\n      swap1\n      tag_72\n      jump\t// in\n    tag_78:\n      swap1\n      dup2\n      mstore\n      0x20\n      add\n      mload(0x40)\n      dup1\n      swap2\n      sub\n      swap1\n      keccak256\n        /* \"contracts/polygon/microcebus_main.sol\":2376:2405  token_contracts[\"WMATIC\"].adr */\n      0x00\n      add\n      0x00\n      swap1\n      sload\n      swap1\n      0x0100\n      exp\n      swap1\n      div\n      0xffffffffffffffffffffffffffffffffffffffff\n      and\n        /* \"contracts/polygon/microcebus_main.sol\":2369:2419  iERC20(token_contracts[\"WMATIC\"].adr).transferFrom */\n      0xffffffffffffffffffffffffffffffffffffffff\n      and\n      0x23b872dd\n        /* \"contracts/polygon/microcebus_main.sol\":2428:2432  this */\n      address\n        /* \"contracts/polygon/microcebus_main.sol\":2435:2445  msg.sender */\n      caller\n        /* \"contracts/polygon/microcebus_main.sol\":2447:2456  msg.value */\n      callvalue\n        /* \"contracts/polygon/microcebus_main.sol\":2369:2457  iERC20(token_contracts[\"WMATIC\"].adr).transferFrom(address(this), msg.sender, msg.value) */\n      mload(0x40)\n      dup5\n      0xffffffff\n      and\n      0xe0\n      shl\n      dup2\n      mstore\n      0x04\n      add\n      tag_79\n      swap4\n      swap3\n      swap2\n      swap1\n      tag_64\n      jump\t// in\n    tag_79:\n      0x20\n      mload(0x40)\n      dup1\n      dup4\n      sub\n      dup2\n      0x00\n      dup8\n      dup1\n      extcodesize\n      iszero\n      dup1\n      iszero\n      tag_80\n      jumpi\n      0x00\n      dup1\n      revert\n    tag_80:\n      pop\n      gas\n      call\n      iszero\n      dup1\n      iszero\n      tag_82\n      jumpi\n      returndatasize\n      0x00\n      dup1\n      returndatacopy\n      revert(0x00, returndatasize)\n    tag_82:\n      pop\n      pop\n      pop\n      pop\n      mload(0x40)\n      returndatasize\n      not(0x1f)\n      0x1f\n      dup3\n      add\n      and\n      dup3\n      add\n      dup1\n      0x40\n      mstore\n      pop\n      dup2\n      add\n      swap1\n      tag_83\n      swap2\n      swap1\n      tag_69\n      jump\t// in\n    tag_83:\n      pop\n        /* \"contracts/polygon/microcebus_main.sol\":2476:2499  Response(success, data) */\n      0x13848c3e38f8886f3f5d2ad9dff80d8092c2bbb8efd5b887a99c2c6cfc09ac2a\n        /* \"contracts/polygon/microcebus_main.sol\":2485:2492  success */\n      dup3\n        /* \"contracts/polygon/microcebus_main.sol\":2494:2498  data */\n      dup3\n        /* \"contracts/polygon/microcebus_main.sol\":2476:2499  Response(success, data) */\n      mload(0x40)\n      tag_84\n      swap3\n      swap2\n      swap1\n      tag_85\n      jump\t// in\n    tag_84:\n      mload(0x40)\n      dup1\n      swap2\n      sub\n      swap1\n      log1\n        /* \"contracts/polygon/microcebus_main.sol\":2224:2510  {... */\n      pop\n      pop\n        /* \"contracts/polygon/microcebus_main.sol\":2181:2510  function receive_wmatic() external payable {... */\n      jump\t// out\n        /* \"contracts/polygon/microcebus_main.sol\":4339:4538  function get_token_balance_sender(string memory _token_identifier) external view returns(uint256) {... */\n    tag_24:\n        /* \"contracts/polygon/microcebus_main.sol\":4428:4435  uint256 */\n      0x00\n        /* \"contracts/polygon/microcebus_main.sol\":4465:4480  token_contracts */\n      dup1\n        /* \"contracts/polygon/microcebus_main.sol\":4481:4498  _token_identifier */\n      dup3\n        /* \"contracts/polygon/microcebus_main.sol\":4465:4499  token_contracts[_token_identifier] */\n      mload(0x40)\n      tag_87\n      swap2\n      swap1\n      tag_49\n      jump\t// in\n    tag_87:\n      swap1\n      dup2\n      mstore\n      0x20\n      add\n      mload(0x40)\n      dup1\n      swap2\n      sub\n      swap1\n      keccak256\n        /* \"contracts/polygon/microcebus_main.sol\":4465:4503  token_contracts[_token_identifier].adr */\n      0x00\n      add\n      0x00\n      swap1\n      sload\n      swap1\n      0x0100\n      exp\n      swap1\n      div\n      0xffffffffffffffffffffffffffffffffffffffff\n      and\n        /* \"contracts/polygon/microcebus_main.sol\":4458:4514  iERC20(token_contracts[_token_identifier].adr).balanceOf */\n      0xffffffffffffffffffffffffffffffffffffffff\n      and\n      0x70a08231\n        /* \"contracts/polygon/microcebus_main.sol\":4515:4525  msg.sender */\n      caller\n        /* \"contracts/polygon/microcebus_main.sol\":4458:4526  iERC20(token_contracts[_token_identifier].adr).balanceOf(msg.sender) */\n      mload(0x40)\n      dup3\n      0xffffffff\n      and\n      0xe0\n      shl\n      dup2\n      mstore\n      0x04\n      add\n      tag_88\n      swap2\n      swap1\n      tag_89\n      jump\t// in\n    tag_88:\n      0x20\n      mload(0x40)\n      dup1\n      dup4\n      sub\n      dup2\n      dup7\n      dup1\n      extcodesize\n      iszero\n      dup1\n      iszero\n      tag_90\n      jumpi\n      0x00\n      dup1\n      revert\n    tag_90:\n      pop\n      gas\n      staticcall\n      iszero\n      dup1\n      iszero\n      tag_92\n      jumpi\n      returndatasize\n      0x00\n      dup1\n      returndatacopy\n      revert(0x00, returndatasize)\n    tag_92:\n      pop\n      pop\n      pop\n      pop\n      mload(0x40)\n      returndatasize\n      not(0x1f)\n      0x1f\n      dup3\n      add\n      and\n      dup3\n      add\n      dup1\n      0x40\n      mstore\n      pop\n      dup2\n      add\n      swap1\n      tag_93\n      swap2\n      swap1\n      tag_57\n      jump\t// in\n    tag_93:\n        /* \"contracts/polygon/microcebus_main.sol\":4451:4527  return(iERC20(token_contracts[_token_identifier].adr).balanceOf(msg.sender)) */\n      swap1\n      pop\n        /* \"contracts/polygon/microcebus_main.sol\":4339:4538  function get_token_balance_sender(string memory _token_identifier) external view returns(uint256) {... */\n      swap2\n      swap1\n      pop\n      jump\t// out\n        /* \"contracts/polygon/microcebus_main.sol\":2952:3277  function transfer_token_to_contract(string memory _token_in_identifier, uint256 _amount)... */\n    tag_31:\n        /* \"contracts/polygon/microcebus_main.sol\":3068:3083  token_contracts */\n      0x00\n        /* \"contracts/polygon/microcebus_main.sol\":3084:3104  _token_in_identifier */\n      dup3\n        /* \"contracts/polygon/microcebus_main.sol\":3068:3105  token_contracts[_token_in_identifier] */\n      mload(0x40)\n      tag_94\n      swap2\n      swap1\n      tag_49\n      jump\t// in\n    tag_94:\n      swap1\n      dup2\n      mstore\n      0x20\n      add\n      mload(0x40)\n      dup1\n      swap2\n      sub\n      swap1\n      keccak256\n        /* \"contracts/polygon/microcebus_main.sol\":3068:3109  token_contracts[_token_in_identifier].adr */\n      0x00\n      add\n      0x00\n      swap1\n      sload\n      swap1\n      0x0100\n      exp\n      swap1\n      div\n      0xffffffffffffffffffffffffffffffffffffffff\n      and\n        /* \"contracts/polygon/microcebus_main.sol\":3111:3121  msg.sender */\n      caller\n        /* \"contracts/polygon/microcebus_main.sol\":3131:3135  this */\n      address\n        /* \"contracts/polygon/microcebus_main.sol\":3138:3145  _amount */\n      dup4\n        /* \"contracts/polygon/microcebus_main.sol\":2007:2014  _amount */\n      dup1\n        /* \"contracts/polygon/microcebus_main.sol\":1946:1960  _token_address */\n      dup5\n        /* \"contracts/polygon/microcebus_main.sol\":1939:1971  iERC20(_token_address).allowance */\n      0xffffffffffffffffffffffffffffffffffffffff\n      and\n      0xdd62ed3e\n        /* \"contracts/polygon/microcebus_main.sol\":1972:1985  _token_sender */\n      dup6\n        /* \"contracts/polygon/microcebus_main.sol\":1987:2002  _token_receiver */\n      dup6\n        /* \"contracts/polygon/microcebus_main.sol\":1939:2003  iERC20(_token_address).allowance(_token_sender, _token_receiver) */\n      mload(0x40)\n      dup4\n      0xffffffff\n      and\n      0xe0\n      shl\n      dup2\n      mstore\n      0x04\n      add\n      tag_96\n      swap3\n      swap2\n      swap1\n      tag_52\n      jump\t// in\n    tag_96:\n      0x20\n      mload(0x40)\n      dup1\n      dup4\n      sub\n      dup2\n      dup7\n      dup1\n      extcodesize\n      iszero\n      dup1\n      iszero\n      tag_97\n      jumpi\n      0x00\n      dup1\n      revert\n    tag_97:\n      pop\n      gas\n      staticcall\n      iszero\n      dup1\n      iszero\n      tag_99\n      jumpi\n      returndatasize\n      0x00\n      dup1\n      returndatacopy\n      revert(0x00, returndatasize)\n    tag_99:\n      pop\n      pop\n      pop\n      pop\n      mload(0x40)\n      returndatasize\n      not(0x1f)\n      0x1f\n      dup3\n      add\n      and\n      dup3\n      add\n      dup1\n      0x40\n      mstore\n      pop\n      dup2\n      add\n      swap1\n      tag_100\n      swap2\n      swap1\n      tag_57\n      jump\t// in\n    tag_100:\n        /* \"contracts/polygon/microcebus_main.sol\":1939:2014  iERC20(_token_address).allowance(_token_sender, _token_receiver) >= _amount */\n      lt\n      iszero\n        /* \"contracts/polygon/microcebus_main.sol\":1931:2083  require(iERC20(_token_address).allowance(_token_sender, _token_receiver) >= _amount,... */\n      tag_101\n      jumpi\n      mload(0x40)\n      0x08c379a000000000000000000000000000000000000000000000000000000000\n      dup2\n      mstore\n      0x04\n      add\n      tag_102\n      swap1\n      tag_60\n      jump\t// in\n    tag_102:\n      mload(0x40)\n      dup1\n      swap2\n      sub\n      swap1\n      revert\n    tag_101:\n        /* \"contracts/polygon/microcebus_main.sol\":3175:3190  token_contracts */\n      0x00\n        /* \"contracts/polygon/microcebus_main.sol\":3191:3211  _token_in_identifier */\n      dup7\n        /* \"contracts/polygon/microcebus_main.sol\":3175:3212  token_contracts[_token_in_identifier] */\n      mload(0x40)\n      tag_104\n      swap2\n      swap1\n      tag_49\n      jump\t// in\n    tag_104:\n      swap1\n      dup2\n      mstore\n      0x20\n      add\n      mload(0x40)\n      dup1\n      swap2\n      sub\n      swap1\n      keccak256\n        /* \"contracts/polygon/microcebus_main.sol\":3175:3216  token_contracts[_token_in_identifier].adr */\n      0x00\n      add\n      0x00\n      swap1\n      sload\n      swap1\n      0x0100\n      exp\n      swap1\n      div\n      0xffffffffffffffffffffffffffffffffffffffff\n      and\n        /* \"contracts/polygon/microcebus_main.sol\":3168:3230  iERC20(token_contracts[_token_in_identifier].adr).transferFrom */\n      0xffffffffffffffffffffffffffffffffffffffff\n      and\n      0x23b872dd\n        /* \"contracts/polygon/microcebus_main.sol\":3231:3241  msg.sender */\n      caller\n        /* \"contracts/polygon/microcebus_main.sol\":3251:3255  this */\n      address\n        /* \"contracts/polygon/microcebus_main.sol\":3258:3265  _amount */\n      dup9\n        /* \"contracts/polygon/microcebus_main.sol\":3168:3266  iERC20(token_contracts[_token_in_identifier].adr).transferFrom(msg.sender, address(this), _amount) */\n      mload(0x40)\n      dup5\n      0xffffffff\n      and\n      0xe0\n      shl\n      dup2\n      mstore\n      0x04\n      add\n      tag_105\n      swap4\n      swap3\n      swap2\n      swap1\n      tag_64\n      jump\t// in\n    tag_105:\n      0x20\n      mload(0x40)\n      dup1\n      dup4\n      sub\n      dup2\n      0x00\n      dup8\n      dup1\n      extcodesize\n      iszero\n      dup1\n      iszero\n      tag_106\n      jumpi\n      0x00\n      dup1\n      revert\n    tag_106:\n      pop\n      gas\n      call\n      iszero\n      dup1\n      iszero\n      tag_108\n      jumpi\n      returndatasize\n      0x00\n      dup1\n      returndatacopy\n      revert(0x00, returndatasize)\n    tag_108:\n      pop\n      pop\n      pop\n      pop\n      mload(0x40)\n      returndatasize\n      not(0x1f)\n      0x1f\n      dup3\n      add\n      and\n      dup3\n      add\n      dup1\n      0x40\n      mstore\n      pop\n      dup2\n      add\n      swap1\n      tag_109\n      swap2\n      swap1\n      tag_69\n      jump\t// in\n    tag_109:\n      pop\n        /* \"contracts/polygon/microcebus_main.sol\":2952:3277  function transfer_token_to_contract(string memory _token_in_identifier, uint256 _amount)... */\n      pop\n      pop\n      pop\n      pop\n      pop\n      pop\n      jump\t// out\n        /* \"contracts/polygon/microcebus_main.sol\":4075:4291  function get_token_balance(string memory _token_identifier, address _token_owner) external view returns(uint256) {... */\n    tag_36:\n        /* \"contracts/polygon/microcebus_main.sol\":4179:4186  uint256 */\n      0x00\n        /* \"contracts/polygon/microcebus_main.sol\":4216:4231  token_contracts */\n      dup1\n        /* \"contracts/polygon/microcebus_main.sol\":4232:4249  _token_identifier */\n      dup4\n        /* \"contracts/polygon/microcebus_main.sol\":4216:4250  token_contracts[_token_identifier] */\n      mload(0x40)\n      tag_111\n      swap2\n      swap1\n      tag_49\n      jump\t// in\n    tag_111:\n      swap1\n      dup2\n      mstore\n      0x20\n      add\n      mload(0x40)\n      dup1\n      swap2\n      sub\n      swap1\n      keccak256\n        /* \"contracts/polygon/microcebus_main.sol\":4216:4254  token_contracts[_token_identifier].adr */\n      0x00\n      add\n      0x00\n      swap1\n      sload\n      swap1\n      0x0100\n      exp\n      swap1\n      div\n      0xffffffffffffffffffffffffffffffffffffffff\n      and\n        /* \"contracts/polygon/microcebus_main.sol\":4209:4265  iERC20(token_contracts[_token_identifier].adr).balanceOf */\n      0xffffffffffffffffffffffffffffffffffffffff\n      and\n      0x70a08231\n        /* \"contracts/polygon/microcebus_main.sol\":4266:4278  _token_owner */\n      dup4\n        /* \"contracts/polygon/microcebus_main.sol\":4209:4279  iERC20(token_contracts[_token_identifier].adr).balanceOf(_token_owner) */\n      mload(0x40)\n      dup3\n      0xffffffff\n      and\n      0xe0\n      shl\n      dup2\n      mstore\n      0x04\n      add\n      tag_112\n      swap2\n      swap1\n      tag_89\n      jump\t// in\n    tag_112:\n      0x20\n      mload(0x40)\n      dup1\n      dup4\n      sub\n      dup2\n      dup7\n      dup1\n      extcodesize\n      iszero\n      dup1\n      iszero\n      tag_113\n      jumpi\n      0x00\n      dup1\n      revert\n    tag_113:\n      pop\n      gas\n      staticcall\n      iszero\n      dup1\n      iszero\n      tag_115\n      jumpi\n      returndatasize\n      0x00\n      dup1\n      returndatacopy\n      revert(0x00, returndatasize)\n    tag_115:\n      pop\n      pop\n      pop\n      pop\n      mload(0x40)\n      returndatasize\n      not(0x1f)\n      0x1f\n      dup3\n      add\n      and\n      dup3\n      add\n      dup1\n      0x40\n      mstore\n      pop\n      dup2\n      add\n      swap1\n      tag_116\n      swap2\n      swap1\n      tag_57\n      jump\t// in\n    tag_116:\n        /* \"contracts/polygon/microcebus_main.sol\":4202:4280  return(iERC20(token_contracts[_token_identifier].adr).balanceOf(_token_owner)) */\n      swap1\n      pop\n        /* \"contracts/polygon/microcebus_main.sol\":4075:4291  function get_token_balance(string memory _token_identifier, address _token_owner) external view returns(uint256) {... */\n      swap3\n      swap2\n      pop\n      pop\n      jump\t// out\n        /* \"contracts/polygon/microcebus_main.sol\":4588:4792  function get_token_balance_contract(string memory _token_identifier) external view returns(uint256) {... */\n    tag_41:\n        /* \"contracts/polygon/microcebus_main.sol\":4679:4686  uint256 */\n      0x00\n        /* \"contracts/polygon/microcebus_main.sol\":4716:4731  token_contracts */\n      dup1\n        /* \"contracts/polygon/microcebus_main.sol\":4732:4749  _token_identifier */\n      dup3\n        /* \"contracts/polygon/microcebus_main.sol\":4716:4750  token_contracts[_token_identifier] */\n      mload(0x40)\n      tag_118\n      swap2\n      swap1\n      tag_49\n      jump\t// in\n    tag_118:\n      swap1\n      dup2\n      mstore\n      0x20\n      add\n      mload(0x40)\n      dup1\n      swap2\n      sub\n      swap1\n      keccak256\n        /* \"contracts/polygon/microcebus_main.sol\":4716:4754  token_contracts[_token_identifier].adr */\n      0x00\n      add\n      0x00\n      swap1\n      sload\n      swap1\n      0x0100\n      exp\n      swap1\n      div\n      0xffffffffffffffffffffffffffffffffffffffff\n      and\n        /* \"contracts/polygon/microcebus_main.sol\":4709:4765  iERC20(token_contracts[_token_identifier].adr).balanceOf */\n      0xffffffffffffffffffffffffffffffffffffffff\n      and\n      0x70a08231\n        /* \"contracts/polygon/microcebus_main.sol\":4774:4778  this */\n      address\n        /* \"contracts/polygon/microcebus_main.sol\":4709:4780  iERC20(token_contracts[_token_identifier].adr).balanceOf(address(this)) */\n      mload(0x40)\n      dup3\n      0xffffffff\n      and\n      0xe0\n      shl\n      dup2\n      mstore\n      0x04\n      add\n      tag_119\n      swap2\n      swap1\n      tag_89\n      jump\t// in\n    tag_119:\n      0x20\n      mload(0x40)\n      dup1\n      dup4\n      sub\n      dup2\n      dup7\n      dup1\n      extcodesize\n      iszero\n      dup1\n      iszero\n      tag_120\n      jumpi\n      0x00\n      dup1\n      revert\n    tag_120:\n      pop\n      gas\n      staticcall\n      iszero\n      dup1\n      iszero\n      tag_122\n      jumpi\n      returndatasize\n      0x00\n      dup1\n      returndatacopy\n      revert(0x00, returndatasize)\n    tag_122:\n      pop\n      pop\n      pop\n      pop\n      mload(0x40)\n      returndatasize\n      not(0x1f)\n      0x1f\n      dup3\n      add\n      and\n      dup3\n      add\n      dup1\n      0x40\n      mstore\n      pop\n      dup2\n      add\n      swap1\n      tag_123\n      swap2\n      swap1\n      tag_57\n      jump\t// in\n    tag_123:\n        /* \"contracts/polygon/microcebus_main.sol\":4702:4781  return(iERC20(token_contracts[_token_identifier].adr).balanceOf(address(this))) */\n      swap1\n      pop\n        /* \"contracts/polygon/microcebus_main.sol\":4588:4792  function get_token_balance_contract(string memory _token_identifier) external view returns(uint256) {... */\n      swap2\n      swap1\n      pop\n      jump\t// out\n        /* \"contracts/polygon/microcebus_main.sol\":3318:4036  function swap_exact_tokens_for_tokens(uint256 _amount_in, uint _amount_out_min, string memory _token_in_identifier,... */\n    tag_47:\n        /* \"contracts/polygon/microcebus_main.sol\":3513:3573  transfer_token_to_contract(_token_in_identifier, _amount_in) */\n      tag_125\n        /* \"contracts/polygon/microcebus_main.sol\":3540:3560  _token_in_identifier */\n      dup4\n        /* \"contracts/polygon/microcebus_main.sol\":3562:3572  _amount_in */\n      dup7\n        /* \"contracts/polygon/microcebus_main.sol\":3513:3539  transfer_token_to_contract */\n      tag_31\n        /* \"contracts/polygon/microcebus_main.sol\":3513:3573  transfer_token_to_contract(_token_in_identifier, _amount_in) */\n      jump\t// in\n    tag_125:\n        /* \"contracts/polygon/microcebus_main.sol\":3583:3604  address[] memory path */\n      0x00\n        /* \"contracts/polygon/microcebus_main.sol\":3621:3622  2 */\n      0x02\n        /* \"contracts/polygon/microcebus_main.sol\":3607:3623  new address[](2) */\n      0xffffffffffffffff\n      dup2\n      gt\n      iszero\n      tag_126\n      jumpi\n      tag_127\n      tag_128\n      jump\t// in\n    tag_127:\n    tag_126:\n      mload(0x40)\n      swap1\n      dup1\n      dup3\n      mstore\n      dup1\n      0x20\n      mul\n      0x20\n      add\n      dup3\n      add\n      0x40\n      mstore\n      dup1\n      iszero\n      tag_129\n      jumpi\n      dup2\n      0x20\n      add\n      0x20\n      dup3\n      mul\n      dup1\n      calldatasize\n      dup4\n      calldatacopy\n      dup1\n      dup3\n      add\n      swap2\n      pop\n      pop\n      swap1\n      pop\n    tag_129:\n      pop\n        /* \"contracts/polygon/microcebus_main.sol\":3583:3623  address[] memory path = new address[](2) */\n      swap1\n      pop\n        /* \"contracts/polygon/microcebus_main.sol\":3643:3658  token_contracts */\n      0x00\n        /* \"contracts/polygon/microcebus_main.sol\":3659:3679  _token_in_identifier */\n      dup5\n        /* \"contracts/polygon/microcebus_main.sol\":3643:3680  token_contracts[_token_in_identifier] */\n      mload(0x40)\n      tag_130\n      swap2\n      swap1\n      tag_49\n      jump\t// in\n    tag_130:\n      swap1\n      dup2\n      mstore\n      0x20\n      add\n      mload(0x40)\n      dup1\n      swap2\n      sub\n      swap1\n      keccak256\n        /* \"contracts/polygon/microcebus_main.sol\":3643:3684  token_contracts[_token_in_identifier].adr */\n      0x00\n      add\n      0x00\n      swap1\n      sload\n      swap1\n      0x0100\n      exp\n      swap1\n      div\n      0xffffffffffffffffffffffffffffffffffffffff\n      and\n        /* \"contracts/polygon/microcebus_main.sol\":3633:3637  path */\n      dup2\n        /* \"contracts/polygon/microcebus_main.sol\":3638:3639  0 */\n      0x00\n        /* \"contracts/polygon/microcebus_main.sol\":3633:3640  path[0] */\n      dup2\n      mload\n      dup2\n      lt\n      tag_131\n      jumpi\n      tag_132\n      tag_133\n      jump\t// in\n    tag_132:\n    tag_131:\n      0x20\n      mul\n      0x20\n      add\n      add\n        /* \"contracts/polygon/microcebus_main.sol\":3633:3684  path[0] = token_contracts[_token_in_identifier].adr */\n      swap1\n      0xffffffffffffffffffffffffffffffffffffffff\n      and\n      swap1\n      dup2\n      0xffffffffffffffffffffffffffffffffffffffff\n      and\n      dup2\n      mstore\n      pop\n      pop\n        /* \"contracts/polygon/microcebus_main.sol\":3704:3719  token_contracts */\n      0x00\n        /* \"contracts/polygon/microcebus_main.sol\":3720:3741  _token_out_identifier */\n      dup4\n        /* \"contracts/polygon/microcebus_main.sol\":3704:3742  token_contracts[_token_out_identifier] */\n      mload(0x40)\n      tag_134\n      swap2\n      swap1\n      tag_49\n      jump\t// in\n    tag_134:\n      swap1\n      dup2\n      mstore\n      0x20\n      add\n      mload(0x40)\n      dup1\n      swap2\n      sub\n      swap1\n      keccak256\n        /* \"contracts/polygon/microcebus_main.sol\":3704:3746  token_contracts[_token_out_identifier].adr */\n      0x00\n      add\n      0x00\n      swap1\n      sload\n      swap1\n      0x0100\n      exp\n      swap1\n      div\n      0xffffffffffffffffffffffffffffffffffffffff\n      and\n        /* \"contracts/polygon/microcebus_main.sol\":3694:3698  path */\n      dup2\n        /* \"contracts/polygon/microcebus_main.sol\":3699:3700  1 */\n      0x01\n        /* \"contracts/polygon/microcebus_main.sol\":3694:3701  path[1] */\n      dup2\n      mload\n      dup2\n      lt\n      tag_135\n      jumpi\n      tag_136\n      tag_133\n      jump\t// in\n    tag_136:\n    tag_135:\n      0x20\n      mul\n      0x20\n      add\n      add\n        /* \"contracts/polygon/microcebus_main.sol\":3694:3746  path[1] = token_contracts[_token_out_identifier].adr */\n      swap1\n      0xffffffffffffffffffffffffffffffffffffffff\n      and\n      swap1\n      dup2\n      0xffffffffffffffffffffffffffffffffffffffff\n      and\n      dup2\n      mstore\n      pop\n      pop\n        /* \"contracts/polygon/microcebus_main.sol\":3763:3778  token_contracts */\n      0x00\n        /* \"contracts/polygon/microcebus_main.sol\":3779:3799  _token_in_identifier */\n      dup5\n        /* \"contracts/polygon/microcebus_main.sol\":3763:3800  token_contracts[_token_in_identifier] */\n      mload(0x40)\n      tag_137\n      swap2\n      swap1\n      tag_49\n      jump\t// in\n    tag_137:\n      swap1\n      dup2\n      mstore\n      0x20\n      add\n      mload(0x40)\n      dup1\n      swap2\n      sub\n      swap1\n      keccak256\n        /* \"contracts/polygon/microcebus_main.sol\":3763:3804  token_contracts[_token_in_identifier].adr */\n      0x00\n      add\n      0x00\n      swap1\n      sload\n      swap1\n      0x0100\n      exp\n      swap1\n      div\n      0xffffffffffffffffffffffffffffffffffffffff\n      and\n        /* \"contracts/polygon/microcebus_main.sol\":3756:3813  iERC20(token_contracts[_token_in_identifier].adr).approve */\n      0xffffffffffffffffffffffffffffffffffffffff\n      and\n      0x095ea7b3\n        /* \"contracts/polygon/microcebus_main.sol\":643:685  0xa5E0829CaCEd8fFDD4De3c43696c57F7D7A678ff */\n      0xa5e0829caced8ffdd4de3c43696c57f7d7a678ff\n        /* \"contracts/polygon/microcebus_main.sol\":3833:3843  _amount_in */\n      dup9\n        /* \"contracts/polygon/microcebus_main.sol\":3756:3844  iERC20(token_contracts[_token_in_identifier].adr).approve(UniswapV2Router02, _amount_in) */\n      mload(0x40)\n      dup4\n      0xffffffff\n      and\n      0xe0\n      shl\n      dup2\n      mstore\n      0x04\n      add\n      tag_138\n      swap3\n      swap2\n      swap1\n      tag_139\n      jump\t// in\n    tag_138:\n      0x20\n      mload(0x40)\n      dup1\n      dup4\n      sub\n      dup2\n      0x00\n      dup8\n      dup1\n      extcodesize\n      iszero\n      dup1\n      iszero\n      tag_140\n      jumpi\n      0x00\n      dup1\n      revert\n    tag_140:\n      pop\n      gas\n      call\n      iszero\n      dup1\n      iszero\n      tag_142\n      jumpi\n      returndatasize\n      0x00\n      dup1\n      returndatacopy\n      revert(0x00, returndatasize)\n    tag_142:\n      pop\n      pop\n      pop\n      pop\n      mload(0x40)\n      returndatasize\n      not(0x1f)\n      0x1f\n      dup3\n      add\n      and\n      dup3\n      add\n      dup1\n      0x40\n      mstore\n      pop\n      dup2\n      add\n      swap1\n      tag_143\n      swap2\n      swap1\n      tag_69\n      jump\t// in\n    tag_143:\n      pop\n        /* \"contracts/polygon/microcebus_main.sol\":643:685  0xa5E0829CaCEd8fFDD4De3c43696c57F7D7A678ff */\n      0xa5e0829caced8ffdd4de3c43696c57f7d7a678ff\n        /* \"contracts/polygon/microcebus_main.sol\":3859:3921  IUniswapV2Router02(UniswapV2Router02).swapExactTokensForTokens */\n      0xffffffffffffffffffffffffffffffffffffffff\n      and\n      0x38ed1739\n        /* \"contracts/polygon/microcebus_main.sol\":3933:3943  _amount_in */\n      dup8\n        /* \"contracts/polygon/microcebus_main.sol\":3955:3970  _amount_out_min */\n      dup8\n        /* \"contracts/polygon/microcebus_main.sol\":3982:3986  path */\n      dup5\n        /* \"contracts/polygon/microcebus_main.sol\":3998:4008  msg.sender */\n      caller\n        /* \"contracts/polygon/microcebus_main.sol\":4020:4028  deadline */\n      dup8\n        /* \"contracts/polygon/microcebus_main.sol\":3859:4029  IUniswapV2Router02(UniswapV2Router02).swapExactTokensForTokens(... */\n      mload(0x40)\n      dup7\n      0xffffffff\n      and\n      0xe0\n      shl\n      dup2\n      mstore\n      0x04\n      add\n      tag_144\n      swap6\n      swap5\n      swap4\n      swap3\n      swap2\n      swap1\n      tag_145\n      jump\t// in\n    tag_144:\n      0x00\n      mload(0x40)\n      dup1\n      dup4\n      sub\n      dup2\n      0x00\n      dup8\n      dup1\n      extcodesize\n      iszero\n      dup1\n      iszero\n      tag_146\n      jumpi\n      0x00\n      dup1\n      revert\n    tag_146:\n      pop\n      gas\n      call\n      iszero\n      dup1\n      iszero\n      tag_148\n      jumpi\n      returndatasize\n      0x00\n      dup1\n      returndatacopy\n      revert(0x00, returndatasize)\n    tag_148:\n      pop\n      pop\n      pop\n      pop\n      mload(0x40)\n      returndatasize\n      0x00\n      dup3\n      returndatacopy\n      returndatasize\n      not(0x1f)\n      0x1f\n      dup3\n      add\n      and\n      dup3\n      add\n      dup1\n      0x40\n      mstore\n      pop\n      dup2\n      add\n      swap1\n      tag_149\n      swap2\n      swap1\n      tag_150\n      jump\t// in\n    tag_149:\n      pop\n        /* \"contracts/polygon/microcebus_main.sol\":3503:4036  {... */\n      pop\n        /* \"contracts/polygon/microcebus_main.sol\":3318:4036  function swap_exact_tokens_for_tokens(uint256 _amount_in, uint _amount_out_min, string memory _token_in_identifier,... */\n      pop\n      pop\n      pop\n      pop\n      pop\n      jump\t// out\n        /* \"#utility.yul\":24:768   */\n    tag_152:\n        /* \"#utility.yul\":131:136   */\n      0x00\n        /* \"#utility.yul\":156:237   */\n      tag_154\n        /* \"#utility.yul\":172:236   */\n      tag_155\n        /* \"#utility.yul\":229:235   */\n      dup5\n        /* \"#utility.yul\":172:236   */\n      tag_156\n      jump\t// in\n    tag_155:\n        /* \"#utility.yul\":156:237   */\n      tag_157\n      jump\t// in\n    tag_154:\n        /* \"#utility.yul\":147:237   */\n      swap1\n      pop\n        /* \"#utility.yul\":257:262   */\n      dup1\n        /* \"#utility.yul\":286:292   */\n      dup4\n        /* \"#utility.yul\":279:284   */\n      dup3\n        /* \"#utility.yul\":272:293   */\n      mstore\n        /* \"#utility.yul\":320:324   */\n      0x20\n        /* \"#utility.yul\":313:318   */\n      dup3\n        /* \"#utility.yul\":309:325   */\n      add\n        /* \"#utility.yul\":302:325   */\n      swap1\n      pop\n        /* \"#utility.yul\":346:352   */\n      dup3\n        /* \"#utility.yul\":396:399   */\n      dup6\n        /* \"#utility.yul\":388:392   */\n      0x20\n        /* \"#utility.yul\":380:386   */\n      dup7\n        /* \"#utility.yul\":376:393   */\n      mul\n        /* \"#utility.yul\":371:374   */\n      dup3\n        /* \"#utility.yul\":367:394   */\n      add\n        /* \"#utility.yul\":364:400   */\n      gt\n        /* \"#utility.yul\":361:504   */\n      iszero\n      tag_158\n      jumpi\n        /* \"#utility.yul\":415:494   */\n      tag_159\n      tag_160\n      jump\t// in\n    tag_159:\n        /* \"#utility.yul\":361:504   */\n    tag_158:\n        /* \"#utility.yul\":528:529   */\n      0x00\n        /* \"#utility.yul\":513:762   */\n    tag_161:\n        /* \"#utility.yul\":538:544   */\n      dup6\n        /* \"#utility.yul\":535:536   */\n      dup2\n        /* \"#utility.yul\":532:545   */\n      lt\n        /* \"#utility.yul\":513:762   */\n      iszero\n      tag_163\n      jumpi\n        /* \"#utility.yul\":606:609   */\n      dup2\n        /* \"#utility.yul\":635:683   */\n      tag_164\n        /* \"#utility.yul\":679:682   */\n      dup9\n        /* \"#utility.yul\":667:677   */\n      dup3\n        /* \"#utility.yul\":635:683   */\n      tag_165\n      jump\t// in\n    tag_164:\n        /* \"#utility.yul\":630:633   */\n      dup5\n        /* \"#utility.yul\":623:684   */\n      mstore\n        /* \"#utility.yul\":713:717   */\n      0x20\n        /* \"#utility.yul\":708:711   */\n      dup5\n        /* \"#utility.yul\":704:718   */\n      add\n        /* \"#utility.yul\":697:718   */\n      swap4\n      pop\n        /* \"#utility.yul\":747:751   */\n      0x20\n        /* \"#utility.yul\":742:745   */\n      dup4\n        /* \"#utility.yul\":738:752   */\n      add\n        /* \"#utility.yul\":731:752   */\n      swap3\n      pop\n        /* \"#utility.yul\":573:762   */\n      pop\n        /* \"#utility.yul\":560:561   */\n      0x01\n        /* \"#utility.yul\":557:558   */\n      dup2\n        /* \"#utility.yul\":553:562   */\n      add\n        /* \"#utility.yul\":548:562   */\n      swap1\n      pop\n        /* \"#utility.yul\":513:762   */\n      jump(tag_161)\n    tag_163:\n        /* \"#utility.yul\":517:531   */\n      pop\n        /* \"#utility.yul\":137:768   */\n      pop\n      pop\n        /* \"#utility.yul\":24:768   */\n      swap4\n      swap3\n      pop\n      pop\n      pop\n      jump\t// out\n        /* \"#utility.yul\":774:1186   */\n    tag_166:\n        /* \"#utility.yul\":852:857   */\n      0x00\n        /* \"#utility.yul\":877:943   */\n      tag_168\n        /* \"#utility.yul\":893:942   */\n      tag_169\n        /* \"#utility.yul\":935:941   */\n      dup5\n        /* \"#utility.yul\":893:942   */\n      tag_170\n      jump\t// in\n    tag_169:\n        /* \"#utility.yul\":877:943   */\n      tag_157\n      jump\t// in\n    tag_168:\n        /* \"#utility.yul\":868:943   */\n      swap1\n      pop\n        /* \"#utility.yul\":966:972   */\n      dup3\n        /* \"#utility.yul\":959:964   */\n      dup2\n        /* \"#utility.yul\":952:973   */\n      mstore\n        /* \"#utility.yul\":1004:1008   */\n      0x20\n        /* \"#utility.yul\":997:1002   */\n      dup2\n        /* \"#utility.yul\":993:1009   */\n      add\n        /* \"#utility.yul\":1042:1045   */\n      dup5\n        /* \"#utility.yul\":1033:1039   */\n      dup5\n        /* \"#utility.yul\":1028:1031   */\n      dup5\n        /* \"#utility.yul\":1024:1040   */\n      add\n        /* \"#utility.yul\":1021:1046   */\n      gt\n        /* \"#utility.yul\":1018:1130   */\n      iszero\n      tag_171\n      jumpi\n        /* \"#utility.yul\":1049:1128   */\n      tag_172\n      tag_173\n      jump\t// in\n    tag_172:\n        /* \"#utility.yul\":1018:1130   */\n    tag_171:\n        /* \"#utility.yul\":1139:1180   */\n      tag_174\n        /* \"#utility.yul\":1173:1179   */\n      dup5\n        /* \"#utility.yul\":1168:1171   */\n      dup3\n        /* \"#utility.yul\":1163:1166   */\n      dup6\n        /* \"#utility.yul\":1139:1180   */\n      tag_175\n      jump\t// in\n    tag_174:\n        /* \"#utility.yul\":858:1186   */\n      pop\n        /* \"#utility.yul\":774:1186   */\n      swap4\n      swap3\n      pop\n      pop\n      pop\n      jump\t// out\n        /* \"#utility.yul\":1192:1331   */\n    tag_176:\n        /* \"#utility.yul\":1238:1243   */\n      0x00\n        /* \"#utility.yul\":1276:1282   */\n      dup2\n        /* \"#utility.yul\":1263:1283   */\n      calldataload\n        /* \"#utility.yul\":1254:1283   */\n      swap1\n      pop\n        /* \"#utility.yul\":1292:1325   */\n      tag_178\n        /* \"#utility.yul\":1319:1324   */\n      dup2\n        /* \"#utility.yul\":1292:1325   */\n      tag_179\n      jump\t// in\n    tag_178:\n        /* \"#utility.yul\":1192:1331   */\n      swap3\n      swap2\n      pop\n      pop\n      jump\t// out\n        /* \"#utility.yul\":1354:1739   */\n    tag_180:\n        /* \"#utility.yul\":1436:1441   */\n      0x00\n        /* \"#utility.yul\":1485:1488   */\n      dup3\n        /* \"#utility.yul\":1478:1482   */\n      0x1f\n        /* \"#utility.yul\":1470:1476   */\n      dup4\n        /* \"#utility.yul\":1466:1483   */\n      add\n        /* \"#utility.yul\":1462:1489   */\n      slt\n        /* \"#utility.yul\":1452:1574   */\n      tag_182\n      jumpi\n        /* \"#utility.yul\":1493:1572   */\n      tag_183\n      tag_184\n      jump\t// in\n    tag_183:\n        /* \"#utility.yul\":1452:1574   */\n    tag_182:\n        /* \"#utility.yul\":1603:1609   */\n      dup2\n        /* \"#utility.yul\":1597:1610   */\n      mload\n        /* \"#utility.yul\":1628:1733   */\n      tag_185\n        /* \"#utility.yul\":1729:1732   */\n      dup5\n        /* \"#utility.yul\":1721:1727   */\n      dup3\n        /* \"#utility.yul\":1714:1718   */\n      0x20\n        /* \"#utility.yul\":1706:1712   */\n      dup7\n        /* \"#utility.yul\":1702:1719   */\n      add\n        /* \"#utility.yul\":1628:1733   */\n      tag_152\n      jump\t// in\n    tag_185:\n        /* \"#utility.yul\":1619:1733   */\n      swap2\n      pop\n        /* \"#utility.yul\":1442:1739   */\n      pop\n        /* \"#utility.yul\":1354:1739   */\n      swap3\n      swap2\n      pop\n      pop\n      jump\t// out\n        /* \"#utility.yul\":1745:1882   */\n    tag_186:\n        /* \"#utility.yul\":1799:1804   */\n      0x00\n        /* \"#utility.yul\":1830:1836   */\n      dup2\n        /* \"#utility.yul\":1824:1837   */\n      mload\n        /* \"#utility.yul\":1815:1837   */\n      swap1\n      pop\n        /* \"#utility.yul\":1846:1876   */\n      tag_188\n        /* \"#utility.yul\":1870:1875   */\n      dup2\n        /* \"#utility.yul\":1846:1876   */\n      tag_189\n      jump\t// in\n    tag_188:\n        /* \"#utility.yul\":1745:1882   */\n      swap3\n      swap2\n      pop\n      pop\n      jump\t// out\n        /* \"#utility.yul\":1902:2242   */\n    tag_190:\n        /* \"#utility.yul\":1958:1963   */\n      0x00\n        /* \"#utility.yul\":2007:2010   */\n      dup3\n        /* \"#utility.yul\":2000:2004   */\n      0x1f\n        /* \"#utility.yul\":1992:1998   */\n      dup4\n        /* \"#utility.yul\":1988:2005   */\n      add\n        /* \"#utility.yul\":1984:2011   */\n      slt\n        /* \"#utility.yul\":1974:2096   */\n      tag_192\n      jumpi\n        /* \"#utility.yul\":2015:2094   */\n      tag_193\n      tag_184\n      jump\t// in\n    tag_193:\n        /* \"#utility.yul\":1974:2096   */\n    tag_192:\n        /* \"#utility.yul\":2132:2138   */\n      dup2\n        /* \"#utility.yul\":2119:2139   */\n      calldataload\n        /* \"#utility.yul\":2157:2236   */\n      tag_194\n        /* \"#utility.yul\":2232:2235   */\n      dup5\n        /* \"#utility.yul\":2224:2230   */\n      dup3\n        /* \"#utility.yul\":2217:2221   */\n      0x20\n        /* \"#utility.yul\":2209:2215   */\n      dup7\n        /* \"#utility.yul\":2205:2222   */\n      add\n        /* \"#utility.yul\":2157:2236   */\n      tag_166\n      jump\t// in\n    tag_194:\n        /* \"#utility.yul\":2148:2236   */\n      swap2\n      pop\n        /* \"#utility.yul\":1964:2242   */\n      pop\n        /* \"#utility.yul\":1902:2242   */\n      swap3\n      swap2\n      pop\n      pop\n      jump\t// out\n        /* \"#utility.yul\":2248:2387   */\n    tag_195:\n        /* \"#utility.yul\":2294:2299   */\n      0x00\n        /* \"#utility.yul\":2332:2338   */\n      dup2\n        /* \"#utility.yul\":2319:2339   */\n      calldataload\n        /* \"#utility.yul\":2310:2339   */\n      swap1\n      pop\n        /* \"#utility.yul\":2348:2381   */\n      tag_197\n        /* \"#utility.yul\":2375:2380   */\n      dup2\n        /* \"#utility.yul\":2348:2381   */\n      tag_198\n      jump\t// in\n    tag_197:\n        /* \"#utility.yul\":2248:2387   */\n      swap3\n      swap2\n      pop\n      pop\n      jump\t// out\n        /* \"#utility.yul\":2393:2536   */\n    tag_165:\n        /* \"#utility.yul\":2450:2455   */\n      0x00\n        /* \"#utility.yul\":2481:2487   */\n      dup2\n        /* \"#utility.yul\":2475:2488   */\n      mload\n        /* \"#utility.yul\":2466:2488   */\n      swap1\n      pop\n        /* \"#utility.yul\":2497:2530   */\n      tag_200\n        /* \"#utility.yul\":2524:2529   */\n      dup2\n        /* \"#utility.yul\":2497:2530   */\n      tag_198\n      jump\t// in\n    tag_200:\n        /* \"#utility.yul\":2393:2536   */\n      swap3\n      swap2\n      pop\n      pop\n      jump\t// out\n        /* \"#utility.yul\":2542:3096   */\n    tag_150:\n        /* \"#utility.yul\":2637:2643   */\n      0x00\n        /* \"#utility.yul\":2686:2688   */\n      0x20\n        /* \"#utility.yul\":2674:2683   */\n      dup3\n        /* \"#utility.yul\":2665:2672   */\n      dup5\n        /* \"#utility.yul\":2661:2684   */\n      sub\n        /* \"#utility.yul\":2657:2689   */\n      slt\n        /* \"#utility.yul\":2654:2773   */\n      iszero\n      tag_202\n      jumpi\n        /* \"#utility.yul\":2692:2771   */\n      tag_203\n      tag_204\n      jump\t// in\n    tag_203:\n        /* \"#utility.yul\":2654:2773   */\n    tag_202:\n        /* \"#utility.yul\":2833:2834   */\n      0x00\n        /* \"#utility.yul\":2822:2831   */\n      dup3\n        /* \"#utility.yul\":2818:2835   */\n      add\n        /* \"#utility.yul\":2812:2836   */\n      mload\n        /* \"#utility.yul\":2863:2881   */\n      0xffffffffffffffff\n        /* \"#utility.yul\":2855:2861   */\n      dup2\n        /* \"#utility.yul\":2852:2882   */\n      gt\n        /* \"#utility.yul\":2849:2966   */\n      iszero\n      tag_205\n      jumpi\n        /* \"#utility.yul\":2885:2964   */\n      tag_206\n      tag_207\n      jump\t// in\n    tag_206:\n        /* \"#utility.yul\":2849:2966   */\n    tag_205:\n        /* \"#utility.yul\":2990:3079   */\n      tag_208\n        /* \"#utility.yul\":3071:3078   */\n      dup5\n        /* \"#utility.yul\":3062:3068   */\n      dup3\n        /* \"#utility.yul\":3051:3060   */\n      dup6\n        /* \"#utility.yul\":3047:3069   */\n      add\n        /* \"#utility.yul\":2990:3079   */\n      tag_180\n      jump\t// in\n    tag_208:\n        /* \"#utility.yul\":2980:3079   */\n      swap2\n      pop\n        /* \"#utility.yul\":2783:3089   */\n      pop\n        /* \"#utility.yul\":2542:3096   */\n      swap3\n      swap2\n      pop\n      pop\n      jump\t// out\n        /* \"#utility.yul\":3102:3447   */\n    tag_69:\n        /* \"#utility.yul\":3169:3175   */\n      0x00\n        /* \"#utility.yul\":3218:3220   */\n      0x20\n        /* \"#utility.yul\":3206:3215   */\n      dup3\n        /* \"#utility.yul\":3197:3204   */\n      dup5\n        /* \"#utility.yul\":3193:3216   */\n      sub\n        /* \"#utility.yul\":3189:3221   */\n      slt\n        /* \"#utility.yul\":3186:3305   */\n      iszero\n      tag_210\n      jumpi\n        /* \"#utility.yul\":3224:3303   */\n      tag_211\n      tag_204\n      jump\t// in\n    tag_211:\n        /* \"#utility.yul\":3186:3305   */\n    tag_210:\n        /* \"#utility.yul\":3344:3345   */\n      0x00\n        /* \"#utility.yul\":3369:3430   */\n      tag_212\n        /* \"#utility.yul\":3422:3429   */\n      dup5\n        /* \"#utility.yul\":3413:3419   */\n      dup3\n        /* \"#utility.yul\":3402:3411   */\n      dup6\n        /* \"#utility.yul\":3398:3420   */\n      add\n        /* \"#utility.yul\":3369:3430   */\n      tag_186\n      jump\t// in\n    tag_212:\n        /* \"#utility.yul\":3359:3430   */\n      swap2\n      pop\n        /* \"#utility.yul\":3315:3440   */\n      pop\n        /* \"#utility.yul\":3102:3447   */\n      swap3\n      swap2\n      pop\n      pop\n      jump\t// out\n        /* \"#utility.yul\":3453:3962   */\n    tag_23:\n        /* \"#utility.yul\":3522:3528   */\n      0x00\n        /* \"#utility.yul\":3571:3573   */\n      0x20\n        /* \"#utility.yul\":3559:3568   */\n      dup3\n        /* \"#utility.yul\":3550:3557   */\n      dup5\n        /* \"#utility.yul\":3546:3569   */\n      sub\n        /* \"#utility.yul\":3542:3574   */\n      slt\n        /* \"#utility.yul\":3539:3658   */\n      iszero\n      tag_214\n      jumpi\n        /* \"#utility.yul\":3577:3656   */\n      tag_215\n      tag_204\n      jump\t// in\n    tag_215:\n        /* \"#utility.yul\":3539:3658   */\n    tag_214:\n        /* \"#utility.yul\":3725:3726   */\n      0x00\n        /* \"#utility.yul\":3714:3723   */\n      dup3\n        /* \"#utility.yul\":3710:3727   */\n      add\n        /* \"#utility.yul\":3697:3728   */\n      calldataload\n        /* \"#utility.yul\":3755:3773   */\n      0xffffffffffffffff\n        /* \"#utility.yul\":3747:3753   */\n      dup2\n        /* \"#utility.yul\":3744:3774   */\n      gt\n        /* \"#utility.yul\":3741:3858   */\n      iszero\n      tag_216\n      jumpi\n        /* \"#utility.yul\":3777:3856   */\n      tag_217\n      tag_207\n      jump\t// in\n    tag_217:\n        /* \"#utility.yul\":3741:3858   */\n    tag_216:\n        /* \"#utility.yul\":3882:3945   */\n      tag_218\n        /* \"#utility.yul\":3937:3944   */\n      dup5\n        /* \"#utility.yul\":3928:3934   */\n      dup3\n        /* \"#utility.yul\":3917:3926   */\n      dup6\n        /* \"#utility.yul\":3913:3935   */\n      add\n        /* \"#utility.yul\":3882:3945   */\n      tag_190\n      jump\t// in\n    tag_218:\n        /* \"#utility.yul\":3872:3945   */\n      swap2\n      pop\n        /* \"#utility.yul\":3668:3955   */\n      pop\n        /* \"#utility.yul\":3453:3962   */\n      swap3\n      swap2\n      pop\n      pop\n      jump\t// out\n        /* \"#utility.yul\":3968:4622   */\n    tag_35:\n        /* \"#utility.yul\":4046:4052   */\n      0x00\n        /* \"#utility.yul\":4054:4060   */\n      dup1\n        /* \"#utility.yul\":4103:4105   */\n      0x40\n        /* \"#utility.yul\":4091:4100   */\n      dup4\n        /* \"#utility.yul\":4082:4089   */\n      dup6\n        /* \"#utility.yul\":4078:4101   */\n      sub\n        /* \"#utility.yul\":4074:4106   */\n      slt\n        /* \"#utility.yul\":4071:4190   */\n      iszero\n      tag_220\n      jumpi\n        /* \"#utility.yul\":4109:4188   */\n      tag_221\n      tag_204\n      jump\t// in\n    tag_221:\n        /* \"#utility.yul\":4071:4190   */\n    tag_220:\n        /* \"#utility.yul\":4257:4258   */\n      0x00\n        /* \"#utility.yul\":4246:4255   */\n      dup4\n        /* \"#utility.yul\":4242:4259   */\n      add\n        /* \"#utility.yul\":4229:4260   */\n      calldataload\n        /* \"#utility.yul\":4287:4305   */\n      0xffffffffffffffff\n        /* \"#utility.yul\":4279:4285   */\n      dup2\n        /* \"#utility.yul\":4276:4306   */\n      gt\n        /* \"#utility.yul\":4273:4390   */\n      iszero\n      tag_222\n      jumpi\n        /* \"#utility.yul\":4309:4388   */\n      tag_223\n      tag_207\n      jump\t// in\n    tag_223:\n        /* \"#utility.yul\":4273:4390   */\n    tag_222:\n        /* \"#utility.yul\":4414:4477   */\n      tag_224\n        /* \"#utility.yul\":4469:4476   */\n      dup6\n        /* \"#utility.yul\":4460:4466   */\n      dup3\n        /* \"#utility.yul\":4449:4458   */\n      dup7\n        /* \"#utility.yul\":4445:4467   */\n      add\n        /* \"#utility.yul\":4414:4477   */\n      tag_190\n      jump\t// in\n    tag_224:\n        /* \"#utility.yul\":4404:4477   */\n      swap3\n      pop\n        /* \"#utility.yul\":4200:4487   */\n      pop\n        /* \"#utility.yul\":4526:4528   */\n      0x20\n        /* \"#utility.yul\":4552:4605   */\n      tag_225\n        /* \"#utility.yul\":4597:4604   */\n      dup6\n        /* \"#utility.yul\":4588:4594   */\n      dup3\n        /* \"#utility.yul\":4577:4586   */\n      dup7\n        /* \"#utility.yul\":4573:4595   */\n      add\n        /* \"#utility.yul\":4552:4605   */\n      tag_176\n      jump\t// in\n    tag_225:\n        /* \"#utility.yul\":4542:4605   */\n      swap2\n      pop\n        /* \"#utility.yul\":4497:4615   */\n      pop\n        /* \"#utility.yul\":3968:4622   */\n      swap3\n      pop\n      swap3\n      swap1\n      pop\n      jump\t// out\n        /* \"#utility.yul\":4628:5427   */\n    tag_16:\n        /* \"#utility.yul\":4715:4721   */\n      0x00\n        /* \"#utility.yul\":4723:4729   */\n      dup1\n        /* \"#utility.yul\":4731:4737   */\n      0x00\n        /* \"#utility.yul\":4780:4782   */\n      0x60\n        /* \"#utility.yul\":4768:4777   */\n      dup5\n        /* \"#utility.yul\":4759:4766   */\n      dup7\n        /* \"#utility.yul\":4755:4778   */\n      sub\n        /* \"#utility.yul\":4751:4783   */\n      slt\n        /* \"#utility.yul\":4748:4867   */\n      iszero\n      tag_227\n      jumpi\n        /* \"#utility.yul\":4786:4865   */\n      tag_228\n      tag_204\n      jump\t// in\n    tag_228:\n        /* \"#utility.yul\":4748:4867   */\n    tag_227:\n        /* \"#utility.yul\":4934:4935   */\n      0x00\n        /* \"#utility.yul\":4923:4932   */\n      dup5\n        /* \"#utility.yul\":4919:4936   */\n      add\n        /* \"#utility.yul\":4906:4937   */\n      calldataload\n        /* \"#utility.yul\":4964:4982   */\n      0xffffffffffffffff\n        /* \"#utility.yul\":4956:4962   */\n      dup2\n        /* \"#utility.yul\":4953:4983   */\n      gt\n        /* \"#utility.yul\":4950:5067   */\n      iszero\n      tag_229\n      jumpi\n        /* \"#utility.yul\":4986:5065   */\n      tag_230\n      tag_207\n      jump\t// in\n    tag_230:\n        /* \"#utility.yul\":4950:5067   */\n    tag_229:\n        /* \"#utility.yul\":5091:5154   */\n      tag_231\n        /* \"#utility.yul\":5146:5153   */\n      dup7\n        /* \"#utility.yul\":5137:5143   */\n      dup3\n        /* \"#utility.yul\":5126:5135   */\n      dup8\n        /* \"#utility.yul\":5122:5144   */\n      add\n        /* \"#utility.yul\":5091:5154   */\n      tag_190\n      jump\t// in\n    tag_231:\n        /* \"#utility.yul\":5081:5154   */\n      swap4\n      pop\n        /* \"#utility.yul\":4877:5164   */\n      pop\n        /* \"#utility.yul\":5203:5205   */\n      0x20\n        /* \"#utility.yul\":5229:5282   */\n      tag_232\n        /* \"#utility.yul\":5274:5281   */\n      dup7\n        /* \"#utility.yul\":5265:5271   */\n      dup3\n        /* \"#utility.yul\":5254:5263   */\n      dup8\n        /* \"#utility.yul\":5250:5272   */\n      add\n        /* \"#utility.yul\":5229:5282   */\n      tag_176\n      jump\t// in\n    tag_232:\n        /* \"#utility.yul\":5219:5282   */\n      swap3\n      pop\n        /* \"#utility.yul\":5174:5292   */\n      pop\n        /* \"#utility.yul\":5331:5333   */\n      0x40\n        /* \"#utility.yul\":5357:5410   */\n      tag_233\n        /* \"#utility.yul\":5402:5409   */\n      dup7\n        /* \"#utility.yul\":5393:5399   */\n      dup3\n        /* \"#utility.yul\":5382:5391   */\n      dup8\n        /* \"#utility.yul\":5378:5400   */\n      add\n        /* \"#utility.yul\":5357:5410   */\n      tag_195\n      jump\t// in\n    tag_233:\n        /* \"#utility.yul\":5347:5410   */\n      swap2\n      pop\n        /* \"#utility.yul\":5302:5420   */\n      pop\n        /* \"#utility.yul\":4628:5427   */\n      swap3\n      pop\n      swap3\n      pop\n      swap3\n      jump\t// out\n        /* \"#utility.yul\":5433:6087   */\n    tag_30:\n        /* \"#utility.yul\":5511:5517   */\n      0x00\n        /* \"#utility.yul\":5519:5525   */\n      dup1\n        /* \"#utility.yul\":5568:5570   */\n      0x40\n        /* \"#utility.yul\":5556:5565   */\n      dup4\n        /* \"#utility.yul\":5547:5554   */\n      dup6\n        /* \"#utility.yul\":5543:5566   */\n      sub\n        /* \"#utility.yul\":5539:5571   */\n      slt\n        /* \"#utility.yul\":5536:5655   */\n      iszero\n      tag_235\n      jumpi\n        /* \"#utility.yul\":5574:5653   */\n      tag_236\n      tag_204\n      jump\t// in\n    tag_236:\n        /* \"#utility.yul\":5536:5655   */\n    tag_235:\n        /* \"#utility.yul\":5722:5723   */\n      0x00\n        /* \"#utility.yul\":5711:5720   */\n      dup4\n        /* \"#utility.yul\":5707:5724   */\n      add\n        /* \"#utility.yul\":5694:5725   */\n      calldataload\n        /* \"#utility.yul\":5752:5770   */\n      0xffffffffffffffff\n        /* \"#utility.yul\":5744:5750   */\n      dup2\n        /* \"#utility.yul\":5741:5771   */\n      gt\n        /* \"#utility.yul\":5738:5855   */\n      iszero\n      tag_237\n      jumpi\n        /* \"#utility.yul\":5774:5853   */\n      tag_238\n      tag_207\n      jump\t// in\n    tag_238:\n        /* \"#utility.yul\":5738:5855   */\n    tag_237:\n        /* \"#utility.yul\":5879:5942   */\n      tag_239\n        /* \"#utility.yul\":5934:5941   */\n      dup6\n        /* \"#utility.yul\":5925:5931   */\n      dup3\n        /* \"#utility.yul\":5914:5923   */\n      dup7\n        /* \"#utility.yul\":5910:5932   */\n      add\n        /* \"#utility.yul\":5879:5942   */\n      tag_190\n      jump\t// in\n    tag_239:\n        /* \"#utility.yul\":5869:5942   */\n      swap3\n      pop\n        /* \"#utility.yul\":5665:5952   */\n      pop\n        /* \"#utility.yul\":5991:5993   */\n      0x20\n        /* \"#utility.yul\":6017:6070   */\n      tag_240\n        /* \"#utility.yul\":6062:6069   */\n      dup6\n        /* \"#utility.yul\":6053:6059   */\n      dup3\n        /* \"#utility.yul\":6042:6051   */\n      dup7\n        /* \"#utility.yul\":6038:6060   */\n      add\n        /* \"#utility.yul\":6017:6070   */\n      tag_195\n      jump\t// in\n    tag_240:\n        /* \"#utility.yul\":6007:6070   */\n      swap2\n      pop\n        /* \"#utility.yul\":5962:6080   */\n      pop\n        /* \"#utility.yul\":5433:6087   */\n      swap3\n      pop\n      swap3\n      swap1\n      pop\n      jump\t// out\n        /* \"#utility.yul\":6093:6444   */\n    tag_57:\n        /* \"#utility.yul\":6163:6169   */\n      0x00\n        /* \"#utility.yul\":6212:6214   */\n      0x20\n        /* \"#utility.yul\":6200:6209   */\n      dup3\n        /* \"#utility.yul\":6191:6198   */\n      dup5\n        /* \"#utility.yul\":6187:6210   */\n      sub\n        /* \"#utility.yul\":6183:6215   */\n      slt\n        /* \"#utility.yul\":6180:6299   */\n      iszero\n      tag_242\n      jumpi\n        /* \"#utility.yul\":6218:6297   */\n      tag_243\n      tag_204\n      jump\t// in\n    tag_243:\n        /* \"#utility.yul\":6180:6299   */\n    tag_242:\n        /* \"#utility.yul\":6338:6339   */\n      0x00\n        /* \"#utility.yul\":6363:6427   */\n      tag_244\n        /* \"#utility.yul\":6419:6426   */\n      dup5\n        /* \"#utility.yul\":6410:6416   */\n      dup3\n        /* \"#utility.yul\":6399:6408   */\n      dup6\n        /* \"#utility.yul\":6395:6417   */\n      add\n        /* \"#utility.yul\":6363:6427   */\n      tag_165\n      jump\t// in\n    tag_244:\n        /* \"#utility.yul\":6353:6427   */\n      swap2\n      pop\n        /* \"#utility.yul\":6309:6437   */\n      pop\n        /* \"#utility.yul\":6093:6444   */\n      swap3\n      swap2\n      pop\n      pop\n      jump\t// out\n        /* \"#utility.yul\":6450:7721   */\n    tag_46:\n        /* \"#utility.yul\":6565:6571   */\n      0x00\n        /* \"#utility.yul\":6573:6579   */\n      dup1\n        /* \"#utility.yul\":6581:6587   */\n      0x00\n        /* \"#utility.yul\":6589:6595   */\n      dup1\n        /* \"#utility.yul\":6597:6603   */\n      0x00\n        /* \"#utility.yul\":6646:6649   */\n      0xa0\n        /* \"#utility.yul\":6634:6643   */\n      dup7\n        /* \"#utility.yul\":6625:6632   */\n      dup9\n        /* \"#utility.yul\":6621:6644   */\n      sub\n        /* \"#utility.yul\":6617:6650   */\n      slt\n        /* \"#utility.yul\":6614:6734   */\n      iszero\n      tag_246\n      jumpi\n        /* \"#utility.yul\":6653:6732   */\n      tag_247\n      tag_204\n      jump\t// in\n    tag_247:\n        /* \"#utility.yul\":6614:6734   */\n    tag_246:\n        /* \"#utility.yul\":6773:6774   */\n      0x00\n        /* \"#utility.yul\":6798:6851   */\n      tag_248\n        /* \"#utility.yul\":6843:6850   */\n      dup9\n        /* \"#utility.yul\":6834:6840   */\n      dup3\n        /* \"#utility.yul\":6823:6832   */\n      dup10\n        /* \"#utility.yul\":6819:6841   */\n      add\n        /* \"#utility.yul\":6798:6851   */\n      tag_195\n      jump\t// in\n    tag_248:\n        /* \"#utility.yul\":6788:6851   */\n      swap6\n      pop\n        /* \"#utility.yul\":6744:6861   */\n      pop\n        /* \"#utility.yul\":6900:6902   */\n      0x20\n        /* \"#utility.yul\":6926:6979   */\n      tag_249\n        /* \"#utility.yul\":6971:6978   */\n      dup9\n        /* \"#utility.yul\":6962:6968   */\n      dup3\n        /* \"#utility.yul\":6951:6960   */\n      dup10\n        /* \"#utility.yul\":6947:6969   */\n      add\n        /* \"#utility.yul\":6926:6979   */\n      tag_195\n      jump\t// in\n    tag_249:\n        /* \"#utility.yul\":6916:6979   */\n      swap5\n      pop\n        /* \"#utility.yul\":6871:6989   */\n      pop\n        /* \"#utility.yul\":7056:7058   */\n      0x40\n        /* \"#utility.yul\":7045:7054   */\n      dup7\n        /* \"#utility.yul\":7041:7059   */\n      add\n        /* \"#utility.yul\":7028:7060   */\n      calldataload\n        /* \"#utility.yul\":7087:7105   */\n      0xffffffffffffffff\n        /* \"#utility.yul\":7079:7085   */\n      dup2\n        /* \"#utility.yul\":7076:7106   */\n      gt\n        /* \"#utility.yul\":7073:7190   */\n      iszero\n      tag_250\n      jumpi\n        /* \"#utility.yul\":7109:7188   */\n      tag_251\n      tag_207\n      jump\t// in\n    tag_251:\n        /* \"#utility.yul\":7073:7190   */\n    tag_250:\n        /* \"#utility.yul\":7214:7277   */\n      tag_252\n        /* \"#utility.yul\":7269:7276   */\n      dup9\n        /* \"#utility.yul\":7260:7266   */\n      dup3\n        /* \"#utility.yul\":7249:7258   */\n      dup10\n        /* \"#utility.yul\":7245:7267   */\n      add\n        /* \"#utility.yul\":7214:7277   */\n      tag_190\n      jump\t// in\n    tag_252:\n        /* \"#utility.yul\":7204:7277   */\n      swap4\n      pop\n        /* \"#utility.yul\":6999:7287   */\n      pop\n        /* \"#utility.yul\":7354:7356   */\n      0x60\n        /* \"#utility.yul\":7343:7352   */\n      dup7\n        /* \"#utility.yul\":7339:7357   */\n      add\n        /* \"#utility.yul\":7326:7358   */\n      calldataload\n        /* \"#utility.yul\":7385:7403   */\n      0xffffffffffffffff\n        /* \"#utility.yul\":7377:7383   */\n      dup2\n        /* \"#utility.yul\":7374:7404   */\n      gt\n        /* \"#utility.yul\":7371:7488   */\n      iszero\n      tag_253\n      jumpi\n        /* \"#utility.yul\":7407:7486   */\n      tag_254\n      tag_207\n      jump\t// in\n    tag_254:\n        /* \"#utility.yul\":7371:7488   */\n    tag_253:\n        /* \"#utility.yul\":7512:7575   */\n      tag_255\n        /* \"#utility.yul\":7567:7574   */\n      dup9\n        /* \"#utility.yul\":7558:7564   */\n      dup3\n        /* \"#utility.yul\":7547:7556   */\n      dup10\n        /* \"#utility.yul\":7543:7565   */\n      add\n        /* \"#utility.yul\":7512:7575   */\n      tag_190\n      jump\t// in\n    tag_255:\n        /* \"#utility.yul\":7502:7575   */\n      swap3\n      pop\n        /* \"#utility.yul\":7297:7585   */\n      pop\n        /* \"#utility.yul\":7624:7627   */\n      0x80\n        /* \"#utility.yul\":7651:7704   */\n      tag_256\n        /* \"#utility.yul\":7696:7703   */\n      dup9\n        /* \"#utility.yul\":7687:7693   */\n      dup3\n        /* \"#utility.yul\":7676:7685   */\n      dup10\n        /* \"#utility.yul\":7672:7694   */\n      add\n        /* \"#utility.yul\":7651:7704   */\n      tag_195\n      jump\t// in\n    tag_256:\n        /* \"#utility.yul\":7641:7704   */\n      swap2\n      pop\n        /* \"#utility.yul\":7595:7714   */\n      pop\n        /* \"#utility.yul\":6450:7721   */\n      swap3\n      swap6\n      pop\n      swap3\n      swap6\n      swap1\n      swap4\n      pop\n      jump\t// out\n        /* \"#utility.yul\":7727:7906   */\n    tag_257:\n        /* \"#utility.yul\":7796:7806   */\n      0x00\n        /* \"#utility.yul\":7817:7863   */\n      tag_259\n        /* \"#utility.yul\":7859:7862   */\n      dup4\n        /* \"#utility.yul\":7851:7857   */\n      dup4\n        /* \"#utility.yul\":7817:7863   */\n      tag_260\n      jump\t// in\n    tag_259:\n        /* \"#utility.yul\":7895:7899   */\n      0x20\n        /* \"#utility.yul\":7890:7893   */\n      dup4\n        /* \"#utility.yul\":7886:7900   */\n      add\n        /* \"#utility.yul\":7872:7900   */\n      swap1\n      pop\n        /* \"#utility.yul\":7727:7906   */\n      swap3\n      swap2\n      pop\n      pop\n      jump\t// out\n        /* \"#utility.yul\":7912:8020   */\n    tag_260:\n        /* \"#utility.yul\":7989:8013   */\n      tag_262\n        /* \"#utility.yul\":8007:8012   */\n      dup2\n        /* \"#utility.yul\":7989:8013   */\n      tag_263\n      jump\t// in\n    tag_262:\n        /* \"#utility.yul\":7984:7987   */\n      dup3\n        /* \"#utility.yul\":7977:8014   */\n      mstore\n        /* \"#utility.yul\":7912:8020   */\n      pop\n      pop\n      jump\t// out\n        /* \"#utility.yul\":8026:8144   */\n    tag_264:\n        /* \"#utility.yul\":8113:8137   */\n      tag_266\n        /* \"#utility.yul\":8131:8136   */\n      dup2\n        /* \"#utility.yul\":8113:8137   */\n      tag_263\n      jump\t// in\n    tag_266:\n        /* \"#utility.yul\":8108:8111   */\n      dup3\n        /* \"#utility.yul\":8101:8138   */\n      mstore\n        /* \"#utility.yul\":8026:8144   */\n      pop\n      pop\n      jump\t// out\n        /* \"#utility.yul\":8180:8912   */\n    tag_267:\n        /* \"#utility.yul\":8299:8302   */\n      0x00\n        /* \"#utility.yul\":8328:8382   */\n      tag_269\n        /* \"#utility.yul\":8376:8381   */\n      dup3\n        /* \"#utility.yul\":8328:8382   */\n      tag_270\n      jump\t// in\n    tag_269:\n        /* \"#utility.yul\":8398:8484   */\n      tag_271\n        /* \"#utility.yul\":8477:8483   */\n      dup2\n        /* \"#utility.yul\":8472:8475   */\n      dup6\n        /* \"#utility.yul\":8398:8484   */\n      tag_272\n      jump\t// in\n    tag_271:\n        /* \"#utility.yul\":8391:8484   */\n      swap4\n      pop\n        /* \"#utility.yul\":8508:8564   */\n      tag_273\n        /* \"#utility.yul\":8558:8563   */\n      dup4\n        /* \"#utility.yul\":8508:8564   */\n      tag_274\n      jump\t// in\n    tag_273:\n        /* \"#utility.yul\":8587:8594   */\n      dup1\n        /* \"#utility.yul\":8618:8619   */\n      0x00\n        /* \"#utility.yul\":8603:8887   */\n    tag_275:\n        /* \"#utility.yul\":8628:8634   */\n      dup4\n        /* \"#utility.yul\":8625:8626   */\n      dup2\n        /* \"#utility.yul\":8622:8635   */\n      lt\n        /* \"#utility.yul\":8603:8887   */\n      iszero\n      tag_277\n      jumpi\n        /* \"#utility.yul\":8704:8710   */\n      dup2\n        /* \"#utility.yul\":8698:8711   */\n      mload\n        /* \"#utility.yul\":8731:8794   */\n      tag_278\n        /* \"#utility.yul\":8790:8793   */\n      dup9\n        /* \"#utility.yul\":8775:8788   */\n      dup3\n        /* \"#utility.yul\":8731:8794   */\n      tag_257\n      jump\t// in\n    tag_278:\n        /* \"#utility.yul\":8724:8794   */\n      swap8\n      pop\n        /* \"#utility.yul\":8817:8877   */\n      tag_279\n        /* \"#utility.yul\":8870:8876   */\n      dup4\n        /* \"#utility.yul\":8817:8877   */\n      tag_280\n      jump\t// in\n    tag_279:\n        /* \"#utility.yul\":8807:8877   */\n      swap3\n      pop\n        /* \"#utility.yul\":8663:8887   */\n      pop\n        /* \"#utility.yul\":8650:8651   */\n      0x01\n        /* \"#utility.yul\":8647:8648   */\n      dup2\n        /* \"#utility.yul\":8643:8652   */\n      add\n        /* \"#utility.yul\":8638:8652   */\n      swap1\n      pop\n        /* \"#utility.yul\":8603:8887   */\n      jump(tag_275)\n    tag_277:\n        /* \"#utility.yul\":8607:8621   */\n      pop\n        /* \"#utility.yul\":8903:8906   */\n      dup6\n        /* \"#utility.yul\":8896:8906   */\n      swap4\n      pop\n        /* \"#utility.yul\":8304:8912   */\n      pop\n      pop\n      pop\n        /* \"#utility.yul\":8180:8912   */\n      swap3\n      swap2\n      pop\n      pop\n      jump\t// out\n        /* \"#utility.yul\":8918:9027   */\n    tag_281:\n        /* \"#utility.yul\":8999:9020   */\n      tag_283\n        /* \"#utility.yul\":9014:9019   */\n      dup2\n        /* \"#utility.yul\":8999:9020   */\n      tag_284\n      jump\t// in\n    tag_283:\n        /* \"#utility.yul\":8994:8997   */\n      dup3\n        /* \"#utility.yul\":8987:9021   */\n      mstore\n        /* \"#utility.yul\":8918:9027   */\n      pop\n      pop\n      jump\t// out\n        /* \"#utility.yul\":9033:9393   */\n    tag_285:\n        /* \"#utility.yul\":9119:9122   */\n      0x00\n        /* \"#utility.yul\":9147:9185   */\n      tag_287\n        /* \"#utility.yul\":9179:9184   */\n      dup3\n        /* \"#utility.yul\":9147:9185   */\n      tag_288\n      jump\t// in\n    tag_287:\n        /* \"#utility.yul\":9201:9271   */\n      tag_289\n        /* \"#utility.yul\":9264:9270   */\n      dup2\n        /* \"#utility.yul\":9259:9262   */\n      dup6\n        /* \"#utility.yul\":9201:9271   */\n      tag_290\n      jump\t// in\n    tag_289:\n        /* \"#utility.yul\":9194:9271   */\n      swap4\n      pop\n        /* \"#utility.yul\":9280:9332   */\n      tag_291\n        /* \"#utility.yul\":9325:9331   */\n      dup2\n        /* \"#utility.yul\":9320:9323   */\n      dup6\n        /* \"#utility.yul\":9313:9317   */\n      0x20\n        /* \"#utility.yul\":9306:9311   */\n      dup7\n        /* \"#utility.yul\":9302:9318   */\n      add\n        /* \"#utility.yul\":9280:9332   */\n      tag_292\n      jump\t// in\n    tag_291:\n        /* \"#utility.yul\":9357:9386   */\n      tag_293\n        /* \"#utility.yul\":9379:9385   */\n      dup2\n        /* \"#utility.yul\":9357:9386   */\n      tag_294\n      jump\t// in\n    tag_293:\n        /* \"#utility.yul\":9352:9355   */\n      dup5\n        /* \"#utility.yul\":9348:9387   */\n      add\n        /* \"#utility.yul\":9341:9387   */\n      swap2\n      pop\n        /* \"#utility.yul\":9123:9393   */\n      pop\n        /* \"#utility.yul\":9033:9393   */\n      swap3\n      swap2\n      pop\n      pop\n      jump\t// out\n        /* \"#utility.yul\":9399:9772   */\n    tag_295:\n        /* \"#utility.yul\":9503:9506   */\n      0x00\n        /* \"#utility.yul\":9531:9569   */\n      tag_297\n        /* \"#utility.yul\":9563:9568   */\n      dup3\n        /* \"#utility.yul\":9531:9569   */\n      tag_288\n      jump\t// in\n    tag_297:\n        /* \"#utility.yul\":9585:9673   */\n      tag_298\n        /* \"#utility.yul\":9666:9672   */\n      dup2\n        /* \"#utility.yul\":9661:9664   */\n      dup6\n        /* \"#utility.yul\":9585:9673   */\n      tag_299\n      jump\t// in\n    tag_298:\n        /* \"#utility.yul\":9578:9673   */\n      swap4\n      pop\n        /* \"#utility.yul\":9682:9734   */\n      tag_300\n        /* \"#utility.yul\":9727:9733   */\n      dup2\n        /* \"#utility.yul\":9722:9725   */\n      dup6\n        /* \"#utility.yul\":9715:9719   */\n      0x20\n        /* \"#utility.yul\":9708:9713   */\n      dup7\n        /* \"#utility.yul\":9704:9720   */\n      add\n        /* \"#utility.yul\":9682:9734   */\n      tag_292\n      jump\t// in\n    tag_300:\n        /* \"#utility.yul\":9759:9765   */\n      dup1\n        /* \"#utility.yul\":9754:9757   */\n      dup5\n        /* \"#utility.yul\":9750:9766   */\n      add\n        /* \"#utility.yul\":9743:9766   */\n      swap2\n      pop\n        /* \"#utility.yul\":9507:9772   */\n      pop\n        /* \"#utility.yul\":9399:9772   */\n      swap3\n      swap2\n      pop\n      pop\n      jump\t// out\n        /* \"#utility.yul\":9778:10155   */\n    tag_301:\n        /* \"#utility.yul\":9884:9887   */\n      0x00\n        /* \"#utility.yul\":9912:9951   */\n      tag_303\n        /* \"#utility.yul\":9945:9950   */\n      dup3\n        /* \"#utility.yul\":9912:9951   */\n      tag_304\n      jump\t// in\n    tag_303:\n        /* \"#utility.yul\":9967:10056   */\n      tag_305\n        /* \"#utility.yul\":10049:10055   */\n      dup2\n        /* \"#utility.yul\":10044:10047   */\n      dup6\n        /* \"#utility.yul\":9967:10056   */\n      tag_306\n      jump\t// in\n    tag_305:\n        /* \"#utility.yul\":9960:10056   */\n      swap4\n      pop\n        /* \"#utility.yul\":10065:10117   */\n      tag_307\n        /* \"#utility.yul\":10110:10116   */\n      dup2\n        /* \"#utility.yul\":10105:10108   */\n      dup6\n        /* \"#utility.yul\":10098:10102   */\n      0x20\n        /* \"#utility.yul\":10091:10096   */\n      dup7\n        /* \"#utility.yul\":10087:10103   */\n      add\n        /* \"#utility.yul\":10065:10117   */\n      tag_292\n      jump\t// in\n    tag_307:\n        /* \"#utility.yul\":10142:10148   */\n      dup1\n        /* \"#utility.yul\":10137:10140   */\n      dup5\n        /* \"#utility.yul\":10133:10149   */\n      add\n        /* \"#utility.yul\":10126:10149   */\n      swap2\n      pop\n        /* \"#utility.yul\":9888:10155   */\n      pop\n        /* \"#utility.yul\":9778:10155   */\n      swap3\n      swap2\n      pop\n      pop\n      jump\t// out\n        /* \"#utility.yul\":10161:10527   */\n    tag_308:\n        /* \"#utility.yul\":10303:10306   */\n      0x00\n        /* \"#utility.yul\":10324:10391   */\n      tag_310\n        /* \"#utility.yul\":10388:10390   */\n      0x38\n        /* \"#utility.yul\":10383:10386   */\n      dup4\n        /* \"#utility.yul\":10324:10391   */\n      tag_311\n      jump\t// in\n    tag_310:\n        /* \"#utility.yul\":10317:10391   */\n      swap2\n      pop\n        /* \"#utility.yul\":10400:10493   */\n      tag_312\n        /* \"#utility.yul\":10489:10492   */\n      dup3\n        /* \"#utility.yul\":10400:10493   */\n      tag_313\n      jump\t// in\n    tag_312:\n        /* \"#utility.yul\":10518:10520   */\n      0x40\n        /* \"#utility.yul\":10513:10516   */\n      dup3\n        /* \"#utility.yul\":10509:10521   */\n      add\n        /* \"#utility.yul\":10502:10521   */\n      swap1\n      pop\n        /* \"#utility.yul\":10161:10527   */\n      swap2\n      swap1\n      pop\n      jump\t// out\n        /* \"#utility.yul\":10533:10933   */\n    tag_314:\n        /* \"#utility.yul\":10693:10696   */\n      0x00\n        /* \"#utility.yul\":10714:10798   */\n      tag_316\n        /* \"#utility.yul\":10796:10797   */\n      0x06\n        /* \"#utility.yul\":10791:10794   */\n      dup4\n        /* \"#utility.yul\":10714:10798   */\n      tag_306\n      jump\t// in\n    tag_316:\n        /* \"#utility.yul\":10707:10798   */\n      swap2\n      pop\n        /* \"#utility.yul\":10807:10900   */\n      tag_317\n        /* \"#utility.yul\":10896:10899   */\n      dup3\n        /* \"#utility.yul\":10807:10900   */\n      tag_318\n      jump\t// in\n    tag_317:\n        /* \"#utility.yul\":10925:10926   */\n      0x06\n        /* \"#utility.yul\":10920:10923   */\n      dup3\n        /* \"#utility.yul\":10916:10927   */\n      add\n        /* \"#utility.yul\":10909:10927   */\n      swap1\n      pop\n        /* \"#utility.yul\":10533:10933   */\n      swap2\n      swap1\n      pop\n      jump\t// out\n        /* \"#utility.yul\":10939:11057   */\n    tag_319:\n        /* \"#utility.yul\":11026:11050   */\n      tag_321\n        /* \"#utility.yul\":11044:11049   */\n      dup2\n        /* \"#utility.yul\":11026:11050   */\n      tag_322\n      jump\t// in\n    tag_321:\n        /* \"#utility.yul\":11021:11024   */\n      dup3\n        /* \"#utility.yul\":11014:11051   */\n      mstore\n        /* \"#utility.yul\":10939:11057   */\n      pop\n      pop\n      jump\t// out\n        /* \"#utility.yul\":11063:11334   */\n    tag_74:\n        /* \"#utility.yul\":11193:11196   */\n      0x00\n        /* \"#utility.yul\":11215:11308   */\n      tag_324\n        /* \"#utility.yul\":11304:11307   */\n      dup3\n        /* \"#utility.yul\":11295:11301   */\n      dup5\n        /* \"#utility.yul\":11215:11308   */\n      tag_295\n      jump\t// in\n    tag_324:\n        /* \"#utility.yul\":11208:11308   */\n      swap2\n      pop\n        /* \"#utility.yul\":11325:11328   */\n      dup2\n        /* \"#utility.yul\":11318:11328   */\n      swap1\n      pop\n        /* \"#utility.yul\":11063:11334   */\n      swap3\n      swap2\n      pop\n      pop\n      jump\t// out\n        /* \"#utility.yul\":11340:11615   */\n    tag_49:\n        /* \"#utility.yul\":11472:11475   */\n      0x00\n        /* \"#utility.yul\":11494:11589   */\n      tag_326\n        /* \"#utility.yul\":11585:11588   */\n      dup3\n        /* \"#utility.yul\":11576:11582   */\n      dup5\n        /* \"#utility.yul\":11494:11589   */\n      tag_301\n      jump\t// in\n    tag_326:\n        /* \"#utility.yul\":11487:11589   */\n      swap2\n      pop\n        /* \"#utility.yul\":11606:11609   */\n      dup2\n        /* \"#utility.yul\":11599:11609   */\n      swap1\n      pop\n        /* \"#utility.yul\":11340:11615   */\n      swap3\n      swap2\n      pop\n      pop\n      jump\t// out\n        /* \"#utility.yul\":11621:12002   */\n    tag_72:\n        /* \"#utility.yul\":11806:11809   */\n      0x00\n        /* \"#utility.yul\":11828:11976   */\n      tag_328\n        /* \"#utility.yul\":11972:11975   */\n      dup3\n        /* \"#utility.yul\":11828:11976   */\n      tag_314\n      jump\t// in\n    tag_328:\n        /* \"#utility.yul\":11821:11976   */\n      swap2\n      pop\n        /* \"#utility.yul\":11993:11996   */\n      dup2\n        /* \"#utility.yul\":11986:11996   */\n      swap1\n      pop\n        /* \"#utility.yul\":11621:12002   */\n      swap2\n      swap1\n      pop\n      jump\t// out\n        /* \"#utility.yul\":12008:12230   */\n    tag_89:\n        /* \"#utility.yul\":12101:12105   */\n      0x00\n        /* \"#utility.yul\":12139:12141   */\n      0x20\n        /* \"#utility.yul\":12128:12137   */\n      dup3\n        /* \"#utility.yul\":12124:12142   */\n      add\n        /* \"#utility.yul\":12116:12142   */\n      swap1\n      pop\n        /* \"#utility.yul\":12152:12223   */\n      tag_330\n        /* \"#utility.yul\":12220:12221   */\n      0x00\n        /* \"#utility.yul\":12209:12218   */\n      dup4\n        /* \"#utility.yul\":12205:12222   */\n      add\n        /* \"#utility.yul\":12196:12202   */\n      dup5\n        /* \"#utility.yul\":12152:12223   */\n      tag_264\n      jump\t// in\n    tag_330:\n        /* \"#utility.yul\":12008:12230   */\n      swap3\n      swap2\n      pop\n      pop\n      jump\t// out\n        /* \"#utility.yul\":12236:12568   */\n    tag_52:\n        /* \"#utility.yul\":12357:12361   */\n      0x00\n        /* \"#utility.yul\":12395:12397   */\n      0x40\n        /* \"#utility.yul\":12384:12393   */\n      dup3\n        /* \"#utility.yul\":12380:12398   */\n      add\n        /* \"#utility.yul\":12372:12398   */\n      swap1\n      pop\n        /* \"#utility.yul\":12408:12479   */\n      tag_332\n        /* \"#utility.yul\":12476:12477   */\n      0x00\n        /* \"#utility.yul\":12465:12474   */\n      dup4\n        /* \"#utility.yul\":12461:12478   */\n      add\n        /* \"#utility.yul\":12452:12458   */\n      dup6\n        /* \"#utility.yul\":12408:12479   */\n      tag_264\n      jump\t// in\n    tag_332:\n        /* \"#utility.yul\":12489:12561   */\n      tag_333\n        /* \"#utility.yul\":12557:12559   */\n      0x20\n        /* \"#utility.yul\":12546:12555   */\n      dup4\n        /* \"#utility.yul\":12542:12560   */\n      add\n        /* \"#utility.yul\":12533:12539   */\n      dup5\n        /* \"#utility.yul\":12489:12561   */\n      tag_264\n      jump\t// in\n    tag_333:\n        /* \"#utility.yul\":12236:12568   */\n      swap4\n      swap3\n      pop\n      pop\n      pop\n      jump\t// out\n        /* \"#utility.yul\":12574:13016   */\n    tag_64:\n        /* \"#utility.yul\":12723:12727   */\n      0x00\n        /* \"#utility.yul\":12761:12763   */\n      0x60\n        /* \"#utility.yul\":12750:12759   */\n      dup3\n        /* \"#utility.yul\":12746:12764   */\n      add\n        /* \"#utility.yul\":12738:12764   */\n      swap1\n      pop\n        /* \"#utility.yul\":12774:12845   */\n      tag_335\n        /* \"#utility.yul\":12842:12843   */\n      0x00\n        /* \"#utility.yul\":12831:12840   */\n      dup4\n        /* \"#utility.yul\":12827:12844   */\n      add\n        /* \"#utility.yul\":12818:12824   */\n      dup7\n        /* \"#utility.yul\":12774:12845   */\n      tag_264\n      jump\t// in\n    tag_335:\n        /* \"#utility.yul\":12855:12927   */\n      tag_336\n        /* \"#utility.yul\":12923:12925   */\n      0x20\n        /* \"#utility.yul\":12912:12921   */\n      dup4\n        /* \"#utility.yul\":12908:12926   */\n      add\n        /* \"#utility.yul\":12899:12905   */\n      dup6\n        /* \"#utility.yul\":12855:12927   */\n      tag_264\n      jump\t// in\n    tag_336:\n        /* \"#utility.yul\":12937:13009   */\n      tag_337\n        /* \"#utility.yul\":13005:13007   */\n      0x40\n        /* \"#utility.yul\":12994:13003   */\n      dup4\n        /* \"#utility.yul\":12990:13008   */\n      add\n        /* \"#utility.yul\":12981:12987   */\n      dup5\n        /* \"#utility.yul\":12937:13009   */\n      tag_319\n      jump\t// in\n    tag_337:\n        /* \"#utility.yul\":12574:13016   */\n      swap5\n      swap4\n      pop\n      pop\n      pop\n      pop\n      jump\t// out\n        /* \"#utility.yul\":13022:13354   */\n    tag_139:\n        /* \"#utility.yul\":13143:13147   */\n      0x00\n        /* \"#utility.yul\":13181:13183   */\n      0x40\n        /* \"#utility.yul\":13170:13179   */\n      dup3\n        /* \"#utility.yul\":13166:13184   */\n      add\n        /* \"#utility.yul\":13158:13184   */\n      swap1\n      pop\n        /* \"#utility.yul\":13194:13265   */\n      tag_339\n        /* \"#utility.yul\":13262:13263   */\n      0x00\n        /* \"#utility.yul\":13251:13260   */\n      dup4\n        /* \"#utility.yul\":13247:13264   */\n      add\n        /* \"#utility.yul\":13238:13244   */\n      dup6\n        /* \"#utility.yul\":13194:13265   */\n      tag_264\n      jump\t// in\n    tag_339:\n        /* \"#utility.yul\":13275:13347   */\n      tag_340\n        /* \"#utility.yul\":13343:13345   */\n      0x20\n        /* \"#utility.yul\":13332:13341   */\n      dup4\n        /* \"#utility.yul\":13328:13346   */\n      add\n        /* \"#utility.yul\":13319:13325   */\n      dup5\n        /* \"#utility.yul\":13275:13347   */\n      tag_319\n      jump\t// in\n    tag_340:\n        /* \"#utility.yul\":13022:13354   */\n      swap4\n      swap3\n      pop\n      pop\n      pop\n      jump\t// out\n        /* \"#utility.yul\":13360:13767   */\n    tag_85:\n        /* \"#utility.yul\":13493:13497   */\n      0x00\n        /* \"#utility.yul\":13531:13533   */\n      0x40\n        /* \"#utility.yul\":13520:13529   */\n      dup3\n        /* \"#utility.yul\":13516:13534   */\n      add\n        /* \"#utility.yul\":13508:13534   */\n      swap1\n      pop\n        /* \"#utility.yul\":13544:13609   */\n      tag_342\n        /* \"#utility.yul\":13606:13607   */\n      0x00\n        /* \"#utility.yul\":13595:13604   */\n      dup4\n        /* \"#utility.yul\":13591:13608   */\n      add\n        /* \"#utility.yul\":13582:13588   */\n      dup6\n        /* \"#utility.yul\":13544:13609   */\n      tag_281\n      jump\t// in\n    tag_342:\n        /* \"#utility.yul\":13656:13665   */\n      dup2\n        /* \"#utility.yul\":13650:13654   */\n      dup2\n        /* \"#utility.yul\":13646:13666   */\n      sub\n        /* \"#utility.yul\":13641:13643   */\n      0x20\n        /* \"#utility.yul\":13630:13639   */\n      dup4\n        /* \"#utility.yul\":13626:13644   */\n      add\n        /* \"#utility.yul\":13619:13667   */\n      mstore\n        /* \"#utility.yul\":13684:13760   */\n      tag_343\n        /* \"#utility.yul\":13755:13759   */\n      dup2\n        /* \"#utility.yul\":13746:13752   */\n      dup5\n        /* \"#utility.yul\":13684:13760   */\n      tag_285\n      jump\t// in\n    tag_343:\n        /* \"#utility.yul\":13676:13760   */\n      swap1\n      pop\n        /* \"#utility.yul\":13360:13767   */\n      swap4\n      swap3\n      pop\n      pop\n      pop\n      jump\t// out\n        /* \"#utility.yul\":13773:14192   */\n    tag_60:\n        /* \"#utility.yul\":13939:13943   */\n      0x00\n        /* \"#utility.yul\":13977:13979   */\n      0x20\n        /* \"#utility.yul\":13966:13975   */\n      dup3\n        /* \"#utility.yul\":13962:13980   */\n      add\n        /* \"#utility.yul\":13954:13980   */\n      swap1\n      pop\n        /* \"#utility.yul\":14026:14035   */\n      dup2\n        /* \"#utility.yul\":14020:14024   */\n      dup2\n        /* \"#utility.yul\":14016:14036   */\n      sub\n        /* \"#utility.yul\":14012:14013   */\n      0x00\n        /* \"#utility.yul\":14001:14010   */\n      dup4\n        /* \"#utility.yul\":13997:14014   */\n      add\n        /* \"#utility.yul\":13990:14037   */\n      mstore\n        /* \"#utility.yul\":14054:14185   */\n      tag_345\n        /* \"#utility.yul\":14180:14184   */\n      dup2\n        /* \"#utility.yul\":14054:14185   */\n      tag_308\n      jump\t// in\n    tag_345:\n        /* \"#utility.yul\":14046:14185   */\n      swap1\n      pop\n        /* \"#utility.yul\":13773:14192   */\n      swap2\n      swap1\n      pop\n      jump\t// out\n        /* \"#utility.yul\":14198:14420   */\n    tag_26:\n        /* \"#utility.yul\":14291:14295   */\n      0x00\n        /* \"#utility.yul\":14329:14331   */\n      0x20\n        /* \"#utility.yul\":14318:14327   */\n      dup3\n        /* \"#utility.yul\":14314:14332   */\n      add\n        /* \"#utility.yul\":14306:14332   */\n      swap1\n      pop\n        /* \"#utility.yul\":14342:14413   */\n      tag_347\n        /* \"#utility.yul\":14410:14411   */\n      0x00\n        /* \"#utility.yul\":14399:14408   */\n      dup4\n        /* \"#utility.yul\":14395:14412   */\n      add\n        /* \"#utility.yul\":14386:14392   */\n      dup5\n        /* \"#utility.yul\":14342:14413   */\n      tag_319\n      jump\t// in\n    tag_347:\n        /* \"#utility.yul\":14198:14420   */\n      swap3\n      swap2\n      pop\n      pop\n      jump\t// out\n        /* \"#utility.yul\":14426:15241   */\n    tag_145:\n        /* \"#utility.yul\":14681:14685   */\n      0x00\n        /* \"#utility.yul\":14719:14722   */\n      0xa0\n        /* \"#utility.yul\":14708:14717   */\n      dup3\n        /* \"#utility.yul\":14704:14723   */\n      add\n        /* \"#utility.yul\":14696:14723   */\n      swap1\n      pop\n        /* \"#utility.yul\":14733:14804   */\n      tag_349\n        /* \"#utility.yul\":14801:14802   */\n      0x00\n        /* \"#utility.yul\":14790:14799   */\n      dup4\n        /* \"#utility.yul\":14786:14803   */\n      add\n        /* \"#utility.yul\":14777:14783   */\n      dup9\n        /* \"#utility.yul\":14733:14804   */\n      tag_319\n      jump\t// in\n    tag_349:\n        /* \"#utility.yul\":14814:14886   */\n      tag_350\n        /* \"#utility.yul\":14882:14884   */\n      0x20\n        /* \"#utility.yul\":14871:14880   */\n      dup4\n        /* \"#utility.yul\":14867:14885   */\n      add\n        /* \"#utility.yul\":14858:14864   */\n      dup8\n        /* \"#utility.yul\":14814:14886   */\n      tag_319\n      jump\t// in\n    tag_350:\n        /* \"#utility.yul\":14933:14942   */\n      dup2\n        /* \"#utility.yul\":14927:14931   */\n      dup2\n        /* \"#utility.yul\":14923:14943   */\n      sub\n        /* \"#utility.yul\":14918:14920   */\n      0x40\n        /* \"#utility.yul\":14907:14916   */\n      dup4\n        /* \"#utility.yul\":14903:14921   */\n      add\n        /* \"#utility.yul\":14896:14944   */\n      mstore\n        /* \"#utility.yul\":14961:15069   */\n      tag_351\n        /* \"#utility.yul\":15064:15068   */\n      dup2\n        /* \"#utility.yul\":15055:15061   */\n      dup7\n        /* \"#utility.yul\":14961:15069   */\n      tag_267\n      jump\t// in\n    tag_351:\n        /* \"#utility.yul\":14953:15069   */\n      swap1\n      pop\n        /* \"#utility.yul\":15079:15151   */\n      tag_352\n        /* \"#utility.yul\":15147:15149   */\n      0x60\n        /* \"#utility.yul\":15136:15145   */\n      dup4\n        /* \"#utility.yul\":15132:15150   */\n      add\n        /* \"#utility.yul\":15123:15129   */\n      dup6\n        /* \"#utility.yul\":15079:15151   */\n      tag_264\n      jump\t// in\n    tag_352:\n        /* \"#utility.yul\":15161:15234   */\n      tag_353\n        /* \"#utility.yul\":15229:15232   */\n      0x80\n        /* \"#utility.yul\":15218:15227   */\n      dup4\n        /* \"#utility.yul\":15214:15233   */\n      add\n        /* \"#utility.yul\":15205:15211   */\n      dup5\n        /* \"#utility.yul\":15161:15234   */\n      tag_319\n      jump\t// in\n    tag_353:\n        /* \"#utility.yul\":14426:15241   */\n      swap7\n      swap6\n      pop\n      pop\n      pop\n      pop\n      pop\n      pop\n      jump\t// out\n        /* \"#utility.yul\":15247:15376   */\n    tag_157:\n        /* \"#utility.yul\":15281:15287   */\n      0x00\n        /* \"#utility.yul\":15308:15328   */\n      tag_355\n      tag_356\n      jump\t// in\n    tag_355:\n        /* \"#utility.yul\":15298:15328   */\n      swap1\n      pop\n        /* \"#utility.yul\":15337:15370   */\n      tag_357\n        /* \"#utility.yul\":15365:15369   */\n      dup3\n        /* \"#utility.yul\":15357:15363   */\n      dup3\n        /* \"#utility.yul\":15337:15370   */\n      tag_358\n      jump\t// in\n    tag_357:\n        /* \"#utility.yul\":15247:15376   */\n      swap2\n      swap1\n      pop\n      jump\t// out\n        /* \"#utility.yul\":15382:15457   */\n    tag_356:\n        /* \"#utility.yul\":15415:15421   */\n      0x00\n        /* \"#utility.yul\":15448:15450   */\n      0x40\n        /* \"#utility.yul\":15442:15451   */\n      mload\n        /* \"#utility.yul\":15432:15451   */\n      swap1\n      pop\n        /* \"#utility.yul\":15382:15457   */\n      swap1\n      jump\t// out\n        /* \"#utility.yul\":15463:15774   */\n    tag_156:\n        /* \"#utility.yul\":15540:15544   */\n      0x00\n        /* \"#utility.yul\":15630:15648   */\n      0xffffffffffffffff\n        /* \"#utility.yul\":15622:15628   */\n      dup3\n        /* \"#utility.yul\":15619:15649   */\n      gt\n        /* \"#utility.yul\":15616:15672   */\n      iszero\n      tag_361\n      jumpi\n        /* \"#utility.yul\":15652:15670   */\n      tag_362\n      tag_128\n      jump\t// in\n    tag_362:\n        /* \"#utility.yul\":15616:15672   */\n    tag_361:\n        /* \"#utility.yul\":15702:15706   */\n      0x20\n        /* \"#utility.yul\":15694:15700   */\n      dup3\n        /* \"#utility.yul\":15690:15707   */\n      mul\n        /* \"#utility.yul\":15682:15707   */\n      swap1\n      pop\n        /* \"#utility.yul\":15762:15766   */\n      0x20\n        /* \"#utility.yul\":15756:15760   */\n      dup2\n        /* \"#utility.yul\":15752:15767   */\n      add\n        /* \"#utility.yul\":15744:15767   */\n      swap1\n      pop\n        /* \"#utility.yul\":15463:15774   */\n      swap2\n      swap1\n      pop\n      jump\t// out\n        /* \"#utility.yul\":15780:16088   */\n    tag_170:\n        /* \"#utility.yul\":15842:15846   */\n      0x00\n        /* \"#utility.yul\":15932:15950   */\n      0xffffffffffffffff\n        /* \"#utility.yul\":15924:15930   */\n      dup3\n        /* \"#utility.yul\":15921:15951   */\n      gt\n        /* \"#utility.yul\":15918:15974   */\n      iszero\n      tag_364\n      jumpi\n        /* \"#utility.yul\":15954:15972   */\n      tag_365\n      tag_128\n      jump\t// in\n    tag_365:\n        /* \"#utility.yul\":15918:15974   */\n    tag_364:\n        /* \"#utility.yul\":15992:16021   */\n      tag_366\n        /* \"#utility.yul\":16014:16020   */\n      dup3\n        /* \"#utility.yul\":15992:16021   */\n      tag_294\n      jump\t// in\n    tag_366:\n        /* \"#utility.yul\":15984:16021   */\n      swap1\n      pop\n        /* \"#utility.yul\":16076:16080   */\n      0x20\n        /* \"#utility.yul\":16070:16074   */\n      dup2\n        /* \"#utility.yul\":16066:16081   */\n      add\n        /* \"#utility.yul\":16058:16081   */\n      swap1\n      pop\n        /* \"#utility.yul\":15780:16088   */\n      swap2\n      swap1\n      pop\n      jump\t// out\n        /* \"#utility.yul\":16094:16226   */\n    tag_274:\n        /* \"#utility.yul\":16161:16165   */\n      0x00\n        /* \"#utility.yul\":16184:16187   */\n      dup2\n        /* \"#utility.yul\":16176:16187   */\n      swap1\n      pop\n        /* \"#utility.yul\":16214:16218   */\n      0x20\n        /* \"#utility.yul\":16209:16212   */\n      dup3\n        /* \"#utility.yul\":16205:16219   */\n      add\n        /* \"#utility.yul\":16197:16219   */\n      swap1\n      pop\n        /* \"#utility.yul\":16094:16226   */\n      swap2\n      swap1\n      pop\n      jump\t// out\n        /* \"#utility.yul\":16232:16346   */\n    tag_270:\n        /* \"#utility.yul\":16299:16305   */\n      0x00\n        /* \"#utility.yul\":16333:16338   */\n      dup2\n        /* \"#utility.yul\":16327:16339   */\n      mload\n        /* \"#utility.yul\":16317:16339   */\n      swap1\n      pop\n        /* \"#utility.yul\":16232:16346   */\n      swap2\n      swap1\n      pop\n      jump\t// out\n        /* \"#utility.yul\":16352:16450   */\n    tag_288:\n        /* \"#utility.yul\":16403:16409   */\n      0x00\n        /* \"#utility.yul\":16437:16442   */\n      dup2\n        /* \"#utility.yul\":16431:16443   */\n      mload\n        /* \"#utility.yul\":16421:16443   */\n      swap1\n      pop\n        /* \"#utility.yul\":16352:16450   */\n      swap2\n      swap1\n      pop\n      jump\t// out\n        /* \"#utility.yul\":16456:16555   */\n    tag_304:\n        /* \"#utility.yul\":16508:16514   */\n      0x00\n        /* \"#utility.yul\":16542:16547   */\n      dup2\n        /* \"#utility.yul\":16536:16548   */\n      mload\n        /* \"#utility.yul\":16526:16548   */\n      swap1\n      pop\n        /* \"#utility.yul\":16456:16555   */\n      swap2\n      swap1\n      pop\n      jump\t// out\n        /* \"#utility.yul\":16561:16674   */\n    tag_280:\n        /* \"#utility.yul\":16631:16635   */\n      0x00\n        /* \"#utility.yul\":16663:16667   */\n      0x20\n        /* \"#utility.yul\":16658:16661   */\n      dup3\n        /* \"#utility.yul\":16654:16668   */\n      add\n        /* \"#utility.yul\":16646:16668   */\n      swap1\n      pop\n        /* \"#utility.yul\":16561:16674   */\n      swap2\n      swap1\n      pop\n      jump\t// out\n        /* \"#utility.yul\":16680:16864   */\n    tag_272:\n        /* \"#utility.yul\":16779:16790   */\n      0x00\n        /* \"#utility.yul\":16813:16819   */\n      dup3\n        /* \"#utility.yul\":16808:16811   */\n      dup3\n        /* \"#utility.yul\":16801:16820   */\n      mstore\n        /* \"#utility.yul\":16853:16857   */\n      0x20\n        /* \"#utility.yul\":16848:16851   */\n      dup3\n        /* \"#utility.yul\":16844:16858   */\n      add\n        /* \"#utility.yul\":16829:16858   */\n      swap1\n      pop\n        /* \"#utility.yul\":16680:16864   */\n      swap3\n      swap2\n      pop\n      pop\n      jump\t// out\n        /* \"#utility.yul\":16870:17038   */\n    tag_290:\n        /* \"#utility.yul\":16953:16964   */\n      0x00\n        /* \"#utility.yul\":16987:16993   */\n      dup3\n        /* \"#utility.yul\":16982:16985   */\n      dup3\n        /* \"#utility.yul\":16975:16994   */\n      mstore\n        /* \"#utility.yul\":17027:17031   */\n      0x20\n        /* \"#utility.yul\":17022:17025   */\n      dup3\n        /* \"#utility.yul\":17018:17032   */\n      add\n        /* \"#utility.yul\":17003:17032   */\n      swap1\n      pop\n        /* \"#utility.yul\":16870:17038   */\n      swap3\n      swap2\n      pop\n      pop\n      jump\t// out\n        /* \"#utility.yul\":17044:17191   */\n    tag_299:\n        /* \"#utility.yul\":17145:17156   */\n      0x00\n        /* \"#utility.yul\":17182:17185   */\n      dup2\n        /* \"#utility.yul\":17167:17185   */\n      swap1\n      pop\n        /* \"#utility.yul\":17044:17191   */\n      swap3\n      swap2\n      pop\n      pop\n      jump\t// out\n        /* \"#utility.yul\":17197:17366   */\n    tag_311:\n        /* \"#utility.yul\":17281:17292   */\n      0x00\n        /* \"#utility.yul\":17315:17321   */\n      dup3\n        /* \"#utility.yul\":17310:17313   */\n      dup3\n        /* \"#utility.yul\":17303:17322   */\n      mstore\n        /* \"#utility.yul\":17355:17359   */\n      0x20\n        /* \"#utility.yul\":17350:17353   */\n      dup3\n        /* \"#utility.yul\":17346:17360   */\n      add\n        /* \"#utility.yul\":17331:17360   */\n      swap1\n      pop\n        /* \"#utility.yul\":17197:17366   */\n      swap3\n      swap2\n      pop\n      pop\n      jump\t// out\n        /* \"#utility.yul\":17372:17520   */\n    tag_306:\n        /* \"#utility.yul\":17474:17485   */\n      0x00\n        /* \"#utility.yul\":17511:17514   */\n      dup2\n        /* \"#utility.yul\":17496:17514   */\n      swap1\n      pop\n        /* \"#utility.yul\":17372:17520   */\n      swap3\n      swap2\n      pop\n      pop\n      jump\t// out\n        /* \"#utility.yul\":17526:17622   */\n    tag_263:\n        /* \"#utility.yul\":17563:17570   */\n      0x00\n        /* \"#utility.yul\":17592:17616   */\n      tag_378\n        /* \"#utility.yul\":17610:17615   */\n      dup3\n        /* \"#utility.yul\":17592:17616   */\n      tag_379\n      jump\t// in\n    tag_378:\n        /* \"#utility.yul\":17581:17616   */\n      swap1\n      pop\n        /* \"#utility.yul\":17526:17622   */\n      swap2\n      swap1\n      pop\n      jump\t// out\n        /* \"#utility.yul\":17628:17718   */\n    tag_284:\n        /* \"#utility.yul\":17662:17669   */\n      0x00\n        /* \"#utility.yul\":17705:17710   */\n      dup2\n        /* \"#utility.yul\":17698:17711   */\n      iszero\n        /* \"#utility.yul\":17691:17712   */\n      iszero\n        /* \"#utility.yul\":17680:17712   */\n      swap1\n      pop\n        /* \"#utility.yul\":17628:17718   */\n      swap2\n      swap1\n      pop\n      jump\t// out\n        /* \"#utility.yul\":17724:17850   */\n    tag_379:\n        /* \"#utility.yul\":17761:17768   */\n      0x00\n        /* \"#utility.yul\":17801:17843   */\n      0xffffffffffffffffffffffffffffffffffffffff\n        /* \"#utility.yul\":17794:17799   */\n      dup3\n        /* \"#utility.yul\":17790:17844   */\n      and\n        /* \"#utility.yul\":17779:17844   */\n      swap1\n      pop\n        /* \"#utility.yul\":17724:17850   */\n      swap2\n      swap1\n      pop\n      jump\t// out\n        /* \"#utility.yul\":17856:17933   */\n    tag_322:\n        /* \"#utility.yul\":17893:17900   */\n      0x00\n        /* \"#utility.yul\":17922:17927   */\n      dup2\n        /* \"#utility.yul\":17911:17927   */\n      swap1\n      pop\n        /* \"#utility.yul\":17856:17933   */\n      swap2\n      swap1\n      pop\n      jump\t// out\n        /* \"#utility.yul\":17939:18093   */\n    tag_175:\n        /* \"#utility.yul\":18023:18029   */\n      dup3\n        /* \"#utility.yul\":18018:18021   */\n      dup2\n        /* \"#utility.yul\":18013:18016   */\n      dup4\n        /* \"#utility.yul\":18000:18030   */\n      calldatacopy\n        /* \"#utility.yul\":18085:18086   */\n      0x00\n        /* \"#utility.yul\":18076:18082   */\n      dup4\n        /* \"#utility.yul\":18071:18074   */\n      dup4\n        /* \"#utility.yul\":18067:18083   */\n      add\n        /* \"#utility.yul\":18060:18087   */\n      mstore\n        /* \"#utility.yul\":17939:18093   */\n      pop\n      pop\n      pop\n      jump\t// out\n        /* \"#utility.yul\":18099:18406   */\n    tag_292:\n        /* \"#utility.yul\":18167:18168   */\n      0x00\n        /* \"#utility.yul\":18177:18290   */\n    tag_385:\n        /* \"#utility.yul\":18191:18197   */\n      dup4\n        /* \"#utility.yul\":18188:18189   */\n      dup2\n        /* \"#utility.yul\":18185:18198   */\n      lt\n        /* \"#utility.yul\":18177:18290   */\n      iszero\n      tag_387\n      jumpi\n        /* \"#utility.yul\":18276:18277   */\n      dup1\n        /* \"#utility.yul\":18271:18274   */\n      dup3\n        /* \"#utility.yul\":18267:18278   */\n      add\n        /* \"#utility.yul\":18261:18279   */\n      mload\n        /* \"#utility.yul\":18257:18258   */\n      dup2\n        /* \"#utility.yul\":18252:18255   */\n      dup5\n        /* \"#utility.yul\":18248:18259   */\n      add\n        /* \"#utility.yul\":18241:18280   */\n      mstore\n        /* \"#utility.yul\":18213:18215   */\n      0x20\n        /* \"#utility.yul\":18210:18211   */\n      dup2\n        /* \"#utility.yul\":18206:18216   */\n      add\n        /* \"#utility.yul\":18201:18216   */\n      swap1\n      pop\n        /* \"#utility.yul\":18177:18290   */\n      jump(tag_385)\n    tag_387:\n        /* \"#utility.yul\":18308:18314   */\n      dup4\n        /* \"#utility.yul\":18305:18306   */\n      dup2\n        /* \"#utility.yul\":18302:18315   */\n      gt\n        /* \"#utility.yul\":18299:18400   */\n      iszero\n      tag_388\n      jumpi\n        /* \"#utility.yul\":18388:18389   */\n      0x00\n        /* \"#utility.yul\":18379:18385   */\n      dup5\n        /* \"#utility.yul\":18374:18377   */\n      dup5\n        /* \"#utility.yul\":18370:18386   */\n      add\n        /* \"#utility.yul\":18363:18390   */\n      mstore\n        /* \"#utility.yul\":18299:18400   */\n    tag_388:\n        /* \"#utility.yul\":18148:18406   */\n      pop\n        /* \"#utility.yul\":18099:18406   */\n      pop\n      pop\n      pop\n      jump\t// out\n        /* \"#utility.yul\":18412:18693   */\n    tag_358:\n        /* \"#utility.yul\":18495:18522   */\n      tag_390\n        /* \"#utility.yul\":18517:18521   */\n      dup3\n        /* \"#utility.yul\":18495:18522   */\n      tag_294\n      jump\t// in\n    tag_390:\n        /* \"#utility.yul\":18487:18493   */\n      dup2\n        /* \"#utility.yul\":18483:18523   */\n      add\n        /* \"#utility.yul\":18625:18631   */\n      dup2\n        /* \"#utility.yul\":18613:18623   */\n      dup2\n        /* \"#utility.yul\":18610:18632   */\n      lt\n        /* \"#utility.yul\":18589:18607   */\n      0xffffffffffffffff\n        /* \"#utility.yul\":18577:18587   */\n      dup3\n        /* \"#utility.yul\":18574:18608   */\n      gt\n        /* \"#utility.yul\":18571:18633   */\n      or\n        /* \"#utility.yul\":18568:18656   */\n      iszero\n      tag_391\n      jumpi\n        /* \"#utility.yul\":18636:18654   */\n      tag_392\n      tag_128\n      jump\t// in\n    tag_392:\n        /* \"#utility.yul\":18568:18656   */\n    tag_391:\n        /* \"#utility.yul\":18676:18686   */\n      dup1\n        /* \"#utility.yul\":18672:18674   */\n      0x40\n        /* \"#utility.yul\":18665:18687   */\n      mstore\n        /* \"#utility.yul\":18455:18693   */\n      pop\n        /* \"#utility.yul\":18412:18693   */\n      pop\n      pop\n      jump\t// out\n        /* \"#utility.yul\":18699:18879   */\n    tag_133:\n        /* \"#utility.yul\":18747:18824   */\n      0x4e487b7100000000000000000000000000000000000000000000000000000000\n        /* \"#utility.yul\":18744:18745   */\n      0x00\n        /* \"#utility.yul\":18737:18825   */\n      mstore\n        /* \"#utility.yul\":18844:18848   */\n      0x32\n        /* \"#utility.yul\":18841:18842   */\n      0x04\n        /* \"#utility.yul\":18834:18849   */\n      mstore\n        /* \"#utility.yul\":18868:18872   */\n      0x24\n        /* \"#utility.yul\":18865:18866   */\n      0x00\n        /* \"#utility.yul\":18858:18873   */\n      revert\n        /* \"#utility.yul\":18885:19065   */\n    tag_128:\n        /* \"#utility.yul\":18933:19010   */\n      0x4e487b7100000000000000000000000000000000000000000000000000000000\n        /* \"#utility.yul\":18930:18931   */\n      0x00\n        /* \"#utility.yul\":18923:19011   */\n      mstore\n        /* \"#utility.yul\":19030:19034   */\n      0x41\n        /* \"#utility.yul\":19027:19028   */\n      0x04\n        /* \"#utility.yul\":19020:19035   */\n      mstore\n        /* \"#utility.yul\":19054:19058   */\n      0x24\n        /* \"#utility.yul\":19051:19052   */\n      0x00\n        /* \"#utility.yul\":19044:19059   */\n      revert\n        /* \"#utility.yul\":19071:19188   */\n    tag_184:\n        /* \"#utility.yul\":19180:19181   */\n      0x00\n        /* \"#utility.yul\":19177:19178   */\n      dup1\n        /* \"#utility.yul\":19170:19182   */\n      revert\n        /* \"#utility.yul\":19194:19311   */\n    tag_160:\n        /* \"#utility.yul\":19303:19304   */\n      0x00\n        /* \"#utility.yul\":19300:19301   */\n      dup1\n        /* \"#utility.yul\":19293:19305   */\n      revert\n        /* \"#utility.yul\":19317:19434   */\n    tag_173:\n        /* \"#utility.yul\":19426:19427   */\n      0x00\n        /* \"#utility.yul\":19423:19424   */\n      dup1\n        /* \"#utility.yul\":19416:19428   */\n      revert\n        /* \"#utility.yul\":19440:19557   */\n    tag_207:\n        /* \"#utility.yul\":19549:19550   */\n      0x00\n        /* \"#utility.yul\":19546:19547   */\n      dup1\n        /* \"#utility.yul\":19539:19551   */\n      revert\n        /* \"#utility.yul\":19563:19680   */\n    tag_204:\n        /* \"#utility.yul\":19672:19673   */\n      0x00\n        /* \"#utility.yul\":19669:19670   */\n      dup1\n        /* \"#utility.yul\":19662:19674   */\n      revert\n        /* \"#utility.yul\":19686:19788   */\n    tag_294:\n        /* \"#utility.yul\":19727:19733   */\n      0x00\n        /* \"#utility.yul\":19778:19780   */\n      0x1f\n        /* \"#utility.yul\":19774:19781   */\n      not\n        /* \"#utility.yul\":19769:19771   */\n      0x1f\n        /* \"#utility.yul\":19762:19767   */\n      dup4\n        /* \"#utility.yul\":19758:19772   */\n      add\n        /* \"#utility.yul\":19754:19782   */\n      and\n        /* \"#utility.yul\":19744:19782   */\n      swap1\n      pop\n        /* \"#utility.yul\":19686:19788   */\n      swap2\n      swap1\n      pop\n      jump\t// out\n        /* \"#utility.yul\":19794:20037   */\n    tag_313:\n        /* \"#utility.yul\":19934:19968   */\n      0x455243323020636f6e747261637420686173206e6f7420676976656e20706572\n        /* \"#utility.yul\":19930:19931   */\n      0x00\n        /* \"#utility.yul\":19922:19928   */\n      dup3\n        /* \"#utility.yul\":19918:19932   */\n      add\n        /* \"#utility.yul\":19911:19969   */\n      mstore\n        /* \"#utility.yul\":20003:20029   */\n      0x6d697373696f6e20746f207468697320616464726573732e0000000000000000\n        /* \"#utility.yul\":19998:20000   */\n      0x20\n        /* \"#utility.yul\":19990:19996   */\n      dup3\n        /* \"#utility.yul\":19986:20001   */\n      add\n        /* \"#utility.yul\":19979:20030   */\n      mstore\n        /* \"#utility.yul\":19794:20037   */\n      pop\n      jump\t// out\n        /* \"#utility.yul\":20043:20199   */\n    tag_318:\n        /* \"#utility.yul\":20183:20191   */\n      0x574d415449430000000000000000000000000000000000000000000000000000\n        /* \"#utility.yul\":20179:20180   */\n      0x00\n        /* \"#utility.yul\":20171:20177   */\n      dup3\n        /* \"#utility.yul\":20167:20181   */\n      add\n        /* \"#utility.yul\":20160:20192   */\n      mstore\n        /* \"#utility.yul\":20043:20199   */\n      pop\n      jump\t// out\n        /* \"#utility.yul\":20205:20327   */\n    tag_179:\n        /* \"#utility.yul\":20278:20302   */\n      tag_404\n        /* \"#utility.yul\":20296:20301   */\n      dup2\n        /* \"#utility.yul\":20278:20302   */\n      tag_263\n      jump\t// in\n    tag_404:\n        /* \"#utility.yul\":20271:20276   */\n      dup2\n        /* \"#utility.yul\":20268:20303   */\n      eq\n        /* \"#utility.yul\":20258:20321   */\n      tag_405\n      jumpi\n        /* \"#utility.yul\":20317:20318   */\n      0x00\n        /* \"#utility.yul\":20314:20315   */\n      dup1\n        /* \"#utility.yul\":20307:20319   */\n      revert\n        /* \"#utility.yul\":20258:20321   */\n    tag_405:\n        /* \"#utility.yul\":20205:20327   */\n      pop\n      jump\t// out\n        /* \"#utility.yul\":20333:20449   */\n    tag_189:\n        /* \"#utility.yul\":20403:20424   */\n      tag_407\n        /* \"#utility.yul\":20418:20423   */\n      dup2\n        /* \"#utility.yul\":20403:20424   */\n      tag_284\n      jump\t// in\n    tag_407:\n        /* \"#utility.yul\":20396:20401   */\n      dup2\n        /* \"#utility.yul\":20393:20425   */\n      eq\n        /* \"#utility.yul\":20383:20443   */\n      tag_408\n      jumpi\n        /* \"#utility.yul\":20439:20440   */\n      0x00\n        /* \"#utility.yul\":20436:20437   */\n      dup1\n        /* \"#utility.yul\":20429:20441   */\n      revert\n        /* \"#utility.yul\":20383:20443   */\n    tag_408:\n        /* \"#utility.yul\":20333:20449   */\n      pop\n      jump\t// out\n        /* \"#utility.yul\":20455:20577   */\n    tag_198:\n        /* \"#utility.yul\":20528:20552   */\n      tag_410\n        /* \"#utility.yul\":20546:20551   */\n      dup2\n        /* \"#utility.yul\":20528:20552   */\n      tag_322\n      jump\t// in\n    tag_410:\n        /* \"#utility.yul\":20521:20526   */\n      dup2\n        /* \"#utility.yul\":20518:20553   */\n      eq\n        /* \"#utility.yul\":20508:20571   */\n      tag_411\n      jumpi\n        /* \"#utility.yul\":20567:20568   */\n      0x00\n        /* \"#utility.yul\":20564:20565   */\n      dup1\n        /* \"#utility.yul\":20557:20569   */\n      revert\n        /* \"#utility.yul\":20508:20571   */\n    tag_411:\n        /* \"#utility.yul\":20455:20577   */\n      pop\n      jump\t// out\n\n    auxdata: 0xa26469706673582212201358d31eff1884f4a0965d6b9e663f997b5b6376773acd8d6578eef29ef73e9864736f6c63430008070033\n}\n",
				"bytecode": {
					"linkReferences": {},
					"object": "60806040523480156200001157600080fd5b5033600160006101000a81548173ffffffffffffffffffffffffffffffffffffffff021916908373ffffffffffffffffffffffffffffffffffffffff1602179055506040518060400160405280738f3cf7ad23cd3cadbd9735aff958023239c6a06373ffffffffffffffffffffffffffffffffffffffff16815260200160128152506000604051620000a390620006a4565b908152602001604051809103902060008201518160000160006101000a81548173ffffffffffffffffffffffffffffffffffffffff021916908373ffffffffffffffffffffffffffffffffffffffff160217905550602082015181600101559050506040518060400160405280737ceb23fd6bc0add59e62ac25578270cff1b9f61973ffffffffffffffffffffffffffffffffffffffff16815260200160128152506000604051620001559062000648565b908152602001604051809103902060008201518160000160006101000a81548173ffffffffffffffffffffffffffffffffffffffff021916908373ffffffffffffffffffffffffffffffffffffffff160217905550602082015181600101559050506040518060400160405280730d500b1d8e8ef31e21c99d1db9a6444d3adf127073ffffffffffffffffffffffffffffffffffffffff168152602001601281525060006040516200020790620006d2565b908152602001604051809103902060008201518160000160006101000a81548173ffffffffffffffffffffffffffffffffffffffff021916908373ffffffffffffffffffffffffffffffffffffffff160217905550602082015181600101559050506040518060400160405280732791bca1f2de4661ed88a30c99a7a9449aa8417473ffffffffffffffffffffffffffffffffffffffff16815260200160068152506000604051620002b990620006bb565b908152602001604051809103902060008201518160000160006101000a81548173ffffffffffffffffffffffffffffffffffffffff021916908373ffffffffffffffffffffffffffffffffffffffff16021790555060208201518160010155905050604051806040016040528073c2132d05d31c914a87c6611c10748aeb04b58e8f73ffffffffffffffffffffffffffffffffffffffff168152602001600681525060006040516200036b9062000676565b908152602001604051809103902060008201518160000160006101000a81548173ffffffffffffffffffffffffffffffffffffffff021916908373ffffffffffffffffffffffffffffffffffffffff160217905550602082015181600101559050506040518060400160405280731bfd67037b42cf73acf2047067bd4f2c47d9bfd673ffffffffffffffffffffffffffffffffffffffff168152602001600881525060006040516200041d906200068d565b908152602001604051809103902060008201518160000160006101000a81548173ffffffffffffffffffffffffffffffffffffffff021916908373ffffffffffffffffffffffffffffffffffffffff16021790555060208201518160010155905050604051806040016040528073f28164a485b0b2c90639e47b0f377b4a438a16b173ffffffffffffffffffffffffffffffffffffffff16815260200160128152506000604051620004cf906200065f565b908152602001604051809103902060008201518160000160006101000a81548173ffffffffffffffffffffffffffffffffffffffff021916908373ffffffffffffffffffffffffffffffffffffffff1602179055506020820151816001015590505062000813565b600062000546600483620006e9565b91506200055382620006f4565b600482019050919050565b60006200056d600683620006e9565b91506200057a826200071d565b600682019050919050565b600062000594600483620006e9565b9150620005a18262000746565b600482019050919050565b6000620005bb600483620006e9565b9150620005c8826200076f565b600482019050919050565b6000620005e2600383620006e9565b9150620005ef8262000798565b600382019050919050565b600062000609600483620006e9565b91506200061682620007c1565b600482019050919050565b600062000630600683620006e9565b91506200063d82620007ea565b600682019050919050565b6000620006558262000537565b9150819050919050565b60006200066c826200055e565b9150819050919050565b6000620006838262000585565b9150819050919050565b60006200069a82620005ac565b9150819050919050565b6000620006b182620005d3565b9150819050919050565b6000620006c882620005fa565b9150819050919050565b6000620006df8262000621565b9150819050919050565b600081905092915050565b7f5745544800000000000000000000000000000000000000000000000000000000600082015250565b7f44515549434b0000000000000000000000000000000000000000000000000000600082015250565b7f5553445400000000000000000000000000000000000000000000000000000000600082015250565b7f5742544300000000000000000000000000000000000000000000000000000000600082015250565b7f4441490000000000000000000000000000000000000000000000000000000000600082015250565b7f5553444300000000000000000000000000000000000000000000000000000000600082015250565b7f574d415449430000000000000000000000000000000000000000000000000000600082015250565b6117fd80620008236000396000f3fe6080604052600436106100745760003560e01c80639bc97dee1161004e5780639bc97dee146100f0578063c3a4840114610119578063e4386ba314610156578063f809a2e6146101935761007b565b80637552acd6146100805780637b60eb23146100a95780637d3683ba146100b35761007b565b3661007b57005b600080fd5b34801561008c57600080fd5b506100a760048036038101906100a29190610fd4565b6101bc565b005b6100b16103a8565b005b3480156100bf57600080fd5b506100da60048036038101906100d59190610f2f565b6105e5565b6040516100e79190611449565b60405180910390f35b3480156100fc57600080fd5b5061011760048036038101906101129190611043565b6106b7565b005b34801561012557600080fd5b50610140600480360381019061013b9190610f78565b6108a2565b60405161014d9190611449565b60405180910390f35b34801561016257600080fd5b5061017d60048036038101906101789190610f2f565b610975565b60405161018a9190611449565b60405180910390f35b34801561019f57600080fd5b506101ba60048036038101906101b591906110cc565b610a47565b005b6000836040516101cc9190611329565b908152602001604051809103902060000160009054906101000a900473ffffffffffffffffffffffffffffffffffffffff16338383808473ffffffffffffffffffffffffffffffffffffffff1663dd62ed3e85856040518363ffffffff1660e01b815260040161023d929190611370565b60206040518083038186803b15801561025557600080fd5b505afa158015610269573d6000803e3d6000fd5b505050506040513d601f19601f8201168201806040525081019061028d919061109f565b10156102ce576040517f08c379a00000000000000000000000000000000000000000000000000000000081526004016102c590611429565b60405180910390fd5b6000876040516102de9190611329565b908152602001604051809103902060000160009054906101000a900473ffffffffffffffffffffffffffffffffffffffff1673ffffffffffffffffffffffffffffffffffffffff166323b872dd3388886040518463ffffffff1660e01b815260040161034c93929190611399565b602060405180830381600087803b15801561036657600080fd5b505af115801561037a573d6000803e3d6000fd5b505050506040513d601f19601f8201168201806040525081019061039e9190610f02565b5050505050505050565b60008060006040516103b990611340565b908152602001604051809103902060000160009054906101000a900473ffffffffffffffffffffffffffffffffffffffff1673ffffffffffffffffffffffffffffffffffffffff16346040516024016040516020818303038152906040527fc5d24601000000000000000000000000000000000000000000000000000000007bffffffffffffffffffffffffffffffffffffffffffffffffffffffff19166020820180517bffffffffffffffffffffffffffffffffffffffffffffffffffffffff83818316178352505050506040516104929190611312565b60006040518083038185875af1925050503d80600081146104cf576040519150601f19603f3d011682016040523d82523d6000602084013e6104d4565b606091505b509150915060006040516104e790611340565b908152602001604051809103902060000160009054906101000a900473ffffffffffffffffffffffffffffffffffffffff1673ffffffffffffffffffffffffffffffffffffffff166323b872dd3033346040518463ffffffff1660e01b815260040161055593929190611399565b602060405180830381600087803b15801561056f57600080fd5b505af1158015610583573d6000803e3d6000fd5b505050506040513d601f19601f820116820180604052508101906105a79190610f02565b507f13848c3e38f8886f3f5d2ad9dff80d8092c2bbb8efd5b887a99c2c6cfc09ac2a82826040516105d99291906113f9565b60405180910390a15050565b600080826040516105f69190611329565b908152602001604051809103902060000160009054906101000a900473ffffffffffffffffffffffffffffffffffffffff1673ffffffffffffffffffffffffffffffffffffffff166370a08231336040518263ffffffff1660e01b81526004016106609190611355565b60206040518083038186803b15801561067857600080fd5b505afa15801561068c573d6000803e3d6000fd5b505050506040513d601f19601f820116820180604052508101906106b0919061109f565b9050919050565b6000826040516106c79190611329565b908152602001604051809103902060000160009054906101000a900473ffffffffffffffffffffffffffffffffffffffff16333083808473ffffffffffffffffffffffffffffffffffffffff1663dd62ed3e85856040518363ffffffff1660e01b8152600401610738929190611370565b60206040518083038186803b15801561075057600080fd5b505afa158015610764573d6000803e3d6000fd5b505050506040513d601f19601f82011682018060405250810190610788919061109f565b10156107c9576040517f08c379a00000000000000000000000000000000000000000000000000000000081526004016107c090611429565b60405180910390fd5b6000866040516107d99190611329565b908152602001604051809103902060000160009054906101000a900473ffffffffffffffffffffffffffffffffffffffff1673ffffffffffffffffffffffffffffffffffffffff166323b872dd3330886040518463ffffffff1660e01b815260040161084793929190611399565b602060405180830381600087803b15801561086157600080fd5b505af1158015610875573d6000803e3d6000fd5b505050506040513d601f19601f820116820180604052508101906108999190610f02565b50505050505050565b600080836040516108b39190611329565b908152602001604051809103902060000160009054906101000a900473ffffffffffffffffffffffffffffffffffffffff1673ffffffffffffffffffffffffffffffffffffffff166370a08231836040518263ffffffff1660e01b815260040161091d9190611355565b60206040518083038186803b15801561093557600080fd5b505afa158015610949573d6000803e3d6000fd5b505050506040513d601f19601f8201168201806040525081019061096d919061109f565b905092915050565b600080826040516109869190611329565b908152602001604051809103902060000160009054906101000a900473ffffffffffffffffffffffffffffffffffffffff1673ffffffffffffffffffffffffffffffffffffffff166370a08231306040518263ffffffff1660e01b81526004016109f09190611355565b60206040518083038186803b158015610a0857600080fd5b505afa158015610a1c573d6000803e3d6000fd5b505050506040513d601f19601f82011682018060405250810190610a40919061109f565b9050919050565b610a5183866106b7565b6000600267ffffffffffffffff811115610a6e57610a6d6116b1565b5b604051908082528060200260200182016040528015610a9c5781602001602082028036833780820191505090505b509050600084604051610aaf9190611329565b908152602001604051809103902060000160009054906101000a900473ffffffffffffffffffffffffffffffffffffffff1681600081518110610af557610af4611682565b5b602002602001019073ffffffffffffffffffffffffffffffffffffffff16908173ffffffffffffffffffffffffffffffffffffffff1681525050600083604051610b3f9190611329565b908152602001604051809103902060000160009054906101000a900473ffffffffffffffffffffffffffffffffffffffff1681600181518110610b8557610b84611682565b5b602002602001019073ffffffffffffffffffffffffffffffffffffffff16908173ffffffffffffffffffffffffffffffffffffffff1681525050600084604051610bcf9190611329565b908152602001604051809103902060000160009054906101000a900473ffffffffffffffffffffffffffffffffffffffff1673ffffffffffffffffffffffffffffffffffffffff1663095ea7b373a5e0829caced8ffdd4de3c43696c57f7d7a678ff886040518363ffffffff1660e01b8152600401610c4f9291906113d0565b602060405180830381600087803b158015610c6957600080fd5b505af1158015610c7d573d6000803e3d6000fd5b505050506040513d601f19601f82011682018060405250810190610ca19190610f02565b5073a5e0829caced8ffdd4de3c43696c57f7d7a678ff73ffffffffffffffffffffffffffffffffffffffff166338ed173987878433876040518663ffffffff1660e01b8152600401610cf7959493929190611464565b600060405180830381600087803b158015610d1157600080fd5b505af1158015610d25573d6000803e3d6000fd5b505050506040513d6000823e3d601f19601f82011682018060405250810190610d4e9190610eb9565b50505050505050565b6000610d6a610d65846114e3565b6114be565b90508083825260208201905082856020860282011115610d8d57610d8c6116e5565b5b60005b85811015610dbd5781610da38882610ea4565b845260208401935060208301925050600181019050610d90565b5050509392505050565b6000610dda610dd58461150f565b6114be565b905082815260208101848484011115610df657610df56116ea565b5b610e0184828561160f565b509392505050565b600081359050610e1881611782565b92915050565b600082601f830112610e3357610e326116e0565b5b8151610e43848260208601610d57565b91505092915050565b600081519050610e5b81611799565b92915050565b600082601f830112610e7657610e756116e0565b5b8135610e86848260208601610dc7565b91505092915050565b600081359050610e9e816117b0565b92915050565b600081519050610eb3816117b0565b92915050565b600060208284031215610ecf57610ece6116f4565b5b600082015167ffffffffffffffff811115610eed57610eec6116ef565b5b610ef984828501610e1e565b91505092915050565b600060208284031215610f1857610f176116f4565b5b6000610f2684828501610e4c565b91505092915050565b600060208284031215610f4557610f446116f4565b5b600082013567ffffffffffffffff811115610f6357610f626116ef565b5b610f6f84828501610e61565b91505092915050565b60008060408385031215610f8f57610f8e6116f4565b5b600083013567ffffffffffffffff811115610fad57610fac6116ef565b5b610fb985828601610e61565b9250506020610fca85828601610e09565b9150509250929050565b600080600060608486031215610fed57610fec6116f4565b5b600084013567ffffffffffffffff81111561100b5761100a6116ef565b5b61101786828701610e61565b935050602061102886828701610e09565b925050604061103986828701610e8f565b9150509250925092565b6000806040838503121561105a576110596116f4565b5b600083013567ffffffffffffffff811115611078576110776116ef565b5b61108485828601610e61565b925050602061109585828601610e8f565b9150509250929050565b6000602082840312156110b5576110b46116f4565b5b60006110c384828501610ea4565b91505092915050565b600080600080600060a086880312156110e8576110e76116f4565b5b60006110f688828901610e8f565b955050602061110788828901610e8f565b945050604086013567ffffffffffffffff811115611128576111276116ef565b5b61113488828901610e61565b935050606086013567ffffffffffffffff811115611155576111546116ef565b5b61116188828901610e61565b925050608061117288828901610e8f565b9150509295509295909350565b600061118b8383611197565b60208301905092915050565b6111a0816115c7565b82525050565b6111af816115c7565b82525050565b60006111c082611550565b6111ca818561157e565b93506111d583611540565b8060005b838110156112065781516111ed888261117f565b97506111f883611571565b9250506001810190506111d9565b5085935050505092915050565b61121c816115d9565b82525050565b600061122d8261155b565b611237818561158f565b935061124781856020860161161e565b611250816116f9565b840191505092915050565b60006112668261155b565b61127081856115a0565b935061128081856020860161161e565b80840191505092915050565b600061129782611566565b6112a181856115bc565b93506112b181856020860161161e565b80840191505092915050565b60006112ca6038836115ab565b91506112d58261170a565b604082019050919050565b60006112ed6006836115bc565b91506112f882611759565b600682019050919050565b61130c81611605565b82525050565b600061131e828461125b565b915081905092915050565b6000611335828461128c565b915081905092915050565b600061134b826112e0565b9150819050919050565b600060208201905061136a60008301846111a6565b92915050565b600060408201905061138560008301856111a6565b61139260208301846111a6565b9392505050565b60006060820190506113ae60008301866111a6565b6113bb60208301856111a6565b6113c86040830184611303565b949350505050565b60006040820190506113e560008301856111a6565b6113f26020830184611303565b9392505050565b600060408201905061140e6000830185611213565b81810360208301526114208184611222565b90509392505050565b60006020820190508181036000830152611442816112bd565b9050919050565b600060208201905061145e6000830184611303565b92915050565b600060a0820190506114796000830188611303565b6114866020830187611303565b818103604083015261149881866111b5565b90506114a760608301856111a6565b6114b46080830184611303565b9695505050505050565b60006114c86114d9565b90506114d48282611651565b919050565b6000604051905090565b600067ffffffffffffffff8211156114fe576114fd6116b1565b5b602082029050602081019050919050565b600067ffffffffffffffff82111561152a576115296116b1565b5b611533826116f9565b9050602081019050919050565b6000819050602082019050919050565b600081519050919050565b600081519050919050565b600081519050919050565b6000602082019050919050565b600082825260208201905092915050565b600082825260208201905092915050565b600081905092915050565b600082825260208201905092915050565b600081905092915050565b60006115d2826115e5565b9050919050565b60008115159050919050565b600073ffffffffffffffffffffffffffffffffffffffff82169050919050565b6000819050919050565b82818337600083830152505050565b60005b8381101561163c578082015181840152602081019050611621565b8381111561164b576000848401525b50505050565b61165a826116f9565b810181811067ffffffffffffffff82111715611679576116786116b1565b5b80604052505050565b7f4e487b7100000000000000000000000000000000000000000000000000000000600052603260045260246000fd5b7f4e487b7100000000000000000000000000000000000000000000000000000000600052604160045260246000fd5b600080fd5b600080fd5b600080fd5b600080fd5b600080fd5b6000601f19601f8301169050919050565b7f455243323020636f6e747261637420686173206e6f7420676976656e2070657260008201527f6d697373696f6e20746f207468697320616464726573732e0000000000000000602082015250565b7f574d415449430000000000000000000000000000000000000000000000000000600082015250565b61178b816115c7565b811461179657600080fd5b50565b6117a2816115d9565b81146117ad57600080fd5b50565b6117b981611605565b81146117c457600080fd5b5056fea26469706673582212201358d31eff1884f4a0965d6b9e663f997b5b6376773acd8d6578eef29ef73e9864736f6c63430008070033",
					"opcodes": "PUSH1 0x80 PUSH1 0x40 MSTORE CALLVALUE DUP1 ISZERO PUSH3 0x11 JUMPI PUSH1 0x0 DUP1 REVERT JUMPDEST POP CALLER PUSH1 0x1 PUSH1 0x0 PUSH2 0x100 EXP DUP2 SLOAD DUP2 PUSH20 0xFFFFFFFFFFFFFFFFFFFFFFFFFFFFFFFFFFFFFFFF MUL NOT AND SWAP1 DUP4 PUSH20 0xFFFFFFFFFFFFFFFFFFFFFFFFFFFFFFFFFFFFFFFF AND MUL OR SWAP1 SSTORE POP PUSH1 0x40 MLOAD DUP1 PUSH1 0x40 ADD PUSH1 0x40 MSTORE DUP1 PUSH20 0x8F3CF7AD23CD3CADBD9735AFF958023239C6A063 PUSH20 0xFFFFFFFFFFFFFFFFFFFFFFFFFFFFFFFFFFFFFFFF AND DUP2 MSTORE PUSH1 0x20 ADD PUSH1 0x12 DUP2 MSTORE POP PUSH1 0x0 PUSH1 0x40 MLOAD PUSH3 0xA3 SWAP1 PUSH3 0x6A4 JUMP JUMPDEST SWAP1 DUP2 MSTORE PUSH1 0x20 ADD PUSH1 0x40 MLOAD DUP1 SWAP2 SUB SWAP1 KECCAK256 PUSH1 0x0 DUP3 ADD MLOAD DUP2 PUSH1 0x0 ADD PUSH1 0x0 PUSH2 0x100 EXP DUP2 SLOAD DUP2 PUSH20 0xFFFFFFFFFFFFFFFFFFFFFFFFFFFFFFFFFFFFFFFF MUL NOT AND SWAP1 DUP4 PUSH20 0xFFFFFFFFFFFFFFFFFFFFFFFFFFFFFFFFFFFFFFFF AND MUL OR SWAP1 SSTORE POP PUSH1 0x20 DUP3 ADD MLOAD DUP2 PUSH1 0x1 ADD SSTORE SWAP1 POP POP PUSH1 0x40 MLOAD DUP1 PUSH1 0x40 ADD PUSH1 0x40 MSTORE DUP1 PUSH20 0x7CEB23FD6BC0ADD59E62AC25578270CFF1B9F619 PUSH20 0xFFFFFFFFFFFFFFFFFFFFFFFFFFFFFFFFFFFFFFFF AND DUP2 MSTORE PUSH1 0x20 ADD PUSH1 0x12 DUP2 MSTORE POP PUSH1 0x0 PUSH1 0x40 MLOAD PUSH3 0x155 SWAP1 PUSH3 0x648 JUMP JUMPDEST SWAP1 DUP2 MSTORE PUSH1 0x20 ADD PUSH1 0x40 MLOAD DUP1 SWAP2 SUB SWAP1 KECCAK256 PUSH1 0x0 DUP3 ADD MLOAD DUP2 PUSH1 0x0 ADD PUSH1 0x0 PUSH2 0x100 EXP DUP2 SLOAD DUP2 PUSH20 0xFFFFFFFFFFFFFFFFFFFFFFFFFFFFFFFFFFFFFFFF MUL NOT AND SWAP1 DUP4 PUSH20 0xFFFFFFFFFFFFFFFFFFFFFFFFFFFFFFFFFFFFFFFF AND MUL OR SWAP1 SSTORE POP PUSH1 0x20 DUP3 ADD MLOAD DUP2 PUSH1 0x1 ADD SSTORE SWAP1 POP POP PUSH1 0x40 MLOAD DUP1 PUSH1 0x40 ADD PUSH1 0x40 MSTORE DUP1 PUSH20 0xD500B1D8E8EF31E21C99D1DB9A6444D3ADF1270 PUSH20 0xFFFFFFFFFFFFFFFFFFFFFFFFFFFFFFFFFFFFFFFF AND DUP2 MSTORE PUSH1 0x20 ADD PUSH1 0x12 DUP2 MSTORE POP PUSH1 0x0 PUSH1 0x40 MLOAD PUSH3 0x207 SWAP1 PUSH3 0x6D2 JUMP JUMPDEST SWAP1 DUP2 MSTORE PUSH1 0x20 ADD PUSH1 0x40 MLOAD DUP1 SWAP2 SUB SWAP1 KECCAK256 PUSH1 0x0 DUP3 ADD MLOAD DUP2 PUSH1 0x0 ADD PUSH1 0x0 PUSH2 0x100 EXP DUP2 SLOAD DUP2 PUSH20 0xFFFFFFFFFFFFFFFFFFFFFFFFFFFFFFFFFFFFFFFF MUL NOT AND SWAP1 DUP4 PUSH20 0xFFFFFFFFFFFFFFFFFFFFFFFFFFFFFFFFFFFFFFFF AND MUL OR SWAP1 SSTORE POP PUSH1 0x20 DUP3 ADD MLOAD DUP2 PUSH1 0x1 ADD SSTORE SWAP1 POP POP PUSH1 0x40 MLOAD DUP1 PUSH1 0x40 ADD PUSH1 0x40 MSTORE DUP1 PUSH20 0x2791BCA1F2DE4661ED88A30C99A7A9449AA84174 PUSH20 0xFFFFFFFFFFFFFFFFFFFFFFFFFFFFFFFFFFFFFFFF AND DUP2 MSTORE PUSH1 0x20 ADD PUSH1 0x6 DUP2 MSTORE POP PUSH1 0x0 PUSH1 0x40 MLOAD PUSH3 0x2B9 SWAP1 PUSH3 0x6BB JUMP JUMPDEST SWAP1 DUP2 MSTORE PUSH1 0x20 ADD PUSH1 0x40 MLOAD DUP1 SWAP2 SUB SWAP1 KECCAK256 PUSH1 0x0 DUP3 ADD MLOAD DUP2 PUSH1 0x0 ADD PUSH1 0x0 PUSH2 0x100 EXP DUP2 SLOAD DUP2 PUSH20 0xFFFFFFFFFFFFFFFFFFFFFFFFFFFFFFFFFFFFFFFF MUL NOT AND SWAP1 DUP4 PUSH20 0xFFFFFFFFFFFFFFFFFFFFFFFFFFFFFFFFFFFFFFFF AND MUL OR SWAP1 SSTORE POP PUSH1 0x20 DUP3 ADD MLOAD DUP2 PUSH1 0x1 ADD SSTORE SWAP1 POP POP PUSH1 0x40 MLOAD DUP1 PUSH1 0x40 ADD PUSH1 0x40 MSTORE DUP1 PUSH20 0xC2132D05D31C914A87C6611C10748AEB04B58E8F PUSH20 0xFFFFFFFFFFFFFFFFFFFFFFFFFFFFFFFFFFFFFFFF AND DUP2 MSTORE PUSH1 0x20 ADD PUSH1 0x6 DUP2 MSTORE POP PUSH1 0x0 PUSH1 0x40 MLOAD PUSH3 0x36B SWAP1 PUSH3 0x676 JUMP JUMPDEST SWAP1 DUP2 MSTORE PUSH1 0x20 ADD PUSH1 0x40 MLOAD DUP1 SWAP2 SUB SWAP1 KECCAK256 PUSH1 0x0 DUP3 ADD MLOAD DUP2 PUSH1 0x0 ADD PUSH1 0x0 PUSH2 0x100 EXP DUP2 SLOAD DUP2 PUSH20 0xFFFFFFFFFFFFFFFFFFFFFFFFFFFFFFFFFFFFFFFF MUL NOT AND SWAP1 DUP4 PUSH20 0xFFFFFFFFFFFFFFFFFFFFFFFFFFFFFFFFFFFFFFFF AND MUL OR SWAP1 SSTORE POP PUSH1 0x20 DUP3 ADD MLOAD DUP2 PUSH1 0x1 ADD SSTORE SWAP1 POP POP PUSH1 0x40 MLOAD DUP1 PUSH1 0x40 ADD PUSH1 0x40 MSTORE DUP1 PUSH20 0x1BFD67037B42CF73ACF2047067BD4F2C47D9BFD6 PUSH20 0xFFFFFFFFFFFFFFFFFFFFFFFFFFFFFFFFFFFFFFFF AND DUP2 MSTORE PUSH1 0x20 ADD PUSH1 0x8 DUP2 MSTORE POP PUSH1 0x0 PUSH1 0x40 MLOAD PUSH3 0x41D SWAP1 PUSH3 0x68D JUMP JUMPDEST SWAP1 DUP2 MSTORE PUSH1 0x20 ADD PUSH1 0x40 MLOAD DUP1 SWAP2 SUB SWAP1 KECCAK256 PUSH1 0x0 DUP3 ADD MLOAD DUP2 PUSH1 0x0 ADD PUSH1 0x0 PUSH2 0x100 EXP DUP2 SLOAD DUP2 PUSH20 0xFFFFFFFFFFFFFFFFFFFFFFFFFFFFFFFFFFFFFFFF MUL NOT AND SWAP1 DUP4 PUSH20 0xFFFFFFFFFFFFFFFFFFFFFFFFFFFFFFFFFFFFFFFF AND MUL OR SWAP1 SSTORE POP PUSH1 0x20 DUP3 ADD MLOAD DUP2 PUSH1 0x1 ADD SSTORE SWAP1 POP POP PUSH1 0x40 MLOAD DUP1 PUSH1 0x40 ADD PUSH1 0x40 MSTORE DUP1 PUSH20 0xF28164A485B0B2C90639E47B0F377B4A438A16B1 PUSH20 0xFFFFFFFFFFFFFFFFFFFFFFFFFFFFFFFFFFFFFFFF AND DUP2 MSTORE PUSH1 0x20 ADD PUSH1 0x12 DUP2 MSTORE POP PUSH1 0x0 PUSH1 0x40 MLOAD PUSH3 0x4CF SWAP1 PUSH3 0x65F JUMP JUMPDEST SWAP1 DUP2 MSTORE PUSH1 0x20 ADD PUSH1 0x40 MLOAD DUP1 SWAP2 SUB SWAP1 KECCAK256 PUSH1 0x0 DUP3 ADD MLOAD DUP2 PUSH1 0x0 ADD PUSH1 0x0 PUSH2 0x100 EXP DUP2 SLOAD DUP2 PUSH20 0xFFFFFFFFFFFFFFFFFFFFFFFFFFFFFFFFFFFFFFFF MUL NOT AND SWAP1 DUP4 PUSH20 0xFFFFFFFFFFFFFFFFFFFFFFFFFFFFFFFFFFFFFFFF AND MUL OR SWAP1 SSTORE POP PUSH1 0x20 DUP3 ADD MLOAD DUP2 PUSH1 0x1 ADD SSTORE SWAP1 POP POP PUSH3 0x813 JUMP JUMPDEST PUSH1 0x0 PUSH3 0x546 PUSH1 0x4 DUP4 PUSH3 0x6E9 JUMP JUMPDEST SWAP2 POP PUSH3 0x553 DUP3 PUSH3 0x6F4 JUMP JUMPDEST PUSH1 0x4 DUP3 ADD SWAP1 POP SWAP2 SWAP1 POP JUMP JUMPDEST PUSH1 0x0 PUSH3 0x56D PUSH1 0x6 DUP4 PUSH3 0x6E9 JUMP JUMPDEST SWAP2 POP PUSH3 0x57A DUP3 PUSH3 0x71D JUMP JUMPDEST PUSH1 0x6 DUP3 ADD SWAP1 POP SWAP2 SWAP1 POP JUMP JUMPDEST PUSH1 0x0 PUSH3 0x594 PUSH1 0x4 DUP4 PUSH3 0x6E9 JUMP JUMPDEST SWAP2 POP PUSH3 0x5A1 DUP3 PUSH3 0x746 JUMP JUMPDEST PUSH1 0x4 DUP3 ADD SWAP1 POP SWAP2 SWAP1 POP JUMP JUMPDEST PUSH1 0x0 PUSH3 0x5BB PUSH1 0x4 DUP4 PUSH3 0x6E9 JUMP JUMPDEST SWAP2 POP PUSH3 0x5C8 DUP3 PUSH3 0x76F JUMP JUMPDEST PUSH1 0x4 DUP3 ADD SWAP1 POP SWAP2 SWAP1 POP JUMP JUMPDEST PUSH1 0x0 PUSH3 0x5E2 PUSH1 0x3 DUP4 PUSH3 0x6E9 JUMP JUMPDEST SWAP2 POP PUSH3 0x5EF DUP3 PUSH3 0x798 JUMP JUMPDEST PUSH1 0x3 DUP3 ADD SWAP1 POP SWAP2 SWAP1 POP JUMP JUMPDEST PUSH1 0x0 PUSH3 0x609 PUSH1 0x4 DUP4 PUSH3 0x6E9 JUMP JUMPDEST SWAP2 POP PUSH3 0x616 DUP3 PUSH3 0x7C1 JUMP JUMPDEST PUSH1 0x4 DUP3 ADD SWAP1 POP SWAP2 SWAP1 POP JUMP JUMPDEST PUSH1 0x0 PUSH3 0x630 PUSH1 0x6 DUP4 PUSH3 0x6E9 JUMP JUMPDEST SWAP2 POP PUSH3 0x63D DUP3 PUSH3 0x7EA JUMP JUMPDEST PUSH1 0x6 DUP3 ADD SWAP1 POP SWAP2 SWAP1 POP JUMP JUMPDEST PUSH1 0x0 PUSH3 0x655 DUP3 PUSH3 0x537 JUMP JUMPDEST SWAP2 POP DUP2 SWAP1 POP SWAP2 SWAP1 POP JUMP JUMPDEST PUSH1 0x0 PUSH3 0x66C DUP3 PUSH3 0x55E JUMP JUMPDEST SWAP2 POP DUP2 SWAP1 POP SWAP2 SWAP1 POP JUMP JUMPDEST PUSH1 0x0 PUSH3 0x683 DUP3 PUSH3 0x585 JUMP JUMPDEST SWAP2 POP DUP2 SWAP1 POP SWAP2 SWAP1 POP JUMP JUMPDEST PUSH1 0x0 PUSH3 0x69A DUP3 PUSH3 0x5AC JUMP JUMPDEST SWAP2 POP DUP2 SWAP1 POP SWAP2 SWAP1 POP JUMP JUMPDEST PUSH1 0x0 PUSH3 0x6B1 DUP3 PUSH3 0x5D3 JUMP JUMPDEST SWAP2 POP DUP2 SWAP1 POP SWAP2 SWAP1 POP JUMP JUMPDEST PUSH1 0x0 PUSH3 0x6C8 DUP3 PUSH3 0x5FA JUMP JUMPDEST SWAP2 POP DUP2 SWAP1 POP SWAP2 SWAP1 POP JUMP JUMPDEST PUSH1 0x0 PUSH3 0x6DF DUP3 PUSH3 0x621 JUMP JUMPDEST SWAP2 POP DUP2 SWAP1 POP SWAP2 SWAP1 POP JUMP JUMPDEST PUSH1 0x0 DUP2 SWAP1 POP SWAP3 SWAP2 POP POP JUMP JUMPDEST PUSH32 0x5745544800000000000000000000000000000000000000000000000000000000 PUSH1 0x0 DUP3 ADD MSTORE POP JUMP JUMPDEST PUSH32 0x44515549434B0000000000000000000000000000000000000000000000000000 PUSH1 0x0 DUP3 ADD MSTORE POP JUMP JUMPDEST PUSH32 0x5553445400000000000000000000000000000000000000000000000000000000 PUSH1 0x0 DUP3 ADD MSTORE POP JUMP JUMPDEST PUSH32 0x5742544300000000000000000000000000000000000000000000000000000000 PUSH1 0x0 DUP3 ADD MSTORE POP JUMP JUMPDEST PUSH32 0x4441490000000000000000000000000000000000000000000000000000000000 PUSH1 0x0 DUP3 ADD MSTORE POP JUMP JUMPDEST PUSH32 0x5553444300000000000000000000000000000000000000000000000000000000 PUSH1 0x0 DUP3 ADD MSTORE POP JUMP JUMPDEST PUSH32 0x574D415449430000000000000000000000000000000000000000000000000000 PUSH1 0x0 DUP3 ADD MSTORE POP JUMP JUMPDEST PUSH2 0x17FD DUP1 PUSH3 0x823 PUSH1 0x0 CODECOPY PUSH1 0x0 RETURN INVALID PUSH1 0x80 PUSH1 0x40 MSTORE PUSH1 0x4 CALLDATASIZE LT PUSH2 0x74 JUMPI PUSH1 0x0 CALLDATALOAD PUSH1 0xE0 SHR DUP1 PUSH4 0x9BC97DEE GT PUSH2 0x4E JUMPI DUP1 PUSH4 0x9BC97DEE EQ PUSH2 0xF0 JUMPI DUP1 PUSH4 0xC3A48401 EQ PUSH2 0x119 JUMPI DUP1 PUSH4 0xE4386BA3 EQ PUSH2 0x156 JUMPI DUP1 PUSH4 0xF809A2E6 EQ PUSH2 0x193 JUMPI PUSH2 0x7B JUMP JUMPDEST DUP1 PUSH4 0x7552ACD6 EQ PUSH2 0x80 JUMPI DUP1 PUSH4 0x7B60EB23 EQ PUSH2 0xA9 JUMPI DUP1 PUSH4 0x7D3683BA EQ PUSH2 0xB3 JUMPI PUSH2 0x7B JUMP JUMPDEST CALLDATASIZE PUSH2 0x7B JUMPI STOP JUMPDEST PUSH1 0x0 DUP1 REVERT JUMPDEST CALLVALUE DUP1 ISZERO PUSH2 0x8C JUMPI PUSH1 0x0 DUP1 REVERT JUMPDEST POP PUSH2 0xA7 PUSH1 0x4 DUP1 CALLDATASIZE SUB DUP2 ADD SWAP1 PUSH2 0xA2 SWAP2 SWAP1 PUSH2 0xFD4 JUMP JUMPDEST PUSH2 0x1BC JUMP JUMPDEST STOP JUMPDEST PUSH2 0xB1 PUSH2 0x3A8 JUMP JUMPDEST STOP JUMPDEST CALLVALUE DUP1 ISZERO PUSH2 0xBF JUMPI PUSH1 0x0 DUP1 REVERT JUMPDEST POP PUSH2 0xDA PUSH1 0x4 DUP1 CALLDATASIZE SUB DUP2 ADD SWAP1 PUSH2 0xD5 SWAP2 SWAP1 PUSH2 0xF2F JUMP JUMPDEST PUSH2 0x5E5 JUMP JUMPDEST PUSH1 0x40 MLOAD PUSH2 0xE7 SWAP2 SWAP1 PUSH2 0x1449 JUMP JUMPDEST PUSH1 0x40 MLOAD DUP1 SWAP2 SUB SWAP1 RETURN JUMPDEST CALLVALUE DUP1 ISZERO PUSH2 0xFC JUMPI PUSH1 0x0 DUP1 REVERT JUMPDEST POP PUSH2 0x117 PUSH1 0x4 DUP1 CALLDATASIZE SUB DUP2 ADD SWAP1 PUSH2 0x112 SWAP2 SWAP1 PUSH2 0x1043 JUMP JUMPDEST PUSH2 0x6B7 JUMP JUMPDEST STOP JUMPDEST CALLVALUE DUP1 ISZERO PUSH2 0x125 JUMPI PUSH1 0x0 DUP1 REVERT JUMPDEST POP PUSH2 0x140 PUSH1 0x4 DUP1 CALLDATASIZE SUB DUP2 ADD SWAP1 PUSH2 0x13B SWAP2 SWAP1 PUSH2 0xF78 JUMP JUMPDEST PUSH2 0x8A2 JUMP JUMPDEST PUSH1 0x40 MLOAD PUSH2 0x14D SWAP2 SWAP1 PUSH2 0x1449 JUMP JUMPDEST PUSH1 0x40 MLOAD DUP1 SWAP2 SUB SWAP1 RETURN JUMPDEST CALLVALUE DUP1 ISZERO PUSH2 0x162 JUMPI PUSH1 0x0 DUP1 REVERT JUMPDEST POP PUSH2 0x17D PUSH1 0x4 DUP1 CALLDATASIZE SUB DUP2 ADD SWAP1 PUSH2 0x178 SWAP2 SWAP1 PUSH2 0xF2F JUMP JUMPDEST PUSH2 0x975 JUMP JUMPDEST PUSH1 0x40 MLOAD PUSH2 0x18A SWAP2 SWAP1 PUSH2 0x1449 JUMP JUMPDEST PUSH1 0x40 MLOAD DUP1 SWAP2 SUB SWAP1 RETURN JUMPDEST CALLVALUE DUP1 ISZERO PUSH2 0x19F JUMPI PUSH1 0x0 DUP1 REVERT JUMPDEST POP PUSH2 0x1BA PUSH1 0x4 DUP1 CALLDATASIZE SUB DUP2 ADD SWAP1 PUSH2 0x1B5 SWAP2 SWAP1 PUSH2 0x10CC JUMP JUMPDEST PUSH2 0xA47 JUMP JUMPDEST STOP JUMPDEST PUSH1 0x0 DUP4 PUSH1 0x40 MLOAD PUSH2 0x1CC SWAP2 SWAP1 PUSH2 0x1329 JUMP JUMPDEST SWAP1 DUP2 MSTORE PUSH1 0x20 ADD PUSH1 0x40 MLOAD DUP1 SWAP2 SUB SWAP1 KECCAK256 PUSH1 0x0 ADD PUSH1 0x0 SWAP1 SLOAD SWAP1 PUSH2 0x100 EXP SWAP1 DIV PUSH20 0xFFFFFFFFFFFFFFFFFFFFFFFFFFFFFFFFFFFFFFFF AND CALLER DUP4 DUP4 DUP1 DUP5 PUSH20 0xFFFFFFFFFFFFFFFFFFFFFFFFFFFFFFFFFFFFFFFF AND PUSH4 0xDD62ED3E DUP6 DUP6 PUSH1 0x40 MLOAD DUP4 PUSH4 0xFFFFFFFF AND PUSH1 0xE0 SHL DUP2 MSTORE PUSH1 0x4 ADD PUSH2 0x23D SWAP3 SWAP2 SWAP1 PUSH2 0x1370 JUMP JUMPDEST PUSH1 0x20 PUSH1 0x40 MLOAD DUP1 DUP4 SUB DUP2 DUP7 DUP1 EXTCODESIZE ISZERO DUP1 ISZERO PUSH2 0x255 JUMPI PUSH1 0x0 DUP1 REVERT JUMPDEST POP GAS STATICCALL ISZERO DUP1 ISZERO PUSH2 0x269 JUMPI RETURNDATASIZE PUSH1 0x0 DUP1 RETURNDATACOPY RETURNDATASIZE PUSH1 0x0 REVERT JUMPDEST POP POP POP POP PUSH1 0x40 MLOAD RETURNDATASIZE PUSH1 0x1F NOT PUSH1 0x1F DUP3 ADD AND DUP3 ADD DUP1 PUSH1 0x40 MSTORE POP DUP2 ADD SWAP1 PUSH2 0x28D SWAP2 SWAP1 PUSH2 0x109F JUMP JUMPDEST LT ISZERO PUSH2 0x2CE JUMPI PUSH1 0x40 MLOAD PUSH32 0x8C379A000000000000000000000000000000000000000000000000000000000 DUP2 MSTORE PUSH1 0x4 ADD PUSH2 0x2C5 SWAP1 PUSH2 0x1429 JUMP JUMPDEST PUSH1 0x40 MLOAD DUP1 SWAP2 SUB SWAP1 REVERT JUMPDEST PUSH1 0x0 DUP8 PUSH1 0x40 MLOAD PUSH2 0x2DE SWAP2 SWAP1 PUSH2 0x1329 JUMP JUMPDEST SWAP1 DUP2 MSTORE PUSH1 0x20 ADD PUSH1 0x40 MLOAD DUP1 SWAP2 SUB SWAP1 KECCAK256 PUSH1 0x0 ADD PUSH1 0x0 SWAP1 SLOAD SWAP1 PUSH2 0x100 EXP SWAP1 DIV PUSH20 0xFFFFFFFFFFFFFFFFFFFFFFFFFFFFFFFFFFFFFFFF AND PUSH20 0xFFFFFFFFFFFFFFFFFFFFFFFFFFFFFFFFFFFFFFFF AND PUSH4 0x23B872DD CALLER DUP9 DUP9 PUSH1 0x40 MLOAD DUP5 PUSH4 0xFFFFFFFF AND PUSH1 0xE0 SHL DUP2 MSTORE PUSH1 0x4 ADD PUSH2 0x34C SWAP4 SWAP3 SWAP2 SWAP1 PUSH2 0x1399 JUMP JUMPDEST PUSH1 0x20 PUSH1 0x40 MLOAD DUP1 DUP4 SUB DUP2 PUSH1 0x0 DUP8 DUP1 EXTCODESIZE ISZERO DUP1 ISZERO PUSH2 0x366 JUMPI PUSH1 0x0 DUP1 REVERT JUMPDEST POP GAS CALL ISZERO DUP1 ISZERO PUSH2 0x37A JUMPI RETURNDATASIZE PUSH1 0x0 DUP1 RETURNDATACOPY RETURNDATASIZE PUSH1 0x0 REVERT JUMPDEST POP POP POP POP PUSH1 0x40 MLOAD RETURNDATASIZE PUSH1 0x1F NOT PUSH1 0x1F DUP3 ADD AND DUP3 ADD DUP1 PUSH1 0x40 MSTORE POP DUP2 ADD SWAP1 PUSH2 0x39E SWAP2 SWAP1 PUSH2 0xF02 JUMP JUMPDEST POP POP POP POP POP POP POP POP JUMP JUMPDEST PUSH1 0x0 DUP1 PUSH1 0x0 PUSH1 0x40 MLOAD PUSH2 0x3B9 SWAP1 PUSH2 0x1340 JUMP JUMPDEST SWAP1 DUP2 MSTORE PUSH1 0x20 ADD PUSH1 0x40 MLOAD DUP1 SWAP2 SUB SWAP1 KECCAK256 PUSH1 0x0 ADD PUSH1 0x0 SWAP1 SLOAD SWAP1 PUSH2 0x100 EXP SWAP1 DIV PUSH20 0xFFFFFFFFFFFFFFFFFFFFFFFFFFFFFFFFFFFFFFFF AND PUSH20 0xFFFFFFFFFFFFFFFFFFFFFFFFFFFFFFFFFFFFFFFF AND CALLVALUE PUSH1 0x40 MLOAD PUSH1 0x24 ADD PUSH1 0x40 MLOAD PUSH1 0x20 DUP2 DUP4 SUB SUB DUP2 MSTORE SWAP1 PUSH1 0x40 MSTORE PUSH32 0xC5D2460100000000000000000000000000000000000000000000000000000000 PUSH28 0xFFFFFFFFFFFFFFFFFFFFFFFFFFFFFFFFFFFFFFFFFFFFFFFFFFFFFFFF NOT AND PUSH1 0x20 DUP3 ADD DUP1 MLOAD PUSH28 0xFFFFFFFFFFFFFFFFFFFFFFFFFFFFFFFFFFFFFFFFFFFFFFFFFFFFFFFF DUP4 DUP2 DUP4 AND OR DUP4 MSTORE POP POP POP POP PUSH1 0x40 MLOAD PUSH2 0x492 SWAP2 SWAP1 PUSH2 0x1312 JUMP JUMPDEST PUSH1 0x0 PUSH1 0x40 MLOAD DUP1 DUP4 SUB DUP2 DUP6 DUP8 GAS CALL SWAP3 POP POP POP RETURNDATASIZE DUP1 PUSH1 0x0 DUP2 EQ PUSH2 0x4CF JUMPI PUSH1 0x40 MLOAD SWAP2 POP PUSH1 0x1F NOT PUSH1 0x3F RETURNDATASIZE ADD AND DUP3 ADD PUSH1 0x40 MSTORE RETURNDATASIZE DUP3 MSTORE RETURNDATASIZE PUSH1 0x0 PUSH1 0x20 DUP5 ADD RETURNDATACOPY PUSH2 0x4D4 JUMP JUMPDEST PUSH1 0x60 SWAP2 POP JUMPDEST POP SWAP2 POP SWAP2 POP PUSH1 0x0 PUSH1 0x40 MLOAD PUSH2 0x4E7 SWAP1 PUSH2 0x1340 JUMP JUMPDEST SWAP1 DUP2 MSTORE PUSH1 0x20 ADD PUSH1 0x40 MLOAD DUP1 SWAP2 SUB SWAP1 KECCAK256 PUSH1 0x0 ADD PUSH1 0x0 SWAP1 SLOAD SWAP1 PUSH2 0x100 EXP SWAP1 DIV PUSH20 0xFFFFFFFFFFFFFFFFFFFFFFFFFFFFFFFFFFFFFFFF AND PUSH20 0xFFFFFFFFFFFFFFFFFFFFFFFFFFFFFFFFFFFFFFFF AND PUSH4 0x23B872DD ADDRESS CALLER CALLVALUE PUSH1 0x40 MLOAD DUP5 PUSH4 0xFFFFFFFF AND PUSH1 0xE0 SHL DUP2 MSTORE PUSH1 0x4 ADD PUSH2 0x555 SWAP4 SWAP3 SWAP2 SWAP1 PUSH2 0x1399 JUMP JUMPDEST PUSH1 0x20 PUSH1 0x40 MLOAD DUP1 DUP4 SUB DUP2 PUSH1 0x0 DUP8 DUP1 EXTCODESIZE ISZERO DUP1 ISZERO PUSH2 0x56F JUMPI PUSH1 0x0 DUP1 REVERT JUMPDEST POP GAS CALL ISZERO DUP1 ISZERO PUSH2 0x583 JUMPI RETURNDATASIZE PUSH1 0x0 DUP1 RETURNDATACOPY RETURNDATASIZE PUSH1 0x0 REVERT JUMPDEST POP POP POP POP PUSH1 0x40 MLOAD RETURNDATASIZE PUSH1 0x1F NOT PUSH1 0x1F DUP3 ADD AND DUP3 ADD DUP1 PUSH1 0x40 MSTORE POP DUP2 ADD SWAP1 PUSH2 0x5A7 SWAP2 SWAP1 PUSH2 0xF02 JUMP JUMPDEST POP PUSH32 0x13848C3E38F8886F3F5D2AD9DFF80D8092C2BBB8EFD5B887A99C2C6CFC09AC2A DUP3 DUP3 PUSH1 0x40 MLOAD PUSH2 0x5D9 SWAP3 SWAP2 SWAP1 PUSH2 0x13F9 JUMP JUMPDEST PUSH1 0x40 MLOAD DUP1 SWAP2 SUB SWAP1 LOG1 POP POP JUMP JUMPDEST PUSH1 0x0 DUP1 DUP3 PUSH1 0x40 MLOAD PUSH2 0x5F6 SWAP2 SWAP1 PUSH2 0x1329 JUMP JUMPDEST SWAP1 DUP2 MSTORE PUSH1 0x20 ADD PUSH1 0x40 MLOAD DUP1 SWAP2 SUB SWAP1 KECCAK256 PUSH1 0x0 ADD PUSH1 0x0 SWAP1 SLOAD SWAP1 PUSH2 0x100 EXP SWAP1 DIV PUSH20 0xFFFFFFFFFFFFFFFFFFFFFFFFFFFFFFFFFFFFFFFF AND PUSH20 0xFFFFFFFFFFFFFFFFFFFFFFFFFFFFFFFFFFFFFFFF AND PUSH4 0x70A08231 CALLER PUSH1 0x40 MLOAD DUP3 PUSH4 0xFFFFFFFF AND PUSH1 0xE0 SHL DUP2 MSTORE PUSH1 0x4 ADD PUSH2 0x660 SWAP2 SWAP1 PUSH2 0x1355 JUMP JUMPDEST PUSH1 0x20 PUSH1 0x40 MLOAD DUP1 DUP4 SUB DUP2 DUP7 DUP1 EXTCODESIZE ISZERO DUP1 ISZERO PUSH2 0x678 JUMPI PUSH1 0x0 DUP1 REVERT JUMPDEST POP GAS STATICCALL ISZERO DUP1 ISZERO PUSH2 0x68C JUMPI RETURNDATASIZE PUSH1 0x0 DUP1 RETURNDATACOPY RETURNDATASIZE PUSH1 0x0 REVERT JUMPDEST POP POP POP POP PUSH1 0x40 MLOAD RETURNDATASIZE PUSH1 0x1F NOT PUSH1 0x1F DUP3 ADD AND DUP3 ADD DUP1 PUSH1 0x40 MSTORE POP DUP2 ADD SWAP1 PUSH2 0x6B0 SWAP2 SWAP1 PUSH2 0x109F JUMP JUMPDEST SWAP1 POP SWAP2 SWAP1 POP JUMP JUMPDEST PUSH1 0x0 DUP3 PUSH1 0x40 MLOAD PUSH2 0x6C7 SWAP2 SWAP1 PUSH2 0x1329 JUMP JUMPDEST SWAP1 DUP2 MSTORE PUSH1 0x20 ADD PUSH1 0x40 MLOAD DUP1 SWAP2 SUB SWAP1 KECCAK256 PUSH1 0x0 ADD PUSH1 0x0 SWAP1 SLOAD SWAP1 PUSH2 0x100 EXP SWAP1 DIV PUSH20 0xFFFFFFFFFFFFFFFFFFFFFFFFFFFFFFFFFFFFFFFF AND CALLER ADDRESS DUP4 DUP1 DUP5 PUSH20 0xFFFFFFFFFFFFFFFFFFFFFFFFFFFFFFFFFFFFFFFF AND PUSH4 0xDD62ED3E DUP6 DUP6 PUSH1 0x40 MLOAD DUP4 PUSH4 0xFFFFFFFF AND PUSH1 0xE0 SHL DUP2 MSTORE PUSH1 0x4 ADD PUSH2 0x738 SWAP3 SWAP2 SWAP1 PUSH2 0x1370 JUMP JUMPDEST PUSH1 0x20 PUSH1 0x40 MLOAD DUP1 DUP4 SUB DUP2 DUP7 DUP1 EXTCODESIZE ISZERO DUP1 ISZERO PUSH2 0x750 JUMPI PUSH1 0x0 DUP1 REVERT JUMPDEST POP GAS STATICCALL ISZERO DUP1 ISZERO PUSH2 0x764 JUMPI RETURNDATASIZE PUSH1 0x0 DUP1 RETURNDATACOPY RETURNDATASIZE PUSH1 0x0 REVERT JUMPDEST POP POP POP POP PUSH1 0x40 MLOAD RETURNDATASIZE PUSH1 0x1F NOT PUSH1 0x1F DUP3 ADD AND DUP3 ADD DUP1 PUSH1 0x40 MSTORE POP DUP2 ADD SWAP1 PUSH2 0x788 SWAP2 SWAP1 PUSH2 0x109F JUMP JUMPDEST LT ISZERO PUSH2 0x7C9 JUMPI PUSH1 0x40 MLOAD PUSH32 0x8C379A000000000000000000000000000000000000000000000000000000000 DUP2 MSTORE PUSH1 0x4 ADD PUSH2 0x7C0 SWAP1 PUSH2 0x1429 JUMP JUMPDEST PUSH1 0x40 MLOAD DUP1 SWAP2 SUB SWAP1 REVERT JUMPDEST PUSH1 0x0 DUP7 PUSH1 0x40 MLOAD PUSH2 0x7D9 SWAP2 SWAP1 PUSH2 0x1329 JUMP JUMPDEST SWAP1 DUP2 MSTORE PUSH1 0x20 ADD PUSH1 0x40 MLOAD DUP1 SWAP2 SUB SWAP1 KECCAK256 PUSH1 0x0 ADD PUSH1 0x0 SWAP1 SLOAD SWAP1 PUSH2 0x100 EXP SWAP1 DIV PUSH20 0xFFFFFFFFFFFFFFFFFFFFFFFFFFFFFFFFFFFFFFFF AND PUSH20 0xFFFFFFFFFFFFFFFFFFFFFFFFFFFFFFFFFFFFFFFF AND PUSH4 0x23B872DD CALLER ADDRESS DUP9 PUSH1 0x40 MLOAD DUP5 PUSH4 0xFFFFFFFF AND PUSH1 0xE0 SHL DUP2 MSTORE PUSH1 0x4 ADD PUSH2 0x847 SWAP4 SWAP3 SWAP2 SWAP1 PUSH2 0x1399 JUMP JUMPDEST PUSH1 0x20 PUSH1 0x40 MLOAD DUP1 DUP4 SUB DUP2 PUSH1 0x0 DUP8 DUP1 EXTCODESIZE ISZERO DUP1 ISZERO PUSH2 0x861 JUMPI PUSH1 0x0 DUP1 REVERT JUMPDEST POP GAS CALL ISZERO DUP1 ISZERO PUSH2 0x875 JUMPI RETURNDATASIZE PUSH1 0x0 DUP1 RETURNDATACOPY RETURNDATASIZE PUSH1 0x0 REVERT JUMPDEST POP POP POP POP PUSH1 0x40 MLOAD RETURNDATASIZE PUSH1 0x1F NOT PUSH1 0x1F DUP3 ADD AND DUP3 ADD DUP1 PUSH1 0x40 MSTORE POP DUP2 ADD SWAP1 PUSH2 0x899 SWAP2 SWAP1 PUSH2 0xF02 JUMP JUMPDEST POP POP POP POP POP POP POP JUMP JUMPDEST PUSH1 0x0 DUP1 DUP4 PUSH1 0x40 MLOAD PUSH2 0x8B3 SWAP2 SWAP1 PUSH2 0x1329 JUMP JUMPDEST SWAP1 DUP2 MSTORE PUSH1 0x20 ADD PUSH1 0x40 MLOAD DUP1 SWAP2 SUB SWAP1 KECCAK256 PUSH1 0x0 ADD PUSH1 0x0 SWAP1 SLOAD SWAP1 PUSH2 0x100 EXP SWAP1 DIV PUSH20 0xFFFFFFFFFFFFFFFFFFFFFFFFFFFFFFFFFFFFFFFF AND PUSH20 0xFFFFFFFFFFFFFFFFFFFFFFFFFFFFFFFFFFFFFFFF AND PUSH4 0x70A08231 DUP4 PUSH1 0x40 MLOAD DUP3 PUSH4 0xFFFFFFFF AND PUSH1 0xE0 SHL DUP2 MSTORE PUSH1 0x4 ADD PUSH2 0x91D SWAP2 SWAP1 PUSH2 0x1355 JUMP JUMPDEST PUSH1 0x20 PUSH1 0x40 MLOAD DUP1 DUP4 SUB DUP2 DUP7 DUP1 EXTCODESIZE ISZERO DUP1 ISZERO PUSH2 0x935 JUMPI PUSH1 0x0 DUP1 REVERT JUMPDEST POP GAS STATICCALL ISZERO DUP1 ISZERO PUSH2 0x949 JUMPI RETURNDATASIZE PUSH1 0x0 DUP1 RETURNDATACOPY RETURNDATASIZE PUSH1 0x0 REVERT JUMPDEST POP POP POP POP PUSH1 0x40 MLOAD RETURNDATASIZE PUSH1 0x1F NOT PUSH1 0x1F DUP3 ADD AND DUP3 ADD DUP1 PUSH1 0x40 MSTORE POP DUP2 ADD SWAP1 PUSH2 0x96D SWAP2 SWAP1 PUSH2 0x109F JUMP JUMPDEST SWAP1 POP SWAP3 SWAP2 POP POP JUMP JUMPDEST PUSH1 0x0 DUP1 DUP3 PUSH1 0x40 MLOAD PUSH2 0x986 SWAP2 SWAP1 PUSH2 0x1329 JUMP JUMPDEST SWAP1 DUP2 MSTORE PUSH1 0x20 ADD PUSH1 0x40 MLOAD DUP1 SWAP2 SUB SWAP1 KECCAK256 PUSH1 0x0 ADD PUSH1 0x0 SWAP1 SLOAD SWAP1 PUSH2 0x100 EXP SWAP1 DIV PUSH20 0xFFFFFFFFFFFFFFFFFFFFFFFFFFFFFFFFFFFFFFFF AND PUSH20 0xFFFFFFFFFFFFFFFFFFFFFFFFFFFFFFFFFFFFFFFF AND PUSH4 0x70A08231 ADDRESS PUSH1 0x40 MLOAD DUP3 PUSH4 0xFFFFFFFF AND PUSH1 0xE0 SHL DUP2 MSTORE PUSH1 0x4 ADD PUSH2 0x9F0 SWAP2 SWAP1 PUSH2 0x1355 JUMP JUMPDEST PUSH1 0x20 PUSH1 0x40 MLOAD DUP1 DUP4 SUB DUP2 DUP7 DUP1 EXTCODESIZE ISZERO DUP1 ISZERO PUSH2 0xA08 JUMPI PUSH1 0x0 DUP1 REVERT JUMPDEST POP GAS STATICCALL ISZERO DUP1 ISZERO PUSH2 0xA1C JUMPI RETURNDATASIZE PUSH1 0x0 DUP1 RETURNDATACOPY RETURNDATASIZE PUSH1 0x0 REVERT JUMPDEST POP POP POP POP PUSH1 0x40 MLOAD RETURNDATASIZE PUSH1 0x1F NOT PUSH1 0x1F DUP3 ADD AND DUP3 ADD DUP1 PUSH1 0x40 MSTORE POP DUP2 ADD SWAP1 PUSH2 0xA40 SWAP2 SWAP1 PUSH2 0x109F JUMP JUMPDEST SWAP1 POP SWAP2 SWAP1 POP JUMP JUMPDEST PUSH2 0xA51 DUP4 DUP7 PUSH2 0x6B7 JUMP JUMPDEST PUSH1 0x0 PUSH1 0x2 PUSH8 0xFFFFFFFFFFFFFFFF DUP2 GT ISZERO PUSH2 0xA6E JUMPI PUSH2 0xA6D PUSH2 0x16B1 JUMP JUMPDEST JUMPDEST PUSH1 0x40 MLOAD SWAP1 DUP1 DUP3 MSTORE DUP1 PUSH1 0x20 MUL PUSH1 0x20 ADD DUP3 ADD PUSH1 0x40 MSTORE DUP1 ISZERO PUSH2 0xA9C JUMPI DUP2 PUSH1 0x20 ADD PUSH1 0x20 DUP3 MUL DUP1 CALLDATASIZE DUP4 CALLDATACOPY DUP1 DUP3 ADD SWAP2 POP POP SWAP1 POP JUMPDEST POP SWAP1 POP PUSH1 0x0 DUP5 PUSH1 0x40 MLOAD PUSH2 0xAAF SWAP2 SWAP1 PUSH2 0x1329 JUMP JUMPDEST SWAP1 DUP2 MSTORE PUSH1 0x20 ADD PUSH1 0x40 MLOAD DUP1 SWAP2 SUB SWAP1 KECCAK256 PUSH1 0x0 ADD PUSH1 0x0 SWAP1 SLOAD SWAP1 PUSH2 0x100 EXP SWAP1 DIV PUSH20 0xFFFFFFFFFFFFFFFFFFFFFFFFFFFFFFFFFFFFFFFF AND DUP2 PUSH1 0x0 DUP2 MLOAD DUP2 LT PUSH2 0xAF5 JUMPI PUSH2 0xAF4 PUSH2 0x1682 JUMP JUMPDEST JUMPDEST PUSH1 0x20 MUL PUSH1 0x20 ADD ADD SWAP1 PUSH20 0xFFFFFFFFFFFFFFFFFFFFFFFFFFFFFFFFFFFFFFFF AND SWAP1 DUP2 PUSH20 0xFFFFFFFFFFFFFFFFFFFFFFFFFFFFFFFFFFFFFFFF AND DUP2 MSTORE POP POP PUSH1 0x0 DUP4 PUSH1 0x40 MLOAD PUSH2 0xB3F SWAP2 SWAP1 PUSH2 0x1329 JUMP JUMPDEST SWAP1 DUP2 MSTORE PUSH1 0x20 ADD PUSH1 0x40 MLOAD DUP1 SWAP2 SUB SWAP1 KECCAK256 PUSH1 0x0 ADD PUSH1 0x0 SWAP1 SLOAD SWAP1 PUSH2 0x100 EXP SWAP1 DIV PUSH20 0xFFFFFFFFFFFFFFFFFFFFFFFFFFFFFFFFFFFFFFFF AND DUP2 PUSH1 0x1 DUP2 MLOAD DUP2 LT PUSH2 0xB85 JUMPI PUSH2 0xB84 PUSH2 0x1682 JUMP JUMPDEST JUMPDEST PUSH1 0x20 MUL PUSH1 0x20 ADD ADD SWAP1 PUSH20 0xFFFFFFFFFFFFFFFFFFFFFFFFFFFFFFFFFFFFFFFF AND SWAP1 DUP2 PUSH20 0xFFFFFFFFFFFFFFFFFFFFFFFFFFFFFFFFFFFFFFFF AND DUP2 MSTORE POP POP PUSH1 0x0 DUP5 PUSH1 0x40 MLOAD PUSH2 0xBCF SWAP2 SWAP1 PUSH2 0x1329 JUMP JUMPDEST SWAP1 DUP2 MSTORE PUSH1 0x20 ADD PUSH1 0x40 MLOAD DUP1 SWAP2 SUB SWAP1 KECCAK256 PUSH1 0x0 ADD PUSH1 0x0 SWAP1 SLOAD SWAP1 PUSH2 0x100 EXP SWAP1 DIV PUSH20 0xFFFFFFFFFFFFFFFFFFFFFFFFFFFFFFFFFFFFFFFF AND PUSH20 0xFFFFFFFFFFFFFFFFFFFFFFFFFFFFFFFFFFFFFFFF AND PUSH4 0x95EA7B3 PUSH20 0xA5E0829CACED8FFDD4DE3C43696C57F7D7A678FF DUP9 PUSH1 0x40 MLOAD DUP4 PUSH4 0xFFFFFFFF AND PUSH1 0xE0 SHL DUP2 MSTORE PUSH1 0x4 ADD PUSH2 0xC4F SWAP3 SWAP2 SWAP1 PUSH2 0x13D0 JUMP JUMPDEST PUSH1 0x20 PUSH1 0x40 MLOAD DUP1 DUP4 SUB DUP2 PUSH1 0x0 DUP8 DUP1 EXTCODESIZE ISZERO DUP1 ISZERO PUSH2 0xC69 JUMPI PUSH1 0x0 DUP1 REVERT JUMPDEST POP GAS CALL ISZERO DUP1 ISZERO PUSH2 0xC7D JUMPI RETURNDATASIZE PUSH1 0x0 DUP1 RETURNDATACOPY RETURNDATASIZE PUSH1 0x0 REVERT JUMPDEST POP POP POP POP PUSH1 0x40 MLOAD RETURNDATASIZE PUSH1 0x1F NOT PUSH1 0x1F DUP3 ADD AND DUP3 ADD DUP1 PUSH1 0x40 MSTORE POP DUP2 ADD SWAP1 PUSH2 0xCA1 SWAP2 SWAP1 PUSH2 0xF02 JUMP JUMPDEST POP PUSH20 0xA5E0829CACED8FFDD4DE3C43696C57F7D7A678FF PUSH20 0xFFFFFFFFFFFFFFFFFFFFFFFFFFFFFFFFFFFFFFFF AND PUSH4 0x38ED1739 DUP8 DUP8 DUP5 CALLER DUP8 PUSH1 0x40 MLOAD DUP7 PUSH4 0xFFFFFFFF AND PUSH1 0xE0 SHL DUP2 MSTORE PUSH1 0x4 ADD PUSH2 0xCF7 SWAP6 SWAP5 SWAP4 SWAP3 SWAP2 SWAP1 PUSH2 0x1464 JUMP JUMPDEST PUSH1 0x0 PUSH1 0x40 MLOAD DUP1 DUP4 SUB DUP2 PUSH1 0x0 DUP8 DUP1 EXTCODESIZE ISZERO DUP1 ISZERO PUSH2 0xD11 JUMPI PUSH1 0x0 DUP1 REVERT JUMPDEST POP GAS CALL ISZERO DUP1 ISZERO PUSH2 0xD25 JUMPI RETURNDATASIZE PUSH1 0x0 DUP1 RETURNDATACOPY RETURNDATASIZE PUSH1 0x0 REVERT JUMPDEST POP POP POP POP PUSH1 0x40 MLOAD RETURNDATASIZE PUSH1 0x0 DUP3 RETURNDATACOPY RETURNDATASIZE PUSH1 0x1F NOT PUSH1 0x1F DUP3 ADD AND DUP3 ADD DUP1 PUSH1 0x40 MSTORE POP DUP2 ADD SWAP1 PUSH2 0xD4E SWAP2 SWAP1 PUSH2 0xEB9 JUMP JUMPDEST POP POP POP POP POP POP POP JUMP JUMPDEST PUSH1 0x0 PUSH2 0xD6A PUSH2 0xD65 DUP5 PUSH2 0x14E3 JUMP JUMPDEST PUSH2 0x14BE JUMP JUMPDEST SWAP1 POP DUP1 DUP4 DUP3 MSTORE PUSH1 0x20 DUP3 ADD SWAP1 POP DUP3 DUP6 PUSH1 0x20 DUP7 MUL DUP3 ADD GT ISZERO PUSH2 0xD8D JUMPI PUSH2 0xD8C PUSH2 0x16E5 JUMP JUMPDEST JUMPDEST PUSH1 0x0 JUMPDEST DUP6 DUP2 LT ISZERO PUSH2 0xDBD JUMPI DUP2 PUSH2 0xDA3 DUP9 DUP3 PUSH2 0xEA4 JUMP JUMPDEST DUP5 MSTORE PUSH1 0x20 DUP5 ADD SWAP4 POP PUSH1 0x20 DUP4 ADD SWAP3 POP POP PUSH1 0x1 DUP2 ADD SWAP1 POP PUSH2 0xD90 JUMP JUMPDEST POP POP POP SWAP4 SWAP3 POP POP POP JUMP JUMPDEST PUSH1 0x0 PUSH2 0xDDA PUSH2 0xDD5 DUP5 PUSH2 0x150F JUMP JUMPDEST PUSH2 0x14BE JUMP JUMPDEST SWAP1 POP DUP3 DUP2 MSTORE PUSH1 0x20 DUP2 ADD DUP5 DUP5 DUP5 ADD GT ISZERO PUSH2 0xDF6 JUMPI PUSH2 0xDF5 PUSH2 0x16EA JUMP JUMPDEST JUMPDEST PUSH2 0xE01 DUP5 DUP3 DUP6 PUSH2 0x160F JUMP JUMPDEST POP SWAP4 SWAP3 POP POP POP JUMP JUMPDEST PUSH1 0x0 DUP2 CALLDATALOAD SWAP1 POP PUSH2 0xE18 DUP2 PUSH2 0x1782 JUMP JUMPDEST SWAP3 SWAP2 POP POP JUMP JUMPDEST PUSH1 0x0 DUP3 PUSH1 0x1F DUP4 ADD SLT PUSH2 0xE33 JUMPI PUSH2 0xE32 PUSH2 0x16E0 JUMP JUMPDEST JUMPDEST DUP2 MLOAD PUSH2 0xE43 DUP5 DUP3 PUSH1 0x20 DUP7 ADD PUSH2 0xD57 JUMP JUMPDEST SWAP2 POP POP SWAP3 SWAP2 POP POP JUMP JUMPDEST PUSH1 0x0 DUP2 MLOAD SWAP1 POP PUSH2 0xE5B DUP2 PUSH2 0x1799 JUMP JUMPDEST SWAP3 SWAP2 POP POP JUMP JUMPDEST PUSH1 0x0 DUP3 PUSH1 0x1F DUP4 ADD SLT PUSH2 0xE76 JUMPI PUSH2 0xE75 PUSH2 0x16E0 JUMP JUMPDEST JUMPDEST DUP2 CALLDATALOAD PUSH2 0xE86 DUP5 DUP3 PUSH1 0x20 DUP7 ADD PUSH2 0xDC7 JUMP JUMPDEST SWAP2 POP POP SWAP3 SWAP2 POP POP JUMP JUMPDEST PUSH1 0x0 DUP2 CALLDATALOAD SWAP1 POP PUSH2 0xE9E DUP2 PUSH2 0x17B0 JUMP JUMPDEST SWAP3 SWAP2 POP POP JUMP JUMPDEST PUSH1 0x0 DUP2 MLOAD SWAP1 POP PUSH2 0xEB3 DUP2 PUSH2 0x17B0 JUMP JUMPDEST SWAP3 SWAP2 POP POP JUMP JUMPDEST PUSH1 0x0 PUSH1 0x20 DUP3 DUP5 SUB SLT ISZERO PUSH2 0xECF JUMPI PUSH2 0xECE PUSH2 0x16F4 JUMP JUMPDEST JUMPDEST PUSH1 0x0 DUP3 ADD MLOAD PUSH8 0xFFFFFFFFFFFFFFFF DUP2 GT ISZERO PUSH2 0xEED JUMPI PUSH2 0xEEC PUSH2 0x16EF JUMP JUMPDEST JUMPDEST PUSH2 0xEF9 DUP5 DUP3 DUP6 ADD PUSH2 0xE1E JUMP JUMPDEST SWAP2 POP POP SWAP3 SWAP2 POP POP JUMP JUMPDEST PUSH1 0x0 PUSH1 0x20 DUP3 DUP5 SUB SLT ISZERO PUSH2 0xF18 JUMPI PUSH2 0xF17 PUSH2 0x16F4 JUMP JUMPDEST JUMPDEST PUSH1 0x0 PUSH2 0xF26 DUP5 DUP3 DUP6 ADD PUSH2 0xE4C JUMP JUMPDEST SWAP2 POP POP SWAP3 SWAP2 POP POP JUMP JUMPDEST PUSH1 0x0 PUSH1 0x20 DUP3 DUP5 SUB SLT ISZERO PUSH2 0xF45 JUMPI PUSH2 0xF44 PUSH2 0x16F4 JUMP JUMPDEST JUMPDEST PUSH1 0x0 DUP3 ADD CALLDATALOAD PUSH8 0xFFFFFFFFFFFFFFFF DUP2 GT ISZERO PUSH2 0xF63 JUMPI PUSH2 0xF62 PUSH2 0x16EF JUMP JUMPDEST JUMPDEST PUSH2 0xF6F DUP5 DUP3 DUP6 ADD PUSH2 0xE61 JUMP JUMPDEST SWAP2 POP POP SWAP3 SWAP2 POP POP JUMP JUMPDEST PUSH1 0x0 DUP1 PUSH1 0x40 DUP4 DUP6 SUB SLT ISZERO PUSH2 0xF8F JUMPI PUSH2 0xF8E PUSH2 0x16F4 JUMP JUMPDEST JUMPDEST PUSH1 0x0 DUP4 ADD CALLDATALOAD PUSH8 0xFFFFFFFFFFFFFFFF DUP2 GT ISZERO PUSH2 0xFAD JUMPI PUSH2 0xFAC PUSH2 0x16EF JUMP JUMPDEST JUMPDEST PUSH2 0xFB9 DUP6 DUP3 DUP7 ADD PUSH2 0xE61 JUMP JUMPDEST SWAP3 POP POP PUSH1 0x20 PUSH2 0xFCA DUP6 DUP3 DUP7 ADD PUSH2 0xE09 JUMP JUMPDEST SWAP2 POP POP SWAP3 POP SWAP3 SWAP1 POP JUMP JUMPDEST PUSH1 0x0 DUP1 PUSH1 0x0 PUSH1 0x60 DUP5 DUP7 SUB SLT ISZERO PUSH2 0xFED JUMPI PUSH2 0xFEC PUSH2 0x16F4 JUMP JUMPDEST JUMPDEST PUSH1 0x0 DUP5 ADD CALLDATALOAD PUSH8 0xFFFFFFFFFFFFFFFF DUP2 GT ISZERO PUSH2 0x100B JUMPI PUSH2 0x100A PUSH2 0x16EF JUMP JUMPDEST JUMPDEST PUSH2 0x1017 DUP7 DUP3 DUP8 ADD PUSH2 0xE61 JUMP JUMPDEST SWAP4 POP POP PUSH1 0x20 PUSH2 0x1028 DUP7 DUP3 DUP8 ADD PUSH2 0xE09 JUMP JUMPDEST SWAP3 POP POP PUSH1 0x40 PUSH2 0x1039 DUP7 DUP3 DUP8 ADD PUSH2 0xE8F JUMP JUMPDEST SWAP2 POP POP SWAP3 POP SWAP3 POP SWAP3 JUMP JUMPDEST PUSH1 0x0 DUP1 PUSH1 0x40 DUP4 DUP6 SUB SLT ISZERO PUSH2 0x105A JUMPI PUSH2 0x1059 PUSH2 0x16F4 JUMP JUMPDEST JUMPDEST PUSH1 0x0 DUP4 ADD CALLDATALOAD PUSH8 0xFFFFFFFFFFFFFFFF DUP2 GT ISZERO PUSH2 0x1078 JUMPI PUSH2 0x1077 PUSH2 0x16EF JUMP JUMPDEST JUMPDEST PUSH2 0x1084 DUP6 DUP3 DUP7 ADD PUSH2 0xE61 JUMP JUMPDEST SWAP3 POP POP PUSH1 0x20 PUSH2 0x1095 DUP6 DUP3 DUP7 ADD PUSH2 0xE8F JUMP JUMPDEST SWAP2 POP POP SWAP3 POP SWAP3 SWAP1 POP JUMP JUMPDEST PUSH1 0x0 PUSH1 0x20 DUP3 DUP5 SUB SLT ISZERO PUSH2 0x10B5 JUMPI PUSH2 0x10B4 PUSH2 0x16F4 JUMP JUMPDEST JUMPDEST PUSH1 0x0 PUSH2 0x10C3 DUP5 DUP3 DUP6 ADD PUSH2 0xEA4 JUMP JUMPDEST SWAP2 POP POP SWAP3 SWAP2 POP POP JUMP JUMPDEST PUSH1 0x0 DUP1 PUSH1 0x0 DUP1 PUSH1 0x0 PUSH1 0xA0 DUP7 DUP9 SUB SLT ISZERO PUSH2 0x10E8 JUMPI PUSH2 0x10E7 PUSH2 0x16F4 JUMP JUMPDEST JUMPDEST PUSH1 0x0 PUSH2 0x10F6 DUP9 DUP3 DUP10 ADD PUSH2 0xE8F JUMP JUMPDEST SWAP6 POP POP PUSH1 0x20 PUSH2 0x1107 DUP9 DUP3 DUP10 ADD PUSH2 0xE8F JUMP JUMPDEST SWAP5 POP POP PUSH1 0x40 DUP7 ADD CALLDATALOAD PUSH8 0xFFFFFFFFFFFFFFFF DUP2 GT ISZERO PUSH2 0x1128 JUMPI PUSH2 0x1127 PUSH2 0x16EF JUMP JUMPDEST JUMPDEST PUSH2 0x1134 DUP9 DUP3 DUP10 ADD PUSH2 0xE61 JUMP JUMPDEST SWAP4 POP POP PUSH1 0x60 DUP7 ADD CALLDATALOAD PUSH8 0xFFFFFFFFFFFFFFFF DUP2 GT ISZERO PUSH2 0x1155 JUMPI PUSH2 0x1154 PUSH2 0x16EF JUMP JUMPDEST JUMPDEST PUSH2 0x1161 DUP9 DUP3 DUP10 ADD PUSH2 0xE61 JUMP JUMPDEST SWAP3 POP POP PUSH1 0x80 PUSH2 0x1172 DUP9 DUP3 DUP10 ADD PUSH2 0xE8F JUMP JUMPDEST SWAP2 POP POP SWAP3 SWAP6 POP SWAP3 SWAP6 SWAP1 SWAP4 POP JUMP JUMPDEST PUSH1 0x0 PUSH2 0x118B DUP4 DUP4 PUSH2 0x1197 JUMP JUMPDEST PUSH1 0x20 DUP4 ADD SWAP1 POP SWAP3 SWAP2 POP POP JUMP JUMPDEST PUSH2 0x11A0 DUP2 PUSH2 0x15C7 JUMP JUMPDEST DUP3 MSTORE POP POP JUMP JUMPDEST PUSH2 0x11AF DUP2 PUSH2 0x15C7 JUMP JUMPDEST DUP3 MSTORE POP POP JUMP JUMPDEST PUSH1 0x0 PUSH2 0x11C0 DUP3 PUSH2 0x1550 JUMP JUMPDEST PUSH2 0x11CA DUP2 DUP6 PUSH2 0x157E JUMP JUMPDEST SWAP4 POP PUSH2 0x11D5 DUP4 PUSH2 0x1540 JUMP JUMPDEST DUP1 PUSH1 0x0 JUMPDEST DUP4 DUP2 LT ISZERO PUSH2 0x1206 JUMPI DUP2 MLOAD PUSH2 0x11ED DUP9 DUP3 PUSH2 0x117F JUMP JUMPDEST SWAP8 POP PUSH2 0x11F8 DUP4 PUSH2 0x1571 JUMP JUMPDEST SWAP3 POP POP PUSH1 0x1 DUP2 ADD SWAP1 POP PUSH2 0x11D9 JUMP JUMPDEST POP DUP6 SWAP4 POP POP POP POP SWAP3 SWAP2 POP POP JUMP JUMPDEST PUSH2 0x121C DUP2 PUSH2 0x15D9 JUMP JUMPDEST DUP3 MSTORE POP POP JUMP JUMPDEST PUSH1 0x0 PUSH2 0x122D DUP3 PUSH2 0x155B JUMP JUMPDEST PUSH2 0x1237 DUP2 DUP6 PUSH2 0x158F JUMP JUMPDEST SWAP4 POP PUSH2 0x1247 DUP2 DUP6 PUSH1 0x20 DUP7 ADD PUSH2 0x161E JUMP JUMPDEST PUSH2 0x1250 DUP2 PUSH2 0x16F9 JUMP JUMPDEST DUP5 ADD SWAP2 POP POP SWAP3 SWAP2 POP POP JUMP JUMPDEST PUSH1 0x0 PUSH2 0x1266 DUP3 PUSH2 0x155B JUMP JUMPDEST PUSH2 0x1270 DUP2 DUP6 PUSH2 0x15A0 JUMP JUMPDEST SWAP4 POP PUSH2 0x1280 DUP2 DUP6 PUSH1 0x20 DUP7 ADD PUSH2 0x161E JUMP JUMPDEST DUP1 DUP5 ADD SWAP2 POP POP SWAP3 SWAP2 POP POP JUMP JUMPDEST PUSH1 0x0 PUSH2 0x1297 DUP3 PUSH2 0x1566 JUMP JUMPDEST PUSH2 0x12A1 DUP2 DUP6 PUSH2 0x15BC JUMP JUMPDEST SWAP4 POP PUSH2 0x12B1 DUP2 DUP6 PUSH1 0x20 DUP7 ADD PUSH2 0x161E JUMP JUMPDEST DUP1 DUP5 ADD SWAP2 POP POP SWAP3 SWAP2 POP POP JUMP JUMPDEST PUSH1 0x0 PUSH2 0x12CA PUSH1 0x38 DUP4 PUSH2 0x15AB JUMP JUMPDEST SWAP2 POP PUSH2 0x12D5 DUP3 PUSH2 0x170A JUMP JUMPDEST PUSH1 0x40 DUP3 ADD SWAP1 POP SWAP2 SWAP1 POP JUMP JUMPDEST PUSH1 0x0 PUSH2 0x12ED PUSH1 0x6 DUP4 PUSH2 0x15BC JUMP JUMPDEST SWAP2 POP PUSH2 0x12F8 DUP3 PUSH2 0x1759 JUMP JUMPDEST PUSH1 0x6 DUP3 ADD SWAP1 POP SWAP2 SWAP1 POP JUMP JUMPDEST PUSH2 0x130C DUP2 PUSH2 0x1605 JUMP JUMPDEST DUP3 MSTORE POP POP JUMP JUMPDEST PUSH1 0x0 PUSH2 0x131E DUP3 DUP5 PUSH2 0x125B JUMP JUMPDEST SWAP2 POP DUP2 SWAP1 POP SWAP3 SWAP2 POP POP JUMP JUMPDEST PUSH1 0x0 PUSH2 0x1335 DUP3 DUP5 PUSH2 0x128C JUMP JUMPDEST SWAP2 POP DUP2 SWAP1 POP SWAP3 SWAP2 POP POP JUMP JUMPDEST PUSH1 0x0 PUSH2 0x134B DUP3 PUSH2 0x12E0 JUMP JUMPDEST SWAP2 POP DUP2 SWAP1 POP SWAP2 SWAP1 POP JUMP JUMPDEST PUSH1 0x0 PUSH1 0x20 DUP3 ADD SWAP1 POP PUSH2 0x136A PUSH1 0x0 DUP4 ADD DUP5 PUSH2 0x11A6 JUMP JUMPDEST SWAP3 SWAP2 POP POP JUMP JUMPDEST PUSH1 0x0 PUSH1 0x40 DUP3 ADD SWAP1 POP PUSH2 0x1385 PUSH1 0x0 DUP4 ADD DUP6 PUSH2 0x11A6 JUMP JUMPDEST PUSH2 0x1392 PUSH1 0x20 DUP4 ADD DUP5 PUSH2 0x11A6 JUMP JUMPDEST SWAP4 SWAP3 POP POP POP JUMP JUMPDEST PUSH1 0x0 PUSH1 0x60 DUP3 ADD SWAP1 POP PUSH2 0x13AE PUSH1 0x0 DUP4 ADD DUP7 PUSH2 0x11A6 JUMP JUMPDEST PUSH2 0x13BB PUSH1 0x20 DUP4 ADD DUP6 PUSH2 0x11A6 JUMP JUMPDEST PUSH2 0x13C8 PUSH1 0x40 DUP4 ADD DUP5 PUSH2 0x1303 JUMP JUMPDEST SWAP5 SWAP4 POP POP POP POP JUMP JUMPDEST PUSH1 0x0 PUSH1 0x40 DUP3 ADD SWAP1 POP PUSH2 0x13E5 PUSH1 0x0 DUP4 ADD DUP6 PUSH2 0x11A6 JUMP JUMPDEST PUSH2 0x13F2 PUSH1 0x20 DUP4 ADD DUP5 PUSH2 0x1303 JUMP JUMPDEST SWAP4 SWAP3 POP POP POP JUMP JUMPDEST PUSH1 0x0 PUSH1 0x40 DUP3 ADD SWAP1 POP PUSH2 0x140E PUSH1 0x0 DUP4 ADD DUP6 PUSH2 0x1213 JUMP JUMPDEST DUP2 DUP2 SUB PUSH1 0x20 DUP4 ADD MSTORE PUSH2 0x1420 DUP2 DUP5 PUSH2 0x1222 JUMP JUMPDEST SWAP1 POP SWAP4 SWAP3 POP POP POP JUMP JUMPDEST PUSH1 0x0 PUSH1 0x20 DUP3 ADD SWAP1 POP DUP2 DUP2 SUB PUSH1 0x0 DUP4 ADD MSTORE PUSH2 0x1442 DUP2 PUSH2 0x12BD JUMP JUMPDEST SWAP1 POP SWAP2 SWAP1 POP JUMP JUMPDEST PUSH1 0x0 PUSH1 0x20 DUP3 ADD SWAP1 POP PUSH2 0x145E PUSH1 0x0 DUP4 ADD DUP5 PUSH2 0x1303 JUMP JUMPDEST SWAP3 SWAP2 POP POP JUMP JUMPDEST PUSH1 0x0 PUSH1 0xA0 DUP3 ADD SWAP1 POP PUSH2 0x1479 PUSH1 0x0 DUP4 ADD DUP9 PUSH2 0x1303 JUMP JUMPDEST PUSH2 0x1486 PUSH1 0x20 DUP4 ADD DUP8 PUSH2 0x1303 JUMP JUMPDEST DUP2 DUP2 SUB PUSH1 0x40 DUP4 ADD MSTORE PUSH2 0x1498 DUP2 DUP7 PUSH2 0x11B5 JUMP JUMPDEST SWAP1 POP PUSH2 0x14A7 PUSH1 0x60 DUP4 ADD DUP6 PUSH2 0x11A6 JUMP JUMPDEST PUSH2 0x14B4 PUSH1 0x80 DUP4 ADD DUP5 PUSH2 0x1303 JUMP JUMPDEST SWAP7 SWAP6 POP POP POP POP POP POP JUMP JUMPDEST PUSH1 0x0 PUSH2 0x14C8 PUSH2 0x14D9 JUMP JUMPDEST SWAP1 POP PUSH2 0x14D4 DUP3 DUP3 PUSH2 0x1651 JUMP JUMPDEST SWAP2 SWAP1 POP JUMP JUMPDEST PUSH1 0x0 PUSH1 0x40 MLOAD SWAP1 POP SWAP1 JUMP JUMPDEST PUSH1 0x0 PUSH8 0xFFFFFFFFFFFFFFFF DUP3 GT ISZERO PUSH2 0x14FE JUMPI PUSH2 0x14FD PUSH2 0x16B1 JUMP JUMPDEST JUMPDEST PUSH1 0x20 DUP3 MUL SWAP1 POP PUSH1 0x20 DUP2 ADD SWAP1 POP SWAP2 SWAP1 POP JUMP JUMPDEST PUSH1 0x0 PUSH8 0xFFFFFFFFFFFFFFFF DUP3 GT ISZERO PUSH2 0x152A JUMPI PUSH2 0x1529 PUSH2 0x16B1 JUMP JUMPDEST JUMPDEST PUSH2 0x1533 DUP3 PUSH2 0x16F9 JUMP JUMPDEST SWAP1 POP PUSH1 0x20 DUP2 ADD SWAP1 POP SWAP2 SWAP1 POP JUMP JUMPDEST PUSH1 0x0 DUP2 SWAP1 POP PUSH1 0x20 DUP3 ADD SWAP1 POP SWAP2 SWAP1 POP JUMP JUMPDEST PUSH1 0x0 DUP2 MLOAD SWAP1 POP SWAP2 SWAP1 POP JUMP JUMPDEST PUSH1 0x0 DUP2 MLOAD SWAP1 POP SWAP2 SWAP1 POP JUMP JUMPDEST PUSH1 0x0 DUP2 MLOAD SWAP1 POP SWAP2 SWAP1 POP JUMP JUMPDEST PUSH1 0x0 PUSH1 0x20 DUP3 ADD SWAP1 POP SWAP2 SWAP1 POP JUMP JUMPDEST PUSH1 0x0 DUP3 DUP3 MSTORE PUSH1 0x20 DUP3 ADD SWAP1 POP SWAP3 SWAP2 POP POP JUMP JUMPDEST PUSH1 0x0 DUP3 DUP3 MSTORE PUSH1 0x20 DUP3 ADD SWAP1 POP SWAP3 SWAP2 POP POP JUMP JUMPDEST PUSH1 0x0 DUP2 SWAP1 POP SWAP3 SWAP2 POP POP JUMP JUMPDEST PUSH1 0x0 DUP3 DUP3 MSTORE PUSH1 0x20 DUP3 ADD SWAP1 POP SWAP3 SWAP2 POP POP JUMP JUMPDEST PUSH1 0x0 DUP2 SWAP1 POP SWAP3 SWAP2 POP POP JUMP JUMPDEST PUSH1 0x0 PUSH2 0x15D2 DUP3 PUSH2 0x15E5 JUMP JUMPDEST SWAP1 POP SWAP2 SWAP1 POP JUMP JUMPDEST PUSH1 0x0 DUP2 ISZERO ISZERO SWAP1 POP SWAP2 SWAP1 POP JUMP JUMPDEST PUSH1 0x0 PUSH20 0xFFFFFFFFFFFFFFFFFFFFFFFFFFFFFFFFFFFFFFFF DUP3 AND SWAP1 POP SWAP2 SWAP1 POP JUMP JUMPDEST PUSH1 0x0 DUP2 SWAP1 POP SWAP2 SWAP1 POP JUMP JUMPDEST DUP3 DUP2 DUP4 CALLDATACOPY PUSH1 0x0 DUP4 DUP4 ADD MSTORE POP POP POP JUMP JUMPDEST PUSH1 0x0 JUMPDEST DUP4 DUP2 LT ISZERO PUSH2 0x163C JUMPI DUP1 DUP3 ADD MLOAD DUP2 DUP5 ADD MSTORE PUSH1 0x20 DUP2 ADD SWAP1 POP PUSH2 0x1621 JUMP JUMPDEST DUP4 DUP2 GT ISZERO PUSH2 0x164B JUMPI PUSH1 0x0 DUP5 DUP5 ADD MSTORE JUMPDEST POP POP POP POP JUMP JUMPDEST PUSH2 0x165A DUP3 PUSH2 0x16F9 JUMP JUMPDEST DUP2 ADD DUP2 DUP2 LT PUSH8 0xFFFFFFFFFFFFFFFF DUP3 GT OR ISZERO PUSH2 0x1679 JUMPI PUSH2 0x1678 PUSH2 0x16B1 JUMP JUMPDEST JUMPDEST DUP1 PUSH1 0x40 MSTORE POP POP POP JUMP JUMPDEST PUSH32 0x4E487B7100000000000000000000000000000000000000000000000000000000 PUSH1 0x0 MSTORE PUSH1 0x32 PUSH1 0x4 MSTORE PUSH1 0x24 PUSH1 0x0 REVERT JUMPDEST PUSH32 0x4E487B7100000000000000000000000000000000000000000000000000000000 PUSH1 0x0 MSTORE PUSH1 0x41 PUSH1 0x4 MSTORE PUSH1 0x24 PUSH1 0x0 REVERT JUMPDEST PUSH1 0x0 DUP1 REVERT JUMPDEST PUSH1 0x0 DUP1 REVERT JUMPDEST PUSH1 0x0 DUP1 REVERT JUMPDEST PUSH1 0x0 DUP1 REVERT JUMPDEST PUSH1 0x0 DUP1 REVERT JUMPDEST PUSH1 0x0 PUSH1 0x1F NOT PUSH1 0x1F DUP4 ADD AND SWAP1 POP SWAP2 SWAP1 POP JUMP JUMPDEST PUSH32 0x455243323020636F6E747261637420686173206E6F7420676976656E20706572 PUSH1 0x0 DUP3 ADD MSTORE PUSH32 0x6D697373696F6E20746F207468697320616464726573732E0000000000000000 PUSH1 0x20 DUP3 ADD MSTORE POP JUMP JUMPDEST PUSH32 0x574D415449430000000000000000000000000000000000000000000000000000 PUSH1 0x0 DUP3 ADD MSTORE POP JUMP JUMPDEST PUSH2 0x178B DUP2 PUSH2 0x15C7 JUMP JUMPDEST DUP2 EQ PUSH2 0x1796 JUMPI PUSH1 0x0 DUP1 REVERT JUMPDEST POP JUMP JUMPDEST PUSH2 0x17A2 DUP2 PUSH2 0x15D9 JUMP JUMPDEST DUP2 EQ PUSH2 0x17AD JUMPI PUSH1 0x0 DUP1 REVERT JUMPDEST POP JUMP JUMPDEST PUSH2 0x17B9 DUP2 PUSH2 0x1605 JUMP JUMPDEST DUP2 EQ PUSH2 0x17C4 JUMPI PUSH1 0x0 DUP1 REVERT JUMPDEST POP JUMP INVALID LOG2 PUSH5 0x6970667358 0x22 SLT KECCAK256 SGT PC 0xD3 0x1E SELFDESTRUCT XOR DUP5 DELEGATECALL LOG0 SWAP7 0x5D PUSH12 0x9E663F997B5B6376773ACD8D PUSH6 0x78EEF29EF73E SWAP9 PUSH5 0x736F6C6343 STOP ADDMOD SMOD STOP CALLER "
				},
				"gasEstimates": {
					"creation": {
						"codeDepositCost": "1228200",
						"executionCost": "infinite",
						"totalCost": "infinite"
					},
					"external": {
						"get_token_balance(string,address)": "infinite",
						"get_token_balance_contract(string)": "infinite",
						"get_token_balance_sender(string)": "infinite",
						"receive_wmatic()": "infinite",
						"swap_exact_tokens_for_tokens(uint256,uint256,string,string,uint256)": "infinite",
						"transfer_token(string,address,uint256)": "infinite",
						"transfer_token_to_contract(string,uint256)": "infinite"
					}
				},
				"methodIdentifiers": {
					"get_token_balance(string,address)": "c3a48401",
					"get_token_balance_contract(string)": "e4386ba3",
					"get_token_balance_sender(string)": "7d3683ba",
					"receive_wmatic()": "7b60eb23",
					"swap_exact_tokens_for_tokens(uint256,uint256,string,string,uint256)": "f809a2e6",
					"transfer_token(string,address,uint256)": "7552acd6",
					"transfer_token_to_contract(string,uint256)": "9bc97dee"
				}
			},
			"storageLayout": {
				"storage": [
					{
						"astId": 495,
						"contract": "contracts/polygon/microcebus_main.sol:microcebus_main",
						"label": "token_contracts",
						"offset": 0,
						"slot": "0",
						"type": "t_mapping(t_string_memory_ptr,t_struct(Token)473_storage)"
					},
					{
						"astId": 521,
						"contract": "contracts/polygon/microcebus_main.sol:microcebus_main",
						"label": "admin",
						"offset": 0,
						"slot": "1",
						"type": "t_address"
					}
				],
				"types": {
					"t_address": {
						"encoding": "inplace",
						"label": "address",
						"numberOfBytes": "20"
					},
					"t_mapping(t_string_memory_ptr,t_struct(Token)473_storage)": {
						"encoding": "mapping",
						"key": "t_string_memory_ptr",
						"label": "mapping(string => struct microcebus_main.Token)",
						"numberOfBytes": "32",
						"value": "t_struct(Token)473_storage"
					},
					"t_string_memory_ptr": {
						"encoding": "bytes",
						"label": "string",
						"numberOfBytes": "32"
					},
					"t_struct(Token)473_storage": {
						"encoding": "inplace",
						"label": "struct microcebus_main.Token",
						"members": [
							{
								"astId": 470,
								"contract": "contracts/polygon/microcebus_main.sol:microcebus_main",
								"label": "adr",
								"offset": 0,
								"slot": "0",
								"type": "t_address"
							},
							{
								"astId": 472,
								"contract": "contracts/polygon/microcebus_main.sol:microcebus_main",
								"label": "decimals",
								"offset": 0,
								"slot": "1",
								"type": "t_uint256"
							}
						],
						"numberOfBytes": "64"
					},
					"t_uint256": {
						"encoding": "inplace",
						"label": "uint256",
						"numberOfBytes": "32"
					}
				}
			},
			"userdoc": {
				"kind": "user",
				"methods": {},
				"version": 1
			}
		}
	}
}