{
  "contractName": "microcebus_main",
  "abi": [
    {
      "inputs": [],
      "stateMutability": "nonpayable",
      "type": "constructor"
    },
    {
      "anonymous": false,
      "inputs": [
        {
          "indexed": false,
          "internalType": "bool",
          "name": "success",
          "type": "bool"
        },
        {
          "indexed": false,
          "internalType": "bytes",
          "name": "data",
          "type": "bytes"
        }
      ],
      "name": "Response",
      "type": "event"
    },
    {
      "stateMutability": "payable",
      "type": "receive",
      "payable": true
    },
    {
      "inputs": [],
      "name": "receive_wmatic",
      "outputs": [],
      "stateMutability": "payable",
      "type": "function",
      "payable": true
    },
    {
      "inputs": [
        {
          "internalType": "string",
          "name": "_token_in_identifier",
          "type": "string"
        },
        {
          "internalType": "address",
          "name": "_token_receiver",
          "type": "address"
        },
        {
          "internalType": "uint256",
          "name": "_amount",
          "type": "uint256"
        }
      ],
      "name": "transfer_token",
      "outputs": [],
      "stateMutability": "nonpayable",
      "type": "function"
    },
    {
      "inputs": [
        {
          "internalType": "string",
          "name": "_token_in_identifier",
          "type": "string"
        },
        {
          "internalType": "uint256",
          "name": "_amount",
          "type": "uint256"
        }
      ],
      "name": "transfer_token_to_contract",
      "outputs": [],
      "stateMutability": "nonpayable",
      "type": "function"
    },
    {
      "inputs": [
        {
          "internalType": "uint256",
          "name": "_amount_in",
          "type": "uint256"
        },
        {
          "internalType": "uint256",
          "name": "_amount_out_min",
          "type": "uint256"
        },
        {
          "internalType": "string",
          "name": "_token_in_identifier",
          "type": "string"
        },
        {
          "internalType": "string",
          "name": "_token_out_identifier",
          "type": "string"
        },
        {
          "internalType": "uint256",
          "name": "deadline",
          "type": "uint256"
        }
      ],
      "name": "swap_exact_tokens_for_tokens",
      "outputs": [],
      "stateMutability": "nonpayable",
      "type": "function"
    },
    {
      "inputs": [
        {
          "internalType": "string",
          "name": "_tokenA_in_identifier",
          "type": "string"
        },
        {
          "internalType": "string",
          "name": "_tokenB_in_identifier",
          "type": "string"
        },
        {
          "internalType": "uint256",
          "name": "_amountA_desired",
          "type": "uint256"
        },
        {
          "internalType": "uint256",
          "name": "_amountB_desired",
          "type": "uint256"
        },
        {
          "internalType": "uint256",
          "name": "_amountA_Min",
          "type": "uint256"
        },
        {
          "internalType": "uint256",
          "name": "_amountB_Min",
          "type": "uint256"
        },
        {
          "internalType": "uint256",
          "name": "deadline",
          "type": "uint256"
        }
      ],
      "name": "add_liquidity",
      "outputs": [],
      "stateMutability": "nonpayable",
      "type": "function"
    },
    {
      "inputs": [
        {
          "internalType": "string",
          "name": "_tokenA_in_identifier",
          "type": "string"
        },
        {
          "internalType": "string",
          "name": "_tokenB_in_identifier",
          "type": "string"
        },
        {
          "internalType": "uint256",
          "name": "_liquidity",
          "type": "uint256"
        },
        {
          "internalType": "uint256",
          "name": "_amountA_Min",
          "type": "uint256"
        },
        {
          "internalType": "uint256",
          "name": "_amountB_Min",
          "type": "uint256"
        },
        {
          "internalType": "uint256",
          "name": "deadline",
          "type": "uint256"
        }
      ],
      "name": "withdraw_liquidity",
      "outputs": [],
      "stateMutability": "nonpayable",
      "type": "function"
    },
    {
      "inputs": [
        {
          "internalType": "string",
          "name": "_tokenA_in_identifier",
          "type": "string"
        },
        {
          "internalType": "string",
          "name": "_tokenB_in_identifier",
          "type": "string"
        }
      ],
      "name": "get_reserves",
      "outputs": [
        {
          "internalType": "uint112",
          "name": "",
          "type": "uint112"
        },
        {
          "internalType": "uint112",
          "name": "",
          "type": "uint112"
        }
      ],
      "stateMutability": "view",
      "type": "function",
      "constant": true
    },
    {
      "inputs": [
        {
          "internalType": "uint256",
          "name": "_amount_in",
          "type": "uint256"
        },
        {
          "internalType": "string",
          "name": "_token_in_identifier",
          "type": "string"
        },
        {
          "internalType": "string",
          "name": "_token_out_identifier",
          "type": "string"
        }
      ],
      "name": "get_amounts_out",
      "outputs": [
        {
          "internalType": "uint256",
          "name": "",
          "type": "uint256"
        }
      ],
      "stateMutability": "view",
      "type": "function",
      "constant": true
    },
    {
      "inputs": [
        {
          "internalType": "string",
          "name": "_token_identifier",
          "type": "string"
        },
        {
          "internalType": "address",
          "name": "_token_owner",
          "type": "address"
        }
      ],
      "name": "get_token_balance",
      "outputs": [
        {
          "internalType": "uint256",
          "name": "",
          "type": "uint256"
        }
      ],
      "stateMutability": "view",
      "type": "function",
      "constant": true
    },
    {
      "inputs": [
        {
          "internalType": "string",
          "name": "_token_identifier",
          "type": "string"
        }
      ],
      "name": "get_token_balance_sender",
      "outputs": [
        {
          "internalType": "uint256",
          "name": "",
          "type": "uint256"
        }
      ],
      "stateMutability": "view",
      "type": "function",
      "constant": true
    },
    {
      "inputs": [
        {
          "internalType": "string",
          "name": "_token_identifier",
          "type": "string"
        }
      ],
      "name": "get_token_balance_contract",
      "outputs": [
        {
          "internalType": "uint256",
          "name": "",
          "type": "uint256"
        }
      ],
      "stateMutability": "view",
      "type": "function",
      "constant": true
    },
    {
      "inputs": [
        {
          "internalType": "string",
          "name": "_tokenA_in_identifier",
          "type": "string"
        },
        {
          "internalType": "string",
          "name": "_tokenB_in_identifier",
          "type": "string"
        },
        {
          "internalType": "address",
          "name": "_token_owner",
          "type": "address"
        }
      ],
      "name": "get_lp_token_balance",
      "outputs": [
        {
          "internalType": "uint256",
          "name": "",
          "type": "uint256"
        }
      ],
      "stateMutability": "view",
      "type": "function",
      "constant": true
    },
    {
      "inputs": [
        {
          "internalType": "string",
          "name": "_tokenA_in_identifier",
          "type": "string"
        },
        {
          "internalType": "string",
          "name": "_tokenB_in_identifier",
          "type": "string"
        }
      ],
      "name": "get_lp_token_balance_sender",
      "outputs": [
        {
          "internalType": "uint256",
          "name": "",
          "type": "uint256"
        }
      ],
      "stateMutability": "view",
      "type": "function",
      "constant": true
    },
    {
      "inputs": [
        {
          "internalType": "string",
          "name": "_tokenA_in_identifier",
          "type": "string"
        },
        {
          "internalType": "string",
          "name": "_tokenB_in_identifier",
          "type": "string"
        }
      ],
      "name": "get_lp_token_balance_contract",
      "outputs": [
        {
          "internalType": "uint256",
          "name": "",
          "type": "uint256"
        }
      ],
      "stateMutability": "view",
      "type": "function",
      "constant": true
    },
    {
      "inputs": [
        {
          "internalType": "address",
          "name": "_user",
          "type": "address"
        },
        {
          "internalType": "string",
          "name": "_tokenA_in_identifier",
          "type": "string"
        },
        {
          "internalType": "string",
          "name": "_tokenB_in_identifier",
          "type": "string"
        }
      ],
      "name": "get_user_deposit",
      "outputs": [
        {
          "internalType": "uint256",
          "name": "",
          "type": "uint256"
        }
      ],
      "stateMutability": "view",
      "type": "function",
      "constant": true
    }
  ],
  "bytecode": "0x60806040523480156200001157600080fd5b5033600260006101000a81548173ffffffffffffffffffffffffffffffffffffffff021916908373ffffffffffffffffffffffffffffffffffffffff1602179055506040518060400160405280738f3cf7ad23cd3cadbd9735aff958023239c6a06373ffffffffffffffffffffffffffffffffffffffff16815260200160128152506000604051620000a39062000846565b908152602001604051809103902060008201518160000160006101000a81548173ffffffffffffffffffffffffffffffffffffffff021916908373ffffffffffffffffffffffffffffffffffffffff160217905550602082015181600101559050506040518060400160405280737ceb23fd6bc0add59e62ac25578270cff1b9f61973ffffffffffffffffffffffffffffffffffffffff168152602001601281525060006040516200015590620008ad565b908152602001604051809103902060008201518160000160006101000a81548173ffffffffffffffffffffffffffffffffffffffff021916908373ffffffffffffffffffffffffffffffffffffffff160217905550602082015181600101559050506040518060400160405280730d500b1d8e8ef31e21c99d1db9a6444d3adf127073ffffffffffffffffffffffffffffffffffffffff16815260200160128152506000604051620002079062000914565b908152602001604051809103902060008201518160000160006101000a81548173ffffffffffffffffffffffffffffffffffffffff021916908373ffffffffffffffffffffffffffffffffffffffff160217905550602082015181600101559050506040518060400160405280732791bca1f2de4661ed88a30c99a7a9449aa8417473ffffffffffffffffffffffffffffffffffffffff16815260200160068152506000604051620002b9906200097b565b908152602001604051809103902060008201518160000160006101000a81548173ffffffffffffffffffffffffffffffffffffffff021916908373ffffffffffffffffffffffffffffffffffffffff16021790555060208201518160010155905050604051806040016040528073c2132d05d31c914a87c6611c10748aeb04b58e8f73ffffffffffffffffffffffffffffffffffffffff168152602001600681525060006040516200036b90620009e2565b908152602001604051809103902060008201518160000160006101000a81548173ffffffffffffffffffffffffffffffffffffffff021916908373ffffffffffffffffffffffffffffffffffffffff160217905550602082015181600101559050506040518060400160405280731bfd67037b42cf73acf2047067bd4f2c47d9bfd673ffffffffffffffffffffffffffffffffffffffff168152602001600881525060006040516200041d9062000a49565b908152602001604051809103902060008201518160000160006101000a81548173ffffffffffffffffffffffffffffffffffffffff021916908373ffffffffffffffffffffffffffffffffffffffff16021790555060208201518160010155905050604051806040016040528073f28164a485b0b2c90639e47b0f377b4a438a16b173ffffffffffffffffffffffffffffffffffffffff16815260200160128152506000604051620004cf9062000ab0565b908152602001604051809103902060008201518160000160006101000a81548173ffffffffffffffffffffffffffffffffffffffff021916908373ffffffffffffffffffffffffffffffffffffffff1602179055506020820151816001015590505073eef611894ceae652979c9d0dae1deb597790c6ee6001604051620005569062000914565b9081526020016040518091039020604051620005729062000846565b908152602001604051809103902060040160006101000a81548173ffffffffffffffffffffffffffffffffffffffff021916908373ffffffffffffffffffffffffffffffffffffffff16021790555060126001604051620005d39062000914565b9081526020016040518091039020604051620005ef9062000846565b90815260200160405180910390206005018190555060006001604051620006169062000914565b9081526020016040518091039020604051620006329062000846565b9081526020016040518091039020600701819055506000604051620006579062000914565b90815260200160405180910390206001604051620006759062000914565b9081526020016040518091039020604051620006919062000846565b90815260200160405180910390206000016000820160009054906101000a900473ffffffffffffffffffffffffffffffffffffffff168160000160006101000a81548173ffffffffffffffffffffffffffffffffffffffff021916908373ffffffffffffffffffffffffffffffffffffffff160217905550600182015481600101559050506000604051620007269062000846565b90815260200160405180910390206001604051620007449062000914565b9081526020016040518091039020604051620007609062000846565b90815260200160405180910390206002016000820160009054906101000a900473ffffffffffffffffffffffffffffffffffffffff168160000160006101000a81548173ffffffffffffffffffffffffffffffffffffffff021916908373ffffffffffffffffffffffffffffffffffffffff1602179055506001820154816001015590505062000ac7565b600081905092915050565b7f4441490000000000000000000000000000000000000000000000000000000000600082015250565b60006200082e600383620007eb565b91506200083b82620007f6565b600382019050919050565b600062000853826200081f565b9150819050919050565b7f5745544800000000000000000000000000000000000000000000000000000000600082015250565b600062000895600483620007eb565b9150620008a2826200085d565b600482019050919050565b6000620008ba8262000886565b9150819050919050565b7f574d415449430000000000000000000000000000000000000000000000000000600082015250565b6000620008fc600683620007eb565b91506200090982620008c4565b600682019050919050565b60006200092182620008ed565b9150819050919050565b7f5553444300000000000000000000000000000000000000000000000000000000600082015250565b600062000963600483620007eb565b915062000970826200092b565b600482019050919050565b6000620009888262000954565b9150819050919050565b7f5553445400000000000000000000000000000000000000000000000000000000600082015250565b6000620009ca600483620007eb565b9150620009d78262000992565b600482019050919050565b6000620009ef82620009bb565b9150819050919050565b7f5742544300000000000000000000000000000000000000000000000000000000600082015250565b600062000a31600483620007eb565b915062000a3e82620009f9565b600482019050919050565b600062000a568262000a22565b9150819050919050565b7f44515549434b0000000000000000000000000000000000000000000000000000600082015250565b600062000a98600683620007eb565b915062000aa58262000a60565b600682019050919050565b600062000abd8262000a89565b9150819050919050565b6133dc8062000ad76000396000f3fe6080604052600436106100ec5760003560e01c806399269cae1161008a578063e4386ba311610059578063e4386ba314610329578063f688473514610366578063f809a2e6146103a3578063ff091567146103cc576100f3565b806399269cae1461025d5780639bc97dee146102865780639d4d69c5146102af578063c3a48401146102ec576100f3565b806376e5c39f116100c657806376e5c39f1461019b5780637b60eb23146101d95780637d3683ba146101e3578063884ef7bd14610220576100f3565b80634ea44896146100f85780636d336d6a146101355780637552acd614610172576100f3565b366100f357005b600080fd5b34801561010457600080fd5b5061011f600480360381019061011a9190612270565b6103f5565b60405161012c9190612301565b60405180910390f35b34801561014157600080fd5b5061015c60048036038101906101579190612348565b6104d6565b6040516101699190612301565b60405180910390f35b34801561017e57600080fd5b5061019960048036038101906101949190612431565b610700565b005b3480156101a757600080fd5b506101c260048036038101906101bd9190612270565b6108ce565b6040516101d09291906124c9565b60405180910390f35b6101e16109b4565b005b3480156101ef57600080fd5b5061020a600480360381019061020591906124f2565b610be2565b6040516102179190612301565b60405180910390f35b34801561022c57600080fd5b506102476004803603810190610242919061253b565b610ca5565b6040516102549190612301565b60405180910390f35b34801561026957600080fd5b50610284600480360381019061027f91906125c6565b610d2b565b005b34801561029257600080fd5b506102ad60048036038101906102a8919061268b565b611012565b005b3480156102bb57600080fd5b506102d660048036038101906102d19190612270565b6111df565b6040516102e39190612301565b60405180910390f35b3480156102f857600080fd5b50610313600480360381019061030e91906126e7565b6112c0565b6040516103209190612301565b60405180910390f35b34801561033557600080fd5b50610350600480360381019061034b91906124f2565b611384565b60405161035d9190612301565b60405180910390f35b34801561037257600080fd5b5061038d60048036038101906103889190612743565b611447565b60405161039a9190612301565b60405180910390f35b3480156103af57600080fd5b506103ca60048036038101906103c591906127ce565b611529565b005b3480156103d857600080fd5b506103f360048036038101906103ee9190612881565b61181b565b005b600060018360405161040791906129cc565b90815260200160405180910390208260405161042391906129cc565b908152602001604051809103902060040160009054906101000a900473ffffffffffffffffffffffffffffffffffffffff1673ffffffffffffffffffffffffffffffffffffffff166370a08231336040518263ffffffff1660e01b815260040161048d91906129f2565b602060405180830381865afa1580156104aa573d6000803e3d6000fd5b505050506040513d601f19601f820116820180604052508101906104ce9190612a22565b905092915050565b60006060600267ffffffffffffffff8111156104f5576104f4612145565b5b6040519080825280602002602001820160405280156105235781602001602082028036833780820191505090505b50905060008460405161053691906129cc565b908152602001604051809103902060000160009054906101000a900473ffffffffffffffffffffffffffffffffffffffff168160008151811061057c5761057b612a4f565b5b602002602001019073ffffffffffffffffffffffffffffffffffffffff16908173ffffffffffffffffffffffffffffffffffffffff16815250506000836040516105c691906129cc565b908152602001604051809103902060000160009054906101000a900473ffffffffffffffffffffffffffffffffffffffff168160018151811061060c5761060b612a4f565b5b602002602001019073ffffffffffffffffffffffffffffffffffffffff16908173ffffffffffffffffffffffffffffffffffffffff168152505073a5e0829caced8ffdd4de3c43696c57f7d7a678ff73ffffffffffffffffffffffffffffffffffffffff1663d06ca61f86836040518363ffffffff1660e01b8152600401610695929190612b3c565b600060405180830381865afa1580156106b2573d6000803e3d6000fd5b505050506040513d6000823e3d601f19601f820116820180604052508101906106db9190612c34565b6001815181106106ee576106ed612a4f565b5b60200260200101519150509392505050565b60008360405161071091906129cc565b908152602001604051809103902060000160009054906101000a900473ffffffffffffffffffffffffffffffffffffffff16338383808473ffffffffffffffffffffffffffffffffffffffff1663dd62ed3e85856040518363ffffffff1660e01b8152600401610781929190612c7d565b602060405180830381865afa15801561079e573d6000803e3d6000fd5b505050506040513d601f19601f820116820180604052508101906107c29190612a22565b1015610803576040517f08c379a00000000000000000000000000000000000000000000000000000000081526004016107fa90612d29565b60405180910390fd5b60008760405161081391906129cc565b908152602001604051809103902060000160009054906101000a900473ffffffffffffffffffffffffffffffffffffffff1673ffffffffffffffffffffffffffffffffffffffff166323b872dd3388886040518463ffffffff1660e01b815260040161088193929190612d49565b6020604051808303816000875af11580156108a0573d6000803e3d6000fd5b505050506040513d601f19601f820116820180604052508101906108c49190612db8565b5050505050505050565b6000806000806001866040516108e491906129cc565b90815260200160405180910390208560405161090091906129cc565b908152602001604051809103902060040160009054906101000a900473ffffffffffffffffffffffffffffffffffffffff1673ffffffffffffffffffffffffffffffffffffffff16630902f1ac6040518163ffffffff1660e01b8152600401606060405180830381865afa15801561097c573d6000803e3d6000fd5b505050506040513d601f19601f820116820180604052508101906109a09190612e4d565b509150915081819350935050509250929050565b60008060006040516109c590612eec565b908152602001604051809103902060000160009054906101000a900473ffffffffffffffffffffffffffffffffffffffff1673ffffffffffffffffffffffffffffffffffffffff16346040516024016040516020818303038152906040527fc5d24601000000000000000000000000000000000000000000000000000000007bffffffffffffffffffffffffffffffffffffffffffffffffffffffff19166020820180517bffffffffffffffffffffffffffffffffffffffffffffffffffffffff8381831617835250505050604051610a9e9190612f48565b60006040518083038185875af1925050503d8060008114610adb576040519150601f19603f3d011682016040523d82523d6000602084013e610ae0565b606091505b50915091506000604051610af390612eec565b908152602001604051809103902060000160009054906101000a900473ffffffffffffffffffffffffffffffffffffffff1673ffffffffffffffffffffffffffffffffffffffff166323b872dd3033346040518463ffffffff1660e01b8152600401610b6193929190612d49565b6020604051808303816000875af1158015610b80573d6000803e3d6000fd5b505050506040513d601f19601f82011682018060405250810190610ba49190612db8565b507f13848c3e38f8886f3f5d2ad9dff80d8092c2bbb8efd5b887a99c2c6cfc09ac2a8282604051610bd6929190612fb8565b60405180910390a15050565b60008082604051610bf391906129cc565b908152602001604051809103902060000160009054906101000a900473ffffffffffffffffffffffffffffffffffffffff1673ffffffffffffffffffffffffffffffffffffffff166370a08231336040518263ffffffff1660e01b8152600401610c5d91906129f2565b602060405180830381865afa158015610c7a573d6000803e3d6000fd5b505050506040513d601f19601f82011682018060405250810190610c9e9190612a22565b9050919050565b6000600183604051610cb791906129cc565b908152602001604051809103902082604051610cd391906129cc565b908152602001604051809103902060060160008573ffffffffffffffffffffffffffffffffffffffff1673ffffffffffffffffffffffffffffffffffffffff1681526020019081526020016000205490509392505050565b8585853381600185604051610d4091906129cc565b908152602001604051809103902084604051610d5c91906129cc565b908152602001604051809103902060060160008373ffffffffffffffffffffffffffffffffffffffff1673ffffffffffffffffffffffffffffffffffffffff168152602001908152602001600020541015610dec576040517f08c379a0000000000000000000000000000000000000000000000000000000008152600401610de39061305a565b60405180910390fd5b60018a604051610dfc91906129cc565b908152602001604051809103902089604051610e1891906129cc565b908152602001604051809103902060040160009054906101000a900473ffffffffffffffffffffffffffffffffffffffff1673ffffffffffffffffffffffffffffffffffffffff1663095ea7b373a5e0829caced8ffdd4de3c43696c57f7d7a678ff8a6040518363ffffffff1660e01b8152600401610e9892919061307a565b6020604051808303816000875af1158015610eb7573d6000803e3d6000fd5b505050506040513d601f19601f82011682018060405250810190610edb9190612db8565b5073a5e0829caced8ffdd4de3c43696c57f7d7a678ff73ffffffffffffffffffffffffffffffffffffffff1663baa2abde60008c604051610f1c91906129cc565b908152602001604051809103902060000160009054906101000a900473ffffffffffffffffffffffffffffffffffffffff1660008c604051610f5e91906129cc565b908152602001604051809103902060000160009054906101000a900473ffffffffffffffffffffffffffffffffffffffff168b8b8b338c6040518863ffffffff1660e01b8152600401610fb797969594939291906130a3565b60408051808303816000875af1158015610fd5573d6000803e3d6000fd5b505050506040513d601f19601f82011682018060405250810190610ff99190613112565b50506110068a8a33611d12565b50505050505050505050565b60008260405161102291906129cc565b908152602001604051809103902060000160009054906101000a900473ffffffffffffffffffffffffffffffffffffffff16333083808473ffffffffffffffffffffffffffffffffffffffff1663dd62ed3e85856040518363ffffffff1660e01b8152600401611093929190612c7d565b602060405180830381865afa1580156110b0573d6000803e3d6000fd5b505050506040513d601f19601f820116820180604052508101906110d49190612a22565b1015611115576040517f08c379a000000000000000000000000000000000000000000000000000000000815260040161110c90612d29565b60405180910390fd5b60008660405161112591906129cc565b908152602001604051809103902060000160009054906101000a900473ffffffffffffffffffffffffffffffffffffffff1673ffffffffffffffffffffffffffffffffffffffff166323b872dd3330886040518463ffffffff1660e01b815260040161119393929190612d49565b6020604051808303816000875af11580156111b2573d6000803e3d6000fd5b505050506040513d601f19601f820116820180604052508101906111d69190612db8565b50505050505050565b60006001836040516111f191906129cc565b90815260200160405180910390208260405161120d91906129cc565b908152602001604051809103902060040160009054906101000a900473ffffffffffffffffffffffffffffffffffffffff1673ffffffffffffffffffffffffffffffffffffffff166370a08231306040518263ffffffff1660e01b815260040161127791906129f2565b602060405180830381865afa158015611294573d6000803e3d6000fd5b505050506040513d601f19601f820116820180604052508101906112b89190612a22565b905092915050565b600080836040516112d191906129cc565b908152602001604051809103902060000160009054906101000a900473ffffffffffffffffffffffffffffffffffffffff1673ffffffffffffffffffffffffffffffffffffffff166370a08231836040518263ffffffff1660e01b815260040161133b91906129f2565b602060405180830381865afa158015611358573d6000803e3d6000fd5b505050506040513d601f19601f8201168201806040525081019061137c9190612a22565b905092915050565b6000808260405161139591906129cc565b908152602001604051809103902060000160009054906101000a900473ffffffffffffffffffffffffffffffffffffffff1673ffffffffffffffffffffffffffffffffffffffff166370a08231306040518263ffffffff1660e01b81526004016113ff91906129f2565b602060405180830381865afa15801561141c573d6000803e3d6000fd5b505050506040513d601f19601f820116820180604052508101906114409190612a22565b9050919050565b600060018460405161145991906129cc565b90815260200160405180910390208360405161147591906129cc565b908152602001604051809103902060040160009054906101000a900473ffffffffffffffffffffffffffffffffffffffff1673ffffffffffffffffffffffffffffffffffffffff166370a08231836040518263ffffffff1660e01b81526004016114df91906129f2565b602060405180830381865afa1580156114fc573d6000803e3d6000fd5b505050506040513d601f19601f820116820180604052508101906115209190612a22565b90509392505050565b6115338386611012565b6000600267ffffffffffffffff8111156115505761154f612145565b5b60405190808252806020026020018201604052801561157e5781602001602082028036833780820191505090505b50905060008460405161159191906129cc565b908152602001604051809103902060000160009054906101000a900473ffffffffffffffffffffffffffffffffffffffff16816000815181106115d7576115d6612a4f565b5b602002602001019073ffffffffffffffffffffffffffffffffffffffff16908173ffffffffffffffffffffffffffffffffffffffff168152505060008360405161162191906129cc565b908152602001604051809103902060000160009054906101000a900473ffffffffffffffffffffffffffffffffffffffff168160018151811061166757611666612a4f565b5b602002602001019073ffffffffffffffffffffffffffffffffffffffff16908173ffffffffffffffffffffffffffffffffffffffff16815250506000846040516116b191906129cc565b908152602001604051809103902060000160009054906101000a900473ffffffffffffffffffffffffffffffffffffffff1673ffffffffffffffffffffffffffffffffffffffff1663095ea7b373a5e0829caced8ffdd4de3c43696c57f7d7a678ff886040518363ffffffff1660e01b815260040161173192919061307a565b6020604051808303816000875af1158015611750573d6000803e3d6000fd5b505050506040513d601f19601f820116820180604052508101906117749190612db8565b5073a5e0829caced8ffdd4de3c43696c57f7d7a678ff73ffffffffffffffffffffffffffffffffffffffff166338ed173987878433876040518663ffffffff1660e01b81526004016117ca959493929190613152565b6000604051808303816000875af11580156117e9573d6000803e3d6000fd5b505050506040513d6000823e3d601f19601f820116820180604052508101906118129190612c34565b50505050505050565b86868686338260008660405161183191906129cc565b908152602001604051809103902060000160009054906101000a900473ffffffffffffffffffffffffffffffffffffffff1673ffffffffffffffffffffffffffffffffffffffff166370a08231836040518263ffffffff1660e01b815260040161189b91906129f2565b602060405180830381865afa1580156118b8573d6000803e3d6000fd5b505050506040513d601f19601f820116820180604052508101906118dc9190612a22565b101561191d576040517f08c379a00000000000000000000000000000000000000000000000000000000081526004016119149061321e565b60405180910390fd5b8160008560405161192e91906129cc565b908152602001604051809103902060000160009054906101000a900473ffffffffffffffffffffffffffffffffffffffff1673ffffffffffffffffffffffffffffffffffffffff166370a08231836040518263ffffffff1660e01b815260040161199891906129f2565b602060405180830381865afa1580156119b5573d6000803e3d6000fd5b505050506040513d601f19601f820116820180604052508101906119d99190612a22565b1015611a1a576040517f08c379a0000000000000000000000000000000000000000000000000000000008152600401611a119061321e565b60405180910390fd5b611a248c8b611012565b611a2e8b8a611012565b60008c604051611a3e91906129cc565b908152602001604051809103902060000160009054906101000a900473ffffffffffffffffffffffffffffffffffffffff1673ffffffffffffffffffffffffffffffffffffffff1663095ea7b373a5e0829caced8ffdd4de3c43696c57f7d7a678ff8c6040518363ffffffff1660e01b8152600401611abe92919061307a565b6020604051808303816000875af1158015611add573d6000803e3d6000fd5b505050506040513d601f19601f82011682018060405250810190611b019190612db8565b5060008b604051611b1291906129cc565b908152602001604051809103902060000160009054906101000a900473ffffffffffffffffffffffffffffffffffffffff1673ffffffffffffffffffffffffffffffffffffffff1663095ea7b373a5e0829caced8ffdd4de3c43696c57f7d7a678ff8b6040518363ffffffff1660e01b8152600401611b9292919061307a565b6020604051808303816000875af1158015611bb1573d6000803e3d6000fd5b505050506040513d601f19601f82011682018060405250810190611bd59190612db8565b5073a5e0829caced8ffdd4de3c43696c57f7d7a678ff73ffffffffffffffffffffffffffffffffffffffff1663e8e3370060008e604051611c1691906129cc565b908152602001604051809103902060000160009054906101000a900473ffffffffffffffffffffffffffffffffffffffff1660008e604051611c5891906129cc565b908152602001604051809103902060000160009054906101000a900473ffffffffffffffffffffffffffffffffffffffff168d8d8d8d308e6040518963ffffffff1660e01b8152600401611cb398979695949392919061323e565b6060604051808303816000875af1158015611cd2573d6000803e3d6000fd5b505050506040513d601f19601f82011682018060405250810190611cf691906132bc565b505050611d048c8c33611f14565b505050505050505050505050565b6000600184604051611d2491906129cc565b908152602001604051809103902083604051611d4091906129cc565b908152602001604051809103902060040160009054906101000a900473ffffffffffffffffffffffffffffffffffffffff1673ffffffffffffffffffffffffffffffffffffffff166370a08231306040518263ffffffff1660e01b8152600401611daa91906129f2565b602060405180830381865afa158015611dc7573d6000803e3d6000fd5b505050506040513d601f19601f82011682018060405250810190611deb9190612a22565b9050600081600186604051611e0091906129cc565b908152602001604051809103902085604051611e1c91906129cc565b908152602001604051809103902060070154611e38919061333e565b905080600186604051611e4b91906129cc565b908152602001604051809103902085604051611e6791906129cc565b908152602001604051809103902060060160008573ffffffffffffffffffffffffffffffffffffffff1673ffffffffffffffffffffffffffffffffffffffff1681526020019081526020016000206000828254611ec4919061333e565b9250508190555081600186604051611edc91906129cc565b908152602001604051809103902085604051611ef891906129cc565b9081526020016040518091039020600701819055505050505050565b6000600184604051611f2691906129cc565b908152602001604051809103902083604051611f4291906129cc565b908152602001604051809103902060040160009054906101000a900473ffffffffffffffffffffffffffffffffffffffff1673ffffffffffffffffffffffffffffffffffffffff166370a08231306040518263ffffffff1660e01b8152600401611fac91906129f2565b602060405180830381865afa158015611fc9573d6000803e3d6000fd5b505050506040513d601f19601f82011682018060405250810190611fed9190612a22565b9050600060018560405161200191906129cc565b90815260200160405180910390208460405161201d91906129cc565b9081526020016040518091039020600701548261203a919061333e565b90508060018660405161204d91906129cc565b90815260200160405180910390208560405161206991906129cc565b908152602001604051809103902060060160008573ffffffffffffffffffffffffffffffffffffffff1673ffffffffffffffffffffffffffffffffffffffff16815260200190815260200160002060008282546120c69190613372565b92505081905550816001866040516120de91906129cc565b9081526020016040518091039020856040516120fa91906129cc565b9081526020016040518091039020600701819055505050505050565b6000604051905090565b600080fd5b600080fd5b600080fd5b600080fd5b6000601f19601f8301169050919050565b7f4e487b7100000000000000000000000000000000000000000000000000000000600052604160045260246000fd5b61217d82612134565b810181811067ffffffffffffffff8211171561219c5761219b612145565b5b80604052505050565b60006121af612116565b90506121bb8282612174565b919050565b600067ffffffffffffffff8211156121db576121da612145565b5b6121e482612134565b9050602081019050919050565b82818337600083830152505050565b600061221361220e846121c0565b6121a5565b90508281526020810184848401111561222f5761222e61212f565b5b61223a8482856121f1565b509392505050565b600082601f8301126122575761225661212a565b5b8135612267848260208601612200565b91505092915050565b6000806040838503121561228757612286612120565b5b600083013567ffffffffffffffff8111156122a5576122a4612125565b5b6122b185828601612242565b925050602083013567ffffffffffffffff8111156122d2576122d1612125565b5b6122de85828601612242565b9150509250929050565b6000819050919050565b6122fb816122e8565b82525050565b600060208201905061231660008301846122f2565b92915050565b612325816122e8565b811461233057600080fd5b50565b6000813590506123428161231c565b92915050565b60008060006060848603121561236157612360612120565b5b600061236f86828701612333565b935050602084013567ffffffffffffffff8111156123905761238f612125565b5b61239c86828701612242565b925050604084013567ffffffffffffffff8111156123bd576123bc612125565b5b6123c986828701612242565b9150509250925092565b600073ffffffffffffffffffffffffffffffffffffffff82169050919050565b60006123fe826123d3565b9050919050565b61240e816123f3565b811461241957600080fd5b50565b60008135905061242b81612405565b92915050565b60008060006060848603121561244a57612449612120565b5b600084013567ffffffffffffffff81111561246857612467612125565b5b61247486828701612242565b93505060206124858682870161241c565b925050604061249686828701612333565b9150509250925092565b60006dffffffffffffffffffffffffffff82169050919050565b6124c3816124a0565b82525050565b60006040820190506124de60008301856124ba565b6124eb60208301846124ba565b9392505050565b60006020828403121561250857612507612120565b5b600082013567ffffffffffffffff81111561252657612525612125565b5b61253284828501612242565b91505092915050565b60008060006060848603121561255457612553612120565b5b60006125628682870161241c565b935050602084013567ffffffffffffffff81111561258357612582612125565b5b61258f86828701612242565b925050604084013567ffffffffffffffff8111156125b0576125af612125565b5b6125bc86828701612242565b9150509250925092565b60008060008060008060c087890312156125e3576125e2612120565b5b600087013567ffffffffffffffff81111561260157612600612125565b5b61260d89828a01612242565b965050602087013567ffffffffffffffff81111561262e5761262d612125565b5b61263a89828a01612242565b955050604061264b89828a01612333565b945050606061265c89828a01612333565b935050608061266d89828a01612333565b92505060a061267e89828a01612333565b9150509295509295509295565b600080604083850312156126a2576126a1612120565b5b600083013567ffffffffffffffff8111156126c0576126bf612125565b5b6126cc85828601612242565b92505060206126dd85828601612333565b9150509250929050565b600080604083850312156126fe576126fd612120565b5b600083013567ffffffffffffffff81111561271c5761271b612125565b5b61272885828601612242565b92505060206127398582860161241c565b9150509250929050565b60008060006060848603121561275c5761275b612120565b5b600084013567ffffffffffffffff81111561277a57612779612125565b5b61278686828701612242565b935050602084013567ffffffffffffffff8111156127a7576127a6612125565b5b6127b386828701612242565b92505060406127c48682870161241c565b9150509250925092565b600080600080600060a086880312156127ea576127e9612120565b5b60006127f888828901612333565b955050602061280988828901612333565b945050604086013567ffffffffffffffff81111561282a57612829612125565b5b61283688828901612242565b935050606086013567ffffffffffffffff81111561285757612856612125565b5b61286388828901612242565b925050608061287488828901612333565b9150509295509295909350565b600080600080600080600060e0888a0312156128a05761289f612120565b5b600088013567ffffffffffffffff8111156128be576128bd612125565b5b6128ca8a828b01612242565b975050602088013567ffffffffffffffff8111156128eb576128ea612125565b5b6128f78a828b01612242565b96505060406129088a828b01612333565b95505060606129198a828b01612333565b945050608061292a8a828b01612333565b93505060a061293b8a828b01612333565b92505060c061294c8a828b01612333565b91505092959891949750929550565b600081519050919050565b600081905092915050565b60005b8381101561298f578082015181840152602081019050612974565b60008484015250505050565b60006129a68261295b565b6129b08185612966565b93506129c0818560208601612971565b80840191505092915050565b60006129d8828461299b565b915081905092915050565b6129ec816123f3565b82525050565b6000602082019050612a0760008301846129e3565b92915050565b600081519050612a1c8161231c565b92915050565b600060208284031215612a3857612a37612120565b5b6000612a4684828501612a0d565b91505092915050565b7f4e487b7100000000000000000000000000000000000000000000000000000000600052603260045260246000fd5b600081519050919050565b600082825260208201905092915050565b6000819050602082019050919050565b612ab3816123f3565b82525050565b6000612ac58383612aaa565b60208301905092915050565b6000602082019050919050565b6000612ae982612a7e565b612af38185612a89565b9350612afe83612a9a565b8060005b83811015612b2f578151612b168882612ab9565b9750612b2183612ad1565b925050600181019050612b02565b5085935050505092915050565b6000604082019050612b5160008301856122f2565b8181036020830152612b638184612ade565b90509392505050565b600067ffffffffffffffff821115612b8757612b86612145565b5b602082029050602081019050919050565b600080fd5b6000612bb0612bab84612b6c565b6121a5565b90508083825260208201905060208402830185811115612bd357612bd2612b98565b5b835b81811015612bfc5780612be88882612a0d565b845260208401935050602081019050612bd5565b5050509392505050565b600082601f830112612c1b57612c1a61212a565b5b8151612c2b848260208601612b9d565b91505092915050565b600060208284031215612c4a57612c49612120565b5b600082015167ffffffffffffffff811115612c6857612c67612125565b5b612c7484828501612c06565b91505092915050565b6000604082019050612c9260008301856129e3565b612c9f60208301846129e3565b9392505050565b600082825260208201905092915050565b7f455243323020636f6e747261637420686173206e6f7420676976656e2070657260008201527f6d697373696f6e20746f207468697320616464726573732e0000000000000000602082015250565b6000612d13603883612ca6565b9150612d1e82612cb7565b604082019050919050565b60006020820190508181036000830152612d4281612d06565b9050919050565b6000606082019050612d5e60008301866129e3565b612d6b60208301856129e3565b612d7860408301846122f2565b949350505050565b60008115159050919050565b612d9581612d80565b8114612da057600080fd5b50565b600081519050612db281612d8c565b92915050565b600060208284031215612dce57612dcd612120565b5b6000612ddc84828501612da3565b91505092915050565b612dee816124a0565b8114612df957600080fd5b50565b600081519050612e0b81612de5565b92915050565b600063ffffffff82169050919050565b612e2a81612e11565b8114612e3557600080fd5b50565b600081519050612e4781612e21565b92915050565b600080600060608486031215612e6657612e65612120565b5b6000612e7486828701612dfc565b9350506020612e8586828701612dfc565b9250506040612e9686828701612e38565b9150509250925092565b7f574d415449430000000000000000000000000000000000000000000000000000600082015250565b6000612ed6600683612966565b9150612ee182612ea0565b600682019050919050565b6000612ef782612ec9565b9150819050919050565b600081519050919050565b600081905092915050565b6000612f2282612f01565b612f2c8185612f0c565b9350612f3c818560208601612971565b80840191505092915050565b6000612f548284612f17565b915081905092915050565b612f6881612d80565b82525050565b600082825260208201905092915050565b6000612f8a82612f01565b612f948185612f6e565b9350612fa4818560208601612971565b612fad81612134565b840191505092915050565b6000604082019050612fcd6000830185612f5f565b8181036020830152612fdf8184612f7f565b90509392505050565b7f5573657220646f6573206e6f74206861766520656e6f7567682062616c616e6360008201527f6520746f207769746864726177207468697320616d6f756e742e000000000000602082015250565b6000613044603a83612ca6565b915061304f82612fe8565b604082019050919050565b6000602082019050818103600083015261307381613037565b9050919050565b600060408201905061308f60008301856129e3565b61309c60208301846122f2565b9392505050565b600060e0820190506130b8600083018a6129e3565b6130c560208301896129e3565b6130d260408301886122f2565b6130df60608301876122f2565b6130ec60808301866122f2565b6130f960a08301856129e3565b61310660c08301846122f2565b98975050505050505050565b6000806040838503121561312957613128612120565b5b600061313785828601612a0d565b925050602061314885828601612a0d565b9150509250929050565b600060a08201905061316760008301886122f2565b61317460208301876122f2565b81810360408301526131868186612ade565b905061319560608301856129e3565b6131a260808301846122f2565b9695505050505050565b7f5573657220646f6573206e6f74206861766520656e6f7567682062616c616e6360008201527f6520746f20616464206c69717569646974792e00000000000000000000000000602082015250565b6000613208603383612ca6565b9150613213826131ac565b604082019050919050565b60006020820190508181036000830152613237816131fb565b9050919050565b600061010082019050613254600083018b6129e3565b613261602083018a6129e3565b61326e60408301896122f2565b61327b60608301886122f2565b61328860808301876122f2565b61329560a08301866122f2565b6132a260c08301856129e3565b6132af60e08301846122f2565b9998505050505050505050565b6000806000606084860312156132d5576132d4612120565b5b60006132e386828701612a0d565b93505060206132f486828701612a0d565b925050604061330586828701612a0d565b9150509250925092565b7f4e487b7100000000000000000000000000000000000000000000000000000000600052601160045260246000fd5b6000613349826122e8565b9150613354836122e8565b925082820390508181111561336c5761336b61330f565b5b92915050565b600061337d826122e8565b9150613388836122e8565b92508282019050808211156133a05761339f61330f565b5b9291505056fea264697066735822122096d630232c95dc116bb8b0a8549f48620efe6ddbeb4c30af172ed64edfcf79db64736f6c63430008110033",
  "immutableReferences": {},
  "source": "  /**\n   * @title Microcebus\n   * @dev Tom\n   * @custom:dev-run-script ../scripts/deploy.js\n   */\n\n// SPDX-License-Identifier: MIT\nimport \"./interfaces.sol\";\n\npragma solidity >=0.4.22 <0.9.0;\n\ncontract microcebus_main {\n    //events\n    event Response(bool success, bytes data);\n\n    //structs\n    struct Token {\n        address adr;\n        uint256 decimals;\n    }\n\n    struct LPToken {\n        Token token0;\n        Token token1;\n        address adr;\n        uint256 decimals;\n        mapping(address => uint256) user_deposits;\n        uint256 contract_deposit;\n    }\n\n  //mappings\n  mapping(string => Token) private token_contracts;\n  mapping(string => mapping(string => LPToken)) private lp_token_contracts;\n  \n\n  //third party addresses\n  address constant UniswapV2Router02 = 0xa5E0829CaCEd8fFDD4De3c43696c57F7D7A678ff;\n  address constant WMATIC = 0x0d500B1d8E8eF31E21C99d1Db9A6444d3ADf1270;\n  address constant USDC = 0x2791Bca1f2de4661ED88A30C99A7a9449Aa84174;\n  address constant DAI = 0x8f3Cf7ad23Cd3CaDbD9735AFf958023239c6A063;\n  address constant USDT = 0xc2132D05D31c914a87C6611C10748AEb04B58e8F;\n  address constant WBTC = 0x1BFD67037B42Cf73acF2047067bd4F2C47D9BfD6;\n  address constant DQUICK = 0xf28164A485B0B2C90639E47b0f377b4a438a16B1;\n  address constant WETH = 0x7ceB23fD6bC0adD59E62ac25578270cFf1b9f619;\n\n  address constant WMATIC_DAI = 0xEEf611894CeaE652979C9D0DaE1dEb597790C6eE;\n\n  //admin address\n  address private admin;\n\n  //contract constructor\n  constructor() {\n        admin = msg.sender;\n        token_contracts[\"DAI\"] = Token({adr: DAI, decimals: 18});\n        token_contracts[\"WETH\"] = Token({adr: WETH, decimals: 18});\n        token_contracts[\"WMATIC\"] = Token({adr: WMATIC, decimals: 18});\n        token_contracts[\"USDC\"] = Token({adr: USDC, decimals: 6});\n        token_contracts[\"USDT\"] = Token({adr: USDT, decimals: 6});\n        token_contracts[\"WBTC\"] = Token({adr: WBTC, decimals: 8});\n        token_contracts[\"DQUICK\"] = Token({adr: DQUICK, decimals: 18});\n\n        lp_token_contracts[\"WMATIC\"][\"DAI\"].adr = WMATIC_DAI;\n        lp_token_contracts[\"WMATIC\"][\"DAI\"].decimals = 18;\n        lp_token_contracts[\"WMATIC\"][\"DAI\"].contract_deposit = 0;\n        lp_token_contracts[\"WMATIC\"][\"DAI\"].token0 = token_contracts[\"WMATIC\"];\n        lp_token_contracts[\"WMATIC\"][\"DAI\"].token1 = token_contracts[\"DAI\"];\n\n\n\n  }\n\n  //Add functions which add tokens, contracts and lp tokens/contracts\n\n    //modifiers\n    modifier check_token_approval(address _token_address, address _token_sender, address _token_receiver, uint256 _amount) {\n        require(iERC20(_token_address).allowance(_token_sender, _token_receiver) >= _amount,\n        \"ERC20 contract has not given permission to this address.\");\n        _;\n    }\n\n    modifier check_enough_balance_withdraw(string memory _tokenA_in_identifier, string memory _tokenB_in_identifier, uint256 _amount, address _user) {\n        require(lp_token_contracts[_tokenA_in_identifier][_tokenB_in_identifier].user_deposits[_user] >= _amount,\n        \"User does not have enough balance to withdraw this amount.\");\n        _;\n    }\n\n    modifier check_enough_balance_add(string memory _tokenA_in_identifier, string memory _tokenB_in_identifier, uint256 _amount0, uint256 _amount1, address _user) {\n        require(iERC20(token_contracts[_tokenA_in_identifier].adr).balanceOf(_user) >= _amount0,\n        \"User does not have enough balance to add liquidity.\");\n        require(iERC20(token_contracts[_tokenB_in_identifier].adr).balanceOf(_user) >= _amount1,\n        \"User does not have enough balance to add liquidity.\");\n        _;\n    }\n\n\n    //developer function to get WMATIC to an address for testing reasons\n    function receive_wmatic() external payable {\n            (bool success, bytes memory data) = token_contracts[\"WMATIC\"].adr.call{value: msg.value}(abi.encodeWithSignature(\"\"));\n            iERC20(token_contracts[\"WMATIC\"].adr).transferFrom(address(this), msg.sender, msg.value);\n            emit Response(success, data);\n        }\n\n    //send ERC20 token to a destination address\n    function transfer_token(string memory _token_in_identifier, address _token_receiver, uint256 _amount)\n      check_token_approval(token_contracts[_token_in_identifier].adr, msg.sender, _token_receiver, _amount) public {\n            iERC20(token_contracts[_token_in_identifier].adr).transferFrom(msg.sender, _token_receiver, _amount);\n        }\n\n    //send ERC20 token to this contract\n    function transfer_token_to_contract(string memory _token_in_identifier, uint256 _amount)\n      check_token_approval(token_contracts[_token_in_identifier].adr, msg.sender, address(this), _amount) public {\n            iERC20(token_contracts[_token_in_identifier].adr).transferFrom(msg.sender, address(this), _amount);\n        }\n\n\n\n    //swap exact tokens for tokens\n    function swap_exact_tokens_for_tokens(uint256 _amount_in, uint _amount_out_min, string memory _token_in_identifier,\n        string memory _token_out_identifier, uint deadline) external {\n        transfer_token_to_contract(_token_in_identifier, _amount_in);\n        address[] memory path = new address[](2);\n        path[0] = token_contracts[_token_in_identifier].adr;\n        path[1] = token_contracts[_token_out_identifier].adr;\n        iERC20(token_contracts[_token_in_identifier].adr).approve(UniswapV2Router02, _amount_in);     \n        IUniswapV2Router02(UniswapV2Router02).swapExactTokensForTokens(\n          _amount_in,\n          _amount_out_min,\n          path,\n          msg.sender,\n          deadline);\n    }\n\n    //add liquidity\n    function add_liquidity(string memory _tokenA_in_identifier, string memory _tokenB_in_identifier,\n        uint256 _amountA_desired, uint256 _amountB_desired, uint256 _amountA_Min, uint256 _amountB_Min, uint deadline)\n         check_enough_balance_add(_tokenA_in_identifier, _tokenB_in_identifier, _amountA_desired, _amountB_desired, msg.sender) external {\n\n            transfer_token_to_contract(_tokenA_in_identifier, _amountA_desired);\n            transfer_token_to_contract(_tokenB_in_identifier, _amountB_desired);\n\n            iERC20(token_contracts[_tokenA_in_identifier].adr).approve(UniswapV2Router02, _amountA_desired);\n            iERC20(token_contracts[_tokenB_in_identifier].adr).approve(UniswapV2Router02,_amountB_desired);\n\n            IUniswapV2Router02(UniswapV2Router02).addLiquidity(\n                token_contracts[_tokenA_in_identifier].adr,\n                token_contracts[_tokenB_in_identifier].adr,\n                _amountA_desired,\n                _amountB_desired,\n                _amountA_Min,\n                _amountB_Min,\n                address(this),\n                deadline\n            );\n            add_deposit(_tokenA_in_identifier, _tokenB_in_identifier, msg.sender);\n        }\n\n\n    //add liquidity\n    function withdraw_liquidity(string memory _tokenA_in_identifier, string memory _tokenB_in_identifier,\n        uint256 _liquidity, uint256 _amountA_Min, uint256 _amountB_Min, uint deadline)\n            check_enough_balance_withdraw(_tokenA_in_identifier, _tokenB_in_identifier, _liquidity, msg.sender) external {\n\n                iERC20(lp_token_contracts[_tokenA_in_identifier][_tokenB_in_identifier].adr).approve(UniswapV2Router02, _liquidity);\n\n\n                IUniswapV2Router02(UniswapV2Router02).removeLiquidity(\n                    token_contracts[_tokenA_in_identifier].adr,\n                    token_contracts[_tokenB_in_identifier].adr,\n                    _liquidity,\n                    _amountA_Min,\n                    _amountB_Min,\n                    msg.sender,\n                    deadline\n                );\n                withdraw_deposit(_tokenA_in_identifier, _tokenB_in_identifier, msg.sender);\n        }\n\n    //add users farm deposit\n    function add_deposit(string memory _tokenA_in_identifier, string memory _tokenB_in_identifier, address _user) private {\n        uint256 amount = iERC20(lp_token_contracts[_tokenA_in_identifier][_tokenB_in_identifier].adr).balanceOf(address(this));\n        uint256 user_deposit = amount - lp_token_contracts[_tokenA_in_identifier][_tokenB_in_identifier].contract_deposit;\n        lp_token_contracts[_tokenA_in_identifier][_tokenB_in_identifier].user_deposits[_user] += user_deposit;\n        lp_token_contracts[_tokenA_in_identifier][_tokenB_in_identifier].contract_deposit = amount;\n    }\n\n    //withdraw users farm deposit\n    function withdraw_deposit(string memory _tokenA_in_identifier, string memory _tokenB_in_identifier, address _user) private {\n        uint256 amount = iERC20(lp_token_contracts[_tokenA_in_identifier][_tokenB_in_identifier].adr).balanceOf(address(this));\n        uint256 user_deposit = lp_token_contracts[_tokenA_in_identifier][_tokenB_in_identifier].contract_deposit - amount;\n        lp_token_contracts[_tokenA_in_identifier][_tokenB_in_identifier].user_deposits[_user] -= user_deposit;\n        lp_token_contracts[_tokenA_in_identifier][_tokenB_in_identifier].contract_deposit = amount;\n    }\n\n\n\n    //get reserves\n    function get_reserves(string memory _tokenA_in_identifier, string memory _tokenB_in_identifier) public view returns(uint112, uint112) {\n        (uint112 reserve0, uint112 reserve1, ) = IUniswapV2Pair(lp_token_contracts[_tokenA_in_identifier][_tokenB_in_identifier].adr).getReserves();\n        return(reserve0, reserve1);\n    }\n\n\n    //get amounts out\n    function get_amounts_out(\n    uint256 _amount_in,\n    string memory _token_in_identifier,\n    string memory _token_out_identifier) public view returns(uint256) {\n        address[] memory path;\n        path = new address[](2);\n        path[0] = token_contracts[_token_in_identifier].adr;\n        path[1] = token_contracts[_token_out_identifier].adr;\n        return(IUniswapV2Router02(UniswapV2Router02).getAmountsOut(_amount_in, path)[1]);\n    }\n\n    //get balance of ERC20 token\n    function get_token_balance(string memory _token_identifier, address _token_owner) external view returns(uint256) {\n            return(iERC20(token_contracts[_token_identifier].adr).balanceOf(_token_owner));\n        }\n\n    //get balance of ERC20 token (sender)\n    function get_token_balance_sender(string memory _token_identifier) external view returns(uint256) {\n            return(iERC20(token_contracts[_token_identifier].adr).balanceOf(msg.sender));\n        }\n\n    //get balance of ERC20 token (contract)\n    function get_token_balance_contract(string memory _token_identifier) external view returns(uint256) {\n            return(iERC20(token_contracts[_token_identifier].adr).balanceOf(address(this)));\n        }\n\n    //get balance of LP token\n    function get_lp_token_balance(string memory _tokenA_in_identifier, string memory _tokenB_in_identifier,\n        address _token_owner) external view returns(uint256) {\n            return(iERC20(lp_token_contracts[_tokenA_in_identifier][_tokenB_in_identifier].adr).balanceOf(_token_owner));\n        }\n\n    //get balance of LP token (sender)\n    function get_lp_token_balance_sender(string memory _tokenA_in_identifier, string memory _tokenB_in_identifier) external view returns(uint256) {\n            return(iERC20(lp_token_contracts[_tokenA_in_identifier][_tokenB_in_identifier].adr).balanceOf(msg.sender));\n        }\n\n    //get balance of LP token (contract)\n    function get_lp_token_balance_contract(string memory _tokenA_in_identifier, string memory _tokenB_in_identifier) external view returns(uint256) {\n            return(iERC20(lp_token_contracts[_tokenA_in_identifier][_tokenB_in_identifier].adr).balanceOf(address(this)));\n        }\n\n    //get user deposit\n    function get_user_deposit(address _user, string memory _tokenA_in_identifier, string memory _tokenB_in_identifier) external view returns(uint256) {\n            return(lp_token_contracts[_tokenA_in_identifier][_tokenB_in_identifier].user_deposits[_user]);\n        }\n\n    //send MATIC to contract\n    receive() external payable {}\n\n\n}\n",
  "sourcePath": "C:\\Users\\tom_m\\Desktop\\microcebus\\contracts\\polygon\\microcebus_main.sol",
  "compiler": {
    "name": "solc",
    "version": "0.8.17+commit.8df45f5f.Emscripten.clang"
  },
  "schemaVersion": "3.4.10",
  "updatedAt": "2022-11-24T18:13:49.850Z",
  "networkType": "ethereum",
  "devdoc": {
    "kind": "dev",
    "methods": {},
    "version": 1
  },
  "userdoc": {
    "kind": "user",
    "methods": {},
    "version": 1
  },
  "db": {
    "callBytecode": {
      "id": "0xb64b07e58ad9de18ee52d84349ad57d345fd56e3037a6c114a0404f6bf626b0f"
    },
    "createBytecode": {
      "id": "0x490e54180b45065e07ab1bc8096d38f6786c3cd30ff2f0e1a1b4787772351f9a"
    },
    "contract": {
      "id": "0xfb311894e516f5ebe018d451107372ea65eb06603ae2cc6de847108ceafcc8d0"
    }
  }
}