{
  "contractName": "microcebus_main",
  "abi": [
    {
      "inputs": [],
      "stateMutability": "nonpayable",
      "type": "constructor"
    },
    {
      "anonymous": false,
      "inputs": [
        {
          "indexed": false,
          "internalType": "bool",
          "name": "success",
          "type": "bool"
        },
        {
          "indexed": false,
          "internalType": "bytes",
          "name": "data",
          "type": "bytes"
        }
      ],
      "name": "Response",
      "type": "event"
    },
    {
      "stateMutability": "payable",
      "type": "receive",
      "payable": true
    },
    {
      "inputs": [],
      "name": "receive_wmatic",
      "outputs": [],
      "stateMutability": "payable",
      "type": "function",
      "payable": true
    },
    {
      "inputs": [
        {
          "internalType": "string",
          "name": "_token_in_identifier",
          "type": "string"
        },
        {
          "internalType": "address",
          "name": "_token_receiver",
          "type": "address"
        },
        {
          "internalType": "uint256",
          "name": "_amount",
          "type": "uint256"
        }
      ],
      "name": "transfer_token",
      "outputs": [],
      "stateMutability": "nonpayable",
      "type": "function"
    },
    {
      "inputs": [
        {
          "internalType": "string",
          "name": "_token_in_identifier",
          "type": "string"
        },
        {
          "internalType": "uint256",
          "name": "_amount",
          "type": "uint256"
        }
      ],
      "name": "transfer_token_to_contract",
      "outputs": [],
      "stateMutability": "nonpayable",
      "type": "function"
    },
    {
      "inputs": [
        {
          "internalType": "uint256",
          "name": "_amount_in",
          "type": "uint256"
        },
        {
          "internalType": "uint256",
          "name": "_amount_out_min",
          "type": "uint256"
        },
        {
          "internalType": "string",
          "name": "_token_in_identifier",
          "type": "string"
        },
        {
          "internalType": "string",
          "name": "_token_out_identifier",
          "type": "string"
        },
        {
          "internalType": "uint256",
          "name": "deadline",
          "type": "uint256"
        }
      ],
      "name": "swap_exact_tokens_for_tokens",
      "outputs": [],
      "stateMutability": "nonpayable",
      "type": "function"
    },
    {
      "inputs": [
        {
          "internalType": "string",
          "name": "_tokenA_in_identifier",
          "type": "string"
        },
        {
          "internalType": "string",
          "name": "_tokenB_in_identifier",
          "type": "string"
        },
        {
          "internalType": "uint256",
          "name": "_amountA_desired",
          "type": "uint256"
        },
        {
          "internalType": "uint256",
          "name": "_amountB_desired",
          "type": "uint256"
        },
        {
          "internalType": "uint256",
          "name": "_amountA_Min",
          "type": "uint256"
        },
        {
          "internalType": "uint256",
          "name": "_amountB_Min",
          "type": "uint256"
        },
        {
          "internalType": "uint256",
          "name": "deadline",
          "type": "uint256"
        }
      ],
      "name": "add_liquidity",
      "outputs": [],
      "stateMutability": "nonpayable",
      "type": "function"
    },
    {
      "inputs": [
        {
          "internalType": "string",
          "name": "_tokenA_in_identifier",
          "type": "string"
        },
        {
          "internalType": "string",
          "name": "_tokenB_in_identifier",
          "type": "string"
        },
        {
          "internalType": "uint256",
          "name": "_liquidity",
          "type": "uint256"
        },
        {
          "internalType": "uint256",
          "name": "_amountA_Min",
          "type": "uint256"
        },
        {
          "internalType": "uint256",
          "name": "_amountB_Min",
          "type": "uint256"
        },
        {
          "internalType": "uint256",
          "name": "deadline",
          "type": "uint256"
        }
      ],
      "name": "withdraw_liquidity",
      "outputs": [],
      "stateMutability": "nonpayable",
      "type": "function"
    },
    {
      "inputs": [
        {
          "internalType": "uint256",
          "name": "_amount_in",
          "type": "uint256"
        },
        {
          "internalType": "string",
          "name": "_token_in_identifier",
          "type": "string"
        },
        {
          "internalType": "string",
          "name": "_token_out_identifier",
          "type": "string"
        }
      ],
      "name": "get_amounts_out",
      "outputs": [
        {
          "internalType": "uint256",
          "name": "",
          "type": "uint256"
        }
      ],
      "stateMutability": "view",
      "type": "function",
      "constant": true
    },
    {
      "inputs": [
        {
          "internalType": "string",
          "name": "_token_identifier",
          "type": "string"
        },
        {
          "internalType": "address",
          "name": "_token_owner",
          "type": "address"
        }
      ],
      "name": "get_token_balance",
      "outputs": [
        {
          "internalType": "uint256",
          "name": "",
          "type": "uint256"
        }
      ],
      "stateMutability": "view",
      "type": "function",
      "constant": true
    },
    {
      "inputs": [
        {
          "internalType": "string",
          "name": "_token_identifier",
          "type": "string"
        }
      ],
      "name": "get_token_balance_sender",
      "outputs": [
        {
          "internalType": "uint256",
          "name": "",
          "type": "uint256"
        }
      ],
      "stateMutability": "view",
      "type": "function",
      "constant": true
    },
    {
      "inputs": [
        {
          "internalType": "string",
          "name": "_token_identifier",
          "type": "string"
        }
      ],
      "name": "get_token_balance_contract",
      "outputs": [
        {
          "internalType": "uint256",
          "name": "",
          "type": "uint256"
        }
      ],
      "stateMutability": "view",
      "type": "function",
      "constant": true
    },
    {
      "inputs": [
        {
          "internalType": "string",
          "name": "_tokenA_in_identifier",
          "type": "string"
        },
        {
          "internalType": "string",
          "name": "_tokenB_in_identifier",
          "type": "string"
        },
        {
          "internalType": "address",
          "name": "_token_owner",
          "type": "address"
        }
      ],
      "name": "get_lp_token_balance",
      "outputs": [
        {
          "internalType": "uint256",
          "name": "",
          "type": "uint256"
        }
      ],
      "stateMutability": "view",
      "type": "function",
      "constant": true
    },
    {
      "inputs": [
        {
          "internalType": "string",
          "name": "_tokenA_in_identifier",
          "type": "string"
        },
        {
          "internalType": "string",
          "name": "_tokenB_in_identifier",
          "type": "string"
        }
      ],
      "name": "get_lp_token_balance_sender",
      "outputs": [
        {
          "internalType": "uint256",
          "name": "",
          "type": "uint256"
        }
      ],
      "stateMutability": "view",
      "type": "function",
      "constant": true
    },
    {
      "inputs": [
        {
          "internalType": "string",
          "name": "_tokenA_in_identifier",
          "type": "string"
        },
        {
          "internalType": "string",
          "name": "_tokenB_in_identifier",
          "type": "string"
        }
      ],
      "name": "get_lp_token_balance_contract",
      "outputs": [
        {
          "internalType": "uint256",
          "name": "",
          "type": "uint256"
        }
      ],
      "stateMutability": "view",
      "type": "function",
      "constant": true
    },
    {
      "inputs": [
        {
          "internalType": "address",
          "name": "_user",
          "type": "address"
        },
        {
          "internalType": "string",
          "name": "_tokenA_in_identifier",
          "type": "string"
        },
        {
          "internalType": "string",
          "name": "_tokenB_in_identifier",
          "type": "string"
        }
      ],
      "name": "get_user_deposit",
      "outputs": [
        {
          "internalType": "uint256",
          "name": "",
          "type": "uint256"
        }
      ],
      "stateMutability": "view",
      "type": "function",
      "constant": true
    }
  ],
  "bytecode": "0x60806040523480156200001157600080fd5b5033600260006101000a81548173ffffffffffffffffffffffffffffffffffffffff021916908373ffffffffffffffffffffffffffffffffffffffff1602179055506040518060400160405280738f3cf7ad23cd3cadbd9735aff958023239c6a06373ffffffffffffffffffffffffffffffffffffffff16815260200160128152506000604051620000a39062000846565b908152602001604051809103902060008201518160000160006101000a81548173ffffffffffffffffffffffffffffffffffffffff021916908373ffffffffffffffffffffffffffffffffffffffff160217905550602082015181600101559050506040518060400160405280737ceb23fd6bc0add59e62ac25578270cff1b9f61973ffffffffffffffffffffffffffffffffffffffff168152602001601281525060006040516200015590620008ad565b908152602001604051809103902060008201518160000160006101000a81548173ffffffffffffffffffffffffffffffffffffffff021916908373ffffffffffffffffffffffffffffffffffffffff160217905550602082015181600101559050506040518060400160405280730d500b1d8e8ef31e21c99d1db9a6444d3adf127073ffffffffffffffffffffffffffffffffffffffff16815260200160128152506000604051620002079062000914565b908152602001604051809103902060008201518160000160006101000a81548173ffffffffffffffffffffffffffffffffffffffff021916908373ffffffffffffffffffffffffffffffffffffffff160217905550602082015181600101559050506040518060400160405280732791bca1f2de4661ed88a30c99a7a9449aa8417473ffffffffffffffffffffffffffffffffffffffff16815260200160068152506000604051620002b9906200097b565b908152602001604051809103902060008201518160000160006101000a81548173ffffffffffffffffffffffffffffffffffffffff021916908373ffffffffffffffffffffffffffffffffffffffff16021790555060208201518160010155905050604051806040016040528073c2132d05d31c914a87c6611c10748aeb04b58e8f73ffffffffffffffffffffffffffffffffffffffff168152602001600681525060006040516200036b90620009e2565b908152602001604051809103902060008201518160000160006101000a81548173ffffffffffffffffffffffffffffffffffffffff021916908373ffffffffffffffffffffffffffffffffffffffff160217905550602082015181600101559050506040518060400160405280731bfd67037b42cf73acf2047067bd4f2c47d9bfd673ffffffffffffffffffffffffffffffffffffffff168152602001600881525060006040516200041d9062000a49565b908152602001604051809103902060008201518160000160006101000a81548173ffffffffffffffffffffffffffffffffffffffff021916908373ffffffffffffffffffffffffffffffffffffffff16021790555060208201518160010155905050604051806040016040528073f28164a485b0b2c90639e47b0f377b4a438a16b173ffffffffffffffffffffffffffffffffffffffff16815260200160128152506000604051620004cf9062000ab0565b908152602001604051809103902060008201518160000160006101000a81548173ffffffffffffffffffffffffffffffffffffffff021916908373ffffffffffffffffffffffffffffffffffffffff1602179055506020820151816001015590505073eef611894ceae652979c9d0dae1deb597790c6ee6001604051620005569062000914565b9081526020016040518091039020604051620005729062000846565b908152602001604051809103902060040160006101000a81548173ffffffffffffffffffffffffffffffffffffffff021916908373ffffffffffffffffffffffffffffffffffffffff16021790555060126001604051620005d39062000914565b9081526020016040518091039020604051620005ef9062000846565b90815260200160405180910390206005018190555060006001604051620006169062000914565b9081526020016040518091039020604051620006329062000846565b9081526020016040518091039020600701819055506000604051620006579062000914565b90815260200160405180910390206001604051620006759062000914565b9081526020016040518091039020604051620006919062000846565b90815260200160405180910390206000016000820160009054906101000a900473ffffffffffffffffffffffffffffffffffffffff168160000160006101000a81548173ffffffffffffffffffffffffffffffffffffffff021916908373ffffffffffffffffffffffffffffffffffffffff160217905550600182015481600101559050506000604051620007269062000846565b90815260200160405180910390206001604051620007449062000914565b9081526020016040518091039020604051620007609062000846565b90815260200160405180910390206002016000820160009054906101000a900473ffffffffffffffffffffffffffffffffffffffff168160000160006101000a81548173ffffffffffffffffffffffffffffffffffffffff021916908373ffffffffffffffffffffffffffffffffffffffff1602179055506001820154816001015590505062000ac7565b600081905092915050565b7f4441490000000000000000000000000000000000000000000000000000000000600082015250565b60006200082e600383620007eb565b91506200083b82620007f6565b600382019050919050565b600062000853826200081f565b9150819050919050565b7f5745544800000000000000000000000000000000000000000000000000000000600082015250565b600062000895600483620007eb565b9150620008a2826200085d565b600482019050919050565b6000620008ba8262000886565b9150819050919050565b7f574d415449430000000000000000000000000000000000000000000000000000600082015250565b6000620008fc600683620007eb565b91506200090982620008c4565b600682019050919050565b60006200092182620008ed565b9150819050919050565b7f5553444300000000000000000000000000000000000000000000000000000000600082015250565b600062000963600483620007eb565b915062000970826200092b565b600482019050919050565b6000620009888262000954565b9150819050919050565b7f5553445400000000000000000000000000000000000000000000000000000000600082015250565b6000620009ca600483620007eb565b9150620009d78262000992565b600482019050919050565b6000620009ef82620009bb565b9150819050919050565b7f5742544300000000000000000000000000000000000000000000000000000000600082015250565b600062000a31600483620007eb565b915062000a3e82620009f9565b600482019050919050565b600062000a568262000a22565b9150819050919050565b7f44515549434b0000000000000000000000000000000000000000000000000000600082015250565b600062000a98600683620007eb565b915062000aa58262000a60565b600682019050919050565b600062000abd8262000a89565b9150819050919050565b612eae8062000ad76000396000f3fe6080604052600436106100e15760003560e01c80639bc97dee1161007f578063e4386ba311610059578063e4386ba3146102e0578063f68847351461031d578063f809a2e61461035a578063ff09156714610383576100e8565b80639bc97dee1461023d5780639d4d69c514610266578063c3a48401146102a3576100e8565b80637b60eb23116100bb5780637b60eb23146101905780637d3683ba1461019a578063884ef7bd146101d757806399269cae14610214576100e8565b80634ea44896146100ed5780636d336d6a1461012a5780637552acd614610167576100e8565b366100e857005b600080fd5b3480156100f957600080fd5b50610114600480360381019061010f9190611e4f565b6103ac565b6040516101219190611ee0565b60405180910390f35b34801561013657600080fd5b50610151600480360381019061014c9190611f27565b61048d565b60405161015e9190611ee0565b60405180910390f35b34801561017357600080fd5b5061018e60048036038101906101899190612010565b6106b7565b005b610198610885565b005b3480156101a657600080fd5b506101c160048036038101906101bc919061207f565b610ab3565b6040516101ce9190611ee0565b60405180910390f35b3480156101e357600080fd5b506101fe60048036038101906101f991906120c8565b610b76565b60405161020b9190611ee0565b60405180910390f35b34801561022057600080fd5b5061023b60048036038101906102369190612153565b610bfc565b005b34801561024957600080fd5b50610264600480360381019061025f9190612218565b610df3565b005b34801561027257600080fd5b5061028d60048036038101906102889190611e4f565b610fc0565b60405161029a9190611ee0565b60405180910390f35b3480156102af57600080fd5b506102ca60048036038101906102c59190612274565b6110a1565b6040516102d79190611ee0565b60405180910390f35b3480156102ec57600080fd5b506103076004803603810190610302919061207f565b611165565b6040516103149190611ee0565b60405180910390f35b34801561032957600080fd5b50610344600480360381019061033f91906122d0565b611228565b6040516103519190611ee0565b60405180910390f35b34801561036657600080fd5b50610381600480360381019061037c919061235b565b61130a565b005b34801561038f57600080fd5b506103aa60048036038101906103a5919061240e565b6115fc565b005b60006001836040516103be9190612559565b9081526020016040518091039020826040516103da9190612559565b908152602001604051809103902060040160009054906101000a900473ffffffffffffffffffffffffffffffffffffffff1673ffffffffffffffffffffffffffffffffffffffff166370a08231336040518263ffffffff1660e01b8152600401610444919061257f565b602060405180830381865afa158015610461573d6000803e3d6000fd5b505050506040513d601f19601f8201168201806040525081019061048591906125af565b905092915050565b60006060600267ffffffffffffffff8111156104ac576104ab611d24565b5b6040519080825280602002602001820160405280156104da5781602001602082028036833780820191505090505b5090506000846040516104ed9190612559565b908152602001604051809103902060000160009054906101000a900473ffffffffffffffffffffffffffffffffffffffff1681600081518110610533576105326125dc565b5b602002602001019073ffffffffffffffffffffffffffffffffffffffff16908173ffffffffffffffffffffffffffffffffffffffff168152505060008360405161057d9190612559565b908152602001604051809103902060000160009054906101000a900473ffffffffffffffffffffffffffffffffffffffff16816001815181106105c3576105c26125dc565b5b602002602001019073ffffffffffffffffffffffffffffffffffffffff16908173ffffffffffffffffffffffffffffffffffffffff168152505073a5e0829caced8ffdd4de3c43696c57f7d7a678ff73ffffffffffffffffffffffffffffffffffffffff1663d06ca61f86836040518363ffffffff1660e01b815260040161064c9291906126c9565b600060405180830381865afa158015610669573d6000803e3d6000fd5b505050506040513d6000823e3d601f19601f8201168201806040525081019061069291906127c1565b6001815181106106a5576106a46125dc565b5b60200260200101519150509392505050565b6000836040516106c79190612559565b908152602001604051809103902060000160009054906101000a900473ffffffffffffffffffffffffffffffffffffffff16338383808473ffffffffffffffffffffffffffffffffffffffff1663dd62ed3e85856040518363ffffffff1660e01b815260040161073892919061280a565b602060405180830381865afa158015610755573d6000803e3d6000fd5b505050506040513d601f19601f8201168201806040525081019061077991906125af565b10156107ba576040517f08c379a00000000000000000000000000000000000000000000000000000000081526004016107b1906128b6565b60405180910390fd5b6000876040516107ca9190612559565b908152602001604051809103902060000160009054906101000a900473ffffffffffffffffffffffffffffffffffffffff1673ffffffffffffffffffffffffffffffffffffffff166323b872dd3388886040518463ffffffff1660e01b8152600401610838939291906128d6565b6020604051808303816000875af1158015610857573d6000803e3d6000fd5b505050506040513d601f19601f8201168201806040525081019061087b9190612945565b5050505050505050565b6000806000604051610896906129be565b908152602001604051809103902060000160009054906101000a900473ffffffffffffffffffffffffffffffffffffffff1673ffffffffffffffffffffffffffffffffffffffff16346040516024016040516020818303038152906040527fc5d24601000000000000000000000000000000000000000000000000000000007bffffffffffffffffffffffffffffffffffffffffffffffffffffffff19166020820180517bffffffffffffffffffffffffffffffffffffffffffffffffffffffff838183161783525050505060405161096f9190612a1a565b60006040518083038185875af1925050503d80600081146109ac576040519150601f19603f3d011682016040523d82523d6000602084013e6109b1565b606091505b509150915060006040516109c4906129be565b908152602001604051809103902060000160009054906101000a900473ffffffffffffffffffffffffffffffffffffffff1673ffffffffffffffffffffffffffffffffffffffff166323b872dd3033346040518463ffffffff1660e01b8152600401610a32939291906128d6565b6020604051808303816000875af1158015610a51573d6000803e3d6000fd5b505050506040513d601f19601f82011682018060405250810190610a759190612945565b507f13848c3e38f8886f3f5d2ad9dff80d8092c2bbb8efd5b887a99c2c6cfc09ac2a8282604051610aa7929190612a8a565b60405180910390a15050565b60008082604051610ac49190612559565b908152602001604051809103902060000160009054906101000a900473ffffffffffffffffffffffffffffffffffffffff1673ffffffffffffffffffffffffffffffffffffffff166370a08231336040518263ffffffff1660e01b8152600401610b2e919061257f565b602060405180830381865afa158015610b4b573d6000803e3d6000fd5b505050506040513d601f19601f82011682018060405250810190610b6f91906125af565b9050919050565b6000600183604051610b889190612559565b908152602001604051809103902082604051610ba49190612559565b908152602001604051809103902060060160008573ffffffffffffffffffffffffffffffffffffffff1673ffffffffffffffffffffffffffffffffffffffff1681526020019081526020016000205490509392505050565b8586853381600185604051610c119190612559565b908152602001604051809103902084604051610c2d9190612559565b908152602001604051809103902060060160008373ffffffffffffffffffffffffffffffffffffffff1673ffffffffffffffffffffffffffffffffffffffff168152602001908152602001600020541015610cbd576040517f08c379a0000000000000000000000000000000000000000000000000000000008152600401610cb490612b2c565b60405180910390fd5b73a5e0829caced8ffdd4de3c43696c57f7d7a678ff73ffffffffffffffffffffffffffffffffffffffff1663baa2abde60008c604051610cfd9190612559565b908152602001604051809103902060000160009054906101000a900473ffffffffffffffffffffffffffffffffffffffff1660008c604051610d3f9190612559565b908152602001604051809103902060000160009054906101000a900473ffffffffffffffffffffffffffffffffffffffff168b8b8b338c6040518863ffffffff1660e01b8152600401610d989796959493929190612b4c565b60408051808303816000875af1158015610db6573d6000803e3d6000fd5b505050506040513d601f19601f82011682018060405250810190610dda9190612bbb565b5050610de78a8a33611af3565b50505050505050505050565b600082604051610e039190612559565b908152602001604051809103902060000160009054906101000a900473ffffffffffffffffffffffffffffffffffffffff16333083808473ffffffffffffffffffffffffffffffffffffffff1663dd62ed3e85856040518363ffffffff1660e01b8152600401610e7492919061280a565b602060405180830381865afa158015610e91573d6000803e3d6000fd5b505050506040513d601f19601f82011682018060405250810190610eb591906125af565b1015610ef6576040517f08c379a0000000000000000000000000000000000000000000000000000000008152600401610eed906128b6565b60405180910390fd5b600086604051610f069190612559565b908152602001604051809103902060000160009054906101000a900473ffffffffffffffffffffffffffffffffffffffff1673ffffffffffffffffffffffffffffffffffffffff166323b872dd3330886040518463ffffffff1660e01b8152600401610f74939291906128d6565b6020604051808303816000875af1158015610f93573d6000803e3d6000fd5b505050506040513d601f19601f82011682018060405250810190610fb79190612945565b50505050505050565b6000600183604051610fd29190612559565b908152602001604051809103902082604051610fee9190612559565b908152602001604051809103902060040160009054906101000a900473ffffffffffffffffffffffffffffffffffffffff1673ffffffffffffffffffffffffffffffffffffffff166370a08231306040518263ffffffff1660e01b8152600401611058919061257f565b602060405180830381865afa158015611075573d6000803e3d6000fd5b505050506040513d601f19601f8201168201806040525081019061109991906125af565b905092915050565b600080836040516110b29190612559565b908152602001604051809103902060000160009054906101000a900473ffffffffffffffffffffffffffffffffffffffff1673ffffffffffffffffffffffffffffffffffffffff166370a08231836040518263ffffffff1660e01b815260040161111c919061257f565b602060405180830381865afa158015611139573d6000803e3d6000fd5b505050506040513d601f19601f8201168201806040525081019061115d91906125af565b905092915050565b600080826040516111769190612559565b908152602001604051809103902060000160009054906101000a900473ffffffffffffffffffffffffffffffffffffffff1673ffffffffffffffffffffffffffffffffffffffff166370a08231306040518263ffffffff1660e01b81526004016111e0919061257f565b602060405180830381865afa1580156111fd573d6000803e3d6000fd5b505050506040513d601f19601f8201168201806040525081019061122191906125af565b9050919050565b600060018460405161123a9190612559565b9081526020016040518091039020836040516112569190612559565b908152602001604051809103902060040160009054906101000a900473ffffffffffffffffffffffffffffffffffffffff1673ffffffffffffffffffffffffffffffffffffffff166370a08231836040518263ffffffff1660e01b81526004016112c0919061257f565b602060405180830381865afa1580156112dd573d6000803e3d6000fd5b505050506040513d601f19601f8201168201806040525081019061130191906125af565b90509392505050565b6113148386610df3565b6000600267ffffffffffffffff81111561133157611330611d24565b5b60405190808252806020026020018201604052801561135f5781602001602082028036833780820191505090505b5090506000846040516113729190612559565b908152602001604051809103902060000160009054906101000a900473ffffffffffffffffffffffffffffffffffffffff16816000815181106113b8576113b76125dc565b5b602002602001019073ffffffffffffffffffffffffffffffffffffffff16908173ffffffffffffffffffffffffffffffffffffffff16815250506000836040516114029190612559565b908152602001604051809103902060000160009054906101000a900473ffffffffffffffffffffffffffffffffffffffff1681600181518110611448576114476125dc565b5b602002602001019073ffffffffffffffffffffffffffffffffffffffff16908173ffffffffffffffffffffffffffffffffffffffff16815250506000846040516114929190612559565b908152602001604051809103902060000160009054906101000a900473ffffffffffffffffffffffffffffffffffffffff1673ffffffffffffffffffffffffffffffffffffffff1663095ea7b373a5e0829caced8ffdd4de3c43696c57f7d7a678ff886040518363ffffffff1660e01b8152600401611512929190612bfb565b6020604051808303816000875af1158015611531573d6000803e3d6000fd5b505050506040513d601f19601f820116820180604052508101906115559190612945565b5073a5e0829caced8ffdd4de3c43696c57f7d7a678ff73ffffffffffffffffffffffffffffffffffffffff166338ed173987878433876040518663ffffffff1660e01b81526004016115ab959493929190612c24565b6000604051808303816000875af11580156115ca573d6000803e3d6000fd5b505050506040513d6000823e3d601f19601f820116820180604052508101906115f391906127c1565b50505050505050565b8686868633826000866040516116129190612559565b908152602001604051809103902060000160009054906101000a900473ffffffffffffffffffffffffffffffffffffffff1673ffffffffffffffffffffffffffffffffffffffff166370a08231836040518263ffffffff1660e01b815260040161167c919061257f565b602060405180830381865afa158015611699573d6000803e3d6000fd5b505050506040513d601f19601f820116820180604052508101906116bd91906125af565b10156116fe576040517f08c379a00000000000000000000000000000000000000000000000000000000081526004016116f590612cf0565b60405180910390fd5b8160008560405161170f9190612559565b908152602001604051809103902060000160009054906101000a900473ffffffffffffffffffffffffffffffffffffffff1673ffffffffffffffffffffffffffffffffffffffff166370a08231836040518263ffffffff1660e01b8152600401611779919061257f565b602060405180830381865afa158015611796573d6000803e3d6000fd5b505050506040513d601f19601f820116820180604052508101906117ba91906125af565b10156117fb576040517f08c379a00000000000000000000000000000000000000000000000000000000081526004016117f290612cf0565b60405180910390fd5b6118058c8b610df3565b61180f8b8a610df3565b60008c60405161181f9190612559565b908152602001604051809103902060000160009054906101000a900473ffffffffffffffffffffffffffffffffffffffff1673ffffffffffffffffffffffffffffffffffffffff1663095ea7b373a5e0829caced8ffdd4de3c43696c57f7d7a678ff8c6040518363ffffffff1660e01b815260040161189f929190612bfb565b6020604051808303816000875af11580156118be573d6000803e3d6000fd5b505050506040513d601f19601f820116820180604052508101906118e29190612945565b5060008b6040516118f39190612559565b908152602001604051809103902060000160009054906101000a900473ffffffffffffffffffffffffffffffffffffffff1673ffffffffffffffffffffffffffffffffffffffff1663095ea7b373a5e0829caced8ffdd4de3c43696c57f7d7a678ff8b6040518363ffffffff1660e01b8152600401611973929190612bfb565b6020604051808303816000875af1158015611992573d6000803e3d6000fd5b505050506040513d601f19601f820116820180604052508101906119b69190612945565b5073a5e0829caced8ffdd4de3c43696c57f7d7a678ff73ffffffffffffffffffffffffffffffffffffffff1663e8e3370060008e6040516119f79190612559565b908152602001604051809103902060000160009054906101000a900473ffffffffffffffffffffffffffffffffffffffff1660008e604051611a399190612559565b908152602001604051809103902060000160009054906101000a900473ffffffffffffffffffffffffffffffffffffffff168d8d8d8d308e6040518963ffffffff1660e01b8152600401611a94989796959493929190612d10565b6060604051808303816000875af1158015611ab3573d6000803e3d6000fd5b505050506040513d601f19601f82011682018060405250810190611ad79190612d8e565b505050611ae58c8c33611af3565b505050505050505050505050565b6000600184604051611b059190612559565b908152602001604051809103902083604051611b219190612559565b908152602001604051809103902060040160009054906101000a900473ffffffffffffffffffffffffffffffffffffffff1673ffffffffffffffffffffffffffffffffffffffff166370a08231306040518263ffffffff1660e01b8152600401611b8b919061257f565b602060405180830381865afa158015611ba8573d6000803e3d6000fd5b505050506040513d601f19601f82011682018060405250810190611bcc91906125af565b90506000600185604051611be09190612559565b908152602001604051809103902084604051611bfc9190612559565b90815260200160405180910390206007015482611c199190612e10565b905080600186604051611c2c9190612559565b908152602001604051809103902085604051611c489190612559565b908152602001604051809103902060060160008573ffffffffffffffffffffffffffffffffffffffff1673ffffffffffffffffffffffffffffffffffffffff1681526020019081526020016000206000828254611ca59190612e44565b9250508190555081600186604051611cbd9190612559565b908152602001604051809103902085604051611cd99190612559565b9081526020016040518091039020600701819055505050505050565b6000604051905090565b600080fd5b600080fd5b600080fd5b600080fd5b6000601f19601f8301169050919050565b7f4e487b7100000000000000000000000000000000000000000000000000000000600052604160045260246000fd5b611d5c82611d13565b810181811067ffffffffffffffff82111715611d7b57611d7a611d24565b5b80604052505050565b6000611d8e611cf5565b9050611d9a8282611d53565b919050565b600067ffffffffffffffff821115611dba57611db9611d24565b5b611dc382611d13565b9050602081019050919050565b82818337600083830152505050565b6000611df2611ded84611d9f565b611d84565b905082815260208101848484011115611e0e57611e0d611d0e565b5b611e19848285611dd0565b509392505050565b600082601f830112611e3657611e35611d09565b5b8135611e46848260208601611ddf565b91505092915050565b60008060408385031215611e6657611e65611cff565b5b600083013567ffffffffffffffff811115611e8457611e83611d04565b5b611e9085828601611e21565b925050602083013567ffffffffffffffff811115611eb157611eb0611d04565b5b611ebd85828601611e21565b9150509250929050565b6000819050919050565b611eda81611ec7565b82525050565b6000602082019050611ef56000830184611ed1565b92915050565b611f0481611ec7565b8114611f0f57600080fd5b50565b600081359050611f2181611efb565b92915050565b600080600060608486031215611f4057611f3f611cff565b5b6000611f4e86828701611f12565b935050602084013567ffffffffffffffff811115611f6f57611f6e611d04565b5b611f7b86828701611e21565b925050604084013567ffffffffffffffff811115611f9c57611f9b611d04565b5b611fa886828701611e21565b9150509250925092565b600073ffffffffffffffffffffffffffffffffffffffff82169050919050565b6000611fdd82611fb2565b9050919050565b611fed81611fd2565b8114611ff857600080fd5b50565b60008135905061200a81611fe4565b92915050565b60008060006060848603121561202957612028611cff565b5b600084013567ffffffffffffffff81111561204757612046611d04565b5b61205386828701611e21565b935050602061206486828701611ffb565b925050604061207586828701611f12565b9150509250925092565b60006020828403121561209557612094611cff565b5b600082013567ffffffffffffffff8111156120b3576120b2611d04565b5b6120bf84828501611e21565b91505092915050565b6000806000606084860312156120e1576120e0611cff565b5b60006120ef86828701611ffb565b935050602084013567ffffffffffffffff8111156121105761210f611d04565b5b61211c86828701611e21565b925050604084013567ffffffffffffffff81111561213d5761213c611d04565b5b61214986828701611e21565b9150509250925092565b60008060008060008060c087890312156121705761216f611cff565b5b600087013567ffffffffffffffff81111561218e5761218d611d04565b5b61219a89828a01611e21565b965050602087013567ffffffffffffffff8111156121bb576121ba611d04565b5b6121c789828a01611e21565b95505060406121d889828a01611f12565b94505060606121e989828a01611f12565b93505060806121fa89828a01611f12565b92505060a061220b89828a01611f12565b9150509295509295509295565b6000806040838503121561222f5761222e611cff565b5b600083013567ffffffffffffffff81111561224d5761224c611d04565b5b61225985828601611e21565b925050602061226a85828601611f12565b9150509250929050565b6000806040838503121561228b5761228a611cff565b5b600083013567ffffffffffffffff8111156122a9576122a8611d04565b5b6122b585828601611e21565b92505060206122c685828601611ffb565b9150509250929050565b6000806000606084860312156122e9576122e8611cff565b5b600084013567ffffffffffffffff81111561230757612306611d04565b5b61231386828701611e21565b935050602084013567ffffffffffffffff81111561233457612333611d04565b5b61234086828701611e21565b925050604061235186828701611ffb565b9150509250925092565b600080600080600060a0868803121561237757612376611cff565b5b600061238588828901611f12565b955050602061239688828901611f12565b945050604086013567ffffffffffffffff8111156123b7576123b6611d04565b5b6123c388828901611e21565b935050606086013567ffffffffffffffff8111156123e4576123e3611d04565b5b6123f088828901611e21565b925050608061240188828901611f12565b9150509295509295909350565b600080600080600080600060e0888a03121561242d5761242c611cff565b5b600088013567ffffffffffffffff81111561244b5761244a611d04565b5b6124578a828b01611e21565b975050602088013567ffffffffffffffff81111561247857612477611d04565b5b6124848a828b01611e21565b96505060406124958a828b01611f12565b95505060606124a68a828b01611f12565b94505060806124b78a828b01611f12565b93505060a06124c88a828b01611f12565b92505060c06124d98a828b01611f12565b91505092959891949750929550565b600081519050919050565b600081905092915050565b60005b8381101561251c578082015181840152602081019050612501565b60008484015250505050565b6000612533826124e8565b61253d81856124f3565b935061254d8185602086016124fe565b80840191505092915050565b60006125658284612528565b915081905092915050565b61257981611fd2565b82525050565b60006020820190506125946000830184612570565b92915050565b6000815190506125a981611efb565b92915050565b6000602082840312156125c5576125c4611cff565b5b60006125d38482850161259a565b91505092915050565b7f4e487b7100000000000000000000000000000000000000000000000000000000600052603260045260246000fd5b600081519050919050565b600082825260208201905092915050565b6000819050602082019050919050565b61264081611fd2565b82525050565b60006126528383612637565b60208301905092915050565b6000602082019050919050565b60006126768261260b565b6126808185612616565b935061268b83612627565b8060005b838110156126bc5781516126a38882612646565b97506126ae8361265e565b92505060018101905061268f565b5085935050505092915050565b60006040820190506126de6000830185611ed1565b81810360208301526126f0818461266b565b90509392505050565b600067ffffffffffffffff82111561271457612713611d24565b5b602082029050602081019050919050565b600080fd5b600061273d612738846126f9565b611d84565b905080838252602082019050602084028301858111156127605761275f612725565b5b835b818110156127895780612775888261259a565b845260208401935050602081019050612762565b5050509392505050565b600082601f8301126127a8576127a7611d09565b5b81516127b884826020860161272a565b91505092915050565b6000602082840312156127d7576127d6611cff565b5b600082015167ffffffffffffffff8111156127f5576127f4611d04565b5b61280184828501612793565b91505092915050565b600060408201905061281f6000830185612570565b61282c6020830184612570565b9392505050565b600082825260208201905092915050565b7f455243323020636f6e747261637420686173206e6f7420676976656e2070657260008201527f6d697373696f6e20746f207468697320616464726573732e0000000000000000602082015250565b60006128a0603883612833565b91506128ab82612844565b604082019050919050565b600060208201905081810360008301526128cf81612893565b9050919050565b60006060820190506128eb6000830186612570565b6128f86020830185612570565b6129056040830184611ed1565b949350505050565b60008115159050919050565b6129228161290d565b811461292d57600080fd5b50565b60008151905061293f81612919565b92915050565b60006020828403121561295b5761295a611cff565b5b600061296984828501612930565b91505092915050565b7f574d415449430000000000000000000000000000000000000000000000000000600082015250565b60006129a86006836124f3565b91506129b382612972565b600682019050919050565b60006129c98261299b565b9150819050919050565b600081519050919050565b600081905092915050565b60006129f4826129d3565b6129fe81856129de565b9350612a0e8185602086016124fe565b80840191505092915050565b6000612a2682846129e9565b915081905092915050565b612a3a8161290d565b82525050565b600082825260208201905092915050565b6000612a5c826129d3565b612a668185612a40565b9350612a768185602086016124fe565b612a7f81611d13565b840191505092915050565b6000604082019050612a9f6000830185612a31565b8181036020830152612ab18184612a51565b90509392505050565b7f5573657220646f6573206e6f74206861766520656e6f7567682062616c616e6360008201527f6520746f207769746864726177207468697320616d6f756e742e000000000000602082015250565b6000612b16603a83612833565b9150612b2182612aba565b604082019050919050565b60006020820190508181036000830152612b4581612b09565b9050919050565b600060e082019050612b61600083018a612570565b612b6e6020830189612570565b612b7b6040830188611ed1565b612b886060830187611ed1565b612b956080830186611ed1565b612ba260a0830185612570565b612baf60c0830184611ed1565b98975050505050505050565b60008060408385031215612bd257612bd1611cff565b5b6000612be08582860161259a565b9250506020612bf18582860161259a565b9150509250929050565b6000604082019050612c106000830185612570565b612c1d6020830184611ed1565b9392505050565b600060a082019050612c396000830188611ed1565b612c466020830187611ed1565b8181036040830152612c58818661266b565b9050612c676060830185612570565b612c746080830184611ed1565b9695505050505050565b7f5573657220646f6573206e6f74206861766520656e6f7567682062616c616e6360008201527f6520746f20616464206c69717569646974792e00000000000000000000000000602082015250565b6000612cda603383612833565b9150612ce582612c7e565b604082019050919050565b60006020820190508181036000830152612d0981612ccd565b9050919050565b600061010082019050612d26600083018b612570565b612d33602083018a612570565b612d406040830189611ed1565b612d4d6060830188611ed1565b612d5a6080830187611ed1565b612d6760a0830186611ed1565b612d7460c0830185612570565b612d8160e0830184611ed1565b9998505050505050505050565b600080600060608486031215612da757612da6611cff565b5b6000612db58682870161259a565b9350506020612dc68682870161259a565b9250506040612dd78682870161259a565b9150509250925092565b7f4e487b7100000000000000000000000000000000000000000000000000000000600052601160045260246000fd5b6000612e1b82611ec7565b9150612e2683611ec7565b9250828203905081811115612e3e57612e3d612de1565b5b92915050565b6000612e4f82611ec7565b9150612e5a83611ec7565b9250828201905080821115612e7257612e71612de1565b5b9291505056fea2646970667358221220f01c74425ee6e4b3ea40be06a05378cf1d2222493ee2e2d470c53e331c61d31064736f6c63430008110033",
  "immutableReferences": {},
  "source": "// SPDX-License-Identifier: MIT\nimport \"./interfaces.sol\";\n\npragma solidity >=0.4.22 <0.9.0;\n\ncontract microcebus_main {\n    //events\n    event Response(bool success, bytes data);\n\n    //structs\n    struct Token {\n        address adr;\n        uint256 decimals;\n    }\n\n    struct LPToken {\n        Token token0;\n        Token token1;\n        address adr;\n        uint256 decimals;\n        mapping(address => uint256) user_deposits;\n        uint256 contract_deposit;\n    }\n\n  //mappings\n  mapping(string => Token) private token_contracts;\n  mapping(string => mapping(string => LPToken)) private lp_token_contracts;\n  \n\n  //third party addresses\n  address constant UniswapV2Router02 = 0xa5E0829CaCEd8fFDD4De3c43696c57F7D7A678ff;\n  address constant WMATIC = 0x0d500B1d8E8eF31E21C99d1Db9A6444d3ADf1270;\n  address constant USDC = 0x2791Bca1f2de4661ED88A30C99A7a9449Aa84174;\n  address constant DAI = 0x8f3Cf7ad23Cd3CaDbD9735AFf958023239c6A063;\n  address constant USDT = 0xc2132D05D31c914a87C6611C10748AEb04B58e8F;\n  address constant WBTC = 0x1BFD67037B42Cf73acF2047067bd4F2C47D9BfD6;\n  address constant DQUICK = 0xf28164A485B0B2C90639E47b0f377b4a438a16B1;\n  address constant WETH = 0x7ceB23fD6bC0adD59E62ac25578270cFf1b9f619;\n\n  address constant WMATIC_DAI = 0xEEf611894CeaE652979C9D0DaE1dEb597790C6eE;\n\n  //admin address\n  address private admin;\n\n  //contract constructor\n  constructor() {\n        admin = msg.sender;\n        token_contracts[\"DAI\"] = Token({adr: DAI, decimals: 18});\n        token_contracts[\"WETH\"] = Token({adr: WETH, decimals: 18});\n        token_contracts[\"WMATIC\"] = Token({adr: WMATIC, decimals: 18});\n        token_contracts[\"USDC\"] = Token({adr: USDC, decimals: 6});\n        token_contracts[\"USDT\"] = Token({adr: USDT, decimals: 6});\n        token_contracts[\"WBTC\"] = Token({adr: WBTC, decimals: 8});\n        token_contracts[\"DQUICK\"] = Token({adr: DQUICK, decimals: 18});\n\n        lp_token_contracts[\"WMATIC\"][\"DAI\"].adr = WMATIC_DAI;\n        lp_token_contracts[\"WMATIC\"][\"DAI\"].decimals = 18;\n        lp_token_contracts[\"WMATIC\"][\"DAI\"].contract_deposit = 0;\n        lp_token_contracts[\"WMATIC\"][\"DAI\"].token0 = token_contracts[\"WMATIC\"];\n        lp_token_contracts[\"WMATIC\"][\"DAI\"].token1 = token_contracts[\"DAI\"];\n\n\n\n  }\n\n  //Add functions which add tokens, contracts and lp tokens/contracts\n\n    //modifiers\n    modifier check_token_approval(address _token_address, address _token_sender, address _token_receiver, uint256 _amount) {\n        require(iERC20(_token_address).allowance(_token_sender, _token_receiver) >= _amount,\n        \"ERC20 contract has not given permission to this address.\");\n        _;\n    }\n\n    modifier check_enough_balance_withdraw(string memory _tokenA_in_identifier, string memory _tokenB_in_identifier, uint256 _amount, address _user) {\n        require(lp_token_contracts[_tokenA_in_identifier][_tokenB_in_identifier].user_deposits[_user] >= _amount,\n        \"User does not have enough balance to withdraw this amount.\");\n        _;\n    }\n\n    modifier check_enough_balance_add(string memory _tokenA_in_identifier, string memory _tokenB_in_identifier, uint256 _amount0, uint256 _amount1, address _user) {\n        require(iERC20(token_contracts[_tokenA_in_identifier].adr).balanceOf(_user) >= _amount0,\n        \"User does not have enough balance to add liquidity.\");\n        require(iERC20(token_contracts[_tokenB_in_identifier].adr).balanceOf(_user) >= _amount1,\n        \"User does not have enough balance to add liquidity.\");\n        _;\n    }\n\n\n    //developer function to get WMATIC to an address for testing reasons\n    function receive_wmatic() external payable {\n            (bool success, bytes memory data) = token_contracts[\"WMATIC\"].adr.call{value: msg.value}(abi.encodeWithSignature(\"\"));\n            iERC20(token_contracts[\"WMATIC\"].adr).transferFrom(address(this), msg.sender, msg.value);\n            emit Response(success, data);\n        }\n\n    //send ERC20 token to a destination address\n    function transfer_token(string memory _token_in_identifier, address _token_receiver, uint256 _amount)\n      check_token_approval(token_contracts[_token_in_identifier].adr, msg.sender, _token_receiver, _amount) public {\n            iERC20(token_contracts[_token_in_identifier].adr).transferFrom(msg.sender, _token_receiver, _amount);\n        }\n\n    //send ERC20 token to this contract\n    function transfer_token_to_contract(string memory _token_in_identifier, uint256 _amount)\n      check_token_approval(token_contracts[_token_in_identifier].adr, msg.sender, address(this), _amount) public {\n            iERC20(token_contracts[_token_in_identifier].adr).transferFrom(msg.sender, address(this), _amount);\n        }\n\n\n\n    //swap exact tokens for tokens\n    function swap_exact_tokens_for_tokens(uint256 _amount_in, uint _amount_out_min, string memory _token_in_identifier,\n        string memory _token_out_identifier, uint deadline) external {\n        transfer_token_to_contract(_token_in_identifier, _amount_in);\n        address[] memory path = new address[](2);\n        path[0] = token_contracts[_token_in_identifier].adr;\n        path[1] = token_contracts[_token_out_identifier].adr;\n        iERC20(token_contracts[_token_in_identifier].adr).approve(UniswapV2Router02, _amount_in);     \n        IUniswapV2Router02(UniswapV2Router02).swapExactTokensForTokens(\n          _amount_in,\n          _amount_out_min,\n          path,\n          msg.sender,\n          deadline);\n    }\n\n    //add liquidity\n    function add_liquidity(string memory _tokenA_in_identifier, string memory _tokenB_in_identifier,\n        uint256 _amountA_desired, uint256 _amountB_desired, uint256 _amountA_Min, uint256 _amountB_Min, uint deadline)\n         check_enough_balance_add(_tokenA_in_identifier, _tokenB_in_identifier, _amountA_desired, _amountB_desired, msg.sender) external {\n\n            transfer_token_to_contract(_tokenA_in_identifier, _amountA_desired);\n            transfer_token_to_contract(_tokenB_in_identifier, _amountB_desired);\n\n            iERC20(token_contracts[_tokenA_in_identifier].adr).approve(UniswapV2Router02, _amountA_desired);\n            iERC20(token_contracts[_tokenB_in_identifier].adr).approve(UniswapV2Router02,_amountB_desired);\n\n            IUniswapV2Router02(UniswapV2Router02).addLiquidity(\n                token_contracts[_tokenA_in_identifier].adr,\n                token_contracts[_tokenB_in_identifier].adr,\n                _amountA_desired,\n                _amountB_desired,\n                _amountA_Min,\n                _amountB_Min,\n                address(this),\n                deadline\n            );\n            update_deposit(_tokenA_in_identifier, _tokenB_in_identifier, msg.sender);\n        }\n\n\n    //add liquidity\n    function withdraw_liquidity(string memory _tokenA_in_identifier, string memory _tokenB_in_identifier,\n        uint256 _liquidity, uint256 _amountA_Min, uint256 _amountB_Min, uint deadline)\n            check_enough_balance_withdraw(_tokenA_in_identifier, _tokenA_in_identifier, _liquidity, msg.sender) external {\n\n            IUniswapV2Router02(UniswapV2Router02).removeLiquidity(\n                token_contracts[_tokenA_in_identifier].adr,\n                token_contracts[_tokenB_in_identifier].adr,\n                _liquidity,\n                _amountA_Min,\n                _amountB_Min,\n                msg.sender,\n                deadline\n            );\n            update_deposit(_tokenA_in_identifier, _tokenB_in_identifier, msg.sender);\n        }\n\n    //update users farm deposit\n    function update_deposit(string memory _tokenA_in_identifier, string memory _tokenB_in_identifier, address _user) private {\n        uint256 amount = iERC20(lp_token_contracts[_tokenA_in_identifier][_tokenB_in_identifier].adr).balanceOf(address(this));\n        uint256 user_deposit = amount - lp_token_contracts[_tokenA_in_identifier][_tokenB_in_identifier].contract_deposit;\n        lp_token_contracts[_tokenA_in_identifier][_tokenB_in_identifier].user_deposits[_user] += user_deposit;\n        lp_token_contracts[_tokenA_in_identifier][_tokenB_in_identifier].contract_deposit = amount;\n    }\n\n\n    //get amounts out\n    function get_amounts_out(\n    uint256 _amount_in,\n    string memory _token_in_identifier,\n    string memory _token_out_identifier) public view returns(uint256) {\n        address[] memory path;\n        path = new address[](2);\n        path[0] = token_contracts[_token_in_identifier].adr;\n        path[1] = token_contracts[_token_out_identifier].adr;\n        return(IUniswapV2Router02(UniswapV2Router02).getAmountsOut(_amount_in, path)[1]);\n    }\n\n    //get balance of ERC20 token\n    function get_token_balance(string memory _token_identifier, address _token_owner) external view returns(uint256) {\n            return(iERC20(token_contracts[_token_identifier].adr).balanceOf(_token_owner));\n        }\n\n    //get balance of ERC20 token (sender)\n    function get_token_balance_sender(string memory _token_identifier) external view returns(uint256) {\n            return(iERC20(token_contracts[_token_identifier].adr).balanceOf(msg.sender));\n        }\n\n    //get balance of ERC20 token (contract)\n    function get_token_balance_contract(string memory _token_identifier) external view returns(uint256) {\n            return(iERC20(token_contracts[_token_identifier].adr).balanceOf(address(this)));\n        }\n\n    //get balance of LP token\n    function get_lp_token_balance(string memory _tokenA_in_identifier, string memory _tokenB_in_identifier,\n        address _token_owner) external view returns(uint256) {\n            return(iERC20(lp_token_contracts[_tokenA_in_identifier][_tokenB_in_identifier].adr).balanceOf(_token_owner));\n        }\n\n    //get balance of LP token (sender)\n    function get_lp_token_balance_sender(string memory _tokenA_in_identifier, string memory _tokenB_in_identifier) external view returns(uint256) {\n            return(iERC20(lp_token_contracts[_tokenA_in_identifier][_tokenB_in_identifier].adr).balanceOf(msg.sender));\n        }\n\n    //get balance of LP token (contract)\n    function get_lp_token_balance_contract(string memory _tokenA_in_identifier, string memory _tokenB_in_identifier) external view returns(uint256) {\n            return(iERC20(lp_token_contracts[_tokenA_in_identifier][_tokenB_in_identifier].adr).balanceOf(address(this)));\n        }\n\n    //get user deposit\n    function get_user_deposit(address _user, string memory _tokenA_in_identifier, string memory _tokenB_in_identifier) external view returns(uint256) {\n            return(lp_token_contracts[_tokenA_in_identifier][_tokenB_in_identifier].user_deposits[_user]);\n        }\n\n    //send MATIC to contract\n    receive() external payable {}\n\n\n}\n",
  "sourcePath": "C:\\Users\\tom_m\\Desktop\\microcebus\\contracts\\polygon\\microcebus_main.sol",
  "compiler": {
    "name": "solc",
    "version": "0.8.17+commit.8df45f5f.Emscripten.clang"
  },
  "schemaVersion": "3.4.10",
  "updatedAt": "2022-11-23T12:22:36.416Z",
  "networkType": "ethereum",
  "devdoc": {
    "kind": "dev",
    "methods": {},
    "version": 1
  },
  "userdoc": {
    "kind": "user",
    "methods": {},
    "version": 1
  },
  "db": {
    "callBytecode": {
      "id": "0x3e21f691be313bbba8d2ff30904add3e911a6838c767f0be20d8862a197f1adc"
    },
    "createBytecode": {
      "id": "0x2c454fb5ef80a5ab2257707c5b7e1cbff0fd939cbd7eb36e2edb4d0582e5369b"
    },
    "contract": {
      "id": "0x8976c7590bb5c63590f9e3dbf7b92eec3eafbbe153bb349813409f5355144fc1"
    }
  }
}