{
  "contractName": "microcebus_main",
  "abi": [
    {
      "inputs": [],
      "stateMutability": "nonpayable",
      "type": "constructor"
    },
    {
      "anonymous": false,
      "inputs": [
        {
          "indexed": false,
          "internalType": "bool",
          "name": "success",
          "type": "bool"
        },
        {
          "indexed": false,
          "internalType": "bytes",
          "name": "data",
          "type": "bytes"
        }
      ],
      "name": "Response",
      "type": "event"
    },
    {
      "stateMutability": "payable",
      "type": "receive",
      "payable": true
    },
    {
      "inputs": [],
      "name": "receive_wmatic",
      "outputs": [],
      "stateMutability": "payable",
      "type": "function",
      "payable": true
    },
    {
      "inputs": [
        {
          "internalType": "string",
          "name": "_token_in_identifier",
          "type": "string"
        },
        {
          "internalType": "address",
          "name": "_token_receiver",
          "type": "address"
        },
        {
          "internalType": "uint256",
          "name": "_amount",
          "type": "uint256"
        }
      ],
      "name": "transfer_token",
      "outputs": [],
      "stateMutability": "nonpayable",
      "type": "function"
    },
    {
      "inputs": [
        {
          "internalType": "string",
          "name": "_token_in_identifier",
          "type": "string"
        },
        {
          "internalType": "uint256",
          "name": "_amount",
          "type": "uint256"
        }
      ],
      "name": "transfer_token_to_contract",
      "outputs": [],
      "stateMutability": "nonpayable",
      "type": "function"
    },
    {
      "inputs": [
        {
          "internalType": "uint256",
          "name": "_amount_in",
          "type": "uint256"
        },
        {
          "internalType": "uint256",
          "name": "_amount_out_min",
          "type": "uint256"
        },
        {
          "internalType": "string",
          "name": "_token_in_identifier",
          "type": "string"
        },
        {
          "internalType": "string",
          "name": "_token_out_identifier",
          "type": "string"
        },
        {
          "internalType": "uint256",
          "name": "deadline",
          "type": "uint256"
        }
      ],
      "name": "swap_exact_tokens_for_tokens",
      "outputs": [],
      "stateMutability": "nonpayable",
      "type": "function"
    },
    {
      "inputs": [
        {
          "internalType": "uint256",
          "name": "_amount_in",
          "type": "uint256"
        },
        {
          "internalType": "string",
          "name": "_token_in_identifier",
          "type": "string"
        },
        {
          "internalType": "string",
          "name": "_token_out_identifier",
          "type": "string"
        }
      ],
      "name": "get_amounts_out",
      "outputs": [
        {
          "internalType": "uint256[]",
          "name": "",
          "type": "uint256[]"
        }
      ],
      "stateMutability": "view",
      "type": "function",
      "constant": true
    },
    {
      "inputs": [
        {
          "internalType": "string",
          "name": "_token_identifier",
          "type": "string"
        },
        {
          "internalType": "address",
          "name": "_token_owner",
          "type": "address"
        }
      ],
      "name": "get_token_balance",
      "outputs": [
        {
          "internalType": "uint256",
          "name": "",
          "type": "uint256"
        }
      ],
      "stateMutability": "view",
      "type": "function",
      "constant": true
    },
    {
      "inputs": [
        {
          "internalType": "string",
          "name": "_token_identifier",
          "type": "string"
        }
      ],
      "name": "get_token_balance_sender",
      "outputs": [
        {
          "internalType": "uint256",
          "name": "",
          "type": "uint256"
        }
      ],
      "stateMutability": "view",
      "type": "function",
      "constant": true
    },
    {
      "inputs": [
        {
          "internalType": "string",
          "name": "_token_identifier",
          "type": "string"
        }
      ],
      "name": "get_token_balance_contract",
      "outputs": [
        {
          "internalType": "uint256",
          "name": "",
          "type": "uint256"
        }
      ],
      "stateMutability": "view",
      "type": "function",
      "constant": true
    }
  ],
  "bytecode": "0x60806040523480156200001157600080fd5b5033600160006101000a81548173ffffffffffffffffffffffffffffffffffffffff021916908373ffffffffffffffffffffffffffffffffffffffff1602179055506040518060400160405280738f3cf7ad23cd3cadbd9735aff958023239c6a06373ffffffffffffffffffffffffffffffffffffffff16815260200160128152506000604051620000a39062000592565b908152602001604051809103902060008201518160000160006101000a81548173ffffffffffffffffffffffffffffffffffffffff021916908373ffffffffffffffffffffffffffffffffffffffff160217905550602082015181600101559050506040518060400160405280737ceb23fd6bc0add59e62ac25578270cff1b9f61973ffffffffffffffffffffffffffffffffffffffff168152602001601281525060006040516200015590620005f9565b908152602001604051809103902060008201518160000160006101000a81548173ffffffffffffffffffffffffffffffffffffffff021916908373ffffffffffffffffffffffffffffffffffffffff160217905550602082015181600101559050506040518060400160405280730d500b1d8e8ef31e21c99d1db9a6444d3adf127073ffffffffffffffffffffffffffffffffffffffff16815260200160128152506000604051620002079062000660565b908152602001604051809103902060008201518160000160006101000a81548173ffffffffffffffffffffffffffffffffffffffff021916908373ffffffffffffffffffffffffffffffffffffffff160217905550602082015181600101559050506040518060400160405280732791bca1f2de4661ed88a30c99a7a9449aa8417473ffffffffffffffffffffffffffffffffffffffff16815260200160068152506000604051620002b990620006c7565b908152602001604051809103902060008201518160000160006101000a81548173ffffffffffffffffffffffffffffffffffffffff021916908373ffffffffffffffffffffffffffffffffffffffff16021790555060208201518160010155905050604051806040016040528073c2132d05d31c914a87c6611c10748aeb04b58e8f73ffffffffffffffffffffffffffffffffffffffff168152602001600681525060006040516200036b906200072e565b908152602001604051809103902060008201518160000160006101000a81548173ffffffffffffffffffffffffffffffffffffffff021916908373ffffffffffffffffffffffffffffffffffffffff160217905550602082015181600101559050506040518060400160405280731bfd67037b42cf73acf2047067bd4f2c47d9bfd673ffffffffffffffffffffffffffffffffffffffff168152602001600881525060006040516200041d9062000795565b908152602001604051809103902060008201518160000160006101000a81548173ffffffffffffffffffffffffffffffffffffffff021916908373ffffffffffffffffffffffffffffffffffffffff16021790555060208201518160010155905050604051806040016040528073f28164a485b0b2c90639e47b0f377b4a438a16b173ffffffffffffffffffffffffffffffffffffffff16815260200160128152506000604051620004cf90620007fc565b908152602001604051809103902060008201518160000160006101000a81548173ffffffffffffffffffffffffffffffffffffffff021916908373ffffffffffffffffffffffffffffffffffffffff1602179055506020820151816001015590505062000813565b600081905092915050565b7f4441490000000000000000000000000000000000000000000000000000000000600082015250565b60006200057a60038362000537565b9150620005878262000542565b600382019050919050565b60006200059f826200056b565b9150819050919050565b7f5745544800000000000000000000000000000000000000000000000000000000600082015250565b6000620005e160048362000537565b9150620005ee82620005a9565b600482019050919050565b60006200060682620005d2565b9150819050919050565b7f574d415449430000000000000000000000000000000000000000000000000000600082015250565b60006200064860068362000537565b9150620006558262000610565b600682019050919050565b60006200066d8262000639565b9150819050919050565b7f5553444300000000000000000000000000000000000000000000000000000000600082015250565b6000620006af60048362000537565b9150620006bc8262000677565b600482019050919050565b6000620006d482620006a0565b9150819050919050565b7f5553445400000000000000000000000000000000000000000000000000000000600082015250565b60006200071660048362000537565b91506200072382620006de565b600482019050919050565b60006200073b8262000707565b9150819050919050565b7f5742544300000000000000000000000000000000000000000000000000000000600082015250565b60006200077d60048362000537565b91506200078a8262000745565b600482019050919050565b6000620007a2826200076e565b9150819050919050565b7f44515549434b0000000000000000000000000000000000000000000000000000600082015250565b6000620007e460068362000537565b9150620007f182620007ac565b600682019050919050565b60006200080982620007d5565b9150819050919050565b611b4880620008236000396000f3fe60806040526004361061007f5760003560e01c80639bc97dee1161004e5780639bc97dee14610138578063c3a4840114610161578063e4386ba31461019e578063f809a2e6146101db57610086565b80636d336d6a1461008b5780637552acd6146100c85780637b60eb23146100f15780637d3683ba146100fb57610086565b3661008657005b600080fd5b34801561009757600080fd5b506100b260048036038101906100ad91906110a7565b610204565b6040516100bf91906111f0565b60405180910390f35b3480156100d457600080fd5b506100ef60048036038101906100ea9190611270565b610412565b005b6100f96105e0565b005b34801561010757600080fd5b50610122600480360381019061011d91906112df565b61080e565b60405161012f9190611337565b60405180910390f35b34801561014457600080fd5b5061015f600480360381019061015a9190611352565b6108d1565b005b34801561016d57600080fd5b50610188600480360381019061018391906113ae565b610a9e565b6040516101959190611337565b60405180910390f35b3480156101aa57600080fd5b506101c560048036038101906101c091906112df565b610b62565b6040516101d29190611337565b60405180910390f35b3480156101e757600080fd5b5061020260048036038101906101fd919061140a565b610c25565b005b606080600267ffffffffffffffff81111561022257610221610f7c565b5b6040519080825280602002602001820160405280156102505781602001602082028036833780820191505090505b509050600084604051610263919061152e565b908152602001604051809103902060000160009054906101000a900473ffffffffffffffffffffffffffffffffffffffff16816000815181106102a9576102a8611545565b5b602002602001019073ffffffffffffffffffffffffffffffffffffffff16908173ffffffffffffffffffffffffffffffffffffffff16815250506000836040516102f3919061152e565b908152602001604051809103902060000160009054906101000a900473ffffffffffffffffffffffffffffffffffffffff168160018151811061033957610338611545565b5b602002602001019073ffffffffffffffffffffffffffffffffffffffff16908173ffffffffffffffffffffffffffffffffffffffff168152505073a5e0829caced8ffdd4de3c43696c57f7d7a678ff73ffffffffffffffffffffffffffffffffffffffff1663d06ca61f86836040518363ffffffff1660e01b81526004016103c2929190611632565b600060405180830381865afa1580156103df573d6000803e3d6000fd5b505050506040513d6000823e3d601f19601f82011682018060405250810190610408919061173f565b9150509392505050565b600083604051610422919061152e565b908152602001604051809103902060000160009054906101000a900473ffffffffffffffffffffffffffffffffffffffff16338383808473ffffffffffffffffffffffffffffffffffffffff1663dd62ed3e85856040518363ffffffff1660e01b8152600401610493929190611797565b602060405180830381865afa1580156104b0573d6000803e3d6000fd5b505050506040513d601f19601f820116820180604052508101906104d491906117c0565b1015610515576040517f08c379a000000000000000000000000000000000000000000000000000000000815260040161050c90611870565b60405180910390fd5b600087604051610525919061152e565b908152602001604051809103902060000160009054906101000a900473ffffffffffffffffffffffffffffffffffffffff1673ffffffffffffffffffffffffffffffffffffffff166323b872dd3388886040518463ffffffff1660e01b815260040161059393929190611890565b6020604051808303816000875af11580156105b2573d6000803e3d6000fd5b505050506040513d601f19601f820116820180604052508101906105d691906118ff565b5050505050505050565b60008060006040516105f190611978565b908152602001604051809103902060000160009054906101000a900473ffffffffffffffffffffffffffffffffffffffff1673ffffffffffffffffffffffffffffffffffffffff16346040516024016040516020818303038152906040527fc5d24601000000000000000000000000000000000000000000000000000000007bffffffffffffffffffffffffffffffffffffffffffffffffffffffff19166020820180517bffffffffffffffffffffffffffffffffffffffffffffffffffffffff83818316178352505050506040516106ca91906119d4565b60006040518083038185875af1925050503d8060008114610707576040519150601f19603f3d011682016040523d82523d6000602084013e61070c565b606091505b5091509150600060405161071f90611978565b908152602001604051809103902060000160009054906101000a900473ffffffffffffffffffffffffffffffffffffffff1673ffffffffffffffffffffffffffffffffffffffff166323b872dd3033346040518463ffffffff1660e01b815260040161078d93929190611890565b6020604051808303816000875af11580156107ac573d6000803e3d6000fd5b505050506040513d601f19601f820116820180604052508101906107d091906118ff565b507f13848c3e38f8886f3f5d2ad9dff80d8092c2bbb8efd5b887a99c2c6cfc09ac2a8282604051610802929190611a44565b60405180910390a15050565b6000808260405161081f919061152e565b908152602001604051809103902060000160009054906101000a900473ffffffffffffffffffffffffffffffffffffffff1673ffffffffffffffffffffffffffffffffffffffff166370a08231336040518263ffffffff1660e01b81526004016108899190611a74565b602060405180830381865afa1580156108a6573d6000803e3d6000fd5b505050506040513d601f19601f820116820180604052508101906108ca91906117c0565b9050919050565b6000826040516108e1919061152e565b908152602001604051809103902060000160009054906101000a900473ffffffffffffffffffffffffffffffffffffffff16333083808473ffffffffffffffffffffffffffffffffffffffff1663dd62ed3e85856040518363ffffffff1660e01b8152600401610952929190611797565b602060405180830381865afa15801561096f573d6000803e3d6000fd5b505050506040513d601f19601f8201168201806040525081019061099391906117c0565b10156109d4576040517f08c379a00000000000000000000000000000000000000000000000000000000081526004016109cb90611870565b60405180910390fd5b6000866040516109e4919061152e565b908152602001604051809103902060000160009054906101000a900473ffffffffffffffffffffffffffffffffffffffff1673ffffffffffffffffffffffffffffffffffffffff166323b872dd3330886040518463ffffffff1660e01b8152600401610a5293929190611890565b6020604051808303816000875af1158015610a71573d6000803e3d6000fd5b505050506040513d601f19601f82011682018060405250810190610a9591906118ff565b50505050505050565b60008083604051610aaf919061152e565b908152602001604051809103902060000160009054906101000a900473ffffffffffffffffffffffffffffffffffffffff1673ffffffffffffffffffffffffffffffffffffffff166370a08231836040518263ffffffff1660e01b8152600401610b199190611a74565b602060405180830381865afa158015610b36573d6000803e3d6000fd5b505050506040513d601f19601f82011682018060405250810190610b5a91906117c0565b905092915050565b60008082604051610b73919061152e565b908152602001604051809103902060000160009054906101000a900473ffffffffffffffffffffffffffffffffffffffff1673ffffffffffffffffffffffffffffffffffffffff166370a08231306040518263ffffffff1660e01b8152600401610bdd9190611a74565b602060405180830381865afa158015610bfa573d6000803e3d6000fd5b505050506040513d601f19601f82011682018060405250810190610c1e91906117c0565b9050919050565b610c2f83866108d1565b6000600267ffffffffffffffff811115610c4c57610c4b610f7c565b5b604051908082528060200260200182016040528015610c7a5781602001602082028036833780820191505090505b509050600084604051610c8d919061152e565b908152602001604051809103902060000160009054906101000a900473ffffffffffffffffffffffffffffffffffffffff1681600081518110610cd357610cd2611545565b5b602002602001019073ffffffffffffffffffffffffffffffffffffffff16908173ffffffffffffffffffffffffffffffffffffffff1681525050600083604051610d1d919061152e565b908152602001604051809103902060000160009054906101000a900473ffffffffffffffffffffffffffffffffffffffff1681600181518110610d6357610d62611545565b5b602002602001019073ffffffffffffffffffffffffffffffffffffffff16908173ffffffffffffffffffffffffffffffffffffffff1681525050600084604051610dad919061152e565b908152602001604051809103902060000160009054906101000a900473ffffffffffffffffffffffffffffffffffffffff1673ffffffffffffffffffffffffffffffffffffffff1663095ea7b373a5e0829caced8ffdd4de3c43696c57f7d7a678ff886040518363ffffffff1660e01b8152600401610e2d929190611a8f565b6020604051808303816000875af1158015610e4c573d6000803e3d6000fd5b505050506040513d601f19601f82011682018060405250810190610e7091906118ff565b5073a5e0829caced8ffdd4de3c43696c57f7d7a678ff73ffffffffffffffffffffffffffffffffffffffff166338ed173987878433876040518663ffffffff1660e01b8152600401610ec6959493929190611ab8565b6000604051808303816000875af1158015610ee5573d6000803e3d6000fd5b505050506040513d6000823e3d601f19601f82011682018060405250810190610f0e919061173f565b50505050505050565b6000604051905090565b600080fd5b600080fd5b6000819050919050565b610f3e81610f2b565b8114610f4957600080fd5b50565b600081359050610f5b81610f35565b92915050565b600080fd5b600080fd5b6000601f19601f8301169050919050565b7f4e487b7100000000000000000000000000000000000000000000000000000000600052604160045260246000fd5b610fb482610f6b565b810181811067ffffffffffffffff82111715610fd357610fd2610f7c565b5b80604052505050565b6000610fe6610f17565b9050610ff28282610fab565b919050565b600067ffffffffffffffff82111561101257611011610f7c565b5b61101b82610f6b565b9050602081019050919050565b82818337600083830152505050565b600061104a61104584610ff7565b610fdc565b90508281526020810184848401111561106657611065610f66565b5b611071848285611028565b509392505050565b600082601f83011261108e5761108d610f61565b5b813561109e848260208601611037565b91505092915050565b6000806000606084860312156110c0576110bf610f21565b5b60006110ce86828701610f4c565b935050602084013567ffffffffffffffff8111156110ef576110ee610f26565b5b6110fb86828701611079565b925050604084013567ffffffffffffffff81111561111c5761111b610f26565b5b61112886828701611079565b9150509250925092565b600081519050919050565b600082825260208201905092915050565b6000819050602082019050919050565b61116781610f2b565b82525050565b6000611179838361115e565b60208301905092915050565b6000602082019050919050565b600061119d82611132565b6111a7818561113d565b93506111b28361114e565b8060005b838110156111e35781516111ca888261116d565b97506111d583611185565b9250506001810190506111b6565b5085935050505092915050565b6000602082019050818103600083015261120a8184611192565b905092915050565b600073ffffffffffffffffffffffffffffffffffffffff82169050919050565b600061123d82611212565b9050919050565b61124d81611232565b811461125857600080fd5b50565b60008135905061126a81611244565b92915050565b60008060006060848603121561128957611288610f21565b5b600084013567ffffffffffffffff8111156112a7576112a6610f26565b5b6112b386828701611079565b93505060206112c48682870161125b565b92505060406112d586828701610f4c565b9150509250925092565b6000602082840312156112f5576112f4610f21565b5b600082013567ffffffffffffffff81111561131357611312610f26565b5b61131f84828501611079565b91505092915050565b61133181610f2b565b82525050565b600060208201905061134c6000830184611328565b92915050565b6000806040838503121561136957611368610f21565b5b600083013567ffffffffffffffff81111561138757611386610f26565b5b61139385828601611079565b92505060206113a485828601610f4c565b9150509250929050565b600080604083850312156113c5576113c4610f21565b5b600083013567ffffffffffffffff8111156113e3576113e2610f26565b5b6113ef85828601611079565b92505060206114008582860161125b565b9150509250929050565b600080600080600060a0868803121561142657611425610f21565b5b600061143488828901610f4c565b955050602061144588828901610f4c565b945050604086013567ffffffffffffffff81111561146657611465610f26565b5b61147288828901611079565b935050606086013567ffffffffffffffff81111561149357611492610f26565b5b61149f88828901611079565b92505060806114b088828901610f4c565b9150509295509295909350565b600081519050919050565b600081905092915050565b60005b838110156114f15780820151818401526020810190506114d6565b60008484015250505050565b6000611508826114bd565b61151281856114c8565b93506115228185602086016114d3565b80840191505092915050565b600061153a82846114fd565b915081905092915050565b7f4e487b7100000000000000000000000000000000000000000000000000000000600052603260045260246000fd5b600081519050919050565b600082825260208201905092915050565b6000819050602082019050919050565b6115a981611232565b82525050565b60006115bb83836115a0565b60208301905092915050565b6000602082019050919050565b60006115df82611574565b6115e9818561157f565b93506115f483611590565b8060005b8381101561162557815161160c88826115af565b9750611617836115c7565b9250506001810190506115f8565b5085935050505092915050565b60006040820190506116476000830185611328565b818103602083015261165981846115d4565b90509392505050565b600067ffffffffffffffff82111561167d5761167c610f7c565b5b602082029050602081019050919050565b600080fd5b6000815190506116a281610f35565b92915050565b60006116bb6116b684611662565b610fdc565b905080838252602082019050602084028301858111156116de576116dd61168e565b5b835b8181101561170757806116f38882611693565b8452602084019350506020810190506116e0565b5050509392505050565b600082601f83011261172657611725610f61565b5b81516117368482602086016116a8565b91505092915050565b60006020828403121561175557611754610f21565b5b600082015167ffffffffffffffff81111561177357611772610f26565b5b61177f84828501611711565b91505092915050565b61179181611232565b82525050565b60006040820190506117ac6000830185611788565b6117b96020830184611788565b9392505050565b6000602082840312156117d6576117d5610f21565b5b60006117e484828501611693565b91505092915050565b600082825260208201905092915050565b7f455243323020636f6e747261637420686173206e6f7420676976656e2070657260008201527f6d697373696f6e20746f207468697320616464726573732e0000000000000000602082015250565b600061185a6038836117ed565b9150611865826117fe565b604082019050919050565b600060208201905081810360008301526118898161184d565b9050919050565b60006060820190506118a56000830186611788565b6118b26020830185611788565b6118bf6040830184611328565b949350505050565b60008115159050919050565b6118dc816118c7565b81146118e757600080fd5b50565b6000815190506118f9816118d3565b92915050565b60006020828403121561191557611914610f21565b5b6000611923848285016118ea565b91505092915050565b7f574d415449430000000000000000000000000000000000000000000000000000600082015250565b60006119626006836114c8565b915061196d8261192c565b600682019050919050565b600061198382611955565b9150819050919050565b600081519050919050565b600081905092915050565b60006119ae8261198d565b6119b88185611998565b93506119c88185602086016114d3565b80840191505092915050565b60006119e082846119a3565b915081905092915050565b6119f4816118c7565b82525050565b600082825260208201905092915050565b6000611a168261198d565b611a2081856119fa565b9350611a308185602086016114d3565b611a3981610f6b565b840191505092915050565b6000604082019050611a5960008301856119eb565b8181036020830152611a6b8184611a0b565b90509392505050565b6000602082019050611a896000830184611788565b92915050565b6000604082019050611aa46000830185611788565b611ab16020830184611328565b9392505050565b600060a082019050611acd6000830188611328565b611ada6020830187611328565b8181036040830152611aec81866115d4565b9050611afb6060830185611788565b611b086080830184611328565b969550505050505056fea26469706673582212209a0ebff69273879182fa20fab7267384b9efafa022b27ef74a9fad7082666ed164736f6c63430008110033",
  "immutableReferences": {},
  "source": "// SPDX-License-Identifier: MIT\nimport \"./interfaces.sol\";\n\npragma solidity >=0.4.22 <0.9.0;\n\ncontract microcebus_main {\n    //events\n    event Response(bool success, bytes data);\n\n    //structs\n    struct Token {\n        address adr;\n        uint256 decimals;\n    }\n\n    struct Farm {\n        address liquidityPoolToken;\n        address compundPoolToken;\n        address rewardToken;\n        mapping(address => UserBalance) balances;\n    }\n\n    struct UserBalance {\n        address adr;\n        uint256 balance;\n    }\n\n  //mappings\n  mapping(string => Token) token_contracts;\n\n  //third party addresses\n  address constant UniswapV2Router02 = 0xa5E0829CaCEd8fFDD4De3c43696c57F7D7A678ff;\n  address constant WMATIC = 0x0d500B1d8E8eF31E21C99d1Db9A6444d3ADf1270;\n  address constant USDC = 0x2791Bca1f2de4661ED88A30C99A7a9449Aa84174;\n  address constant DAI = 0x8f3Cf7ad23Cd3CaDbD9735AFf958023239c6A063;\n  address constant USDT = 0xc2132D05D31c914a87C6611C10748AEb04B58e8F;\n  address constant WBTC = 0x1BFD67037B42Cf73acF2047067bd4F2C47D9BfD6;\n  address constant DQUICK = 0xf28164A485B0B2C90639E47b0f377b4a438a16B1;\n  address constant WETH = 0x7ceB23fD6bC0adD59E62ac25578270cFf1b9f619;\n\n  //admin address\n  address private admin;\n\n  //contract constructor\n  constructor() {\n\n        admin = msg.sender;\n        token_contracts[\"DAI\"] = Token({adr: DAI, decimals: 18});\n        token_contracts[\"WETH\"] = Token({adr: WETH, decimals: 18});\n        token_contracts[\"WMATIC\"] = Token({adr: WMATIC, decimals: 18});\n        token_contracts[\"USDC\"] = Token({adr: USDC, decimals: 6});\n        token_contracts[\"USDT\"] = Token({adr: USDT, decimals: 6});\n        token_contracts[\"WBTC\"] = Token({adr: WBTC, decimals: 8});\n        token_contracts[\"DQUICK\"] = Token({adr: DQUICK, decimals: 18});\n\n  }\n\n    //modifiers\n    modifier check_token_approval(address _token_address, address _token_sender, address _token_receiver, uint256 _amount) {\n        require(iERC20(_token_address).allowance(_token_sender, _token_receiver) >= _amount,\n        \"ERC20 contract has not given permission to this address.\");\n        _;\n    }\n\n\n    //developer function to get WMATIC to an address for testing reasons\n    function receive_wmatic() external payable {\n            (bool success, bytes memory data) = token_contracts[\"WMATIC\"].adr.call{value: msg.value}(abi.encodeWithSignature(\"\"));\n            iERC20(token_contracts[\"WMATIC\"].adr).transferFrom(address(this), msg.sender, msg.value);\n            emit Response(success, data);\n        }\n\n    //send ERC20 token to a destination address\n    function transfer_token(string memory _token_in_identifier, address _token_receiver, uint256 _amount)\n      check_token_approval(token_contracts[_token_in_identifier].adr, msg.sender, _token_receiver, _amount) public {\n            iERC20(token_contracts[_token_in_identifier].adr).transferFrom(msg.sender, _token_receiver, _amount);\n        }\n\n    //send ERC20 token to this contract\n    function transfer_token_to_contract(string memory _token_in_identifier, uint256 _amount)\n      check_token_approval(token_contracts[_token_in_identifier].adr, msg.sender, address(this), _amount) public {\n            iERC20(token_contracts[_token_in_identifier].adr).transferFrom(msg.sender, address(this), _amount);\n        }\n\n    //swap exact tokens for tokens\n    function swap_exact_tokens_for_tokens(uint256 _amount_in, uint _amount_out_min, string memory _token_in_identifier,\n        string memory _token_out_identifier, uint deadline) external {\n        transfer_token_to_contract(_token_in_identifier, _amount_in);\n        address[] memory path = new address[](2);\n        path[0] = token_contracts[_token_in_identifier].adr;\n        path[1] = token_contracts[_token_out_identifier].adr;\n        iERC20(token_contracts[_token_in_identifier].adr).approve(UniswapV2Router02, _amount_in);     \n        IUniswapV2Router02(UniswapV2Router02).swapExactTokensForTokens(\n          _amount_in,\n          _amount_out_min,\n          path,\n          msg.sender,\n          deadline);\n    }\n\n\n    //get amounts out\n    function get_amounts_out(\n    uint256 _amount_in,\n    string memory _token_in_identifier,\n    string memory _token_out_identifier) public view returns(uint256[] memory) {\n        address[] memory path;\n        path = new address[](2);\n        path[0] = token_contracts[_token_in_identifier].adr;\n        path[1] = token_contracts[_token_out_identifier].adr;\n        return(IUniswapV2Router02(UniswapV2Router02).getAmountsOut(_amount_in, path));\n    }\n\n    //get balance of ERC20 token\n    function get_token_balance(string memory _token_identifier, address _token_owner) external view returns(uint256) {\n            return(iERC20(token_contracts[_token_identifier].adr).balanceOf(_token_owner));\n        }\n\n    //get balance of ERC20 token (sender)\n    function get_token_balance_sender(string memory _token_identifier) external view returns(uint256) {\n            return(iERC20(token_contracts[_token_identifier].adr).balanceOf(msg.sender));\n        }\n\n    //get balance of ERC20 token (contract)\n    function get_token_balance_contract(string memory _token_identifier) external view returns(uint256) {\n            return(iERC20(token_contracts[_token_identifier].adr).balanceOf(address(this)));\n        }\n\n\n\n    //send MATIC to contract\n    receive() external payable {}\n\n\n}\n",
  "sourcePath": "C:\\Users\\tom_m\\Desktop\\microcebus\\contracts\\polygon\\microcebus_main.sol",
  "compiler": {
    "name": "solc",
    "version": "0.8.17+commit.8df45f5f.Emscripten.clang"
  },
  "schemaVersion": "3.4.10",
  "updatedAt": "2022-11-19T16:04:53.128Z",
  "networkType": "ethereum",
  "devdoc": {
    "kind": "dev",
    "methods": {},
    "version": 1
  },
  "userdoc": {
    "kind": "user",
    "methods": {},
    "version": 1
  },
  "db": {
    "callBytecode": {
      "id": "0xb56d4d0f9f91ee9f3d72bd5dd5f9fc7ad1a2b253c6bfc829c0b672f38ce1410e"
    },
    "createBytecode": {
      "id": "0x2a23f525bededd8247e26b6f2cf452380d16a785b56ee9db262f5c7507933a64"
    },
    "contract": {
      "id": "0x123cb83a2b4b8f8afd5cb27e5f2dc121531af1f0e3572341f266c09cac480e6e"
    }
  }
}